{
  "_format": "hh-sol-artifact-1",
  "contractName": "ProjectVoting",
  "sourceName": "contracts/project-voting.sol",
  "abi": [
    {
      "inputs": [
        {
          "internalType": "address",
          "name": "_vrfCoordinator",
          "type": "address"
        },
        {
          "internalType": "uint256",
          "name": "_subscriptionId",
          "type": "uint256"
        },
        {
          "internalType": "bytes32",
          "name": "_keyHash",
          "type": "bytes32"
        }
      ],
      "stateMutability": "nonpayable",
      "type": "constructor"
    },
    {
      "inputs": [
        {
          "internalType": "address",
          "name": "have",
          "type": "address"
        },
        {
          "internalType": "address",
          "name": "want",
          "type": "address"
        }
      ],
      "name": "OnlyCoordinatorCanFulfill",
      "type": "error"
    },
    {
      "inputs": [
        {
          "internalType": "address",
          "name": "have",
          "type": "address"
        },
        {
          "internalType": "address",
          "name": "owner",
          "type": "address"
        },
        {
          "internalType": "address",
          "name": "coordinator",
          "type": "address"
        }
      ],
      "name": "OnlyOwnerOrCoordinator",
      "type": "error"
    },
    {
      "inputs": [],
      "name": "ZeroAddress",
      "type": "error"
    },
    {
      "anonymous": false,
      "inputs": [
        {
          "indexed": false,
          "internalType": "address",
          "name": "vrfCoordinator",
          "type": "address"
        }
      ],
      "name": "CoordinatorSet",
      "type": "event"
    },
    {
      "anonymous": false,
      "inputs": [
        {
          "indexed": true,
          "internalType": "address",
          "name": "from",
          "type": "address"
        },
        {
          "indexed": true,
          "internalType": "address",
          "name": "to",
          "type": "address"
        }
      ],
      "name": "OwnershipTransferRequested",
      "type": "event"
    },
    {
      "anonymous": false,
      "inputs": [
        {
          "indexed": true,
          "internalType": "address",
          "name": "from",
          "type": "address"
        },
        {
          "indexed": true,
          "internalType": "address",
          "name": "to",
          "type": "address"
        }
      ],
      "name": "OwnershipTransferred",
      "type": "event"
    },
    {
      "anonymous": false,
      "inputs": [
        {
          "indexed": false,
          "internalType": "string",
          "name": "projectId",
          "type": "string"
        },
        {
          "indexed": false,
          "internalType": "string",
          "name": "projectName",
          "type": "string"
        }
      ],
      "name": "ProjectAdded",
      "type": "event"
    },
    {
      "anonymous": false,
      "inputs": [
        {
          "indexed": false,
          "internalType": "uint256",
          "name": "requestId",
          "type": "uint256"
        },
        {
          "indexed": false,
          "internalType": "uint256[]",
          "name": "randomWords",
          "type": "uint256[]"
        }
      ],
      "name": "RequestFulfilled",
      "type": "event"
    },
    {
      "anonymous": false,
      "inputs": [
        {
          "indexed": false,
          "internalType": "uint256",
          "name": "requestId",
          "type": "uint256"
        },
        {
          "indexed": false,
          "internalType": "uint32",
          "name": "numWords",
          "type": "uint32"
        }
      ],
      "name": "RequestSent",
      "type": "event"
    },
    {
      "anonymous": false,
      "inputs": [
        {
          "indexed": false,
          "internalType": "address",
          "name": "voter",
          "type": "address"
        },
        {
          "indexed": false,
          "internalType": "string",
          "name": "name",
          "type": "string"
        },
        {
          "indexed": false,
          "internalType": "string",
          "name": "projectId",
          "type": "string"
        },
        {
          "indexed": false,
          "internalType": "uint256",
          "name": "cycle",
          "type": "uint256"
        }
      ],
      "name": "Voted",
      "type": "event"
    },
    {
      "anonymous": false,
      "inputs": [
        {
          "indexed": false,
          "internalType": "address",
          "name": "winner",
          "type": "address"
        },
        {
          "indexed": false,
          "internalType": "uint256",
          "name": "amount",
          "type": "uint256"
        },
        {
          "indexed": false,
          "internalType": "uint256",
          "name": "cycle",
          "type": "uint256"
        }
      ],
      "name": "WinnerAnnounced",
      "type": "event"
    },
    {
      "inputs": [],
      "name": "acceptOwnership",
      "outputs": [],
      "stateMutability": "nonpayable",
      "type": "function"
    },
    {
      "inputs": [
        {
          "internalType": "string",
          "name": "projectName",
          "type": "string"
        },
        {
          "internalType": "string",
          "name": "projectId",
          "type": "string"
        }
      ],
      "name": "add",
      "outputs": [],
      "stateMutability": "nonpayable",
      "type": "function"
    },
    {
      "inputs": [
        {
          "internalType": "address",
          "name": "",
          "type": "address"
        }
      ],
      "name": "addressChoice",
      "outputs": [
        {
          "internalType": "string",
          "name": "",
          "type": "string"
        }
      ],
      "stateMutability": "view",
      "type": "function"
    },
    {
      "inputs": [
        {
          "internalType": "address",
          "name": "",
          "type": "address"
        }
      ],
      "name": "addressToName",
      "outputs": [
        {
          "internalType": "string",
          "name": "",
          "type": "string"
        }
      ],
      "stateMutability": "view",
      "type": "function"
    },
    {
      "inputs": [],
      "name": "checkHasVoted",
      "outputs": [
        {
          "internalType": "bool",
          "name": "",
          "type": "bool"
        }
      ],
      "stateMutability": "view",
      "type": "function"
    },
    {
      "inputs": [],
      "name": "currentCycle",
      "outputs": [
        {
          "internalType": "uint256",
          "name": "",
          "type": "uint256"
        }
      ],
      "stateMutability": "view",
      "type": "function"
    },
    {
      "inputs": [
        {
          "internalType": "uint256",
          "name": "",
          "type": "uint256"
        },
        {
          "internalType": "uint256",
          "name": "",
          "type": "uint256"
        }
      ],
      "name": "cycleVoters",
      "outputs": [
        {
          "internalType": "address",
          "name": "",
          "type": "address"
        }
      ],
      "stateMutability": "view",
      "type": "function"
    },
    {
      "inputs": [
        {
          "internalType": "uint256",
          "name": "",
          "type": "uint256"
        },
        {
          "internalType": "string",
          "name": "",
          "type": "string"
        }
      ],
      "name": "cycleVotes",
      "outputs": [
        {
          "internalType": "uint256",
          "name": "",
          "type": "uint256"
        }
      ],
      "stateMutability": "view",
      "type": "function"
    },
    {
      "inputs": [],
      "name": "getBalance",
      "outputs": [
        {
          "internalType": "uint256",
          "name": "",
          "type": "uint256"
        }
      ],
      "stateMutability": "view",
      "type": "function"
    },
    {
      "inputs": [],
      "name": "getCycle",
      "outputs": [
        {
          "internalType": "uint256",
          "name": "",
          "type": "uint256"
        }
      ],
      "stateMutability": "view",
      "type": "function"
    },
    {
      "inputs": [
        {
          "internalType": "string",
          "name": "projectId",
          "type": "string"
        }
      ],
      "name": "getCycleVoteCount",
      "outputs": [
        {
          "internalType": "uint256",
          "name": "",
          "type": "uint256"
        }
      ],
      "stateMutability": "view",
      "type": "function"
    },
    {
      "inputs": [],
      "name": "getProjects",
      "outputs": [
        {
          "internalType": "string[]",
          "name": "",
          "type": "string[]"
        }
      ],
      "stateMutability": "view",
      "type": "function"
    },
    {
      "inputs": [
        {
          "internalType": "uint256",
          "name": "_requestId",
          "type": "uint256"
        }
      ],
      "name": "getRequestStatus",
      "outputs": [
        {
          "internalType": "bool",
          "name": "fulfilled",
          "type": "bool"
        },
        {
          "internalType": "uint256[]",
          "name": "randomWords",
          "type": "uint256[]"
        }
      ],
      "stateMutability": "view",
      "type": "function"
    },
    {
      "inputs": [],
      "name": "getThreshold",
      "outputs": [
        {
          "internalType": "uint256",
          "name": "",
          "type": "uint256"
        }
      ],
      "stateMutability": "view",
      "type": "function"
    },
    {
      "inputs": [],
      "name": "getVote",
      "outputs": [
        {
          "internalType": "string",
          "name": "",
          "type": "string"
        }
      ],
      "stateMutability": "view",
      "type": "function"
    },
    {
      "inputs": [
        {
          "internalType": "address",
          "name": "",
          "type": "address"
        }
      ],
      "name": "hasVoted",
      "outputs": [
        {
          "internalType": "bool",
          "name": "",
          "type": "bool"
        }
      ],
      "stateMutability": "view",
      "type": "function"
    },
    {
      "inputs": [],
      "name": "lastRequestId",
      "outputs": [
        {
          "internalType": "uint256",
          "name": "",
          "type": "uint256"
        }
      ],
      "stateMutability": "view",
      "type": "function"
    },
    {
      "inputs": [
        {
          "internalType": "string",
          "name": "",
          "type": "string"
        }
      ],
      "name": "nameToAddress",
      "outputs": [
        {
          "internalType": "address",
          "name": "",
          "type": "address"
        }
      ],
      "stateMutability": "view",
      "type": "function"
    },
    {
      "inputs": [],
      "name": "owner",
      "outputs": [
        {
          "internalType": "address",
          "name": "",
          "type": "address"
        }
      ],
      "stateMutability": "view",
      "type": "function"
    },
    {
      "inputs": [
        {
          "internalType": "string",
          "name": "",
          "type": "string"
        }
      ],
      "name": "projects",
      "outputs": [
        {
          "internalType": "string",
          "name": "",
          "type": "string"
        }
      ],
      "stateMutability": "view",
      "type": "function"
    },
    {
      "inputs": [
        {
          "internalType": "uint256",
          "name": "requestId",
          "type": "uint256"
        },
        {
          "internalType": "uint256[]",
          "name": "randomWords",
          "type": "uint256[]"
        }
      ],
      "name": "rawFulfillRandomWords",
      "outputs": [],
      "stateMutability": "nonpayable",
      "type": "function"
    },
    {
      "inputs": [
        {
          "internalType": "string",
          "name": "displayName",
          "type": "string"
        }
      ],
      "name": "registerVoter",
      "outputs": [],
      "stateMutability": "nonpayable",
      "type": "function"
    },
    {
      "inputs": [
        {
          "internalType": "uint256",
          "name": "",
          "type": "uint256"
        }
      ],
      "name": "requestIds",
      "outputs": [
        {
          "internalType": "uint256",
          "name": "",
          "type": "uint256"
        }
      ],
      "stateMutability": "view",
      "type": "function"
    },
    {
      "inputs": [
        {
          "internalType": "uint256",
          "name": "",
          "type": "uint256"
        }
      ],
      "name": "s_requests",
      "outputs": [
        {
          "internalType": "bool",
          "name": "fulfilled",
          "type": "bool"
        },
        {
          "internalType": "bool",
          "name": "exists",
          "type": "bool"
        }
      ],
      "stateMutability": "view",
      "type": "function"
    },
    {
      "inputs": [],
      "name": "s_vrfCoordinator",
      "outputs": [
        {
          "internalType": "contract IVRFCoordinatorV2Plus",
          "name": "",
          "type": "address"
        }
      ],
      "stateMutability": "view",
      "type": "function"
    },
    {
      "inputs": [
        {
          "internalType": "address",
          "name": "_vrfCoordinator",
          "type": "address"
        }
      ],
      "name": "setCoordinator",
      "outputs": [],
      "stateMutability": "nonpayable",
      "type": "function"
    },
    {
      "inputs": [
        {
          "internalType": "address",
          "name": "to",
          "type": "address"
        }
      ],
      "name": "transferOwnership",
      "outputs": [],
      "stateMutability": "nonpayable",
      "type": "function"
    },
    {
      "inputs": [
        {
          "internalType": "string",
          "name": "projectId",
          "type": "string"
        },
        {
          "internalType": "string",
          "name": "displayName",
          "type": "string"
        }
      ],
      "name": "vote",
      "outputs": [],
      "stateMutability": "payable",
      "type": "function"
    }
  ],
  "bytecode": "0x608060405267016345785d8a0000600a556001600b55620186a0600f60006101000a81548163ffffffff021916908363ffffffff1602179055506003600f60046101000a81548161ffff021916908361ffff1602179055506001600f60066101000a81548163ffffffff021916908363ffffffff1602179055503480156200008657600080fd5b5060405162003caf38038062003caf8339818101604052810190620000ac91906200047b565b82338060008073ffffffffffffffffffffffffffffffffffffffff168273ffffffffffffffffffffffffffffffffffffffff160362000122576040517f08c379a0000000000000000000000000000000000000000000000000000000008152600401620001199062000538565b60405180910390fd5b816000806101000a81548173ffffffffffffffffffffffffffffffffffffffff021916908373ffffffffffffffffffffffffffffffffffffffff160217905550600073ffffffffffffffffffffffffffffffffffffffff168173ffffffffffffffffffffffffffffffffffffffff1614620001a957620001a8816200026c60201b60201c565b5b505050600073ffffffffffffffffffffffffffffffffffffffff168173ffffffffffffffffffffffffffffffffffffffff160362000213576040517fd92e233d00000000000000000000000000000000000000000000000000000000815260040160405180910390fd5b80600260006101000a81548173ffffffffffffffffffffffffffffffffffffffff021916908373ffffffffffffffffffffffffffffffffffffffff1602179055505081600d8190555080600e81905550505050620005cc565b3373ffffffffffffffffffffffffffffffffffffffff168173ffffffffffffffffffffffffffffffffffffffff1603620002dd576040517f08c379a0000000000000000000000000000000000000000000000000000000008152600401620002d490620005aa565b60405180910390fd5b80600160006101000a81548173ffffffffffffffffffffffffffffffffffffffff021916908373ffffffffffffffffffffffffffffffffffffffff1602179055508073ffffffffffffffffffffffffffffffffffffffff1660008054906101000a900473ffffffffffffffffffffffffffffffffffffffff1673ffffffffffffffffffffffffffffffffffffffff167fed8889f560326eb138920d842192f0eb3dd22b4f139c87a2c57538e05bae127860405160405180910390a350565b600080fd5b600073ffffffffffffffffffffffffffffffffffffffff82169050919050565b6000620003cd82620003a0565b9050919050565b620003df81620003c0565b8114620003eb57600080fd5b50565b600081519050620003ff81620003d4565b92915050565b6000819050919050565b6200041a8162000405565b81146200042657600080fd5b50565b6000815190506200043a816200040f565b92915050565b6000819050919050565b620004558162000440565b81146200046157600080fd5b50565b60008151905062000475816200044a565b92915050565b6000806000606084860312156200049757620004966200039b565b5b6000620004a786828701620003ee565b9350506020620004ba8682870162000429565b9250506040620004cd8682870162000464565b9150509250925092565b600082825260208201905092915050565b7f43616e6e6f7420736574206f776e657220746f207a65726f0000000000000000600082015250565b600062000520601883620004d7565b91506200052d82620004e8565b602082019050919050565b60006020820190508181036000830152620005538162000511565b9050919050565b7f43616e6e6f74207472616e7366657220746f2073656c66000000000000000000600082015250565b600062000592601783620004d7565b91506200059f826200055a565b602082019050919050565b60006020820190508181036000830152620005c58162000583565b9050919050565b6136d380620005dc6000396000f3fe6080604052600436106101b75760003560e01c806391c9b268116100ec578063e2a04b621161008a578063e8d5940d11610064578063e8d5940d14610672578063ebdf86ca1461068e578063f2fde38b146106b7578063fc2a88c3146106e0576101b7565b8063e2a04b62146105cd578063e75235b81461060a578063e7f72f1014610635576101b7565b8063a9382125116100c6578063a9382125146104fc578063bab2f55214610539578063d8a4676f14610564578063dcc60128146105a2576101b7565b806391c9b268146104565780639eccacf614610493578063a168fa89146104be576101b7565b80636428a4861161015957806379ba50971161013357806379ba5097146103ae5780638796ba8c146103c55780638da5cb5b146104025780638ea981171461042d576101b7565b80636428a4861461031d578063655bce221461034657806371c8fdbd14610371576101b7565b806312065fe01161019557806312065fe0146102615780631234ce9d1461028c57806312fe56e5146102b75780631fe543e3146102f4576101b7565b80630242f351146101bc57806308d88aad146101e757806309eef43e14610224575b600080fd5b3480156101c857600080fd5b506101d161070b565b6040516101de9190612142565b60405180910390f35b3480156101f357600080fd5b5061020e600480360381019061020991906122ad565b6107da565b60405161021b9190612337565b60405180910390f35b34801561023057600080fd5b5061024b6004803603810190610246919061237e565b610823565b60405161025891906123c6565b60405180910390f35b34801561026d57600080fd5b50610276610843565b60405161028391906123fa565b60405180910390f35b34801561029857600080fd5b506102a161084b565b6040516102ae91906123c6565b60405180910390f35b3480156102c357600080fd5b506102de60048036038101906102d99190612441565b61089f565b6040516102eb9190612337565b60405180910390f35b34801561030057600080fd5b5061031b600480360381019061031691906124e1565b6108ed565b005b34801561032957600080fd5b50610344600480360381019061033f91906122ad565b6109b3565b005b34801561035257600080fd5b5061035b610b53565b60405161036891906123fa565b60405180910390f35b34801561037d57600080fd5b50610398600480360381019061039391906122ad565b610b5d565b6040516103a591906123fa565b60405180910390f35b3480156103ba57600080fd5b506103c3610b98565b005b3480156103d157600080fd5b506103ec60048036038101906103e79190612541565b610d2d565b6040516103f991906123fa565b60405180910390f35b34801561040e57600080fd5b50610417610d51565b6040516104249190612337565b60405180910390f35b34801561043957600080fd5b50610454600480360381019061044f919061237e565b610d7a565b005b34801561046257600080fd5b5061047d600480360381019061047891906122ad565b610f5b565b60405161048a9190612142565b60405180910390f35b34801561049f57600080fd5b506104a8611011565b6040516104b591906125cd565b60405180910390f35b3480156104ca57600080fd5b506104e560048036038101906104e09190612541565b611037565b6040516104f39291906125e8565b60405180910390f35b34801561050857600080fd5b50610523600480360381019061051e9190612611565b611075565b60405161053091906123fa565b60405180910390f35b34801561054557600080fd5b5061054e6110b0565b60405161055b91906123fa565b60405180910390f35b34801561057057600080fd5b5061058b60048036038101906105869190612541565b6110b6565b60405161059992919061272b565b60405180910390f35b3480156105ae57600080fd5b506105b76111e1565b6040516105c49190612867565b60405180910390f35b3480156105d957600080fd5b506105f460048036038101906105ef919061237e565b6112ba565b6040516106019190612142565b60405180910390f35b34801561061657600080fd5b5061061f61135a565b60405161062c91906123fa565b60405180910390f35b34801561064157600080fd5b5061065c6004803603810190610657919061237e565b611364565b6040516106699190612142565b60405180910390f35b61068c60048036038101906106879190612889565b611404565b005b34801561069a57600080fd5b506106b560048036038101906106b09190612889565b6116bb565b005b3480156106c357600080fd5b506106de60048036038101906106d9919061237e565b611856565b005b3480156106ec57600080fd5b506106f561186a565b60405161070291906123fa565b60405180910390f35b6060600660003373ffffffffffffffffffffffffffffffffffffffff1673ffffffffffffffffffffffffffffffffffffffff168152602001908152602001600020805461075790612930565b80601f016020809104026020016040519081016040528092919081815260200182805461078390612930565b80156107d05780601f106107a5576101008083540402835291602001916107d0565b820191906000526020600020905b8154815290600101906020018083116107b357829003601f168201915b5050505050905090565b6004818051602081018201805184825260208301602085012081835280955050505050506000915054906101000a900473ffffffffffffffffffffffffffffffffffffffff1681565b60096020528060005260406000206000915054906101000a900460ff1681565b600047905090565b6000600960003373ffffffffffffffffffffffffffffffffffffffff1673ffffffffffffffffffffffffffffffffffffffff16815260200190815260200160002060009054906101000a900460ff16905090565b600760205281600052604060002081815481106108bb57600080fd5b906000526020600020016000915091509054906101000a900473ffffffffffffffffffffffffffffffffffffffff1681565b600260009054906101000a900473ffffffffffffffffffffffffffffffffffffffff1673ffffffffffffffffffffffffffffffffffffffff163373ffffffffffffffffffffffffffffffffffffffff16146109a35733600260009054906101000a900473ffffffffffffffffffffffffffffffffffffffff166040517f1cf993f400000000000000000000000000000000000000000000000000000000815260040161099a929190612961565b60405180910390fd5b6109ae838383611870565b505050565b60006004826040516109c591906129c6565b908152602001604051809103902060009054906101000a900473ffffffffffffffffffffffffffffffffffffffff169050600073ffffffffffffffffffffffffffffffffffffffff168173ffffffffffffffffffffffffffffffffffffffff1614610a65576040517f08c379a0000000000000000000000000000000000000000000000000000000008152600401610a5c90612a29565b60405180910390fd5b600960003373ffffffffffffffffffffffffffffffffffffffff1673ffffffffffffffffffffffffffffffffffffffff16815260200190815260200160002060009054906101000a900460ff1615610af2576040517f08c379a0000000000000000000000000000000000000000000000000000000008152600401610ae990612a95565b60405180910390fd5b33600483604051610b0391906129c6565b908152602001604051809103902060006101000a81548173ffffffffffffffffffffffffffffffffffffffff021916908373ffffffffffffffffffffffffffffffffffffffff1602179055505050565b6000600b54905090565b600060036000600b54815260200190815260200160002082604051610b8291906129c6565b9081526020016040518091039020549050919050565b600160009054906101000a900473ffffffffffffffffffffffffffffffffffffffff1673ffffffffffffffffffffffffffffffffffffffff163373ffffffffffffffffffffffffffffffffffffffff1614610c28576040517f08c379a0000000000000000000000000000000000000000000000000000000008152600401610c1f90612b01565b60405180910390fd5b60008060009054906101000a900473ffffffffffffffffffffffffffffffffffffffff169050336000806101000a81548173ffffffffffffffffffffffffffffffffffffffff021916908373ffffffffffffffffffffffffffffffffffffffff1602179055506000600160006101000a81548173ffffffffffffffffffffffffffffffffffffffff021916908373ffffffffffffffffffffffffffffffffffffffff1602179055503373ffffffffffffffffffffffffffffffffffffffff168173ffffffffffffffffffffffffffffffffffffffff167f8be0079c531659141344cd1fd0a4f28419497f9722a3daafe3b4186f6b6457e060405160405180910390a350565b60108181548110610d3d57600080fd5b906000526020600020016000915090505481565b60008060009054906101000a900473ffffffffffffffffffffffffffffffffffffffff16905090565b610d82610d51565b73ffffffffffffffffffffffffffffffffffffffff163373ffffffffffffffffffffffffffffffffffffffff1614158015610e0b5750600260009054906101000a900473ffffffffffffffffffffffffffffffffffffffff1673ffffffffffffffffffffffffffffffffffffffff163373ffffffffffffffffffffffffffffffffffffffff1614155b15610e7a5733610e19610d51565b600260009054906101000a900473ffffffffffffffffffffffffffffffffffffffff166040517f061db9c1000000000000000000000000000000000000000000000000000000008152600401610e7193929190612b21565b60405180910390fd5b600073ffffffffffffffffffffffffffffffffffffffff168173ffffffffffffffffffffffffffffffffffffffff1603610ee0576040517fd92e233d00000000000000000000000000000000000000000000000000000000815260040160405180910390fd5b80600260006101000a81548173ffffffffffffffffffffffffffffffffffffffff021916908373ffffffffffffffffffffffffffffffffffffffff1602179055507fd1a6a14209a385a964d036e404cb5cfb71f4000cdb03c9366292430787261be681604051610f509190612337565b60405180910390a150565b6008818051602081018201805184825260208301602085012081835280955050505050506000915090508054610f9090612930565b80601f0160208091040260200160405190810160405280929190818152602001828054610fbc90612930565b80156110095780601f10610fde57610100808354040283529160200191611009565b820191906000526020600020905b815481529060010190602001808311610fec57829003601f168201915b505050505081565b600260009054906101000a900473ffffffffffffffffffffffffffffffffffffffff1681565b60126020528060005260406000206000915090508060000160009054906101000a900460ff16908060000160019054906101000a900460ff16905082565b600360205281600052604060002081805160208101820180518482526020830160208501208183528095505050505050600091509150505481565b600b5481565b600060606012600084815260200190815260200160002060000160019054906101000a900460ff1661111d576040517f08c379a000000000000000000000000000000000000000000000000000000000815260040161111490612ba4565b60405180910390fd5b6000601260008581526020019081526020016000206040518060600160405290816000820160009054906101000a900460ff161515151581526020016000820160019054906101000a900460ff16151515158152602001600182018054806020026020016040519081016040528092919081815260200182805480156111c257602002820191906000526020600020905b8154815260200190600101908083116111ae575b5050505050815250509050806000015181604001519250925050915091565b6060600c805480602002602001604051908101604052809291908181526020016000905b828210156112b157838290600052602060002001805461122490612930565b80601f016020809104026020016040519081016040528092919081815260200182805461125090612930565b801561129d5780601f106112725761010080835404028352916020019161129d565b820191906000526020600020905b81548152906001019060200180831161128057829003601f168201915b505050505081526020019060010190611205565b50505050905090565b600560205280600052604060002060009150905080546112d990612930565b80601f016020809104026020016040519081016040528092919081815260200182805461130590612930565b80156113525780601f1061132757610100808354040283529160200191611352565b820191906000526020600020905b81548152906001019060200180831161133557829003601f168201915b505050505081565b6000600a54905090565b6006602052806000526040600020600091509050805461138390612930565b80601f01602080910402602001604051908101604052809291908181526020018280546113af90612930565b80156113fc5780601f106113d1576101008083540402835291602001916113fc565b820191906000526020600020905b8154815290600101906020018083116113df57829003601f168201915b505050505081565b61140d816109b3565b66038d7ea4c68000341015611457576040517f08c379a000000000000000000000000000000000000000000000000000000000815260040161144e90612c10565b60405180910390fd5b66b1a2bc2ec500003411156114a1576040517f08c379a000000000000000000000000000000000000000000000000000000000815260040161149890612c7c565b60405180910390fd5b60006008836040516114b391906129c6565b908152602001604051809103902080546114cc90612930565b90501161150e576040517f08c379a000000000000000000000000000000000000000000000000000000000815260040161150590612ce8565b60405180910390fd5b6001600960003373ffffffffffffffffffffffffffffffffffffffff1673ffffffffffffffffffffffffffffffffffffffff16815260200190815260200160002060006101000a81548160ff02191690831515021790555081600660003373ffffffffffffffffffffffffffffffffffffffff1673ffffffffffffffffffffffffffffffffffffffff16815260200190815260200160002090816115b29190612eaa565b5060036000600b548152602001908152602001600020826040516115d691906129c6565b908152602001604051809103902060008154809291906115f590612fab565b919050555060076000600b548152602001908152602001600020339080600181540180825580915050600190039060005260206000200160009091909190916101000a81548173ffffffffffffffffffffffffffffffffffffffff021916908373ffffffffffffffffffffffffffffffffffffffff160217905550611678611aaa565b7f6cb0a41e9298e8d3ff3de34496ff4e64afd0962993efd997ff057aa62043436f338284600b546040516116af9493929190612ff3565b60405180910390a15050565b6116c3611b1c565b60006008826040516116d591906129c6565b908152602001604051809103902080546116ee90612930565b905014611730576040517f08c379a000000000000000000000000000000000000000000000000000000000815260040161172790613092565b60405180910390fd5b6000825111611774576040517f08c379a000000000000000000000000000000000000000000000000000000000815260040161176b906130fe565b60405180910390fd5b60008151116117b8576040517f08c379a00000000000000000000000000000000000000000000000000000000081526004016117af9061316a565b60405180910390fd5b816008826040516117c991906129c6565b908152602001604051809103902090816117e39190612eaa565b50600c829080600181540180825580915050600190039060005260206000200160009091909190915090816118189190612eaa565b507feb5d6000a362475be9d9b16beddc148b7004850daf2e69325a403d613567769e818360405161184a92919061318a565b60405180910390a15050565b61185e611b1c565b61186781611bac565b50565b60115481565b6012600084815260200190815260200160002060000160019054906101000a900460ff166118d3576040517f08c379a00000000000000000000000000000000000000000000000000000000081526004016118ca90612ba4565b60405180910390fd5b60016012600085815260200190815260200160002060000160006101000a81548160ff0219169083151502179055508181601260008681526020019081526020016000206001019190611927929190611ffb565b507ffe2e2d779dba245964d4e3ef9b994be63856fd568bf7d3ca9e224755cb1bd54d83838360405161195b9392919061322b565b60405180910390a16000828260008181106119795761197861325d565b5b905060200201359050600060076000600b54815260200190815260200160002080549050826119a891906132bb565b9050600060076000600b54815260200190815260200160002082815481106119d3576119d261325d565b5b9060005260206000200160009054906101000a900473ffffffffffffffffffffffffffffffffffffffff16905060004790507f1545cd4197b626f3a89e81606417b61cd942aa094771eaa0bbbf9562c1e17de08282600b54604051611a3a9392919061330d565b60405180910390a18173ffffffffffffffffffffffffffffffffffffffff166108fc829081150290604051600060405180830381858888f19350505050158015611a88573d6000803e3d6000fd5b50600b6000815480929190611a9c90612fab565b919050555050505050505050565b600a544710611b1a57600060076000600b5481526020019081526020016000208054905011611b0e576040517f08c379a0000000000000000000000000000000000000000000000000000000008152600401611b0590613390565b60405180910390fd5b611b186000611cd8565b505b565b60008054906101000a900473ffffffffffffffffffffffffffffffffffffffff1673ffffffffffffffffffffffffffffffffffffffff163373ffffffffffffffffffffffffffffffffffffffff1614611baa576040517f08c379a0000000000000000000000000000000000000000000000000000000008152600401611ba1906133fc565b60405180910390fd5b565b3373ffffffffffffffffffffffffffffffffffffffff168173ffffffffffffffffffffffffffffffffffffffff1603611c1a576040517f08c379a0000000000000000000000000000000000000000000000000000000008152600401611c1190613468565b60405180910390fd5b80600160006101000a81548173ffffffffffffffffffffffffffffffffffffffff021916908373ffffffffffffffffffffffffffffffffffffffff1602179055508073ffffffffffffffffffffffffffffffffffffffff1660008054906101000a900473ffffffffffffffffffffffffffffffffffffffff1673ffffffffffffffffffffffffffffffffffffffff167fed8889f560326eb138920d842192f0eb3dd22b4f139c87a2c57538e05bae127860405160405180910390a350565b6000600260009054906101000a900473ffffffffffffffffffffffffffffffffffffffff1673ffffffffffffffffffffffffffffffffffffffff16639b1c385e6040518060c00160405280600e548152602001600d548152602001600f60049054906101000a900461ffff1661ffff168152602001600f60009054906101000a900463ffffffff1663ffffffff168152602001600f60069054906101000a900463ffffffff1663ffffffff168152602001611da26040518060200160405280881515815250611f63565b8152506040518263ffffffff1660e01b8152600401611dc191906135bb565b6020604051808303816000875af1158015611de0573d6000803e3d6000fd5b505050506040513d601f19601f82011682018060405250810190611e0491906135f2565b90506040518060600160405280600015158152602001600115158152602001600067ffffffffffffffff811115611e3e57611e3d612182565b5b604051908082528060200260200182016040528015611e6c5781602001602082028036833780820191505090505b508152506012600083815260200190815260200160002060008201518160000160006101000a81548160ff02191690831515021790555060208201518160000160016101000a81548160ff0219169083151502179055506040820151816001019080519060200190611edf929190612048565b509050506010819080600181540180825580915050600190039060005260206000200160009091909190915055806011819055507fcc58b13ad3eab50626c6a6300b1d139cd6ebb1688a7cced9461c2f7e762665ee81600f60069054906101000a900463ffffffff16604051611f5692919061362e565b60405180910390a1919050565b60607f92fd13387c7fe7befbc38d303d6468778fb9731bc4583f17d92989c6fcfdeaaa82604051602401611f979190613682565b604051602081830303815290604052907bffffffffffffffffffffffffffffffffffffffffffffffffffffffff19166020820180517bffffffffffffffffffffffffffffffffffffffffffffffffffffffff83818316178352505050509050919050565b828054828255906000526020600020908101928215612037579160200282015b8281111561203657823582559160200191906001019061201b565b5b5090506120449190612095565b5090565b828054828255906000526020600020908101928215612084579160200282015b82811115612083578251825591602001919060010190612068565b5b5090506120919190612095565b5090565b5b808211156120ae576000816000905550600101612096565b5090565b600081519050919050565b600082825260208201905092915050565b60005b838110156120ec5780820151818401526020810190506120d1565b60008484015250505050565b6000601f19601f8301169050919050565b6000612114826120b2565b61211e81856120bd565b935061212e8185602086016120ce565b612137816120f8565b840191505092915050565b6000602082019050818103600083015261215c8184612109565b905092915050565b6000604051905090565b600080fd5b600080fd5b600080fd5b600080fd5b7f4e487b7100000000000000000000000000000000000000000000000000000000600052604160045260246000fd5b6121ba826120f8565b810181811067ffffffffffffffff821117156121d9576121d8612182565b5b80604052505050565b60006121ec612164565b90506121f882826121b1565b919050565b600067ffffffffffffffff82111561221857612217612182565b5b612221826120f8565b9050602081019050919050565b82818337600083830152505050565b600061225061224b846121fd565b6121e2565b90508281526020810184848401111561226c5761226b61217d565b5b61227784828561222e565b509392505050565b600082601f83011261229457612293612178565b5b81356122a484826020860161223d565b91505092915050565b6000602082840312156122c3576122c261216e565b5b600082013567ffffffffffffffff8111156122e1576122e0612173565b5b6122ed8482850161227f565b91505092915050565b600073ffffffffffffffffffffffffffffffffffffffff82169050919050565b6000612321826122f6565b9050919050565b61233181612316565b82525050565b600060208201905061234c6000830184612328565b92915050565b61235b81612316565b811461236657600080fd5b50565b60008135905061237881612352565b92915050565b6000602082840312156123945761239361216e565b5b60006123a284828501612369565b91505092915050565b60008115159050919050565b6123c0816123ab565b82525050565b60006020820190506123db60008301846123b7565b92915050565b6000819050919050565b6123f4816123e1565b82525050565b600060208201905061240f60008301846123eb565b92915050565b61241e816123e1565b811461242957600080fd5b50565b60008135905061243b81612415565b92915050565b600080604083850312156124585761245761216e565b5b60006124668582860161242c565b92505060206124778582860161242c565b9150509250929050565b600080fd5b600080fd5b60008083601f8401126124a1576124a0612178565b5b8235905067ffffffffffffffff8111156124be576124bd612481565b5b6020830191508360208202830111156124da576124d9612486565b5b9250929050565b6000806000604084860312156124fa576124f961216e565b5b60006125088682870161242c565b935050602084013567ffffffffffffffff81111561252957612528612173565b5b6125358682870161248b565b92509250509250925092565b6000602082840312156125575761255661216e565b5b60006125658482850161242c565b91505092915050565b6000819050919050565b600061259361258e612589846122f6565b61256e565b6122f6565b9050919050565b60006125a582612578565b9050919050565b60006125b78261259a565b9050919050565b6125c7816125ac565b82525050565b60006020820190506125e260008301846125be565b92915050565b60006040820190506125fd60008301856123b7565b61260a60208301846123b7565b9392505050565b600080604083850312156126285761262761216e565b5b60006126368582860161242c565b925050602083013567ffffffffffffffff81111561265757612656612173565b5b6126638582860161227f565b9150509250929050565b600081519050919050565b600082825260208201905092915050565b6000819050602082019050919050565b6126a2816123e1565b82525050565b60006126b48383612699565b60208301905092915050565b6000602082019050919050565b60006126d88261266d565b6126e28185612678565b93506126ed83612689565b8060005b8381101561271e57815161270588826126a8565b9750612710836126c0565b9250506001810190506126f1565b5085935050505092915050565b600060408201905061274060008301856123b7565b818103602083015261275281846126cd565b90509392505050565b600081519050919050565b600082825260208201905092915050565b6000819050602082019050919050565b600082825260208201905092915050565b60006127a3826120b2565b6127ad8185612787565b93506127bd8185602086016120ce565b6127c6816120f8565b840191505092915050565b60006127dd8383612798565b905092915050565b6000602082019050919050565b60006127fd8261275b565b6128078185612766565b93508360208202850161281985612777565b8060005b85811015612855578484038952815161283685826127d1565b9450612841836127e5565b925060208a0199505060018101905061281d565b50829750879550505050505092915050565b6000602082019050818103600083015261288181846127f2565b905092915050565b600080604083850312156128a05761289f61216e565b5b600083013567ffffffffffffffff8111156128be576128bd612173565b5b6128ca8582860161227f565b925050602083013567ffffffffffffffff8111156128eb576128ea612173565b5b6128f78582860161227f565b9150509250929050565b7f4e487b7100000000000000000000000000000000000000000000000000000000600052602260045260246000fd5b6000600282049050600182168061294857607f821691505b60208210810361295b5761295a612901565b5b50919050565b60006040820190506129766000830185612328565b6129836020830184612328565b9392505050565b600081905092915050565b60006129a0826120b2565b6129aa818561298a565b93506129ba8185602086016120ce565b80840191505092915050565b60006129d28284612995565b915081905092915050565b7f446973706c6179206e616d6520697320616c72656164792074616b656e000000600082015250565b6000612a13601d836120bd565b9150612a1e826129dd565b602082019050919050565b60006020820190508181036000830152612a4281612a06565b9050919050565b7f566f7465722068617320616c726561647920766f746564000000000000000000600082015250565b6000612a7f6017836120bd565b9150612a8a82612a49565b602082019050919050565b60006020820190508181036000830152612aae81612a72565b9050919050565b7f4d7573742062652070726f706f736564206f776e657200000000000000000000600082015250565b6000612aeb6016836120bd565b9150612af682612ab5565b602082019050919050565b60006020820190508181036000830152612b1a81612ade565b9050919050565b6000606082019050612b366000830186612328565b612b436020830185612328565b612b506040830184612328565b949350505050565b7f72657175657374206e6f7420666f756e64000000000000000000000000000000600082015250565b6000612b8e6011836120bd565b9150612b9982612b58565b602082019050919050565b60006020820190508181036000830152612bbd81612b81565b9050919050565b7f4d696e696d756d20302e30303120657468657200000000000000000000000000600082015250565b6000612bfa6013836120bd565b9150612c0582612bc4565b602082019050919050565b60006020820190508181036000830152612c2981612bed565b9050919050565b7f4d6178696d756d20302e30352065746865720000000000000000000000000000600082015250565b6000612c666012836120bd565b9150612c7182612c30565b602082019050919050565b60006020820190508181036000830152612c9581612c59565b9050919050565b7f50726f6a65637420646f6573206e6f7420657869737400000000000000000000600082015250565b6000612cd26016836120bd565b9150612cdd82612c9c565b602082019050919050565b60006020820190508181036000830152612d0181612cc5565b9050919050565b60008190508160005260206000209050919050565b60006020601f8301049050919050565b600082821b905092915050565b600060088302612d6a7fffffffffffffffffffffffffffffffffffffffffffffffffffffffffffffffff82612d2d565b612d748683612d2d565b95508019841693508086168417925050509392505050565b6000612da7612da2612d9d846123e1565b61256e565b6123e1565b9050919050565b6000819050919050565b612dc183612d8c565b612dd5612dcd82612dae565b848454612d3a565b825550505050565b600090565b612dea612ddd565b612df5818484612db8565b505050565b5b81811015612e1957612e0e600082612de2565b600181019050612dfb565b5050565b601f821115612e5e57612e2f81612d08565b612e3884612d1d565b81016020851015612e47578190505b612e5b612e5385612d1d565b830182612dfa565b50505b505050565b600082821c905092915050565b6000612e8160001984600802612e63565b1980831691505092915050565b6000612e9a8383612e70565b9150826002028217905092915050565b612eb3826120b2565b67ffffffffffffffff811115612ecc57612ecb612182565b5b612ed68254612930565b612ee1828285612e1d565b600060209050601f831160018114612f145760008415612f02578287015190505b612f0c8582612e8e565b865550612f74565b601f198416612f2286612d08565b60005b82811015612f4a57848901518255600182019150602085019450602081019050612f25565b86831015612f675784890151612f63601f891682612e70565b8355505b6001600288020188555050505b505050505050565b7f4e487b7100000000000000000000000000000000000000000000000000000000600052601160045260246000fd5b6000612fb6826123e1565b91507fffffffffffffffffffffffffffffffffffffffffffffffffffffffffffffffff8203612fe857612fe7612f7c565b5b600182019050919050565b60006080820190506130086000830187612328565b818103602083015261301a8186612109565b9050818103604083015261302e8185612109565b905061303d60608301846123eb565b95945050505050565b7f50726f6a65637420616c72656164792065786973747300000000000000000000600082015250565b600061307c6016836120bd565b915061308782613046565b602082019050919050565b600060208201905081810360008301526130ab8161306f565b9050919050565b7f50726f6a656374206e616d652069732072657175697265640000000000000000600082015250565b60006130e86018836120bd565b91506130f3826130b2565b602082019050919050565b60006020820190508181036000830152613117816130db565b9050919050565b7f50726f6a65637420494420697320726571756972656400000000000000000000600082015250565b60006131546016836120bd565b915061315f8261311e565b602082019050919050565b6000602082019050818103600083015261318381613147565b9050919050565b600060408201905081810360008301526131a48185612109565b905081810360208301526131b88184612109565b90509392505050565b600080fd5b82818337505050565b60006131db8385612678565b93507f07ffffffffffffffffffffffffffffffffffffffffffffffffffffffffffffff83111561320e5761320d6131c1565b5b60208302925061321f8385846131c6565b82840190509392505050565b600060408201905061324060008301866123eb565b81810360208301526132538184866131cf565b9050949350505050565b7f4e487b7100000000000000000000000000000000000000000000000000000000600052603260045260246000fd5b7f4e487b7100000000000000000000000000000000000000000000000000000000600052601260045260246000fd5b60006132c6826123e1565b91506132d1836123e1565b9250826132e1576132e061328c565b5b828206905092915050565b60006132f78261259a565b9050919050565b613307816132ec565b82525050565b600060608201905061332260008301866132fe565b61332f60208301856123eb565b61333c60408301846123eb565b949350505050565b7f4e6f20766f7465727320746f2072657761726400000000000000000000000000600082015250565b600061337a6013836120bd565b915061338582613344565b602082019050919050565b600060208201905081810360008301526133a98161336d565b9050919050565b7f4f6e6c792063616c6c61626c65206279206f776e657200000000000000000000600082015250565b60006133e66016836120bd565b91506133f1826133b0565b602082019050919050565b60006020820190508181036000830152613415816133d9565b9050919050565b7f43616e6e6f74207472616e7366657220746f2073656c66000000000000000000600082015250565b60006134526017836120bd565b915061345d8261341c565b602082019050919050565b6000602082019050818103600083015261348181613445565b9050919050565b6000819050919050565b61349b81613488565b82525050565b600061ffff82169050919050565b6134b8816134a1565b82525050565b600063ffffffff82169050919050565b6134d7816134be565b82525050565b600081519050919050565b600082825260208201905092915050565b6000613504826134dd565b61350e81856134e8565b935061351e8185602086016120ce565b613527816120f8565b840191505092915050565b600060c08301600083015161354a6000860182613492565b50602083015161355d6020860182612699565b50604083015161357060408601826134af565b50606083015161358360608601826134ce565b50608083015161359660808601826134ce565b5060a083015184820360a08601526135ae82826134f9565b9150508091505092915050565b600060208201905081810360008301526135d58184613532565b905092915050565b6000815190506135ec81612415565b92915050565b6000602082840312156136085761360761216e565b5b6000613616848285016135dd565b91505092915050565b613628816134be565b82525050565b600060408201905061364360008301856123eb565b613650602083018461361f565b9392505050565b613660816123ab565b82525050565b60208201600082015161367c6000850182613657565b50505050565b60006020820190506136976000830184613666565b9291505056fea2646970667358221220db0738b4e8f8689cfef03fec6cd5cb2089680ad3fc8aed08c065d0422f767d9064736f6c63430008140033",
  "linkReferences": {},
  "deployedLinkReferences": {}
}