{
  "_format": "hh-sol-artifact-1",
  "contractName": "ProjectVoting",
  "sourceName": "contracts/project-voting.sol",
  "abi": [
    {
      "inputs": [
        {
          "internalType": "address",
          "name": "_vrfCoordinator",
          "type": "address"
        },
        {
          "internalType": "uint256",
          "name": "_subscriptionId",
          "type": "uint256"
        },
        {
          "internalType": "bytes32",
          "name": "_keyHash",
          "type": "bytes32"
        }
      ],
      "stateMutability": "nonpayable",
      "type": "constructor"
    },
    {
      "inputs": [
        {
          "internalType": "address",
          "name": "have",
          "type": "address"
        },
        {
          "internalType": "address",
          "name": "want",
          "type": "address"
        }
      ],
      "name": "OnlyCoordinatorCanFulfill",
      "type": "error"
    },
    {
      "inputs": [
        {
          "internalType": "address",
          "name": "have",
          "type": "address"
        },
        {
          "internalType": "address",
          "name": "owner",
          "type": "address"
        },
        {
          "internalType": "address",
          "name": "coordinator",
          "type": "address"
        }
      ],
      "name": "OnlyOwnerOrCoordinator",
      "type": "error"
    },
    {
      "inputs": [],
      "name": "ZeroAddress",
      "type": "error"
    },
    {
      "anonymous": false,
      "inputs": [
        {
          "indexed": false,
          "internalType": "address",
          "name": "vrfCoordinator",
          "type": "address"
        }
      ],
      "name": "CoordinatorSet",
      "type": "event"
    },
    {
      "anonymous": false,
      "inputs": [
        {
          "indexed": true,
          "internalType": "address",
          "name": "from",
          "type": "address"
        },
        {
          "indexed": true,
          "internalType": "address",
          "name": "to",
          "type": "address"
        }
      ],
      "name": "OwnershipTransferRequested",
      "type": "event"
    },
    {
      "anonymous": false,
      "inputs": [
        {
          "indexed": true,
          "internalType": "address",
          "name": "from",
          "type": "address"
        },
        {
          "indexed": true,
          "internalType": "address",
          "name": "to",
          "type": "address"
        }
      ],
      "name": "OwnershipTransferred",
      "type": "event"
    },
    {
      "anonymous": false,
      "inputs": [
        {
          "indexed": false,
          "internalType": "string",
          "name": "projectId",
          "type": "string"
        },
        {
          "indexed": false,
          "internalType": "string",
          "name": "projectName",
          "type": "string"
        }
      ],
      "name": "ProjectAdded",
      "type": "event"
    },
    {
      "anonymous": false,
      "inputs": [
        {
          "indexed": false,
          "internalType": "string",
          "name": "projectId",
          "type": "string"
        },
        {
          "indexed": false,
          "internalType": "string",
          "name": "projectName",
          "type": "string"
        }
      ],
      "name": "ProjectRetired",
      "type": "event"
    },
    {
      "anonymous": false,
      "inputs": [
        {
          "indexed": false,
          "internalType": "uint256",
          "name": "requestId",
          "type": "uint256"
        },
        {
          "indexed": false,
          "internalType": "uint256[]",
          "name": "randomWords",
          "type": "uint256[]"
        }
      ],
      "name": "RequestFulfilled",
      "type": "event"
    },
    {
      "anonymous": false,
      "inputs": [
        {
          "indexed": false,
          "internalType": "uint256",
          "name": "requestId",
          "type": "uint256"
        },
        {
          "indexed": false,
          "internalType": "uint32",
          "name": "numWords",
          "type": "uint32"
        }
      ],
      "name": "RequestSent",
      "type": "event"
    },
    {
      "anonymous": false,
      "inputs": [
        {
          "indexed": false,
          "internalType": "address",
          "name": "voter",
          "type": "address"
        },
        {
          "indexed": false,
          "internalType": "string",
          "name": "name",
          "type": "string"
        },
        {
          "indexed": false,
          "internalType": "string",
          "name": "projectId",
          "type": "string"
        },
        {
          "indexed": false,
          "internalType": "uint256",
          "name": "cycle",
          "type": "uint256"
        }
      ],
      "name": "Voted",
      "type": "event"
    },
    {
      "anonymous": false,
      "inputs": [
        {
          "indexed": false,
          "internalType": "address",
          "name": "winner",
          "type": "address"
        },
        {
          "indexed": false,
          "internalType": "uint256",
          "name": "amount",
          "type": "uint256"
        },
        {
          "indexed": false,
          "internalType": "uint256",
          "name": "cycle",
          "type": "uint256"
        }
      ],
      "name": "WinnerAnnounced",
      "type": "event"
    },
    {
      "inputs": [],
      "name": "acceptOwnership",
      "outputs": [],
      "stateMutability": "nonpayable",
      "type": "function"
    },
    {
      "inputs": [
        {
          "internalType": "string",
          "name": "projectName",
          "type": "string"
        },
        {
          "internalType": "string",
          "name": "projectId",
          "type": "string"
        }
      ],
      "name": "addProject",
      "outputs": [],
      "stateMutability": "nonpayable",
      "type": "function"
    },
    {
      "inputs": [
        {
          "internalType": "address",
          "name": "",
          "type": "address"
        }
      ],
      "name": "addressChoice",
      "outputs": [
        {
          "internalType": "string",
          "name": "",
          "type": "string"
        }
      ],
      "stateMutability": "view",
      "type": "function"
    },
    {
      "inputs": [],
      "name": "checkHasVoted",
      "outputs": [
        {
          "internalType": "bool",
          "name": "",
          "type": "bool"
        }
      ],
      "stateMutability": "view",
      "type": "function"
    },
    {
      "inputs": [],
      "name": "currentCycle",
      "outputs": [
        {
          "internalType": "uint256",
          "name": "",
          "type": "uint256"
        }
      ],
      "stateMutability": "view",
      "type": "function"
    },
    {
      "inputs": [
        {
          "internalType": "uint256",
          "name": "",
          "type": "uint256"
        },
        {
          "internalType": "uint256",
          "name": "",
          "type": "uint256"
        }
      ],
      "name": "cycleVoters",
      "outputs": [
        {
          "internalType": "address",
          "name": "",
          "type": "address"
        }
      ],
      "stateMutability": "view",
      "type": "function"
    },
    {
      "inputs": [
        {
          "internalType": "uint256",
          "name": "",
          "type": "uint256"
        },
        {
          "internalType": "string",
          "name": "",
          "type": "string"
        }
      ],
      "name": "cycleVotes",
      "outputs": [
        {
          "internalType": "uint256",
          "name": "",
          "type": "uint256"
        }
      ],
      "stateMutability": "view",
      "type": "function"
    },
    {
      "inputs": [],
      "name": "getBalance",
      "outputs": [
        {
          "internalType": "uint256",
          "name": "",
          "type": "uint256"
        }
      ],
      "stateMutability": "view",
      "type": "function"
    },
    {
      "inputs": [],
      "name": "getCycle",
      "outputs": [
        {
          "internalType": "uint256",
          "name": "",
          "type": "uint256"
        }
      ],
      "stateMutability": "view",
      "type": "function"
    },
    {
      "inputs": [
        {
          "internalType": "string",
          "name": "projectId",
          "type": "string"
        }
      ],
      "name": "getCycleVoteCount",
      "outputs": [
        {
          "internalType": "uint256",
          "name": "",
          "type": "uint256"
        }
      ],
      "stateMutability": "view",
      "type": "function"
    },
    {
      "inputs": [],
      "name": "getProjectIds",
      "outputs": [
        {
          "internalType": "string[]",
          "name": "",
          "type": "string[]"
        }
      ],
      "stateMutability": "view",
      "type": "function"
    },
    {
      "inputs": [
        {
          "internalType": "string",
          "name": "id",
          "type": "string"
        }
      ],
      "name": "getProjectName",
      "outputs": [
        {
          "internalType": "string",
          "name": "",
          "type": "string"
        }
      ],
      "stateMutability": "view",
      "type": "function"
    },
    {
      "inputs": [
        {
          "internalType": "uint256",
          "name": "_requestId",
          "type": "uint256"
        }
      ],
      "name": "getRequestStatus",
      "outputs": [
        {
          "internalType": "bool",
          "name": "fulfilled",
          "type": "bool"
        },
        {
          "internalType": "uint256[]",
          "name": "randomWords",
          "type": "uint256[]"
        }
      ],
      "stateMutability": "view",
      "type": "function"
    },
    {
      "inputs": [],
      "name": "getThreshold",
      "outputs": [
        {
          "internalType": "uint256",
          "name": "",
          "type": "uint256"
        }
      ],
      "stateMutability": "view",
      "type": "function"
    },
    {
      "inputs": [],
      "name": "getVote",
      "outputs": [
        {
          "internalType": "string",
          "name": "",
          "type": "string"
        }
      ],
      "stateMutability": "view",
      "type": "function"
    },
    {
      "inputs": [
        {
          "internalType": "address",
          "name": "",
          "type": "address"
        }
      ],
      "name": "hasVoted",
      "outputs": [
        {
          "internalType": "bool",
          "name": "",
          "type": "bool"
        }
      ],
      "stateMutability": "view",
      "type": "function"
    },
    {
      "inputs": [],
      "name": "keyHashSet",
      "outputs": [
        {
          "internalType": "bytes32",
          "name": "",
          "type": "bytes32"
        }
      ],
      "stateMutability": "view",
      "type": "function"
    },
    {
      "inputs": [],
      "name": "lastRequestId",
      "outputs": [
        {
          "internalType": "uint256",
          "name": "",
          "type": "uint256"
        }
      ],
      "stateMutability": "view",
      "type": "function"
    },
    {
      "inputs": [
        {
          "internalType": "string",
          "name": "",
          "type": "string"
        }
      ],
      "name": "nameToAddress",
      "outputs": [
        {
          "internalType": "address",
          "name": "",
          "type": "address"
        }
      ],
      "stateMutability": "view",
      "type": "function"
    },
    {
      "inputs": [
        {
          "internalType": "string",
          "name": "",
          "type": "string"
        }
      ],
      "name": "nameToProject",
      "outputs": [
        {
          "internalType": "string",
          "name": "",
          "type": "string"
        }
      ],
      "stateMutability": "view",
      "type": "function"
    },
    {
      "inputs": [],
      "name": "owner",
      "outputs": [
        {
          "internalType": "address",
          "name": "",
          "type": "address"
        }
      ],
      "stateMutability": "view",
      "type": "function"
    },
    {
      "inputs": [
        {
          "internalType": "uint256",
          "name": "",
          "type": "uint256"
        }
      ],
      "name": "projectIds",
      "outputs": [
        {
          "internalType": "string",
          "name": "",
          "type": "string"
        }
      ],
      "stateMutability": "view",
      "type": "function"
    },
    {
      "inputs": [
        {
          "internalType": "string",
          "name": "",
          "type": "string"
        }
      ],
      "name": "projectToName",
      "outputs": [
        {
          "internalType": "string",
          "name": "",
          "type": "string"
        }
      ],
      "stateMutability": "view",
      "type": "function"
    },
    {
      "inputs": [
        {
          "internalType": "uint256",
          "name": "requestId",
          "type": "uint256"
        },
        {
          "internalType": "uint256[]",
          "name": "randomWords",
          "type": "uint256[]"
        }
      ],
      "name": "rawFulfillRandomWords",
      "outputs": [],
      "stateMutability": "nonpayable",
      "type": "function"
    },
    {
      "inputs": [
        {
          "internalType": "uint256",
          "name": "",
          "type": "uint256"
        }
      ],
      "name": "requestIds",
      "outputs": [
        {
          "internalType": "uint256",
          "name": "",
          "type": "uint256"
        }
      ],
      "stateMutability": "view",
      "type": "function"
    },
    {
      "inputs": [
        {
          "internalType": "string",
          "name": "projectId",
          "type": "string"
        },
        {
          "internalType": "string",
          "name": "projectName",
          "type": "string"
        }
      ],
      "name": "retireProject",
      "outputs": [],
      "stateMutability": "nonpayable",
      "type": "function"
    },
    {
      "inputs": [
        {
          "internalType": "string",
          "name": "",
          "type": "string"
        }
      ],
      "name": "retiredProjects",
      "outputs": [
        {
          "internalType": "bool",
          "name": "",
          "type": "bool"
        }
      ],
      "stateMutability": "view",
      "type": "function"
    },
    {
      "inputs": [
        {
          "internalType": "uint256",
          "name": "",
          "type": "uint256"
        }
      ],
      "name": "s_requests",
      "outputs": [
        {
          "internalType": "bool",
          "name": "fulfilled",
          "type": "bool"
        },
        {
          "internalType": "bool",
          "name": "exists",
          "type": "bool"
        }
      ],
      "stateMutability": "view",
      "type": "function"
    },
    {
      "inputs": [],
      "name": "s_vrfCoordinator",
      "outputs": [
        {
          "internalType": "contract IVRFCoordinatorV2Plus",
          "name": "",
          "type": "address"
        }
      ],
      "stateMutability": "view",
      "type": "function"
    },
    {
      "inputs": [
        {
          "internalType": "address",
          "name": "_vrfCoordinator",
          "type": "address"
        }
      ],
      "name": "setCoordinator",
      "outputs": [],
      "stateMutability": "nonpayable",
      "type": "function"
    },
    {
      "inputs": [],
      "name": "subscriptionSet",
      "outputs": [
        {
          "internalType": "bool",
          "name": "",
          "type": "bool"
        }
      ],
      "stateMutability": "view",
      "type": "function"
    },
    {
      "inputs": [
        {
          "internalType": "address",
          "name": "to",
          "type": "address"
        }
      ],
      "name": "transferOwnership",
      "outputs": [],
      "stateMutability": "nonpayable",
      "type": "function"
    },
    {
      "inputs": [
        {
          "internalType": "string",
          "name": "projectId",
          "type": "string"
        },
        {
          "internalType": "string",
          "name": "displayName",
          "type": "string"
        }
      ],
      "name": "vote",
      "outputs": [],
      "stateMutability": "payable",
      "type": "function"
    },
    {
      "inputs": [],
      "name": "vrfCoordinatorSet",
      "outputs": [
        {
          "internalType": "address",
          "name": "",
          "type": "address"
        }
      ],
      "stateMutability": "view",
      "type": "function"
    }
  ],
  "bytecode": "0x608060405267016345785d8a0000600c556001600d55620186a0601160006101000a81548163ffffffff021916908363ffffffff1602179055506003601160046101000a81548161ffff021916908361ffff1602179055506001601160066101000a81548163ffffffff021916908363ffffffff1602179055503480156200008657600080fd5b506040516200425e3803806200425e8339818101604052810190620000ac91906200047b565b82338060008073ffffffffffffffffffffffffffffffffffffffff168273ffffffffffffffffffffffffffffffffffffffff160362000122576040517f08c379a0000000000000000000000000000000000000000000000000000000008152600401620001199062000538565b60405180910390fd5b816000806101000a81548173ffffffffffffffffffffffffffffffffffffffff021916908373ffffffffffffffffffffffffffffffffffffffff160217905550600073ffffffffffffffffffffffffffffffffffffffff168173ffffffffffffffffffffffffffffffffffffffff1614620001a957620001a8816200026c60201b60201c565b5b505050600073ffffffffffffffffffffffffffffffffffffffff168173ffffffffffffffffffffffffffffffffffffffff160362000213576040517fd92e233d00000000000000000000000000000000000000000000000000000000815260040160405180910390fd5b80600260006101000a81548173ffffffffffffffffffffffffffffffffffffffff021916908373ffffffffffffffffffffffffffffffffffffffff1602179055505081600e8190555080601081905550505050620005cc565b3373ffffffffffffffffffffffffffffffffffffffff168173ffffffffffffffffffffffffffffffffffffffff1603620002dd576040517f08c379a0000000000000000000000000000000000000000000000000000000008152600401620002d490620005aa565b60405180910390fd5b80600160006101000a81548173ffffffffffffffffffffffffffffffffffffffff021916908373ffffffffffffffffffffffffffffffffffffffff1602179055508073ffffffffffffffffffffffffffffffffffffffff1660008054906101000a900473ffffffffffffffffffffffffffffffffffffffff1673ffffffffffffffffffffffffffffffffffffffff167fed8889f560326eb138920d842192f0eb3dd22b4f139c87a2c57538e05bae127860405160405180910390a350565b600080fd5b600073ffffffffffffffffffffffffffffffffffffffff82169050919050565b6000620003cd82620003a0565b9050919050565b620003df81620003c0565b8114620003eb57600080fd5b50565b600081519050620003ff81620003d4565b92915050565b6000819050919050565b6200041a8162000405565b81146200042657600080fd5b50565b6000815190506200043a816200040f565b92915050565b6000819050919050565b620004558162000440565b81146200046157600080fd5b50565b60008151905062000475816200044a565b92915050565b6000806000606084860312156200049757620004966200039b565b5b6000620004a786828701620003ee565b9350506020620004ba8682870162000429565b9250506040620004cd8682870162000464565b9150509250925092565b600082825260208201905092915050565b7f43616e6e6f7420736574206f776e657220746f207a65726f0000000000000000600082015250565b600062000520601883620004d7565b91506200052d82620004e8565b602082019050919050565b60006020820190508181036000830152620005538162000511565b9050919050565b7f43616e6e6f74207472616e7366657220746f2073656c66000000000000000000600082015250565b600062000592601783620004d7565b91506200059f826200055a565b602082019050919050565b60006020820190508181036000830152620005c58162000583565b9050919050565b613c8280620005dc6000396000f3fe6080604052600436106101f95760003560e01c80638796ba8c1161010d578063b0a702e2116100a0578063e7f72f101161006f578063e7f72f101461079b578063e8d5940d146107d8578063f2fde38b146107f4578063fbe053691461081d578063fc2a88c31461085a576101f9565b8063b0a702e2146106dc578063bab2f55214610707578063d8a4676f14610732578063e75235b814610770576101f9565b80639c1eb717116100dc5780639c1eb717146105f95780639eccacf614610636578063a168fa8914610661578063a93821251461069f576101f9565b80638796ba8c1461053f5780638da5cb5b1461057c5780638ea98117146105a7578063980c308d146105d0576101f9565b806329a613b51161019057806362240eb01161015f57806362240eb01461045a578063655bce221461048357806371c8fdbd146104ae57806379ba5097146104eb5780638129324414610502576101f9565b806329a613b51461038a57806331694390146103b557806348c35ad4146103f25780635842307e1461042f576101f9565b806312065fe0116101cc57806312065fe0146102ce5780631234ce9d146102f957806312fe56e5146103245780631fe543e314610361576101f9565b80630242f351146101fe5780630382a1211461022957806308d88aad1461025457806309eef43e14610291575b600080fd5b34801561020a57600080fd5b50610213610885565b60405161022091906125c9565b60405180910390f35b34801561023557600080fd5b5061023e610954565b60405161024b919061262c565b60405180910390f35b34801561026057600080fd5b5061027b60048036038101906102769190612790565b61097e565b604051610288919061262c565b60405180910390f35b34801561029d57600080fd5b506102b860048036038101906102b39190612805565b6109c7565b6040516102c5919061284d565b60405180910390f35b3480156102da57600080fd5b506102e36109e7565b6040516102f09190612881565b60405180910390f35b34801561030557600080fd5b5061030e6109ef565b60405161031b919061284d565b60405180910390f35b34801561033057600080fd5b5061034b600480360381019061034691906128c8565b610a43565b604051610358919061262c565b60405180910390f35b34801561036d57600080fd5b5061038860048036038101906103839190612968565b610a91565b005b34801561039657600080fd5b5061039f610b57565b6040516103ac9190612ad4565b60405180910390f35b3480156103c157600080fd5b506103dc60048036038101906103d79190612790565b610c30565b6040516103e991906125c9565b60405180910390f35b3480156103fe57600080fd5b5061041960048036038101906104149190612af6565b610ce0565b60405161042691906125c9565b60405180910390f35b34801561043b57600080fd5b50610444610d8c565b6040516104519190612b3c565b60405180910390f35b34801561046657600080fd5b50610481600480360381019061047c9190612b57565b610d96565b005b34801561048f57600080fd5b50610498610ddb565b6040516104a59190612881565b60405180910390f35b3480156104ba57600080fd5b506104d560048036038101906104d09190612790565b610de5565b6040516104e29190612881565b60405180910390f35b3480156104f757600080fd5b50610500610e20565b005b34801561050e57600080fd5b5061052960048036038101906105249190612790565b610fb5565b604051610536919061284d565b60405180910390f35b34801561054b57600080fd5b5061056660048036038101906105619190612af6565b610feb565b6040516105739190612881565b60405180910390f35b34801561058857600080fd5b5061059161100f565b60405161059e919061262c565b60405180910390f35b3480156105b357600080fd5b506105ce60048036038101906105c99190612805565b611038565b005b3480156105dc57600080fd5b506105f760048036038101906105f29190612b57565b611219565b005b34801561060557600080fd5b50610620600480360381019061061b9190612790565b611421565b60405161062d91906125c9565b60405180910390f35b34801561064257600080fd5b5061064b6114d7565b6040516106589190612c2e565b60405180910390f35b34801561066d57600080fd5b5061068860048036038101906106839190612af6565b6114fd565b604051610696929190612c49565b60405180910390f35b3480156106ab57600080fd5b506106c660048036038101906106c19190612c72565b61153b565b6040516106d39190612881565b60405180910390f35b3480156106e857600080fd5b506106f1611576565b6040516106fe919061284d565b60405180910390f35b34801561071357600080fd5b5061071c611589565b6040516107299190612881565b60405180910390f35b34801561073e57600080fd5b5061075960048036038101906107549190612af6565b61158f565b604051610767929190612d8c565b60405180910390f35b34801561077c57600080fd5b506107856116ba565b6040516107929190612881565b60405180910390f35b3480156107a757600080fd5b506107c260048036038101906107bd9190612805565b6116c4565b6040516107cf91906125c9565b60405180910390f35b6107f260048036038101906107ed9190612b57565b611764565b005b34801561080057600080fd5b5061081b60048036038101906108169190612805565b611a87565b005b34801561082957600080fd5b50610844600480360381019061083f9190612790565b611a9b565b60405161085191906125c9565b60405180910390f35b34801561086657600080fd5b5061086f611b51565b60405161087c9190612881565b60405180910390f35b6060600560003373ffffffffffffffffffffffffffffffffffffffff1673ffffffffffffffffffffffffffffffffffffffff16815260200190815260200160002080546108d190612deb565b80601f01602080910402602001604051908101604052809291908181526020018280546108fd90612deb565b801561094a5780601f1061091f5761010080835404028352916020019161094a565b820191906000526020600020905b81548152906001019060200180831161092d57829003601f168201915b5050505050905090565b6000600f60009054906101000a900473ffffffffffffffffffffffffffffffffffffffff16905090565b6004818051602081018201805184825260208301602085012081835280955050505050506000915054906101000a900473ffffffffffffffffffffffffffffffffffffffff1681565b60096020528060005260406000206000915054906101000a900460ff1681565b600047905090565b6000600960003373ffffffffffffffffffffffffffffffffffffffff1673ffffffffffffffffffffffffffffffffffffffff16815260200190815260200160002060009054906101000a900460ff16905090565b60066020528160005260406000208181548110610a5f57600080fd5b906000526020600020016000915091509054906101000a900473ffffffffffffffffffffffffffffffffffffffff1681565b600260009054906101000a900473ffffffffffffffffffffffffffffffffffffffff1673ffffffffffffffffffffffffffffffffffffffff163373ffffffffffffffffffffffffffffffffffffffff1614610b475733600260009054906101000a900473ffffffffffffffffffffffffffffffffffffffff166040517f1cf993f4000000000000000000000000000000000000000000000000000000008152600401610b3e929190612e1c565b60405180910390fd5b610b52838383611b57565b505050565b6060600b805480602002602001604051908101604052809291908181526020016000905b82821015610c27578382906000526020600020018054610b9a90612deb565b80601f0160208091040260200160405190810160405280929190818152602001828054610bc690612deb565b8015610c135780601f10610be857610100808354040283529160200191610c13565b820191906000526020600020905b815481529060010190602001808311610bf657829003601f168201915b505050505081526020019060010190610b7b565b50505050905090565b6060600782604051610c429190612e81565b90815260200160405180910390208054610c5b90612deb565b80601f0160208091040260200160405190810160405280929190818152602001828054610c8790612deb565b8015610cd45780601f10610ca957610100808354040283529160200191610cd4565b820191906000526020600020905b815481529060010190602001808311610cb757829003601f168201915b50505050509050919050565b600b8181548110610cf057600080fd5b906000526020600020016000915090508054610d0b90612deb565b80601f0160208091040260200160405190810160405280929190818152602001828054610d3790612deb565b8015610d845780601f10610d5957610100808354040283529160200191610d84565b820191906000526020600020905b815481529060010190602001808311610d6757829003601f168201915b505050505081565b6000601054905090565b610d9e611d91565b7fb90d6168e3633ee59782e69978a3c3a18fd133e6ba49055464c69745e5c167718282604051610dcf929190612e98565b60405180910390a15050565b6000600d54905090565b600060036000600d54815260200190815260200160002082604051610e0a9190612e81565b9081526020016040518091039020549050919050565b600160009054906101000a900473ffffffffffffffffffffffffffffffffffffffff1673ffffffffffffffffffffffffffffffffffffffff163373ffffffffffffffffffffffffffffffffffffffff1614610eb0576040517f08c379a0000000000000000000000000000000000000000000000000000000008152600401610ea790612f1b565b60405180910390fd5b60008060009054906101000a900473ffffffffffffffffffffffffffffffffffffffff169050336000806101000a81548173ffffffffffffffffffffffffffffffffffffffff021916908373ffffffffffffffffffffffffffffffffffffffff1602179055506000600160006101000a81548173ffffffffffffffffffffffffffffffffffffffff021916908373ffffffffffffffffffffffffffffffffffffffff1602179055503373ffffffffffffffffffffffffffffffffffffffff168173ffffffffffffffffffffffffffffffffffffffff167f8be0079c531659141344cd1fd0a4f28419497f9722a3daafe3b4186f6b6457e060405160405180910390a350565b600a818051602081018201805184825260208301602085012081835280955050505050506000915054906101000a900460ff1681565b60128181548110610ffb57600080fd5b906000526020600020016000915090505481565b60008060009054906101000a900473ffffffffffffffffffffffffffffffffffffffff16905090565b61104061100f565b73ffffffffffffffffffffffffffffffffffffffff163373ffffffffffffffffffffffffffffffffffffffff16141580156110c95750600260009054906101000a900473ffffffffffffffffffffffffffffffffffffffff1673ffffffffffffffffffffffffffffffffffffffff163373ffffffffffffffffffffffffffffffffffffffff1614155b1561113857336110d761100f565b600260009054906101000a900473ffffffffffffffffffffffffffffffffffffffff166040517f061db9c100000000000000000000000000000000000000000000000000000000815260040161112f93929190612f3b565b60405180910390fd5b600073ffffffffffffffffffffffffffffffffffffffff168173ffffffffffffffffffffffffffffffffffffffff160361119e576040517fd92e233d00000000000000000000000000000000000000000000000000000000815260040160405180910390fd5b80600260006101000a81548173ffffffffffffffffffffffffffffffffffffffff021916908373ffffffffffffffffffffffffffffffffffffffff1602179055507fd1a6a14209a385a964d036e404cb5cfb71f4000cdb03c9366292430787261be68160405161120e919061262c565b60405180910390a150565b611221611d91565b60006007826040516112339190612e81565b9081526020016040518091039020805461124c90612deb565b90501461128e576040517f08c379a000000000000000000000000000000000000000000000000000000000815260040161128590612fbe565b60405180910390fd5b60006008836040516112a09190612e81565b908152602001604051809103902080546112b990612deb565b9050146112fb576040517f08c379a00000000000000000000000000000000000000000000000000000000081526004016112f290613050565b60405180910390fd5b600082511161133f576040517f08c379a0000000000000000000000000000000000000000000000000000000008152600401611336906130bc565b60405180910390fd5b6000815111611383576040517f08c379a000000000000000000000000000000000000000000000000000000000815260040161137a90613128565b60405180910390fd5b816007826040516113949190612e81565b908152602001604051809103902090816113ae91906132ea565b50600b819080600181540180825580915050600190039060005260206000200160009091909190915090816113e391906132ea565b507feb5d6000a362475be9d9b16beddc148b7004850daf2e69325a403d613567769e8183604051611415929190612e98565b60405180910390a15050565b600781805160208101820180518482526020830160208501208183528095505050505050600091509050805461145690612deb565b80601f016020809104026020016040519081016040528092919081815260200182805461148290612deb565b80156114cf5780601f106114a4576101008083540402835291602001916114cf565b820191906000526020600020905b8154815290600101906020018083116114b257829003601f168201915b505050505081565b600260009054906101000a900473ffffffffffffffffffffffffffffffffffffffff1681565b60146020528060005260406000206000915090508060000160009054906101000a900460ff16908060000160019054906101000a900460ff16905082565b600360205281600052604060002081805160208101820180518482526020830160208501208183528095505050505050600091509150505481565b6000806000905080600e54141591505090565b600d5481565b600060606014600084815260200190815260200160002060000160019054906101000a900460ff166115f6576040517f08c379a00000000000000000000000000000000000000000000000000000000081526004016115ed90613408565b60405180910390fd5b6000601460008581526020019081526020016000206040518060600160405290816000820160009054906101000a900460ff161515151581526020016000820160019054906101000a900460ff161515151581526020016001820180548060200260200160405190810160405280929190818152602001828054801561169b57602002820191906000526020600020905b815481526020019060010190808311611687575b5050505050815250509050806000015181604001519250925050915091565b6000600c54905090565b600560205280600052604060002060009150905080546116e390612deb565b80601f016020809104026020016040519081016040528092919081815260200182805461170f90612deb565b801561175c5780601f106117315761010080835404028352916020019161175c565b820191906000526020600020905b81548152906001019060200180831161173f57829003601f168201915b505050505081565b61176d81611e21565b600a8260405161177d9190612e81565b908152602001604051809103902060009054906101000a900460ff16156117d9576040517f08c379a00000000000000000000000000000000000000000000000000000000081526004016117d090613474565b60405180910390fd5b66038d7ea4c68000341015611823576040517f08c379a000000000000000000000000000000000000000000000000000000000815260040161181a906134e0565b60405180910390fd5b66b1a2bc2ec5000034111561186d576040517f08c379a00000000000000000000000000000000000000000000000000000000081526004016118649061354c565b60405180910390fd5b600060078360405161187f9190612e81565b9081526020016040518091039020805461189890612deb565b9050116118da576040517f08c379a00000000000000000000000000000000000000000000000000000000081526004016118d1906135b8565b60405180910390fd5b6001600960003373ffffffffffffffffffffffffffffffffffffffff1673ffffffffffffffffffffffffffffffffffffffff16815260200190815260200160002060006101000a81548160ff02191690831515021790555081600560003373ffffffffffffffffffffffffffffffffffffffff1673ffffffffffffffffffffffffffffffffffffffff168152602001908152602001600020908161197e91906132ea565b5060036000600d548152602001908152602001600020826040516119a29190612e81565b908152602001604051809103902060008154809291906119c190613607565b919050555060066000600d548152602001908152602001600020339080600181540180825580915050600190039060005260206000200160009091909190916101000a81548173ffffffffffffffffffffffffffffffffffffffff021916908373ffffffffffffffffffffffffffffffffffffffff160217905550611a44611fc1565b7f6cb0a41e9298e8d3ff3de34496ff4e64afd0962993efd997ff057aa62043436f338284600d54604051611a7b949392919061364f565b60405180910390a15050565b611a8f611d91565b611a9881612033565b50565b6008818051602081018201805184825260208301602085012081835280955050505050506000915090508054611ad090612deb565b80601f0160208091040260200160405190810160405280929190818152602001828054611afc90612deb565b8015611b495780601f10611b1e57610100808354040283529160200191611b49565b820191906000526020600020905b815481529060010190602001808311611b2c57829003601f168201915b505050505081565b60135481565b6014600084815260200190815260200160002060000160019054906101000a900460ff16611bba576040517f08c379a0000000000000000000000000000000000000000000000000000000008152600401611bb190613408565b60405180910390fd5b60016014600085815260200190815260200160002060000160006101000a81548160ff0219169083151502179055508181601460008681526020019081526020016000206001019190611c0e929190612482565b507ffe2e2d779dba245964d4e3ef9b994be63856fd568bf7d3ca9e224755cb1bd54d838383604051611c429392919061370c565b60405180910390a1600082826000818110611c6057611c5f61373e565b5b905060200201359050600060066000600d5481526020019081526020016000208054905082611c8f919061379c565b9050600060066000600d5481526020019081526020016000208281548110611cba57611cb961373e565b5b9060005260206000200160009054906101000a900473ffffffffffffffffffffffffffffffffffffffff16905060004790507f1545cd4197b626f3a89e81606417b61cd942aa094771eaa0bbbf9562c1e17de08282600d54604051611d21939291906137ee565b60405180910390a18173ffffffffffffffffffffffffffffffffffffffff166108fc829081150290604051600060405180830381858888f19350505050158015611d6f573d6000803e3d6000fd5b50600d6000815480929190611d8390613607565b919050555050505050505050565b60008054906101000a900473ffffffffffffffffffffffffffffffffffffffff1673ffffffffffffffffffffffffffffffffffffffff163373ffffffffffffffffffffffffffffffffffffffff1614611e1f576040517f08c379a0000000000000000000000000000000000000000000000000000000008152600401611e1690613871565b60405180910390fd5b565b6000600482604051611e339190612e81565b908152602001604051809103902060009054906101000a900473ffffffffffffffffffffffffffffffffffffffff169050600073ffffffffffffffffffffffffffffffffffffffff168173ffffffffffffffffffffffffffffffffffffffff1614611ed3576040517f08c379a0000000000000000000000000000000000000000000000000000000008152600401611eca906138dd565b60405180910390fd5b600960003373ffffffffffffffffffffffffffffffffffffffff1673ffffffffffffffffffffffffffffffffffffffff16815260200190815260200160002060009054906101000a900460ff1615611f60576040517f08c379a0000000000000000000000000000000000000000000000000000000008152600401611f5790613949565b60405180910390fd5b33600483604051611f719190612e81565b908152602001604051809103902060006101000a81548173ffffffffffffffffffffffffffffffffffffffff021916908373ffffffffffffffffffffffffffffffffffffffff1602179055505050565b600c54471061203157600060066000600d5481526020019081526020016000208054905011612025576040517f08c379a000000000000000000000000000000000000000000000000000000000815260040161201c906139b5565b60405180910390fd5b61202f600061215f565b505b565b3373ffffffffffffffffffffffffffffffffffffffff168173ffffffffffffffffffffffffffffffffffffffff16036120a1576040517f08c379a000000000000000000000000000000000000000000000000000000000815260040161209890613a21565b60405180910390fd5b80600160006101000a81548173ffffffffffffffffffffffffffffffffffffffff021916908373ffffffffffffffffffffffffffffffffffffffff1602179055508073ffffffffffffffffffffffffffffffffffffffff1660008054906101000a900473ffffffffffffffffffffffffffffffffffffffff1673ffffffffffffffffffffffffffffffffffffffff167fed8889f560326eb138920d842192f0eb3dd22b4f139c87a2c57538e05bae127860405160405180910390a350565b6000600260009054906101000a900473ffffffffffffffffffffffffffffffffffffffff1673ffffffffffffffffffffffffffffffffffffffff16639b1c385e6040518060c001604052806010548152602001600e548152602001601160049054906101000a900461ffff1661ffff168152602001601160009054906101000a900463ffffffff1663ffffffff168152602001601160069054906101000a900463ffffffff1663ffffffff16815260200161222960405180602001604052808815158152506123ea565b8152506040518263ffffffff1660e01b81526004016122489190613b6a565b6020604051808303816000875af1158015612267573d6000803e3d6000fd5b505050506040513d601f19601f8201168201806040525081019061228b9190613ba1565b90506040518060600160405280600015158152602001600115158152602001600067ffffffffffffffff8111156122c5576122c4612665565b5b6040519080825280602002602001820160405280156122f35781602001602082028036833780820191505090505b508152506014600083815260200190815260200160002060008201518160000160006101000a81548160ff02191690831515021790555060208201518160000160016101000a81548160ff02191690831515021790555060408201518160010190805190602001906123669291906124cf565b509050506012819080600181540180825580915050600190039060005260206000200160009091909190915055806013819055507fcc58b13ad3eab50626c6a6300b1d139cd6ebb1688a7cced9461c2f7e762665ee81601160069054906101000a900463ffffffff166040516123dd929190613bdd565b60405180910390a1919050565b60607f92fd13387c7fe7befbc38d303d6468778fb9731bc4583f17d92989c6fcfdeaaa8260405160240161241e9190613c31565b604051602081830303815290604052907bffffffffffffffffffffffffffffffffffffffffffffffffffffffff19166020820180517bffffffffffffffffffffffffffffffffffffffffffffffffffffffff83818316178352505050509050919050565b8280548282559060005260206000209081019282156124be579160200282015b828111156124bd5782358255916020019190600101906124a2565b5b5090506124cb919061251c565b5090565b82805482825590600052602060002090810192821561250b579160200282015b8281111561250a5782518255916020019190600101906124ef565b5b509050612518919061251c565b5090565b5b8082111561253557600081600090555060010161251d565b5090565b600081519050919050565b600082825260208201905092915050565b60005b83811015612573578082015181840152602081019050612558565b60008484015250505050565b6000601f19601f8301169050919050565b600061259b82612539565b6125a58185612544565b93506125b5818560208601612555565b6125be8161257f565b840191505092915050565b600060208201905081810360008301526125e38184612590565b905092915050565b600073ffffffffffffffffffffffffffffffffffffffff82169050919050565b6000612616826125eb565b9050919050565b6126268161260b565b82525050565b6000602082019050612641600083018461261d565b92915050565b6000604051905090565b600080fd5b600080fd5b600080fd5b600080fd5b7f4e487b7100000000000000000000000000000000000000000000000000000000600052604160045260246000fd5b61269d8261257f565b810181811067ffffffffffffffff821117156126bc576126bb612665565b5b80604052505050565b60006126cf612647565b90506126db8282612694565b919050565b600067ffffffffffffffff8211156126fb576126fa612665565b5b6127048261257f565b9050602081019050919050565b82818337600083830152505050565b600061273361272e846126e0565b6126c5565b90508281526020810184848401111561274f5761274e612660565b5b61275a848285612711565b509392505050565b600082601f8301126127775761277661265b565b5b8135612787848260208601612720565b91505092915050565b6000602082840312156127a6576127a5612651565b5b600082013567ffffffffffffffff8111156127c4576127c3612656565b5b6127d084828501612762565b91505092915050565b6127e28161260b565b81146127ed57600080fd5b50565b6000813590506127ff816127d9565b92915050565b60006020828403121561281b5761281a612651565b5b6000612829848285016127f0565b91505092915050565b60008115159050919050565b61284781612832565b82525050565b6000602082019050612862600083018461283e565b92915050565b6000819050919050565b61287b81612868565b82525050565b60006020820190506128966000830184612872565b92915050565b6128a581612868565b81146128b057600080fd5b50565b6000813590506128c28161289c565b92915050565b600080604083850312156128df576128de612651565b5b60006128ed858286016128b3565b92505060206128fe858286016128b3565b9150509250929050565b600080fd5b600080fd5b60008083601f8401126129285761292761265b565b5b8235905067ffffffffffffffff81111561294557612944612908565b5b6020830191508360208202830111156129615761296061290d565b5b9250929050565b60008060006040848603121561298157612980612651565b5b600061298f868287016128b3565b935050602084013567ffffffffffffffff8111156129b0576129af612656565b5b6129bc86828701612912565b92509250509250925092565b600081519050919050565b600082825260208201905092915050565b6000819050602082019050919050565b600082825260208201905092915050565b6000612a1082612539565b612a1a81856129f4565b9350612a2a818560208601612555565b612a338161257f565b840191505092915050565b6000612a4a8383612a05565b905092915050565b6000602082019050919050565b6000612a6a826129c8565b612a7481856129d3565b935083602082028501612a86856129e4565b8060005b85811015612ac25784840389528151612aa38582612a3e565b9450612aae83612a52565b925060208a01995050600181019050612a8a565b50829750879550505050505092915050565b60006020820190508181036000830152612aee8184612a5f565b905092915050565b600060208284031215612b0c57612b0b612651565b5b6000612b1a848285016128b3565b91505092915050565b6000819050919050565b612b3681612b23565b82525050565b6000602082019050612b516000830184612b2d565b92915050565b60008060408385031215612b6e57612b6d612651565b5b600083013567ffffffffffffffff811115612b8c57612b8b612656565b5b612b9885828601612762565b925050602083013567ffffffffffffffff811115612bb957612bb8612656565b5b612bc585828601612762565b9150509250929050565b6000819050919050565b6000612bf4612bef612bea846125eb565b612bcf565b6125eb565b9050919050565b6000612c0682612bd9565b9050919050565b6000612c1882612bfb565b9050919050565b612c2881612c0d565b82525050565b6000602082019050612c436000830184612c1f565b92915050565b6000604082019050612c5e600083018561283e565b612c6b602083018461283e565b9392505050565b60008060408385031215612c8957612c88612651565b5b6000612c97858286016128b3565b925050602083013567ffffffffffffffff811115612cb857612cb7612656565b5b612cc485828601612762565b9150509250929050565b600081519050919050565b600082825260208201905092915050565b6000819050602082019050919050565b612d0381612868565b82525050565b6000612d158383612cfa565b60208301905092915050565b6000602082019050919050565b6000612d3982612cce565b612d438185612cd9565b9350612d4e83612cea565b8060005b83811015612d7f578151612d668882612d09565b9750612d7183612d21565b925050600181019050612d52565b5085935050505092915050565b6000604082019050612da1600083018561283e565b8181036020830152612db38184612d2e565b90509392505050565b7f4e487b7100000000000000000000000000000000000000000000000000000000600052602260045260246000fd5b60006002820490506001821680612e0357607f821691505b602082108103612e1657612e15612dbc565b5b50919050565b6000604082019050612e31600083018561261d565b612e3e602083018461261d565b9392505050565b600081905092915050565b6000612e5b82612539565b612e658185612e45565b9350612e75818560208601612555565b80840191505092915050565b6000612e8d8284612e50565b915081905092915050565b60006040820190508181036000830152612eb28185612590565b90508181036020830152612ec68184612590565b90509392505050565b7f4d7573742062652070726f706f736564206f776e657200000000000000000000600082015250565b6000612f05601683612544565b9150612f1082612ecf565b602082019050919050565b60006020820190508181036000830152612f3481612ef8565b9050919050565b6000606082019050612f50600083018661261d565b612f5d602083018561261d565b612f6a604083018461261d565b949350505050565b7f50726f6a65637420616c72656164792065786973747300000000000000000000600082015250565b6000612fa8601683612544565b9150612fb382612f72565b602082019050919050565b60006020820190508181036000830152612fd781612f9b565b9050919050565b7f50726f6a65637420776974682074686174206e616d6520616c7265616479206560008201527f7869737473000000000000000000000000000000000000000000000000000000602082015250565b600061303a602583612544565b915061304582612fde565b604082019050919050565b600060208201905081810360008301526130698161302d565b9050919050565b7f50726f6a656374206e616d652069732072657175697265640000000000000000600082015250565b60006130a6601883612544565b91506130b182613070565b602082019050919050565b600060208201905081810360008301526130d581613099565b9050919050565b7f50726f6a65637420494420697320726571756972656400000000000000000000600082015250565b6000613112601683612544565b915061311d826130dc565b602082019050919050565b6000602082019050818103600083015261314181613105565b9050919050565b60008190508160005260206000209050919050565b60006020601f8301049050919050565b600082821b905092915050565b6000600883026131aa7fffffffffffffffffffffffffffffffffffffffffffffffffffffffffffffffff8261316d565b6131b4868361316d565b95508019841693508086168417925050509392505050565b60006131e76131e26131dd84612868565b612bcf565b612868565b9050919050565b6000819050919050565b613201836131cc565b61321561320d826131ee565b84845461317a565b825550505050565b600090565b61322a61321d565b6132358184846131f8565b505050565b5b818110156132595761324e600082613222565b60018101905061323b565b5050565b601f82111561329e5761326f81613148565b6132788461315d565b81016020851015613287578190505b61329b6132938561315d565b83018261323a565b50505b505050565b600082821c905092915050565b60006132c1600019846008026132a3565b1980831691505092915050565b60006132da83836132b0565b9150826002028217905092915050565b6132f382612539565b67ffffffffffffffff81111561330c5761330b612665565b5b6133168254612deb565b61332182828561325d565b600060209050601f8311600181146133545760008415613342578287015190505b61334c85826132ce565b8655506133b4565b601f19841661336286613148565b60005b8281101561338a57848901518255600182019150602085019450602081019050613365565b868310156133a757848901516133a3601f8916826132b0565b8355505b6001600288020188555050505b505050505050565b7f72657175657374206e6f7420666f756e64000000000000000000000000000000600082015250565b60006133f2601183612544565b91506133fd826133bc565b602082019050919050565b60006020820190508181036000830152613421816133e5565b9050919050565b7f43616e6e6f7420766f746520666f7220726574697265642070726f6a65637473600082015250565b600061345e602083612544565b915061346982613428565b602082019050919050565b6000602082019050818103600083015261348d81613451565b9050919050565b7f4d696e696d756d20302e30303120657468657200000000000000000000000000600082015250565b60006134ca601383612544565b91506134d582613494565b602082019050919050565b600060208201905081810360008301526134f9816134bd565b9050919050565b7f4d6178696d756d20302e30352065746865720000000000000000000000000000600082015250565b6000613536601283612544565b915061354182613500565b602082019050919050565b6000602082019050818103600083015261356581613529565b9050919050565b7f50726f6a65637420646f6573206e6f7420657869737400000000000000000000600082015250565b60006135a2601683612544565b91506135ad8261356c565b602082019050919050565b600060208201905081810360008301526135d181613595565b9050919050565b7f4e487b7100000000000000000000000000000000000000000000000000000000600052601160045260246000fd5b600061361282612868565b91507fffffffffffffffffffffffffffffffffffffffffffffffffffffffffffffffff8203613644576136436135d8565b5b600182019050919050565b6000608082019050613664600083018761261d565b81810360208301526136768186612590565b9050818103604083015261368a8185612590565b90506136996060830184612872565b95945050505050565b600080fd5b82818337505050565b60006136bc8385612cd9565b93507f07ffffffffffffffffffffffffffffffffffffffffffffffffffffffffffffff8311156136ef576136ee6136a2565b5b6020830292506137008385846136a7565b82840190509392505050565b60006040820190506137216000830186612872565b81810360208301526137348184866136b0565b9050949350505050565b7f4e487b7100000000000000000000000000000000000000000000000000000000600052603260045260246000fd5b7f4e487b7100000000000000000000000000000000000000000000000000000000600052601260045260246000fd5b60006137a782612868565b91506137b283612868565b9250826137c2576137c161376d565b5b828206905092915050565b60006137d882612bfb565b9050919050565b6137e8816137cd565b82525050565b600060608201905061380360008301866137df565b6138106020830185612872565b61381d6040830184612872565b949350505050565b7f4f6e6c792063616c6c61626c65206279206f776e657200000000000000000000600082015250565b600061385b601683612544565b915061386682613825565b602082019050919050565b6000602082019050818103600083015261388a8161384e565b9050919050565b7f446973706c6179206e616d6520697320616c72656164792074616b656e000000600082015250565b60006138c7601d83612544565b91506138d282613891565b602082019050919050565b600060208201905081810360008301526138f6816138ba565b9050919050565b7f566f7465722068617320616c726561647920766f746564000000000000000000600082015250565b6000613933601783612544565b915061393e826138fd565b602082019050919050565b6000602082019050818103600083015261396281613926565b9050919050565b7f4e6f20766f7465727320746f2072657761726400000000000000000000000000600082015250565b600061399f601383612544565b91506139aa82613969565b602082019050919050565b600060208201905081810360008301526139ce81613992565b9050919050565b7f43616e6e6f74207472616e7366657220746f2073656c66000000000000000000600082015250565b6000613a0b601783612544565b9150613a16826139d5565b602082019050919050565b60006020820190508181036000830152613a3a816139fe565b9050919050565b613a4a81612b23565b82525050565b600061ffff82169050919050565b613a6781613a50565b82525050565b600063ffffffff82169050919050565b613a8681613a6d565b82525050565b600081519050919050565b600082825260208201905092915050565b6000613ab382613a8c565b613abd8185613a97565b9350613acd818560208601612555565b613ad68161257f565b840191505092915050565b600060c083016000830151613af96000860182613a41565b506020830151613b0c6020860182612cfa565b506040830151613b1f6040860182613a5e565b506060830151613b326060860182613a7d565b506080830151613b456080860182613a7d565b5060a083015184820360a0860152613b5d8282613aa8565b9150508091505092915050565b60006020820190508181036000830152613b848184613ae1565b905092915050565b600081519050613b9b8161289c565b92915050565b600060208284031215613bb757613bb6612651565b5b6000613bc584828501613b8c565b91505092915050565b613bd781613a6d565b82525050565b6000604082019050613bf26000830185612872565b613bff6020830184613bce565b9392505050565b613c0f81612832565b82525050565b602082016000820151613c2b6000850182613c06565b50505050565b6000602082019050613c466000830184613c15565b9291505056fea26469706673582212201c3a442526e27b8675c490724536fae9c508187ee855f1244110e08a1d19ff4b64736f6c63430008140033",
  "linkReferences": {},
  "deployedLinkReferences": {}
}