{
  "_format": "hh-sol-artifact-1",
  "contractName": "ProjectVoting",
  "sourceName": "contracts/project-voting.sol",
  "abi": [
    {
      "inputs": [
        {
          "internalType": "address",
          "name": "_vrfCoordinator",
          "type": "address"
        },
        {
          "internalType": "uint256",
          "name": "_subscriptionId",
          "type": "uint256"
        },
        {
          "internalType": "bytes32",
          "name": "_keyHash",
          "type": "bytes32"
        }
      ],
      "stateMutability": "nonpayable",
      "type": "constructor"
    },
    {
      "inputs": [
        {
          "internalType": "address",
          "name": "have",
          "type": "address"
        },
        {
          "internalType": "address",
          "name": "want",
          "type": "address"
        }
      ],
      "name": "OnlyCoordinatorCanFulfill",
      "type": "error"
    },
    {
      "inputs": [
        {
          "internalType": "address",
          "name": "have",
          "type": "address"
        },
        {
          "internalType": "address",
          "name": "owner",
          "type": "address"
        },
        {
          "internalType": "address",
          "name": "coordinator",
          "type": "address"
        }
      ],
      "name": "OnlyOwnerOrCoordinator",
      "type": "error"
    },
    {
      "inputs": [],
      "name": "ZeroAddress",
      "type": "error"
    },
    {
      "anonymous": false,
      "inputs": [
        {
          "indexed": false,
          "internalType": "address",
          "name": "vrfCoordinator",
          "type": "address"
        }
      ],
      "name": "CoordinatorSet",
      "type": "event"
    },
    {
      "anonymous": false,
      "inputs": [
        {
          "indexed": true,
          "internalType": "address",
          "name": "from",
          "type": "address"
        },
        {
          "indexed": true,
          "internalType": "address",
          "name": "to",
          "type": "address"
        }
      ],
      "name": "OwnershipTransferRequested",
      "type": "event"
    },
    {
      "anonymous": false,
      "inputs": [
        {
          "indexed": true,
          "internalType": "address",
          "name": "from",
          "type": "address"
        },
        {
          "indexed": true,
          "internalType": "address",
          "name": "to",
          "type": "address"
        }
      ],
      "name": "OwnershipTransferred",
      "type": "event"
    },
    {
      "anonymous": false,
      "inputs": [
        {
          "indexed": false,
          "internalType": "string",
          "name": "projectId",
          "type": "string"
        },
        {
          "indexed": false,
          "internalType": "string",
          "name": "projectName",
          "type": "string"
        }
      ],
      "name": "ProjectAdded",
      "type": "event"
    },
    {
      "anonymous": false,
      "inputs": [
        {
          "indexed": false,
          "internalType": "uint256",
          "name": "requestId",
          "type": "uint256"
        },
        {
          "indexed": false,
          "internalType": "uint256[]",
          "name": "randomWords",
          "type": "uint256[]"
        }
      ],
      "name": "RequestFulfilled",
      "type": "event"
    },
    {
      "anonymous": false,
      "inputs": [
        {
          "indexed": false,
          "internalType": "uint256",
          "name": "requestId",
          "type": "uint256"
        },
        {
          "indexed": false,
          "internalType": "uint32",
          "name": "numWords",
          "type": "uint32"
        }
      ],
      "name": "RequestSent",
      "type": "event"
    },
    {
      "anonymous": false,
      "inputs": [
        {
          "indexed": false,
          "internalType": "address",
          "name": "voter",
          "type": "address"
        },
        {
          "indexed": false,
          "internalType": "string",
          "name": "name",
          "type": "string"
        },
        {
          "indexed": false,
          "internalType": "string",
          "name": "projectId",
          "type": "string"
        },
        {
          "indexed": false,
          "internalType": "uint256",
          "name": "cycle",
          "type": "uint256"
        }
      ],
      "name": "Voted",
      "type": "event"
    },
    {
      "anonymous": false,
      "inputs": [
        {
          "indexed": false,
          "internalType": "address",
          "name": "winner",
          "type": "address"
        },
        {
          "indexed": false,
          "internalType": "uint256",
          "name": "amount",
          "type": "uint256"
        },
        {
          "indexed": false,
          "internalType": "uint256",
          "name": "cycle",
          "type": "uint256"
        }
      ],
      "name": "WinnerAnnounced",
      "type": "event"
    },
    {
      "inputs": [],
      "name": "acceptOwnership",
      "outputs": [],
      "stateMutability": "nonpayable",
      "type": "function"
    },
    {
      "inputs": [
        {
          "internalType": "string",
          "name": "projectName",
          "type": "string"
        },
        {
          "internalType": "string",
          "name": "projectId",
          "type": "string"
        }
      ],
      "name": "addProject",
      "outputs": [],
      "stateMutability": "nonpayable",
      "type": "function"
    },
    {
      "inputs": [
        {
          "internalType": "address",
          "name": "",
          "type": "address"
        }
      ],
      "name": "addressChoice",
      "outputs": [
        {
          "internalType": "string",
          "name": "",
          "type": "string"
        }
      ],
      "stateMutability": "view",
      "type": "function"
    },
    {
      "inputs": [
        {
          "internalType": "address",
          "name": "",
          "type": "address"
        }
      ],
      "name": "addressToName",
      "outputs": [
        {
          "internalType": "string",
          "name": "",
          "type": "string"
        }
      ],
      "stateMutability": "view",
      "type": "function"
    },
    {
      "inputs": [],
      "name": "checkHasVoted",
      "outputs": [
        {
          "internalType": "bool",
          "name": "",
          "type": "bool"
        }
      ],
      "stateMutability": "view",
      "type": "function"
    },
    {
      "inputs": [],
      "name": "currentCycle",
      "outputs": [
        {
          "internalType": "uint256",
          "name": "",
          "type": "uint256"
        }
      ],
      "stateMutability": "view",
      "type": "function"
    },
    {
      "inputs": [
        {
          "internalType": "uint256",
          "name": "",
          "type": "uint256"
        },
        {
          "internalType": "uint256",
          "name": "",
          "type": "uint256"
        }
      ],
      "name": "cycleVoters",
      "outputs": [
        {
          "internalType": "address",
          "name": "",
          "type": "address"
        }
      ],
      "stateMutability": "view",
      "type": "function"
    },
    {
      "inputs": [
        {
          "internalType": "uint256",
          "name": "",
          "type": "uint256"
        },
        {
          "internalType": "string",
          "name": "",
          "type": "string"
        }
      ],
      "name": "cycleVotes",
      "outputs": [
        {
          "internalType": "uint256",
          "name": "",
          "type": "uint256"
        }
      ],
      "stateMutability": "view",
      "type": "function"
    },
    {
      "inputs": [],
      "name": "getBalance",
      "outputs": [
        {
          "internalType": "uint256",
          "name": "",
          "type": "uint256"
        }
      ],
      "stateMutability": "view",
      "type": "function"
    },
    {
      "inputs": [],
      "name": "getCycle",
      "outputs": [
        {
          "internalType": "uint256",
          "name": "",
          "type": "uint256"
        }
      ],
      "stateMutability": "view",
      "type": "function"
    },
    {
      "inputs": [
        {
          "internalType": "string",
          "name": "projectId",
          "type": "string"
        }
      ],
      "name": "getCycleVoteCount",
      "outputs": [
        {
          "internalType": "uint256",
          "name": "",
          "type": "uint256"
        }
      ],
      "stateMutability": "view",
      "type": "function"
    },
    {
      "inputs": [],
      "name": "getProjectIds",
      "outputs": [
        {
          "internalType": "string[]",
          "name": "",
          "type": "string[]"
        }
      ],
      "stateMutability": "view",
      "type": "function"
    },
    {
      "inputs": [
        {
          "internalType": "string",
          "name": "id",
          "type": "string"
        }
      ],
      "name": "getProjectName",
      "outputs": [
        {
          "internalType": "string",
          "name": "",
          "type": "string"
        }
      ],
      "stateMutability": "view",
      "type": "function"
    },
    {
      "inputs": [
        {
          "internalType": "uint256",
          "name": "_requestId",
          "type": "uint256"
        }
      ],
      "name": "getRequestStatus",
      "outputs": [
        {
          "internalType": "bool",
          "name": "fulfilled",
          "type": "bool"
        },
        {
          "internalType": "uint256[]",
          "name": "randomWords",
          "type": "uint256[]"
        }
      ],
      "stateMutability": "view",
      "type": "function"
    },
    {
      "inputs": [],
      "name": "getThreshold",
      "outputs": [
        {
          "internalType": "uint256",
          "name": "",
          "type": "uint256"
        }
      ],
      "stateMutability": "view",
      "type": "function"
    },
    {
      "inputs": [],
      "name": "getVote",
      "outputs": [
        {
          "internalType": "string",
          "name": "",
          "type": "string"
        }
      ],
      "stateMutability": "view",
      "type": "function"
    },
    {
      "inputs": [
        {
          "internalType": "address",
          "name": "",
          "type": "address"
        }
      ],
      "name": "hasVoted",
      "outputs": [
        {
          "internalType": "bool",
          "name": "",
          "type": "bool"
        }
      ],
      "stateMutability": "view",
      "type": "function"
    },
    {
      "inputs": [],
      "name": "keyHashSet",
      "outputs": [
        {
          "internalType": "bytes32",
          "name": "",
          "type": "bytes32"
        }
      ],
      "stateMutability": "view",
      "type": "function"
    },
    {
      "inputs": [],
      "name": "lastRequestId",
      "outputs": [
        {
          "internalType": "uint256",
          "name": "",
          "type": "uint256"
        }
      ],
      "stateMutability": "view",
      "type": "function"
    },
    {
      "inputs": [
        {
          "internalType": "string",
          "name": "",
          "type": "string"
        }
      ],
      "name": "nameToAddress",
      "outputs": [
        {
          "internalType": "address",
          "name": "",
          "type": "address"
        }
      ],
      "stateMutability": "view",
      "type": "function"
    },
    {
      "inputs": [],
      "name": "owner",
      "outputs": [
        {
          "internalType": "address",
          "name": "",
          "type": "address"
        }
      ],
      "stateMutability": "view",
      "type": "function"
    },
    {
      "inputs": [
        {
          "internalType": "uint256",
          "name": "",
          "type": "uint256"
        }
      ],
      "name": "projectIds",
      "outputs": [
        {
          "internalType": "string",
          "name": "",
          "type": "string"
        }
      ],
      "stateMutability": "view",
      "type": "function"
    },
    {
      "inputs": [
        {
          "internalType": "string",
          "name": "",
          "type": "string"
        }
      ],
      "name": "projects",
      "outputs": [
        {
          "internalType": "string",
          "name": "",
          "type": "string"
        }
      ],
      "stateMutability": "view",
      "type": "function"
    },
    {
      "inputs": [
        {
          "internalType": "uint256",
          "name": "requestId",
          "type": "uint256"
        },
        {
          "internalType": "uint256[]",
          "name": "randomWords",
          "type": "uint256[]"
        }
      ],
      "name": "rawFulfillRandomWords",
      "outputs": [],
      "stateMutability": "nonpayable",
      "type": "function"
    },
    {
      "inputs": [
        {
          "internalType": "uint256",
          "name": "",
          "type": "uint256"
        }
      ],
      "name": "requestIds",
      "outputs": [
        {
          "internalType": "uint256",
          "name": "",
          "type": "uint256"
        }
      ],
      "stateMutability": "view",
      "type": "function"
    },
    {
      "inputs": [
        {
          "internalType": "uint256",
          "name": "",
          "type": "uint256"
        }
      ],
      "name": "s_requests",
      "outputs": [
        {
          "internalType": "bool",
          "name": "fulfilled",
          "type": "bool"
        },
        {
          "internalType": "bool",
          "name": "exists",
          "type": "bool"
        }
      ],
      "stateMutability": "view",
      "type": "function"
    },
    {
      "inputs": [],
      "name": "s_vrfCoordinator",
      "outputs": [
        {
          "internalType": "contract IVRFCoordinatorV2Plus",
          "name": "",
          "type": "address"
        }
      ],
      "stateMutability": "view",
      "type": "function"
    },
    {
      "inputs": [
        {
          "internalType": "address",
          "name": "_vrfCoordinator",
          "type": "address"
        }
      ],
      "name": "setCoordinator",
      "outputs": [],
      "stateMutability": "nonpayable",
      "type": "function"
    },
    {
      "inputs": [],
      "name": "subscriptionSet",
      "outputs": [
        {
          "internalType": "bool",
          "name": "",
          "type": "bool"
        }
      ],
      "stateMutability": "view",
      "type": "function"
    },
    {
      "inputs": [
        {
          "internalType": "address",
          "name": "to",
          "type": "address"
        }
      ],
      "name": "transferOwnership",
      "outputs": [],
      "stateMutability": "nonpayable",
      "type": "function"
    },
    {
      "inputs": [
        {
          "internalType": "string",
          "name": "projectId",
          "type": "string"
        },
        {
          "internalType": "string",
          "name": "displayName",
          "type": "string"
        }
      ],
      "name": "vote",
      "outputs": [],
      "stateMutability": "payable",
      "type": "function"
    },
    {
      "inputs": [],
      "name": "vrfCoordinatorSet",
      "outputs": [
        {
          "internalType": "address",
          "name": "",
          "type": "address"
        }
      ],
      "stateMutability": "view",
      "type": "function"
    }
  ],
  "bytecode": "0x608060405267016345785d8a0000600b556001600c55620186a0601060006101000a81548163ffffffff021916908363ffffffff1602179055506003601060046101000a81548161ffff021916908361ffff1602179055506001601060066101000a81548163ffffffff021916908363ffffffff1602179055503480156200008657600080fd5b5060405162003f7a38038062003f7a8339818101604052810190620000ac91906200047b565b82338060008073ffffffffffffffffffffffffffffffffffffffff168273ffffffffffffffffffffffffffffffffffffffff160362000122576040517f08c379a0000000000000000000000000000000000000000000000000000000008152600401620001199062000538565b60405180910390fd5b816000806101000a81548173ffffffffffffffffffffffffffffffffffffffff021916908373ffffffffffffffffffffffffffffffffffffffff160217905550600073ffffffffffffffffffffffffffffffffffffffff168173ffffffffffffffffffffffffffffffffffffffff1614620001a957620001a8816200026c60201b60201c565b5b505050600073ffffffffffffffffffffffffffffffffffffffff168173ffffffffffffffffffffffffffffffffffffffff160362000213576040517fd92e233d00000000000000000000000000000000000000000000000000000000815260040160405180910390fd5b80600260006101000a81548173ffffffffffffffffffffffffffffffffffffffff021916908373ffffffffffffffffffffffffffffffffffffffff1602179055505081600d8190555080600f81905550505050620005cc565b3373ffffffffffffffffffffffffffffffffffffffff168173ffffffffffffffffffffffffffffffffffffffff1603620002dd576040517f08c379a0000000000000000000000000000000000000000000000000000000008152600401620002d490620005aa565b60405180910390fd5b80600160006101000a81548173ffffffffffffffffffffffffffffffffffffffff021916908373ffffffffffffffffffffffffffffffffffffffff1602179055508073ffffffffffffffffffffffffffffffffffffffff1660008054906101000a900473ffffffffffffffffffffffffffffffffffffffff1673ffffffffffffffffffffffffffffffffffffffff167fed8889f560326eb138920d842192f0eb3dd22b4f139c87a2c57538e05bae127860405160405180910390a350565b600080fd5b600073ffffffffffffffffffffffffffffffffffffffff82169050919050565b6000620003cd82620003a0565b9050919050565b620003df81620003c0565b8114620003eb57600080fd5b50565b600081519050620003ff81620003d4565b92915050565b6000819050919050565b6200041a8162000405565b81146200042657600080fd5b50565b6000815190506200043a816200040f565b92915050565b6000819050919050565b620004558162000440565b81146200046157600080fd5b50565b60008151905062000475816200044a565b92915050565b6000806000606084860312156200049757620004966200039b565b5b6000620004a786828701620003ee565b9350506020620004ba8682870162000429565b9250506040620004cd8682870162000464565b9150509250925092565b600082825260208201905092915050565b7f43616e6e6f7420736574206f776e657220746f207a65726f0000000000000000600082015250565b600062000520601883620004d7565b91506200052d82620004e8565b602082019050919050565b60006020820190508181036000830152620005538162000511565b9050919050565b7f43616e6e6f74207472616e7366657220746f2073656c66000000000000000000600082015250565b600062000592601783620004d7565b91506200059f826200055a565b602082019050919050565b60006020820190508181036000830152620005c58162000583565b9050919050565b61399e80620005dc6000396000f3fe6080604052600436106101e35760003560e01c80638da5cb5b11610102578063bab2f55211610095578063e7f72f1011610064578063e7f72f101461075c578063e8d5940d14610799578063f2fde38b146107b5578063fc2a88c3146107de576101e3565b8063bab2f5521461068b578063d8a4676f146106b6578063e2a04b62146106f4578063e75235b814610731576101e3565b80639eccacf6116100d15780639eccacf6146105ba578063a168fa89146105e5578063a938212514610623578063b0a702e214610660576101e3565b80638da5cb5b146105005780638ea981171461052b57806391c9b26814610554578063980c308d14610591576101e3565b806329a613b51161017a578063655bce2211610149578063655bce221461044457806371c8fdbd1461046f57806379ba5097146104ac5780638796ba8c146104c3576101e3565b806329a613b514610374578063316943901461039f57806348c35ad4146103dc5780635842307e14610419576101e3565b806312065fe0116101b657806312065fe0146102b85780631234ce9d146102e357806312fe56e51461030e5780631fe543e31461034b576101e3565b80630242f351146101e85780630382a1211461021357806308d88aad1461023e57806309eef43e1461027b575b600080fd5b3480156101f457600080fd5b506101fd610809565b60405161020a91906123e3565b60405180910390f35b34801561021f57600080fd5b506102286108d8565b6040516102359190612446565b60405180910390f35b34801561024a57600080fd5b50610265600480360381019061026091906125aa565b610902565b6040516102729190612446565b60405180910390f35b34801561028757600080fd5b506102a2600480360381019061029d919061261f565b61094b565b6040516102af9190612667565b60405180910390f35b3480156102c457600080fd5b506102cd61096b565b6040516102da919061269b565b60405180910390f35b3480156102ef57600080fd5b506102f8610973565b6040516103059190612667565b60405180910390f35b34801561031a57600080fd5b50610335600480360381019061033091906126e2565b6109c7565b6040516103429190612446565b60405180910390f35b34801561035757600080fd5b50610372600480360381019061036d9190612782565b610a15565b005b34801561038057600080fd5b50610389610adb565b60405161039691906128ee565b60405180910390f35b3480156103ab57600080fd5b506103c660048036038101906103c191906125aa565b610bb4565b6040516103d391906123e3565b60405180910390f35b3480156103e857600080fd5b5061040360048036038101906103fe9190612910565b610c64565b60405161041091906123e3565b60405180910390f35b34801561042557600080fd5b5061042e610d10565b60405161043b9190612956565b60405180910390f35b34801561045057600080fd5b50610459610d1a565b604051610466919061269b565b60405180910390f35b34801561047b57600080fd5b50610496600480360381019061049191906125aa565b610d24565b6040516104a3919061269b565b60405180910390f35b3480156104b857600080fd5b506104c1610d5f565b005b3480156104cf57600080fd5b506104ea60048036038101906104e59190612910565b610ef4565b6040516104f7919061269b565b60405180910390f35b34801561050c57600080fd5b50610515610f18565b6040516105229190612446565b60405180910390f35b34801561053757600080fd5b50610552600480360381019061054d919061261f565b610f41565b005b34801561056057600080fd5b5061057b600480360381019061057691906125aa565b611122565b60405161058891906123e3565b60405180910390f35b34801561059d57600080fd5b506105b860048036038101906105b39190612971565b6111d8565b005b3480156105c657600080fd5b506105cf611373565b6040516105dc9190612a48565b60405180910390f35b3480156105f157600080fd5b5061060c60048036038101906106079190612910565b611399565b60405161061a929190612a63565b60405180910390f35b34801561062f57600080fd5b5061064a60048036038101906106459190612a8c565b6113d7565b604051610657919061269b565b60405180910390f35b34801561066c57600080fd5b50610675611412565b6040516106829190612667565b60405180910390f35b34801561069757600080fd5b506106a0611425565b6040516106ad919061269b565b60405180910390f35b3480156106c257600080fd5b506106dd60048036038101906106d89190612910565b61142b565b6040516106eb929190612ba6565b60405180910390f35b34801561070057600080fd5b5061071b6004803603810190610716919061261f565b611556565b60405161072891906123e3565b60405180910390f35b34801561073d57600080fd5b506107466115f6565b604051610753919061269b565b60405180910390f35b34801561076857600080fd5b50610783600480360381019061077e919061261f565b611600565b60405161079091906123e3565b60405180910390f35b6107b360048036038101906107ae9190612971565b6116a0565b005b3480156107c157600080fd5b506107dc60048036038101906107d7919061261f565b611957565b005b3480156107ea57600080fd5b506107f361196b565b604051610800919061269b565b60405180910390f35b6060600660003373ffffffffffffffffffffffffffffffffffffffff1673ffffffffffffffffffffffffffffffffffffffff168152602001908152602001600020805461085590612c05565b80601f016020809104026020016040519081016040528092919081815260200182805461088190612c05565b80156108ce5780601f106108a3576101008083540402835291602001916108ce565b820191906000526020600020905b8154815290600101906020018083116108b157829003601f168201915b5050505050905090565b6000600e60009054906101000a900473ffffffffffffffffffffffffffffffffffffffff16905090565b6004818051602081018201805184825260208301602085012081835280955050505050506000915054906101000a900473ffffffffffffffffffffffffffffffffffffffff1681565b60096020528060005260406000206000915054906101000a900460ff1681565b600047905090565b6000600960003373ffffffffffffffffffffffffffffffffffffffff1673ffffffffffffffffffffffffffffffffffffffff16815260200190815260200160002060009054906101000a900460ff16905090565b600760205281600052604060002081815481106109e357600080fd5b906000526020600020016000915091509054906101000a900473ffffffffffffffffffffffffffffffffffffffff1681565b600260009054906101000a900473ffffffffffffffffffffffffffffffffffffffff1673ffffffffffffffffffffffffffffffffffffffff163373ffffffffffffffffffffffffffffffffffffffff1614610acb5733600260009054906101000a900473ffffffffffffffffffffffffffffffffffffffff166040517f1cf993f4000000000000000000000000000000000000000000000000000000008152600401610ac2929190612c36565b60405180910390fd5b610ad6838383611971565b505050565b6060600a805480602002602001604051908101604052809291908181526020016000905b82821015610bab578382906000526020600020018054610b1e90612c05565b80601f0160208091040260200160405190810160405280929190818152602001828054610b4a90612c05565b8015610b975780601f10610b6c57610100808354040283529160200191610b97565b820191906000526020600020905b815481529060010190602001808311610b7a57829003601f168201915b505050505081526020019060010190610aff565b50505050905090565b6060600882604051610bc69190612c9b565b90815260200160405180910390208054610bdf90612c05565b80601f0160208091040260200160405190810160405280929190818152602001828054610c0b90612c05565b8015610c585780601f10610c2d57610100808354040283529160200191610c58565b820191906000526020600020905b815481529060010190602001808311610c3b57829003601f168201915b50505050509050919050565b600a8181548110610c7457600080fd5b906000526020600020016000915090508054610c8f90612c05565b80601f0160208091040260200160405190810160405280929190818152602001828054610cbb90612c05565b8015610d085780601f10610cdd57610100808354040283529160200191610d08565b820191906000526020600020905b815481529060010190602001808311610ceb57829003601f168201915b505050505081565b6000600f54905090565b6000600c54905090565b600060036000600c54815260200190815260200160002082604051610d499190612c9b565b9081526020016040518091039020549050919050565b600160009054906101000a900473ffffffffffffffffffffffffffffffffffffffff1673ffffffffffffffffffffffffffffffffffffffff163373ffffffffffffffffffffffffffffffffffffffff1614610def576040517f08c379a0000000000000000000000000000000000000000000000000000000008152600401610de690612cfe565b60405180910390fd5b60008060009054906101000a900473ffffffffffffffffffffffffffffffffffffffff169050336000806101000a81548173ffffffffffffffffffffffffffffffffffffffff021916908373ffffffffffffffffffffffffffffffffffffffff1602179055506000600160006101000a81548173ffffffffffffffffffffffffffffffffffffffff021916908373ffffffffffffffffffffffffffffffffffffffff1602179055503373ffffffffffffffffffffffffffffffffffffffff168173ffffffffffffffffffffffffffffffffffffffff167f8be0079c531659141344cd1fd0a4f28419497f9722a3daafe3b4186f6b6457e060405160405180910390a350565b60118181548110610f0457600080fd5b906000526020600020016000915090505481565b60008060009054906101000a900473ffffffffffffffffffffffffffffffffffffffff16905090565b610f49610f18565b73ffffffffffffffffffffffffffffffffffffffff163373ffffffffffffffffffffffffffffffffffffffff1614158015610fd25750600260009054906101000a900473ffffffffffffffffffffffffffffffffffffffff1673ffffffffffffffffffffffffffffffffffffffff163373ffffffffffffffffffffffffffffffffffffffff1614155b156110415733610fe0610f18565b600260009054906101000a900473ffffffffffffffffffffffffffffffffffffffff166040517f061db9c100000000000000000000000000000000000000000000000000000000815260040161103893929190612d1e565b60405180910390fd5b600073ffffffffffffffffffffffffffffffffffffffff168173ffffffffffffffffffffffffffffffffffffffff16036110a7576040517fd92e233d00000000000000000000000000000000000000000000000000000000815260040160405180910390fd5b80600260006101000a81548173ffffffffffffffffffffffffffffffffffffffff021916908373ffffffffffffffffffffffffffffffffffffffff1602179055507fd1a6a14209a385a964d036e404cb5cfb71f4000cdb03c9366292430787261be6816040516111179190612446565b60405180910390a150565b600881805160208101820180518482526020830160208501208183528095505050505050600091509050805461115790612c05565b80601f016020809104026020016040519081016040528092919081815260200182805461118390612c05565b80156111d05780601f106111a5576101008083540402835291602001916111d0565b820191906000526020600020905b8154815290600101906020018083116111b357829003601f168201915b505050505081565b6111e0611bab565b60006008826040516111f29190612c9b565b9081526020016040518091039020805461120b90612c05565b90501461124d576040517f08c379a000000000000000000000000000000000000000000000000000000000815260040161124490612da1565b60405180910390fd5b6000825111611291576040517f08c379a000000000000000000000000000000000000000000000000000000000815260040161128890612e0d565b60405180910390fd5b60008151116112d5576040517f08c379a00000000000000000000000000000000000000000000000000000000081526004016112cc90612e79565b60405180910390fd5b816008826040516112e69190612c9b565b90815260200160405180910390209081611300919061303b565b50600a81908060018154018082558091505060019003906000526020600020016000909190919091509081611335919061303b565b507feb5d6000a362475be9d9b16beddc148b7004850daf2e69325a403d613567769e818360405161136792919061310d565b60405180910390a15050565b600260009054906101000a900473ffffffffffffffffffffffffffffffffffffffff1681565b60136020528060005260406000206000915090508060000160009054906101000a900460ff16908060000160019054906101000a900460ff16905082565b600360205281600052604060002081805160208101820180518482526020830160208501208183528095505050505050600091509150505481565b6000806000905080600d54141591505090565b600c5481565b600060606013600084815260200190815260200160002060000160019054906101000a900460ff16611492576040517f08c379a000000000000000000000000000000000000000000000000000000000815260040161148990613190565b60405180910390fd5b6000601360008581526020019081526020016000206040518060600160405290816000820160009054906101000a900460ff161515151581526020016000820160019054906101000a900460ff161515151581526020016001820180548060200260200160405190810160405280929190818152602001828054801561153757602002820191906000526020600020905b815481526020019060010190808311611523575b5050505050815250509050806000015181604001519250925050915091565b6005602052806000526040600020600091509050805461157590612c05565b80601f01602080910402602001604051908101604052809291908181526020018280546115a190612c05565b80156115ee5780601f106115c3576101008083540402835291602001916115ee565b820191906000526020600020905b8154815290600101906020018083116115d157829003601f168201915b505050505081565b6000600b54905090565b6006602052806000526040600020600091509050805461161f90612c05565b80601f016020809104026020016040519081016040528092919081815260200182805461164b90612c05565b80156116985780601f1061166d57610100808354040283529160200191611698565b820191906000526020600020905b81548152906001019060200180831161167b57829003601f168201915b505050505081565b6116a981611c3b565b66038d7ea4c680003410156116f3576040517f08c379a00000000000000000000000000000000000000000000000000000000081526004016116ea906131fc565b60405180910390fd5b66b1a2bc2ec5000034111561173d576040517f08c379a000000000000000000000000000000000000000000000000000000000815260040161173490613268565b60405180910390fd5b600060088360405161174f9190612c9b565b9081526020016040518091039020805461176890612c05565b9050116117aa576040517f08c379a00000000000000000000000000000000000000000000000000000000081526004016117a1906132d4565b60405180910390fd5b6001600960003373ffffffffffffffffffffffffffffffffffffffff1673ffffffffffffffffffffffffffffffffffffffff16815260200190815260200160002060006101000a81548160ff02191690831515021790555081600660003373ffffffffffffffffffffffffffffffffffffffff1673ffffffffffffffffffffffffffffffffffffffff168152602001908152602001600020908161184e919061303b565b5060036000600c548152602001908152602001600020826040516118729190612c9b565b9081526020016040518091039020600081548092919061189190613323565b919050555060076000600c548152602001908152602001600020339080600181540180825580915050600190039060005260206000200160009091909190916101000a81548173ffffffffffffffffffffffffffffffffffffffff021916908373ffffffffffffffffffffffffffffffffffffffff160217905550611914611ddb565b7f6cb0a41e9298e8d3ff3de34496ff4e64afd0962993efd997ff057aa62043436f338284600c5460405161194b949392919061336b565b60405180910390a15050565b61195f611bab565b61196881611e4d565b50565b60125481565b6013600084815260200190815260200160002060000160019054906101000a900460ff166119d4576040517f08c379a00000000000000000000000000000000000000000000000000000000081526004016119cb90613190565b60405180910390fd5b60016013600085815260200190815260200160002060000160006101000a81548160ff0219169083151502179055508181601360008681526020019081526020016000206001019190611a2892919061229c565b507ffe2e2d779dba245964d4e3ef9b994be63856fd568bf7d3ca9e224755cb1bd54d838383604051611a5c93929190613428565b60405180910390a1600082826000818110611a7a57611a7961345a565b5b905060200201359050600060076000600c5481526020019081526020016000208054905082611aa991906134b8565b9050600060076000600c5481526020019081526020016000208281548110611ad457611ad361345a565b5b9060005260206000200160009054906101000a900473ffffffffffffffffffffffffffffffffffffffff16905060004790507f1545cd4197b626f3a89e81606417b61cd942aa094771eaa0bbbf9562c1e17de08282600c54604051611b3b9392919061350a565b60405180910390a18173ffffffffffffffffffffffffffffffffffffffff166108fc829081150290604051600060405180830381858888f19350505050158015611b89573d6000803e3d6000fd5b50600c6000815480929190611b9d90613323565b919050555050505050505050565b60008054906101000a900473ffffffffffffffffffffffffffffffffffffffff1673ffffffffffffffffffffffffffffffffffffffff163373ffffffffffffffffffffffffffffffffffffffff1614611c39576040517f08c379a0000000000000000000000000000000000000000000000000000000008152600401611c309061358d565b60405180910390fd5b565b6000600482604051611c4d9190612c9b565b908152602001604051809103902060009054906101000a900473ffffffffffffffffffffffffffffffffffffffff169050600073ffffffffffffffffffffffffffffffffffffffff168173ffffffffffffffffffffffffffffffffffffffff1614611ced576040517f08c379a0000000000000000000000000000000000000000000000000000000008152600401611ce4906135f9565b60405180910390fd5b600960003373ffffffffffffffffffffffffffffffffffffffff1673ffffffffffffffffffffffffffffffffffffffff16815260200190815260200160002060009054906101000a900460ff1615611d7a576040517f08c379a0000000000000000000000000000000000000000000000000000000008152600401611d7190613665565b60405180910390fd5b33600483604051611d8b9190612c9b565b908152602001604051809103902060006101000a81548173ffffffffffffffffffffffffffffffffffffffff021916908373ffffffffffffffffffffffffffffffffffffffff1602179055505050565b600b544710611e4b57600060076000600c5481526020019081526020016000208054905011611e3f576040517f08c379a0000000000000000000000000000000000000000000000000000000008152600401611e36906136d1565b60405180910390fd5b611e496000611f79565b505b565b3373ffffffffffffffffffffffffffffffffffffffff168173ffffffffffffffffffffffffffffffffffffffff1603611ebb576040517f08c379a0000000000000000000000000000000000000000000000000000000008152600401611eb29061373d565b60405180910390fd5b80600160006101000a81548173ffffffffffffffffffffffffffffffffffffffff021916908373ffffffffffffffffffffffffffffffffffffffff1602179055508073ffffffffffffffffffffffffffffffffffffffff1660008054906101000a900473ffffffffffffffffffffffffffffffffffffffff1673ffffffffffffffffffffffffffffffffffffffff167fed8889f560326eb138920d842192f0eb3dd22b4f139c87a2c57538e05bae127860405160405180910390a350565b6000600260009054906101000a900473ffffffffffffffffffffffffffffffffffffffff1673ffffffffffffffffffffffffffffffffffffffff16639b1c385e6040518060c00160405280600f548152602001600d548152602001601060049054906101000a900461ffff1661ffff168152602001601060009054906101000a900463ffffffff1663ffffffff168152602001601060069054906101000a900463ffffffff1663ffffffff1681526020016120436040518060200160405280881515815250612204565b8152506040518263ffffffff1660e01b81526004016120629190613886565b6020604051808303816000875af1158015612081573d6000803e3d6000fd5b505050506040513d601f19601f820116820180604052508101906120a591906138bd565b90506040518060600160405280600015158152602001600115158152602001600067ffffffffffffffff8111156120df576120de61247f565b5b60405190808252806020026020018201604052801561210d5781602001602082028036833780820191505090505b508152506013600083815260200190815260200160002060008201518160000160006101000a81548160ff02191690831515021790555060208201518160000160016101000a81548160ff02191690831515021790555060408201518160010190805190602001906121809291906122e9565b509050506011819080600181540180825580915050600190039060005260206000200160009091909190915055806012819055507fcc58b13ad3eab50626c6a6300b1d139cd6ebb1688a7cced9461c2f7e762665ee81601060069054906101000a900463ffffffff166040516121f79291906138f9565b60405180910390a1919050565b60607f92fd13387c7fe7befbc38d303d6468778fb9731bc4583f17d92989c6fcfdeaaa82604051602401612238919061394d565b604051602081830303815290604052907bffffffffffffffffffffffffffffffffffffffffffffffffffffffff19166020820180517bffffffffffffffffffffffffffffffffffffffffffffffffffffffff83818316178352505050509050919050565b8280548282559060005260206000209081019282156122d8579160200282015b828111156122d75782358255916020019190600101906122bc565b5b5090506122e59190612336565b5090565b828054828255906000526020600020908101928215612325579160200282015b82811115612324578251825591602001919060010190612309565b5b5090506123329190612336565b5090565b5b8082111561234f576000816000905550600101612337565b5090565b600081519050919050565b600082825260208201905092915050565b60005b8381101561238d578082015181840152602081019050612372565b60008484015250505050565b6000601f19601f8301169050919050565b60006123b582612353565b6123bf818561235e565b93506123cf81856020860161236f565b6123d881612399565b840191505092915050565b600060208201905081810360008301526123fd81846123aa565b905092915050565b600073ffffffffffffffffffffffffffffffffffffffff82169050919050565b600061243082612405565b9050919050565b61244081612425565b82525050565b600060208201905061245b6000830184612437565b92915050565b6000604051905090565b600080fd5b600080fd5b600080fd5b600080fd5b7f4e487b7100000000000000000000000000000000000000000000000000000000600052604160045260246000fd5b6124b782612399565b810181811067ffffffffffffffff821117156124d6576124d561247f565b5b80604052505050565b60006124e9612461565b90506124f582826124ae565b919050565b600067ffffffffffffffff8211156125155761251461247f565b5b61251e82612399565b9050602081019050919050565b82818337600083830152505050565b600061254d612548846124fa565b6124df565b9050828152602081018484840111156125695761256861247a565b5b61257484828561252b565b509392505050565b600082601f83011261259157612590612475565b5b81356125a184826020860161253a565b91505092915050565b6000602082840312156125c0576125bf61246b565b5b600082013567ffffffffffffffff8111156125de576125dd612470565b5b6125ea8482850161257c565b91505092915050565b6125fc81612425565b811461260757600080fd5b50565b600081359050612619816125f3565b92915050565b6000602082840312156126355761263461246b565b5b60006126438482850161260a565b91505092915050565b60008115159050919050565b6126618161264c565b82525050565b600060208201905061267c6000830184612658565b92915050565b6000819050919050565b61269581612682565b82525050565b60006020820190506126b0600083018461268c565b92915050565b6126bf81612682565b81146126ca57600080fd5b50565b6000813590506126dc816126b6565b92915050565b600080604083850312156126f9576126f861246b565b5b6000612707858286016126cd565b9250506020612718858286016126cd565b9150509250929050565b600080fd5b600080fd5b60008083601f84011261274257612741612475565b5b8235905067ffffffffffffffff81111561275f5761275e612722565b5b60208301915083602082028301111561277b5761277a612727565b5b9250929050565b60008060006040848603121561279b5761279a61246b565b5b60006127a9868287016126cd565b935050602084013567ffffffffffffffff8111156127ca576127c9612470565b5b6127d68682870161272c565b92509250509250925092565b600081519050919050565b600082825260208201905092915050565b6000819050602082019050919050565b600082825260208201905092915050565b600061282a82612353565b612834818561280e565b935061284481856020860161236f565b61284d81612399565b840191505092915050565b6000612864838361281f565b905092915050565b6000602082019050919050565b6000612884826127e2565b61288e81856127ed565b9350836020820285016128a0856127fe565b8060005b858110156128dc57848403895281516128bd8582612858565b94506128c88361286c565b925060208a019950506001810190506128a4565b50829750879550505050505092915050565b600060208201905081810360008301526129088184612879565b905092915050565b6000602082840312156129265761292561246b565b5b6000612934848285016126cd565b91505092915050565b6000819050919050565b6129508161293d565b82525050565b600060208201905061296b6000830184612947565b92915050565b600080604083850312156129885761298761246b565b5b600083013567ffffffffffffffff8111156129a6576129a5612470565b5b6129b28582860161257c565b925050602083013567ffffffffffffffff8111156129d3576129d2612470565b5b6129df8582860161257c565b9150509250929050565b6000819050919050565b6000612a0e612a09612a0484612405565b6129e9565b612405565b9050919050565b6000612a20826129f3565b9050919050565b6000612a3282612a15565b9050919050565b612a4281612a27565b82525050565b6000602082019050612a5d6000830184612a39565b92915050565b6000604082019050612a786000830185612658565b612a856020830184612658565b9392505050565b60008060408385031215612aa357612aa261246b565b5b6000612ab1858286016126cd565b925050602083013567ffffffffffffffff811115612ad257612ad1612470565b5b612ade8582860161257c565b9150509250929050565b600081519050919050565b600082825260208201905092915050565b6000819050602082019050919050565b612b1d81612682565b82525050565b6000612b2f8383612b14565b60208301905092915050565b6000602082019050919050565b6000612b5382612ae8565b612b5d8185612af3565b9350612b6883612b04565b8060005b83811015612b99578151612b808882612b23565b9750612b8b83612b3b565b925050600181019050612b6c565b5085935050505092915050565b6000604082019050612bbb6000830185612658565b8181036020830152612bcd8184612b48565b90509392505050565b7f4e487b7100000000000000000000000000000000000000000000000000000000600052602260045260246000fd5b60006002820490506001821680612c1d57607f821691505b602082108103612c3057612c2f612bd6565b5b50919050565b6000604082019050612c4b6000830185612437565b612c586020830184612437565b9392505050565b600081905092915050565b6000612c7582612353565b612c7f8185612c5f565b9350612c8f81856020860161236f565b80840191505092915050565b6000612ca78284612c6a565b915081905092915050565b7f4d7573742062652070726f706f736564206f776e657200000000000000000000600082015250565b6000612ce860168361235e565b9150612cf382612cb2565b602082019050919050565b60006020820190508181036000830152612d1781612cdb565b9050919050565b6000606082019050612d336000830186612437565b612d406020830185612437565b612d4d6040830184612437565b949350505050565b7f50726f6a65637420616c72656164792065786973747300000000000000000000600082015250565b6000612d8b60168361235e565b9150612d9682612d55565b602082019050919050565b60006020820190508181036000830152612dba81612d7e565b9050919050565b7f50726f6a656374206e616d652069732072657175697265640000000000000000600082015250565b6000612df760188361235e565b9150612e0282612dc1565b602082019050919050565b60006020820190508181036000830152612e2681612dea565b9050919050565b7f50726f6a65637420494420697320726571756972656400000000000000000000600082015250565b6000612e6360168361235e565b9150612e6e82612e2d565b602082019050919050565b60006020820190508181036000830152612e9281612e56565b9050919050565b60008190508160005260206000209050919050565b60006020601f8301049050919050565b600082821b905092915050565b600060088302612efb7fffffffffffffffffffffffffffffffffffffffffffffffffffffffffffffffff82612ebe565b612f058683612ebe565b95508019841693508086168417925050509392505050565b6000612f38612f33612f2e84612682565b6129e9565b612682565b9050919050565b6000819050919050565b612f5283612f1d565b612f66612f5e82612f3f565b848454612ecb565b825550505050565b600090565b612f7b612f6e565b612f86818484612f49565b505050565b5b81811015612faa57612f9f600082612f73565b600181019050612f8c565b5050565b601f821115612fef57612fc081612e99565b612fc984612eae565b81016020851015612fd8578190505b612fec612fe485612eae565b830182612f8b565b50505b505050565b600082821c905092915050565b600061301260001984600802612ff4565b1980831691505092915050565b600061302b8383613001565b9150826002028217905092915050565b61304482612353565b67ffffffffffffffff81111561305d5761305c61247f565b5b6130678254612c05565b613072828285612fae565b600060209050601f8311600181146130a55760008415613093578287015190505b61309d858261301f565b865550613105565b601f1984166130b386612e99565b60005b828110156130db578489015182556001820191506020850194506020810190506130b6565b868310156130f857848901516130f4601f891682613001565b8355505b6001600288020188555050505b505050505050565b6000604082019050818103600083015261312781856123aa565b9050818103602083015261313b81846123aa565b90509392505050565b7f72657175657374206e6f7420666f756e64000000000000000000000000000000600082015250565b600061317a60118361235e565b915061318582613144565b602082019050919050565b600060208201905081810360008301526131a98161316d565b9050919050565b7f4d696e696d756d20302e30303120657468657200000000000000000000000000600082015250565b60006131e660138361235e565b91506131f1826131b0565b602082019050919050565b60006020820190508181036000830152613215816131d9565b9050919050565b7f4d6178696d756d20302e30352065746865720000000000000000000000000000600082015250565b600061325260128361235e565b915061325d8261321c565b602082019050919050565b6000602082019050818103600083015261328181613245565b9050919050565b7f50726f6a65637420646f6573206e6f7420657869737400000000000000000000600082015250565b60006132be60168361235e565b91506132c982613288565b602082019050919050565b600060208201905081810360008301526132ed816132b1565b9050919050565b7f4e487b7100000000000000000000000000000000000000000000000000000000600052601160045260246000fd5b600061332e82612682565b91507fffffffffffffffffffffffffffffffffffffffffffffffffffffffffffffffff82036133605761335f6132f4565b5b600182019050919050565b60006080820190506133806000830187612437565b818103602083015261339281866123aa565b905081810360408301526133a681856123aa565b90506133b5606083018461268c565b95945050505050565b600080fd5b82818337505050565b60006133d88385612af3565b93507f07ffffffffffffffffffffffffffffffffffffffffffffffffffffffffffffff83111561340b5761340a6133be565b5b60208302925061341c8385846133c3565b82840190509392505050565b600060408201905061343d600083018661268c565b81810360208301526134508184866133cc565b9050949350505050565b7f4e487b7100000000000000000000000000000000000000000000000000000000600052603260045260246000fd5b7f4e487b7100000000000000000000000000000000000000000000000000000000600052601260045260246000fd5b60006134c382612682565b91506134ce83612682565b9250826134de576134dd613489565b5b828206905092915050565b60006134f482612a15565b9050919050565b613504816134e9565b82525050565b600060608201905061351f60008301866134fb565b61352c602083018561268c565b613539604083018461268c565b949350505050565b7f4f6e6c792063616c6c61626c65206279206f776e657200000000000000000000600082015250565b600061357760168361235e565b915061358282613541565b602082019050919050565b600060208201905081810360008301526135a68161356a565b9050919050565b7f446973706c6179206e616d6520697320616c72656164792074616b656e000000600082015250565b60006135e3601d8361235e565b91506135ee826135ad565b602082019050919050565b60006020820190508181036000830152613612816135d6565b9050919050565b7f566f7465722068617320616c726561647920766f746564000000000000000000600082015250565b600061364f60178361235e565b915061365a82613619565b602082019050919050565b6000602082019050818103600083015261367e81613642565b9050919050565b7f4e6f20766f7465727320746f2072657761726400000000000000000000000000600082015250565b60006136bb60138361235e565b91506136c682613685565b602082019050919050565b600060208201905081810360008301526136ea816136ae565b9050919050565b7f43616e6e6f74207472616e7366657220746f2073656c66000000000000000000600082015250565b600061372760178361235e565b9150613732826136f1565b602082019050919050565b600060208201905081810360008301526137568161371a565b9050919050565b6137668161293d565b82525050565b600061ffff82169050919050565b6137838161376c565b82525050565b600063ffffffff82169050919050565b6137a281613789565b82525050565b600081519050919050565b600082825260208201905092915050565b60006137cf826137a8565b6137d981856137b3565b93506137e981856020860161236f565b6137f281612399565b840191505092915050565b600060c083016000830151613815600086018261375d565b5060208301516138286020860182612b14565b50604083015161383b604086018261377a565b50606083015161384e6060860182613799565b5060808301516138616080860182613799565b5060a083015184820360a086015261387982826137c4565b9150508091505092915050565b600060208201905081810360008301526138a081846137fd565b905092915050565b6000815190506138b7816126b6565b92915050565b6000602082840312156138d3576138d261246b565b5b60006138e1848285016138a8565b91505092915050565b6138f381613789565b82525050565b600060408201905061390e600083018561268c565b61391b60208301846138ea565b9392505050565b61392b8161264c565b82525050565b6020820160008201516139476000850182613922565b50505050565b60006020820190506139626000830184613931565b9291505056fea2646970667358221220945aadf51816f234b23a489575ce966c7aaaed6c496ff272d5c38219597de66064736f6c63430008140033",
  "linkReferences": {},
  "deployedLinkReferences": {}
}