{
  "contractName": "ProjectVoting",
  "abi": [
    {
      "inputs": [],
      "stateMutability": "nonpayable",
      "type": "constructor"
    },
    {
      "anonymous": false,
      "inputs": [
        {
          "indexed": false,
          "internalType": "address",
          "name": "recipient",
          "type": "address"
        },
        {
          "indexed": false,
          "internalType": "uint256",
          "name": "amount",
          "type": "uint256"
        }
      ],
      "name": "AutoTransferExecuted",
      "type": "event"
    },
    {
      "anonymous": false,
      "inputs": [
        {
          "indexed": false,
          "internalType": "string",
          "name": "projectId",
          "type": "string"
        },
        {
          "indexed": false,
          "internalType": "string",
          "name": "projectName",
          "type": "string"
        }
      ],
      "name": "ProjectAdded",
      "type": "event"
    },
    {
      "anonymous": false,
      "inputs": [
        {
          "indexed": false,
          "internalType": "address",
          "name": "voter",
          "type": "address"
        },
        {
          "indexed": false,
          "internalType": "string",
          "name": "projectId",
          "type": "string"
        }
      ],
      "name": "Voted",
      "type": "event"
    },
    {
      "inputs": [
        {
          "internalType": "address",
          "name": "",
          "type": "address"
        }
      ],
      "name": "addressVotes",
      "outputs": [
        {
          "internalType": "string",
          "name": "",
          "type": "string"
        }
      ],
      "stateMutability": "view",
      "type": "function",
      "constant": true
    },
    {
      "inputs": [
        {
          "internalType": "address",
          "name": "",
          "type": "address"
        }
      ],
      "name": "hasVoted",
      "outputs": [
        {
          "internalType": "bool",
          "name": "",
          "type": "bool"
        }
      ],
      "stateMutability": "view",
      "type": "function",
      "constant": true
    },
    {
      "inputs": [
        {
          "internalType": "uint256",
          "name": "",
          "type": "uint256"
        }
      ],
      "name": "projectIds",
      "outputs": [
        {
          "internalType": "string",
          "name": "",
          "type": "string"
        }
      ],
      "stateMutability": "view",
      "type": "function",
      "constant": true
    },
    {
      "inputs": [
        {
          "internalType": "string",
          "name": "",
          "type": "string"
        }
      ],
      "name": "projectVotes",
      "outputs": [
        {
          "internalType": "uint256",
          "name": "",
          "type": "uint256"
        }
      ],
      "stateMutability": "view",
      "type": "function",
      "constant": true
    },
    {
      "inputs": [
        {
          "internalType": "string",
          "name": "",
          "type": "string"
        }
      ],
      "name": "projects",
      "outputs": [
        {
          "internalType": "string",
          "name": "",
          "type": "string"
        }
      ],
      "stateMutability": "view",
      "type": "function",
      "constant": true
    },
    {
      "inputs": [
        {
          "internalType": "string",
          "name": "projectName",
          "type": "string"
        },
        {
          "internalType": "string",
          "name": "projectId",
          "type": "string"
        }
      ],
      "name": "add",
      "outputs": [],
      "stateMutability": "nonpayable",
      "type": "function"
    },
    {
      "inputs": [
        {
          "internalType": "string",
          "name": "projectId",
          "type": "string"
        }
      ],
      "name": "vote",
      "outputs": [],
      "stateMutability": "payable",
      "type": "function",
      "payable": true
    },
    {
      "inputs": [
        {
          "internalType": "string",
          "name": "projectId",
          "type": "string"
        }
      ],
      "name": "getVoteCount",
      "outputs": [
        {
          "internalType": "uint256",
          "name": "",
          "type": "uint256"
        }
      ],
      "stateMutability": "view",
      "type": "function",
      "constant": true
    },
    {
      "inputs": [],
      "name": "getAll",
      "outputs": [
        {
          "internalType": "string[]",
          "name": "",
          "type": "string[]"
        }
      ],
      "stateMutability": "view",
      "type": "function",
      "constant": true
    },
    {
      "inputs": [],
      "name": "checkHasVoted",
      "outputs": [
        {
          "internalType": "bool",
          "name": "",
          "type": "bool"
        }
      ],
      "stateMutability": "view",
      "type": "function",
      "constant": true
    },
    {
      "inputs": [],
      "name": "getVote",
      "outputs": [
        {
          "internalType": "string",
          "name": "",
          "type": "string"
        }
      ],
      "stateMutability": "view",
      "type": "function",
      "constant": true
    },
    {
      "inputs": [],
      "name": "getBalance",
      "outputs": [
        {
          "internalType": "uint256",
          "name": "",
          "type": "uint256"
        }
      ],
      "stateMutability": "view",
      "type": "function",
      "constant": true
    },
    {
      "inputs": [],
      "name": "getThreshold",
      "outputs": [
        {
          "internalType": "uint256",
          "name": "",
          "type": "uint256"
        }
      ],
      "stateMutability": "view",
      "type": "function",
      "constant": true
    },
    {
      "inputs": [
        {
          "internalType": "address",
          "name": "newOwner",
          "type": "address"
        }
      ],
      "name": "transferOwnership",
      "outputs": [],
      "stateMutability": "nonpayable",
      "type": "function"
    },
    {
      "inputs": [],
      "name": "withdraw",
      "outputs": [],
      "stateMutability": "nonpayable",
      "type": "function"
    }
  ],
  "bytecode": "0x608060405267016345785d8a000060075534801561001b575f80fd5b503360055f6101000a81548173ffffffffffffffffffffffffffffffffffffffff021916908373ffffffffffffffffffffffffffffffffffffffff160217905550611ba8806100695f395ff3fe6080604052600436106100e7575f3560e01c806353ed514311610089578063e75235b811610058578063e75235b814610311578063ebdf86ca1461033b578063f2fde38b14610363578063fc36e15b1461038b576100e7565b806353ed51431461023357806391c9b2681461025d578063a34bb6e614610299578063c4c91110146102d5576100e7565b806312065fe0116100c557806312065fe01461018d5780631234ce9d146101b75780633ccfd60b146101e157806348c35ad4146101f7576100e7565b80630242f351146100eb578063069953a71461011557806309eef43e14610151575b5f80fd5b3480156100f6575f80fd5b506100ff6103a7565b60405161010c9190610f92565b60405180910390f35b348015610120575f80fd5b5061013b600480360381019061013691906110ef565b610472565b604051610148919061114e565b60405180910390f35b34801561015c575f80fd5b50610177600480360381019061017291906111c1565b610498565b6040516101849190611206565b60405180910390f35b348015610198575f80fd5b506101a16104b5565b6040516101ae919061114e565b60405180910390f35b3480156101c2575f80fd5b506101cb6104bc565b6040516101d89190611206565b60405180910390f35b3480156101ec575f80fd5b506101f561050c565b005b348015610202575f80fd5b5061021d60048036038101906102189190611249565b610602565b60405161022a9190610f92565b60405180910390f35b34801561023e575f80fd5b506102476106a8565b6040516102549190611377565b60405180910390f35b348015610268575f80fd5b50610283600480360381019061027e91906110ef565b61077c565b6040516102909190610f92565b60405180910390f35b3480156102a4575f80fd5b506102bf60048036038101906102ba91906111c1565b61082f565b6040516102cc9190610f92565b60405180910390f35b3480156102e0575f80fd5b506102fb60048036038101906102f691906110ef565b6108ca565b604051610308919061114e565b60405180910390f35b34801561031c575f80fd5b506103256108f6565b604051610332919061114e565b60405180910390f35b348015610346575f80fd5b50610361600480360381019061035c9190611397565b6108ff565b005b34801561036e575f80fd5b50610389600480360381019061038491906111c1565b610b1b565b005b6103a560048036038101906103a091906110ef565b610c5b565b005b606060035f3373ffffffffffffffffffffffffffffffffffffffff1673ffffffffffffffffffffffffffffffffffffffff1681526020019081526020015f2080546103f19061143a565b80601f016020809104026020016040519081016040528092919081815260200182805461041d9061143a565b80156104685780601f1061043f57610100808354040283529160200191610468565b820191905f5260205f20905b81548152906001019060200180831161044b57829003601f168201915b5050505050905090565b5f808260405161048291906114a4565b9081526020016040518091039020549050919050565b6001602052805f5260405f205f915054906101000a900460ff1681565b5f47905090565b5f60015f3373ffffffffffffffffffffffffffffffffffffffff1673ffffffffffffffffffffffffffffffffffffffff1681526020019081526020015f205f9054906101000a900460ff16905090565b60055f9054906101000a900473ffffffffffffffffffffffffffffffffffffffff1673ffffffffffffffffffffffffffffffffffffffff163373ffffffffffffffffffffffffffffffffffffffff161461059b576040517f08c379a000000000000000000000000000000000000000000000000000000000815260040161059290611504565b60405180910390fd5b60055f9054906101000a900473ffffffffffffffffffffffffffffffffffffffff1673ffffffffffffffffffffffffffffffffffffffff166108fc4790811502906040515f60405180830381858888f193505050501580156105ff573d5f803e3d5ffd5b50565b60048181548110610611575f80fd5b905f5260205f20015f9150905080546106299061143a565b80601f01602080910402602001604051908101604052809291908181526020018280546106559061143a565b80156106a05780601f10610677576101008083540402835291602001916106a0565b820191905f5260205f20905b81548152906001019060200180831161068357829003601f168201915b505050505081565b60606004805480602002602001604051908101604052809291908181526020015f905b82821015610773578382905f5260205f200180546106e89061143a565b80601f01602080910402602001604051908101604052809291908181526020018280546107149061143a565b801561075f5780601f106107365761010080835404028352916020019161075f565b820191905f5260205f20905b81548152906001019060200180831161074257829003601f168201915b5050505050815260200190600101906106cb565b50505050905090565b6002818051602081018201805184825260208301602085012081835280955050505050505f9150905080546107b09061143a565b80601f01602080910402602001604051908101604052809291908181526020018280546107dc9061143a565b80156108275780601f106107fe57610100808354040283529160200191610827565b820191905f5260205f20905b81548152906001019060200180831161080a57829003601f168201915b505050505081565b6003602052805f5260405f205f91509050805461084b9061143a565b80601f01602080910402602001604051908101604052809291908181526020018280546108779061143a565b80156108c25780601f10610899576101008083540402835291602001916108c2565b820191905f5260205f20905b8154815290600101906020018083116108a557829003601f168201915b505050505081565b5f818051602081018201805184825260208301602085012081835280955050505050505f915090505481565b5f600754905090565b60055f9054906101000a900473ffffffffffffffffffffffffffffffffffffffff1673ffffffffffffffffffffffffffffffffffffffff163373ffffffffffffffffffffffffffffffffffffffff161461098e576040517f08c379a000000000000000000000000000000000000000000000000000000000815260040161098590611504565b60405180910390fd5b5f60028260405161099f91906114a4565b908152602001604051809103902080546109b89061143a565b9050146109fa576040517f08c379a00000000000000000000000000000000000000000000000000000000081526004016109f19061156c565b60405180910390fd5b5f825111610a3d576040517f08c379a0000000000000000000000000000000000000000000000000000000008152600401610a34906115d4565b60405180910390fd5b5f815111610a80576040517f08c379a0000000000000000000000000000000000000000000000000000000008152600401610a779061163c565b60405180910390fd5b81600282604051610a9191906114a4565b90815260200160405180910390209081610aab91906117f7565b50600481908060018154018082558091505060019003905f5260205f20015f909190919091509081610add91906117f7565b507feb5d6000a362475be9d9b16beddc148b7004850daf2e69325a403d613567769e8183604051610b0f9291906118c6565b60405180910390a15050565b60055f9054906101000a900473ffffffffffffffffffffffffffffffffffffffff1673ffffffffffffffffffffffffffffffffffffffff163373ffffffffffffffffffffffffffffffffffffffff1614610baa576040517f08c379a0000000000000000000000000000000000000000000000000000000008152600401610ba190611504565b60405180910390fd5b5f73ffffffffffffffffffffffffffffffffffffffff168173ffffffffffffffffffffffffffffffffffffffff1603610c18576040517f08c379a0000000000000000000000000000000000000000000000000000000008152600401610c0f9061196b565b60405180910390fd5b8060055f6101000a81548173ffffffffffffffffffffffffffffffffffffffff021916908373ffffffffffffffffffffffffffffffffffffffff16021790555050565b66038d7ea4c68000341015610ca5576040517f08c379a0000000000000000000000000000000000000000000000000000000008152600401610c9c906119d3565b60405180910390fd5b60015f3373ffffffffffffffffffffffffffffffffffffffff1673ffffffffffffffffffffffffffffffffffffffff1681526020019081526020015f205f9054906101000a900460ff1615610d2f576040517f08c379a0000000000000000000000000000000000000000000000000000000008152600401610d2690611a3b565b60405180910390fd5b5f600282604051610d4091906114a4565b90815260200160405180910390208054610d599061143a565b905011610d9b576040517f08c379a0000000000000000000000000000000000000000000000000000000008152600401610d9290611aa3565b60405180910390fd5b8060035f3373ffffffffffffffffffffffffffffffffffffffff1673ffffffffffffffffffffffffffffffffffffffff1681526020019081526020015f209081610de591906117f7565b505f81604051610df591906114a4565b90815260200160405180910390205f815480929190610e1390611aee565b91905055506001805f3373ffffffffffffffffffffffffffffffffffffffff1673ffffffffffffffffffffffffffffffffffffffff1681526020019081526020015f205f6101000a81548160ff021916908315150217905550600633908060018154018082558091505060019003905f5260205f20015f9091909190916101000a81548173ffffffffffffffffffffffffffffffffffffffff021916908373ffffffffffffffffffffffffffffffffffffffff1602179055507fcb6783276e8a4347387036bbfea000268f0a4b1f8c46ac79980609f2af8d2acd3382604051610efd929190611b44565b60405180910390a150565b5f81519050919050565b5f82825260208201905092915050565b5f5b83811015610f3f578082015181840152602081019050610f24565b5f8484015250505050565b5f601f19601f8301169050919050565b5f610f6482610f08565b610f6e8185610f12565b9350610f7e818560208601610f22565b610f8781610f4a565b840191505092915050565b5f6020820190508181035f830152610faa8184610f5a565b905092915050565b5f604051905090565b5f80fd5b5f80fd5b5f80fd5b5f80fd5b7f4e487b71000000000000000000000000000000000000000000000000000000005f52604160045260245ffd5b61100182610f4a565b810181811067ffffffffffffffff821117156110205761101f610fcb565b5b80604052505050565b5f611032610fb2565b905061103e8282610ff8565b919050565b5f67ffffffffffffffff82111561105d5761105c610fcb565b5b61106682610f4a565b9050602081019050919050565b828183375f83830152505050565b5f61109361108e84611043565b611029565b9050828152602081018484840111156110af576110ae610fc7565b5b6110ba848285611073565b509392505050565b5f82601f8301126110d6576110d5610fc3565b5b81356110e6848260208601611081565b91505092915050565b5f6020828403121561110457611103610fbb565b5b5f82013567ffffffffffffffff81111561112157611120610fbf565b5b61112d848285016110c2565b91505092915050565b5f819050919050565b61114881611136565b82525050565b5f6020820190506111615f83018461113f565b92915050565b5f73ffffffffffffffffffffffffffffffffffffffff82169050919050565b5f61119082611167565b9050919050565b6111a081611186565b81146111aa575f80fd5b50565b5f813590506111bb81611197565b92915050565b5f602082840312156111d6576111d5610fbb565b5b5f6111e3848285016111ad565b91505092915050565b5f8115159050919050565b611200816111ec565b82525050565b5f6020820190506112195f8301846111f7565b92915050565b61122881611136565b8114611232575f80fd5b50565b5f813590506112438161121f565b92915050565b5f6020828403121561125e5761125d610fbb565b5b5f61126b84828501611235565b91505092915050565b5f81519050919050565b5f82825260208201905092915050565b5f819050602082019050919050565b5f82825260208201905092915050565b5f6112b782610f08565b6112c1818561129d565b93506112d1818560208601610f22565b6112da81610f4a565b840191505092915050565b5f6112f083836112ad565b905092915050565b5f602082019050919050565b5f61130e82611274565b611318818561127e565b93508360208202850161132a8561128e565b805f5b85811015611365578484038952815161134685826112e5565b9450611351836112f8565b925060208a0199505060018101905061132d565b50829750879550505050505092915050565b5f6020820190508181035f83015261138f8184611304565b905092915050565b5f80604083850312156113ad576113ac610fbb565b5b5f83013567ffffffffffffffff8111156113ca576113c9610fbf565b5b6113d6858286016110c2565b925050602083013567ffffffffffffffff8111156113f7576113f6610fbf565b5b611403858286016110c2565b9150509250929050565b7f4e487b71000000000000000000000000000000000000000000000000000000005f52602260045260245ffd5b5f600282049050600182168061145157607f821691505b6020821081036114645761146361140d565b5b50919050565b5f81905092915050565b5f61147e82610f08565b611488818561146a565b9350611498818560208601610f22565b80840191505092915050565b5f6114af8284611474565b915081905092915050565b7f4f6e6c79206f776e65722063616e2065786563757465000000000000000000005f82015250565b5f6114ee601683610f12565b91506114f9826114ba565b602082019050919050565b5f6020820190508181035f83015261151b816114e2565b9050919050565b7f50726f6a65637420616c726561647920657869737473000000000000000000005f82015250565b5f611556601683610f12565b915061156182611522565b602082019050919050565b5f6020820190508181035f8301526115838161154a565b9050919050565b7f50726f6a656374206e616d6520697320726571756972656400000000000000005f82015250565b5f6115be601883610f12565b91506115c98261158a565b602082019050919050565b5f6020820190508181035f8301526115eb816115b2565b9050919050565b7f50726f6a656374204944206973207265717569726564000000000000000000005f82015250565b5f611626601683610f12565b9150611631826115f2565b602082019050919050565b5f6020820190508181035f8301526116538161161a565b9050919050565b5f819050815f5260205f209050919050565b5f6020601f8301049050919050565b5f82821b905092915050565b5f600883026116b67fffffffffffffffffffffffffffffffffffffffffffffffffffffffffffffffff8261167b565b6116c0868361167b565b95508019841693508086168417925050509392505050565b5f819050919050565b5f6116fb6116f66116f184611136565b6116d8565b611136565b9050919050565b5f819050919050565b611714836116e1565b61172861172082611702565b848454611687565b825550505050565b5f90565b61173c611730565b61174781848461170b565b505050565b5b8181101561176a5761175f5f82611734565b60018101905061174d565b5050565b601f8211156117af576117808161165a565b6117898461166c565b81016020851015611798578190505b6117ac6117a48561166c565b83018261174c565b50505b505050565b5f82821c905092915050565b5f6117cf5f19846008026117b4565b1980831691505092915050565b5f6117e783836117c0565b9150826002028217905092915050565b61180082610f08565b67ffffffffffffffff81111561181957611818610fcb565b5b611823825461143a565b61182e82828561176e565b5f60209050601f83116001811461185f575f841561184d578287015190505b61185785826117dc565b8655506118be565b601f19841661186d8661165a565b5f5b828110156118945784890151825560018201915060208501945060208101905061186f565b868310156118b157848901516118ad601f8916826117c0565b8355505b6001600288020188555050505b505050505050565b5f6040820190508181035f8301526118de8185610f5a565b905081810360208301526118f28184610f5a565b90509392505050565b7f4e6577206f776e65722063616e6e6f7420626520746865207a65726f206164645f8201527f7265737300000000000000000000000000000000000000000000000000000000602082015250565b5f611955602483610f12565b9150611960826118fb565b604082019050919050565b5f6020820190508181035f83015261198281611949565b9050919050565b7f4d696e696d756d20302e303031206574686572000000000000000000000000005f82015250565b5f6119bd601383610f12565b91506119c882611989565b602082019050919050565b5f6020820190508181035f8301526119ea816119b1565b9050919050565b7f416c726561647920766f746564000000000000000000000000000000000000005f82015250565b5f611a25600d83610f12565b9150611a30826119f1565b602082019050919050565b5f6020820190508181035f830152611a5281611a19565b9050919050565b7f50726f6a65637420646f6573206e6f74206578697374000000000000000000005f82015250565b5f611a8d601683610f12565b9150611a9882611a59565b602082019050919050565b5f6020820190508181035f830152611aba81611a81565b9050919050565b7f4e487b71000000000000000000000000000000000000000000000000000000005f52601160045260245ffd5b5f611af882611136565b91507fffffffffffffffffffffffffffffffffffffffffffffffffffffffffffffffff8203611b2a57611b29611ac1565b5b600182019050919050565b611b3e81611186565b82525050565b5f604082019050611b575f830185611b35565b8181036020830152611b698184610f5a565b9050939250505056fea26469706673582212204bc9f55d894e9fcfb8a80a6413c623e7b2b2bfbd6957594ae7c2fe302d2f01c064736f6c63430008150033",
  "immutableReferences": {},
  "source": "// SPDX-License-Identifier: MIT \npragma solidity ^0.8.0;\n\nimport \"@openzeppelin/contracts/utils/Address.sol\";\n\ncontract ProjectVoting {\n    mapping(string => uint) public projectVotes;\n    mapping(address => bool) public hasVoted;\n    mapping(string => string) public projects;\n    mapping(address => string) public addressVotes;\n    string[] public projectIds;\n    address private owner;\n    address[] private voters;\n    uint private threshold = 0.1 ether;\n\n    event ProjectAdded(string projectId, string projectName);\n    event Voted(address voter, string projectId); \n    event AutoTransferExecuted(address recipient, uint256 amount);\n\n    modifier onlyOwner() {\n        require(msg.sender == owner, \"Only owner can execute\");\n        _;\n    }\n  \n    constructor() {\n        owner = msg.sender;\n    }\n\n    function add(string memory projectName, string memory projectId) public onlyOwner {\n        require(bytes(projects[projectId]).length == 0, \"Project already exists\");\n        require(bytes(projectName).length > 0, \"Project name is required\"); // Input validation for projectName\n        require(bytes(projectId).length > 0, \"Project ID is required\"); // Input validation for projectId\n        projects[projectId] = projectName;\n        projectIds.push(projectId);\n        emit ProjectAdded(projectId, projectName); \n    }\n\n    function vote(string memory projectId) payable public {\n        require(msg.value >= 0.001 ether, \"Minimum 0.001 ether\");\n        // require(msg.value <= 0.05 ether, \"Maximum 0.05 ether\");\n        require(!hasVoted[msg.sender], \"Already voted\");\n        require(bytes(projects[projectId]).length > 0, \"Project does not exist\"); \n\n        addressVotes[msg.sender] = projectId;\n        projectVotes[projectId]++;\n        hasVoted[msg.sender] = true;\n        voters.push(msg.sender);\n        // checkAndTransfer(); // TODO: This is breaking \n        emit Voted(msg.sender, projectId);\n    }\n\n    function getVoteCount(string memory projectId) public view returns (uint) {\n        return projectVotes[projectId];\n    }\n\n    function getAll() public view returns (string[] memory) {\n        return projectIds;\n    }\n\n    function checkHasVoted() public view returns (bool) {\n        return hasVoted[msg.sender];\n    }\n\n    function getVote() public view returns (string memory) {\n        return  addressVotes[msg.sender]; \n    }\n\n    function checkAndTransfer() internal {\n        if (address(this).balance >= threshold) {\n            require(voters.length > 0, \"No voters to reward\");\n            uint randomIndex = uint(keccak256(abi.encodePacked(block.timestamp, block.prevrandao))) % voters.length;\n            address payable luckyVoter = payable(voters[randomIndex]);\n            uint256 amountToSend = address(this).balance;\n            voters = new address[](0); \n            Address.sendValue(luckyVoter, amountToSend);\n\n            emit AutoTransferExecuted(luckyVoter, amountToSend);\n        }\n    }\n\n    function getBalance() public view returns (uint256) {\n        return address(this).balance;\n    }\n\n    function getThreshold() public view returns (uint256) {\n        return threshold;\n    }\n\n    function transferOwnership(address newOwner) public onlyOwner {\n        require(newOwner != address(0), \"New owner cannot be the zero address\");\n        owner = newOwner;\n    }\n\n    function withdraw() public onlyOwner {\n        payable(owner).transfer(address(this).balance);\n    }\n}",
  "sourcePath": "/home/ddavis/Documents/web_dev/Projects/PersonalSite/backend/contracts/project-voting.sol",
  "compiler": {
    "name": "solc",
    "version": "0.8.21+commit.d9974bed.Emscripten.clang"
  },
  "schemaVersion": "3.4.16",
  "updatedAt": "2024-01-12T17:14:49.004Z",
  "networkType": "ethereum",
  "devdoc": {
    "kind": "dev",
    "methods": {},
    "version": 1
  },
  "userdoc": {
    "kind": "user",
    "methods": {},
    "version": 1
  }
}