{
  "contractName": "ProjectVoting",
  "abi": [
    {
      "inputs": [],
      "stateMutability": "nonpayable",
      "type": "constructor"
    },
    {
      "inputs": [
        {
          "internalType": "address",
          "name": "",
          "type": "address"
        }
      ],
      "name": "hasVoted",
      "outputs": [
        {
          "internalType": "bool",
          "name": "",
          "type": "bool"
        }
      ],
      "stateMutability": "view",
      "type": "function",
      "constant": true
    },
    {
      "inputs": [],
      "name": "owner",
      "outputs": [
        {
          "internalType": "address",
          "name": "",
          "type": "address"
        }
      ],
      "stateMutability": "view",
      "type": "function",
      "constant": true
    },
    {
      "inputs": [
        {
          "internalType": "uint256",
          "name": "",
          "type": "uint256"
        }
      ],
      "name": "projectIds",
      "outputs": [
        {
          "internalType": "uint256",
          "name": "",
          "type": "uint256"
        }
      ],
      "stateMutability": "view",
      "type": "function",
      "constant": true
    },
    {
      "inputs": [
        {
          "internalType": "uint256",
          "name": "",
          "type": "uint256"
        }
      ],
      "name": "projectVotes",
      "outputs": [
        {
          "internalType": "uint256",
          "name": "",
          "type": "uint256"
        }
      ],
      "stateMutability": "view",
      "type": "function",
      "constant": true
    },
    {
      "inputs": [
        {
          "internalType": "uint256",
          "name": "",
          "type": "uint256"
        }
      ],
      "name": "projects",
      "outputs": [
        {
          "internalType": "string",
          "name": "",
          "type": "string"
        }
      ],
      "stateMutability": "view",
      "type": "function",
      "constant": true
    },
    {
      "inputs": [
        {
          "internalType": "string",
          "name": "projectName",
          "type": "string"
        }
      ],
      "name": "addProject",
      "outputs": [],
      "stateMutability": "nonpayable",
      "type": "function"
    },
    {
      "inputs": [
        {
          "internalType": "uint256",
          "name": "projectId",
          "type": "uint256"
        }
      ],
      "name": "voteForProject",
      "outputs": [],
      "stateMutability": "nonpayable",
      "type": "function"
    },
    {
      "inputs": [
        {
          "internalType": "uint256",
          "name": "projectId",
          "type": "uint256"
        }
      ],
      "name": "getVoteCount",
      "outputs": [
        {
          "internalType": "uint256",
          "name": "",
          "type": "uint256"
        }
      ],
      "stateMutability": "view",
      "type": "function",
      "constant": true
    },
    {
      "inputs": [],
      "name": "getAllProjects",
      "outputs": [
        {
          "internalType": "uint256[]",
          "name": "",
          "type": "uint256[]"
        }
      ],
      "stateMutability": "view",
      "type": "function",
      "constant": true
    },
    {
      "inputs": [],
      "name": "getBalanceOf",
      "outputs": [
        {
          "internalType": "uint256",
          "name": "",
          "type": "uint256"
        }
      ],
      "stateMutability": "view",
      "type": "function",
      "constant": true
    },
    {
      "inputs": [],
      "name": "hasVotedForProject",
      "outputs": [
        {
          "internalType": "bool",
          "name": "",
          "type": "bool"
        }
      ],
      "stateMutability": "view",
      "type": "function",
      "constant": true
    }
  ],
  "bytecode": "0x608060405234801561000f575f80fd5b503360045f6101000a81548173ffffffffffffffffffffffffffffffffffffffff021916908373ffffffffffffffffffffffffffffffffffffffff160217905550610f7e8061005d5f395ff3fe608060405234801561000f575f80fd5b50600436106100a7575f3560e01c80634b80b52c1161006f5780634b80b52c1461018757806380d03829146101a557806383a67d38146101c35780638da5cb5b146101df578063b2c2f2e8146101fd578063ecbde5e61461022d576100a7565b806309eef43e146100ab5780630befd543146100db5780630ed047d41461010b578063107046bd1461012757806348c35ad414610157575b5f80fd5b6100c560048036038101906100c091906106d3565b61024b565b6040516100d29190610718565b60405180910390f35b6100f560048036038101906100f09190610764565b610268565b604051610102919061079e565b60405180910390f35b610125600480360381019061012091906108f3565b61027c565b005b610141600480360381019061013c9190610764565b61035d565b60405161014e91906109b4565b60405180910390f35b610171600480360381019061016c9190610764565b6103f8565b60405161017e919061079e565b60405180910390f35b61018f610418565b60405161019c9190610718565b60405180910390f35b6101ad610468565b6040516101ba9190610a8b565b60405180910390f35b6101dd60048036038101906101d89190610764565b6104be565b005b6101e7610623565b6040516101f49190610aba565b60405180910390f35b61021760048036038101906102129190610764565b610648565b604051610224919061079e565b60405180910390f35b610235610661565b604051610242919061079e565b60405180910390f35b6001602052805f5260405f205f915054906101000a900460ff1681565b5f602052805f5260405f205f915090505481565b60045f9054906101000a900473ffffffffffffffffffffffffffffffffffffffff1673ffffffffffffffffffffffffffffffffffffffff163373ffffffffffffffffffffffffffffffffffffffff161461030b576040517f08c379a000000000000000000000000000000000000000000000000000000000815260040161030290610b1d565b60405180910390fd5b5f60038054905090508160025f8381526020019081526020015f2090816103329190610d35565b50600381908060018154018082558091505060019003905f5260205f20015f90919091909150555050565b6002602052805f5260405f205f91509050805461037990610b68565b80601f01602080910402602001604051908101604052809291908181526020018280546103a590610b68565b80156103f05780601f106103c7576101008083540402835291602001916103f0565b820191905f5260205f20905b8154815290600101906020018083116103d357829003601f168201915b505050505081565b60038181548110610407575f80fd5b905f5260205f20015f915090505481565b5f60015f3373ffffffffffffffffffffffffffffffffffffffff1673ffffffffffffffffffffffffffffffffffffffff1681526020019081526020015f205f9054906101000a900460ff16905090565b606060038054806020026020016040519081016040528092919081815260200182805480156104b457602002820191905f5260205f20905b8154815260200190600101908083116104a0575b5050505050905090565b60015f3373ffffffffffffffffffffffffffffffffffffffff1673ffffffffffffffffffffffffffffffffffffffff1681526020019081526020015f205f9054906101000a900460ff1615610548576040517f08c379a000000000000000000000000000000000000000000000000000000000815260040161053f90610e4e565b60405180910390fd5b5f60025f8381526020019081526020015f20805461056590610b68565b9050116105a7576040517f08c379a000000000000000000000000000000000000000000000000000000000815260040161059e90610eb6565b60405180910390fd5b5f808281526020019081526020015f205f8154809291906105c790610f01565b91905055506001805f3373ffffffffffffffffffffffffffffffffffffffff1673ffffffffffffffffffffffffffffffffffffffff1681526020019081526020015f205f6101000a81548160ff02191690831515021790555050565b60045f9054906101000a900473ffffffffffffffffffffffffffffffffffffffff1681565b5f805f8381526020019081526020015f20549050919050565b5f47905090565b5f604051905090565b5f80fd5b5f80fd5b5f73ffffffffffffffffffffffffffffffffffffffff82169050919050565b5f6106a282610679565b9050919050565b6106b281610698565b81146106bc575f80fd5b50565b5f813590506106cd816106a9565b92915050565b5f602082840312156106e8576106e7610671565b5b5f6106f5848285016106bf565b91505092915050565b5f8115159050919050565b610712816106fe565b82525050565b5f60208201905061072b5f830184610709565b92915050565b5f819050919050565b61074381610731565b811461074d575f80fd5b50565b5f8135905061075e8161073a565b92915050565b5f6020828403121561077957610778610671565b5b5f61078684828501610750565b91505092915050565b61079881610731565b82525050565b5f6020820190506107b15f83018461078f565b92915050565b5f80fd5b5f80fd5b5f601f19601f8301169050919050565b7f4e487b71000000000000000000000000000000000000000000000000000000005f52604160045260245ffd5b610805826107bf565b810181811067ffffffffffffffff82111715610824576108236107cf565b5b80604052505050565b5f610836610668565b905061084282826107fc565b919050565b5f67ffffffffffffffff821115610861576108606107cf565b5b61086a826107bf565b9050602081019050919050565b828183375f83830152505050565b5f61089761089284610847565b61082d565b9050828152602081018484840111156108b3576108b26107bb565b5b6108be848285610877565b509392505050565b5f82601f8301126108da576108d96107b7565b5b81356108ea848260208601610885565b91505092915050565b5f6020828403121561090857610907610671565b5b5f82013567ffffffffffffffff81111561092557610924610675565b5b610931848285016108c6565b91505092915050565b5f81519050919050565b5f82825260208201905092915050565b5f5b83811015610971578082015181840152602081019050610956565b5f8484015250505050565b5f6109868261093a565b6109908185610944565b93506109a0818560208601610954565b6109a9816107bf565b840191505092915050565b5f6020820190508181035f8301526109cc818461097c565b905092915050565b5f81519050919050565b5f82825260208201905092915050565b5f819050602082019050919050565b610a0681610731565b82525050565b5f610a1783836109fd565b60208301905092915050565b5f602082019050919050565b5f610a39826109d4565b610a4381856109de565b9350610a4e836109ee565b805f5b83811015610a7e578151610a658882610a0c565b9750610a7083610a23565b925050600181019050610a51565b5085935050505092915050565b5f6020820190508181035f830152610aa38184610a2f565b905092915050565b610ab481610698565b82525050565b5f602082019050610acd5f830184610aab565b92915050565b7f4f6e6c79206f776e65722063616e206164642070726f6a6563747300000000005f82015250565b5f610b07601b83610944565b9150610b1282610ad3565b602082019050919050565b5f6020820190508181035f830152610b3481610afb565b9050919050565b7f4e487b71000000000000000000000000000000000000000000000000000000005f52602260045260245ffd5b5f6002820490506001821680610b7f57607f821691505b602082108103610b9257610b91610b3b565b5b50919050565b5f819050815f5260205f209050919050565b5f6020601f8301049050919050565b5f82821b905092915050565b5f60088302610bf47fffffffffffffffffffffffffffffffffffffffffffffffffffffffffffffffff82610bb9565b610bfe8683610bb9565b95508019841693508086168417925050509392505050565b5f819050919050565b5f610c39610c34610c2f84610731565b610c16565b610731565b9050919050565b5f819050919050565b610c5283610c1f565b610c66610c5e82610c40565b848454610bc5565b825550505050565b5f90565b610c7a610c6e565b610c85818484610c49565b505050565b5b81811015610ca857610c9d5f82610c72565b600181019050610c8b565b5050565b601f821115610ced57610cbe81610b98565b610cc784610baa565b81016020851015610cd6578190505b610cea610ce285610baa565b830182610c8a565b50505b505050565b5f82821c905092915050565b5f610d0d5f1984600802610cf2565b1980831691505092915050565b5f610d258383610cfe565b9150826002028217905092915050565b610d3e8261093a565b67ffffffffffffffff811115610d5757610d566107cf565b5b610d618254610b68565b610d6c828285610cac565b5f60209050601f831160018114610d9d575f8415610d8b578287015190505b610d958582610d1a565b865550610dfc565b601f198416610dab86610b98565b5f5b82811015610dd257848901518255600182019150602085019450602081019050610dad565b86831015610def5784890151610deb601f891682610cfe565b8355505b6001600288020188555050505b505050505050565b7f416c726561647920766f746564000000000000000000000000000000000000005f82015250565b5f610e38600d83610944565b9150610e4382610e04565b602082019050919050565b5f6020820190508181035f830152610e6581610e2c565b9050919050565b7f50726f6a65637420646f6573206e6f74206578697374000000000000000000005f82015250565b5f610ea0601683610944565b9150610eab82610e6c565b602082019050919050565b5f6020820190508181035f830152610ecd81610e94565b9050919050565b7f4e487b71000000000000000000000000000000000000000000000000000000005f52601160045260245ffd5b5f610f0b82610731565b91507fffffffffffffffffffffffffffffffffffffffffffffffffffffffffffffffff8203610f3d57610f3c610ed4565b5b60018201905091905056fea2646970667358221220079a9bac58eb67679d1e22993293b86c9adb56a5169560d7e3ba84c700bc7a4464736f6c63430008150033",
  "immutableReferences": {},
  "source": "// SPDX-License-Identifier: MIT \npragma solidity ^0.8.0;\n\ncontract ProjectVoting {\n    mapping(uint => uint) public projectVotes;\n    mapping(address => bool) public hasVoted;\n    mapping(uint => string) public projects;\n    uint[] public projectIds;\n    address public owner;\n\n    constructor() {\n        owner = msg.sender;\n    }\n\n    function addProject(string memory projectName) public {\n        require(msg.sender == owner, \"Only owner can add projects\");        \n        uint projectId = projectIds.length;\n        projects[projectId] = projectName;\n        projectIds.push(projectId);\n    }\n\n    function voteForProject(uint projectId) public {\n        require(!hasVoted[msg.sender], \"Already voted\");\n        require(bytes(projects[projectId]).length > 0, \"Project does not exist\");\n\n        projectVotes[projectId]++;\n        hasVoted[msg.sender] = true;\n    }\n\n    function getVoteCount(uint projectId) public view returns (uint) {\n        return projectVotes[projectId];\n    }\n\n    function getAllProjects() public view returns (uint[] memory) {\n        return projectIds;\n    }\n\n    function getBalanceOf() public view returns (uint) {\n        return address(this).balance;\n    }\n\n    function hasVotedForProject() public view returns (bool) {\n        return hasVoted[msg.sender];\n    }\n}",
  "sourcePath": "/home/ddavis/Documents/web_dev/Projects/PersonalSite/backend/contracts/project-voting.sol",
  "compiler": {
    "name": "solc",
    "version": "0.8.21+commit.d9974bed.Emscripten.clang"
  },
  "schemaVersion": "3.4.16",
  "updatedAt": "2023-12-27T18:51:52.675Z",
  "networkType": "ethereum",
  "devdoc": {
    "kind": "dev",
    "methods": {},
    "version": 1
  },
  "userdoc": {
    "kind": "user",
    "methods": {},
    "version": 1
  }
}