{
  "contractName": "ProjectVoting",
  "abi": [
    {
      "inputs": [],
      "stateMutability": "nonpayable",
      "type": "constructor"
    },
    {
      "inputs": [
        {
          "internalType": "address",
          "name": "account",
          "type": "address"
        }
      ],
      "name": "AddressInsufficientBalance",
      "type": "error"
    },
    {
      "inputs": [],
      "name": "FailedInnerCall",
      "type": "error"
    },
    {
      "anonymous": false,
      "inputs": [
        {
          "indexed": false,
          "internalType": "string",
          "name": "projectId",
          "type": "string"
        },
        {
          "indexed": false,
          "internalType": "string",
          "name": "projectName",
          "type": "string"
        }
      ],
      "name": "ProjectAdded",
      "type": "event"
    },
    {
      "anonymous": false,
      "inputs": [
        {
          "indexed": false,
          "internalType": "address",
          "name": "voter",
          "type": "address"
        },
        {
          "indexed": false,
          "internalType": "string",
          "name": "projectId",
          "type": "string"
        }
      ],
      "name": "Voted",
      "type": "event"
    },
    {
      "anonymous": false,
      "inputs": [
        {
          "indexed": false,
          "internalType": "address",
          "name": "winner",
          "type": "address"
        },
        {
          "indexed": false,
          "internalType": "uint256",
          "name": "amount",
          "type": "uint256"
        }
      ],
      "name": "WinnerAnnounced",
      "type": "event"
    },
    {
      "inputs": [
        {
          "internalType": "address",
          "name": "",
          "type": "address"
        }
      ],
      "name": "addressNames",
      "outputs": [
        {
          "internalType": "string",
          "name": "",
          "type": "string"
        }
      ],
      "stateMutability": "view",
      "type": "function",
      "constant": true
    },
    {
      "inputs": [
        {
          "internalType": "address",
          "name": "",
          "type": "address"
        }
      ],
      "name": "addressVotes",
      "outputs": [
        {
          "internalType": "string",
          "name": "",
          "type": "string"
        }
      ],
      "stateMutability": "view",
      "type": "function",
      "constant": true
    },
    {
      "inputs": [
        {
          "internalType": "address",
          "name": "",
          "type": "address"
        }
      ],
      "name": "hasVoted",
      "outputs": [
        {
          "internalType": "bool",
          "name": "",
          "type": "bool"
        }
      ],
      "stateMutability": "view",
      "type": "function",
      "constant": true
    },
    {
      "inputs": [
        {
          "internalType": "uint256",
          "name": "",
          "type": "uint256"
        }
      ],
      "name": "projectIds",
      "outputs": [
        {
          "internalType": "string",
          "name": "",
          "type": "string"
        }
      ],
      "stateMutability": "view",
      "type": "function",
      "constant": true
    },
    {
      "inputs": [
        {
          "internalType": "string",
          "name": "",
          "type": "string"
        }
      ],
      "name": "projectVotes",
      "outputs": [
        {
          "internalType": "uint256",
          "name": "",
          "type": "uint256"
        }
      ],
      "stateMutability": "view",
      "type": "function",
      "constant": true
    },
    {
      "inputs": [
        {
          "internalType": "string",
          "name": "",
          "type": "string"
        }
      ],
      "name": "projects",
      "outputs": [
        {
          "internalType": "string",
          "name": "",
          "type": "string"
        }
      ],
      "stateMutability": "view",
      "type": "function",
      "constant": true
    },
    {
      "inputs": [
        {
          "internalType": "uint256",
          "name": "",
          "type": "uint256"
        }
      ],
      "name": "winnerNames",
      "outputs": [
        {
          "internalType": "string",
          "name": "",
          "type": "string"
        }
      ],
      "stateMutability": "view",
      "type": "function",
      "constant": true
    },
    {
      "inputs": [
        {
          "internalType": "address",
          "name": "",
          "type": "address"
        }
      ],
      "name": "winners",
      "outputs": [
        {
          "internalType": "string",
          "name": "",
          "type": "string"
        }
      ],
      "stateMutability": "view",
      "type": "function",
      "constant": true
    },
    {
      "inputs": [
        {
          "internalType": "string",
          "name": "projectName",
          "type": "string"
        },
        {
          "internalType": "string",
          "name": "projectId",
          "type": "string"
        }
      ],
      "name": "add",
      "outputs": [],
      "stateMutability": "nonpayable",
      "type": "function"
    },
    {
      "inputs": [
        {
          "internalType": "string",
          "name": "projectId",
          "type": "string"
        },
        {
          "internalType": "string",
          "name": "voterName",
          "type": "string"
        }
      ],
      "name": "vote",
      "outputs": [],
      "stateMutability": "payable",
      "type": "function",
      "payable": true
    },
    {
      "inputs": [],
      "name": "getWinners",
      "outputs": [
        {
          "internalType": "string[]",
          "name": "",
          "type": "string[]"
        }
      ],
      "stateMutability": "view",
      "type": "function",
      "constant": true
    },
    {
      "inputs": [],
      "name": "voteTest",
      "outputs": [
        {
          "internalType": "uint256",
          "name": "",
          "type": "uint256"
        }
      ],
      "stateMutability": "payable",
      "type": "function",
      "payable": true
    },
    {
      "inputs": [
        {
          "internalType": "string",
          "name": "projectId",
          "type": "string"
        }
      ],
      "name": "getVoteCount",
      "outputs": [
        {
          "internalType": "uint256",
          "name": "",
          "type": "uint256"
        }
      ],
      "stateMutability": "view",
      "type": "function",
      "constant": true
    },
    {
      "inputs": [],
      "name": "getAll",
      "outputs": [
        {
          "internalType": "string[]",
          "name": "",
          "type": "string[]"
        }
      ],
      "stateMutability": "view",
      "type": "function",
      "constant": true
    },
    {
      "inputs": [],
      "name": "checkHasVoted",
      "outputs": [
        {
          "internalType": "bool",
          "name": "",
          "type": "bool"
        }
      ],
      "stateMutability": "view",
      "type": "function",
      "constant": true
    },
    {
      "inputs": [],
      "name": "getVote",
      "outputs": [
        {
          "internalType": "string",
          "name": "",
          "type": "string"
        }
      ],
      "stateMutability": "view",
      "type": "function",
      "constant": true
    },
    {
      "inputs": [],
      "name": "getBalance",
      "outputs": [
        {
          "internalType": "uint256",
          "name": "",
          "type": "uint256"
        }
      ],
      "stateMutability": "view",
      "type": "function",
      "constant": true
    },
    {
      "inputs": [],
      "name": "getThreshold",
      "outputs": [
        {
          "internalType": "uint256",
          "name": "",
          "type": "uint256"
        }
      ],
      "stateMutability": "view",
      "type": "function",
      "constant": true
    },
    {
      "inputs": [
        {
          "internalType": "address",
          "name": "newOwner",
          "type": "address"
        }
      ],
      "name": "transferOwnership",
      "outputs": [],
      "stateMutability": "nonpayable",
      "type": "function"
    },
    {
      "inputs": [],
      "name": "withdraw",
      "outputs": [],
      "stateMutability": "nonpayable",
      "type": "function"
    }
  ],
  "bytecode": "0x608060405267016345785d8a0000600a5534801561001b575f80fd5b503360085f6101000a81548173ffffffffffffffffffffffffffffffffffffffff021916908373ffffffffffffffffffffffffffffffffffffffff1602179055506126ac806100695f395ff3fe60806040526004361061011e575f3560e01c806391c9b2681161009f578063df15c37e11610063578063df15c37e1461041a578063e75235b814610444578063e8d5940d1461046e578063ebdf86ca1461048a578063f2fde38b146104b25761011e565b806391c9b2681461030c57806395dacd5214610348578063a34bb6e614610366578063b0501869146103a2578063c4c91110146103de5761011e565b80631561af50116100e65780631561af50146102185780633ccfd60b1461025457806348c35ad41461026a57806353ed5143146102a65780636bd5450a146102d05761011e565b80630242f35114610122578063069953a71461014c57806309eef43e1461018857806312065fe0146101c45780631234ce9d146101ee575b5f80fd5b34801561012d575f80fd5b506101366104da565b6040516101439190611712565b60405180910390f35b348015610157575f80fd5b50610172600480360381019061016d919061186f565b6105a5565b60405161017f91906118ce565b60405180910390f35b348015610193575f80fd5b506101ae60048036038101906101a99190611941565b6105cb565b6040516101bb9190611986565b60405180910390f35b3480156101cf575f80fd5b506101d86105e8565b6040516101e591906118ce565b60405180910390f35b3480156101f9575f80fd5b506102026105ef565b60405161020f9190611986565b60405180910390f35b348015610223575f80fd5b5061023e600480360381019061023991906119c9565b61063f565b60405161024b9190611712565b60405180910390f35b34801561025f575f80fd5b506102686106e5565b005b348015610275575f80fd5b50610290600480360381019061028b91906119c9565b6107db565b60405161029d9190611712565b60405180910390f35b3480156102b1575f80fd5b506102ba610881565b6040516102c79190611af7565b60405180910390f35b3480156102db575f80fd5b506102f660048036038101906102f19190611941565b610955565b6040516103039190611712565b60405180910390f35b348015610317575f80fd5b50610332600480360381019061032d919061186f565b6109f0565b60405161033f9190611712565b60405180910390f35b610350610aa3565b60405161035d91906118ce565b60405180910390f35b348015610371575f80fd5b5061038c60048036038101906103879190611941565b610aaa565b6040516103999190611712565b60405180910390f35b3480156103ad575f80fd5b506103c860048036038101906103c39190611941565b610b45565b6040516103d59190611712565b60405180910390f35b3480156103e9575f80fd5b5061040460048036038101906103ff919061186f565b610be0565b60405161041191906118ce565b60405180910390f35b348015610425575f80fd5b5061042e610c0c565b60405161043b9190611af7565b60405180910390f35b34801561044f575f80fd5b50610458610ce0565b60405161046591906118ce565b60405180910390f35b61048860048036038101906104839190611b17565b610ce9565b005b348015610495575f80fd5b506104b060048036038101906104ab9190611b17565b611034565b005b3480156104bd575f80fd5b506104d860048036038101906104d39190611941565b611250565b005b606060035f3373ffffffffffffffffffffffffffffffffffffffff1673ffffffffffffffffffffffffffffffffffffffff1681526020019081526020015f20805461052490611bba565b80601f016020809104026020016040519081016040528092919081815260200182805461055090611bba565b801561059b5780601f106105725761010080835404028352916020019161059b565b820191905f5260205f20905b81548152906001019060200180831161057e57829003601f168201915b5050505050905090565b5f80826040516105b59190611c24565b9081526020016040518091039020549050919050565b6001602052805f5260405f205f915054906101000a900460ff1681565b5f47905090565b5f60015f3373ffffffffffffffffffffffffffffffffffffffff1673ffffffffffffffffffffffffffffffffffffffff1681526020019081526020015f205f9054906101000a900460ff16905090565b6006818154811061064e575f80fd5b905f5260205f20015f91509050805461066690611bba565b80601f016020809104026020016040519081016040528092919081815260200182805461069290611bba565b80156106dd5780601f106106b4576101008083540402835291602001916106dd565b820191905f5260205f20905b8154815290600101906020018083116106c057829003601f168201915b505050505081565b60085f9054906101000a900473ffffffffffffffffffffffffffffffffffffffff1673ffffffffffffffffffffffffffffffffffffffff163373ffffffffffffffffffffffffffffffffffffffff1614610774576040517f08c379a000000000000000000000000000000000000000000000000000000000815260040161076b90611c84565b60405180910390fd5b60085f9054906101000a900473ffffffffffffffffffffffffffffffffffffffff1673ffffffffffffffffffffffffffffffffffffffff166108fc4790811502906040515f60405180830381858888f193505050501580156107d8573d5f803e3d5ffd5b50565b600781815481106107ea575f80fd5b905f5260205f20015f91509050805461080290611bba565b80601f016020809104026020016040519081016040528092919081815260200182805461082e90611bba565b80156108795780601f1061085057610100808354040283529160200191610879565b820191905f5260205f20905b81548152906001019060200180831161085c57829003601f168201915b505050505081565b60606007805480602002602001604051908101604052809291908181526020015f905b8282101561094c578382905f5260205f200180546108c190611bba565b80601f01602080910402602001604051908101604052809291908181526020018280546108ed90611bba565b80156109385780601f1061090f57610100808354040283529160200191610938565b820191905f5260205f20905b81548152906001019060200180831161091b57829003601f168201915b5050505050815260200190600101906108a4565b50505050905090565b6005602052805f5260405f205f91509050805461097190611bba565b80601f016020809104026020016040519081016040528092919081815260200182805461099d90611bba565b80156109e85780601f106109bf576101008083540402835291602001916109e8565b820191905f5260205f20905b8154815290600101906020018083116109cb57829003601f168201915b505050505081565b6002818051602081018201805184825260208301602085012081835280955050505050505f915090508054610a2490611bba565b80601f0160208091040260200160405190810160405280929190818152602001828054610a5090611bba565b8015610a9b5780601f10610a7257610100808354040283529160200191610a9b565b820191905f5260205f20905b815481529060010190602001808311610a7e57829003601f168201915b505050505081565b5f34905090565b6003602052805f5260405f205f915090508054610ac690611bba565b80601f0160208091040260200160405190810160405280929190818152602001828054610af290611bba565b8015610b3d5780601f10610b1457610100808354040283529160200191610b3d565b820191905f5260205f20905b815481529060010190602001808311610b2057829003601f168201915b505050505081565b6004602052805f5260405f205f915090508054610b6190611bba565b80601f0160208091040260200160405190810160405280929190818152602001828054610b8d90611bba565b8015610bd85780601f10610baf57610100808354040283529160200191610bd8565b820191905f5260205f20905b815481529060010190602001808311610bbb57829003601f168201915b505050505081565b5f818051602081018201805184825260208301602085012081835280955050505050505f915090505481565b60606006805480602002602001604051908101604052809291908181526020015f905b82821015610cd7578382905f5260205f20018054610c4c90611bba565b80601f0160208091040260200160405190810160405280929190818152602001828054610c7890611bba565b8015610cc35780601f10610c9a57610100808354040283529160200191610cc3565b820191905f5260205f20905b815481529060010190602001808311610ca657829003601f168201915b505050505081526020019060010190610c2f565b50505050905090565b5f600a54905090565b66038d7ea4c68000341015610d33576040517f08c379a0000000000000000000000000000000000000000000000000000000008152600401610d2a90611cec565b60405180910390fd5b66b1a2bc2ec50000341115610d7d576040517f08c379a0000000000000000000000000000000000000000000000000000000008152600401610d7490611d54565b60405180910390fd5b60015f3373ffffffffffffffffffffffffffffffffffffffff1673ffffffffffffffffffffffffffffffffffffffff1681526020019081526020015f205f9054906101000a900460ff1615610e07576040517f08c379a0000000000000000000000000000000000000000000000000000000008152600401610dfe90611dbc565b60405180910390fd5b5f600283604051610e189190611c24565b90815260200160405180910390208054610e3190611bba565b905011610e73576040517f08c379a0000000000000000000000000000000000000000000000000000000008152600401610e6a90611e24565b60405180910390fd5b8060045f3373ffffffffffffffffffffffffffffffffffffffff1673ffffffffffffffffffffffffffffffffffffffff1681526020019081526020015f209081610ebd9190611fdf565b508160035f3373ffffffffffffffffffffffffffffffffffffffff1673ffffffffffffffffffffffffffffffffffffffff1681526020019081526020015f209081610f089190611fdf565b505f82604051610f189190611c24565b90815260200160405180910390205f815480929190610f36906120db565b91905055506001805f3373ffffffffffffffffffffffffffffffffffffffff1673ffffffffffffffffffffffffffffffffffffffff1681526020019081526020015f205f6101000a81548160ff021916908315150217905550600933908060018154018082558091505060019003905f5260205f20015f9091909190916101000a81548173ffffffffffffffffffffffffffffffffffffffff021916908373ffffffffffffffffffffffffffffffffffffffff160217905550610ff7611390565b7fcb6783276e8a4347387036bbfea000268f0a4b1f8c46ac79980609f2af8d2acd3383604051611028929190612131565b60405180910390a15050565b60085f9054906101000a900473ffffffffffffffffffffffffffffffffffffffff1673ffffffffffffffffffffffffffffffffffffffff163373ffffffffffffffffffffffffffffffffffffffff16146110c3576040517f08c379a00000000000000000000000000000000000000000000000000000000081526004016110ba90611c84565b60405180910390fd5b5f6002826040516110d49190611c24565b908152602001604051809103902080546110ed90611bba565b90501461112f576040517f08c379a0000000000000000000000000000000000000000000000000000000008152600401611126906121a9565b60405180910390fd5b5f825111611172576040517f08c379a000000000000000000000000000000000000000000000000000000000815260040161116990612211565b60405180910390fd5b5f8151116111b5576040517f08c379a00000000000000000000000000000000000000000000000000000000081526004016111ac90612279565b60405180910390fd5b816002826040516111c69190611c24565b908152602001604051809103902090816111e09190611fdf565b50600781908060018154018082558091505060019003905f5260205f20015f9091909190915090816112129190611fdf565b507feb5d6000a362475be9d9b16beddc148b7004850daf2e69325a403d613567769e8183604051611244929190612297565b60405180910390a15050565b60085f9054906101000a900473ffffffffffffffffffffffffffffffffffffffff1673ffffffffffffffffffffffffffffffffffffffff163373ffffffffffffffffffffffffffffffffffffffff16146112df576040517f08c379a00000000000000000000000000000000000000000000000000000000081526004016112d690611c84565b60405180910390fd5b5f73ffffffffffffffffffffffffffffffffffffffff168173ffffffffffffffffffffffffffffffffffffffff160361134d576040517f08c379a00000000000000000000000000000000000000000000000000000000081526004016113449061233c565b60405180910390fd5b8060085f6101000a81548173ffffffffffffffffffffffffffffffffffffffff021916908373ffffffffffffffffffffffffffffffffffffffff16021790555050565b600a54471061159d575f600980549050116113e0576040517f08c379a00000000000000000000000000000000000000000000000000000000081526004016113d7906123a4565b60405180910390fd5b5f60098054905042446040516020016113fa9291906123e2565b604051602081830303815290604052805190602001205f1c61141c919061243a565b90505f600982815481106114335761143261246a565b5b905f5260205f20015f9054906101000a900473ffffffffffffffffffffffffffffffffffffffff1690505f47905061146b828261159f565b60045f8373ffffffffffffffffffffffffffffffffffffffff1673ffffffffffffffffffffffffffffffffffffffff1681526020019081526020015f2060055f8473ffffffffffffffffffffffffffffffffffffffff1673ffffffffffffffffffffffffffffffffffffffff1681526020019081526020015f2090816114f191906124be565b50600660045f8473ffffffffffffffffffffffffffffffffffffffff1673ffffffffffffffffffffffffffffffffffffffff1681526020019081526020015f20908060018154018082558091505060019003905f5260205f20015f90919091909150908161155f91906124be565b507fac853ae20ebc831e1db62fa17db64e8e173b63c6dcd89a4a4f5f24a1a080322e82826040516115919291906125f5565b60405180910390a15050505b565b804710156115e457306040517fcd7860590000000000000000000000000000000000000000000000000000000081526004016115db919061261c565b60405180910390fd5b5f8273ffffffffffffffffffffffffffffffffffffffff168260405161160990612662565b5f6040518083038185875af1925050503d805f8114611643576040519150601f19603f3d011682016040523d82523d5f602084013e611648565b606091505b5050905080611683576040517f1425ea4200000000000000000000000000000000000000000000000000000000815260040160405180910390fd5b505050565b5f81519050919050565b5f82825260208201905092915050565b5f5b838110156116bf5780820151818401526020810190506116a4565b5f8484015250505050565b5f601f19601f8301169050919050565b5f6116e482611688565b6116ee8185611692565b93506116fe8185602086016116a2565b611707816116ca565b840191505092915050565b5f6020820190508181035f83015261172a81846116da565b905092915050565b5f604051905090565b5f80fd5b5f80fd5b5f80fd5b5f80fd5b7f4e487b71000000000000000000000000000000000000000000000000000000005f52604160045260245ffd5b611781826116ca565b810181811067ffffffffffffffff821117156117a05761179f61174b565b5b80604052505050565b5f6117b2611732565b90506117be8282611778565b919050565b5f67ffffffffffffffff8211156117dd576117dc61174b565b5b6117e6826116ca565b9050602081019050919050565b828183375f83830152505050565b5f61181361180e846117c3565b6117a9565b90508281526020810184848401111561182f5761182e611747565b5b61183a8482856117f3565b509392505050565b5f82601f83011261185657611855611743565b5b8135611866848260208601611801565b91505092915050565b5f602082840312156118845761188361173b565b5b5f82013567ffffffffffffffff8111156118a1576118a061173f565b5b6118ad84828501611842565b91505092915050565b5f819050919050565b6118c8816118b6565b82525050565b5f6020820190506118e15f8301846118bf565b92915050565b5f73ffffffffffffffffffffffffffffffffffffffff82169050919050565b5f611910826118e7565b9050919050565b61192081611906565b811461192a575f80fd5b50565b5f8135905061193b81611917565b92915050565b5f602082840312156119565761195561173b565b5b5f6119638482850161192d565b91505092915050565b5f8115159050919050565b6119808161196c565b82525050565b5f6020820190506119995f830184611977565b92915050565b6119a8816118b6565b81146119b2575f80fd5b50565b5f813590506119c38161199f565b92915050565b5f602082840312156119de576119dd61173b565b5b5f6119eb848285016119b5565b91505092915050565b5f81519050919050565b5f82825260208201905092915050565b5f819050602082019050919050565b5f82825260208201905092915050565b5f611a3782611688565b611a418185611a1d565b9350611a518185602086016116a2565b611a5a816116ca565b840191505092915050565b5f611a708383611a2d565b905092915050565b5f602082019050919050565b5f611a8e826119f4565b611a9881856119fe565b935083602082028501611aaa85611a0e565b805f5b85811015611ae55784840389528151611ac68582611a65565b9450611ad183611a78565b925060208a01995050600181019050611aad565b50829750879550505050505092915050565b5f6020820190508181035f830152611b0f8184611a84565b905092915050565b5f8060408385031215611b2d57611b2c61173b565b5b5f83013567ffffffffffffffff811115611b4a57611b4961173f565b5b611b5685828601611842565b925050602083013567ffffffffffffffff811115611b7757611b7661173f565b5b611b8385828601611842565b9150509250929050565b7f4e487b71000000000000000000000000000000000000000000000000000000005f52602260045260245ffd5b5f6002820490506001821680611bd157607f821691505b602082108103611be457611be3611b8d565b5b50919050565b5f81905092915050565b5f611bfe82611688565b611c088185611bea565b9350611c188185602086016116a2565b80840191505092915050565b5f611c2f8284611bf4565b915081905092915050565b7f4f6e6c79206f776e65722063616e2065786563757465000000000000000000005f82015250565b5f611c6e601683611692565b9150611c7982611c3a565b602082019050919050565b5f6020820190508181035f830152611c9b81611c62565b9050919050565b7f4d696e696d756d20302e303031206574686572000000000000000000000000005f82015250565b5f611cd6601383611692565b9150611ce182611ca2565b602082019050919050565b5f6020820190508181035f830152611d0381611cca565b9050919050565b7f4d6178696d756d20302e303520657468657200000000000000000000000000005f82015250565b5f611d3e601283611692565b9150611d4982611d0a565b602082019050919050565b5f6020820190508181035f830152611d6b81611d32565b9050919050565b7f416c726561647920766f746564000000000000000000000000000000000000005f82015250565b5f611da6600d83611692565b9150611db182611d72565b602082019050919050565b5f6020820190508181035f830152611dd381611d9a565b9050919050565b7f50726f6a65637420646f6573206e6f74206578697374000000000000000000005f82015250565b5f611e0e601683611692565b9150611e1982611dda565b602082019050919050565b5f6020820190508181035f830152611e3b81611e02565b9050919050565b5f819050815f5260205f209050919050565b5f6020601f8301049050919050565b5f82821b905092915050565b5f60088302611e9e7fffffffffffffffffffffffffffffffffffffffffffffffffffffffffffffffff82611e63565b611ea88683611e63565b95508019841693508086168417925050509392505050565b5f819050919050565b5f611ee3611ede611ed9846118b6565b611ec0565b6118b6565b9050919050565b5f819050919050565b611efc83611ec9565b611f10611f0882611eea565b848454611e6f565b825550505050565b5f90565b611f24611f18565b611f2f818484611ef3565b505050565b5b81811015611f5257611f475f82611f1c565b600181019050611f35565b5050565b601f821115611f9757611f6881611e42565b611f7184611e54565b81016020851015611f80578190505b611f94611f8c85611e54565b830182611f34565b50505b505050565b5f82821c905092915050565b5f611fb75f1984600802611f9c565b1980831691505092915050565b5f611fcf8383611fa8565b9150826002028217905092915050565b611fe882611688565b67ffffffffffffffff8111156120015761200061174b565b5b61200b8254611bba565b612016828285611f56565b5f60209050601f831160018114612047575f8415612035578287015190505b61203f8582611fc4565b8655506120a6565b601f19841661205586611e42565b5f5b8281101561207c57848901518255600182019150602085019450602081019050612057565b868310156120995784890151612095601f891682611fa8565b8355505b6001600288020188555050505b505050505050565b7f4e487b71000000000000000000000000000000000000000000000000000000005f52601160045260245ffd5b5f6120e5826118b6565b91507fffffffffffffffffffffffffffffffffffffffffffffffffffffffffffffffff8203612117576121166120ae565b5b600182019050919050565b61212b81611906565b82525050565b5f6040820190506121445f830185612122565b818103602083015261215681846116da565b90509392505050565b7f50726f6a65637420616c726561647920657869737473000000000000000000005f82015250565b5f612193601683611692565b915061219e8261215f565b602082019050919050565b5f6020820190508181035f8301526121c081612187565b9050919050565b7f50726f6a656374206e616d6520697320726571756972656400000000000000005f82015250565b5f6121fb601883611692565b9150612206826121c7565b602082019050919050565b5f6020820190508181035f830152612228816121ef565b9050919050565b7f50726f6a656374204944206973207265717569726564000000000000000000005f82015250565b5f612263601683611692565b915061226e8261222f565b602082019050919050565b5f6020820190508181035f83015261229081612257565b9050919050565b5f6040820190508181035f8301526122af81856116da565b905081810360208301526122c381846116da565b90509392505050565b7f4e6577206f776e65722063616e6e6f7420626520746865207a65726f206164645f8201527f7265737300000000000000000000000000000000000000000000000000000000602082015250565b5f612326602483611692565b9150612331826122cc565b604082019050919050565b5f6020820190508181035f8301526123538161231a565b9050919050565b7f4e6f20766f7465727320746f20726577617264000000000000000000000000005f82015250565b5f61238e601383611692565b91506123998261235a565b602082019050919050565b5f6020820190508181035f8301526123bb81612382565b9050919050565b5f819050919050565b6123dc6123d7826118b6565b6123c2565b82525050565b5f6123ed82856123cb565b6020820191506123fd82846123cb565b6020820191508190509392505050565b7f4e487b71000000000000000000000000000000000000000000000000000000005f52601260045260245ffd5b5f612444826118b6565b915061244f836118b6565b92508261245f5761245e61240d565b5b828206905092915050565b7f4e487b71000000000000000000000000000000000000000000000000000000005f52603260045260245ffd5b5f815490506124a581611bba565b9050919050565b5f819050815f5260205f209050919050565b8181036124cc5750506125a1565b6124d582612497565b67ffffffffffffffff8111156124ee576124ed61174b565b5b6124f88254611bba565b612503828285611f56565b5f601f831160018114612530575f841561251e578287015490505b6125288582611fc4565b86555061259a565b601f19841661253e876124ac565b965061254986611e42565b5f5b828110156125705784890154825560018201915060018501945060208101905061254b565b8683101561258d5784890154612589601f891682611fa8565b8355505b6001600288020188555050505b5050505050505b565b5f6125bd6125b86125b3846118e7565b611ec0565b6118e7565b9050919050565b5f6125ce826125a3565b9050919050565b5f6125df826125c4565b9050919050565b6125ef816125d5565b82525050565b5f6040820190506126085f8301856125e6565b61261560208301846118bf565b9392505050565b5f60208201905061262f5f830184612122565b92915050565b5f81905092915050565b50565b5f61264d5f83612635565b91506126588261263f565b5f82019050919050565b5f61266c82612642565b915081905091905056fea2646970667358221220cd0edc020cb0a3188c753bf44849d9539b34a5874af62c141f1125d97359350f64736f6c63430008150033",
  "immutableReferences": {},
  "source": "// SPDX-License-Identifier: MIT \npragma solidity ^0.8.0;\n\nimport \"@openzeppelin/contracts/utils/Address.sol\";\n\ncontract ProjectVoting {\n    mapping(string => uint) public projectVotes;\n    mapping(address => bool) public hasVoted;\n    mapping(string => string) public projects;\n    mapping(address => string) public addressVotes;\n    mapping(address => string) public addressNames;\n    mapping(address => string) public winners;\n    string[] public winnerNames;\n    string[] public projectIds;\n    address private owner;\n    address[] private voters;\n    uint private threshold = 0.1 ether;\n\n    event ProjectAdded(string projectId, string projectName);\n    event Voted(address voter, string projectId); \n    event WinnerAnnounced(address winner, uint256 amount);\n\n    modifier onlyOwner() {\n        require(msg.sender == owner, \"Only owner can execute\");\n        _;\n    }\n  \n    constructor() {\n        owner = msg.sender;\n    }\n\n    function add(string memory projectName, string memory projectId) public onlyOwner {\n        require(bytes(projects[projectId]).length == 0, \"Project already exists\");\n        require(bytes(projectName).length > 0, \"Project name is required\"); // Input validation for projectName\n        require(bytes(projectId).length > 0, \"Project ID is required\"); // Input validation for projectId\n        projects[projectId] = projectName;\n        projectIds.push(projectId);\n        emit ProjectAdded(projectId, projectName); \n    }\n\n    function vote(string memory projectId, string memory voterName) payable public {\n        require(msg.value >= 0.001 ether, \"Minimum 0.001 ether\");\n        require(msg.value <= 0.05 ether, \"Maximum 0.05 ether\");\n        require(!hasVoted[msg.sender], \"Already voted\");\n        require(bytes(projects[projectId]).length > 0, \"Project does not exist\"); \n        addressNames[msg.sender] = voterName;\n        addressVotes[msg.sender] = projectId;\n        projectVotes[projectId]++;\n        hasVoted[msg.sender] = true;\n        voters.push(msg.sender);\n        checkAndTransfer();  \n        emit Voted(msg.sender, projectId);\n    }\n\n    function getWinners() public view returns (string[] memory) {\n        return winnerNames;\n    }\n\n    function voteTest() public payable returns (uint) {\n        return msg.value;\n    }\n\n    function getVoteCount(string memory projectId) public view returns (uint) {\n        return projectVotes[projectId];\n    }\n\n    function getAll() public view returns (string[] memory) {\n        return projectIds;\n    }\n\n    function checkHasVoted() public view returns (bool) {\n        return hasVoted[msg.sender];\n    }\n\n    function getVote() public view returns (string memory) {\n        return  addressVotes[msg.sender]; \n    }\n\n    function checkAndTransfer() internal {\n        if (address(this).balance >= threshold) {\n            require(voters.length > 0, \"No voters to reward\");\n            uint randomIndex = uint(keccak256(abi.encodePacked(block.timestamp, block.prevrandao))) % voters.length;\n            address payable luckyVoter = payable(voters[randomIndex]);\n            uint256 amountToSend = address(this).balance;\n            Address.sendValue(luckyVoter, amountToSend);\n            winners[luckyVoter] = addressNames[luckyVoter];\n            winnerNames.push(addressNames[luckyVoter]);\n            emit WinnerAnnounced(luckyVoter, amountToSend);\n        }\n    }\n\n    function getBalance() public view returns (uint256) {\n        return address(this).balance;\n    }\n\n    function getThreshold() public view returns (uint256) {\n        return threshold;\n    }\n\n    function transferOwnership(address newOwner) public onlyOwner {\n        require(newOwner != address(0), \"New owner cannot be the zero address\");\n        owner = newOwner;\n    }\n\n    function withdraw() public onlyOwner {\n        payable(owner).transfer(address(this).balance);\n    }\n}",
  "sourcePath": "/home/ddavis/Documents/web_dev/Projects/PersonalSite/backend/contracts/project-voting.sol",
  "compiler": {
    "name": "solc",
    "version": "0.8.21+commit.d9974bed.Emscripten.clang"
  },
  "schemaVersion": "3.4.16",
  "updatedAt": "2024-01-16T20:17:36.953Z",
  "networkType": "ethereum",
  "devdoc": {
    "errors": {
      "AddressInsufficientBalance(address)": [
        {
          "details": "The ETH balance of the account is not enough to perform the operation."
        }
      ],
      "FailedInnerCall()": [
        {
          "details": "A call to an address target failed. The target may have reverted."
        }
      ]
    },
    "kind": "dev",
    "methods": {},
    "version": 1
  },
  "userdoc": {
    "kind": "user",
    "methods": {},
    "version": 1
  }
}