{
  "contractName": "ProjectVoting",
  "abi": [
    {
      "inputs": [],
      "stateMutability": "nonpayable",
      "type": "constructor"
    },
    {
      "inputs": [
        {
          "internalType": "address",
          "name": "",
          "type": "address"
        }
      ],
      "name": "addressVotes",
      "outputs": [
        {
          "internalType": "string",
          "name": "",
          "type": "string"
        }
      ],
      "stateMutability": "view",
      "type": "function",
      "constant": true
    },
    {
      "inputs": [
        {
          "internalType": "address",
          "name": "",
          "type": "address"
        }
      ],
      "name": "hasVoted",
      "outputs": [
        {
          "internalType": "bool",
          "name": "",
          "type": "bool"
        }
      ],
      "stateMutability": "view",
      "type": "function",
      "constant": true
    },
    {
      "inputs": [],
      "name": "owner",
      "outputs": [
        {
          "internalType": "address",
          "name": "",
          "type": "address"
        }
      ],
      "stateMutability": "view",
      "type": "function",
      "constant": true
    },
    {
      "inputs": [
        {
          "internalType": "uint256",
          "name": "",
          "type": "uint256"
        }
      ],
      "name": "projectIds",
      "outputs": [
        {
          "internalType": "string",
          "name": "",
          "type": "string"
        }
      ],
      "stateMutability": "view",
      "type": "function",
      "constant": true
    },
    {
      "inputs": [
        {
          "internalType": "string",
          "name": "",
          "type": "string"
        }
      ],
      "name": "projectVotes",
      "outputs": [
        {
          "internalType": "uint256",
          "name": "",
          "type": "uint256"
        }
      ],
      "stateMutability": "view",
      "type": "function",
      "constant": true
    },
    {
      "inputs": [
        {
          "internalType": "string",
          "name": "",
          "type": "string"
        }
      ],
      "name": "projects",
      "outputs": [
        {
          "internalType": "string",
          "name": "",
          "type": "string"
        }
      ],
      "stateMutability": "view",
      "type": "function",
      "constant": true
    },
    {
      "inputs": [
        {
          "internalType": "string",
          "name": "projectName",
          "type": "string"
        },
        {
          "internalType": "string",
          "name": "projectId",
          "type": "string"
        }
      ],
      "name": "add",
      "outputs": [],
      "stateMutability": "nonpayable",
      "type": "function"
    },
    {
      "inputs": [
        {
          "internalType": "string",
          "name": "projectId",
          "type": "string"
        }
      ],
      "name": "vote",
      "outputs": [],
      "stateMutability": "payable",
      "type": "function",
      "payable": true
    },
    {
      "inputs": [
        {
          "internalType": "string",
          "name": "projectId",
          "type": "string"
        }
      ],
      "name": "getVoteCount",
      "outputs": [
        {
          "internalType": "uint256",
          "name": "",
          "type": "uint256"
        }
      ],
      "stateMutability": "view",
      "type": "function",
      "constant": true
    },
    {
      "inputs": [],
      "name": "getAll",
      "outputs": [
        {
          "internalType": "string[]",
          "name": "",
          "type": "string[]"
        }
      ],
      "stateMutability": "view",
      "type": "function",
      "constant": true
    },
    {
      "inputs": [],
      "name": "checkHasVoted",
      "outputs": [
        {
          "internalType": "bool",
          "name": "",
          "type": "bool"
        }
      ],
      "stateMutability": "view",
      "type": "function",
      "constant": true
    },
    {
      "inputs": [],
      "name": "getVote",
      "outputs": [
        {
          "internalType": "string",
          "name": "",
          "type": "string"
        }
      ],
      "stateMutability": "view",
      "type": "function",
      "constant": true
    }
  ],
  "bytecode": "0x608060405234801561000f575f80fd5b503360055f6101000a81548173ffffffffffffffffffffffffffffffffffffffff021916908373ffffffffffffffffffffffffffffffffffffffff16021790555061150a8061005d5f395ff3fe6080604052600436106100a6575f3560e01c80638da5cb5b116100635780638da5cb5b146101dc57806391c9b26814610206578063a34bb6e614610242578063c4c911101461027e578063ebdf86ca146102ba578063fc36e15b146102e2576100a6565b80630242f351146100aa578063069953a7146100d457806309eef43e146101105780631234ce9d1461014c57806348c35ad41461017657806353ed5143146101b2575b5f80fd5b3480156100b5575f80fd5b506100be6102fe565b6040516100cb9190610b04565b60405180910390f35b3480156100df575f80fd5b506100fa60048036038101906100f59190610c61565b6103c9565b6040516101079190610cc0565b60405180910390f35b34801561011b575f80fd5b5061013660048036038101906101319190610d33565b6103ef565b6040516101439190610d78565b60405180910390f35b348015610157575f80fd5b5061016061040c565b60405161016d9190610d78565b60405180910390f35b348015610181575f80fd5b5061019c60048036038101906101979190610dbb565b61045c565b6040516101a99190610b04565b60405180910390f35b3480156101bd575f80fd5b506101c6610502565b6040516101d39190610ee9565b60405180910390f35b3480156101e7575f80fd5b506101f06105d6565b6040516101fd9190610f18565b60405180910390f35b348015610211575f80fd5b5061022c60048036038101906102279190610c61565b6105fb565b6040516102399190610b04565b60405180910390f35b34801561024d575f80fd5b5061026860048036038101906102639190610d33565b6106ae565b6040516102759190610b04565b60405180910390f35b348015610289575f80fd5b506102a4600480360381019061029f9190610c61565b610749565b6040516102b19190610cc0565b60405180910390f35b3480156102c5575f80fd5b506102e060048036038101906102db9190610f31565b610775565b005b6102fc60048036038101906102f79190610c61565b6108d2565b005b606060035f3373ffffffffffffffffffffffffffffffffffffffff1673ffffffffffffffffffffffffffffffffffffffff1681526020019081526020015f20805461034890610fd4565b80601f016020809104026020016040519081016040528092919081815260200182805461037490610fd4565b80156103bf5780601f10610396576101008083540402835291602001916103bf565b820191905f5260205f20905b8154815290600101906020018083116103a257829003601f168201915b5050505050905090565b5f80826040516103d9919061103e565b9081526020016040518091039020549050919050565b6001602052805f5260405f205f915054906101000a900460ff1681565b5f60015f3373ffffffffffffffffffffffffffffffffffffffff1673ffffffffffffffffffffffffffffffffffffffff1681526020019081526020015f205f9054906101000a900460ff16905090565b6004818154811061046b575f80fd5b905f5260205f20015f91509050805461048390610fd4565b80601f01602080910402602001604051908101604052809291908181526020018280546104af90610fd4565b80156104fa5780601f106104d1576101008083540402835291602001916104fa565b820191905f5260205f20905b8154815290600101906020018083116104dd57829003601f168201915b505050505081565b60606004805480602002602001604051908101604052809291908181526020015f905b828210156105cd578382905f5260205f2001805461054290610fd4565b80601f016020809104026020016040519081016040528092919081815260200182805461056e90610fd4565b80156105b95780601f10610590576101008083540402835291602001916105b9565b820191905f5260205f20905b81548152906001019060200180831161059c57829003601f168201915b505050505081526020019060010190610525565b50505050905090565b60055f9054906101000a900473ffffffffffffffffffffffffffffffffffffffff1681565b6002818051602081018201805184825260208301602085012081835280955050505050505f91509050805461062f90610fd4565b80601f016020809104026020016040519081016040528092919081815260200182805461065b90610fd4565b80156106a65780601f1061067d576101008083540402835291602001916106a6565b820191905f5260205f20905b81548152906001019060200180831161068957829003601f168201915b505050505081565b6003602052805f5260405f205f9150905080546106ca90610fd4565b80601f01602080910402602001604051908101604052809291908181526020018280546106f690610fd4565b80156107415780601f1061071857610100808354040283529160200191610741565b820191905f5260205f20905b81548152906001019060200180831161072457829003601f168201915b505050505081565b5f818051602081018201805184825260208301602085012081835280955050505050505f915090505481565b5f600282604051610786919061103e565b9081526020016040518091039020805461079f90610fd4565b9050146107e1576040517f08c379a00000000000000000000000000000000000000000000000000000000081526004016107d89061109e565b60405180910390fd5b60055f9054906101000a900473ffffffffffffffffffffffffffffffffffffffff1673ffffffffffffffffffffffffffffffffffffffff163373ffffffffffffffffffffffffffffffffffffffff1614610870576040517f08c379a000000000000000000000000000000000000000000000000000000000815260040161086790611106565b60405180910390fd5b81600282604051610881919061103e565b9081526020016040518091039020908161089b91906112c1565b50600481908060018154018082558091505060019003905f5260205f20015f9091909190915090816108cd91906112c1565b505050565b662386f26fc1000034101561091c576040517f08c379a0000000000000000000000000000000000000000000000000000000008152600401610913906113da565b60405180910390fd5b60015f3373ffffffffffffffffffffffffffffffffffffffff1673ffffffffffffffffffffffffffffffffffffffff1681526020019081526020015f205f9054906101000a900460ff16156109a6576040517f08c379a000000000000000000000000000000000000000000000000000000000815260040161099d90611442565b60405180910390fd5b8060035f3373ffffffffffffffffffffffffffffffffffffffff1673ffffffffffffffffffffffffffffffffffffffff1681526020019081526020015f2090816109f091906112c1565b505f81604051610a00919061103e565b90815260200160405180910390205f815480929190610a1e9061148d565b91905055506001805f3373ffffffffffffffffffffffffffffffffffffffff1673ffffffffffffffffffffffffffffffffffffffff1681526020019081526020015f205f6101000a81548160ff02191690831515021790555050565b5f81519050919050565b5f82825260208201905092915050565b5f5b83811015610ab1578082015181840152602081019050610a96565b5f8484015250505050565b5f601f19601f8301169050919050565b5f610ad682610a7a565b610ae08185610a84565b9350610af0818560208601610a94565b610af981610abc565b840191505092915050565b5f6020820190508181035f830152610b1c8184610acc565b905092915050565b5f604051905090565b5f80fd5b5f80fd5b5f80fd5b5f80fd5b7f4e487b71000000000000000000000000000000000000000000000000000000005f52604160045260245ffd5b610b7382610abc565b810181811067ffffffffffffffff82111715610b9257610b91610b3d565b5b80604052505050565b5f610ba4610b24565b9050610bb08282610b6a565b919050565b5f67ffffffffffffffff821115610bcf57610bce610b3d565b5b610bd882610abc565b9050602081019050919050565b828183375f83830152505050565b5f610c05610c0084610bb5565b610b9b565b905082815260208101848484011115610c2157610c20610b39565b5b610c2c848285610be5565b509392505050565b5f82601f830112610c4857610c47610b35565b5b8135610c58848260208601610bf3565b91505092915050565b5f60208284031215610c7657610c75610b2d565b5b5f82013567ffffffffffffffff811115610c9357610c92610b31565b5b610c9f84828501610c34565b91505092915050565b5f819050919050565b610cba81610ca8565b82525050565b5f602082019050610cd35f830184610cb1565b92915050565b5f73ffffffffffffffffffffffffffffffffffffffff82169050919050565b5f610d0282610cd9565b9050919050565b610d1281610cf8565b8114610d1c575f80fd5b50565b5f81359050610d2d81610d09565b92915050565b5f60208284031215610d4857610d47610b2d565b5b5f610d5584828501610d1f565b91505092915050565b5f8115159050919050565b610d7281610d5e565b82525050565b5f602082019050610d8b5f830184610d69565b92915050565b610d9a81610ca8565b8114610da4575f80fd5b50565b5f81359050610db581610d91565b92915050565b5f60208284031215610dd057610dcf610b2d565b5b5f610ddd84828501610da7565b91505092915050565b5f81519050919050565b5f82825260208201905092915050565b5f819050602082019050919050565b5f82825260208201905092915050565b5f610e2982610a7a565b610e338185610e0f565b9350610e43818560208601610a94565b610e4c81610abc565b840191505092915050565b5f610e628383610e1f565b905092915050565b5f602082019050919050565b5f610e8082610de6565b610e8a8185610df0565b935083602082028501610e9c85610e00565b805f5b85811015610ed75784840389528151610eb88582610e57565b9450610ec383610e6a565b925060208a01995050600181019050610e9f565b50829750879550505050505092915050565b5f6020820190508181035f830152610f018184610e76565b905092915050565b610f1281610cf8565b82525050565b5f602082019050610f2b5f830184610f09565b92915050565b5f8060408385031215610f4757610f46610b2d565b5b5f83013567ffffffffffffffff811115610f6457610f63610b31565b5b610f7085828601610c34565b925050602083013567ffffffffffffffff811115610f9157610f90610b31565b5b610f9d85828601610c34565b9150509250929050565b7f4e487b71000000000000000000000000000000000000000000000000000000005f52602260045260245ffd5b5f6002820490506001821680610feb57607f821691505b602082108103610ffe57610ffd610fa7565b5b50919050565b5f81905092915050565b5f61101882610a7a565b6110228185611004565b9350611032818560208601610a94565b80840191505092915050565b5f611049828461100e565b915081905092915050565b7f50726f6a65637420616c726561647920657869737473000000000000000000005f82015250565b5f611088601683610a84565b915061109382611054565b602082019050919050565b5f6020820190508181035f8301526110b58161107c565b9050919050565b7f4f6e6c79206f776e65722063616e206164642070726f6a6563747300000000005f82015250565b5f6110f0601b83610a84565b91506110fb826110bc565b602082019050919050565b5f6020820190508181035f83015261111d816110e4565b9050919050565b5f819050815f5260205f209050919050565b5f6020601f8301049050919050565b5f82821b905092915050565b5f600883026111807fffffffffffffffffffffffffffffffffffffffffffffffffffffffffffffffff82611145565b61118a8683611145565b95508019841693508086168417925050509392505050565b5f819050919050565b5f6111c56111c06111bb84610ca8565b6111a2565b610ca8565b9050919050565b5f819050919050565b6111de836111ab565b6111f26111ea826111cc565b848454611151565b825550505050565b5f90565b6112066111fa565b6112118184846111d5565b505050565b5b81811015611234576112295f826111fe565b600181019050611217565b5050565b601f8211156112795761124a81611124565b61125384611136565b81016020851015611262578190505b61127661126e85611136565b830182611216565b50505b505050565b5f82821c905092915050565b5f6112995f198460080261127e565b1980831691505092915050565b5f6112b1838361128a565b9150826002028217905092915050565b6112ca82610a7a565b67ffffffffffffffff8111156112e3576112e2610b3d565b5b6112ed8254610fd4565b6112f8828285611238565b5f60209050601f831160018114611329575f8415611317578287015190505b61132185826112a6565b865550611388565b601f19841661133786611124565b5f5b8281101561135e57848901518255600182019150602085019450602081019050611339565b8683101561137b5784890151611377601f89168261128a565b8355505b6001600288020188555050505b505050505050565b7f4d696e696d756d20302e303120657468657200000000000000000000000000005f82015250565b5f6113c4601283610a84565b91506113cf82611390565b602082019050919050565b5f6020820190508181035f8301526113f1816113b8565b9050919050565b7f416c726561647920766f746564000000000000000000000000000000000000005f82015250565b5f61142c600d83610a84565b9150611437826113f8565b602082019050919050565b5f6020820190508181035f83015261145981611420565b9050919050565b7f4e487b71000000000000000000000000000000000000000000000000000000005f52601160045260245ffd5b5f61149782610ca8565b91507fffffffffffffffffffffffffffffffffffffffffffffffffffffffffffffffff82036114c9576114c8611460565b5b60018201905091905056fea264697066735822122051440c51e7b6ec410cfe529315b9dd7791a526751d178a3be90f6e46b4759f0564736f6c63430008150033",
  "immutableReferences": {},
  "source": "// SPDX-License-Identifier: MIT \npragma solidity ^0.8.0;\n\ncontract ProjectVoting {\n    mapping(string => uint) public projectVotes;\n    mapping(address => bool) public hasVoted;\n    mapping(string => string) public projects;\n    mapping(address => string) public addressVotes;\n    string[] public projectIds;\n    address public owner;\n\n    constructor() {\n        owner = msg.sender;\n    }\n\n    function add(string memory projectName, string memory projectId) public {\n        require(bytes(projects[projectId]).length == 0, \"Project already exists\");\n        require(msg.sender == owner, \"Only owner can add projects\");        \n        projects[projectId] = projectName;\n        projectIds.push(projectId);    \n    }\n\n    function vote(string memory projectId) payable public {\n        require(msg.value >= 0.01 ether, \"Minimum 0.01 ether\");\n        require(!hasVoted[msg.sender], \"Already voted\");\n        \n        addressVotes[msg.sender] = projectId; \n        projectVotes[projectId]++;\n        hasVoted[msg.sender] = true;\n    }\n\n    function getVoteCount(string memory projectId) public view returns (uint) {\n        return projectVotes[projectId];\n    }\n\n    function getAll() public view returns (string[] memory) {\n        return projectIds;\n    }\n\n    function checkHasVoted() public view returns (bool) {\n        return hasVoted[msg.sender];\n    }\n\n    function getVote() public view returns (string memory) {\n        return  addressVotes[msg.sender]; \n    }\n}",
  "sourcePath": "/home/ddavis/Documents/web_dev/Projects/PersonalSite/backend/contracts/project-voting.sol",
  "compiler": {
    "name": "solc",
    "version": "0.8.21+commit.d9974bed.Emscripten.clang"
  },
  "schemaVersion": "3.4.16",
  "updatedAt": "2023-12-30T13:09:56.170Z",
  "networkType": "ethereum",
  "devdoc": {
    "kind": "dev",
    "methods": {},
    "version": 1
  },
  "userdoc": {
    "kind": "user",
    "methods": {},
    "version": 1
  }
}