{
  "contractName": "ProjectVoting",
  "abi": [
    {
      "inputs": [],
      "stateMutability": "nonpayable",
      "type": "constructor"
    },
    {
      "inputs": [
        {
          "internalType": "address",
          "name": "",
          "type": "address"
        }
      ],
      "name": "hasVoted",
      "outputs": [
        {
          "internalType": "bool",
          "name": "",
          "type": "bool"
        }
      ],
      "stateMutability": "view",
      "type": "function",
      "constant": true
    },
    {
      "inputs": [],
      "name": "owner",
      "outputs": [
        {
          "internalType": "address",
          "name": "",
          "type": "address"
        }
      ],
      "stateMutability": "view",
      "type": "function",
      "constant": true
    },
    {
      "inputs": [
        {
          "internalType": "uint256",
          "name": "",
          "type": "uint256"
        }
      ],
      "name": "projectIds",
      "outputs": [
        {
          "internalType": "uint256",
          "name": "",
          "type": "uint256"
        }
      ],
      "stateMutability": "view",
      "type": "function",
      "constant": true
    },
    {
      "inputs": [
        {
          "internalType": "uint256",
          "name": "",
          "type": "uint256"
        }
      ],
      "name": "projectVotes",
      "outputs": [
        {
          "internalType": "uint256",
          "name": "",
          "type": "uint256"
        }
      ],
      "stateMutability": "view",
      "type": "function",
      "constant": true
    },
    {
      "inputs": [
        {
          "internalType": "uint256",
          "name": "",
          "type": "uint256"
        }
      ],
      "name": "projects",
      "outputs": [
        {
          "internalType": "string",
          "name": "",
          "type": "string"
        }
      ],
      "stateMutability": "view",
      "type": "function",
      "constant": true
    },
    {
      "inputs": [
        {
          "internalType": "string",
          "name": "projectName",
          "type": "string"
        }
      ],
      "name": "addProject",
      "outputs": [],
      "stateMutability": "nonpayable",
      "type": "function"
    },
    {
      "inputs": [
        {
          "internalType": "uint256",
          "name": "projectId",
          "type": "uint256"
        }
      ],
      "name": "voteForProject",
      "outputs": [],
      "stateMutability": "nonpayable",
      "type": "function"
    },
    {
      "inputs": [
        {
          "internalType": "uint256",
          "name": "projectId",
          "type": "uint256"
        }
      ],
      "name": "getVoteCount",
      "outputs": [
        {
          "internalType": "uint256",
          "name": "",
          "type": "uint256"
        }
      ],
      "stateMutability": "view",
      "type": "function",
      "constant": true
    },
    {
      "inputs": [],
      "name": "getAllProjects",
      "outputs": [
        {
          "internalType": "uint256[]",
          "name": "",
          "type": "uint256[]"
        }
      ],
      "stateMutability": "view",
      "type": "function",
      "constant": true
    },
    {
      "inputs": [],
      "name": "getBalanceOf",
      "outputs": [
        {
          "internalType": "uint256",
          "name": "",
          "type": "uint256"
        }
      ],
      "stateMutability": "view",
      "type": "function",
      "constant": true
    },
    {
      "inputs": [
        {
          "internalType": "string",
          "name": "name",
          "type": "string"
        }
      ],
      "name": "getProjectByName",
      "outputs": [
        {
          "internalType": "uint256",
          "name": "",
          "type": "uint256"
        }
      ],
      "stateMutability": "view",
      "type": "function",
      "constant": true
    }
  ],
  "bytecode": "0x608060405234801561000f575f80fd5b503360045f6101000a81548173ffffffffffffffffffffffffffffffffffffffff021916908373ffffffffffffffffffffffffffffffffffffffff1602179055506110c38061005d5f395ff3fe608060405234801561000f575f80fd5b50600436106100a7575f3560e01c80634b77f2691161006f5780634b77f2691461018757806380d03829146101b757806383a67d38146101d55780638da5cb5b146101f1578063b2c2f2e81461020f578063ecbde5e61461023f576100a7565b806309eef43e146100ab5780630befd543146100db5780630ed047d41461010b578063107046bd1461012757806348c35ad414610157575b5f80fd5b6100c560048036038101906100c09190610739565b61025d565b6040516100d2919061077e565b60405180910390f35b6100f560048036038101906100f091906107ca565b61027a565b6040516101029190610804565b60405180910390f35b61012560048036038101906101209190610959565b61028e565b005b610141600480360381019061013c91906107ca565b61036f565b60405161014e9190610a1a565b60405180910390f35b610171600480360381019061016c91906107ca565b61040a565b60405161017e9190610804565b60405180910390f35b6101a1600480360381019061019c9190610959565b61042a565b6040516101ae9190610804565b60405180910390f35b6101bf6104ce565b6040516101cc9190610af1565b60405180910390f35b6101ef60048036038101906101ea91906107ca565b610524565b005b6101f9610689565b6040516102069190610b20565b60405180910390f35b610229600480360381019061022491906107ca565b6106ae565b6040516102369190610804565b60405180910390f35b6102476106c7565b6040516102549190610804565b60405180910390f35b6001602052805f5260405f205f915054906101000a900460ff1681565b5f602052805f5260405f205f915090505481565b60045f9054906101000a900473ffffffffffffffffffffffffffffffffffffffff1673ffffffffffffffffffffffffffffffffffffffff163373ffffffffffffffffffffffffffffffffffffffff161461031d576040517f08c379a000000000000000000000000000000000000000000000000000000000815260040161031490610b83565b60405180910390fd5b5f60038054905090508160025f8381526020019081526020015f2090816103449190610d9b565b50600381908060018154018082558091505060019003905f5260205f20015f90919091909150555050565b6002602052805f5260405f205f91509050805461038b90610bce565b80601f01602080910402602001604051908101604052809291908181526020018280546103b790610bce565b80156104025780601f106103d957610100808354040283529160200191610402565b820191905f5260205f20905b8154815290600101906020018083116103e557829003601f168201915b505050505081565b60038181548110610419575f80fd5b905f5260205f20015f915090505481565b5f805f90505b6003805490508110156104c457828051906020012060025f6003848154811061045c5761045b610e6a565b5b905f5260205f20015481526020019081526020015f2060405161047f9190610f33565b6040518091039020036104b157600381815481106104a05761049f610e6a565b5b905f5260205f2001549150506104c9565b80806104bc90610f76565b915050610430565b505f90505b919050565b6060600380548060200260200160405190810160405280929190818152602001828054801561051a57602002820191905f5260205f20905b815481526020019060010190808311610506575b5050505050905090565b60015f3373ffffffffffffffffffffffffffffffffffffffff1673ffffffffffffffffffffffffffffffffffffffff1681526020019081526020015f205f9054906101000a900460ff16156105ae576040517f08c379a00000000000000000000000000000000000000000000000000000000081526004016105a590611007565b60405180910390fd5b5f60025f8381526020019081526020015f2080546105cb90610bce565b90501161060d576040517f08c379a00000000000000000000000000000000000000000000000000000000081526004016106049061106f565b60405180910390fd5b5f808281526020019081526020015f205f81548092919061062d90610f76565b91905055506001805f3373ffffffffffffffffffffffffffffffffffffffff1673ffffffffffffffffffffffffffffffffffffffff1681526020019081526020015f205f6101000a81548160ff02191690831515021790555050565b60045f9054906101000a900473ffffffffffffffffffffffffffffffffffffffff1681565b5f805f8381526020019081526020015f20549050919050565b5f47905090565b5f604051905090565b5f80fd5b5f80fd5b5f73ffffffffffffffffffffffffffffffffffffffff82169050919050565b5f610708826106df565b9050919050565b610718816106fe565b8114610722575f80fd5b50565b5f813590506107338161070f565b92915050565b5f6020828403121561074e5761074d6106d7565b5b5f61075b84828501610725565b91505092915050565b5f8115159050919050565b61077881610764565b82525050565b5f6020820190506107915f83018461076f565b92915050565b5f819050919050565b6107a981610797565b81146107b3575f80fd5b50565b5f813590506107c4816107a0565b92915050565b5f602082840312156107df576107de6106d7565b5b5f6107ec848285016107b6565b91505092915050565b6107fe81610797565b82525050565b5f6020820190506108175f8301846107f5565b92915050565b5f80fd5b5f80fd5b5f601f19601f8301169050919050565b7f4e487b71000000000000000000000000000000000000000000000000000000005f52604160045260245ffd5b61086b82610825565b810181811067ffffffffffffffff8211171561088a57610889610835565b5b80604052505050565b5f61089c6106ce565b90506108a88282610862565b919050565b5f67ffffffffffffffff8211156108c7576108c6610835565b5b6108d082610825565b9050602081019050919050565b828183375f83830152505050565b5f6108fd6108f8846108ad565b610893565b90508281526020810184848401111561091957610918610821565b5b6109248482856108dd565b509392505050565b5f82601f8301126109405761093f61081d565b5b81356109508482602086016108eb565b91505092915050565b5f6020828403121561096e5761096d6106d7565b5b5f82013567ffffffffffffffff81111561098b5761098a6106db565b5b6109978482850161092c565b91505092915050565b5f81519050919050565b5f82825260208201905092915050565b5f5b838110156109d75780820151818401526020810190506109bc565b5f8484015250505050565b5f6109ec826109a0565b6109f681856109aa565b9350610a068185602086016109ba565b610a0f81610825565b840191505092915050565b5f6020820190508181035f830152610a3281846109e2565b905092915050565b5f81519050919050565b5f82825260208201905092915050565b5f819050602082019050919050565b610a6c81610797565b82525050565b5f610a7d8383610a63565b60208301905092915050565b5f602082019050919050565b5f610a9f82610a3a565b610aa98185610a44565b9350610ab483610a54565b805f5b83811015610ae4578151610acb8882610a72565b9750610ad683610a89565b925050600181019050610ab7565b5085935050505092915050565b5f6020820190508181035f830152610b098184610a95565b905092915050565b610b1a816106fe565b82525050565b5f602082019050610b335f830184610b11565b92915050565b7f4f6e6c79206f776e65722063616e206164642070726f6a6563747300000000005f82015250565b5f610b6d601b836109aa565b9150610b7882610b39565b602082019050919050565b5f6020820190508181035f830152610b9a81610b61565b9050919050565b7f4e487b71000000000000000000000000000000000000000000000000000000005f52602260045260245ffd5b5f6002820490506001821680610be557607f821691505b602082108103610bf857610bf7610ba1565b5b50919050565b5f819050815f5260205f209050919050565b5f6020601f8301049050919050565b5f82821b905092915050565b5f60088302610c5a7fffffffffffffffffffffffffffffffffffffffffffffffffffffffffffffffff82610c1f565b610c648683610c1f565b95508019841693508086168417925050509392505050565b5f819050919050565b5f610c9f610c9a610c9584610797565b610c7c565b610797565b9050919050565b5f819050919050565b610cb883610c85565b610ccc610cc482610ca6565b848454610c2b565b825550505050565b5f90565b610ce0610cd4565b610ceb818484610caf565b505050565b5b81811015610d0e57610d035f82610cd8565b600181019050610cf1565b5050565b601f821115610d5357610d2481610bfe565b610d2d84610c10565b81016020851015610d3c578190505b610d50610d4885610c10565b830182610cf0565b50505b505050565b5f82821c905092915050565b5f610d735f1984600802610d58565b1980831691505092915050565b5f610d8b8383610d64565b9150826002028217905092915050565b610da4826109a0565b67ffffffffffffffff811115610dbd57610dbc610835565b5b610dc78254610bce565b610dd2828285610d12565b5f60209050601f831160018114610e03575f8415610df1578287015190505b610dfb8582610d80565b865550610e62565b601f198416610e1186610bfe565b5f5b82811015610e3857848901518255600182019150602085019450602081019050610e13565b86831015610e555784890151610e51601f891682610d64565b8355505b6001600288020188555050505b505050505050565b7f4e487b71000000000000000000000000000000000000000000000000000000005f52603260045260245ffd5b5f81905092915050565b5f819050815f5260205f209050919050565b5f8154610ebf81610bce565b610ec98186610e97565b9450600182165f8114610ee35760018114610ef857610f2a565b60ff1983168652811515820286019350610f2a565b610f0185610ea1565b5f5b83811015610f2257815481890152600182019150602081019050610f03565b838801955050505b50505092915050565b5f610f3e8284610eb3565b915081905092915050565b7f4e487b71000000000000000000000000000000000000000000000000000000005f52601160045260245ffd5b5f610f8082610797565b91507fffffffffffffffffffffffffffffffffffffffffffffffffffffffffffffffff8203610fb257610fb1610f49565b5b600182019050919050565b7f416c726561647920766f746564000000000000000000000000000000000000005f82015250565b5f610ff1600d836109aa565b9150610ffc82610fbd565b602082019050919050565b5f6020820190508181035f83015261101e81610fe5565b9050919050565b7f50726f6a65637420646f6573206e6f74206578697374000000000000000000005f82015250565b5f6110596016836109aa565b915061106482611025565b602082019050919050565b5f6020820190508181035f8301526110868161104d565b905091905056fea264697066735822122034f3d5ea229fcf234baff94b69f7866d532f69cb395c7570444c6a9b429b824064736f6c63430008150033",
  "immutableReferences": {},
  "source": "// SPDX-License-Identifier: MIT \npragma solidity ^0.8.0;\n\ncontract ProjectVoting {\n    mapping(uint => uint) public projectVotes;\n    mapping(address => bool) public hasVoted;\n    mapping(uint => string) public projects;\n    uint[] public projectIds;\n    address public owner;\n\n    constructor() {\n        owner = msg.sender;\n    }\n\n    function addProject(string memory projectName) public {\n        require(msg.sender == owner, \"Only owner can add projects\");        \n        uint projectId = projectIds.length;\n        projects[projectId] = projectName;\n        projectIds.push(projectId);\n    }\n\n    function voteForProject(uint projectId) public {\n        require(!hasVoted[msg.sender], \"Already voted\");\n        require(bytes(projects[projectId]).length > 0, \"Project does not exist\");\n\n        projectVotes[projectId]++;\n        hasVoted[msg.sender] = true;\n    }\n\n    function getVoteCount(uint projectId) public view returns (uint) {\n        return projectVotes[projectId];\n    }\n\n    function getAllProjects() public view returns (uint[] memory) {\n        return projectIds;\n    }\n\n    function getBalanceOf() public view returns (uint) {\n        return address(this).balance;\n    }\n\n    function getProjectByName(string memory name) public view returns (uint) {\n        for (uint i = 0; i < projectIds.length; i++) {\n            if (keccak256(bytes(projects[projectIds[i]])) == keccak256(bytes(name))) {\n                return projectIds[i];\n            }\n        }\n        return 0;\n    }\n\n}",
  "sourcePath": "/home/ddavis/Documents/web_dev/Projects/PersonalSite/backend/contracts/project-voting.sol",
  "compiler": {
    "name": "solc",
    "version": "0.8.21+commit.d9974bed.Emscripten.clang"
  },
  "schemaVersion": "3.4.16",
  "updatedAt": "2023-12-27T11:47:10.599Z",
  "networkType": "ethereum",
  "devdoc": {
    "kind": "dev",
    "methods": {},
    "version": 1
  },
  "userdoc": {
    "kind": "user",
    "methods": {},
    "version": 1
  }
}