{
  "contractName": "ProjectVoting",
  "abi": [
    {
      "inputs": [],
      "stateMutability": "nonpayable",
      "type": "constructor"
    },
    {
      "inputs": [
        {
          "internalType": "address",
          "name": "",
          "type": "address"
        }
      ],
      "name": "hasVoted",
      "outputs": [
        {
          "internalType": "bool",
          "name": "",
          "type": "bool"
        }
      ],
      "stateMutability": "view",
      "type": "function",
      "constant": true
    },
    {
      "inputs": [],
      "name": "owner",
      "outputs": [
        {
          "internalType": "address",
          "name": "",
          "type": "address"
        }
      ],
      "stateMutability": "view",
      "type": "function",
      "constant": true
    },
    {
      "inputs": [
        {
          "internalType": "uint256",
          "name": "",
          "type": "uint256"
        }
      ],
      "name": "projectIds",
      "outputs": [
        {
          "internalType": "uint256",
          "name": "",
          "type": "uint256"
        }
      ],
      "stateMutability": "view",
      "type": "function",
      "constant": true
    },
    {
      "inputs": [
        {
          "internalType": "uint256",
          "name": "",
          "type": "uint256"
        }
      ],
      "name": "projectVotes",
      "outputs": [
        {
          "internalType": "uint256",
          "name": "",
          "type": "uint256"
        }
      ],
      "stateMutability": "view",
      "type": "function",
      "constant": true
    },
    {
      "inputs": [
        {
          "internalType": "uint256",
          "name": "",
          "type": "uint256"
        }
      ],
      "name": "projects",
      "outputs": [
        {
          "internalType": "string",
          "name": "",
          "type": "string"
        }
      ],
      "stateMutability": "view",
      "type": "function",
      "constant": true
    },
    {
      "inputs": [
        {
          "internalType": "string",
          "name": "projectName",
          "type": "string"
        }
      ],
      "name": "addProject",
      "outputs": [],
      "stateMutability": "nonpayable",
      "type": "function"
    },
    {
      "inputs": [
        {
          "internalType": "uint256",
          "name": "projectId",
          "type": "uint256"
        }
      ],
      "name": "voteForProject",
      "outputs": [],
      "stateMutability": "payable",
      "type": "function",
      "payable": true
    },
    {
      "inputs": [
        {
          "internalType": "uint256",
          "name": "projectId",
          "type": "uint256"
        }
      ],
      "name": "getVoteCount",
      "outputs": [
        {
          "internalType": "uint256",
          "name": "",
          "type": "uint256"
        }
      ],
      "stateMutability": "view",
      "type": "function",
      "constant": true
    },
    {
      "inputs": [],
      "name": "getAllProjects",
      "outputs": [
        {
          "internalType": "uint256[]",
          "name": "",
          "type": "uint256[]"
        }
      ],
      "stateMutability": "view",
      "type": "function",
      "constant": true
    },
    {
      "inputs": [],
      "name": "getBalanceOf",
      "outputs": [
        {
          "internalType": "uint256",
          "name": "",
          "type": "uint256"
        }
      ],
      "stateMutability": "view",
      "type": "function",
      "constant": true
    },
    {
      "inputs": [],
      "name": "hasVotedForProject",
      "outputs": [
        {
          "internalType": "bool",
          "name": "",
          "type": "bool"
        }
      ],
      "stateMutability": "view",
      "type": "function",
      "constant": true
    }
  ],
  "bytecode": "0x608060405234801561000f575f80fd5b503360045f6101000a81548173ffffffffffffffffffffffffffffffffffffffff021916908373ffffffffffffffffffffffffffffffffffffffff16021790555061109c8061005d5f395ff3fe60806040526004361061009b575f3560e01c80634b80b52c116100635780634b80b52c146101b757806380d03829146101e157806383a67d381461020b5780638da5cb5b14610227578063b2c2f2e814610251578063ecbde5e61461028d5761009b565b806309eef43e1461009f5780630befd543146100db5780630ed047d414610117578063107046bd1461013f57806348c35ad41461017b575b5f80fd5b3480156100aa575f80fd5b506100c560048036038101906100c09190610789565b6102b7565b6040516100d291906107ce565b60405180910390f35b3480156100e6575f80fd5b5061010160048036038101906100fc919061081a565b6102d4565b60405161010e9190610854565b60405180910390f35b348015610122575f80fd5b5061013d600480360381019061013891906109a9565b6102e8565b005b34801561014a575f80fd5b506101656004803603810190610160919061081a565b6103c9565b6040516101729190610a6a565b60405180910390f35b348015610186575f80fd5b506101a1600480360381019061019c919061081a565b610464565b6040516101ae9190610854565b60405180910390f35b3480156101c2575f80fd5b506101cb610484565b6040516101d891906107ce565b60405180910390f35b3480156101ec575f80fd5b506101f56104d4565b6040516102029190610b41565b60405180910390f35b6102256004803603810190610220919061081a565b61052a565b005b348015610232575f80fd5b5061023b6106d9565b6040516102489190610b70565b60405180910390f35b34801561025c575f80fd5b506102776004803603810190610272919061081a565b6106fe565b6040516102849190610854565b60405180910390f35b348015610298575f80fd5b506102a1610717565b6040516102ae9190610854565b60405180910390f35b6001602052805f5260405f205f915054906101000a900460ff1681565b5f602052805f5260405f205f915090505481565b60045f9054906101000a900473ffffffffffffffffffffffffffffffffffffffff1673ffffffffffffffffffffffffffffffffffffffff163373ffffffffffffffffffffffffffffffffffffffff1614610377576040517f08c379a000000000000000000000000000000000000000000000000000000000815260040161036e90610bd3565b60405180910390fd5b5f60038054905090508160025f8381526020019081526020015f20908161039e9190610deb565b50600381908060018154018082558091505060019003905f5260205f20015f90919091909150555050565b6002602052805f5260405f205f9150905080546103e590610c1e565b80601f016020809104026020016040519081016040528092919081815260200182805461041190610c1e565b801561045c5780601f106104335761010080835404028352916020019161045c565b820191905f5260205f20905b81548152906001019060200180831161043f57829003601f168201915b505050505081565b60038181548110610473575f80fd5b905f5260205f20015f915090505481565b5f60015f3373ffffffffffffffffffffffffffffffffffffffff1673ffffffffffffffffffffffffffffffffffffffff1681526020019081526020015f205f9054906101000a900460ff16905090565b6060600380548060200260200160405190810160405280929190818152602001828054801561052057602002820191905f5260205f20905b81548152602001906001019080831161050c575b5050505050905090565b662386f26fc10000341015610574576040517f08c379a000000000000000000000000000000000000000000000000000000000815260040161056b90610f04565b60405180910390fd5b60015f3373ffffffffffffffffffffffffffffffffffffffff1673ffffffffffffffffffffffffffffffffffffffff1681526020019081526020015f205f9054906101000a900460ff16156105fe576040517f08c379a00000000000000000000000000000000000000000000000000000000081526004016105f590610f6c565b60405180910390fd5b5f60025f8381526020019081526020015f20805461061b90610c1e565b90501161065d576040517f08c379a000000000000000000000000000000000000000000000000000000000815260040161065490610fd4565b60405180910390fd5b5f808281526020019081526020015f205f81548092919061067d9061101f565b91905055506001805f3373ffffffffffffffffffffffffffffffffffffffff1673ffffffffffffffffffffffffffffffffffffffff1681526020019081526020015f205f6101000a81548160ff02191690831515021790555050565b60045f9054906101000a900473ffffffffffffffffffffffffffffffffffffffff1681565b5f805f8381526020019081526020015f20549050919050565b5f47905090565b5f604051905090565b5f80fd5b5f80fd5b5f73ffffffffffffffffffffffffffffffffffffffff82169050919050565b5f6107588261072f565b9050919050565b6107688161074e565b8114610772575f80fd5b50565b5f813590506107838161075f565b92915050565b5f6020828403121561079e5761079d610727565b5b5f6107ab84828501610775565b91505092915050565b5f8115159050919050565b6107c8816107b4565b82525050565b5f6020820190506107e15f8301846107bf565b92915050565b5f819050919050565b6107f9816107e7565b8114610803575f80fd5b50565b5f81359050610814816107f0565b92915050565b5f6020828403121561082f5761082e610727565b5b5f61083c84828501610806565b91505092915050565b61084e816107e7565b82525050565b5f6020820190506108675f830184610845565b92915050565b5f80fd5b5f80fd5b5f601f19601f8301169050919050565b7f4e487b71000000000000000000000000000000000000000000000000000000005f52604160045260245ffd5b6108bb82610875565b810181811067ffffffffffffffff821117156108da576108d9610885565b5b80604052505050565b5f6108ec61071e565b90506108f882826108b2565b919050565b5f67ffffffffffffffff82111561091757610916610885565b5b61092082610875565b9050602081019050919050565b828183375f83830152505050565b5f61094d610948846108fd565b6108e3565b90508281526020810184848401111561096957610968610871565b5b61097484828561092d565b509392505050565b5f82601f8301126109905761098f61086d565b5b81356109a084826020860161093b565b91505092915050565b5f602082840312156109be576109bd610727565b5b5f82013567ffffffffffffffff8111156109db576109da61072b565b5b6109e78482850161097c565b91505092915050565b5f81519050919050565b5f82825260208201905092915050565b5f5b83811015610a27578082015181840152602081019050610a0c565b5f8484015250505050565b5f610a3c826109f0565b610a4681856109fa565b9350610a56818560208601610a0a565b610a5f81610875565b840191505092915050565b5f6020820190508181035f830152610a828184610a32565b905092915050565b5f81519050919050565b5f82825260208201905092915050565b5f819050602082019050919050565b610abc816107e7565b82525050565b5f610acd8383610ab3565b60208301905092915050565b5f602082019050919050565b5f610aef82610a8a565b610af98185610a94565b9350610b0483610aa4565b805f5b83811015610b34578151610b1b8882610ac2565b9750610b2683610ad9565b925050600181019050610b07565b5085935050505092915050565b5f6020820190508181035f830152610b598184610ae5565b905092915050565b610b6a8161074e565b82525050565b5f602082019050610b835f830184610b61565b92915050565b7f4f6e6c79206f776e65722063616e206164642070726f6a6563747300000000005f82015250565b5f610bbd601b836109fa565b9150610bc882610b89565b602082019050919050565b5f6020820190508181035f830152610bea81610bb1565b9050919050565b7f4e487b71000000000000000000000000000000000000000000000000000000005f52602260045260245ffd5b5f6002820490506001821680610c3557607f821691505b602082108103610c4857610c47610bf1565b5b50919050565b5f819050815f5260205f209050919050565b5f6020601f8301049050919050565b5f82821b905092915050565b5f60088302610caa7fffffffffffffffffffffffffffffffffffffffffffffffffffffffffffffffff82610c6f565b610cb48683610c6f565b95508019841693508086168417925050509392505050565b5f819050919050565b5f610cef610cea610ce5846107e7565b610ccc565b6107e7565b9050919050565b5f819050919050565b610d0883610cd5565b610d1c610d1482610cf6565b848454610c7b565b825550505050565b5f90565b610d30610d24565b610d3b818484610cff565b505050565b5b81811015610d5e57610d535f82610d28565b600181019050610d41565b5050565b601f821115610da357610d7481610c4e565b610d7d84610c60565b81016020851015610d8c578190505b610da0610d9885610c60565b830182610d40565b50505b505050565b5f82821c905092915050565b5f610dc35f1984600802610da8565b1980831691505092915050565b5f610ddb8383610db4565b9150826002028217905092915050565b610df4826109f0565b67ffffffffffffffff811115610e0d57610e0c610885565b5b610e178254610c1e565b610e22828285610d62565b5f60209050601f831160018114610e53575f8415610e41578287015190505b610e4b8582610dd0565b865550610eb2565b601f198416610e6186610c4e565b5f5b82811015610e8857848901518255600182019150602085019450602081019050610e63565b86831015610ea55784890151610ea1601f891682610db4565b8355505b6001600288020188555050505b505050505050565b7f4d696e696d756d20302e303120657468657200000000000000000000000000005f82015250565b5f610eee6012836109fa565b9150610ef982610eba565b602082019050919050565b5f6020820190508181035f830152610f1b81610ee2565b9050919050565b7f416c726561647920766f746564000000000000000000000000000000000000005f82015250565b5f610f56600d836109fa565b9150610f6182610f22565b602082019050919050565b5f6020820190508181035f830152610f8381610f4a565b9050919050565b7f50726f6a65637420646f6573206e6f74206578697374000000000000000000005f82015250565b5f610fbe6016836109fa565b9150610fc982610f8a565b602082019050919050565b5f6020820190508181035f830152610feb81610fb2565b9050919050565b7f4e487b71000000000000000000000000000000000000000000000000000000005f52601160045260245ffd5b5f611029826107e7565b91507fffffffffffffffffffffffffffffffffffffffffffffffffffffffffffffffff820361105b5761105a610ff2565b5b60018201905091905056fea26469706673582212208c1f7a75ecc24b20bb677ec719ba895a393c4339eacc788205d4e188e9e9e2f164736f6c63430008150033",
  "immutableReferences": {},
  "source": "// SPDX-License-Identifier: MIT \npragma solidity ^0.8.0;\n\ncontract ProjectVoting {\n    mapping(uint => uint) public projectVotes;\n    mapping(address => bool) public hasVoted;\n    mapping(uint => string) public projects;\n    uint[] public projectIds;\n    address public owner;\n\n    constructor() {\n        owner = msg.sender;\n    }\n\n    function addProject(string memory projectName) public {\n        require(msg.sender == owner, \"Only owner can add projects\");        \n        uint projectId = projectIds.length;\n        projects[projectId] = projectName;\n        projectIds.push(projectId);\n    }\n\n    function voteForProject(uint projectId) payable public {\n        require(msg.value >= 0.01 ether, \"Minimum 0.01 ether\");\n        require(!hasVoted[msg.sender], \"Already voted\");\n        require(bytes(projects[projectId]).length > 0, \"Project does not exist\");\n\n        projectVotes[projectId]++;\n        hasVoted[msg.sender] = true;\n    }\n\n    function getVoteCount(uint projectId) public view returns (uint) {\n        return projectVotes[projectId];\n    }\n\n    function getAllProjects() public view returns (uint[] memory) {\n        return projectIds;\n    }\n\n    function getBalanceOf() public view returns (uint) {\n        return address(this).balance;\n    }\n\n    function hasVotedForProject() public view returns (bool) {\n        return hasVoted[msg.sender];\n    }\n}",
  "sourcePath": "/home/ddavis/Documents/web_dev/Projects/PersonalSite/backend/contracts/project-voting.sol",
  "compiler": {
    "name": "solc",
    "version": "0.8.21+commit.d9974bed.Emscripten.clang"
  },
  "schemaVersion": "3.4.16",
  "updatedAt": "2023-12-28T18:11:30.377Z",
  "networkType": "ethereum",
  "devdoc": {
    "kind": "dev",
    "methods": {},
    "version": 1
  },
  "userdoc": {
    "kind": "user",
    "methods": {},
    "version": 1
  }
}