{
  "contractName": "ProjectVoting",
  "abi": [
    {
      "inputs": [],
      "stateMutability": "nonpayable",
      "type": "constructor"
    },
    {
      "inputs": [
        {
          "internalType": "address",
          "name": "account",
          "type": "address"
        }
      ],
      "name": "AddressInsufficientBalance",
      "type": "error"
    },
    {
      "inputs": [],
      "name": "FailedInnerCall",
      "type": "error"
    },
    {
      "anonymous": false,
      "inputs": [
        {
          "indexed": false,
          "internalType": "address",
          "name": "recipient",
          "type": "address"
        },
        {
          "indexed": false,
          "internalType": "uint256",
          "name": "amount",
          "type": "uint256"
        }
      ],
      "name": "AutoTransferExecuted",
      "type": "event"
    },
    {
      "anonymous": false,
      "inputs": [
        {
          "indexed": false,
          "internalType": "string",
          "name": "projectId",
          "type": "string"
        },
        {
          "indexed": false,
          "internalType": "string",
          "name": "projectName",
          "type": "string"
        }
      ],
      "name": "ProjectAdded",
      "type": "event"
    },
    {
      "anonymous": false,
      "inputs": [
        {
          "indexed": false,
          "internalType": "address",
          "name": "voter",
          "type": "address"
        },
        {
          "indexed": false,
          "internalType": "string",
          "name": "projectId",
          "type": "string"
        }
      ],
      "name": "Voted",
      "type": "event"
    },
    {
      "inputs": [
        {
          "internalType": "address",
          "name": "",
          "type": "address"
        }
      ],
      "name": "addressVotes",
      "outputs": [
        {
          "internalType": "string",
          "name": "",
          "type": "string"
        }
      ],
      "stateMutability": "view",
      "type": "function",
      "constant": true
    },
    {
      "inputs": [
        {
          "internalType": "address",
          "name": "",
          "type": "address"
        }
      ],
      "name": "hasVoted",
      "outputs": [
        {
          "internalType": "bool",
          "name": "",
          "type": "bool"
        }
      ],
      "stateMutability": "view",
      "type": "function",
      "constant": true
    },
    {
      "inputs": [
        {
          "internalType": "uint256",
          "name": "",
          "type": "uint256"
        }
      ],
      "name": "projectIds",
      "outputs": [
        {
          "internalType": "string",
          "name": "",
          "type": "string"
        }
      ],
      "stateMutability": "view",
      "type": "function",
      "constant": true
    },
    {
      "inputs": [
        {
          "internalType": "string",
          "name": "",
          "type": "string"
        }
      ],
      "name": "projectVotes",
      "outputs": [
        {
          "internalType": "uint256",
          "name": "",
          "type": "uint256"
        }
      ],
      "stateMutability": "view",
      "type": "function",
      "constant": true
    },
    {
      "inputs": [
        {
          "internalType": "string",
          "name": "",
          "type": "string"
        }
      ],
      "name": "projects",
      "outputs": [
        {
          "internalType": "string",
          "name": "",
          "type": "string"
        }
      ],
      "stateMutability": "view",
      "type": "function",
      "constant": true
    },
    {
      "inputs": [
        {
          "internalType": "string",
          "name": "projectName",
          "type": "string"
        },
        {
          "internalType": "string",
          "name": "projectId",
          "type": "string"
        }
      ],
      "name": "add",
      "outputs": [],
      "stateMutability": "nonpayable",
      "type": "function"
    },
    {
      "inputs": [
        {
          "internalType": "string",
          "name": "projectId",
          "type": "string"
        }
      ],
      "name": "vote",
      "outputs": [],
      "stateMutability": "payable",
      "type": "function",
      "payable": true
    },
    {
      "inputs": [],
      "name": "voteTest",
      "outputs": [
        {
          "internalType": "uint256",
          "name": "",
          "type": "uint256"
        }
      ],
      "stateMutability": "payable",
      "type": "function",
      "payable": true
    },
    {
      "inputs": [
        {
          "internalType": "string",
          "name": "projectId",
          "type": "string"
        }
      ],
      "name": "getVoteCount",
      "outputs": [
        {
          "internalType": "uint256",
          "name": "",
          "type": "uint256"
        }
      ],
      "stateMutability": "view",
      "type": "function",
      "constant": true
    },
    {
      "inputs": [],
      "name": "getAll",
      "outputs": [
        {
          "internalType": "string[]",
          "name": "",
          "type": "string[]"
        }
      ],
      "stateMutability": "view",
      "type": "function",
      "constant": true
    },
    {
      "inputs": [],
      "name": "checkHasVoted",
      "outputs": [
        {
          "internalType": "bool",
          "name": "",
          "type": "bool"
        }
      ],
      "stateMutability": "view",
      "type": "function",
      "constant": true
    },
    {
      "inputs": [],
      "name": "getVote",
      "outputs": [
        {
          "internalType": "string",
          "name": "",
          "type": "string"
        }
      ],
      "stateMutability": "view",
      "type": "function",
      "constant": true
    },
    {
      "inputs": [],
      "name": "getBalance",
      "outputs": [
        {
          "internalType": "uint256",
          "name": "",
          "type": "uint256"
        }
      ],
      "stateMutability": "view",
      "type": "function",
      "constant": true
    },
    {
      "inputs": [],
      "name": "getThreshold",
      "outputs": [
        {
          "internalType": "uint256",
          "name": "",
          "type": "uint256"
        }
      ],
      "stateMutability": "view",
      "type": "function",
      "constant": true
    },
    {
      "inputs": [
        {
          "internalType": "address",
          "name": "newOwner",
          "type": "address"
        }
      ],
      "name": "transferOwnership",
      "outputs": [],
      "stateMutability": "nonpayable",
      "type": "function"
    },
    {
      "inputs": [],
      "name": "withdraw",
      "outputs": [],
      "stateMutability": "nonpayable",
      "type": "function"
    }
  ],
  "bytecode": "0x608060405267016345785d8a000060075534801561001b575f80fd5b503360055f6101000a81548173ffffffffffffffffffffffffffffffffffffffff021916908373ffffffffffffffffffffffffffffffffffffffff1602179055506121a6806100695f395ff3fe6080604052600436106100f2575f3560e01c806391c9b26811610089578063e75235b811610058578063e75235b81461033a578063ebdf86ca14610364578063f2fde38b1461038c578063fc36e15b146103b4576100f2565b806391c9b2681461026857806395dacd52146102a4578063a34bb6e6146102c2578063c4c91110146102fe576100f2565b80631234ce9d116100c55780631234ce9d146101c25780633ccfd60b146101ec57806348c35ad41461020257806353ed51431461023e576100f2565b80630242f351146100f6578063069953a71461012057806309eef43e1461015c57806312065fe014610198575b5f80fd5b348015610101575f80fd5b5061010a6103d0565b6040516101179190611318565b60405180910390f35b34801561012b575f80fd5b5061014660048036038101906101419190611475565b61049b565b60405161015391906114d4565b60405180910390f35b348015610167575f80fd5b50610182600480360381019061017d9190611547565b6104c1565b60405161018f919061158c565b60405180910390f35b3480156101a3575f80fd5b506101ac6104de565b6040516101b991906114d4565b60405180910390f35b3480156101cd575f80fd5b506101d66104e5565b6040516101e3919061158c565b60405180910390f35b3480156101f7575f80fd5b50610200610535565b005b34801561020d575f80fd5b50610228600480360381019061022391906115cf565b61062b565b6040516102359190611318565b60405180910390f35b348015610249575f80fd5b506102526106d1565b60405161025f91906116fd565b60405180910390f35b348015610273575f80fd5b5061028e60048036038101906102899190611475565b6107a5565b60405161029b9190611318565b60405180910390f35b6102ac610858565b6040516102b991906114d4565b60405180910390f35b3480156102cd575f80fd5b506102e860048036038101906102e39190611547565b61085f565b6040516102f59190611318565b60405180910390f35b348015610309575f80fd5b50610324600480360381019061031f9190611475565b6108fa565b60405161033191906114d4565b60405180910390f35b348015610345575f80fd5b5061034e610926565b60405161035b91906114d4565b60405180910390f35b34801561036f575f80fd5b5061038a6004803603810190610385919061171d565b61092f565b005b348015610397575f80fd5b506103b260048036038101906103ad9190611547565b610b4b565b005b6103ce60048036038101906103c99190611475565b610c8b565b005b606060035f3373ffffffffffffffffffffffffffffffffffffffff1673ffffffffffffffffffffffffffffffffffffffff1681526020019081526020015f20805461041a906117c0565b80601f0160208091040260200160405190810160405280929190818152602001828054610446906117c0565b80156104915780601f1061046857610100808354040283529160200191610491565b820191905f5260205f20905b81548152906001019060200180831161047457829003601f168201915b5050505050905090565b5f80826040516104ab919061182a565b9081526020016040518091039020549050919050565b6001602052805f5260405f205f915054906101000a900460ff1681565b5f47905090565b5f60015f3373ffffffffffffffffffffffffffffffffffffffff1673ffffffffffffffffffffffffffffffffffffffff1681526020019081526020015f205f9054906101000a900460ff16905090565b60055f9054906101000a900473ffffffffffffffffffffffffffffffffffffffff1673ffffffffffffffffffffffffffffffffffffffff163373ffffffffffffffffffffffffffffffffffffffff16146105c4576040517f08c379a00000000000000000000000000000000000000000000000000000000081526004016105bb9061188a565b60405180910390fd5b60055f9054906101000a900473ffffffffffffffffffffffffffffffffffffffff1673ffffffffffffffffffffffffffffffffffffffff166108fc4790811502906040515f60405180830381858888f19350505050158015610628573d5f803e3d5ffd5b50565b6004818154811061063a575f80fd5b905f5260205f20015f915090508054610652906117c0565b80601f016020809104026020016040519081016040528092919081815260200182805461067e906117c0565b80156106c95780601f106106a0576101008083540402835291602001916106c9565b820191905f5260205f20905b8154815290600101906020018083116106ac57829003601f168201915b505050505081565b60606004805480602002602001604051908101604052809291908181526020015f905b8282101561079c578382905f5260205f20018054610711906117c0565b80601f016020809104026020016040519081016040528092919081815260200182805461073d906117c0565b80156107885780601f1061075f57610100808354040283529160200191610788565b820191905f5260205f20905b81548152906001019060200180831161076b57829003601f168201915b5050505050815260200190600101906106f4565b50505050905090565b6002818051602081018201805184825260208301602085012081835280955050505050505f9150905080546107d9906117c0565b80601f0160208091040260200160405190810160405280929190818152602001828054610805906117c0565b80156108505780601f1061082757610100808354040283529160200191610850565b820191905f5260205f20905b81548152906001019060200180831161083357829003601f168201915b505050505081565b5f34905090565b6003602052805f5260405f205f91509050805461087b906117c0565b80601f01602080910402602001604051908101604052809291908181526020018280546108a7906117c0565b80156108f25780601f106108c9576101008083540402835291602001916108f2565b820191905f5260205f20905b8154815290600101906020018083116108d557829003601f168201915b505050505081565b5f818051602081018201805184825260208301602085012081835280955050505050505f915090505481565b5f600754905090565b60055f9054906101000a900473ffffffffffffffffffffffffffffffffffffffff1673ffffffffffffffffffffffffffffffffffffffff163373ffffffffffffffffffffffffffffffffffffffff16146109be576040517f08c379a00000000000000000000000000000000000000000000000000000000081526004016109b59061188a565b60405180910390fd5b5f6002826040516109cf919061182a565b908152602001604051809103902080546109e8906117c0565b905014610a2a576040517f08c379a0000000000000000000000000000000000000000000000000000000008152600401610a21906118f2565b60405180910390fd5b5f825111610a6d576040517f08c379a0000000000000000000000000000000000000000000000000000000008152600401610a649061195a565b60405180910390fd5b5f815111610ab0576040517f08c379a0000000000000000000000000000000000000000000000000000000008152600401610aa7906119c2565b60405180910390fd5b81600282604051610ac1919061182a565b90815260200160405180910390209081610adb9190611b7d565b50600481908060018154018082558091505060019003905f5260205f20015f909190919091509081610b0d9190611b7d565b507feb5d6000a362475be9d9b16beddc148b7004850daf2e69325a403d613567769e8183604051610b3f929190611c4c565b60405180910390a15050565b60055f9054906101000a900473ffffffffffffffffffffffffffffffffffffffff1673ffffffffffffffffffffffffffffffffffffffff163373ffffffffffffffffffffffffffffffffffffffff1614610bda576040517f08c379a0000000000000000000000000000000000000000000000000000000008152600401610bd19061188a565b60405180910390fd5b5f73ffffffffffffffffffffffffffffffffffffffff168173ffffffffffffffffffffffffffffffffffffffff1603610c48576040517f08c379a0000000000000000000000000000000000000000000000000000000008152600401610c3f90611cf1565b60405180910390fd5b8060055f6101000a81548173ffffffffffffffffffffffffffffffffffffffff021916908373ffffffffffffffffffffffffffffffffffffffff16021790555050565b66038d7ea4c68000341015610cd5576040517f08c379a0000000000000000000000000000000000000000000000000000000008152600401610ccc90611d59565b60405180910390fd5b66b1a2bc2ec50000341115610d1f576040517f08c379a0000000000000000000000000000000000000000000000000000000008152600401610d1690611dc1565b60405180910390fd5b60015f3373ffffffffffffffffffffffffffffffffffffffff1673ffffffffffffffffffffffffffffffffffffffff1681526020019081526020015f205f9054906101000a900460ff1615610da9576040517f08c379a0000000000000000000000000000000000000000000000000000000008152600401610da090611e29565b60405180910390fd5b5f600282604051610dba919061182a565b90815260200160405180910390208054610dd3906117c0565b905011610e15576040517f08c379a0000000000000000000000000000000000000000000000000000000008152600401610e0c90611e91565b60405180910390fd5b8060035f3373ffffffffffffffffffffffffffffffffffffffff1673ffffffffffffffffffffffffffffffffffffffff1681526020019081526020015f209081610e5f9190611b7d565b505f81604051610e6f919061182a565b90815260200160405180910390205f815480929190610e8d90611edc565b91905055506001805f3373ffffffffffffffffffffffffffffffffffffffff1673ffffffffffffffffffffffffffffffffffffffff1681526020019081526020015f205f6101000a81548160ff021916908315150217905550600633908060018154018082558091505060019003905f5260205f20015f9091909190916101000a81548173ffffffffffffffffffffffffffffffffffffffff021916908373ffffffffffffffffffffffffffffffffffffffff160217905550610f4e610f8a565b7fcb6783276e8a4347387036bbfea000268f0a4b1f8c46ac79980609f2af8d2acd3382604051610f7f929190611f32565b60405180910390a150565b6007544710611101575f60068054905011610fda576040517f08c379a0000000000000000000000000000000000000000000000000000000008152600401610fd190611faa565b60405180910390fd5b5f6006805490504244604051602001610ff4929190611fe8565b604051602081830303815290604052805190602001205f1c6110169190612040565b90505f6006828154811061102d5761102c612070565b5b905f5260205f20015f9054906101000a900473ffffffffffffffffffffffffffffffffffffffff1690505f4790505f67ffffffffffffffff81111561107557611074611351565b5b6040519080825280602002602001820160405280156110a35781602001602082028036833780820191505090505b50600690805190602001906110b99291906111ec565b506110c48282611103565b7f4b6b6bdf45da3f3675a54b2585277ed89356e08d005ae76f6dfff71260b4ce1182826040516110f59291906120ef565b60405180910390a15050505b565b8047101561114857306040517fcd78605900000000000000000000000000000000000000000000000000000000815260040161113f9190612116565b60405180910390fd5b5f8273ffffffffffffffffffffffffffffffffffffffff168260405161116d9061215c565b5f6040518083038185875af1925050503d805f81146111a7576040519150601f19603f3d011682016040523d82523d5f602084013e6111ac565b606091505b50509050806111e7576040517f1425ea4200000000000000000000000000000000000000000000000000000000815260040160405180910390fd5b505050565b828054828255905f5260205f20908101928215611262579160200282015b82811115611261578251825f6101000a81548173ffffffffffffffffffffffffffffffffffffffff021916908373ffffffffffffffffffffffffffffffffffffffff1602179055509160200191906001019061120a565b5b50905061126f9190611273565b5090565b5b8082111561128a575f815f905550600101611274565b5090565b5f81519050919050565b5f82825260208201905092915050565b5f5b838110156112c55780820151818401526020810190506112aa565b5f8484015250505050565b5f601f19601f8301169050919050565b5f6112ea8261128e565b6112f48185611298565b93506113048185602086016112a8565b61130d816112d0565b840191505092915050565b5f6020820190508181035f83015261133081846112e0565b905092915050565b5f604051905090565b5f80fd5b5f80fd5b5f80fd5b5f80fd5b7f4e487b71000000000000000000000000000000000000000000000000000000005f52604160045260245ffd5b611387826112d0565b810181811067ffffffffffffffff821117156113a6576113a5611351565b5b80604052505050565b5f6113b8611338565b90506113c4828261137e565b919050565b5f67ffffffffffffffff8211156113e3576113e2611351565b5b6113ec826112d0565b9050602081019050919050565b828183375f83830152505050565b5f611419611414846113c9565b6113af565b9050828152602081018484840111156114355761143461134d565b5b6114408482856113f9565b509392505050565b5f82601f83011261145c5761145b611349565b5b813561146c848260208601611407565b91505092915050565b5f6020828403121561148a57611489611341565b5b5f82013567ffffffffffffffff8111156114a7576114a6611345565b5b6114b384828501611448565b91505092915050565b5f819050919050565b6114ce816114bc565b82525050565b5f6020820190506114e75f8301846114c5565b92915050565b5f73ffffffffffffffffffffffffffffffffffffffff82169050919050565b5f611516826114ed565b9050919050565b6115268161150c565b8114611530575f80fd5b50565b5f813590506115418161151d565b92915050565b5f6020828403121561155c5761155b611341565b5b5f61156984828501611533565b91505092915050565b5f8115159050919050565b61158681611572565b82525050565b5f60208201905061159f5f83018461157d565b92915050565b6115ae816114bc565b81146115b8575f80fd5b50565b5f813590506115c9816115a5565b92915050565b5f602082840312156115e4576115e3611341565b5b5f6115f1848285016115bb565b91505092915050565b5f81519050919050565b5f82825260208201905092915050565b5f819050602082019050919050565b5f82825260208201905092915050565b5f61163d8261128e565b6116478185611623565b93506116578185602086016112a8565b611660816112d0565b840191505092915050565b5f6116768383611633565b905092915050565b5f602082019050919050565b5f611694826115fa565b61169e8185611604565b9350836020820285016116b085611614565b805f5b858110156116eb57848403895281516116cc858261166b565b94506116d78361167e565b925060208a019950506001810190506116b3565b50829750879550505050505092915050565b5f6020820190508181035f830152611715818461168a565b905092915050565b5f806040838503121561173357611732611341565b5b5f83013567ffffffffffffffff8111156117505761174f611345565b5b61175c85828601611448565b925050602083013567ffffffffffffffff81111561177d5761177c611345565b5b61178985828601611448565b9150509250929050565b7f4e487b71000000000000000000000000000000000000000000000000000000005f52602260045260245ffd5b5f60028204905060018216806117d757607f821691505b6020821081036117ea576117e9611793565b5b50919050565b5f81905092915050565b5f6118048261128e565b61180e81856117f0565b935061181e8185602086016112a8565b80840191505092915050565b5f61183582846117fa565b915081905092915050565b7f4f6e6c79206f776e65722063616e2065786563757465000000000000000000005f82015250565b5f611874601683611298565b915061187f82611840565b602082019050919050565b5f6020820190508181035f8301526118a181611868565b9050919050565b7f50726f6a65637420616c726561647920657869737473000000000000000000005f82015250565b5f6118dc601683611298565b91506118e7826118a8565b602082019050919050565b5f6020820190508181035f830152611909816118d0565b9050919050565b7f50726f6a656374206e616d6520697320726571756972656400000000000000005f82015250565b5f611944601883611298565b915061194f82611910565b602082019050919050565b5f6020820190508181035f83015261197181611938565b9050919050565b7f50726f6a656374204944206973207265717569726564000000000000000000005f82015250565b5f6119ac601683611298565b91506119b782611978565b602082019050919050565b5f6020820190508181035f8301526119d9816119a0565b9050919050565b5f819050815f5260205f209050919050565b5f6020601f8301049050919050565b5f82821b905092915050565b5f60088302611a3c7fffffffffffffffffffffffffffffffffffffffffffffffffffffffffffffffff82611a01565b611a468683611a01565b95508019841693508086168417925050509392505050565b5f819050919050565b5f611a81611a7c611a77846114bc565b611a5e565b6114bc565b9050919050565b5f819050919050565b611a9a83611a67565b611aae611aa682611a88565b848454611a0d565b825550505050565b5f90565b611ac2611ab6565b611acd818484611a91565b505050565b5b81811015611af057611ae55f82611aba565b600181019050611ad3565b5050565b601f821115611b3557611b06816119e0565b611b0f846119f2565b81016020851015611b1e578190505b611b32611b2a856119f2565b830182611ad2565b50505b505050565b5f82821c905092915050565b5f611b555f1984600802611b3a565b1980831691505092915050565b5f611b6d8383611b46565b9150826002028217905092915050565b611b868261128e565b67ffffffffffffffff811115611b9f57611b9e611351565b5b611ba982546117c0565b611bb4828285611af4565b5f60209050601f831160018114611be5575f8415611bd3578287015190505b611bdd8582611b62565b865550611c44565b601f198416611bf3866119e0565b5f5b82811015611c1a57848901518255600182019150602085019450602081019050611bf5565b86831015611c375784890151611c33601f891682611b46565b8355505b6001600288020188555050505b505050505050565b5f6040820190508181035f830152611c6481856112e0565b90508181036020830152611c7881846112e0565b90509392505050565b7f4e6577206f776e65722063616e6e6f7420626520746865207a65726f206164645f8201527f7265737300000000000000000000000000000000000000000000000000000000602082015250565b5f611cdb602483611298565b9150611ce682611c81565b604082019050919050565b5f6020820190508181035f830152611d0881611ccf565b9050919050565b7f4d696e696d756d20302e303031206574686572000000000000000000000000005f82015250565b5f611d43601383611298565b9150611d4e82611d0f565b602082019050919050565b5f6020820190508181035f830152611d7081611d37565b9050919050565b7f4d6178696d756d20302e303520657468657200000000000000000000000000005f82015250565b5f611dab601283611298565b9150611db682611d77565b602082019050919050565b5f6020820190508181035f830152611dd881611d9f565b9050919050565b7f416c726561647920766f746564000000000000000000000000000000000000005f82015250565b5f611e13600d83611298565b9150611e1e82611ddf565b602082019050919050565b5f6020820190508181035f830152611e4081611e07565b9050919050565b7f50726f6a65637420646f6573206e6f74206578697374000000000000000000005f82015250565b5f611e7b601683611298565b9150611e8682611e47565b602082019050919050565b5f6020820190508181035f830152611ea881611e6f565b9050919050565b7f4e487b71000000000000000000000000000000000000000000000000000000005f52601160045260245ffd5b5f611ee6826114bc565b91507fffffffffffffffffffffffffffffffffffffffffffffffffffffffffffffffff8203611f1857611f17611eaf565b5b600182019050919050565b611f2c8161150c565b82525050565b5f604082019050611f455f830185611f23565b8181036020830152611f5781846112e0565b90509392505050565b7f4e6f20766f7465727320746f20726577617264000000000000000000000000005f82015250565b5f611f94601383611298565b9150611f9f82611f60565b602082019050919050565b5f6020820190508181035f830152611fc181611f88565b9050919050565b5f819050919050565b611fe2611fdd826114bc565b611fc8565b82525050565b5f611ff38285611fd1565b6020820191506120038284611fd1565b6020820191508190509392505050565b7f4e487b71000000000000000000000000000000000000000000000000000000005f52601260045260245ffd5b5f61204a826114bc565b9150612055836114bc565b92508261206557612064612013565b5b828206905092915050565b7f4e487b71000000000000000000000000000000000000000000000000000000005f52603260045260245ffd5b5f6120b76120b26120ad846114ed565b611a5e565b6114ed565b9050919050565b5f6120c88261209d565b9050919050565b5f6120d9826120be565b9050919050565b6120e9816120cf565b82525050565b5f6040820190506121025f8301856120e0565b61210f60208301846114c5565b9392505050565b5f6020820190506121295f830184611f23565b92915050565b5f81905092915050565b50565b5f6121475f8361212f565b915061215282612139565b5f82019050919050565b5f6121668261213c565b915081905091905056fea2646970667358221220490f253786115704e6b3341922144e9c49e0121772c714e4f0af3a0ed574705164736f6c63430008150033",
  "immutableReferences": {},
  "source": "// SPDX-License-Identifier: MIT \npragma solidity ^0.8.0;\n\nimport \"@openzeppelin/contracts/utils/Address.sol\";\n\ncontract ProjectVoting {\n    mapping(string => uint) public projectVotes;\n    mapping(address => bool) public hasVoted;\n    mapping(string => string) public projects;\n    mapping(address => string) public addressVotes;\n    string[] public projectIds;\n    address private owner;\n    address[] private voters;\n    uint private threshold = 0.1 ether;\n\n    event ProjectAdded(string projectId, string projectName);\n    event Voted(address voter, string projectId); \n    event AutoTransferExecuted(address recipient, uint256 amount);\n\n    modifier onlyOwner() {\n        require(msg.sender == owner, \"Only owner can execute\");\n        _;\n    }\n  \n    constructor() {\n        owner = msg.sender;\n    }\n\n    function add(string memory projectName, string memory projectId) public onlyOwner {\n        require(bytes(projects[projectId]).length == 0, \"Project already exists\");\n        require(bytes(projectName).length > 0, \"Project name is required\"); // Input validation for projectName\n        require(bytes(projectId).length > 0, \"Project ID is required\"); // Input validation for projectId\n        projects[projectId] = projectName;\n        projectIds.push(projectId);\n        emit ProjectAdded(projectId, projectName); \n    }\n\n    function vote(string memory projectId) payable public {\n        require(msg.value >= 0.001 ether, \"Minimum 0.001 ether\");\n        require(msg.value <= 0.05 ether, \"Maximum 0.05 ether\");\n        require(!hasVoted[msg.sender], \"Already voted\");\n        require(bytes(projects[projectId]).length > 0, \"Project does not exist\"); \n\n        addressVotes[msg.sender] = projectId;\n        projectVotes[projectId]++;\n        hasVoted[msg.sender] = true;\n        voters.push(msg.sender);\n        checkAndTransfer(); // TODO: This is breaking \n        emit Voted(msg.sender, projectId);\n    }\n\n    function voteTest() public payable returns (uint) {\n        return msg.value;\n    }\n\n    function getVoteCount(string memory projectId) public view returns (uint) {\n        return projectVotes[projectId];\n    }\n\n    function getAll() public view returns (string[] memory) {\n        return projectIds;\n    }\n\n    function checkHasVoted() public view returns (bool) {\n        return hasVoted[msg.sender];\n    }\n\n    function getVote() public view returns (string memory) {\n        return  addressVotes[msg.sender]; \n    }\n\n    function checkAndTransfer() internal {\n        if (address(this).balance >= threshold) {\n            require(voters.length > 0, \"No voters to reward\");\n            uint randomIndex = uint(keccak256(abi.encodePacked(block.timestamp, block.prevrandao))) % voters.length;\n            address payable luckyVoter = payable(voters[randomIndex]);\n            uint256 amountToSend = address(this).balance;\n            voters = new address[](0); \n            Address.sendValue(luckyVoter, amountToSend);\n\n            emit AutoTransferExecuted(luckyVoter, amountToSend);\n        }\n    }\n\n    function getBalance() public view returns (uint256) {\n        return address(this).balance;\n    }\n\n    function getThreshold() public view returns (uint256) {\n        return threshold;\n    }\n\n    function transferOwnership(address newOwner) public onlyOwner {\n        require(newOwner != address(0), \"New owner cannot be the zero address\");\n        owner = newOwner;\n    }\n\n    function withdraw() public onlyOwner {\n        payable(owner).transfer(address(this).balance);\n    }\n}",
  "sourcePath": "/home/ddavis/Documents/web_dev/Projects/PersonalSite/backend/contracts/project-voting.sol",
  "compiler": {
    "name": "solc",
    "version": "0.8.21+commit.d9974bed.Emscripten.clang"
  },
  "schemaVersion": "3.4.16",
  "updatedAt": "2024-01-13T18:24:43.002Z",
  "networkType": "ethereum",
  "devdoc": {
    "errors": {
      "AddressInsufficientBalance(address)": [
        {
          "details": "The ETH balance of the account is not enough to perform the operation."
        }
      ],
      "FailedInnerCall()": [
        {
          "details": "A call to an address target failed. The target may have reverted."
        }
      ]
    },
    "kind": "dev",
    "methods": {},
    "version": 1
  },
  "userdoc": {
    "kind": "user",
    "methods": {},
    "version": 1
  }
}