{
  "contractName": "ProjectVoting",
  "abi": [
    {
      "inputs": [],
      "stateMutability": "nonpayable",
      "type": "constructor"
    },
    {
      "anonymous": false,
      "inputs": [
        {
          "indexed": false,
          "internalType": "address",
          "name": "recipient",
          "type": "address"
        },
        {
          "indexed": false,
          "internalType": "uint256",
          "name": "amount",
          "type": "uint256"
        }
      ],
      "name": "AutoTransferExecuted",
      "type": "event"
    },
    {
      "anonymous": false,
      "inputs": [
        {
          "indexed": false,
          "internalType": "string",
          "name": "projectId",
          "type": "string"
        },
        {
          "indexed": false,
          "internalType": "string",
          "name": "projectName",
          "type": "string"
        }
      ],
      "name": "ProjectAdded",
      "type": "event"
    },
    {
      "anonymous": false,
      "inputs": [
        {
          "indexed": false,
          "internalType": "address",
          "name": "voter",
          "type": "address"
        },
        {
          "indexed": false,
          "internalType": "string",
          "name": "projectId",
          "type": "string"
        }
      ],
      "name": "Voted",
      "type": "event"
    },
    {
      "inputs": [
        {
          "internalType": "address",
          "name": "",
          "type": "address"
        }
      ],
      "name": "addressVotes",
      "outputs": [
        {
          "internalType": "string",
          "name": "",
          "type": "string"
        }
      ],
      "stateMutability": "view",
      "type": "function"
    },
    {
      "inputs": [
        {
          "internalType": "address",
          "name": "",
          "type": "address"
        }
      ],
      "name": "hasVoted",
      "outputs": [
        {
          "internalType": "bool",
          "name": "",
          "type": "bool"
        }
      ],
      "stateMutability": "view",
      "type": "function"
    },
    {
      "inputs": [
        {
          "internalType": "uint256",
          "name": "",
          "type": "uint256"
        }
      ],
      "name": "projectIds",
      "outputs": [
        {
          "internalType": "string",
          "name": "",
          "type": "string"
        }
      ],
      "stateMutability": "view",
      "type": "function"
    },
    {
      "inputs": [
        {
          "internalType": "string",
          "name": "",
          "type": "string"
        }
      ],
      "name": "projectVotes",
      "outputs": [
        {
          "internalType": "uint256",
          "name": "",
          "type": "uint256"
        }
      ],
      "stateMutability": "view",
      "type": "function"
    },
    {
      "inputs": [
        {
          "internalType": "string",
          "name": "",
          "type": "string"
        }
      ],
      "name": "projects",
      "outputs": [
        {
          "internalType": "string",
          "name": "",
          "type": "string"
        }
      ],
      "stateMutability": "view",
      "type": "function"
    },
    {
      "inputs": [
        {
          "internalType": "string",
          "name": "projectName",
          "type": "string"
        },
        {
          "internalType": "string",
          "name": "projectId",
          "type": "string"
        }
      ],
      "name": "add",
      "outputs": [],
      "stateMutability": "nonpayable",
      "type": "function"
    },
    {
      "inputs": [
        {
          "internalType": "string",
          "name": "projectId",
          "type": "string"
        }
      ],
      "name": "vote",
      "outputs": [],
      "stateMutability": "payable",
      "type": "function"
    },
    {
      "inputs": [
        {
          "internalType": "string",
          "name": "projectId",
          "type": "string"
        }
      ],
      "name": "getVoteCount",
      "outputs": [
        {
          "internalType": "uint256",
          "name": "",
          "type": "uint256"
        }
      ],
      "stateMutability": "view",
      "type": "function"
    },
    {
      "inputs": [],
      "name": "getAll",
      "outputs": [
        {
          "internalType": "string[]",
          "name": "",
          "type": "string[]"
        }
      ],
      "stateMutability": "view",
      "type": "function"
    },
    {
      "inputs": [],
      "name": "checkHasVoted",
      "outputs": [
        {
          "internalType": "bool",
          "name": "",
          "type": "bool"
        }
      ],
      "stateMutability": "view",
      "type": "function"
    },
    {
      "inputs": [],
      "name": "getVote",
      "outputs": [
        {
          "internalType": "string",
          "name": "",
          "type": "string"
        }
      ],
      "stateMutability": "view",
      "type": "function"
    },
    {
      "inputs": [],
      "name": "getBalance",
      "outputs": [
        {
          "internalType": "uint256",
          "name": "",
          "type": "uint256"
        }
      ],
      "stateMutability": "view",
      "type": "function"
    },
    {
      "inputs": [
        {
          "internalType": "address",
          "name": "newOwner",
          "type": "address"
        }
      ],
      "name": "transferOwnership",
      "outputs": [],
      "stateMutability": "nonpayable",
      "type": "function"
    },
    {
      "inputs": [],
      "name": "withdraw",
      "outputs": [],
      "stateMutability": "nonpayable",
      "type": "function"
    }
  ],
  "bytecode": "0x6080604052670de0b6b3a764000060065534801561001b575f80fd5b503360055f6101000a81548173ffffffffffffffffffffffffffffffffffffffff021916908373ffffffffffffffffffffffffffffffffffffffff160217905550611cd5806100695f395ff3fe6080604052600436106100dc575f3560e01c806353ed51431161007e578063c4c9111011610058578063c4c91110146102ca578063ebdf86ca14610306578063f2fde38b1461032e578063fc36e15b14610356576100dc565b806353ed51431461022857806391c9b26814610252578063a34bb6e61461028e576100dc565b806312065fe0116100ba57806312065fe0146101825780631234ce9d146101ac5780633ccfd60b146101d657806348c35ad4146101ec576100dc565b80630242f351146100e0578063069953a71461010a57806309eef43e14610146575b5f80fd5b3480156100eb575f80fd5b506100f4610372565b6040516101019190610fef565b60405180910390f35b348015610115575f80fd5b50610130600480360381019061012b919061114c565b61043d565b60405161013d91906111ab565b60405180910390f35b348015610151575f80fd5b5061016c6004803603810190610167919061121e565b610463565b6040516101799190611263565b60405180910390f35b34801561018d575f80fd5b50610196610480565b6040516101a391906111ab565b60405180910390f35b3480156101b7575f80fd5b506101c0610487565b6040516101cd9190611263565b60405180910390f35b3480156101e1575f80fd5b506101ea6104d7565b005b3480156101f7575f80fd5b50610212600480360381019061020d91906112a6565b6105cd565b60405161021f9190610fef565b60405180910390f35b348015610233575f80fd5b5061023c610673565b60405161024991906113d4565b60405180910390f35b34801561025d575f80fd5b506102786004803603810190610273919061114c565b610747565b6040516102859190610fef565b60405180910390f35b348015610299575f80fd5b506102b460048036038101906102af919061121e565b6107fa565b6040516102c19190610fef565b60405180910390f35b3480156102d5575f80fd5b506102f060048036038101906102eb919061114c565b610895565b6040516102fd91906111ab565b60405180910390f35b348015610311575f80fd5b5061032c600480360381019061032791906113f4565b6108c1565b005b348015610339575f80fd5b50610354600480360381019061034f919061121e565b610add565b005b610370600480360381019061036b919061114c565b610c1d565b005b606060035f3373ffffffffffffffffffffffffffffffffffffffff1673ffffffffffffffffffffffffffffffffffffffff1681526020019081526020015f2080546103bc90611497565b80601f01602080910402602001604051908101604052809291908181526020018280546103e890611497565b80156104335780601f1061040a57610100808354040283529160200191610433565b820191905f5260205f20905b81548152906001019060200180831161041657829003601f168201915b5050505050905090565b5f808260405161044d9190611501565b9081526020016040518091039020549050919050565b6001602052805f5260405f205f915054906101000a900460ff1681565b5f47905090565b5f60015f3373ffffffffffffffffffffffffffffffffffffffff1673ffffffffffffffffffffffffffffffffffffffff1681526020019081526020015f205f9054906101000a900460ff16905090565b60055f9054906101000a900473ffffffffffffffffffffffffffffffffffffffff1673ffffffffffffffffffffffffffffffffffffffff163373ffffffffffffffffffffffffffffffffffffffff1614610566576040517f08c379a000000000000000000000000000000000000000000000000000000000815260040161055d90611561565b60405180910390fd5b60055f9054906101000a900473ffffffffffffffffffffffffffffffffffffffff1673ffffffffffffffffffffffffffffffffffffffff166108fc4790811502906040515f60405180830381858888f193505050501580156105ca573d5f803e3d5ffd5b50565b600481815481106105dc575f80fd5b905f5260205f20015f9150905080546105f490611497565b80601f016020809104026020016040519081016040528092919081815260200182805461062090611497565b801561066b5780601f106106425761010080835404028352916020019161066b565b820191905f5260205f20905b81548152906001019060200180831161064e57829003601f168201915b505050505081565b60606004805480602002602001604051908101604052809291908181526020015f905b8282101561073e578382905f5260205f200180546106b390611497565b80601f01602080910402602001604051908101604052809291908181526020018280546106df90611497565b801561072a5780601f106107015761010080835404028352916020019161072a565b820191905f5260205f20905b81548152906001019060200180831161070d57829003601f168201915b505050505081526020019060010190610696565b50505050905090565b6002818051602081018201805184825260208301602085012081835280955050505050505f91509050805461077b90611497565b80601f01602080910402602001604051908101604052809291908181526020018280546107a790611497565b80156107f25780601f106107c9576101008083540402835291602001916107f2565b820191905f5260205f20905b8154815290600101906020018083116107d557829003601f168201915b505050505081565b6003602052805f5260405f205f91509050805461081690611497565b80601f016020809104026020016040519081016040528092919081815260200182805461084290611497565b801561088d5780601f106108645761010080835404028352916020019161088d565b820191905f5260205f20905b81548152906001019060200180831161087057829003601f168201915b505050505081565b5f818051602081018201805184825260208301602085012081835280955050505050505f915090505481565b60055f9054906101000a900473ffffffffffffffffffffffffffffffffffffffff1673ffffffffffffffffffffffffffffffffffffffff163373ffffffffffffffffffffffffffffffffffffffff1614610950576040517f08c379a000000000000000000000000000000000000000000000000000000000815260040161094790611561565b60405180910390fd5b5f6002826040516109619190611501565b9081526020016040518091039020805461097a90611497565b9050146109bc576040517f08c379a00000000000000000000000000000000000000000000000000000000081526004016109b3906115c9565b60405180910390fd5b5f8251116109ff576040517f08c379a00000000000000000000000000000000000000000000000000000000081526004016109f690611631565b60405180910390fd5b5f815111610a42576040517f08c379a0000000000000000000000000000000000000000000000000000000008152600401610a3990611699565b60405180910390fd5b81600282604051610a539190611501565b90815260200160405180910390209081610a6d9190611854565b50600481908060018154018082558091505060019003905f5260205f20015f909190919091509081610a9f9190611854565b507feb5d6000a362475be9d9b16beddc148b7004850daf2e69325a403d613567769e8183604051610ad1929190611923565b60405180910390a15050565b60055f9054906101000a900473ffffffffffffffffffffffffffffffffffffffff1673ffffffffffffffffffffffffffffffffffffffff163373ffffffffffffffffffffffffffffffffffffffff1614610b6c576040517f08c379a0000000000000000000000000000000000000000000000000000000008152600401610b6390611561565b60405180910390fd5b5f73ffffffffffffffffffffffffffffffffffffffff168173ffffffffffffffffffffffffffffffffffffffff1603610bda576040517f08c379a0000000000000000000000000000000000000000000000000000000008152600401610bd1906119c8565b60405180910390fd5b8060055f6101000a81548173ffffffffffffffffffffffffffffffffffffffff021916908373ffffffffffffffffffffffffffffffffffffffff16021790555050565b662386f26fc10000341015610c67576040517f08c379a0000000000000000000000000000000000000000000000000000000008152600401610c5e90611a30565b60405180910390fd5b60015f3373ffffffffffffffffffffffffffffffffffffffff1673ffffffffffffffffffffffffffffffffffffffff1681526020019081526020015f205f9054906101000a900460ff1615610cf1576040517f08c379a0000000000000000000000000000000000000000000000000000000008152600401610ce890611a98565b60405180910390fd5b5f600282604051610d029190611501565b90815260200160405180910390208054610d1b90611497565b905011610d5d576040517f08c379a0000000000000000000000000000000000000000000000000000000008152600401610d5490611b00565b60405180910390fd5b8060035f3373ffffffffffffffffffffffffffffffffffffffff1673ffffffffffffffffffffffffffffffffffffffff1681526020019081526020015f209081610da79190611854565b505f81604051610db79190611501565b90815260200160405180910390205f815480929190610dd590611b4b565b91905055506001805f3373ffffffffffffffffffffffffffffffffffffffff1673ffffffffffffffffffffffffffffffffffffffff1681526020019081526020015f205f6101000a81548160ff021916908315150217905550610e36610e72565b7fcb6783276e8a4347387036bbfea000268f0a4b1f8c46ac79980609f2af8d2acd3382604051610e67929190611ba1565b60405180910390a150565b6006544710610f63575f4790505f3373ffffffffffffffffffffffffffffffffffffffff1682604051610ea490611bfc565b5f6040518083038185875af1925050503d805f8114610ede576040519150601f19603f3d011682016040523d82523d5f602084013e610ee3565b606091505b5050905080610f27576040517f08c379a0000000000000000000000000000000000000000000000000000000008152600401610f1e90611c5a565b60405180910390fd5b7f4b6b6bdf45da3f3675a54b2585277ed89356e08d005ae76f6dfff71260b4ce113383604051610f58929190611c78565b60405180910390a150505b565b5f81519050919050565b5f82825260208201905092915050565b5f5b83811015610f9c578082015181840152602081019050610f81565b5f8484015250505050565b5f601f19601f8301169050919050565b5f610fc182610f65565b610fcb8185610f6f565b9350610fdb818560208601610f7f565b610fe481610fa7565b840191505092915050565b5f6020820190508181035f8301526110078184610fb7565b905092915050565b5f604051905090565b5f80fd5b5f80fd5b5f80fd5b5f80fd5b7f4e487b71000000000000000000000000000000000000000000000000000000005f52604160045260245ffd5b61105e82610fa7565b810181811067ffffffffffffffff8211171561107d5761107c611028565b5b80604052505050565b5f61108f61100f565b905061109b8282611055565b919050565b5f67ffffffffffffffff8211156110ba576110b9611028565b5b6110c382610fa7565b9050602081019050919050565b828183375f83830152505050565b5f6110f06110eb846110a0565b611086565b90508281526020810184848401111561110c5761110b611024565b5b6111178482856110d0565b509392505050565b5f82601f83011261113357611132611020565b5b81356111438482602086016110de565b91505092915050565b5f6020828403121561116157611160611018565b5b5f82013567ffffffffffffffff81111561117e5761117d61101c565b5b61118a8482850161111f565b91505092915050565b5f819050919050565b6111a581611193565b82525050565b5f6020820190506111be5f83018461119c565b92915050565b5f73ffffffffffffffffffffffffffffffffffffffff82169050919050565b5f6111ed826111c4565b9050919050565b6111fd816111e3565b8114611207575f80fd5b50565b5f81359050611218816111f4565b92915050565b5f6020828403121561123357611232611018565b5b5f6112408482850161120a565b91505092915050565b5f8115159050919050565b61125d81611249565b82525050565b5f6020820190506112765f830184611254565b92915050565b61128581611193565b811461128f575f80fd5b50565b5f813590506112a08161127c565b92915050565b5f602082840312156112bb576112ba611018565b5b5f6112c884828501611292565b91505092915050565b5f81519050919050565b5f82825260208201905092915050565b5f819050602082019050919050565b5f82825260208201905092915050565b5f61131482610f65565b61131e81856112fa565b935061132e818560208601610f7f565b61133781610fa7565b840191505092915050565b5f61134d838361130a565b905092915050565b5f602082019050919050565b5f61136b826112d1565b61137581856112db565b935083602082028501611387856112eb565b805f5b858110156113c257848403895281516113a38582611342565b94506113ae83611355565b925060208a0199505060018101905061138a565b50829750879550505050505092915050565b5f6020820190508181035f8301526113ec8184611361565b905092915050565b5f806040838503121561140a57611409611018565b5b5f83013567ffffffffffffffff8111156114275761142661101c565b5b6114338582860161111f565b925050602083013567ffffffffffffffff8111156114545761145361101c565b5b6114608582860161111f565b9150509250929050565b7f4e487b71000000000000000000000000000000000000000000000000000000005f52602260045260245ffd5b5f60028204905060018216806114ae57607f821691505b6020821081036114c1576114c061146a565b5b50919050565b5f81905092915050565b5f6114db82610f65565b6114e581856114c7565b93506114f5818560208601610f7f565b80840191505092915050565b5f61150c82846114d1565b915081905092915050565b7f4f6e6c79206f776e65722063616e2065786563757465000000000000000000005f82015250565b5f61154b601683610f6f565b915061155682611517565b602082019050919050565b5f6020820190508181035f8301526115788161153f565b9050919050565b7f50726f6a65637420616c726561647920657869737473000000000000000000005f82015250565b5f6115b3601683610f6f565b91506115be8261157f565b602082019050919050565b5f6020820190508181035f8301526115e0816115a7565b9050919050565b7f50726f6a656374206e616d6520697320726571756972656400000000000000005f82015250565b5f61161b601883610f6f565b9150611626826115e7565b602082019050919050565b5f6020820190508181035f8301526116488161160f565b9050919050565b7f50726f6a656374204944206973207265717569726564000000000000000000005f82015250565b5f611683601683610f6f565b915061168e8261164f565b602082019050919050565b5f6020820190508181035f8301526116b081611677565b9050919050565b5f819050815f5260205f209050919050565b5f6020601f8301049050919050565b5f82821b905092915050565b5f600883026117137fffffffffffffffffffffffffffffffffffffffffffffffffffffffffffffffff826116d8565b61171d86836116d8565b95508019841693508086168417925050509392505050565b5f819050919050565b5f61175861175361174e84611193565b611735565b611193565b9050919050565b5f819050919050565b6117718361173e565b61178561177d8261175f565b8484546116e4565b825550505050565b5f90565b61179961178d565b6117a4818484611768565b505050565b5b818110156117c7576117bc5f82611791565b6001810190506117aa565b5050565b601f82111561180c576117dd816116b7565b6117e6846116c9565b810160208510156117f5578190505b611809611801856116c9565b8301826117a9565b50505b505050565b5f82821c905092915050565b5f61182c5f1984600802611811565b1980831691505092915050565b5f611844838361181d565b9150826002028217905092915050565b61185d82610f65565b67ffffffffffffffff81111561187657611875611028565b5b6118808254611497565b61188b8282856117cb565b5f60209050601f8311600181146118bc575f84156118aa578287015190505b6118b48582611839565b86555061191b565b601f1984166118ca866116b7565b5f5b828110156118f1578489015182556001820191506020850194506020810190506118cc565b8683101561190e578489015161190a601f89168261181d565b8355505b6001600288020188555050505b505050505050565b5f6040820190508181035f83015261193b8185610fb7565b9050818103602083015261194f8184610fb7565b90509392505050565b7f4e6577206f776e65722063616e6e6f7420626520746865207a65726f206164645f8201527f7265737300000000000000000000000000000000000000000000000000000000602082015250565b5f6119b2602483610f6f565b91506119bd82611958565b604082019050919050565b5f6020820190508181035f8301526119df816119a6565b9050919050565b7f4d696e696d756d20302e303120657468657200000000000000000000000000005f82015250565b5f611a1a601283610f6f565b9150611a25826119e6565b602082019050919050565b5f6020820190508181035f830152611a4781611a0e565b9050919050565b7f416c726561647920766f746564000000000000000000000000000000000000005f82015250565b5f611a82600d83610f6f565b9150611a8d82611a4e565b602082019050919050565b5f6020820190508181035f830152611aaf81611a76565b9050919050565b7f50726f6a65637420646f6573206e6f74206578697374000000000000000000005f82015250565b5f611aea601683610f6f565b9150611af582611ab6565b602082019050919050565b5f6020820190508181035f830152611b1781611ade565b9050919050565b7f4e487b71000000000000000000000000000000000000000000000000000000005f52601160045260245ffd5b5f611b5582611193565b91507fffffffffffffffffffffffffffffffffffffffffffffffffffffffffffffffff8203611b8757611b86611b1e565b5b600182019050919050565b611b9b816111e3565b82525050565b5f604082019050611bb45f830185611b92565b8181036020830152611bc68184610fb7565b90509392505050565b5f81905092915050565b50565b5f611be75f83611bcf565b9150611bf282611bd9565b5f82019050919050565b5f611c0682611bdc565b9150819050919050565b7f4661696c656420746f2073656e642045746865720000000000000000000000005f82015250565b5f611c44601483610f6f565b9150611c4f82611c10565b602082019050919050565b5f6020820190508181035f830152611c7181611c38565b9050919050565b5f604082019050611c8b5f830185611b92565b611c98602083018461119c565b939250505056fea2646970667358221220e2f13dfc402ef768993710af4e40d25c11fc68580f574d4c306188a847a85fb964736f6c63430008150033",
  "immutableReferences": {},
  "source": "// SPDX-License-Identifier: MIT \npragma solidity ^0.8.0;\n\ncontract ProjectVoting {\n    mapping(string => uint) public projectVotes;\n    mapping(address => bool) public hasVoted;\n    mapping(string => string) public projects;\n    mapping(address => string) public addressVotes;\n    string[] public projectIds;\n    address private owner;\n    uint private threshold = 1 ether;\n\n    event AutoTransferExecuted(address recipient, uint256 amount);\n    event ProjectAdded(string projectId, string projectName); // Event for adding a project\n    event Voted(address voter, string projectId); // Event for a vote\n   \n    modifier onlyOwner() {\n        require(msg.sender == owner, \"Only owner can execute\");\n        _;\n    }\n  \n    constructor() {\n        owner = msg.sender;\n    }\n\n    function add(string memory projectName, string memory projectId) public onlyOwner {\n        require(bytes(projects[projectId]).length == 0, \"Project already exists\");\n        require(bytes(projectName).length > 0, \"Project name is required\"); // Input validation for projectName\n        require(bytes(projectId).length > 0, \"Project ID is required\"); // Input validation for projectId\n        projects[projectId] = projectName;\n        projectIds.push(projectId);\n        emit ProjectAdded(projectId, projectName); \n    }\n\n    function vote(string memory projectId) payable public {\n        require(msg.value >= 0.01 ether, \"Minimum 0.01 ether\");\n        require(!hasVoted[msg.sender], \"Already voted\");\n        require(bytes(projects[projectId]).length > 0, \"Project does not exist\"); \n\n        addressVotes[msg.sender] = projectId;\n        projectVotes[projectId]++;\n        hasVoted[msg.sender] = true;\n        checkAndTransfer();\n        emit Voted(msg.sender, projectId);\n    }\n\n    function getVoteCount(string memory projectId) public view returns (uint) {\n        return projectVotes[projectId];\n    }\n\n    function getAll() public view returns (string[] memory) {\n        return projectIds;\n    }\n\n    function checkHasVoted() public view returns (bool) {\n        return hasVoted[msg.sender];\n    }\n\n    function getVote() public view returns (string memory) {\n        return  addressVotes[msg.sender]; \n    }\n\n    function checkAndTransfer() internal {\n        if (address(this).balance >= threshold) {\n            uint256 amountToSend = address(this).balance;\n            (bool sent, ) = msg.sender.call{value: amountToSend}(\"\");\n            require(sent, \"Failed to send Ether\");\n            emit AutoTransferExecuted(msg.sender, amountToSend);\n        }\n    }\n\n    function getBalance() public view returns (uint256) {\n        return address(this).balance;\n    }\n\n    function transferOwnership(address newOwner) public onlyOwner {\n        require(newOwner != address(0), \"New owner cannot be the zero address\");\n        owner = newOwner;\n    }\n\n    function withdraw() public onlyOwner {\n        payable(owner).transfer(address(this).balance);\n    }\n}",
  "sourcePath": "/home/ddavis/Documents/web_dev/Projects/PersonalSite/backend/contracts/project-voting.sol",
  "compiler": {
    "name": "solc",
    "version": "0.8.21+commit.d9974bed.Emscripten.clang"
  },
  "schemaVersion": "3.4.16",
  "updatedAt": "2024-01-06T19:36:10.402Z",
  "devdoc": {
    "kind": "dev",
    "methods": {},
    "version": 1
  },
  "userdoc": {
    "kind": "user",
    "methods": {},
    "version": 1
  }
}