{
  "contractName": "ProjectVoting",
  "abi": [
    {
      "inputs": [],
      "stateMutability": "nonpayable",
      "type": "constructor"
    },
    {
      "inputs": [
        {
          "internalType": "address",
          "name": "account",
          "type": "address"
        }
      ],
      "name": "AddressInsufficientBalance",
      "type": "error"
    },
    {
      "inputs": [],
      "name": "FailedInnerCall",
      "type": "error"
    },
    {
      "anonymous": false,
      "inputs": [
        {
          "indexed": false,
          "internalType": "address",
          "name": "recipient",
          "type": "address"
        },
        {
          "indexed": false,
          "internalType": "uint256",
          "name": "amount",
          "type": "uint256"
        }
      ],
      "name": "AutoTransferExecuted",
      "type": "event"
    },
    {
      "anonymous": false,
      "inputs": [
        {
          "indexed": false,
          "internalType": "string",
          "name": "projectId",
          "type": "string"
        },
        {
          "indexed": false,
          "internalType": "string",
          "name": "projectName",
          "type": "string"
        }
      ],
      "name": "ProjectAdded",
      "type": "event"
    },
    {
      "anonymous": false,
      "inputs": [
        {
          "indexed": false,
          "internalType": "address",
          "name": "voter",
          "type": "address"
        },
        {
          "indexed": false,
          "internalType": "string",
          "name": "projectId",
          "type": "string"
        }
      ],
      "name": "Voted",
      "type": "event"
    },
    {
      "inputs": [
        {
          "internalType": "address",
          "name": "",
          "type": "address"
        }
      ],
      "name": "addressVotes",
      "outputs": [
        {
          "internalType": "string",
          "name": "",
          "type": "string"
        }
      ],
      "stateMutability": "view",
      "type": "function",
      "constant": true
    },
    {
      "inputs": [
        {
          "internalType": "address",
          "name": "",
          "type": "address"
        }
      ],
      "name": "hasVoted",
      "outputs": [
        {
          "internalType": "bool",
          "name": "",
          "type": "bool"
        }
      ],
      "stateMutability": "view",
      "type": "function",
      "constant": true
    },
    {
      "inputs": [
        {
          "internalType": "uint256",
          "name": "",
          "type": "uint256"
        }
      ],
      "name": "projectIds",
      "outputs": [
        {
          "internalType": "string",
          "name": "",
          "type": "string"
        }
      ],
      "stateMutability": "view",
      "type": "function",
      "constant": true
    },
    {
      "inputs": [
        {
          "internalType": "string",
          "name": "",
          "type": "string"
        }
      ],
      "name": "projectVotes",
      "outputs": [
        {
          "internalType": "uint256",
          "name": "",
          "type": "uint256"
        }
      ],
      "stateMutability": "view",
      "type": "function",
      "constant": true
    },
    {
      "inputs": [
        {
          "internalType": "string",
          "name": "",
          "type": "string"
        }
      ],
      "name": "projects",
      "outputs": [
        {
          "internalType": "string",
          "name": "",
          "type": "string"
        }
      ],
      "stateMutability": "view",
      "type": "function",
      "constant": true
    },
    {
      "inputs": [
        {
          "internalType": "string",
          "name": "projectName",
          "type": "string"
        },
        {
          "internalType": "string",
          "name": "projectId",
          "type": "string"
        }
      ],
      "name": "add",
      "outputs": [],
      "stateMutability": "nonpayable",
      "type": "function"
    },
    {
      "inputs": [
        {
          "internalType": "string",
          "name": "projectId",
          "type": "string"
        }
      ],
      "name": "vote",
      "outputs": [],
      "stateMutability": "payable",
      "type": "function",
      "payable": true
    },
    {
      "inputs": [
        {
          "internalType": "string",
          "name": "projectId",
          "type": "string"
        }
      ],
      "name": "getVoteCount",
      "outputs": [
        {
          "internalType": "uint256",
          "name": "",
          "type": "uint256"
        }
      ],
      "stateMutability": "view",
      "type": "function",
      "constant": true
    },
    {
      "inputs": [],
      "name": "getAll",
      "outputs": [
        {
          "internalType": "string[]",
          "name": "",
          "type": "string[]"
        }
      ],
      "stateMutability": "view",
      "type": "function",
      "constant": true
    },
    {
      "inputs": [],
      "name": "checkHasVoted",
      "outputs": [
        {
          "internalType": "bool",
          "name": "",
          "type": "bool"
        }
      ],
      "stateMutability": "view",
      "type": "function",
      "constant": true
    },
    {
      "inputs": [],
      "name": "getVote",
      "outputs": [
        {
          "internalType": "string",
          "name": "",
          "type": "string"
        }
      ],
      "stateMutability": "view",
      "type": "function",
      "constant": true
    },
    {
      "inputs": [],
      "name": "getBalance",
      "outputs": [
        {
          "internalType": "uint256",
          "name": "",
          "type": "uint256"
        }
      ],
      "stateMutability": "view",
      "type": "function",
      "constant": true
    },
    {
      "inputs": [],
      "name": "getThreshold",
      "outputs": [
        {
          "internalType": "uint256",
          "name": "",
          "type": "uint256"
        }
      ],
      "stateMutability": "view",
      "type": "function",
      "constant": true
    },
    {
      "inputs": [
        {
          "internalType": "address",
          "name": "newOwner",
          "type": "address"
        }
      ],
      "name": "transferOwnership",
      "outputs": [],
      "stateMutability": "nonpayable",
      "type": "function"
    },
    {
      "inputs": [],
      "name": "withdraw",
      "outputs": [],
      "stateMutability": "nonpayable",
      "type": "function"
    }
  ],
  "bytecode": "0x608060405267016345785d8a000060075534801561001b575f80fd5b503360055f6101000a81548173ffffffffffffffffffffffffffffffffffffffff021916908373ffffffffffffffffffffffffffffffffffffffff160217905550612176806100695f395ff3fe6080604052600436106100e7575f3560e01c806353ed514311610089578063e75235b811610058578063e75235b814610311578063ebdf86ca1461033b578063f2fde38b14610363578063fc36e15b1461038b576100e7565b806353ed51431461023357806391c9b2681461025d578063a34bb6e614610299578063c4c91110146102d5576100e7565b806312065fe0116100c557806312065fe01461018d5780631234ce9d146101b75780633ccfd60b146101e157806348c35ad4146101f7576100e7565b80630242f351146100eb578063069953a71461011557806309eef43e14610151575b5f80fd5b3480156100f6575f80fd5b506100ff6103a7565b60405161010c91906112e8565b60405180910390f35b348015610120575f80fd5b5061013b60048036038101906101369190611445565b610472565b60405161014891906114a4565b60405180910390f35b34801561015c575f80fd5b5061017760048036038101906101729190611517565b610498565b604051610184919061155c565b60405180910390f35b348015610198575f80fd5b506101a16104b5565b6040516101ae91906114a4565b60405180910390f35b3480156101c2575f80fd5b506101cb6104bc565b6040516101d8919061155c565b60405180910390f35b3480156101ec575f80fd5b506101f561050c565b005b348015610202575f80fd5b5061021d6004803603810190610218919061159f565b610602565b60405161022a91906112e8565b60405180910390f35b34801561023e575f80fd5b506102476106a8565b60405161025491906116cd565b60405180910390f35b348015610268575f80fd5b50610283600480360381019061027e9190611445565b61077c565b60405161029091906112e8565b60405180910390f35b3480156102a4575f80fd5b506102bf60048036038101906102ba9190611517565b61082f565b6040516102cc91906112e8565b60405180910390f35b3480156102e0575f80fd5b506102fb60048036038101906102f69190611445565b6108ca565b60405161030891906114a4565b60405180910390f35b34801561031c575f80fd5b506103256108f6565b60405161033291906114a4565b60405180910390f35b348015610346575f80fd5b50610361600480360381019061035c91906116ed565b6108ff565b005b34801561036e575f80fd5b5061038960048036038101906103849190611517565b610b1b565b005b6103a560048036038101906103a09190611445565b610c5b565b005b606060035f3373ffffffffffffffffffffffffffffffffffffffff1673ffffffffffffffffffffffffffffffffffffffff1681526020019081526020015f2080546103f190611790565b80601f016020809104026020016040519081016040528092919081815260200182805461041d90611790565b80156104685780601f1061043f57610100808354040283529160200191610468565b820191905f5260205f20905b81548152906001019060200180831161044b57829003601f168201915b5050505050905090565b5f808260405161048291906117fa565b9081526020016040518091039020549050919050565b6001602052805f5260405f205f915054906101000a900460ff1681565b5f47905090565b5f60015f3373ffffffffffffffffffffffffffffffffffffffff1673ffffffffffffffffffffffffffffffffffffffff1681526020019081526020015f205f9054906101000a900460ff16905090565b60055f9054906101000a900473ffffffffffffffffffffffffffffffffffffffff1673ffffffffffffffffffffffffffffffffffffffff163373ffffffffffffffffffffffffffffffffffffffff161461059b576040517f08c379a00000000000000000000000000000000000000000000000000000000081526004016105929061185a565b60405180910390fd5b60055f9054906101000a900473ffffffffffffffffffffffffffffffffffffffff1673ffffffffffffffffffffffffffffffffffffffff166108fc4790811502906040515f60405180830381858888f193505050501580156105ff573d5f803e3d5ffd5b50565b60048181548110610611575f80fd5b905f5260205f20015f91509050805461062990611790565b80601f016020809104026020016040519081016040528092919081815260200182805461065590611790565b80156106a05780601f10610677576101008083540402835291602001916106a0565b820191905f5260205f20905b81548152906001019060200180831161068357829003601f168201915b505050505081565b60606004805480602002602001604051908101604052809291908181526020015f905b82821015610773578382905f5260205f200180546106e890611790565b80601f016020809104026020016040519081016040528092919081815260200182805461071490611790565b801561075f5780601f106107365761010080835404028352916020019161075f565b820191905f5260205f20905b81548152906001019060200180831161074257829003601f168201915b5050505050815260200190600101906106cb565b50505050905090565b6002818051602081018201805184825260208301602085012081835280955050505050505f9150905080546107b090611790565b80601f01602080910402602001604051908101604052809291908181526020018280546107dc90611790565b80156108275780601f106107fe57610100808354040283529160200191610827565b820191905f5260205f20905b81548152906001019060200180831161080a57829003601f168201915b505050505081565b6003602052805f5260405f205f91509050805461084b90611790565b80601f016020809104026020016040519081016040528092919081815260200182805461087790611790565b80156108c25780601f10610899576101008083540402835291602001916108c2565b820191905f5260205f20905b8154815290600101906020018083116108a557829003601f168201915b505050505081565b5f818051602081018201805184825260208301602085012081835280955050505050505f915090505481565b5f600754905090565b60055f9054906101000a900473ffffffffffffffffffffffffffffffffffffffff1673ffffffffffffffffffffffffffffffffffffffff163373ffffffffffffffffffffffffffffffffffffffff161461098e576040517f08c379a00000000000000000000000000000000000000000000000000000000081526004016109859061185a565b60405180910390fd5b5f60028260405161099f91906117fa565b908152602001604051809103902080546109b890611790565b9050146109fa576040517f08c379a00000000000000000000000000000000000000000000000000000000081526004016109f1906118c2565b60405180910390fd5b5f825111610a3d576040517f08c379a0000000000000000000000000000000000000000000000000000000008152600401610a349061192a565b60405180910390fd5b5f815111610a80576040517f08c379a0000000000000000000000000000000000000000000000000000000008152600401610a7790611992565b60405180910390fd5b81600282604051610a9191906117fa565b90815260200160405180910390209081610aab9190611b4d565b50600481908060018154018082558091505060019003905f5260205f20015f909190919091509081610add9190611b4d565b507feb5d6000a362475be9d9b16beddc148b7004850daf2e69325a403d613567769e8183604051610b0f929190611c1c565b60405180910390a15050565b60055f9054906101000a900473ffffffffffffffffffffffffffffffffffffffff1673ffffffffffffffffffffffffffffffffffffffff163373ffffffffffffffffffffffffffffffffffffffff1614610baa576040517f08c379a0000000000000000000000000000000000000000000000000000000008152600401610ba19061185a565b60405180910390fd5b5f73ffffffffffffffffffffffffffffffffffffffff168173ffffffffffffffffffffffffffffffffffffffff1603610c18576040517f08c379a0000000000000000000000000000000000000000000000000000000008152600401610c0f90611cc1565b60405180910390fd5b8060055f6101000a81548173ffffffffffffffffffffffffffffffffffffffff021916908373ffffffffffffffffffffffffffffffffffffffff16021790555050565b66038d7ea4c68000341015610ca5576040517f08c379a0000000000000000000000000000000000000000000000000000000008152600401610c9c90611d29565b60405180910390fd5b66b1a2bc2ec50000341115610cef576040517f08c379a0000000000000000000000000000000000000000000000000000000008152600401610ce690611d91565b60405180910390fd5b60015f3373ffffffffffffffffffffffffffffffffffffffff1673ffffffffffffffffffffffffffffffffffffffff1681526020019081526020015f205f9054906101000a900460ff1615610d79576040517f08c379a0000000000000000000000000000000000000000000000000000000008152600401610d7090611df9565b60405180910390fd5b5f600282604051610d8a91906117fa565b90815260200160405180910390208054610da390611790565b905011610de5576040517f08c379a0000000000000000000000000000000000000000000000000000000008152600401610ddc90611e61565b60405180910390fd5b8060035f3373ffffffffffffffffffffffffffffffffffffffff1673ffffffffffffffffffffffffffffffffffffffff1681526020019081526020015f209081610e2f9190611b4d565b505f81604051610e3f91906117fa565b90815260200160405180910390205f815480929190610e5d90611eac565b91905055506001805f3373ffffffffffffffffffffffffffffffffffffffff1673ffffffffffffffffffffffffffffffffffffffff1681526020019081526020015f205f6101000a81548160ff021916908315150217905550600633908060018154018082558091505060019003905f5260205f20015f9091909190916101000a81548173ffffffffffffffffffffffffffffffffffffffff021916908373ffffffffffffffffffffffffffffffffffffffff160217905550610f1e610f5a565b7fcb6783276e8a4347387036bbfea000268f0a4b1f8c46ac79980609f2af8d2acd3382604051610f4f929190611f02565b60405180910390a150565b60075447106110d1575f60068054905011610faa576040517f08c379a0000000000000000000000000000000000000000000000000000000008152600401610fa190611f7a565b60405180910390fd5b5f6006805490504244604051602001610fc4929190611fb8565b604051602081830303815290604052805190602001205f1c610fe69190612010565b90505f60068281548110610ffd57610ffc612040565b5b905f5260205f20015f9054906101000a900473ffffffffffffffffffffffffffffffffffffffff1690505f4790505f67ffffffffffffffff81111561104557611044611321565b5b6040519080825280602002602001820160405280156110735781602001602082028036833780820191505090505b50600690805190602001906110899291906111bc565b5061109482826110d3565b7f4b6b6bdf45da3f3675a54b2585277ed89356e08d005ae76f6dfff71260b4ce1182826040516110c59291906120bf565b60405180910390a15050505b565b8047101561111857306040517fcd78605900000000000000000000000000000000000000000000000000000000815260040161110f91906120e6565b60405180910390fd5b5f8273ffffffffffffffffffffffffffffffffffffffff168260405161113d9061212c565b5f6040518083038185875af1925050503d805f8114611177576040519150601f19603f3d011682016040523d82523d5f602084013e61117c565b606091505b50509050806111b7576040517f1425ea4200000000000000000000000000000000000000000000000000000000815260040160405180910390fd5b505050565b828054828255905f5260205f20908101928215611232579160200282015b82811115611231578251825f6101000a81548173ffffffffffffffffffffffffffffffffffffffff021916908373ffffffffffffffffffffffffffffffffffffffff160217905550916020019190600101906111da565b5b50905061123f9190611243565b5090565b5b8082111561125a575f815f905550600101611244565b5090565b5f81519050919050565b5f82825260208201905092915050565b5f5b8381101561129557808201518184015260208101905061127a565b5f8484015250505050565b5f601f19601f8301169050919050565b5f6112ba8261125e565b6112c48185611268565b93506112d4818560208601611278565b6112dd816112a0565b840191505092915050565b5f6020820190508181035f83015261130081846112b0565b905092915050565b5f604051905090565b5f80fd5b5f80fd5b5f80fd5b5f80fd5b7f4e487b71000000000000000000000000000000000000000000000000000000005f52604160045260245ffd5b611357826112a0565b810181811067ffffffffffffffff8211171561137657611375611321565b5b80604052505050565b5f611388611308565b9050611394828261134e565b919050565b5f67ffffffffffffffff8211156113b3576113b2611321565b5b6113bc826112a0565b9050602081019050919050565b828183375f83830152505050565b5f6113e96113e484611399565b61137f565b9050828152602081018484840111156114055761140461131d565b5b6114108482856113c9565b509392505050565b5f82601f83011261142c5761142b611319565b5b813561143c8482602086016113d7565b91505092915050565b5f6020828403121561145a57611459611311565b5b5f82013567ffffffffffffffff81111561147757611476611315565b5b61148384828501611418565b91505092915050565b5f819050919050565b61149e8161148c565b82525050565b5f6020820190506114b75f830184611495565b92915050565b5f73ffffffffffffffffffffffffffffffffffffffff82169050919050565b5f6114e6826114bd565b9050919050565b6114f6816114dc565b8114611500575f80fd5b50565b5f81359050611511816114ed565b92915050565b5f6020828403121561152c5761152b611311565b5b5f61153984828501611503565b91505092915050565b5f8115159050919050565b61155681611542565b82525050565b5f60208201905061156f5f83018461154d565b92915050565b61157e8161148c565b8114611588575f80fd5b50565b5f8135905061159981611575565b92915050565b5f602082840312156115b4576115b3611311565b5b5f6115c18482850161158b565b91505092915050565b5f81519050919050565b5f82825260208201905092915050565b5f819050602082019050919050565b5f82825260208201905092915050565b5f61160d8261125e565b61161781856115f3565b9350611627818560208601611278565b611630816112a0565b840191505092915050565b5f6116468383611603565b905092915050565b5f602082019050919050565b5f611664826115ca565b61166e81856115d4565b935083602082028501611680856115e4565b805f5b858110156116bb578484038952815161169c858261163b565b94506116a78361164e565b925060208a01995050600181019050611683565b50829750879550505050505092915050565b5f6020820190508181035f8301526116e5818461165a565b905092915050565b5f806040838503121561170357611702611311565b5b5f83013567ffffffffffffffff8111156117205761171f611315565b5b61172c85828601611418565b925050602083013567ffffffffffffffff81111561174d5761174c611315565b5b61175985828601611418565b9150509250929050565b7f4e487b71000000000000000000000000000000000000000000000000000000005f52602260045260245ffd5b5f60028204905060018216806117a757607f821691505b6020821081036117ba576117b9611763565b5b50919050565b5f81905092915050565b5f6117d48261125e565b6117de81856117c0565b93506117ee818560208601611278565b80840191505092915050565b5f61180582846117ca565b915081905092915050565b7f4f6e6c79206f776e65722063616e2065786563757465000000000000000000005f82015250565b5f611844601683611268565b915061184f82611810565b602082019050919050565b5f6020820190508181035f83015261187181611838565b9050919050565b7f50726f6a65637420616c726561647920657869737473000000000000000000005f82015250565b5f6118ac601683611268565b91506118b782611878565b602082019050919050565b5f6020820190508181035f8301526118d9816118a0565b9050919050565b7f50726f6a656374206e616d6520697320726571756972656400000000000000005f82015250565b5f611914601883611268565b915061191f826118e0565b602082019050919050565b5f6020820190508181035f83015261194181611908565b9050919050565b7f50726f6a656374204944206973207265717569726564000000000000000000005f82015250565b5f61197c601683611268565b915061198782611948565b602082019050919050565b5f6020820190508181035f8301526119a981611970565b9050919050565b5f819050815f5260205f209050919050565b5f6020601f8301049050919050565b5f82821b905092915050565b5f60088302611a0c7fffffffffffffffffffffffffffffffffffffffffffffffffffffffffffffffff826119d1565b611a1686836119d1565b95508019841693508086168417925050509392505050565b5f819050919050565b5f611a51611a4c611a478461148c565b611a2e565b61148c565b9050919050565b5f819050919050565b611a6a83611a37565b611a7e611a7682611a58565b8484546119dd565b825550505050565b5f90565b611a92611a86565b611a9d818484611a61565b505050565b5b81811015611ac057611ab55f82611a8a565b600181019050611aa3565b5050565b601f821115611b0557611ad6816119b0565b611adf846119c2565b81016020851015611aee578190505b611b02611afa856119c2565b830182611aa2565b50505b505050565b5f82821c905092915050565b5f611b255f1984600802611b0a565b1980831691505092915050565b5f611b3d8383611b16565b9150826002028217905092915050565b611b568261125e565b67ffffffffffffffff811115611b6f57611b6e611321565b5b611b798254611790565b611b84828285611ac4565b5f60209050601f831160018114611bb5575f8415611ba3578287015190505b611bad8582611b32565b865550611c14565b601f198416611bc3866119b0565b5f5b82811015611bea57848901518255600182019150602085019450602081019050611bc5565b86831015611c075784890151611c03601f891682611b16565b8355505b6001600288020188555050505b505050505050565b5f6040820190508181035f830152611c3481856112b0565b90508181036020830152611c4881846112b0565b90509392505050565b7f4e6577206f776e65722063616e6e6f7420626520746865207a65726f206164645f8201527f7265737300000000000000000000000000000000000000000000000000000000602082015250565b5f611cab602483611268565b9150611cb682611c51565b604082019050919050565b5f6020820190508181035f830152611cd881611c9f565b9050919050565b7f4d696e696d756d20302e303120657468657200000000000000000000000000005f82015250565b5f611d13601283611268565b9150611d1e82611cdf565b602082019050919050565b5f6020820190508181035f830152611d4081611d07565b9050919050565b7f4d6178696d756d20302e303120657468657200000000000000000000000000005f82015250565b5f611d7b601283611268565b9150611d8682611d47565b602082019050919050565b5f6020820190508181035f830152611da881611d6f565b9050919050565b7f416c726561647920766f746564000000000000000000000000000000000000005f82015250565b5f611de3600d83611268565b9150611dee82611daf565b602082019050919050565b5f6020820190508181035f830152611e1081611dd7565b9050919050565b7f50726f6a65637420646f6573206e6f74206578697374000000000000000000005f82015250565b5f611e4b601683611268565b9150611e5682611e17565b602082019050919050565b5f6020820190508181035f830152611e7881611e3f565b9050919050565b7f4e487b71000000000000000000000000000000000000000000000000000000005f52601160045260245ffd5b5f611eb68261148c565b91507fffffffffffffffffffffffffffffffffffffffffffffffffffffffffffffffff8203611ee857611ee7611e7f565b5b600182019050919050565b611efc816114dc565b82525050565b5f604082019050611f155f830185611ef3565b8181036020830152611f2781846112b0565b90509392505050565b7f4e6f20766f7465727320746f20726577617264000000000000000000000000005f82015250565b5f611f64601383611268565b9150611f6f82611f30565b602082019050919050565b5f6020820190508181035f830152611f9181611f58565b9050919050565b5f819050919050565b611fb2611fad8261148c565b611f98565b82525050565b5f611fc38285611fa1565b602082019150611fd38284611fa1565b6020820191508190509392505050565b7f4e487b71000000000000000000000000000000000000000000000000000000005f52601260045260245ffd5b5f61201a8261148c565b91506120258361148c565b92508261203557612034611fe3565b5b828206905092915050565b7f4e487b71000000000000000000000000000000000000000000000000000000005f52603260045260245ffd5b5f61208761208261207d846114bd565b611a2e565b6114bd565b9050919050565b5f6120988261206d565b9050919050565b5f6120a98261208e565b9050919050565b6120b98161209f565b82525050565b5f6040820190506120d25f8301856120b0565b6120df6020830184611495565b9392505050565b5f6020820190506120f95f830184611ef3565b92915050565b5f81905092915050565b50565b5f6121175f836120ff565b915061212282612109565b5f82019050919050565b5f6121368261210c565b915081905091905056fea26469706673582212207dab47c2fa7cd74741f80d474a475894a0cadb3c94e0f7eacc3ab1d4fab7e07464736f6c63430008150033",
  "immutableReferences": {},
  "source": "// SPDX-License-Identifier: MIT \npragma solidity ^0.8.0;\n\nimport \"@openzeppelin/contracts/utils/Address.sol\";\n\ncontract ProjectVoting {\n    mapping(string => uint) public projectVotes;\n    mapping(address => bool) public hasVoted;\n    mapping(string => string) public projects;\n    mapping(address => string) public addressVotes;\n    string[] public projectIds;\n    address private owner;\n    address[] private voters;\n    uint private threshold = 0.1 ether;\n\n    event ProjectAdded(string projectId, string projectName);\n    event Voted(address voter, string projectId); \n    event AutoTransferExecuted(address recipient, uint256 amount);\n\n    modifier onlyOwner() {\n        require(msg.sender == owner, \"Only owner can execute\");\n        _;\n    }\n  \n    constructor() {\n        owner = msg.sender;\n    }\n\n    function add(string memory projectName, string memory projectId) public onlyOwner {\n        require(bytes(projects[projectId]).length == 0, \"Project already exists\");\n        require(bytes(projectName).length > 0, \"Project name is required\"); // Input validation for projectName\n        require(bytes(projectId).length > 0, \"Project ID is required\"); // Input validation for projectId\n        projects[projectId] = projectName;\n        projectIds.push(projectId);\n        emit ProjectAdded(projectId, projectName); \n    }\n\n    function vote(string memory projectId) payable public {\n        require(msg.value >= 0.001 ether, \"Minimum 0.01 ether\");\n        require(msg.value <= 0.05 ether, \"Maximum 0.01 ether\");\n        require(!hasVoted[msg.sender], \"Already voted\");\n        require(bytes(projects[projectId]).length > 0, \"Project does not exist\"); \n\n        addressVotes[msg.sender] = projectId;\n        projectVotes[projectId]++;\n        hasVoted[msg.sender] = true;\n        voters.push(msg.sender);\n        checkAndTransfer();\n        emit Voted(msg.sender, projectId);\n    }\n\n    function getVoteCount(string memory projectId) public view returns (uint) {\n        return projectVotes[projectId];\n    }\n\n    function getAll() public view returns (string[] memory) {\n        return projectIds;\n    }\n\n    function checkHasVoted() public view returns (bool) {\n        return hasVoted[msg.sender];\n    }\n\n    function getVote() public view returns (string memory) {\n        return  addressVotes[msg.sender]; \n    }\n\n    function checkAndTransfer() internal {\n        if (address(this).balance >= threshold) {\n            require(voters.length > 0, \"No voters to reward\");\n            uint randomIndex = uint(keccak256(abi.encodePacked(block.timestamp, block.prevrandao))) % voters.length;\n            address payable luckyVoter = payable(voters[randomIndex]);\n            uint256 amountToSend = address(this).balance;\n            voters = new address[](0); \n            Address.sendValue(luckyVoter, amountToSend);\n\n            emit AutoTransferExecuted(luckyVoter, amountToSend);\n        }\n    }\n\n    function getBalance() public view returns (uint256) {\n        return address(this).balance;\n    }\n\n    function getThreshold() public view returns (uint256) {\n        return threshold;\n    }\n\n    function transferOwnership(address newOwner) public onlyOwner {\n        require(newOwner != address(0), \"New owner cannot be the zero address\");\n        owner = newOwner;\n    }\n\n    function withdraw() public onlyOwner {\n        payable(owner).transfer(address(this).balance);\n    }\n}",
  "sourcePath": "/home/ddavis/Documents/web_dev/Projects/PersonalSite/backend/contracts/project-voting.sol",
  "compiler": {
    "name": "solc",
    "version": "0.8.21+commit.d9974bed.Emscripten.clang"
  },
  "schemaVersion": "3.4.16",
  "updatedAt": "2024-01-09T00:59:17.549Z",
  "networkType": "ethereum",
  "devdoc": {
    "errors": {
      "AddressInsufficientBalance(address)": [
        {
          "details": "The ETH balance of the account is not enough to perform the operation."
        }
      ],
      "FailedInnerCall()": [
        {
          "details": "A call to an address target failed. The target may have reverted."
        }
      ]
    },
    "kind": "dev",
    "methods": {},
    "version": 1
  },
  "userdoc": {
    "kind": "user",
    "methods": {},
    "version": 1
  }
}