{
  "contractName": "ProjectVoting",
  "abi": [
    {
      "inputs": [],
      "stateMutability": "nonpayable",
      "type": "constructor"
    },
    {
      "inputs": [
        {
          "internalType": "address",
          "name": "account",
          "type": "address"
        }
      ],
      "name": "AddressInsufficientBalance",
      "type": "error"
    },
    {
      "inputs": [],
      "name": "FailedInnerCall",
      "type": "error"
    },
    {
      "anonymous": false,
      "inputs": [
        {
          "indexed": false,
          "internalType": "string",
          "name": "projectId",
          "type": "string"
        },
        {
          "indexed": false,
          "internalType": "string",
          "name": "projectName",
          "type": "string"
        }
      ],
      "name": "ProjectAdded",
      "type": "event"
    },
    {
      "anonymous": false,
      "inputs": [
        {
          "indexed": false,
          "internalType": "address",
          "name": "voter",
          "type": "address"
        },
        {
          "indexed": false,
          "internalType": "string",
          "name": "projectId",
          "type": "string"
        }
      ],
      "name": "Voted",
      "type": "event"
    },
    {
      "anonymous": false,
      "inputs": [
        {
          "indexed": false,
          "internalType": "address",
          "name": "winner",
          "type": "address"
        },
        {
          "indexed": false,
          "internalType": "uint256",
          "name": "amount",
          "type": "uint256"
        }
      ],
      "name": "WinnerAnnounced",
      "type": "event"
    },
    {
      "inputs": [
        {
          "internalType": "address",
          "name": "",
          "type": "address"
        }
      ],
      "name": "addressNames",
      "outputs": [
        {
          "internalType": "string",
          "name": "",
          "type": "string"
        }
      ],
      "stateMutability": "view",
      "type": "function",
      "constant": true
    },
    {
      "inputs": [
        {
          "internalType": "address",
          "name": "",
          "type": "address"
        }
      ],
      "name": "addressVotes",
      "outputs": [
        {
          "internalType": "string",
          "name": "",
          "type": "string"
        }
      ],
      "stateMutability": "view",
      "type": "function",
      "constant": true
    },
    {
      "inputs": [
        {
          "internalType": "address",
          "name": "",
          "type": "address"
        }
      ],
      "name": "hasVoted",
      "outputs": [
        {
          "internalType": "bool",
          "name": "",
          "type": "bool"
        }
      ],
      "stateMutability": "view",
      "type": "function",
      "constant": true
    },
    {
      "inputs": [
        {
          "internalType": "uint256",
          "name": "",
          "type": "uint256"
        }
      ],
      "name": "projectIds",
      "outputs": [
        {
          "internalType": "string",
          "name": "",
          "type": "string"
        }
      ],
      "stateMutability": "view",
      "type": "function",
      "constant": true
    },
    {
      "inputs": [
        {
          "internalType": "string",
          "name": "",
          "type": "string"
        }
      ],
      "name": "projectVotes",
      "outputs": [
        {
          "internalType": "uint256",
          "name": "",
          "type": "uint256"
        }
      ],
      "stateMutability": "view",
      "type": "function",
      "constant": true
    },
    {
      "inputs": [
        {
          "internalType": "string",
          "name": "",
          "type": "string"
        }
      ],
      "name": "projects",
      "outputs": [
        {
          "internalType": "string",
          "name": "",
          "type": "string"
        }
      ],
      "stateMutability": "view",
      "type": "function",
      "constant": true
    },
    {
      "inputs": [
        {
          "internalType": "uint256",
          "name": "",
          "type": "uint256"
        }
      ],
      "name": "winners",
      "outputs": [
        {
          "internalType": "string",
          "name": "",
          "type": "string"
        }
      ],
      "stateMutability": "view",
      "type": "function",
      "constant": true
    },
    {
      "inputs": [
        {
          "internalType": "string",
          "name": "projectName",
          "type": "string"
        },
        {
          "internalType": "string",
          "name": "projectId",
          "type": "string"
        }
      ],
      "name": "add",
      "outputs": [],
      "stateMutability": "nonpayable",
      "type": "function"
    },
    {
      "inputs": [
        {
          "internalType": "string",
          "name": "projectId",
          "type": "string"
        },
        {
          "internalType": "string",
          "name": "voterName",
          "type": "string"
        }
      ],
      "name": "vote",
      "outputs": [],
      "stateMutability": "payable",
      "type": "function",
      "payable": true
    },
    {
      "inputs": [],
      "name": "getWinners",
      "outputs": [
        {
          "internalType": "string[]",
          "name": "",
          "type": "string[]"
        }
      ],
      "stateMutability": "view",
      "type": "function",
      "constant": true
    },
    {
      "inputs": [],
      "name": "voteTest",
      "outputs": [
        {
          "internalType": "uint256",
          "name": "",
          "type": "uint256"
        }
      ],
      "stateMutability": "payable",
      "type": "function",
      "payable": true
    },
    {
      "inputs": [
        {
          "internalType": "string",
          "name": "projectId",
          "type": "string"
        }
      ],
      "name": "getVoteCount",
      "outputs": [
        {
          "internalType": "uint256",
          "name": "",
          "type": "uint256"
        }
      ],
      "stateMutability": "view",
      "type": "function",
      "constant": true
    },
    {
      "inputs": [],
      "name": "getAll",
      "outputs": [
        {
          "internalType": "string[]",
          "name": "",
          "type": "string[]"
        }
      ],
      "stateMutability": "view",
      "type": "function",
      "constant": true
    },
    {
      "inputs": [],
      "name": "checkHasVoted",
      "outputs": [
        {
          "internalType": "bool",
          "name": "",
          "type": "bool"
        }
      ],
      "stateMutability": "view",
      "type": "function",
      "constant": true
    },
    {
      "inputs": [],
      "name": "getVote",
      "outputs": [
        {
          "internalType": "string",
          "name": "",
          "type": "string"
        }
      ],
      "stateMutability": "view",
      "type": "function",
      "constant": true
    },
    {
      "inputs": [],
      "name": "getBalance",
      "outputs": [
        {
          "internalType": "uint256",
          "name": "",
          "type": "uint256"
        }
      ],
      "stateMutability": "view",
      "type": "function",
      "constant": true
    },
    {
      "inputs": [],
      "name": "getThreshold",
      "outputs": [
        {
          "internalType": "uint256",
          "name": "",
          "type": "uint256"
        }
      ],
      "stateMutability": "view",
      "type": "function",
      "constant": true
    },
    {
      "inputs": [
        {
          "internalType": "address",
          "name": "newOwner",
          "type": "address"
        }
      ],
      "name": "transferOwnership",
      "outputs": [],
      "stateMutability": "nonpayable",
      "type": "function"
    },
    {
      "inputs": [],
      "name": "withdraw",
      "outputs": [],
      "stateMutability": "nonpayable",
      "type": "function"
    }
  ],
  "bytecode": "0x608060405267016345785d8a000060095534801561001b575f80fd5b503360075f6101000a81548173ffffffffffffffffffffffffffffffffffffffff021916908373ffffffffffffffffffffffffffffffffffffffff160217905550612543806100695f395ff3fe608060405260043610610113575f3560e01c806395dacd521161009f578063df15c37e11610063578063df15c37e146103d3578063e75235b8146103fd578063e8d5940d14610427578063ebdf86ca14610443578063f2fde38b1461046b57610113565b806395dacd52146102c5578063a2fb1175146102e3578063a34bb6e61461031f578063b05018691461035b578063c4c911101461039757610113565b80631234ce9d116100e65780631234ce9d146101e35780633ccfd60b1461020d57806348c35ad41461022357806353ed51431461025f57806391c9b2681461028957610113565b80630242f35114610117578063069953a71461014157806309eef43e1461017d57806312065fe0146101b9575b5f80fd5b348015610122575f80fd5b5061012b610493565b60405161013891906115a9565b60405180910390f35b34801561014c575f80fd5b5061016760048036038101906101629190611706565b61055e565b6040516101749190611765565b60405180910390f35b348015610188575f80fd5b506101a3600480360381019061019e91906117d8565b610584565b6040516101b0919061181d565b60405180910390f35b3480156101c4575f80fd5b506101cd6105a1565b6040516101da9190611765565b60405180910390f35b3480156101ee575f80fd5b506101f76105a8565b604051610204919061181d565b60405180910390f35b348015610218575f80fd5b506102216105f8565b005b34801561022e575f80fd5b5061024960048036038101906102449190611860565b6106ee565b60405161025691906115a9565b60405180910390f35b34801561026a575f80fd5b50610273610794565b604051610280919061198e565b60405180910390f35b348015610294575f80fd5b506102af60048036038101906102aa9190611706565b610868565b6040516102bc91906115a9565b60405180910390f35b6102cd61091b565b6040516102da9190611765565b60405180910390f35b3480156102ee575f80fd5b5061030960048036038101906103049190611860565b610922565b60405161031691906115a9565b60405180910390f35b34801561032a575f80fd5b50610345600480360381019061034091906117d8565b6109c8565b60405161035291906115a9565b60405180910390f35b348015610366575f80fd5b50610381600480360381019061037c91906117d8565b610a63565b60405161038e91906115a9565b60405180910390f35b3480156103a2575f80fd5b506103bd60048036038101906103b89190611706565b610afe565b6040516103ca9190611765565b60405180910390f35b3480156103de575f80fd5b506103e7610b2a565b6040516103f4919061198e565b60405180910390f35b348015610408575f80fd5b50610411610bfe565b60405161041e9190611765565b60405180910390f35b610441600480360381019061043c91906119ae565b610c07565b005b34801561044e575f80fd5b50610469600480360381019061046491906119ae565b610f52565b005b348015610476575f80fd5b50610491600480360381019061048c91906117d8565b61116e565b005b606060035f3373ffffffffffffffffffffffffffffffffffffffff1673ffffffffffffffffffffffffffffffffffffffff1681526020019081526020015f2080546104dd90611a51565b80601f016020809104026020016040519081016040528092919081815260200182805461050990611a51565b80156105545780601f1061052b57610100808354040283529160200191610554565b820191905f5260205f20905b81548152906001019060200180831161053757829003601f168201915b5050505050905090565b5f808260405161056e9190611abb565b9081526020016040518091039020549050919050565b6001602052805f5260405f205f915054906101000a900460ff1681565b5f47905090565b5f60015f3373ffffffffffffffffffffffffffffffffffffffff1673ffffffffffffffffffffffffffffffffffffffff1681526020019081526020015f205f9054906101000a900460ff16905090565b60075f9054906101000a900473ffffffffffffffffffffffffffffffffffffffff1673ffffffffffffffffffffffffffffffffffffffff163373ffffffffffffffffffffffffffffffffffffffff1614610687576040517f08c379a000000000000000000000000000000000000000000000000000000000815260040161067e90611b1b565b60405180910390fd5b60075f9054906101000a900473ffffffffffffffffffffffffffffffffffffffff1673ffffffffffffffffffffffffffffffffffffffff166108fc4790811502906040515f60405180830381858888f193505050501580156106eb573d5f803e3d5ffd5b50565b600681815481106106fd575f80fd5b905f5260205f20015f91509050805461071590611a51565b80601f016020809104026020016040519081016040528092919081815260200182805461074190611a51565b801561078c5780601f106107635761010080835404028352916020019161078c565b820191905f5260205f20905b81548152906001019060200180831161076f57829003601f168201915b505050505081565b60606006805480602002602001604051908101604052809291908181526020015f905b8282101561085f578382905f5260205f200180546107d490611a51565b80601f016020809104026020016040519081016040528092919081815260200182805461080090611a51565b801561084b5780601f106108225761010080835404028352916020019161084b565b820191905f5260205f20905b81548152906001019060200180831161082e57829003601f168201915b5050505050815260200190600101906107b7565b50505050905090565b6002818051602081018201805184825260208301602085012081835280955050505050505f91509050805461089c90611a51565b80601f01602080910402602001604051908101604052809291908181526020018280546108c890611a51565b80156109135780601f106108ea57610100808354040283529160200191610913565b820191905f5260205f20905b8154815290600101906020018083116108f657829003601f168201915b505050505081565b5f34905090565b60058181548110610931575f80fd5b905f5260205f20015f91509050805461094990611a51565b80601f016020809104026020016040519081016040528092919081815260200182805461097590611a51565b80156109c05780601f10610997576101008083540402835291602001916109c0565b820191905f5260205f20905b8154815290600101906020018083116109a357829003601f168201915b505050505081565b6003602052805f5260405f205f9150905080546109e490611a51565b80601f0160208091040260200160405190810160405280929190818152602001828054610a1090611a51565b8015610a5b5780601f10610a3257610100808354040283529160200191610a5b565b820191905f5260205f20905b815481529060010190602001808311610a3e57829003601f168201915b505050505081565b6004602052805f5260405f205f915090508054610a7f90611a51565b80601f0160208091040260200160405190810160405280929190818152602001828054610aab90611a51565b8015610af65780601f10610acd57610100808354040283529160200191610af6565b820191905f5260205f20905b815481529060010190602001808311610ad957829003601f168201915b505050505081565b5f818051602081018201805184825260208301602085012081835280955050505050505f915090505481565b60606005805480602002602001604051908101604052809291908181526020015f905b82821015610bf5578382905f5260205f20018054610b6a90611a51565b80601f0160208091040260200160405190810160405280929190818152602001828054610b9690611a51565b8015610be15780601f10610bb857610100808354040283529160200191610be1565b820191905f5260205f20905b815481529060010190602001808311610bc457829003601f168201915b505050505081526020019060010190610b4d565b50505050905090565b5f600954905090565b66038d7ea4c68000341015610c51576040517f08c379a0000000000000000000000000000000000000000000000000000000008152600401610c4890611b83565b60405180910390fd5b66b1a2bc2ec50000341115610c9b576040517f08c379a0000000000000000000000000000000000000000000000000000000008152600401610c9290611beb565b60405180910390fd5b60015f3373ffffffffffffffffffffffffffffffffffffffff1673ffffffffffffffffffffffffffffffffffffffff1681526020019081526020015f205f9054906101000a900460ff1615610d25576040517f08c379a0000000000000000000000000000000000000000000000000000000008152600401610d1c90611c53565b60405180910390fd5b5f600283604051610d369190611abb565b90815260200160405180910390208054610d4f90611a51565b905011610d91576040517f08c379a0000000000000000000000000000000000000000000000000000000008152600401610d8890611cbb565b60405180910390fd5b8060045f3373ffffffffffffffffffffffffffffffffffffffff1673ffffffffffffffffffffffffffffffffffffffff1681526020019081526020015f209081610ddb9190611e76565b508160035f3373ffffffffffffffffffffffffffffffffffffffff1673ffffffffffffffffffffffffffffffffffffffff1681526020019081526020015f209081610e269190611e76565b505f82604051610e369190611abb565b90815260200160405180910390205f815480929190610e5490611f72565b91905055506001805f3373ffffffffffffffffffffffffffffffffffffffff1673ffffffffffffffffffffffffffffffffffffffff1681526020019081526020015f205f6101000a81548160ff021916908315150217905550600833908060018154018082558091505060019003905f5260205f20015f9091909190916101000a81548173ffffffffffffffffffffffffffffffffffffffff021916908373ffffffffffffffffffffffffffffffffffffffff160217905550610f156112ae565b7fcb6783276e8a4347387036bbfea000268f0a4b1f8c46ac79980609f2af8d2acd3383604051610f46929190611fc8565b60405180910390a15050565b60075f9054906101000a900473ffffffffffffffffffffffffffffffffffffffff1673ffffffffffffffffffffffffffffffffffffffff163373ffffffffffffffffffffffffffffffffffffffff1614610fe1576040517f08c379a0000000000000000000000000000000000000000000000000000000008152600401610fd890611b1b565b60405180910390fd5b5f600282604051610ff29190611abb565b9081526020016040518091039020805461100b90611a51565b90501461104d576040517f08c379a000000000000000000000000000000000000000000000000000000000815260040161104490612040565b60405180910390fd5b5f825111611090576040517f08c379a0000000000000000000000000000000000000000000000000000000008152600401611087906120a8565b60405180910390fd5b5f8151116110d3576040517f08c379a00000000000000000000000000000000000000000000000000000000081526004016110ca90612110565b60405180910390fd5b816002826040516110e49190611abb565b908152602001604051809103902090816110fe9190611e76565b50600681908060018154018082558091505060019003905f5260205f20015f9091909190915090816111309190611e76565b507feb5d6000a362475be9d9b16beddc148b7004850daf2e69325a403d613567769e818360405161116292919061212e565b60405180910390a15050565b60075f9054906101000a900473ffffffffffffffffffffffffffffffffffffffff1673ffffffffffffffffffffffffffffffffffffffff163373ffffffffffffffffffffffffffffffffffffffff16146111fd576040517f08c379a00000000000000000000000000000000000000000000000000000000081526004016111f490611b1b565b60405180910390fd5b5f73ffffffffffffffffffffffffffffffffffffffff168173ffffffffffffffffffffffffffffffffffffffff160361126b576040517f08c379a0000000000000000000000000000000000000000000000000000000008152600401611262906121d3565b60405180910390fd5b8060075f6101000a81548173ffffffffffffffffffffffffffffffffffffffff021916908373ffffffffffffffffffffffffffffffffffffffff16021790555050565b6009544710611434575f600880549050116112fe576040517f08c379a00000000000000000000000000000000000000000000000000000000081526004016112f59061223b565b60405180910390fd5b5f6008805490504244604051602001611318929190612279565b604051602081830303815290604052805190602001205f1c61133a91906122d1565b90505f6008828154811061135157611350612301565b5b905f5260205f20015f9054906101000a900473ffffffffffffffffffffffffffffffffffffffff1690505f4790506113898282611436565b600560045f8473ffffffffffffffffffffffffffffffffffffffff1673ffffffffffffffffffffffffffffffffffffffff1681526020019081526020015f20908060018154018082558091505060019003905f5260205f20015f9091909190915090816113f69190612355565b507fac853ae20ebc831e1db62fa17db64e8e173b63c6dcd89a4a4f5f24a1a080322e828260405161142892919061248c565b60405180910390a15050505b565b8047101561147b57306040517fcd78605900000000000000000000000000000000000000000000000000000000815260040161147291906124b3565b60405180910390fd5b5f8273ffffffffffffffffffffffffffffffffffffffff16826040516114a0906124f9565b5f6040518083038185875af1925050503d805f81146114da576040519150601f19603f3d011682016040523d82523d5f602084013e6114df565b606091505b505090508061151a576040517f1425ea4200000000000000000000000000000000000000000000000000000000815260040160405180910390fd5b505050565b5f81519050919050565b5f82825260208201905092915050565b5f5b8381101561155657808201518184015260208101905061153b565b5f8484015250505050565b5f601f19601f8301169050919050565b5f61157b8261151f565b6115858185611529565b9350611595818560208601611539565b61159e81611561565b840191505092915050565b5f6020820190508181035f8301526115c18184611571565b905092915050565b5f604051905090565b5f80fd5b5f80fd5b5f80fd5b5f80fd5b7f4e487b71000000000000000000000000000000000000000000000000000000005f52604160045260245ffd5b61161882611561565b810181811067ffffffffffffffff82111715611637576116366115e2565b5b80604052505050565b5f6116496115c9565b9050611655828261160f565b919050565b5f67ffffffffffffffff821115611674576116736115e2565b5b61167d82611561565b9050602081019050919050565b828183375f83830152505050565b5f6116aa6116a58461165a565b611640565b9050828152602081018484840111156116c6576116c56115de565b5b6116d184828561168a565b509392505050565b5f82601f8301126116ed576116ec6115da565b5b81356116fd848260208601611698565b91505092915050565b5f6020828403121561171b5761171a6115d2565b5b5f82013567ffffffffffffffff811115611738576117376115d6565b5b611744848285016116d9565b91505092915050565b5f819050919050565b61175f8161174d565b82525050565b5f6020820190506117785f830184611756565b92915050565b5f73ffffffffffffffffffffffffffffffffffffffff82169050919050565b5f6117a78261177e565b9050919050565b6117b78161179d565b81146117c1575f80fd5b50565b5f813590506117d2816117ae565b92915050565b5f602082840312156117ed576117ec6115d2565b5b5f6117fa848285016117c4565b91505092915050565b5f8115159050919050565b61181781611803565b82525050565b5f6020820190506118305f83018461180e565b92915050565b61183f8161174d565b8114611849575f80fd5b50565b5f8135905061185a81611836565b92915050565b5f60208284031215611875576118746115d2565b5b5f6118828482850161184c565b91505092915050565b5f81519050919050565b5f82825260208201905092915050565b5f819050602082019050919050565b5f82825260208201905092915050565b5f6118ce8261151f565b6118d881856118b4565b93506118e8818560208601611539565b6118f181611561565b840191505092915050565b5f61190783836118c4565b905092915050565b5f602082019050919050565b5f6119258261188b565b61192f8185611895565b935083602082028501611941856118a5565b805f5b8581101561197c578484038952815161195d85826118fc565b94506119688361190f565b925060208a01995050600181019050611944565b50829750879550505050505092915050565b5f6020820190508181035f8301526119a6818461191b565b905092915050565b5f80604083850312156119c4576119c36115d2565b5b5f83013567ffffffffffffffff8111156119e1576119e06115d6565b5b6119ed858286016116d9565b925050602083013567ffffffffffffffff811115611a0e57611a0d6115d6565b5b611a1a858286016116d9565b9150509250929050565b7f4e487b71000000000000000000000000000000000000000000000000000000005f52602260045260245ffd5b5f6002820490506001821680611a6857607f821691505b602082108103611a7b57611a7a611a24565b5b50919050565b5f81905092915050565b5f611a958261151f565b611a9f8185611a81565b9350611aaf818560208601611539565b80840191505092915050565b5f611ac68284611a8b565b915081905092915050565b7f4f6e6c79206f776e65722063616e2065786563757465000000000000000000005f82015250565b5f611b05601683611529565b9150611b1082611ad1565b602082019050919050565b5f6020820190508181035f830152611b3281611af9565b9050919050565b7f4d696e696d756d20302e303031206574686572000000000000000000000000005f82015250565b5f611b6d601383611529565b9150611b7882611b39565b602082019050919050565b5f6020820190508181035f830152611b9a81611b61565b9050919050565b7f4d6178696d756d20302e303520657468657200000000000000000000000000005f82015250565b5f611bd5601283611529565b9150611be082611ba1565b602082019050919050565b5f6020820190508181035f830152611c0281611bc9565b9050919050565b7f416c726561647920766f746564000000000000000000000000000000000000005f82015250565b5f611c3d600d83611529565b9150611c4882611c09565b602082019050919050565b5f6020820190508181035f830152611c6a81611c31565b9050919050565b7f50726f6a65637420646f6573206e6f74206578697374000000000000000000005f82015250565b5f611ca5601683611529565b9150611cb082611c71565b602082019050919050565b5f6020820190508181035f830152611cd281611c99565b9050919050565b5f819050815f5260205f209050919050565b5f6020601f8301049050919050565b5f82821b905092915050565b5f60088302611d357fffffffffffffffffffffffffffffffffffffffffffffffffffffffffffffffff82611cfa565b611d3f8683611cfa565b95508019841693508086168417925050509392505050565b5f819050919050565b5f611d7a611d75611d708461174d565b611d57565b61174d565b9050919050565b5f819050919050565b611d9383611d60565b611da7611d9f82611d81565b848454611d06565b825550505050565b5f90565b611dbb611daf565b611dc6818484611d8a565b505050565b5b81811015611de957611dde5f82611db3565b600181019050611dcc565b5050565b601f821115611e2e57611dff81611cd9565b611e0884611ceb565b81016020851015611e17578190505b611e2b611e2385611ceb565b830182611dcb565b50505b505050565b5f82821c905092915050565b5f611e4e5f1984600802611e33565b1980831691505092915050565b5f611e668383611e3f565b9150826002028217905092915050565b611e7f8261151f565b67ffffffffffffffff811115611e9857611e976115e2565b5b611ea28254611a51565b611ead828285611ded565b5f60209050601f831160018114611ede575f8415611ecc578287015190505b611ed68582611e5b565b865550611f3d565b601f198416611eec86611cd9565b5f5b82811015611f1357848901518255600182019150602085019450602081019050611eee565b86831015611f305784890151611f2c601f891682611e3f565b8355505b6001600288020188555050505b505050505050565b7f4e487b71000000000000000000000000000000000000000000000000000000005f52601160045260245ffd5b5f611f7c8261174d565b91507fffffffffffffffffffffffffffffffffffffffffffffffffffffffffffffffff8203611fae57611fad611f45565b5b600182019050919050565b611fc28161179d565b82525050565b5f604082019050611fdb5f830185611fb9565b8181036020830152611fed8184611571565b90509392505050565b7f50726f6a65637420616c726561647920657869737473000000000000000000005f82015250565b5f61202a601683611529565b915061203582611ff6565b602082019050919050565b5f6020820190508181035f8301526120578161201e565b9050919050565b7f50726f6a656374206e616d6520697320726571756972656400000000000000005f82015250565b5f612092601883611529565b915061209d8261205e565b602082019050919050565b5f6020820190508181035f8301526120bf81612086565b9050919050565b7f50726f6a656374204944206973207265717569726564000000000000000000005f82015250565b5f6120fa601683611529565b9150612105826120c6565b602082019050919050565b5f6020820190508181035f830152612127816120ee565b9050919050565b5f6040820190508181035f8301526121468185611571565b9050818103602083015261215a8184611571565b90509392505050565b7f4e6577206f776e65722063616e6e6f7420626520746865207a65726f206164645f8201527f7265737300000000000000000000000000000000000000000000000000000000602082015250565b5f6121bd602483611529565b91506121c882612163565b604082019050919050565b5f6020820190508181035f8301526121ea816121b1565b9050919050565b7f4e6f20766f7465727320746f20726577617264000000000000000000000000005f82015250565b5f612225601383611529565b9150612230826121f1565b602082019050919050565b5f6020820190508181035f83015261225281612219565b9050919050565b5f819050919050565b61227361226e8261174d565b612259565b82525050565b5f6122848285612262565b6020820191506122948284612262565b6020820191508190509392505050565b7f4e487b71000000000000000000000000000000000000000000000000000000005f52601260045260245ffd5b5f6122db8261174d565b91506122e68361174d565b9250826122f6576122f56122a4565b5b828206905092915050565b7f4e487b71000000000000000000000000000000000000000000000000000000005f52603260045260245ffd5b5f8154905061233c81611a51565b9050919050565b5f819050815f5260205f209050919050565b818103612363575050612438565b61236c8261232e565b67ffffffffffffffff811115612385576123846115e2565b5b61238f8254611a51565b61239a828285611ded565b5f601f8311600181146123c7575f84156123b5578287015490505b6123bf8582611e5b565b865550612431565b601f1984166123d587612343565b96506123e086611cd9565b5f5b82811015612407578489015482556001820191506001850194506020810190506123e2565b868310156124245784890154612420601f891682611e3f565b8355505b6001600288020188555050505b5050505050505b565b5f61245461244f61244a8461177e565b611d57565b61177e565b9050919050565b5f6124658261243a565b9050919050565b5f6124768261245b565b9050919050565b6124868161246c565b82525050565b5f60408201905061249f5f83018561247d565b6124ac6020830184611756565b9392505050565b5f6020820190506124c65f830184611fb9565b92915050565b5f81905092915050565b50565b5f6124e45f836124cc565b91506124ef826124d6565b5f82019050919050565b5f612503826124d9565b915081905091905056fea2646970667358221220951c76971fdc01412194c5966e21f85e015f643cf98016eea6785a1d2cba734c64736f6c63430008150033",
  "immutableReferences": {},
  "source": "// SPDX-License-Identifier: MIT \npragma solidity ^0.8.0;\n\nimport \"@openzeppelin/contracts/utils/Address.sol\";\n\ncontract ProjectVoting {\n    mapping(string => uint) public projectVotes;\n    mapping(address => bool) public hasVoted;\n    mapping(string => string) public projects;\n    mapping(address => string) public addressVotes;\n    mapping(address => string) public addressNames;\n    string[] public winners;\n    string[] public projectIds;\n    address private owner;\n    address[] private voters;\n    uint private threshold = 0.1 ether;\n\n    event ProjectAdded(string projectId, string projectName);\n    event Voted(address voter, string projectId); \n    event WinnerAnnounced(address winner, uint256 amount);\n\n    modifier onlyOwner() {\n        require(msg.sender == owner, \"Only owner can execute\");\n        _;\n    }\n  \n    constructor() {\n        owner = msg.sender;\n    }\n\n    function add(string memory projectName, string memory projectId) public onlyOwner {\n        require(bytes(projects[projectId]).length == 0, \"Project already exists\");\n        require(bytes(projectName).length > 0, \"Project name is required\"); // Input validation for projectName\n        require(bytes(projectId).length > 0, \"Project ID is required\"); // Input validation for projectId\n        projects[projectId] = projectName;\n        projectIds.push(projectId);\n        emit ProjectAdded(projectId, projectName); \n    }\n\n    function vote(string memory projectId, string memory voterName) payable public {\n        require(msg.value >= 0.001 ether, \"Minimum 0.001 ether\");\n        require(msg.value <= 0.05 ether, \"Maximum 0.05 ether\");\n        require(!hasVoted[msg.sender], \"Already voted\");\n        require(bytes(projects[projectId]).length > 0, \"Project does not exist\"); \n        addressNames[msg.sender] = voterName;\n        addressVotes[msg.sender] = projectId;\n        projectVotes[projectId]++;\n        hasVoted[msg.sender] = true;\n        voters.push(msg.sender);\n        checkAndTransfer(); // TODO: This is breaking \n        emit Voted(msg.sender, projectId);\n    }\n\n    function getWinners() public view returns (string[] memory) {\n        return winners;\n    }\n\n    function voteTest() public payable returns (uint) {\n        return msg.value;\n    }\n\n    function getVoteCount(string memory projectId) public view returns (uint) {\n        return projectVotes[projectId];\n    }\n\n    function getAll() public view returns (string[] memory) {\n        return projectIds;\n    }\n\n    function checkHasVoted() public view returns (bool) {\n        return hasVoted[msg.sender];\n    }\n\n    function getVote() public view returns (string memory) {\n        return  addressVotes[msg.sender]; \n    }\n\n    function checkAndTransfer() internal {\n        if (address(this).balance >= threshold) {\n            require(voters.length > 0, \"No voters to reward\");\n            uint randomIndex = uint(keccak256(abi.encodePacked(block.timestamp, block.prevrandao))) % voters.length;\n            address payable luckyVoter = payable(voters[randomIndex]);\n            uint256 amountToSend = address(this).balance;\n            Address.sendValue(luckyVoter, amountToSend);\n            winners.push(addressNames[luckyVoter]);\n            emit WinnerAnnounced(luckyVoter, amountToSend);\n        }\n    }\n\n    function getBalance() public view returns (uint256) {\n        return address(this).balance;\n    }\n\n    function getThreshold() public view returns (uint256) {\n        return threshold;\n    }\n\n    function transferOwnership(address newOwner) public onlyOwner {\n        require(newOwner != address(0), \"New owner cannot be the zero address\");\n        owner = newOwner;\n    }\n\n    function withdraw() public onlyOwner {\n        payable(owner).transfer(address(this).balance);\n    }\n}",
  "sourcePath": "/home/ddavis/Documents/web_dev/Projects/PersonalSite/backend/contracts/project-voting.sol",
  "compiler": {
    "name": "solc",
    "version": "0.8.21+commit.d9974bed.Emscripten.clang"
  },
  "schemaVersion": "3.4.16",
  "updatedAt": "2024-01-16T02:13:05.047Z",
  "networkType": "ethereum",
  "devdoc": {
    "errors": {
      "AddressInsufficientBalance(address)": [
        {
          "details": "The ETH balance of the account is not enough to perform the operation."
        }
      ],
      "FailedInnerCall()": [
        {
          "details": "A call to an address target failed. The target may have reverted."
        }
      ]
    },
    "kind": "dev",
    "methods": {},
    "version": 1
  },
  "userdoc": {
    "kind": "user",
    "methods": {},
    "version": 1
  }
}