{
  "contractName": "ProjectVoting",
  "abi": [
    {
      "inputs": [],
      "stateMutability": "nonpayable",
      "type": "constructor"
    },
    {
      "inputs": [
        {
          "internalType": "address",
          "name": "account",
          "type": "address"
        }
      ],
      "name": "AddressInsufficientBalance",
      "type": "error"
    },
    {
      "inputs": [],
      "name": "FailedInnerCall",
      "type": "error"
    },
    {
      "anonymous": false,
      "inputs": [
        {
          "indexed": false,
          "internalType": "string",
          "name": "projectId",
          "type": "string"
        },
        {
          "indexed": false,
          "internalType": "string",
          "name": "projectName",
          "type": "string"
        }
      ],
      "name": "ProjectAdded",
      "type": "event"
    },
    {
      "anonymous": false,
      "inputs": [
        {
          "indexed": false,
          "internalType": "address",
          "name": "voter",
          "type": "address"
        },
        {
          "indexed": false,
          "internalType": "string",
          "name": "name",
          "type": "string"
        },
        {
          "indexed": false,
          "internalType": "string",
          "name": "projectId",
          "type": "string"
        }
      ],
      "name": "Voted",
      "type": "event"
    },
    {
      "anonymous": false,
      "inputs": [
        {
          "indexed": false,
          "internalType": "address",
          "name": "winner",
          "type": "address"
        },
        {
          "indexed": false,
          "internalType": "uint256",
          "name": "amount",
          "type": "uint256"
        }
      ],
      "name": "WinnerAnnounced",
      "type": "event"
    },
    {
      "inputs": [
        {
          "internalType": "address",
          "name": "",
          "type": "address"
        }
      ],
      "name": "addressNames",
      "outputs": [
        {
          "internalType": "string",
          "name": "",
          "type": "string"
        }
      ],
      "stateMutability": "view",
      "type": "function",
      "constant": true
    },
    {
      "inputs": [
        {
          "internalType": "address",
          "name": "",
          "type": "address"
        }
      ],
      "name": "addressVotes",
      "outputs": [
        {
          "internalType": "string",
          "name": "",
          "type": "string"
        }
      ],
      "stateMutability": "view",
      "type": "function",
      "constant": true
    },
    {
      "inputs": [
        {
          "internalType": "address",
          "name": "",
          "type": "address"
        }
      ],
      "name": "hasVoted",
      "outputs": [
        {
          "internalType": "bool",
          "name": "",
          "type": "bool"
        }
      ],
      "stateMutability": "view",
      "type": "function",
      "constant": true
    },
    {
      "inputs": [
        {
          "internalType": "uint256",
          "name": "",
          "type": "uint256"
        }
      ],
      "name": "projectIds",
      "outputs": [
        {
          "internalType": "string",
          "name": "",
          "type": "string"
        }
      ],
      "stateMutability": "view",
      "type": "function",
      "constant": true
    },
    {
      "inputs": [
        {
          "internalType": "string",
          "name": "",
          "type": "string"
        }
      ],
      "name": "projectVotes",
      "outputs": [
        {
          "internalType": "uint256",
          "name": "",
          "type": "uint256"
        }
      ],
      "stateMutability": "view",
      "type": "function",
      "constant": true
    },
    {
      "inputs": [
        {
          "internalType": "string",
          "name": "",
          "type": "string"
        }
      ],
      "name": "projects",
      "outputs": [
        {
          "internalType": "string",
          "name": "",
          "type": "string"
        }
      ],
      "stateMutability": "view",
      "type": "function",
      "constant": true
    },
    {
      "inputs": [
        {
          "internalType": "string",
          "name": "projectName",
          "type": "string"
        },
        {
          "internalType": "string",
          "name": "projectId",
          "type": "string"
        }
      ],
      "name": "add",
      "outputs": [],
      "stateMutability": "nonpayable",
      "type": "function"
    },
    {
      "inputs": [
        {
          "internalType": "string",
          "name": "projectId",
          "type": "string"
        },
        {
          "internalType": "string",
          "name": "voterName",
          "type": "string"
        }
      ],
      "name": "vote",
      "outputs": [],
      "stateMutability": "payable",
      "type": "function",
      "payable": true
    },
    {
      "inputs": [],
      "name": "voteTest",
      "outputs": [
        {
          "internalType": "uint256",
          "name": "",
          "type": "uint256"
        }
      ],
      "stateMutability": "payable",
      "type": "function",
      "payable": true
    },
    {
      "inputs": [
        {
          "internalType": "string",
          "name": "projectId",
          "type": "string"
        }
      ],
      "name": "getVoteCount",
      "outputs": [
        {
          "internalType": "uint256",
          "name": "",
          "type": "uint256"
        }
      ],
      "stateMutability": "view",
      "type": "function",
      "constant": true
    },
    {
      "inputs": [],
      "name": "getAll",
      "outputs": [
        {
          "internalType": "string[]",
          "name": "",
          "type": "string[]"
        }
      ],
      "stateMutability": "view",
      "type": "function",
      "constant": true
    },
    {
      "inputs": [],
      "name": "checkHasVoted",
      "outputs": [
        {
          "internalType": "bool",
          "name": "",
          "type": "bool"
        }
      ],
      "stateMutability": "view",
      "type": "function",
      "constant": true
    },
    {
      "inputs": [],
      "name": "getVote",
      "outputs": [
        {
          "internalType": "string",
          "name": "",
          "type": "string"
        }
      ],
      "stateMutability": "view",
      "type": "function",
      "constant": true
    },
    {
      "inputs": [],
      "name": "getBalance",
      "outputs": [
        {
          "internalType": "uint256",
          "name": "",
          "type": "uint256"
        }
      ],
      "stateMutability": "view",
      "type": "function",
      "constant": true
    },
    {
      "inputs": [],
      "name": "getThreshold",
      "outputs": [
        {
          "internalType": "uint256",
          "name": "",
          "type": "uint256"
        }
      ],
      "stateMutability": "view",
      "type": "function",
      "constant": true
    },
    {
      "inputs": [
        {
          "internalType": "address",
          "name": "newOwner",
          "type": "address"
        }
      ],
      "name": "transferOwnership",
      "outputs": [],
      "stateMutability": "nonpayable",
      "type": "function"
    },
    {
      "inputs": [],
      "name": "withdraw",
      "outputs": [],
      "stateMutability": "nonpayable",
      "type": "function"
    }
  ],
  "bytecode": "0x608060405267016345785d8a000060085534801561001b575f80fd5b503360065f6101000a81548173ffffffffffffffffffffffffffffffffffffffff021916908373ffffffffffffffffffffffffffffffffffffffff16021790555061219f806100695f395ff3fe6080604052600436106100fd575f3560e01c806391c9b26811610094578063c4c9111011610063578063c4c9111014610345578063e75235b814610381578063e8d5940d146103ab578063ebdf86ca146103c7578063f2fde38b146103ef576100fd565b806391c9b2681461027357806395dacd52146102af578063a34bb6e6146102cd578063b050186914610309576100fd565b80631234ce9d116100d05780631234ce9d146101cd5780633ccfd60b146101f757806348c35ad41461020d57806353ed514314610249576100fd565b80630242f35114610101578063069953a71461012b57806309eef43e1461016757806312065fe0146101a3575b5f80fd5b34801561010c575f80fd5b50610115610417565b60405161012291906112fc565b60405180910390f35b348015610136575f80fd5b50610151600480360381019061014c9190611459565b6104e2565b60405161015e91906114b8565b60405180910390f35b348015610172575f80fd5b5061018d6004803603810190610188919061152b565b610508565b60405161019a9190611570565b60405180910390f35b3480156101ae575f80fd5b506101b7610525565b6040516101c491906114b8565b60405180910390f35b3480156101d8575f80fd5b506101e161052c565b6040516101ee9190611570565b60405180910390f35b348015610202575f80fd5b5061020b61057c565b005b348015610218575f80fd5b50610233600480360381019061022e91906115b3565b610672565b60405161024091906112fc565b60405180910390f35b348015610254575f80fd5b5061025d610718565b60405161026a91906116e1565b60405180910390f35b34801561027e575f80fd5b5061029960048036038101906102949190611459565b6107ec565b6040516102a691906112fc565b60405180910390f35b6102b761089f565b6040516102c491906114b8565b60405180910390f35b3480156102d8575f80fd5b506102f360048036038101906102ee919061152b565b6108a6565b60405161030091906112fc565b60405180910390f35b348015610314575f80fd5b5061032f600480360381019061032a919061152b565b610941565b60405161033c91906112fc565b60405180910390f35b348015610350575f80fd5b5061036b60048036038101906103669190611459565b6109dc565b60405161037891906114b8565b60405180910390f35b34801561038c575f80fd5b50610395610a08565b6040516103a291906114b8565b60405180910390f35b6103c560048036038101906103c09190611701565b610a11565b005b3480156103d2575f80fd5b506103ed60048036038101906103e89190611701565b610d13565b005b3480156103fa575f80fd5b506104156004803603810190610410919061152b565b610f2f565b005b606060035f3373ffffffffffffffffffffffffffffffffffffffff1673ffffffffffffffffffffffffffffffffffffffff1681526020019081526020015f208054610461906117a4565b80601f016020809104026020016040519081016040528092919081815260200182805461048d906117a4565b80156104d85780601f106104af576101008083540402835291602001916104d8565b820191905f5260205f20905b8154815290600101906020018083116104bb57829003601f168201915b5050505050905090565b5f80826040516104f2919061180e565b9081526020016040518091039020549050919050565b6001602052805f5260405f205f915054906101000a900460ff1681565b5f47905090565b5f60015f3373ffffffffffffffffffffffffffffffffffffffff1673ffffffffffffffffffffffffffffffffffffffff1681526020019081526020015f205f9054906101000a900460ff16905090565b60065f9054906101000a900473ffffffffffffffffffffffffffffffffffffffff1673ffffffffffffffffffffffffffffffffffffffff163373ffffffffffffffffffffffffffffffffffffffff161461060b576040517f08c379a00000000000000000000000000000000000000000000000000000000081526004016106029061186e565b60405180910390fd5b60065f9054906101000a900473ffffffffffffffffffffffffffffffffffffffff1673ffffffffffffffffffffffffffffffffffffffff166108fc4790811502906040515f60405180830381858888f1935050505015801561066f573d5f803e3d5ffd5b50565b60058181548110610681575f80fd5b905f5260205f20015f915090508054610699906117a4565b80601f01602080910402602001604051908101604052809291908181526020018280546106c5906117a4565b80156107105780601f106106e757610100808354040283529160200191610710565b820191905f5260205f20905b8154815290600101906020018083116106f357829003601f168201915b505050505081565b60606005805480602002602001604051908101604052809291908181526020015f905b828210156107e3578382905f5260205f20018054610758906117a4565b80601f0160208091040260200160405190810160405280929190818152602001828054610784906117a4565b80156107cf5780601f106107a6576101008083540402835291602001916107cf565b820191905f5260205f20905b8154815290600101906020018083116107b257829003601f168201915b50505050508152602001906001019061073b565b50505050905090565b6002818051602081018201805184825260208301602085012081835280955050505050505f915090508054610820906117a4565b80601f016020809104026020016040519081016040528092919081815260200182805461084c906117a4565b80156108975780601f1061086e57610100808354040283529160200191610897565b820191905f5260205f20905b81548152906001019060200180831161087a57829003601f168201915b505050505081565b5f34905090565b6003602052805f5260405f205f9150905080546108c2906117a4565b80601f01602080910402602001604051908101604052809291908181526020018280546108ee906117a4565b80156109395780601f1061091057610100808354040283529160200191610939565b820191905f5260205f20905b81548152906001019060200180831161091c57829003601f168201915b505050505081565b6004602052805f5260405f205f91509050805461095d906117a4565b80601f0160208091040260200160405190810160405280929190818152602001828054610989906117a4565b80156109d45780601f106109ab576101008083540402835291602001916109d4565b820191905f5260205f20905b8154815290600101906020018083116109b757829003601f168201915b505050505081565b5f818051602081018201805184825260208301602085012081835280955050505050505f915090505481565b5f600854905090565b66038d7ea4c68000341015610a5b576040517f08c379a0000000000000000000000000000000000000000000000000000000008152600401610a52906118d6565b60405180910390fd5b66b1a2bc2ec50000341115610aa5576040517f08c379a0000000000000000000000000000000000000000000000000000000008152600401610a9c9061193e565b60405180910390fd5b60015f3373ffffffffffffffffffffffffffffffffffffffff1673ffffffffffffffffffffffffffffffffffffffff1681526020019081526020015f205f9054906101000a900460ff1615610b2f576040517f08c379a0000000000000000000000000000000000000000000000000000000008152600401610b26906119a6565b60405180910390fd5b5f600283604051610b40919061180e565b90815260200160405180910390208054610b59906117a4565b905011610b9b576040517f08c379a0000000000000000000000000000000000000000000000000000000008152600401610b9290611a0e565b60405180910390fd5b8160035f3373ffffffffffffffffffffffffffffffffffffffff1673ffffffffffffffffffffffffffffffffffffffff1681526020019081526020015f209081610be59190611bc9565b505f82604051610bf5919061180e565b90815260200160405180910390205f815480929190610c1390611cc5565b91905055506001805f3373ffffffffffffffffffffffffffffffffffffffff1673ffffffffffffffffffffffffffffffffffffffff1681526020019081526020015f205f6101000a81548160ff021916908315150217905550600733908060018154018082558091505060019003905f5260205f20015f9091909190916101000a81548173ffffffffffffffffffffffffffffffffffffffff021916908373ffffffffffffffffffffffffffffffffffffffff160217905550610cd461106f565b7ff411f516043be7e54a4fbc44dc33e96f9a6caa30cf08d393cdb7492ba92154f5338284604051610d0793929190611d1b565b60405180910390a15050565b60065f9054906101000a900473ffffffffffffffffffffffffffffffffffffffff1673ffffffffffffffffffffffffffffffffffffffff163373ffffffffffffffffffffffffffffffffffffffff1614610da2576040517f08c379a0000000000000000000000000000000000000000000000000000000008152600401610d999061186e565b60405180910390fd5b5f600282604051610db3919061180e565b90815260200160405180910390208054610dcc906117a4565b905014610e0e576040517f08c379a0000000000000000000000000000000000000000000000000000000008152600401610e0590611da8565b60405180910390fd5b5f825111610e51576040517f08c379a0000000000000000000000000000000000000000000000000000000008152600401610e4890611e10565b60405180910390fd5b5f815111610e94576040517f08c379a0000000000000000000000000000000000000000000000000000000008152600401610e8b90611e78565b60405180910390fd5b81600282604051610ea5919061180e565b90815260200160405180910390209081610ebf9190611bc9565b50600581908060018154018082558091505060019003905f5260205f20015f909190919091509081610ef19190611bc9565b507feb5d6000a362475be9d9b16beddc148b7004850daf2e69325a403d613567769e8183604051610f23929190611e96565b60405180910390a15050565b60065f9054906101000a900473ffffffffffffffffffffffffffffffffffffffff1673ffffffffffffffffffffffffffffffffffffffff163373ffffffffffffffffffffffffffffffffffffffff1614610fbe576040517f08c379a0000000000000000000000000000000000000000000000000000000008152600401610fb59061186e565b60405180910390fd5b5f73ffffffffffffffffffffffffffffffffffffffff168173ffffffffffffffffffffffffffffffffffffffff160361102c576040517f08c379a000000000000000000000000000000000000000000000000000000000815260040161102390611f3b565b60405180910390fd5b8060065f6101000a81548173ffffffffffffffffffffffffffffffffffffffff021916908373ffffffffffffffffffffffffffffffffffffffff16021790555050565b6008544710611187575f600780549050116110bf576040517f08c379a00000000000000000000000000000000000000000000000000000000081526004016110b690611fa3565b60405180910390fd5b5f60078054905042446040516020016110d9929190611fe1565b604051602081830303815290604052805190602001205f1c6110fb9190612039565b90505f6007828154811061111257611111612069565b5b905f5260205f20015f9054906101000a900473ffffffffffffffffffffffffffffffffffffffff1690505f4790507fac853ae20ebc831e1db62fa17db64e8e173b63c6dcd89a4a4f5f24a1a080322e82826040516111719291906120e8565b60405180910390a16111838282611189565b5050505b565b804710156111ce57306040517fcd7860590000000000000000000000000000000000000000000000000000000081526004016111c5919061210f565b60405180910390fd5b5f8273ffffffffffffffffffffffffffffffffffffffff16826040516111f390612155565b5f6040518083038185875af1925050503d805f811461122d576040519150601f19603f3d011682016040523d82523d5f602084013e611232565b606091505b505090508061126d576040517f1425ea4200000000000000000000000000000000000000000000000000000000815260040160405180910390fd5b505050565b5f81519050919050565b5f82825260208201905092915050565b5f5b838110156112a957808201518184015260208101905061128e565b5f8484015250505050565b5f601f19601f8301169050919050565b5f6112ce82611272565b6112d8818561127c565b93506112e881856020860161128c565b6112f1816112b4565b840191505092915050565b5f6020820190508181035f83015261131481846112c4565b905092915050565b5f604051905090565b5f80fd5b5f80fd5b5f80fd5b5f80fd5b7f4e487b71000000000000000000000000000000000000000000000000000000005f52604160045260245ffd5b61136b826112b4565b810181811067ffffffffffffffff8211171561138a57611389611335565b5b80604052505050565b5f61139c61131c565b90506113a88282611362565b919050565b5f67ffffffffffffffff8211156113c7576113c6611335565b5b6113d0826112b4565b9050602081019050919050565b828183375f83830152505050565b5f6113fd6113f8846113ad565b611393565b90508281526020810184848401111561141957611418611331565b5b6114248482856113dd565b509392505050565b5f82601f8301126114405761143f61132d565b5b81356114508482602086016113eb565b91505092915050565b5f6020828403121561146e5761146d611325565b5b5f82013567ffffffffffffffff81111561148b5761148a611329565b5b6114978482850161142c565b91505092915050565b5f819050919050565b6114b2816114a0565b82525050565b5f6020820190506114cb5f8301846114a9565b92915050565b5f73ffffffffffffffffffffffffffffffffffffffff82169050919050565b5f6114fa826114d1565b9050919050565b61150a816114f0565b8114611514575f80fd5b50565b5f8135905061152581611501565b92915050565b5f602082840312156115405761153f611325565b5b5f61154d84828501611517565b91505092915050565b5f8115159050919050565b61156a81611556565b82525050565b5f6020820190506115835f830184611561565b92915050565b611592816114a0565b811461159c575f80fd5b50565b5f813590506115ad81611589565b92915050565b5f602082840312156115c8576115c7611325565b5b5f6115d58482850161159f565b91505092915050565b5f81519050919050565b5f82825260208201905092915050565b5f819050602082019050919050565b5f82825260208201905092915050565b5f61162182611272565b61162b8185611607565b935061163b81856020860161128c565b611644816112b4565b840191505092915050565b5f61165a8383611617565b905092915050565b5f602082019050919050565b5f611678826115de565b61168281856115e8565b935083602082028501611694856115f8565b805f5b858110156116cf57848403895281516116b0858261164f565b94506116bb83611662565b925060208a01995050600181019050611697565b50829750879550505050505092915050565b5f6020820190508181035f8301526116f9818461166e565b905092915050565b5f806040838503121561171757611716611325565b5b5f83013567ffffffffffffffff81111561173457611733611329565b5b6117408582860161142c565b925050602083013567ffffffffffffffff81111561176157611760611329565b5b61176d8582860161142c565b9150509250929050565b7f4e487b71000000000000000000000000000000000000000000000000000000005f52602260045260245ffd5b5f60028204905060018216806117bb57607f821691505b6020821081036117ce576117cd611777565b5b50919050565b5f81905092915050565b5f6117e882611272565b6117f281856117d4565b935061180281856020860161128c565b80840191505092915050565b5f61181982846117de565b915081905092915050565b7f4f6e6c79206f776e65722063616e2065786563757465000000000000000000005f82015250565b5f61185860168361127c565b915061186382611824565b602082019050919050565b5f6020820190508181035f8301526118858161184c565b9050919050565b7f4d696e696d756d20302e303031206574686572000000000000000000000000005f82015250565b5f6118c060138361127c565b91506118cb8261188c565b602082019050919050565b5f6020820190508181035f8301526118ed816118b4565b9050919050565b7f4d6178696d756d20302e303520657468657200000000000000000000000000005f82015250565b5f61192860128361127c565b9150611933826118f4565b602082019050919050565b5f6020820190508181035f8301526119558161191c565b9050919050565b7f416c726561647920766f746564000000000000000000000000000000000000005f82015250565b5f611990600d8361127c565b915061199b8261195c565b602082019050919050565b5f6020820190508181035f8301526119bd81611984565b9050919050565b7f50726f6a65637420646f6573206e6f74206578697374000000000000000000005f82015250565b5f6119f860168361127c565b9150611a03826119c4565b602082019050919050565b5f6020820190508181035f830152611a25816119ec565b9050919050565b5f819050815f5260205f209050919050565b5f6020601f8301049050919050565b5f82821b905092915050565b5f60088302611a887fffffffffffffffffffffffffffffffffffffffffffffffffffffffffffffffff82611a4d565b611a928683611a4d565b95508019841693508086168417925050509392505050565b5f819050919050565b5f611acd611ac8611ac3846114a0565b611aaa565b6114a0565b9050919050565b5f819050919050565b611ae683611ab3565b611afa611af282611ad4565b848454611a59565b825550505050565b5f90565b611b0e611b02565b611b19818484611add565b505050565b5b81811015611b3c57611b315f82611b06565b600181019050611b1f565b5050565b601f821115611b8157611b5281611a2c565b611b5b84611a3e565b81016020851015611b6a578190505b611b7e611b7685611a3e565b830182611b1e565b50505b505050565b5f82821c905092915050565b5f611ba15f1984600802611b86565b1980831691505092915050565b5f611bb98383611b92565b9150826002028217905092915050565b611bd282611272565b67ffffffffffffffff811115611beb57611bea611335565b5b611bf582546117a4565b611c00828285611b40565b5f60209050601f831160018114611c31575f8415611c1f578287015190505b611c298582611bae565b865550611c90565b601f198416611c3f86611a2c565b5f5b82811015611c6657848901518255600182019150602085019450602081019050611c41565b86831015611c835784890151611c7f601f891682611b92565b8355505b6001600288020188555050505b505050505050565b7f4e487b71000000000000000000000000000000000000000000000000000000005f52601160045260245ffd5b5f611ccf826114a0565b91507fffffffffffffffffffffffffffffffffffffffffffffffffffffffffffffffff8203611d0157611d00611c98565b5b600182019050919050565b611d15816114f0565b82525050565b5f606082019050611d2e5f830186611d0c565b8181036020830152611d4081856112c4565b90508181036040830152611d5481846112c4565b9050949350505050565b7f50726f6a65637420616c726561647920657869737473000000000000000000005f82015250565b5f611d9260168361127c565b9150611d9d82611d5e565b602082019050919050565b5f6020820190508181035f830152611dbf81611d86565b9050919050565b7f50726f6a656374206e616d6520697320726571756972656400000000000000005f82015250565b5f611dfa60188361127c565b9150611e0582611dc6565b602082019050919050565b5f6020820190508181035f830152611e2781611dee565b9050919050565b7f50726f6a656374204944206973207265717569726564000000000000000000005f82015250565b5f611e6260168361127c565b9150611e6d82611e2e565b602082019050919050565b5f6020820190508181035f830152611e8f81611e56565b9050919050565b5f6040820190508181035f830152611eae81856112c4565b90508181036020830152611ec281846112c4565b90509392505050565b7f4e6577206f776e65722063616e6e6f7420626520746865207a65726f206164645f8201527f7265737300000000000000000000000000000000000000000000000000000000602082015250565b5f611f2560248361127c565b9150611f3082611ecb565b604082019050919050565b5f6020820190508181035f830152611f5281611f19565b9050919050565b7f4e6f20766f7465727320746f20726577617264000000000000000000000000005f82015250565b5f611f8d60138361127c565b9150611f9882611f59565b602082019050919050565b5f6020820190508181035f830152611fba81611f81565b9050919050565b5f819050919050565b611fdb611fd6826114a0565b611fc1565b82525050565b5f611fec8285611fca565b602082019150611ffc8284611fca565b6020820191508190509392505050565b7f4e487b71000000000000000000000000000000000000000000000000000000005f52601260045260245ffd5b5f612043826114a0565b915061204e836114a0565b92508261205e5761205d61200c565b5b828206905092915050565b7f4e487b71000000000000000000000000000000000000000000000000000000005f52603260045260245ffd5b5f6120b06120ab6120a6846114d1565b611aaa565b6114d1565b9050919050565b5f6120c182612096565b9050919050565b5f6120d2826120b7565b9050919050565b6120e2816120c8565b82525050565b5f6040820190506120fb5f8301856120d9565b61210860208301846114a9565b9392505050565b5f6020820190506121225f830184611d0c565b92915050565b5f81905092915050565b50565b5f6121405f83612128565b915061214b82612132565b5f82019050919050565b5f61215f82612135565b915081905091905056fea2646970667358221220113b7929368f720ab3b529ec5ec43f4b409d7b8c3b9300386fdf35f5379db22b64736f6c63430008150033",
  "immutableReferences": {},
  "source": "// SPDX-License-Identifier: MIT \npragma solidity ^0.8.0;\n\nimport \"@openzeppelin/contracts/utils/Address.sol\";\n\ncontract ProjectVoting {\n    mapping(string => uint) public projectVotes;\n    mapping(address => bool) public hasVoted;\n    mapping(string => string) public projects;\n    mapping(address => string) public addressVotes;\n    mapping(address => string) public addressNames;\n    string[] public projectIds;\n    address private owner;\n    address[] private voters;\n    uint private threshold = 0.1 ether;\n\n    event ProjectAdded(string projectId, string projectName);\n    event Voted(address voter, string name, string projectId); \n    event WinnerAnnounced(address winner, uint256 amount);\n\n    modifier onlyOwner() {\n        require(msg.sender == owner, \"Only owner can execute\");\n        _;\n    }\n  \n    constructor() {\n        owner = msg.sender;\n    }\n\n    function add(string memory projectName, string memory projectId) public onlyOwner {\n        require(bytes(projects[projectId]).length == 0, \"Project already exists\");\n        require(bytes(projectName).length > 0, \"Project name is required\"); // Input validation for projectName\n        require(bytes(projectId).length > 0, \"Project ID is required\"); // Input validation for projectId\n        projects[projectId] = projectName;\n        projectIds.push(projectId);\n        emit ProjectAdded(projectId, projectName); \n    }\n\n    function vote(string memory projectId, string memory voterName) payable public {\n        require(msg.value >= 0.001 ether, \"Minimum 0.001 ether\");\n        require(msg.value <= 0.05 ether, \"Maximum 0.05 ether\");\n        require(!hasVoted[msg.sender], \"Already voted\");\n        require(bytes(projects[projectId]).length > 0, \"Project does not exist\"); \n        addressVotes[msg.sender] = projectId;\n        projectVotes[projectId]++;\n        hasVoted[msg.sender] = true;\n        voters.push(msg.sender);\n        checkAndTransfer();  \n        emit Voted(msg.sender, voterName, projectId);\n    }\n\n    function voteTest() public payable returns (uint) {\n        return msg.value;\n    }\n\n    function getVoteCount(string memory projectId) public view returns (uint) {\n        return projectVotes[projectId];\n    }\n\n    function getAll() public view returns (string[] memory) {\n        return projectIds;\n    }\n\n    function checkHasVoted() public view returns (bool) {\n        return hasVoted[msg.sender];\n    }\n\n    function getVote() public view returns (string memory) {\n        return  addressVotes[msg.sender]; \n    }\n\n    function checkAndTransfer() internal {\n        if (address(this).balance >= threshold) {\n            require(voters.length > 0, \"No voters to reward\");\n            uint randomIndex = uint(keccak256(abi.encodePacked(block.timestamp, block.prevrandao))) % voters.length;\n            address payable luckyVoter = payable(voters[randomIndex]);\n            uint256 amountToSend = address(this).balance;\n            emit WinnerAnnounced(luckyVoter, amountToSend);\n            Address.sendValue(luckyVoter, amountToSend);\n        }\n    }\n\n    function getBalance() public view returns (uint256) {\n        return address(this).balance;\n    }\n\n    function getThreshold() public view returns (uint256) {\n        return threshold;\n    }\n\n    function transferOwnership(address newOwner) public onlyOwner {\n        require(newOwner != address(0), \"New owner cannot be the zero address\");\n        owner = newOwner;\n    }\n\n    function withdraw() public onlyOwner {\n        payable(owner).transfer(address(this).balance);\n    }\n}",
  "sourcePath": "/home/ddavis/Documents/web_dev/Projects/PersonalSite/backend/contracts/project-voting.sol",
  "compiler": {
    "name": "solc",
    "version": "0.8.21+commit.d9974bed.Emscripten.clang"
  },
  "schemaVersion": "3.4.16",
  "updatedAt": "2024-01-27T20:40:54.946Z",
  "networkType": "ethereum",
  "devdoc": {
    "errors": {
      "AddressInsufficientBalance(address)": [
        {
          "details": "The ETH balance of the account is not enough to perform the operation."
        }
      ],
      "FailedInnerCall()": [
        {
          "details": "A call to an address target failed. The target may have reverted."
        }
      ]
    },
    "kind": "dev",
    "methods": {},
    "version": 1
  },
  "userdoc": {
    "kind": "user",
    "methods": {},
    "version": 1
  }
}