{
  "contractName": "ProjectVoting",
  "abi": [
    {
      "inputs": [],
      "stateMutability": "nonpayable",
      "type": "constructor"
    },
    {
      "anonymous": false,
      "inputs": [
        {
          "indexed": false,
          "internalType": "string",
          "name": "projectId",
          "type": "string"
        },
        {
          "indexed": false,
          "internalType": "string",
          "name": "projectName",
          "type": "string"
        }
      ],
      "name": "ProjectAdded",
      "type": "event"
    },
    {
      "anonymous": false,
      "inputs": [
        {
          "indexed": false,
          "internalType": "address",
          "name": "voter",
          "type": "address"
        },
        {
          "indexed": false,
          "internalType": "string",
          "name": "projectId",
          "type": "string"
        }
      ],
      "name": "Voted",
      "type": "event"
    },
    {
      "inputs": [
        {
          "internalType": "address",
          "name": "",
          "type": "address"
        }
      ],
      "name": "addressVotes",
      "outputs": [
        {
          "internalType": "string",
          "name": "",
          "type": "string"
        }
      ],
      "stateMutability": "view",
      "type": "function",
      "constant": true
    },
    {
      "inputs": [
        {
          "internalType": "address",
          "name": "",
          "type": "address"
        }
      ],
      "name": "hasVoted",
      "outputs": [
        {
          "internalType": "bool",
          "name": "",
          "type": "bool"
        }
      ],
      "stateMutability": "view",
      "type": "function",
      "constant": true
    },
    {
      "inputs": [
        {
          "internalType": "uint256",
          "name": "",
          "type": "uint256"
        }
      ],
      "name": "projectIds",
      "outputs": [
        {
          "internalType": "string",
          "name": "",
          "type": "string"
        }
      ],
      "stateMutability": "view",
      "type": "function",
      "constant": true
    },
    {
      "inputs": [
        {
          "internalType": "string",
          "name": "",
          "type": "string"
        }
      ],
      "name": "projectVotes",
      "outputs": [
        {
          "internalType": "uint256",
          "name": "",
          "type": "uint256"
        }
      ],
      "stateMutability": "view",
      "type": "function",
      "constant": true
    },
    {
      "inputs": [
        {
          "internalType": "string",
          "name": "",
          "type": "string"
        }
      ],
      "name": "projects",
      "outputs": [
        {
          "internalType": "string",
          "name": "",
          "type": "string"
        }
      ],
      "stateMutability": "view",
      "type": "function",
      "constant": true
    },
    {
      "inputs": [
        {
          "internalType": "string",
          "name": "projectName",
          "type": "string"
        },
        {
          "internalType": "string",
          "name": "projectId",
          "type": "string"
        }
      ],
      "name": "add",
      "outputs": [],
      "stateMutability": "nonpayable",
      "type": "function"
    },
    {
      "inputs": [
        {
          "internalType": "string",
          "name": "projectId",
          "type": "string"
        }
      ],
      "name": "vote",
      "outputs": [],
      "stateMutability": "payable",
      "type": "function",
      "payable": true
    },
    {
      "inputs": [
        {
          "internalType": "string",
          "name": "projectId",
          "type": "string"
        }
      ],
      "name": "getVoteCount",
      "outputs": [
        {
          "internalType": "uint256",
          "name": "",
          "type": "uint256"
        }
      ],
      "stateMutability": "view",
      "type": "function",
      "constant": true
    },
    {
      "inputs": [],
      "name": "getAll",
      "outputs": [
        {
          "internalType": "string[]",
          "name": "",
          "type": "string[]"
        }
      ],
      "stateMutability": "view",
      "type": "function",
      "constant": true
    },
    {
      "inputs": [],
      "name": "checkHasVoted",
      "outputs": [
        {
          "internalType": "bool",
          "name": "",
          "type": "bool"
        }
      ],
      "stateMutability": "view",
      "type": "function",
      "constant": true
    },
    {
      "inputs": [],
      "name": "getVote",
      "outputs": [
        {
          "internalType": "string",
          "name": "",
          "type": "string"
        }
      ],
      "stateMutability": "view",
      "type": "function",
      "constant": true
    },
    {
      "inputs": [
        {
          "internalType": "address",
          "name": "newOwner",
          "type": "address"
        }
      ],
      "name": "transferOwnership",
      "outputs": [],
      "stateMutability": "nonpayable",
      "type": "function"
    },
    {
      "inputs": [],
      "name": "withdraw",
      "outputs": [],
      "stateMutability": "nonpayable",
      "type": "function"
    }
  ],
  "bytecode": "0x608060405234801561000f575f80fd5b503360055f6101000a81548173ffffffffffffffffffffffffffffffffffffffff021916908373ffffffffffffffffffffffffffffffffffffffff160217905550611abe8061005d5f395ff3fe6080604052600436106100c1575f3560e01c806353ed51431161007e578063c4c9111011610058578063c4c9111014610285578063ebdf86ca146102c1578063f2fde38b146102e9578063fc36e15b14610311576100c1565b806353ed5143146101e357806391c9b2681461020d578063a34bb6e614610249576100c1565b80630242f351146100c5578063069953a7146100ef57806309eef43e1461012b5780631234ce9d146101675780633ccfd60b1461019157806348c35ad4146101a7575b5f80fd5b3480156100d0575f80fd5b506100d961032d565b6040516100e69190610ea8565b60405180910390f35b3480156100fa575f80fd5b5061011560048036038101906101109190611005565b6103f8565b6040516101229190611064565b60405180910390f35b348015610136575f80fd5b50610151600480360381019061014c91906110d7565b61041e565b60405161015e919061111c565b60405180910390f35b348015610172575f80fd5b5061017b61043b565b604051610188919061111c565b60405180910390f35b34801561019c575f80fd5b506101a561048b565b005b3480156101b2575f80fd5b506101cd60048036038101906101c8919061115f565b610581565b6040516101da9190610ea8565b60405180910390f35b3480156101ee575f80fd5b506101f7610627565b604051610204919061128d565b60405180910390f35b348015610218575f80fd5b50610233600480360381019061022e9190611005565b6106fb565b6040516102409190610ea8565b60405180910390f35b348015610254575f80fd5b5061026f600480360381019061026a91906110d7565b6107ae565b60405161027c9190610ea8565b60405180910390f35b348015610290575f80fd5b506102ab60048036038101906102a69190611005565b610849565b6040516102b89190611064565b60405180910390f35b3480156102cc575f80fd5b506102e760048036038101906102e291906112ad565b610875565b005b3480156102f4575f80fd5b5061030f600480360381019061030a91906110d7565b610a91565b005b61032b60048036038101906103269190611005565b610bd1565b005b606060035f3373ffffffffffffffffffffffffffffffffffffffff1673ffffffffffffffffffffffffffffffffffffffff1681526020019081526020015f20805461037790611350565b80601f01602080910402602001604051908101604052809291908181526020018280546103a390611350565b80156103ee5780601f106103c5576101008083540402835291602001916103ee565b820191905f5260205f20905b8154815290600101906020018083116103d157829003601f168201915b5050505050905090565b5f808260405161040891906113ba565b9081526020016040518091039020549050919050565b6001602052805f5260405f205f915054906101000a900460ff1681565b5f60015f3373ffffffffffffffffffffffffffffffffffffffff1673ffffffffffffffffffffffffffffffffffffffff1681526020019081526020015f205f9054906101000a900460ff16905090565b60055f9054906101000a900473ffffffffffffffffffffffffffffffffffffffff1673ffffffffffffffffffffffffffffffffffffffff163373ffffffffffffffffffffffffffffffffffffffff161461051a576040517f08c379a00000000000000000000000000000000000000000000000000000000081526004016105119061141a565b60405180910390fd5b60055f9054906101000a900473ffffffffffffffffffffffffffffffffffffffff1673ffffffffffffffffffffffffffffffffffffffff166108fc4790811502906040515f60405180830381858888f1935050505015801561057e573d5f803e3d5ffd5b50565b60048181548110610590575f80fd5b905f5260205f20015f9150905080546105a890611350565b80601f01602080910402602001604051908101604052809291908181526020018280546105d490611350565b801561061f5780601f106105f65761010080835404028352916020019161061f565b820191905f5260205f20905b81548152906001019060200180831161060257829003601f168201915b505050505081565b60606004805480602002602001604051908101604052809291908181526020015f905b828210156106f2578382905f5260205f2001805461066790611350565b80601f016020809104026020016040519081016040528092919081815260200182805461069390611350565b80156106de5780601f106106b5576101008083540402835291602001916106de565b820191905f5260205f20905b8154815290600101906020018083116106c157829003601f168201915b50505050508152602001906001019061064a565b50505050905090565b6002818051602081018201805184825260208301602085012081835280955050505050505f91509050805461072f90611350565b80601f016020809104026020016040519081016040528092919081815260200182805461075b90611350565b80156107a65780601f1061077d576101008083540402835291602001916107a6565b820191905f5260205f20905b81548152906001019060200180831161078957829003601f168201915b505050505081565b6003602052805f5260405f205f9150905080546107ca90611350565b80601f01602080910402602001604051908101604052809291908181526020018280546107f690611350565b80156108415780601f1061081857610100808354040283529160200191610841565b820191905f5260205f20905b81548152906001019060200180831161082457829003601f168201915b505050505081565b5f818051602081018201805184825260208301602085012081835280955050505050505f915090505481565b60055f9054906101000a900473ffffffffffffffffffffffffffffffffffffffff1673ffffffffffffffffffffffffffffffffffffffff163373ffffffffffffffffffffffffffffffffffffffff1614610904576040517f08c379a00000000000000000000000000000000000000000000000000000000081526004016108fb9061141a565b60405180910390fd5b5f60028260405161091591906113ba565b9081526020016040518091039020805461092e90611350565b905014610970576040517f08c379a000000000000000000000000000000000000000000000000000000000815260040161096790611482565b60405180910390fd5b5f8251116109b3576040517f08c379a00000000000000000000000000000000000000000000000000000000081526004016109aa906114ea565b60405180910390fd5b5f8151116109f6576040517f08c379a00000000000000000000000000000000000000000000000000000000081526004016109ed90611552565b60405180910390fd5b81600282604051610a0791906113ba565b90815260200160405180910390209081610a21919061170d565b50600481908060018154018082558091505060019003905f5260205f20015f909190919091509081610a53919061170d565b507feb5d6000a362475be9d9b16beddc148b7004850daf2e69325a403d613567769e8183604051610a859291906117dc565b60405180910390a15050565b60055f9054906101000a900473ffffffffffffffffffffffffffffffffffffffff1673ffffffffffffffffffffffffffffffffffffffff163373ffffffffffffffffffffffffffffffffffffffff1614610b20576040517f08c379a0000000000000000000000000000000000000000000000000000000008152600401610b179061141a565b60405180910390fd5b5f73ffffffffffffffffffffffffffffffffffffffff168173ffffffffffffffffffffffffffffffffffffffff1603610b8e576040517f08c379a0000000000000000000000000000000000000000000000000000000008152600401610b8590611881565b60405180910390fd5b8060055f6101000a81548173ffffffffffffffffffffffffffffffffffffffff021916908373ffffffffffffffffffffffffffffffffffffffff16021790555050565b662386f26fc10000341015610c1b576040517f08c379a0000000000000000000000000000000000000000000000000000000008152600401610c12906118e9565b60405180910390fd5b60015f3373ffffffffffffffffffffffffffffffffffffffff1673ffffffffffffffffffffffffffffffffffffffff1681526020019081526020015f205f9054906101000a900460ff1615610ca5576040517f08c379a0000000000000000000000000000000000000000000000000000000008152600401610c9c90611951565b60405180910390fd5b5f600282604051610cb691906113ba565b90815260200160405180910390208054610ccf90611350565b905011610d11576040517f08c379a0000000000000000000000000000000000000000000000000000000008152600401610d08906119b9565b60405180910390fd5b8060035f3373ffffffffffffffffffffffffffffffffffffffff1673ffffffffffffffffffffffffffffffffffffffff1681526020019081526020015f209081610d5b919061170d565b505f81604051610d6b91906113ba565b90815260200160405180910390205f815480929190610d8990611a04565b91905055506001805f3373ffffffffffffffffffffffffffffffffffffffff1673ffffffffffffffffffffffffffffffffffffffff1681526020019081526020015f205f6101000a81548160ff0219169083151502179055507fcb6783276e8a4347387036bbfea000268f0a4b1f8c46ac79980609f2af8d2acd3382604051610e13929190611a5a565b60405180910390a150565b5f81519050919050565b5f82825260208201905092915050565b5f5b83811015610e55578082015181840152602081019050610e3a565b5f8484015250505050565b5f601f19601f8301169050919050565b5f610e7a82610e1e565b610e848185610e28565b9350610e94818560208601610e38565b610e9d81610e60565b840191505092915050565b5f6020820190508181035f830152610ec08184610e70565b905092915050565b5f604051905090565b5f80fd5b5f80fd5b5f80fd5b5f80fd5b7f4e487b71000000000000000000000000000000000000000000000000000000005f52604160045260245ffd5b610f1782610e60565b810181811067ffffffffffffffff82111715610f3657610f35610ee1565b5b80604052505050565b5f610f48610ec8565b9050610f548282610f0e565b919050565b5f67ffffffffffffffff821115610f7357610f72610ee1565b5b610f7c82610e60565b9050602081019050919050565b828183375f83830152505050565b5f610fa9610fa484610f59565b610f3f565b905082815260208101848484011115610fc557610fc4610edd565b5b610fd0848285610f89565b509392505050565b5f82601f830112610fec57610feb610ed9565b5b8135610ffc848260208601610f97565b91505092915050565b5f6020828403121561101a57611019610ed1565b5b5f82013567ffffffffffffffff81111561103757611036610ed5565b5b61104384828501610fd8565b91505092915050565b5f819050919050565b61105e8161104c565b82525050565b5f6020820190506110775f830184611055565b92915050565b5f73ffffffffffffffffffffffffffffffffffffffff82169050919050565b5f6110a68261107d565b9050919050565b6110b68161109c565b81146110c0575f80fd5b50565b5f813590506110d1816110ad565b92915050565b5f602082840312156110ec576110eb610ed1565b5b5f6110f9848285016110c3565b91505092915050565b5f8115159050919050565b61111681611102565b82525050565b5f60208201905061112f5f83018461110d565b92915050565b61113e8161104c565b8114611148575f80fd5b50565b5f8135905061115981611135565b92915050565b5f6020828403121561117457611173610ed1565b5b5f6111818482850161114b565b91505092915050565b5f81519050919050565b5f82825260208201905092915050565b5f819050602082019050919050565b5f82825260208201905092915050565b5f6111cd82610e1e565b6111d781856111b3565b93506111e7818560208601610e38565b6111f081610e60565b840191505092915050565b5f61120683836111c3565b905092915050565b5f602082019050919050565b5f6112248261118a565b61122e8185611194565b935083602082028501611240856111a4565b805f5b8581101561127b578484038952815161125c85826111fb565b94506112678361120e565b925060208a01995050600181019050611243565b50829750879550505050505092915050565b5f6020820190508181035f8301526112a5818461121a565b905092915050565b5f80604083850312156112c3576112c2610ed1565b5b5f83013567ffffffffffffffff8111156112e0576112df610ed5565b5b6112ec85828601610fd8565b925050602083013567ffffffffffffffff81111561130d5761130c610ed5565b5b61131985828601610fd8565b9150509250929050565b7f4e487b71000000000000000000000000000000000000000000000000000000005f52602260045260245ffd5b5f600282049050600182168061136757607f821691505b60208210810361137a57611379611323565b5b50919050565b5f81905092915050565b5f61139482610e1e565b61139e8185611380565b93506113ae818560208601610e38565b80840191505092915050565b5f6113c5828461138a565b915081905092915050565b7f4f6e6c79206f776e65722063616e2065786563757465000000000000000000005f82015250565b5f611404601683610e28565b915061140f826113d0565b602082019050919050565b5f6020820190508181035f830152611431816113f8565b9050919050565b7f50726f6a65637420616c726561647920657869737473000000000000000000005f82015250565b5f61146c601683610e28565b915061147782611438565b602082019050919050565b5f6020820190508181035f83015261149981611460565b9050919050565b7f50726f6a656374206e616d6520697320726571756972656400000000000000005f82015250565b5f6114d4601883610e28565b91506114df826114a0565b602082019050919050565b5f6020820190508181035f830152611501816114c8565b9050919050565b7f50726f6a656374204944206973207265717569726564000000000000000000005f82015250565b5f61153c601683610e28565b915061154782611508565b602082019050919050565b5f6020820190508181035f83015261156981611530565b9050919050565b5f819050815f5260205f209050919050565b5f6020601f8301049050919050565b5f82821b905092915050565b5f600883026115cc7fffffffffffffffffffffffffffffffffffffffffffffffffffffffffffffffff82611591565b6115d68683611591565b95508019841693508086168417925050509392505050565b5f819050919050565b5f61161161160c6116078461104c565b6115ee565b61104c565b9050919050565b5f819050919050565b61162a836115f7565b61163e61163682611618565b84845461159d565b825550505050565b5f90565b611652611646565b61165d818484611621565b505050565b5b81811015611680576116755f8261164a565b600181019050611663565b5050565b601f8211156116c55761169681611570565b61169f84611582565b810160208510156116ae578190505b6116c26116ba85611582565b830182611662565b50505b505050565b5f82821c905092915050565b5f6116e55f19846008026116ca565b1980831691505092915050565b5f6116fd83836116d6565b9150826002028217905092915050565b61171682610e1e565b67ffffffffffffffff81111561172f5761172e610ee1565b5b6117398254611350565b611744828285611684565b5f60209050601f831160018114611775575f8415611763578287015190505b61176d85826116f2565b8655506117d4565b601f19841661178386611570565b5f5b828110156117aa57848901518255600182019150602085019450602081019050611785565b868310156117c757848901516117c3601f8916826116d6565b8355505b6001600288020188555050505b505050505050565b5f6040820190508181035f8301526117f48185610e70565b905081810360208301526118088184610e70565b90509392505050565b7f4e6577206f776e65722063616e6e6f7420626520746865207a65726f206164645f8201527f7265737300000000000000000000000000000000000000000000000000000000602082015250565b5f61186b602483610e28565b915061187682611811565b604082019050919050565b5f6020820190508181035f8301526118988161185f565b9050919050565b7f4d696e696d756d20302e303120657468657200000000000000000000000000005f82015250565b5f6118d3601283610e28565b91506118de8261189f565b602082019050919050565b5f6020820190508181035f830152611900816118c7565b9050919050565b7f416c726561647920766f746564000000000000000000000000000000000000005f82015250565b5f61193b600d83610e28565b915061194682611907565b602082019050919050565b5f6020820190508181035f8301526119688161192f565b9050919050565b7f50726f6a65637420646f6573206e6f74206578697374000000000000000000005f82015250565b5f6119a3601683610e28565b91506119ae8261196f565b602082019050919050565b5f6020820190508181035f8301526119d081611997565b9050919050565b7f4e487b71000000000000000000000000000000000000000000000000000000005f52601160045260245ffd5b5f611a0e8261104c565b91507fffffffffffffffffffffffffffffffffffffffffffffffffffffffffffffffff8203611a4057611a3f6119d7565b5b600182019050919050565b611a548161109c565b82525050565b5f604082019050611a6d5f830185611a4b565b8181036020830152611a7f8184610e70565b9050939250505056fea26469706673582212200f279fe306585052edb754e284c685bab40e405670e0814eb2624253ae557cec64736f6c63430008150033",
  "immutableReferences": {},
  "source": "// SPDX-License-Identifier: MIT \npragma solidity ^0.8.0;\n\ncontract ProjectVoting {\n    mapping(string => uint) public projectVotes;\n    mapping(address => bool) public hasVoted;\n    mapping(string => string) public projects;\n    mapping(address => string) public addressVotes;\n    string[] public projectIds;\n    address private owner;\n\n    event ProjectAdded(string projectId, string projectName); // Event for adding a project\n    event Voted(address voter, string projectId); // Event for a vote\n   \n    modifier onlyOwner() {\n        require(msg.sender == owner, \"Only owner can execute\");\n        _;\n    }\n  \n    constructor() {\n        owner = msg.sender;\n    }\n\n    function add(string memory projectName, string memory projectId) public onlyOwner {\n        require(bytes(projects[projectId]).length == 0, \"Project already exists\");\n        require(bytes(projectName).length > 0, \"Project name is required\"); // Input validation for projectName\n        require(bytes(projectId).length > 0, \"Project ID is required\"); // Input validation for projectId\n        projects[projectId] = projectName;\n        projectIds.push(projectId);\n        emit ProjectAdded(projectId, projectName); // Emitting event after project addition\n    }\n\n    function vote(string memory projectId) payable public {\n        require(msg.value >= 0.01 ether, \"Minimum 0.01 ether\");\n        require(!hasVoted[msg.sender], \"Already voted\");\n        require(bytes(projects[projectId]).length > 0, \"Project does not exist\"); // Check if project exists\n\n        addressVotes[msg.sender] = projectId;\n        projectVotes[projectId]++;\n        hasVoted[msg.sender] = true;\n\n        emit Voted(msg.sender, projectId); // Emitting event after voting\n    }\n\n    function getVoteCount(string memory projectId) public view returns (uint) {\n        return projectVotes[projectId];\n    }\n\n    function getAll() public view returns (string[] memory) {\n        return projectIds;\n    }\n\n    function checkHasVoted() public view returns (bool) {\n        return hasVoted[msg.sender];\n    }\n\n    function getVote() public view returns (string memory) {\n        return  addressVotes[msg.sender]; \n    }\n\n    function transferOwnership(address newOwner) public onlyOwner {\n        require(newOwner != address(0), \"New owner cannot be the zero address\");\n        owner = newOwner;\n    }\n\n    function withdraw() public onlyOwner {\n        payable(owner).transfer(address(this).balance);\n    }\n}",
  "sourcePath": "/home/ddavis/Documents/web_dev/Projects/PersonalSite/backend/contracts/project-voting.sol",
  "compiler": {
    "name": "solc",
    "version": "0.8.21+commit.d9974bed.Emscripten.clang"
  },
  "schemaVersion": "3.4.16",
  "updatedAt": "2023-12-31T15:39:51.744Z",
  "networkType": "ethereum",
  "devdoc": {
    "kind": "dev",
    "methods": {},
    "version": 1
  },
  "userdoc": {
    "kind": "user",
    "methods": {},
    "version": 1
  }
}