{
  "contractName": "ProjectVoting",
  "abi": [
    {
      "inputs": [
        {
          "internalType": "address",
          "name": "_vrfCoordinator",
          "type": "address"
        },
        {
          "internalType": "uint64",
          "name": "_subscriptionId",
          "type": "uint64"
        },
        {
          "internalType": "bytes32",
          "name": "_keyHash",
          "type": "bytes32"
        }
      ],
      "stateMutability": "nonpayable",
      "type": "constructor"
    },
    {
      "inputs": [
        {
          "internalType": "address",
          "name": "have",
          "type": "address"
        },
        {
          "internalType": "address",
          "name": "want",
          "type": "address"
        }
      ],
      "name": "OnlyCoordinatorCanFulfill",
      "type": "error"
    },
    {
      "anonymous": false,
      "inputs": [
        {
          "indexed": false,
          "internalType": "string",
          "name": "projectId",
          "type": "string"
        },
        {
          "indexed": false,
          "internalType": "string",
          "name": "projectName",
          "type": "string"
        }
      ],
      "name": "ProjectAdded",
      "type": "event"
    },
    {
      "anonymous": false,
      "inputs": [
        {
          "indexed": false,
          "internalType": "uint256",
          "name": "randomNumber",
          "type": "uint256"
        }
      ],
      "name": "RandomNumberReceived",
      "type": "event"
    },
    {
      "anonymous": false,
      "inputs": [
        {
          "indexed": false,
          "internalType": "uint256",
          "name": "requestId",
          "type": "uint256"
        }
      ],
      "name": "RandomNumberRequested",
      "type": "event"
    },
    {
      "anonymous": false,
      "inputs": [
        {
          "indexed": false,
          "internalType": "address",
          "name": "voter",
          "type": "address"
        },
        {
          "indexed": false,
          "internalType": "string",
          "name": "name",
          "type": "string"
        },
        {
          "indexed": false,
          "internalType": "string",
          "name": "projectId",
          "type": "string"
        }
      ],
      "name": "Voted",
      "type": "event"
    },
    {
      "anonymous": false,
      "inputs": [
        {
          "indexed": false,
          "internalType": "address",
          "name": "winner",
          "type": "address"
        },
        {
          "indexed": false,
          "internalType": "uint256",
          "name": "amount",
          "type": "uint256"
        }
      ],
      "name": "WinnerAnnounced",
      "type": "event"
    },
    {
      "inputs": [
        {
          "internalType": "address",
          "name": "",
          "type": "address"
        }
      ],
      "name": "addressNames",
      "outputs": [
        {
          "internalType": "string",
          "name": "",
          "type": "string"
        }
      ],
      "stateMutability": "view",
      "type": "function",
      "constant": true
    },
    {
      "inputs": [
        {
          "internalType": "address",
          "name": "",
          "type": "address"
        }
      ],
      "name": "addressVotes",
      "outputs": [
        {
          "internalType": "string",
          "name": "",
          "type": "string"
        }
      ],
      "stateMutability": "view",
      "type": "function",
      "constant": true
    },
    {
      "inputs": [
        {
          "internalType": "address",
          "name": "",
          "type": "address"
        }
      ],
      "name": "hasVoted",
      "outputs": [
        {
          "internalType": "bool",
          "name": "",
          "type": "bool"
        }
      ],
      "stateMutability": "view",
      "type": "function",
      "constant": true
    },
    {
      "inputs": [
        {
          "internalType": "uint256",
          "name": "",
          "type": "uint256"
        }
      ],
      "name": "projectIds",
      "outputs": [
        {
          "internalType": "string",
          "name": "",
          "type": "string"
        }
      ],
      "stateMutability": "view",
      "type": "function",
      "constant": true
    },
    {
      "inputs": [
        {
          "internalType": "string",
          "name": "",
          "type": "string"
        }
      ],
      "name": "projectVotes",
      "outputs": [
        {
          "internalType": "uint256",
          "name": "",
          "type": "uint256"
        }
      ],
      "stateMutability": "view",
      "type": "function",
      "constant": true
    },
    {
      "inputs": [
        {
          "internalType": "string",
          "name": "",
          "type": "string"
        }
      ],
      "name": "projects",
      "outputs": [
        {
          "internalType": "string",
          "name": "",
          "type": "string"
        }
      ],
      "stateMutability": "view",
      "type": "function",
      "constant": true
    },
    {
      "inputs": [
        {
          "internalType": "uint256",
          "name": "requestId",
          "type": "uint256"
        },
        {
          "internalType": "uint256[]",
          "name": "randomWords",
          "type": "uint256[]"
        }
      ],
      "name": "rawFulfillRandomWords",
      "outputs": [],
      "stateMutability": "nonpayable",
      "type": "function"
    },
    {
      "inputs": [
        {
          "internalType": "string",
          "name": "projectName",
          "type": "string"
        },
        {
          "internalType": "string",
          "name": "projectId",
          "type": "string"
        }
      ],
      "name": "add",
      "outputs": [],
      "stateMutability": "nonpayable",
      "type": "function"
    },
    {
      "inputs": [
        {
          "internalType": "string",
          "name": "projectId",
          "type": "string"
        },
        {
          "internalType": "string",
          "name": "voterName",
          "type": "string"
        }
      ],
      "name": "vote",
      "outputs": [],
      "stateMutability": "payable",
      "type": "function",
      "payable": true
    },
    {
      "inputs": [],
      "name": "voteTest",
      "outputs": [
        {
          "internalType": "uint256",
          "name": "",
          "type": "uint256"
        }
      ],
      "stateMutability": "payable",
      "type": "function",
      "payable": true
    },
    {
      "inputs": [
        {
          "internalType": "string",
          "name": "projectId",
          "type": "string"
        }
      ],
      "name": "getVoteCount",
      "outputs": [
        {
          "internalType": "uint256",
          "name": "",
          "type": "uint256"
        }
      ],
      "stateMutability": "view",
      "type": "function",
      "constant": true
    },
    {
      "inputs": [],
      "name": "getAll",
      "outputs": [
        {
          "internalType": "string[]",
          "name": "",
          "type": "string[]"
        }
      ],
      "stateMutability": "view",
      "type": "function",
      "constant": true
    },
    {
      "inputs": [],
      "name": "checkHasVoted",
      "outputs": [
        {
          "internalType": "bool",
          "name": "",
          "type": "bool"
        }
      ],
      "stateMutability": "view",
      "type": "function",
      "constant": true
    },
    {
      "inputs": [],
      "name": "getVote",
      "outputs": [
        {
          "internalType": "string",
          "name": "",
          "type": "string"
        }
      ],
      "stateMutability": "view",
      "type": "function",
      "constant": true
    },
    {
      "inputs": [],
      "name": "getBalance",
      "outputs": [
        {
          "internalType": "uint256",
          "name": "",
          "type": "uint256"
        }
      ],
      "stateMutability": "view",
      "type": "function",
      "constant": true
    },
    {
      "inputs": [],
      "name": "getThreshold",
      "outputs": [
        {
          "internalType": "uint256",
          "name": "",
          "type": "uint256"
        }
      ],
      "stateMutability": "view",
      "type": "function",
      "constant": true
    },
    {
      "inputs": [
        {
          "internalType": "address",
          "name": "newOwner",
          "type": "address"
        }
      ],
      "name": "transferOwnership",
      "outputs": [],
      "stateMutability": "nonpayable",
      "type": "function"
    },
    {
      "inputs": [],
      "name": "withdraw",
      "outputs": [],
      "stateMutability": "nonpayable",
      "type": "function"
    }
  ],
  "bytecode": "0x60a060405267016345785d8a0000600855620186a0600b5f6101000a81548163ffffffff021916908363ffffffff1602179055506003600b60046101000a81548161ffff021916908361ffff1602179055506001600b60066101000a81548163ffffffff021916908363ffffffff1602179055503480156200007f575f80fd5b50604051620027e5380380620027e58339818101604052810190620000a5919062000273565b828073ffffffffffffffffffffffffffffffffffffffff1660808173ffffffffffffffffffffffffffffffffffffffff1681525050503360065f6101000a81548173ffffffffffffffffffffffffffffffffffffffff021916908373ffffffffffffffffffffffffffffffffffffffff16021790555081600960146101000a81548167ffffffffffffffff021916908367ffffffffffffffff16021790555080600a819055508260095f6101000a81548173ffffffffffffffffffffffffffffffffffffffff021916908373ffffffffffffffffffffffffffffffffffffffff160217905550505050620002cc565b5f80fd5b5f73ffffffffffffffffffffffffffffffffffffffff82169050919050565b5f620001c38262000198565b9050919050565b620001d581620001b7565b8114620001e0575f80fd5b50565b5f81519050620001f381620001ca565b92915050565b5f67ffffffffffffffff82169050919050565b6200021781620001f9565b811462000222575f80fd5b50565b5f8151905062000235816200020c565b92915050565b5f819050919050565b6200024f816200023b565b81146200025a575f80fd5b50565b5f815190506200026d8162000244565b92915050565b5f805f606084860312156200028d576200028c62000194565b5b5f6200029c86828701620001e3565b9350506020620002af8682870162000225565b9250506040620002c2868287016200025d565b9150509250925092565b6080516124f9620002ec5f395f81816105b1015261060501526124f95ff3fe608060405260043610610108575f3560e01c806391c9b26811610094578063c4c9111011610063578063c4c9111014610378578063e75235b8146103b4578063e8d5940d146103de578063ebdf86ca146103fa578063f2fde38b1461042257610108565b806391c9b268146102a657806395dacd52146102e2578063a34bb6e614610300578063b05018691461033c57610108565b80631234ce9d116100db5780631234ce9d146101d85780631fe543e3146102025780633ccfd60b1461022a57806348c35ad41461024057806353ed51431461027c57610108565b80630242f3511461010c578063069953a71461013657806309eef43e1461017257806312065fe0146101ae575b5f80fd5b348015610117575f80fd5b5061012061044a565b60405161012d91906114b2565b60405180910390f35b348015610141575f80fd5b5061015c6004803603810190610157919061160f565b610515565b604051610169919061166e565b60405180910390f35b34801561017d575f80fd5b50610198600480360381019061019391906116e1565b61053b565b6040516101a59190611726565b60405180910390f35b3480156101b9575f80fd5b506101c2610558565b6040516101cf919061166e565b60405180910390f35b3480156101e3575f80fd5b506101ec61055f565b6040516101f99190611726565b60405180910390f35b34801561020d575f80fd5b506102286004803603810190610223919061182d565b6105af565b005b348015610235575f80fd5b5061023e61066f565b005b34801561024b575f80fd5b5061026660048036038101906102619190611887565b610765565b60405161027391906114b2565b60405180910390f35b348015610287575f80fd5b5061029061080b565b60405161029d91906119b5565b60405180910390f35b3480156102b1575f80fd5b506102cc60048036038101906102c7919061160f565b6108df565b6040516102d991906114b2565b60405180910390f35b6102ea610992565b6040516102f7919061166e565b60405180910390f35b34801561030b575f80fd5b50610326600480360381019061032191906116e1565b610999565b60405161033391906114b2565b60405180910390f35b348015610347575f80fd5b50610362600480360381019061035d91906116e1565b610a34565b60405161036f91906114b2565b60405180910390f35b348015610383575f80fd5b5061039e6004803603810190610399919061160f565b610acf565b6040516103ab919061166e565b60405180910390f35b3480156103bf575f80fd5b506103c8610afb565b6040516103d5919061166e565b60405180910390f35b6103f860048036038101906103f391906119d5565b610b04565b005b348015610405575f80fd5b50610420600480360381019061041b91906119d5565b610e06565b005b34801561042d575f80fd5b50610448600480360381019061044391906116e1565b611022565b005b606060035f3373ffffffffffffffffffffffffffffffffffffffff1673ffffffffffffffffffffffffffffffffffffffff1681526020019081526020015f20805461049490611a78565b80601f01602080910402602001604051908101604052809291908181526020018280546104c090611a78565b801561050b5780601f106104e25761010080835404028352916020019161050b565b820191905f5260205f20905b8154815290600101906020018083116104ee57829003601f168201915b5050505050905090565b5f80826040516105259190611ae2565b9081526020016040518091039020549050919050565b6001602052805f5260405f205f915054906101000a900460ff1681565b5f47905090565b5f60015f3373ffffffffffffffffffffffffffffffffffffffff1673ffffffffffffffffffffffffffffffffffffffff1681526020019081526020015f205f9054906101000a900460ff16905090565b7f000000000000000000000000000000000000000000000000000000000000000073ffffffffffffffffffffffffffffffffffffffff163373ffffffffffffffffffffffffffffffffffffffff161461066157337f00000000000000000000000000000000000000000000000000000000000000006040517f1cf993f4000000000000000000000000000000000000000000000000000000008152600401610658929190611b07565b60405180910390fd5b61066b8282611162565b5050565b60065f9054906101000a900473ffffffffffffffffffffffffffffffffffffffff1673ffffffffffffffffffffffffffffffffffffffff163373ffffffffffffffffffffffffffffffffffffffff16146106fe576040517f08c379a00000000000000000000000000000000000000000000000000000000081526004016106f590611b78565b60405180910390fd5b60065f9054906101000a900473ffffffffffffffffffffffffffffffffffffffff1673ffffffffffffffffffffffffffffffffffffffff166108fc4790811502906040515f60405180830381858888f19350505050158015610762573d5f803e3d5ffd5b50565b60058181548110610774575f80fd5b905f5260205f20015f91509050805461078c90611a78565b80601f01602080910402602001604051908101604052809291908181526020018280546107b890611a78565b80156108035780601f106107da57610100808354040283529160200191610803565b820191905f5260205f20905b8154815290600101906020018083116107e657829003601f168201915b505050505081565b60606005805480602002602001604051908101604052809291908181526020015f905b828210156108d6578382905f5260205f2001805461084b90611a78565b80601f016020809104026020016040519081016040528092919081815260200182805461087790611a78565b80156108c25780601f10610899576101008083540402835291602001916108c2565b820191905f5260205f20905b8154815290600101906020018083116108a557829003601f168201915b50505050508152602001906001019061082e565b50505050905090565b6002818051602081018201805184825260208301602085012081835280955050505050505f91509050805461091390611a78565b80601f016020809104026020016040519081016040528092919081815260200182805461093f90611a78565b801561098a5780601f106109615761010080835404028352916020019161098a565b820191905f5260205f20905b81548152906001019060200180831161096d57829003601f168201915b505050505081565b5f34905090565b6003602052805f5260405f205f9150905080546109b590611a78565b80601f01602080910402602001604051908101604052809291908181526020018280546109e190611a78565b8015610a2c5780601f10610a0357610100808354040283529160200191610a2c565b820191905f5260205f20905b815481529060010190602001808311610a0f57829003601f168201915b505050505081565b6004602052805f5260405f205f915090508054610a5090611a78565b80601f0160208091040260200160405190810160405280929190818152602001828054610a7c90611a78565b8015610ac75780601f10610a9e57610100808354040283529160200191610ac7565b820191905f5260205f20905b815481529060010190602001808311610aaa57829003601f168201915b505050505081565b5f818051602081018201805184825260208301602085012081835280955050505050505f915090505481565b5f600854905090565b66038d7ea4c68000341015610b4e576040517f08c379a0000000000000000000000000000000000000000000000000000000008152600401610b4590611be0565b60405180910390fd5b66b1a2bc2ec50000341115610b98576040517f08c379a0000000000000000000000000000000000000000000000000000000008152600401610b8f90611c48565b60405180910390fd5b60015f3373ffffffffffffffffffffffffffffffffffffffff1673ffffffffffffffffffffffffffffffffffffffff1681526020019081526020015f205f9054906101000a900460ff1615610c22576040517f08c379a0000000000000000000000000000000000000000000000000000000008152600401610c1990611cb0565b60405180910390fd5b5f600283604051610c339190611ae2565b90815260200160405180910390208054610c4c90611a78565b905011610c8e576040517f08c379a0000000000000000000000000000000000000000000000000000000008152600401610c8590611d18565b60405180910390fd5b8160035f3373ffffffffffffffffffffffffffffffffffffffff1673ffffffffffffffffffffffffffffffffffffffff1681526020019081526020015f209081610cd89190611ed3565b505f82604051610ce89190611ae2565b90815260200160405180910390205f815480929190610d0690611fcf565b91905055506001805f3373ffffffffffffffffffffffffffffffffffffffff1673ffffffffffffffffffffffffffffffffffffffff1681526020019081526020015f205f6101000a81548160ff021916908315150217905550600733908060018154018082558091505060019003905f5260205f20015f9091909190916101000a81548173ffffffffffffffffffffffffffffffffffffffff021916908373ffffffffffffffffffffffffffffffffffffffff160217905550610dc76112ad565b7ff411f516043be7e54a4fbc44dc33e96f9a6caa30cf08d393cdb7492ba92154f5338284604051610dfa93929190612016565b60405180910390a15050565b60065f9054906101000a900473ffffffffffffffffffffffffffffffffffffffff1673ffffffffffffffffffffffffffffffffffffffff163373ffffffffffffffffffffffffffffffffffffffff1614610e95576040517f08c379a0000000000000000000000000000000000000000000000000000000008152600401610e8c90611b78565b60405180910390fd5b5f600282604051610ea69190611ae2565b90815260200160405180910390208054610ebf90611a78565b905014610f01576040517f08c379a0000000000000000000000000000000000000000000000000000000008152600401610ef8906120a3565b60405180910390fd5b5f825111610f44576040517f08c379a0000000000000000000000000000000000000000000000000000000008152600401610f3b9061210b565b60405180910390fd5b5f815111610f87576040517f08c379a0000000000000000000000000000000000000000000000000000000008152600401610f7e90612173565b60405180910390fd5b81600282604051610f989190611ae2565b90815260200160405180910390209081610fb29190611ed3565b50600581908060018154018082558091505060019003905f5260205f20015f909190919091509081610fe49190611ed3565b507feb5d6000a362475be9d9b16beddc148b7004850daf2e69325a403d613567769e8183604051611016929190612191565b60405180910390a15050565b60065f9054906101000a900473ffffffffffffffffffffffffffffffffffffffff1673ffffffffffffffffffffffffffffffffffffffff163373ffffffffffffffffffffffffffffffffffffffff16146110b1576040517f08c379a00000000000000000000000000000000000000000000000000000000081526004016110a890611b78565b60405180910390fd5b5f73ffffffffffffffffffffffffffffffffffffffff168173ffffffffffffffffffffffffffffffffffffffff160361111f576040517f08c379a000000000000000000000000000000000000000000000000000000000815260040161111690612236565b60405180910390fd5b8060065f6101000a81548173ffffffffffffffffffffffffffffffffffffffff021916908373ffffffffffffffffffffffffffffffffffffffff16021790555050565b5f815f8151811061117657611175612254565b5b602002602001015190507fe9a9868fdaf3f6179fe8012374366a6b13cc9596ad26ee37a06f12c548d633c3825f815181106111b4576111b3612254565b5b60200260200101516040516111c9919061166e565b60405180910390a15f600780549050826111e391906122ae565b90505f600782815481106111fa576111f9612254565b5b905f5260205f20015f9054906101000a900473ffffffffffffffffffffffffffffffffffffffff1690505f4790507fac853ae20ebc831e1db62fa17db64e8e173b63c6dcd89a4a4f5f24a1a080322e8282604051611259929190612330565b60405180910390a18173ffffffffffffffffffffffffffffffffffffffff166108fc8290811502906040515f60405180830381858888f193505050501580156112a4573d5f803e3d5ffd5b50505050505050565b6008544710611426575f600780549050116112fd576040517f08c379a00000000000000000000000000000000000000000000000000000000081526004016112f4906123a1565b60405180910390fd5b5f60095f9054906101000a900473ffffffffffffffffffffffffffffffffffffffff1673ffffffffffffffffffffffffffffffffffffffff16635d3b1d30600a54600960149054906101000a900467ffffffffffffffff16600b60049054906101000a900461ffff16600b5f9054906101000a900463ffffffff16600b60069054906101000a900463ffffffff166040518663ffffffff1660e01b81526004016113ab959493929190612433565b6020604051808303815f875af11580156113c7573d5f803e3d5ffd5b505050506040513d601f19601f820116820180604052508101906113eb9190612498565b90507f5a82a565b8cc97bc62f2041e057e918f6b3b7b4185104d7d4a52ed5c711e72328160405161141c919061166e565b60405180910390a1505b565b5f81519050919050565b5f82825260208201905092915050565b5f5b8381101561145f578082015181840152602081019050611444565b5f8484015250505050565b5f601f19601f8301169050919050565b5f61148482611428565b61148e8185611432565b935061149e818560208601611442565b6114a78161146a565b840191505092915050565b5f6020820190508181035f8301526114ca818461147a565b905092915050565b5f604051905090565b5f80fd5b5f80fd5b5f80fd5b5f80fd5b7f4e487b71000000000000000000000000000000000000000000000000000000005f52604160045260245ffd5b6115218261146a565b810181811067ffffffffffffffff821117156115405761153f6114eb565b5b80604052505050565b5f6115526114d2565b905061155e8282611518565b919050565b5f67ffffffffffffffff82111561157d5761157c6114eb565b5b6115868261146a565b9050602081019050919050565b828183375f83830152505050565b5f6115b36115ae84611563565b611549565b9050828152602081018484840111156115cf576115ce6114e7565b5b6115da848285611593565b509392505050565b5f82601f8301126115f6576115f56114e3565b5b81356116068482602086016115a1565b91505092915050565b5f60208284031215611624576116236114db565b5b5f82013567ffffffffffffffff811115611641576116406114df565b5b61164d848285016115e2565b91505092915050565b5f819050919050565b61166881611656565b82525050565b5f6020820190506116815f83018461165f565b92915050565b5f73ffffffffffffffffffffffffffffffffffffffff82169050919050565b5f6116b082611687565b9050919050565b6116c0816116a6565b81146116ca575f80fd5b50565b5f813590506116db816116b7565b92915050565b5f602082840312156116f6576116f56114db565b5b5f611703848285016116cd565b91505092915050565b5f8115159050919050565b6117208161170c565b82525050565b5f6020820190506117395f830184611717565b92915050565b61174881611656565b8114611752575f80fd5b50565b5f813590506117638161173f565b92915050565b5f67ffffffffffffffff821115611783576117826114eb565b5b602082029050602081019050919050565b5f80fd5b5f6117aa6117a584611769565b611549565b905080838252602082019050602084028301858111156117cd576117cc611794565b5b835b818110156117f657806117e28882611755565b8452602084019350506020810190506117cf565b5050509392505050565b5f82601f830112611814576118136114e3565b5b8135611824848260208601611798565b91505092915050565b5f8060408385031215611843576118426114db565b5b5f61185085828601611755565b925050602083013567ffffffffffffffff811115611871576118706114df565b5b61187d85828601611800565b9150509250929050565b5f6020828403121561189c5761189b6114db565b5b5f6118a984828501611755565b91505092915050565b5f81519050919050565b5f82825260208201905092915050565b5f819050602082019050919050565b5f82825260208201905092915050565b5f6118f582611428565b6118ff81856118db565b935061190f818560208601611442565b6119188161146a565b840191505092915050565b5f61192e83836118eb565b905092915050565b5f602082019050919050565b5f61194c826118b2565b61195681856118bc565b935083602082028501611968856118cc565b805f5b858110156119a357848403895281516119848582611923565b945061198f83611936565b925060208a0199505060018101905061196b565b50829750879550505050505092915050565b5f6020820190508181035f8301526119cd8184611942565b905092915050565b5f80604083850312156119eb576119ea6114db565b5b5f83013567ffffffffffffffff811115611a0857611a076114df565b5b611a14858286016115e2565b925050602083013567ffffffffffffffff811115611a3557611a346114df565b5b611a41858286016115e2565b9150509250929050565b7f4e487b71000000000000000000000000000000000000000000000000000000005f52602260045260245ffd5b5f6002820490506001821680611a8f57607f821691505b602082108103611aa257611aa1611a4b565b5b50919050565b5f81905092915050565b5f611abc82611428565b611ac68185611aa8565b9350611ad6818560208601611442565b80840191505092915050565b5f611aed8284611ab2565b915081905092915050565b611b01816116a6565b82525050565b5f604082019050611b1a5f830185611af8565b611b276020830184611af8565b9392505050565b7f4f6e6c79206f776e65722063616e2065786563757465000000000000000000005f82015250565b5f611b62601683611432565b9150611b6d82611b2e565b602082019050919050565b5f6020820190508181035f830152611b8f81611b56565b9050919050565b7f4d696e696d756d20302e303031206574686572000000000000000000000000005f82015250565b5f611bca601383611432565b9150611bd582611b96565b602082019050919050565b5f6020820190508181035f830152611bf781611bbe565b9050919050565b7f4d6178696d756d20302e303520657468657200000000000000000000000000005f82015250565b5f611c32601283611432565b9150611c3d82611bfe565b602082019050919050565b5f6020820190508181035f830152611c5f81611c26565b9050919050565b7f416c726561647920766f746564000000000000000000000000000000000000005f82015250565b5f611c9a600d83611432565b9150611ca582611c66565b602082019050919050565b5f6020820190508181035f830152611cc781611c8e565b9050919050565b7f50726f6a65637420646f6573206e6f74206578697374000000000000000000005f82015250565b5f611d02601683611432565b9150611d0d82611cce565b602082019050919050565b5f6020820190508181035f830152611d2f81611cf6565b9050919050565b5f819050815f5260205f209050919050565b5f6020601f8301049050919050565b5f82821b905092915050565b5f60088302611d927fffffffffffffffffffffffffffffffffffffffffffffffffffffffffffffffff82611d57565b611d9c8683611d57565b95508019841693508086168417925050509392505050565b5f819050919050565b5f611dd7611dd2611dcd84611656565b611db4565b611656565b9050919050565b5f819050919050565b611df083611dbd565b611e04611dfc82611dde565b848454611d63565b825550505050565b5f90565b611e18611e0c565b611e23818484611de7565b505050565b5b81811015611e4657611e3b5f82611e10565b600181019050611e29565b5050565b601f821115611e8b57611e5c81611d36565b611e6584611d48565b81016020851015611e74578190505b611e88611e8085611d48565b830182611e28565b50505b505050565b5f82821c905092915050565b5f611eab5f1984600802611e90565b1980831691505092915050565b5f611ec38383611e9c565b9150826002028217905092915050565b611edc82611428565b67ffffffffffffffff811115611ef557611ef46114eb565b5b611eff8254611a78565b611f0a828285611e4a565b5f60209050601f831160018114611f3b575f8415611f29578287015190505b611f338582611eb8565b865550611f9a565b601f198416611f4986611d36565b5f5b82811015611f7057848901518255600182019150602085019450602081019050611f4b565b86831015611f8d5784890151611f89601f891682611e9c565b8355505b6001600288020188555050505b505050505050565b7f4e487b71000000000000000000000000000000000000000000000000000000005f52601160045260245ffd5b5f611fd982611656565b91507fffffffffffffffffffffffffffffffffffffffffffffffffffffffffffffffff820361200b5761200a611fa2565b5b600182019050919050565b5f6060820190506120295f830186611af8565b818103602083015261203b818561147a565b9050818103604083015261204f818461147a565b9050949350505050565b7f50726f6a65637420616c726561647920657869737473000000000000000000005f82015250565b5f61208d601683611432565b915061209882612059565b602082019050919050565b5f6020820190508181035f8301526120ba81612081565b9050919050565b7f50726f6a656374206e616d6520697320726571756972656400000000000000005f82015250565b5f6120f5601883611432565b9150612100826120c1565b602082019050919050565b5f6020820190508181035f830152612122816120e9565b9050919050565b7f50726f6a656374204944206973207265717569726564000000000000000000005f82015250565b5f61215d601683611432565b915061216882612129565b602082019050919050565b5f6020820190508181035f83015261218a81612151565b9050919050565b5f6040820190508181035f8301526121a9818561147a565b905081810360208301526121bd818461147a565b90509392505050565b7f4e6577206f776e65722063616e6e6f7420626520746865207a65726f206164645f8201527f7265737300000000000000000000000000000000000000000000000000000000602082015250565b5f612220602483611432565b915061222b826121c6565b604082019050919050565b5f6020820190508181035f83015261224d81612214565b9050919050565b7f4e487b71000000000000000000000000000000000000000000000000000000005f52603260045260245ffd5b7f4e487b71000000000000000000000000000000000000000000000000000000005f52601260045260245ffd5b5f6122b882611656565b91506122c383611656565b9250826122d3576122d2612281565b5b828206905092915050565b5f6122f86122f36122ee84611687565b611db4565b611687565b9050919050565b5f612309826122de565b9050919050565b5f61231a826122ff565b9050919050565b61232a81612310565b82525050565b5f6040820190506123435f830185612321565b612350602083018461165f565b9392505050565b7f4e6f20766f7465727320746f20726577617264000000000000000000000000005f82015250565b5f61238b601383611432565b915061239682612357565b602082019050919050565b5f6020820190508181035f8301526123b88161237f565b9050919050565b5f819050919050565b6123d1816123bf565b82525050565b5f67ffffffffffffffff82169050919050565b6123f3816123d7565b82525050565b5f61ffff82169050919050565b61240f816123f9565b82525050565b5f63ffffffff82169050919050565b61242d81612415565b82525050565b5f60a0820190506124465f8301886123c8565b61245360208301876123ea565b6124606040830186612406565b61246d6060830185612424565b61247a6080830184612424565b9695505050505050565b5f815190506124928161173f565b92915050565b5f602082840312156124ad576124ac6114db565b5b5f6124ba84828501612484565b9150509291505056fea2646970667358221220d1d1b879c487b2f0bda56ff8cbb11f5aabd850d07b02626b9e28a14af4dccb5064736f6c63430008150033",
  "immutableReferences": {
    "106": [
      {
        "length": 32,
        "start": 1457
      },
      {
        "length": 32,
        "start": 1541
      }
    ]
  },
  "source": "// SPDX-License-Identifier: MIT\npragma solidity ^0.8.0;\n\nimport \"@openzeppelin/contracts/utils/Address.sol\";\nimport \"@chainlink/contracts/src/v0.8/vrf/VRFConsumerBaseV2.sol\";\nimport \"@chainlink/contracts/src/v0.8/interfaces/VRFCoordinatorV2Interface.sol\";\nimport \"@openzeppelin/contracts/token/ERC20/IERC20.sol\";\n\n\ncontract ProjectVoting is VRFConsumerBaseV2{\n    mapping(string => uint) public projectVotes;\n    mapping(address => bool) public hasVoted;\n    mapping(string => string) public projects;\n    mapping(address => string) public addressVotes;\n    mapping(address => string) public addressNames;\n    string[] public projectIds;\n    address private owner;\n    address[] private voters;\n    uint private threshold = 0.1 ether;\n\n    // Chainlink VRF Variables\n    VRFCoordinatorV2Interface COORDINATOR;\n    uint64 private subscriptionId; // this can be found here https://vrf.chain.link/sepolia\n    bytes32 private keyHash;\n    uint32 private callbackGasLimit = 100000; // Adjust the gas limit based on the requirement\n    uint16 private requestConfirmations = 3; // Minimum number of confirmations\n    uint32 private numWords =  1; // Number of random values to request\n\n    event ProjectAdded(string projectId, string projectName);\n    event Voted(address voter, string name, string projectId); \n    event WinnerAnnounced(address winner, uint256 amount);\n\n    event RandomNumberRequested(uint256 requestId);\n    event RandomNumberReceived(uint256 randomNumber);\n\n    modifier onlyOwner() {\n        require(msg.sender == owner, \"Only owner can execute\");\n        _;\n    }\n  \n    constructor(\n        address _vrfCoordinator,\n        uint64 _subscriptionId,\n        bytes32 _keyHash\n    ) VRFConsumerBaseV2(_vrfCoordinator) {\n        owner = msg.sender;\n        subscriptionId = _subscriptionId;\n        keyHash = _keyHash;\n        COORDINATOR = VRFCoordinatorV2Interface(_vrfCoordinator);\n    }\n\n    function add(string memory projectName, string memory projectId) public onlyOwner {\n        require(bytes(projects[projectId]).length == 0, \"Project already exists\");\n        require(bytes(projectName).length > 0, \"Project name is required\");\n        require(bytes(projectId).length > 0, \"Project ID is required\"); \n        projects[projectId] = projectName;\n        projectIds.push(projectId);\n        emit ProjectAdded(projectId, projectName); \n    }\n\n    function vote(string memory projectId, string memory voterName) payable public {\n        require(msg.value >= 0.001 ether, \"Minimum 0.001 ether\");\n        require(msg.value <= 0.05 ether, \"Maximum 0.05 ether\");\n        require(!hasVoted[msg.sender], \"Already voted\");\n        require(bytes(projects[projectId]).length > 0, \"Project does not exist\"); \n        addressVotes[msg.sender] = projectId;\n        projectVotes[projectId]++;\n        hasVoted[msg.sender] = true;\n        voters.push(msg.sender);\n        checkAndTransfer();  \n        emit Voted(msg.sender, voterName, projectId);\n    }\n\n    function voteTest() public payable returns (uint) {\n        return msg.value;\n    }\n\n    function getVoteCount(string memory projectId) public view returns (uint) {\n        return projectVotes[projectId];\n    }\n\n    function getAll() public view returns (string[] memory) {\n        return projectIds;\n    }\n\n    function checkHasVoted() public view returns (bool) {\n        return hasVoted[msg.sender];\n    }\n\n    function getVote() public view returns (string memory) {\n        return  addressVotes[msg.sender]; \n    }\n\n\n    function getBalance() public view returns (uint256) {\n        return address(this).balance;\n    }\n\n    function getThreshold() public view returns (uint256) {\n        return threshold;\n    }\n\n    function transferOwnership(address newOwner) public onlyOwner {\n        require(newOwner != address(0), \"New owner cannot be the zero address\");\n        owner = newOwner;\n    }\n\n    function checkAndTransfer() internal {\n        if (address(this).balance >= threshold) {\n            require(voters.length > 0, \"No voters to reward\");\n            uint256 requestId = COORDINATOR.requestRandomWords(\n                keyHash,\n                subscriptionId,\n                requestConfirmations,\n                callbackGasLimit,\n                numWords\n            );\n            emit RandomNumberRequested(requestId);\n        }\n    }\n\n    function fulfillRandomWords(uint256 /* requestId */, uint256[] memory randomWords) internal override {\n        uint256 randomResult = randomWords[0];\n        emit RandomNumberReceived(randomWords[0]);\n        uint randomIndex = randomResult % voters.length;\n        address payable luckyVoter = payable(voters[randomIndex]);\n        uint256 amountToSend = address(this).balance;\n        emit WinnerAnnounced(luckyVoter, amountToSend);\n        luckyVoter.transfer(amountToSend);\n    } \n\n    function withdraw() public onlyOwner {\n        payable(owner).transfer(address(this).balance);\n    }\n}",
  "sourcePath": "/home/ddavis/Documents/web_dev/Projects/PersonalSite/backend/contracts/project-voting.sol",
  "compiler": {
    "name": "solc",
    "version": "0.8.21+commit.d9974bed.Emscripten.clang"
  },
  "schemaVersion": "3.4.16",
  "updatedAt": "2024-02-03T17:41:03.264Z",
  "networkType": "ethereum",
  "devdoc": {
    "kind": "dev",
    "methods": {},
    "version": 1
  },
  "userdoc": {
    "kind": "user",
    "methods": {},
    "version": 1
  }
}