{
  "_format": "hh-sol-artifact-1",
  "contractName": "Feedback",
  "sourceName": "contracts/project-voting.sol",
  "abi": [
    {
      "inputs": [
        {
          "internalType": "address",
          "name": "_vrfCoordinator",
          "type": "address"
        },
        {
          "internalType": "uint256",
          "name": "_subscriptionId",
          "type": "uint256"
        },
        {
          "internalType": "bytes32",
          "name": "_keyHash",
          "type": "bytes32"
        }
      ],
      "stateMutability": "nonpayable",
      "type": "constructor"
    },
    {
      "inputs": [
        {
          "internalType": "address",
          "name": "have",
          "type": "address"
        },
        {
          "internalType": "address",
          "name": "want",
          "type": "address"
        }
      ],
      "name": "OnlyCoordinatorCanFulfill",
      "type": "error"
    },
    {
      "inputs": [
        {
          "internalType": "address",
          "name": "have",
          "type": "address"
        },
        {
          "internalType": "address",
          "name": "owner",
          "type": "address"
        },
        {
          "internalType": "address",
          "name": "coordinator",
          "type": "address"
        }
      ],
      "name": "OnlyOwnerOrCoordinator",
      "type": "error"
    },
    {
      "inputs": [],
      "name": "ZeroAddress",
      "type": "error"
    },
    {
      "anonymous": false,
      "inputs": [
        {
          "indexed": false,
          "internalType": "address",
          "name": "vrfCoordinator",
          "type": "address"
        }
      ],
      "name": "CoordinatorSet",
      "type": "event"
    },
    {
      "anonymous": false,
      "inputs": [
        {
          "indexed": false,
          "internalType": "address",
          "name": "providerAddress",
          "type": "address"
        },
        {
          "indexed": false,
          "internalType": "string",
          "name": "itemId",
          "type": "string"
        }
      ],
      "name": "FeedbackProvided",
      "type": "event"
    },
    {
      "anonymous": false,
      "inputs": [
        {
          "indexed": true,
          "internalType": "address",
          "name": "from",
          "type": "address"
        },
        {
          "indexed": true,
          "internalType": "address",
          "name": "to",
          "type": "address"
        }
      ],
      "name": "OwnershipTransferRequested",
      "type": "event"
    },
    {
      "anonymous": false,
      "inputs": [
        {
          "indexed": true,
          "internalType": "address",
          "name": "from",
          "type": "address"
        },
        {
          "indexed": true,
          "internalType": "address",
          "name": "to",
          "type": "address"
        }
      ],
      "name": "OwnershipTransferred",
      "type": "event"
    },
    {
      "anonymous": false,
      "inputs": [
        {
          "indexed": false,
          "internalType": "uint256",
          "name": "requestId",
          "type": "uint256"
        },
        {
          "indexed": false,
          "internalType": "uint256[]",
          "name": "randomWords",
          "type": "uint256[]"
        }
      ],
      "name": "RequestFulfilled",
      "type": "event"
    },
    {
      "anonymous": false,
      "inputs": [
        {
          "indexed": false,
          "internalType": "uint256",
          "name": "requestId",
          "type": "uint256"
        },
        {
          "indexed": false,
          "internalType": "uint32",
          "name": "numWords",
          "type": "uint32"
        }
      ],
      "name": "RequestSent",
      "type": "event"
    },
    {
      "anonymous": false,
      "inputs": [
        {
          "indexed": false,
          "internalType": "address",
          "name": "providerAddress",
          "type": "address"
        },
        {
          "indexed": false,
          "internalType": "uint256",
          "name": "amount",
          "type": "uint256"
        }
      ],
      "name": "RewardSettled",
      "type": "event"
    },
    {
      "inputs": [],
      "name": "acceptOwnership",
      "outputs": [],
      "stateMutability": "nonpayable",
      "type": "function"
    },
    {
      "inputs": [
        {
          "internalType": "string",
          "name": "_itemId",
          "type": "string"
        },
        {
          "internalType": "uint256",
          "name": "_settleDeadline",
          "type": "uint256"
        }
      ],
      "name": "addFeedbackBundle",
      "outputs": [],
      "stateMutability": "payable",
      "type": "function"
    },
    {
      "inputs": [
        {
          "internalType": "address",
          "name": "",
          "type": "address"
        }
      ],
      "name": "addressFeedbackTokens",
      "outputs": [
        {
          "internalType": "uint256",
          "name": "",
          "type": "uint256"
        }
      ],
      "stateMutability": "view",
      "type": "function"
    },
    {
      "inputs": [
        {
          "internalType": "string",
          "name": "_itemId",
          "type": "string"
        }
      ],
      "name": "checkBundleHasFeedback",
      "outputs": [
        {
          "internalType": "bool",
          "name": "",
          "type": "bool"
        }
      ],
      "stateMutability": "view",
      "type": "function"
    },
    {
      "inputs": [
        {
          "internalType": "string",
          "name": "",
          "type": "string"
        }
      ],
      "name": "feedbackBundles",
      "outputs": [
        {
          "internalType": "address",
          "name": "owner",
          "type": "address"
        },
        {
          "internalType": "uint256",
          "name": "rewardBalance",
          "type": "uint256"
        },
        {
          "internalType": "uint256",
          "name": "settleDeadline",
          "type": "uint256"
        },
        {
          "internalType": "bool",
          "name": "isSettled",
          "type": "bool"
        },
        {
          "internalType": "uint256",
          "name": "feedbackCount",
          "type": "uint256"
        }
      ],
      "stateMutability": "view",
      "type": "function"
    },
    {
      "inputs": [],
      "name": "getBalance",
      "outputs": [
        {
          "internalType": "uint256",
          "name": "",
          "type": "uint256"
        }
      ],
      "stateMutability": "view",
      "type": "function"
    },
    {
      "inputs": [
        {
          "internalType": "string",
          "name": "_itemId",
          "type": "string"
        }
      ],
      "name": "getFeedbackBundle",
      "outputs": [
        {
          "internalType": "address",
          "name": "",
          "type": "address"
        },
        {
          "internalType": "uint256",
          "name": "",
          "type": "uint256"
        },
        {
          "internalType": "uint256",
          "name": "",
          "type": "uint256"
        },
        {
          "internalType": "bool",
          "name": "",
          "type": "bool"
        }
      ],
      "stateMutability": "view",
      "type": "function"
    },
    {
      "inputs": [
        {
          "internalType": "uint256",
          "name": "_requestId",
          "type": "uint256"
        }
      ],
      "name": "getRequestStatus",
      "outputs": [
        {
          "internalType": "bool",
          "name": "fulfilled",
          "type": "bool"
        },
        {
          "internalType": "uint256[]",
          "name": "randomWords",
          "type": "uint256[]"
        }
      ],
      "stateMutability": "view",
      "type": "function"
    },
    {
      "inputs": [
        {
          "internalType": "address",
          "name": "",
          "type": "address"
        },
        {
          "internalType": "string",
          "name": "",
          "type": "string"
        }
      ],
      "name": "hasProvidedFeedback",
      "outputs": [
        {
          "internalType": "bool",
          "name": "",
          "type": "bool"
        }
      ],
      "stateMutability": "view",
      "type": "function"
    },
    {
      "inputs": [
        {
          "internalType": "address",
          "name": "",
          "type": "address"
        },
        {
          "internalType": "string",
          "name": "",
          "type": "string"
        }
      ],
      "name": "itemFeedback",
      "outputs": [
        {
          "internalType": "string",
          "name": "",
          "type": "string"
        }
      ],
      "stateMutability": "view",
      "type": "function"
    },
    {
      "inputs": [
        {
          "internalType": "string",
          "name": "",
          "type": "string"
        },
        {
          "internalType": "uint256",
          "name": "",
          "type": "uint256"
        }
      ],
      "name": "itemFeedbackProviders",
      "outputs": [
        {
          "internalType": "address",
          "name": "",
          "type": "address"
        }
      ],
      "stateMutability": "view",
      "type": "function"
    },
    {
      "inputs": [],
      "name": "keyHashSet",
      "outputs": [
        {
          "internalType": "bytes32",
          "name": "",
          "type": "bytes32"
        }
      ],
      "stateMutability": "view",
      "type": "function"
    },
    {
      "inputs": [],
      "name": "lastRequestId",
      "outputs": [
        {
          "internalType": "uint256",
          "name": "",
          "type": "uint256"
        }
      ],
      "stateMutability": "view",
      "type": "function"
    },
    {
      "inputs": [],
      "name": "owner",
      "outputs": [
        {
          "internalType": "address",
          "name": "",
          "type": "address"
        }
      ],
      "stateMutability": "view",
      "type": "function"
    },
    {
      "inputs": [
        {
          "internalType": "string",
          "name": "_itemId",
          "type": "string"
        },
        {
          "internalType": "string",
          "name": "_feedbackId",
          "type": "string"
        }
      ],
      "name": "provideFeedback",
      "outputs": [],
      "stateMutability": "nonpayable",
      "type": "function"
    },
    {
      "inputs": [
        {
          "internalType": "uint256",
          "name": "requestId",
          "type": "uint256"
        },
        {
          "internalType": "uint256[]",
          "name": "randomWords",
          "type": "uint256[]"
        }
      ],
      "name": "rawFulfillRandomWords",
      "outputs": [],
      "stateMutability": "nonpayable",
      "type": "function"
    },
    {
      "inputs": [
        {
          "internalType": "string",
          "name": "_itemId",
          "type": "string"
        }
      ],
      "name": "refundFeedbackBundle",
      "outputs": [],
      "stateMutability": "nonpayable",
      "type": "function"
    },
    {
      "inputs": [
        {
          "internalType": "uint256",
          "name": "",
          "type": "uint256"
        }
      ],
      "name": "requestIds",
      "outputs": [
        {
          "internalType": "uint256",
          "name": "",
          "type": "uint256"
        }
      ],
      "stateMutability": "view",
      "type": "function"
    },
    {
      "inputs": [
        {
          "internalType": "uint256",
          "name": "",
          "type": "uint256"
        }
      ],
      "name": "s_requests",
      "outputs": [
        {
          "internalType": "bool",
          "name": "fulfilled",
          "type": "bool"
        },
        {
          "internalType": "bool",
          "name": "exists",
          "type": "bool"
        }
      ],
      "stateMutability": "view",
      "type": "function"
    },
    {
      "inputs": [],
      "name": "s_vrfCoordinator",
      "outputs": [
        {
          "internalType": "contract IVRFCoordinatorV2Plus",
          "name": "",
          "type": "address"
        }
      ],
      "stateMutability": "view",
      "type": "function"
    },
    {
      "inputs": [
        {
          "internalType": "address",
          "name": "_vrfCoordinator",
          "type": "address"
        }
      ],
      "name": "setCoordinator",
      "outputs": [],
      "stateMutability": "nonpayable",
      "type": "function"
    },
    {
      "inputs": [
        {
          "internalType": "address payable",
          "name": "providerAddress",
          "type": "address"
        },
        {
          "internalType": "string",
          "name": "itemId",
          "type": "string"
        }
      ],
      "name": "settleBundle",
      "outputs": [],
      "stateMutability": "nonpayable",
      "type": "function"
    },
    {
      "inputs": [
        {
          "internalType": "string",
          "name": "itemId",
          "type": "string"
        }
      ],
      "name": "settleRewardRandomly",
      "outputs": [],
      "stateMutability": "nonpayable",
      "type": "function"
    },
    {
      "inputs": [],
      "name": "subscriptionSet",
      "outputs": [
        {
          "internalType": "bool",
          "name": "",
          "type": "bool"
        }
      ],
      "stateMutability": "view",
      "type": "function"
    },
    {
      "inputs": [
        {
          "internalType": "address",
          "name": "to",
          "type": "address"
        }
      ],
      "name": "transferOwnership",
      "outputs": [],
      "stateMutability": "nonpayable",
      "type": "function"
    },
    {
      "inputs": [],
      "name": "vrfCoordinatorSet",
      "outputs": [
        {
          "internalType": "address",
          "name": "",
          "type": "address"
        }
      ],
      "stateMutability": "view",
      "type": "function"
    }
  ],
  "bytecode": "0x6080604052620186a0600b60006101000a81548163ffffffff021916908363ffffffff1602179055506003600b60046101000a81548161ffff021916908361ffff1602179055506001600b60066101000a81548163ffffffff021916908363ffffffff1602179055503480156200007557600080fd5b5060405162003b7d38038062003b7d83398181016040528101906200009b91906200046a565b82338060008073ffffffffffffffffffffffffffffffffffffffff168273ffffffffffffffffffffffffffffffffffffffff160362000111576040517f08c379a0000000000000000000000000000000000000000000000000000000008152600401620001089062000527565b60405180910390fd5b816000806101000a81548173ffffffffffffffffffffffffffffffffffffffff021916908373ffffffffffffffffffffffffffffffffffffffff160217905550600073ffffffffffffffffffffffffffffffffffffffff168173ffffffffffffffffffffffffffffffffffffffff1614620001985762000197816200025b60201b60201c565b5b505050600073ffffffffffffffffffffffffffffffffffffffff168173ffffffffffffffffffffffffffffffffffffffff160362000202576040517fd92e233d00000000000000000000000000000000000000000000000000000000815260040160405180910390fd5b80600260006101000a81548173ffffffffffffffffffffffffffffffffffffffff021916908373ffffffffffffffffffffffffffffffffffffffff160217905550508160088190555080600a81905550505050620005bb565b3373ffffffffffffffffffffffffffffffffffffffff168173ffffffffffffffffffffffffffffffffffffffff1603620002cc576040517f08c379a0000000000000000000000000000000000000000000000000000000008152600401620002c39062000599565b60405180910390fd5b80600160006101000a81548173ffffffffffffffffffffffffffffffffffffffff021916908373ffffffffffffffffffffffffffffffffffffffff1602179055508073ffffffffffffffffffffffffffffffffffffffff1660008054906101000a900473ffffffffffffffffffffffffffffffffffffffff1673ffffffffffffffffffffffffffffffffffffffff167fed8889f560326eb138920d842192f0eb3dd22b4f139c87a2c57538e05bae127860405160405180910390a350565b600080fd5b600073ffffffffffffffffffffffffffffffffffffffff82169050919050565b6000620003bc826200038f565b9050919050565b620003ce81620003af565b8114620003da57600080fd5b50565b600081519050620003ee81620003c3565b92915050565b6000819050919050565b6200040981620003f4565b81146200041557600080fd5b50565b6000815190506200042981620003fe565b92915050565b6000819050919050565b62000444816200042f565b81146200045057600080fd5b50565b600081519050620004648162000439565b92915050565b6000806000606084860312156200048657620004856200038a565b5b60006200049686828701620003dd565b9350506020620004a98682870162000418565b9250506040620004bc8682870162000453565b9150509250925092565b600082825260208201905092915050565b7f43616e6e6f7420736574206f776e657220746f207a65726f0000000000000000600082015250565b60006200050f601883620004c6565b91506200051c82620004d7565b602082019050919050565b60006020820190508181036000830152620005428162000500565b9050919050565b7f43616e6e6f74207472616e7366657220746f2073656c66000000000000000000600082015250565b600062000581601783620004c6565b91506200058e8262000549565b602082019050919050565b60006020820190508181036000830152620005b48162000572565b9050919050565b6135b280620005cb6000396000f3fe6080604052600436106101815760003560e01c80638da5cb5b116100d1578063b839627e1161008a578063f3dce6ab11610064578063f3dce6ab146105c3578063f4683a87146105df578063f7d4e6d714610608578063fc2a88c31461064557610181565b8063b839627e14610533578063d8a4676f1461055c578063f2fde38b1461059a57610181565b80638da5cb5b1461040e5780638ea981171461043957806395753cfa146104625780639eccacf61461049f578063a168fa89146104ca578063b0a702e21461050857610181565b8063373a3bea1161013e57806363be4f661161011857806363be4f661461035057806379ba5097146103915780637e1dee4d146103a85780638796ba8c146103d157610181565b8063373a3bea146102ab5780634080addc146102e85780635842307e1461032557610181565b80630382a1211461018657806312065fe0146101b157806318692e1d146101dc5780631ab2045e146102195780631e624575146102425780631fe543e314610282575b600080fd5b34801561019257600080fd5b5061019b610670565b6040516101a8919061210c565b60405180910390f35b3480156101bd57600080fd5b506101c661069a565b6040516101d39190612140565b60405180910390f35b3480156101e857600080fd5b5061020360048036038101906101fe91906122e1565b6106a2565b604051610210919061210c565b60405180910390f35b34801561022557600080fd5b50610240600480360381019061023b919061233d565b610706565b005b34801561024e57600080fd5b50610269600480360381019061026491906123b5565b6109d4565b6040516102799493929190612419565b60405180910390f35b34801561028e57600080fd5b506102a960048036038101906102a491906124be565b610aba565b005b3480156102b757600080fd5b506102d260048036038101906102cd919061254a565b610b80565b6040516102df91906125a6565b60405180910390f35b3480156102f457600080fd5b5061030f600480360381019061030a919061254a565b610bc5565b60405161031c9190612640565b60405180910390f35b34801561033157600080fd5b5061033a610c88565b604051610347919061267b565b60405180910390f35b34801561035c57600080fd5b50610377600480360381019061037291906123b5565b610c92565b604051610388959493929190612696565b60405180910390f35b34801561039d57600080fd5b506103a6610d0b565b005b3480156103b457600080fd5b506103cf60048036038101906103ca91906123b5565b610ea0565b005b3480156103dd57600080fd5b506103f860048036038101906103f391906126e9565b610fbf565b6040516104059190612140565b60405180910390f35b34801561041a57600080fd5b50610423610fe3565b604051610430919061210c565b60405180910390f35b34801561044557600080fd5b50610460600480360381019061045b9190612716565b61100c565b005b34801561046e57600080fd5b5061048960048036038101906104849190612716565b6111ed565b6040516104969190612140565b60405180910390f35b3480156104ab57600080fd5b506104b4611205565b6040516104c191906127a2565b60405180910390f35b3480156104d657600080fd5b506104f160048036038101906104ec91906126e9565b61122b565b6040516104ff9291906127bd565b60405180910390f35b34801561051457600080fd5b5061051d611269565b60405161052a91906125a6565b60405180910390f35b34801561053f57600080fd5b5061055a60048036038101906105559190612824565b61127c565b005b34801561056857600080fd5b50610583600480360381019061057e91906126e9565b611486565b60405161059192919061293e565b60405180910390f35b3480156105a657600080fd5b506105c160048036038101906105bc9190612716565b6115b1565b005b6105dd60048036038101906105d891906122e1565b6115c5565b005b3480156105eb57600080fd5b50610606600480360381019061060191906123b5565b6116b0565b005b34801561061457600080fd5b5061062f600480360381019061062a91906123b5565b61182d565b60405161063c91906125a6565b60405180910390f35b34801561065157600080fd5b5061065a61185a565b6040516106679190612140565b60405180910390f35b6000600960009054906101000a900473ffffffffffffffffffffffffffffffffffffffff16905090565b600047905090565b60058280516020810182018051848252602083016020850120818352809550505050505081815481106106d457600080fd5b906000526020600020016000915091509054906101000a900473ffffffffffffffffffffffffffffffffffffffff1681565b600460003373ffffffffffffffffffffffffffffffffffffffff1673ffffffffffffffffffffffffffffffffffffffff1681526020019081526020016000208260405161075391906129aa565b908152602001604051809103902060009054906101000a900460ff16156107af576040517f08c379a00000000000000000000000000000000000000000000000000000000081526004016107a690612a33565b60405180910390fd5b6001600460003373ffffffffffffffffffffffffffffffffffffffff1673ffffffffffffffffffffffffffffffffffffffff168152602001908152602001600020836040516107fe91906129aa565b908152602001604051809103902060006101000a81548160ff02191690831515021790555080600360003373ffffffffffffffffffffffffffffffffffffffff1673ffffffffffffffffffffffffffffffffffffffff1681526020019081526020016000208360405161087191906129aa565b9081526020016040518091039020908161088b9190612c55565b5060058260405161089c91906129aa565b9081526020016040518091039020339080600181540180825580915050600190039060005260206000200160009091909190916101000a81548173ffffffffffffffffffffffffffffffffffffffff021916908373ffffffffffffffffffffffffffffffffffffffff160217905550600760003373ffffffffffffffffffffffffffffffffffffffff1673ffffffffffffffffffffffffffffffffffffffff168152602001908152602001600020600081548092919061095b90612d56565b919050555060068260405161097091906129aa565b9081526020016040518091039020600401600081548092919061099290612d56565b91905055507f158cf1c19d7ed507cc8b72557be4a3ee2193dafdd869fccfff68836a67e8a62433836040516109c8929190612d9e565b60405180910390a15050565b60008060008060006006866040516109ec91906129aa565b90815260200160405180910390206040518060a00160405290816000820160009054906101000a900473ffffffffffffffffffffffffffffffffffffffff1673ffffffffffffffffffffffffffffffffffffffff1673ffffffffffffffffffffffffffffffffffffffff16815260200160018201548152602001600282015481526020016003820160009054906101000a900460ff16151515158152602001600482015481525050905080600001518160200151826040015183606001519450945094509450509193509193565b600260009054906101000a900473ffffffffffffffffffffffffffffffffffffffff1673ffffffffffffffffffffffffffffffffffffffff163373ffffffffffffffffffffffffffffffffffffffff1614610b705733600260009054906101000a900473ffffffffffffffffffffffffffffffffffffffff166040517f1cf993f4000000000000000000000000000000000000000000000000000000008152600401610b67929190612dce565b60405180910390fd5b610b7b838383611860565b505050565b6004602052816000526040600020818051602081018201805184825260208301602085012081835280955050505050506000915091509054906101000a900460ff1681565b600360205281600052604060002081805160208101820180518482526020830160208501208183528095505050505050600091509150508054610c0790612a82565b80601f0160208091040260200160405190810160405280929190818152602001828054610c3390612a82565b8015610c805780601f10610c5557610100808354040283529160200191610c80565b820191906000526020600020905b815481529060010190602001808311610c6357829003601f168201915b505050505081565b6000600a54905090565b6006818051602081018201805184825260208301602085012081835280955050505050506000915090508060000160009054906101000a900473ffffffffffffffffffffffffffffffffffffffff16908060010154908060020154908060030160009054906101000a900460ff16908060040154905085565b600160009054906101000a900473ffffffffffffffffffffffffffffffffffffffff1673ffffffffffffffffffffffffffffffffffffffff163373ffffffffffffffffffffffffffffffffffffffff1614610d9b576040517f08c379a0000000000000000000000000000000000000000000000000000000008152600401610d9290612e43565b60405180910390fd5b60008060009054906101000a900473ffffffffffffffffffffffffffffffffffffffff169050336000806101000a81548173ffffffffffffffffffffffffffffffffffffffff021916908373ffffffffffffffffffffffffffffffffffffffff1602179055506000600160006101000a81548173ffffffffffffffffffffffffffffffffffffffff021916908373ffffffffffffffffffffffffffffffffffffffff1602179055503373ffffffffffffffffffffffffffffffffffffffff168173ffffffffffffffffffffffffffffffffffffffff167f8be0079c531659141344cd1fd0a4f28419497f9722a3daafe3b4186f6b6457e060405160405180910390a350565b6000600682604051610eb291906129aa565b90815260200160405180910390206040518060a00160405290816000820160009054906101000a900473ffffffffffffffffffffffffffffffffffffffff1673ffffffffffffffffffffffffffffffffffffffff1673ffffffffffffffffffffffffffffffffffffffff16815260200160018201548152602001600282015481526020016003820160009054906101000a900460ff161515151581526020016004820154815250509050806060015115610fa1576040517f08c379a0000000000000000000000000000000000000000000000000000000008152600401610f9890612ed5565b60405180910390fd5b42816040015111610fb157600080fd5b610fba82611b13565b505050565b600c8181548110610fcf57600080fd5b906000526020600020016000915090505481565b60008060009054906101000a900473ffffffffffffffffffffffffffffffffffffffff16905090565b611014610fe3565b73ffffffffffffffffffffffffffffffffffffffff163373ffffffffffffffffffffffffffffffffffffffff161415801561109d5750600260009054906101000a900473ffffffffffffffffffffffffffffffffffffffff1673ffffffffffffffffffffffffffffffffffffffff163373ffffffffffffffffffffffffffffffffffffffff1614155b1561110c57336110ab610fe3565b600260009054906101000a900473ffffffffffffffffffffffffffffffffffffffff166040517f061db9c100000000000000000000000000000000000000000000000000000000815260040161110393929190612ef5565b60405180910390fd5b600073ffffffffffffffffffffffffffffffffffffffff168173ffffffffffffffffffffffffffffffffffffffff1603611172576040517fd92e233d00000000000000000000000000000000000000000000000000000000815260040160405180910390fd5b80600260006101000a81548173ffffffffffffffffffffffffffffffffffffffff021916908373ffffffffffffffffffffffffffffffffffffffff1602179055507fd1a6a14209a385a964d036e404cb5cfb71f4000cdb03c9366292430787261be6816040516111e2919061210c565b60405180910390a150565b60076020528060005260406000206000915090505481565b600260009054906101000a900473ffffffffffffffffffffffffffffffffffffffff1681565b60106020528060005260406000206000915090508060000160009054906101000a900460ff16908060000160019054906101000a900460ff16905082565b6000806000905080600854141591505090565b600060068260405161128e91906129aa565b90815260200160405180910390206040518060a00160405290816000820160009054906101000a900473ffffffffffffffffffffffffffffffffffffffff1673ffffffffffffffffffffffffffffffffffffffff1673ffffffffffffffffffffffffffffffffffffffff16815260200160018201548152602001600282015481526020016003820160009054906101000a900460ff161515151581526020016004820154815250509050600081608001511161137f576040517f08c379a000000000000000000000000000000000000000000000000000000000815260040161137690612f78565b60405180910390fd5b8060600151156113c4576040517f08c379a00000000000000000000000000000000000000000000000000000000081526004016113bb90612fe4565b60405180910390fd5b3373ffffffffffffffffffffffffffffffffffffffff16816000015173ffffffffffffffffffffffffffffffffffffffff1614611436576040517f08c379a000000000000000000000000000000000000000000000000000000000815260040161142d90613076565b60405180910390fd5b8273ffffffffffffffffffffffffffffffffffffffff166108fc82602001519081150290604051600060405180830381858888f19350505050158015611480573d6000803e3d6000fd5b50505050565b600060606010600084815260200190815260200160002060000160019054906101000a900460ff166114ed576040517f08c379a00000000000000000000000000000000000000000000000000000000081526004016114e4906130e2565b60405180910390fd5b6000601060008581526020019081526020016000206040518060600160405290816000820160009054906101000a900460ff161515151581526020016000820160019054906101000a900460ff161515151581526020016001820180548060200260200160405190810160405280929190818152602001828054801561159257602002820191906000526020600020905b81548152602001906001019080831161157e575b5050505050815250509050806000015181604001519250925050915091565b6115b9611dc0565b6115c281611e50565b50565b6040518060a001604052803373ffffffffffffffffffffffffffffffffffffffff168152602001348152602001828152602001600015158152602001600081525060068360405161161691906129aa565b908152602001604051809103902060008201518160000160006101000a81548173ffffffffffffffffffffffffffffffffffffffff021916908373ffffffffffffffffffffffffffffffffffffffff160217905550602082015181600101556040820151816002015560608201518160030160006101000a81548160ff021916908315150217905550608082015181600401559050505050565b60006006826040516116c291906129aa565b90815260200160405180910390206040518060a00160405290816000820160009054906101000a900473ffffffffffffffffffffffffffffffffffffffff1673ffffffffffffffffffffffffffffffffffffffff1673ffffffffffffffffffffffffffffffffffffffff16815260200160018201548152602001600282015481526020016003820160009054906101000a900460ff1615151515815260200160048201548152505090503373ffffffffffffffffffffffffffffffffffffffff16816000015173ffffffffffffffffffffffffffffffffffffffff16146117de576040517f08c379a00000000000000000000000000000000000000000000000000000000081526004016117d59061314e565b60405180910390fd5b3373ffffffffffffffffffffffffffffffffffffffff166108fc82602001519081150290604051600060405180830381858888f19350505050158015611828573d6000803e3d6000fd5b505050565b60008060068360405161184091906129aa565b908152602001604051809103902060040154119050919050565b600d5481565b6010600084815260200190815260200160002060000160019054906101000a900460ff166118c3576040517f08c379a00000000000000000000000000000000000000000000000000000000081526004016118ba906130e2565b60405180910390fd5b60016010600085815260200190815260200160002060000160006101000a81548160ff0219169083151502179055508181601060008681526020019081526020016000206001019190611917929190612014565b507ffe2e2d779dba245964d4e3ef9b994be63856fd568bf7d3ca9e224755cb1bd54d83838360405161194b939291906131d8565b60405180910390a16000600f6000858152602001908152602001600020805461197390612a82565b80601f016020809104026020016040519081016040528092919081815260200182805461199f90612a82565b80156119ec5780601f106119c1576101008083540402835291602001916119ec565b820191906000526020600020905b8154815290600101906020018083116119cf57829003601f168201915b505050505090506000600582604051611a0591906129aa565b90815260200160405180910390208054905084846000818110611a2b57611a2a61320a565b5b90506020020135611a3c9190613268565b90506000600583604051611a5091906129aa565b90815260200160405180910390208281548110611a7057611a6f61320a565b5b9060005260206000200160009054906101000a900473ffffffffffffffffffffffffffffffffffffffff1690506000600684604051611aaf91906129aa565b90815260200160405180910390206001015490508173ffffffffffffffffffffffffffffffffffffffff166108fc829081150290604051600060405180830381858888f19350505050158015611b09573d6000803e3d6000fd5b5050505050505050565b6000600260009054906101000a900473ffffffffffffffffffffffffffffffffffffffff1673ffffffffffffffffffffffffffffffffffffffff16639b1c385e6040518060c00160405280600a5481526020016008548152602001600b60049054906101000a900461ffff1661ffff168152602001600b60009054906101000a900463ffffffff1663ffffffff168152602001600b60069054906101000a900463ffffffff1663ffffffff168152602001611bde604051806020016040528060001515815250611f7c565b8152506040518263ffffffff1660e01b8152600401611bfd91906133c2565b6020604051808303816000875af1158015611c1c573d6000803e3d6000fd5b505050506040513d601f19601f82011682018060405250810190611c4091906133f9565b905081600f60008381526020019081526020016000209081611c629190612c55565b506040518060600160405280600015158152602001600115158152602001600067ffffffffffffffff811115611c9b57611c9a61218a565b5b604051908082528060200260200182016040528015611cc95781602001602082028036833780820191505090505b508152506010600083815260200190815260200160002060008201518160000160006101000a81548160ff02191690831515021790555060208201518160000160016101000a81548160ff0219169083151502179055506040820151816001019080519060200190611d3c929190612061565b50905050600c81908060018154018082558091505060019003906000526020600020016000909190919091505580600d819055507fcc58b13ad3eab50626c6a6300b1d139cd6ebb1688a7cced9461c2f7e762665ee81600b60069054906101000a900463ffffffff16604051611db3929190613435565b60405180910390a1919050565b60008054906101000a900473ffffffffffffffffffffffffffffffffffffffff1673ffffffffffffffffffffffffffffffffffffffff163373ffffffffffffffffffffffffffffffffffffffff1614611e4e576040517f08c379a0000000000000000000000000000000000000000000000000000000008152600401611e45906134aa565b60405180910390fd5b565b3373ffffffffffffffffffffffffffffffffffffffff168173ffffffffffffffffffffffffffffffffffffffff1603611ebe576040517f08c379a0000000000000000000000000000000000000000000000000000000008152600401611eb590613516565b60405180910390fd5b80600160006101000a81548173ffffffffffffffffffffffffffffffffffffffff021916908373ffffffffffffffffffffffffffffffffffffffff1602179055508073ffffffffffffffffffffffffffffffffffffffff1660008054906101000a900473ffffffffffffffffffffffffffffffffffffffff1673ffffffffffffffffffffffffffffffffffffffff167fed8889f560326eb138920d842192f0eb3dd22b4f139c87a2c57538e05bae127860405160405180910390a350565b60607f92fd13387c7fe7befbc38d303d6468778fb9731bc4583f17d92989c6fcfdeaaa82604051602401611fb09190613561565b604051602081830303815290604052907bffffffffffffffffffffffffffffffffffffffffffffffffffffffff19166020820180517bffffffffffffffffffffffffffffffffffffffffffffffffffffffff83818316178352505050509050919050565b828054828255906000526020600020908101928215612050579160200282015b8281111561204f578235825591602001919060010190612034565b5b50905061205d91906120ae565b5090565b82805482825590600052602060002090810192821561209d579160200282015b8281111561209c578251825591602001919060010190612081565b5b5090506120aa91906120ae565b5090565b5b808211156120c75760008160009055506001016120af565b5090565b600073ffffffffffffffffffffffffffffffffffffffff82169050919050565b60006120f6826120cb565b9050919050565b612106816120eb565b82525050565b600060208201905061212160008301846120fd565b92915050565b6000819050919050565b61213a81612127565b82525050565b60006020820190506121556000830184612131565b92915050565b6000604051905090565b600080fd5b600080fd5b600080fd5b600080fd5b6000601f19601f8301169050919050565b7f4e487b7100000000000000000000000000000000000000000000000000000000600052604160045260246000fd5b6121c282612179565b810181811067ffffffffffffffff821117156121e1576121e061218a565b5b80604052505050565b60006121f461215b565b905061220082826121b9565b919050565b600067ffffffffffffffff8211156122205761221f61218a565b5b61222982612179565b9050602081019050919050565b82818337600083830152505050565b600061225861225384612205565b6121ea565b90508281526020810184848401111561227457612273612174565b5b61227f848285612236565b509392505050565b600082601f83011261229c5761229b61216f565b5b81356122ac848260208601612245565b91505092915050565b6122be81612127565b81146122c957600080fd5b50565b6000813590506122db816122b5565b92915050565b600080604083850312156122f8576122f7612165565b5b600083013567ffffffffffffffff8111156123165761231561216a565b5b61232285828601612287565b9250506020612333858286016122cc565b9150509250929050565b6000806040838503121561235457612353612165565b5b600083013567ffffffffffffffff8111156123725761237161216a565b5b61237e85828601612287565b925050602083013567ffffffffffffffff81111561239f5761239e61216a565b5b6123ab85828601612287565b9150509250929050565b6000602082840312156123cb576123ca612165565b5b600082013567ffffffffffffffff8111156123e9576123e861216a565b5b6123f584828501612287565b91505092915050565b60008115159050919050565b612413816123fe565b82525050565b600060808201905061242e60008301876120fd565b61243b6020830186612131565b6124486040830185612131565b612455606083018461240a565b95945050505050565b600080fd5b600080fd5b60008083601f84011261247e5761247d61216f565b5b8235905067ffffffffffffffff81111561249b5761249a61245e565b5b6020830191508360208202830111156124b7576124b6612463565b5b9250929050565b6000806000604084860312156124d7576124d6612165565b5b60006124e5868287016122cc565b935050602084013567ffffffffffffffff8111156125065761250561216a565b5b61251286828701612468565b92509250509250925092565b612527816120eb565b811461253257600080fd5b50565b6000813590506125448161251e565b92915050565b6000806040838503121561256157612560612165565b5b600061256f85828601612535565b925050602083013567ffffffffffffffff8111156125905761258f61216a565b5b61259c85828601612287565b9150509250929050565b60006020820190506125bb600083018461240a565b92915050565b600081519050919050565b600082825260208201905092915050565b60005b838110156125fb5780820151818401526020810190506125e0565b60008484015250505050565b6000612612826125c1565b61261c81856125cc565b935061262c8185602086016125dd565b61263581612179565b840191505092915050565b6000602082019050818103600083015261265a8184612607565b905092915050565b6000819050919050565b61267581612662565b82525050565b6000602082019050612690600083018461266c565b92915050565b600060a0820190506126ab60008301886120fd565b6126b86020830187612131565b6126c56040830186612131565b6126d2606083018561240a565b6126df6080830184612131565b9695505050505050565b6000602082840312156126ff576126fe612165565b5b600061270d848285016122cc565b91505092915050565b60006020828403121561272c5761272b612165565b5b600061273a84828501612535565b91505092915050565b6000819050919050565b600061276861276361275e846120cb565b612743565b6120cb565b9050919050565b600061277a8261274d565b9050919050565b600061278c8261276f565b9050919050565b61279c81612781565b82525050565b60006020820190506127b76000830184612793565b92915050565b60006040820190506127d2600083018561240a565b6127df602083018461240a565b9392505050565b60006127f1826120cb565b9050919050565b612801816127e6565b811461280c57600080fd5b50565b60008135905061281e816127f8565b92915050565b6000806040838503121561283b5761283a612165565b5b60006128498582860161280f565b925050602083013567ffffffffffffffff81111561286a5761286961216a565b5b61287685828601612287565b9150509250929050565b600081519050919050565b600082825260208201905092915050565b6000819050602082019050919050565b6128b581612127565b82525050565b60006128c783836128ac565b60208301905092915050565b6000602082019050919050565b60006128eb82612880565b6128f5818561288b565b93506129008361289c565b8060005b8381101561293157815161291888826128bb565b9750612923836128d3565b925050600181019050612904565b5085935050505092915050565b6000604082019050612953600083018561240a565b818103602083015261296581846128e0565b90509392505050565b600081905092915050565b6000612984826125c1565b61298e818561296e565b935061299e8185602086016125dd565b80840191505092915050565b60006129b68284612979565b915081905092915050565b7f616464726573732068617320616c72656164792070726f76696465642066656560008201527f646261636b206f6e206974656d00000000000000000000000000000000000000602082015250565b6000612a1d602d836125cc565b9150612a28826129c1565b604082019050919050565b60006020820190508181036000830152612a4c81612a10565b9050919050565b7f4e487b7100000000000000000000000000000000000000000000000000000000600052602260045260246000fd5b60006002820490506001821680612a9a57607f821691505b602082108103612aad57612aac612a53565b5b50919050565b60008190508160005260206000209050919050565b60006020601f8301049050919050565b600082821b905092915050565b600060088302612b157fffffffffffffffffffffffffffffffffffffffffffffffffffffffffffffffff82612ad8565b612b1f8683612ad8565b95508019841693508086168417925050509392505050565b6000612b52612b4d612b4884612127565b612743565b612127565b9050919050565b6000819050919050565b612b6c83612b37565b612b80612b7882612b59565b848454612ae5565b825550505050565b600090565b612b95612b88565b612ba0818484612b63565b505050565b5b81811015612bc457612bb9600082612b8d565b600181019050612ba6565b5050565b601f821115612c0957612bda81612ab3565b612be384612ac8565b81016020851015612bf2578190505b612c06612bfe85612ac8565b830182612ba5565b50505b505050565b600082821c905092915050565b6000612c2c60001984600802612c0e565b1980831691505092915050565b6000612c458383612c1b565b9150826002028217905092915050565b612c5e826125c1565b67ffffffffffffffff811115612c7757612c7661218a565b5b612c818254612a82565b612c8c828285612bc8565b600060209050601f831160018114612cbf5760008415612cad578287015190505b612cb78582612c39565b865550612d1f565b601f198416612ccd86612ab3565b60005b82811015612cf557848901518255600182019150602085019450602081019050612cd0565b86831015612d125784890151612d0e601f891682612c1b565b8355505b6001600288020188555050505b505050505050565b7f4e487b7100000000000000000000000000000000000000000000000000000000600052601160045260246000fd5b6000612d6182612127565b91507fffffffffffffffffffffffffffffffffffffffffffffffffffffffffffffffff8203612d9357612d92612d27565b5b600182019050919050565b6000604082019050612db360008301856120fd565b8181036020830152612dc58184612607565b90509392505050565b6000604082019050612de360008301856120fd565b612df060208301846120fd565b9392505050565b7f4d7573742062652070726f706f736564206f776e657200000000000000000000600082015250565b6000612e2d6016836125cc565b9150612e3882612df7565b602082019050919050565b60006020820190508181036000830152612e5c81612e20565b9050919050565b7f6974656d20696420646f6573206e6f74206578697374206f72206f776e65722060008201527f697320696e76616c69642e000000000000000000000000000000000000000000602082015250565b6000612ebf602b836125cc565b9150612eca82612e63565b604082019050919050565b60006020820190508181036000830152612eee81612eb2565b9050919050565b6000606082019050612f0a60008301866120fd565b612f1760208301856120fd565b612f2460408301846120fd565b949350505050565b7f6974656d206d757374206861766520666565646261636b000000000000000000600082015250565b6000612f626017836125cc565b9150612f6d82612f2c565b602082019050919050565b60006020820190508181036000830152612f9181612f55565b9050919050565b7f62756e646c6520616c726561647920736574746c656400000000000000000000600082015250565b6000612fce6016836125cc565b9150612fd982612f98565b602082019050919050565b60006020820190508181036000830152612ffd81612fc1565b9050919050565b7f6f6e6c792062756e646c65206f776e65722063616e2073656e6420726577617260008201527f6400000000000000000000000000000000000000000000000000000000000000602082015250565b60006130606021836125cc565b915061306b82613004565b604082019050919050565b6000602082019050818103600083015261308f81613053565b9050919050565b7f72657175657374206e6f7420666f756e64000000000000000000000000000000600082015250565b60006130cc6011836125cc565b91506130d782613096565b602082019050919050565b600060208201905081810360008301526130fb816130bf565b9050919050565b7f6f6e6c79206f776e65722063616e20726566756e642062756e646c652e000000600082015250565b6000613138601d836125cc565b915061314382613102565b602082019050919050565b600060208201905081810360008301526131678161312b565b9050919050565b600080fd5b82818337505050565b6000613188838561288b565b93507f07ffffffffffffffffffffffffffffffffffffffffffffffffffffffffffffff8311156131bb576131ba61316e565b5b6020830292506131cc838584613173565b82840190509392505050565b60006040820190506131ed6000830186612131565b818103602083015261320081848661317c565b9050949350505050565b7f4e487b7100000000000000000000000000000000000000000000000000000000600052603260045260246000fd5b7f4e487b7100000000000000000000000000000000000000000000000000000000600052601260045260246000fd5b600061327382612127565b915061327e83612127565b92508261328e5761328d613239565b5b828206905092915050565b6132a281612662565b82525050565b600061ffff82169050919050565b6132bf816132a8565b82525050565b600063ffffffff82169050919050565b6132de816132c5565b82525050565b600081519050919050565b600082825260208201905092915050565b600061330b826132e4565b61331581856132ef565b93506133258185602086016125dd565b61332e81612179565b840191505092915050565b600060c0830160008301516133516000860182613299565b50602083015161336460208601826128ac565b50604083015161337760408601826132b6565b50606083015161338a60608601826132d5565b50608083015161339d60808601826132d5565b5060a083015184820360a08601526133b58282613300565b9150508091505092915050565b600060208201905081810360008301526133dc8184613339565b905092915050565b6000815190506133f3816122b5565b92915050565b60006020828403121561340f5761340e612165565b5b600061341d848285016133e4565b91505092915050565b61342f816132c5565b82525050565b600060408201905061344a6000830185612131565b6134576020830184613426565b9392505050565b7f4f6e6c792063616c6c61626c65206279206f776e657200000000000000000000600082015250565b60006134946016836125cc565b915061349f8261345e565b602082019050919050565b600060208201905081810360008301526134c381613487565b9050919050565b7f43616e6e6f74207472616e7366657220746f2073656c66000000000000000000600082015250565b60006135006017836125cc565b915061350b826134ca565b602082019050919050565b6000602082019050818103600083015261352f816134f3565b9050919050565b61353f816123fe565b82525050565b60208201600082015161355b6000850182613536565b50505050565b60006020820190506135766000830184613545565b9291505056fea26469706673582212201f02de82080b7351e1cd6d334dcd0427411722118b8dcc6f0520bdffbb07f9c864736f6c63430008140033",
  "linkReferences": {},
  "deployedLinkReferences": {}
}