{
  "_format": "hh-sol-artifact-1",
  "contractName": "Feedback",
  "sourceName": "contracts/project-voting.sol",
  "abi": [
    {
      "inputs": [
        {
          "internalType": "address",
          "name": "_vrfCoordinator",
          "type": "address"
        },
        {
          "internalType": "uint256",
          "name": "_subscriptionId",
          "type": "uint256"
        },
        {
          "internalType": "bytes32",
          "name": "_keyHash",
          "type": "bytes32"
        }
      ],
      "stateMutability": "nonpayable",
      "type": "constructor"
    },
    {
      "inputs": [
        {
          "internalType": "address",
          "name": "have",
          "type": "address"
        },
        {
          "internalType": "address",
          "name": "want",
          "type": "address"
        }
      ],
      "name": "OnlyCoordinatorCanFulfill",
      "type": "error"
    },
    {
      "inputs": [
        {
          "internalType": "address",
          "name": "have",
          "type": "address"
        },
        {
          "internalType": "address",
          "name": "owner",
          "type": "address"
        },
        {
          "internalType": "address",
          "name": "coordinator",
          "type": "address"
        }
      ],
      "name": "OnlyOwnerOrCoordinator",
      "type": "error"
    },
    {
      "inputs": [],
      "name": "ZeroAddress",
      "type": "error"
    },
    {
      "anonymous": false,
      "inputs": [
        {
          "indexed": false,
          "internalType": "address",
          "name": "vrfCoordinator",
          "type": "address"
        }
      ],
      "name": "CoordinatorSet",
      "type": "event"
    },
    {
      "anonymous": false,
      "inputs": [
        {
          "indexed": false,
          "internalType": "address",
          "name": "providerAddress",
          "type": "address"
        },
        {
          "indexed": false,
          "internalType": "string",
          "name": "itemId",
          "type": "string"
        }
      ],
      "name": "FeedbackProvided",
      "type": "event"
    },
    {
      "anonymous": false,
      "inputs": [
        {
          "indexed": true,
          "internalType": "address",
          "name": "from",
          "type": "address"
        },
        {
          "indexed": true,
          "internalType": "address",
          "name": "to",
          "type": "address"
        }
      ],
      "name": "OwnershipTransferRequested",
      "type": "event"
    },
    {
      "anonymous": false,
      "inputs": [
        {
          "indexed": true,
          "internalType": "address",
          "name": "from",
          "type": "address"
        },
        {
          "indexed": true,
          "internalType": "address",
          "name": "to",
          "type": "address"
        }
      ],
      "name": "OwnershipTransferred",
      "type": "event"
    },
    {
      "anonymous": false,
      "inputs": [
        {
          "indexed": false,
          "internalType": "uint256",
          "name": "requestId",
          "type": "uint256"
        },
        {
          "indexed": false,
          "internalType": "uint256[]",
          "name": "randomWords",
          "type": "uint256[]"
        }
      ],
      "name": "RequestFulfilled",
      "type": "event"
    },
    {
      "anonymous": false,
      "inputs": [
        {
          "indexed": false,
          "internalType": "uint256",
          "name": "requestId",
          "type": "uint256"
        },
        {
          "indexed": false,
          "internalType": "uint32",
          "name": "numWords",
          "type": "uint32"
        }
      ],
      "name": "RequestSent",
      "type": "event"
    },
    {
      "anonymous": false,
      "inputs": [
        {
          "indexed": false,
          "internalType": "address",
          "name": "providerAddress",
          "type": "address"
        },
        {
          "indexed": false,
          "internalType": "uint256",
          "name": "amount",
          "type": "uint256"
        }
      ],
      "name": "RewardSettled",
      "type": "event"
    },
    {
      "inputs": [],
      "name": "acceptOwnership",
      "outputs": [],
      "stateMutability": "nonpayable",
      "type": "function"
    },
    {
      "inputs": [
        {
          "internalType": "string",
          "name": "_itemId",
          "type": "string"
        },
        {
          "internalType": "uint256",
          "name": "_rewardBalance",
          "type": "uint256"
        },
        {
          "internalType": "uint256",
          "name": "_settleDeadline",
          "type": "uint256"
        }
      ],
      "name": "addFeedbackBundle",
      "outputs": [],
      "stateMutability": "payable",
      "type": "function"
    },
    {
      "inputs": [
        {
          "internalType": "string",
          "name": "itemId",
          "type": "string"
        }
      ],
      "name": "checkHasFeedback",
      "outputs": [
        {
          "internalType": "bool",
          "name": "",
          "type": "bool"
        }
      ],
      "stateMutability": "view",
      "type": "function"
    },
    {
      "inputs": [
        {
          "internalType": "string",
          "name": "",
          "type": "string"
        }
      ],
      "name": "feedbackBundles",
      "outputs": [
        {
          "internalType": "address",
          "name": "owner",
          "type": "address"
        },
        {
          "internalType": "uint256",
          "name": "rewardBalance",
          "type": "uint256"
        },
        {
          "internalType": "uint256",
          "name": "settleDeadline",
          "type": "uint256"
        },
        {
          "internalType": "bool",
          "name": "isSettled",
          "type": "bool"
        }
      ],
      "stateMutability": "view",
      "type": "function"
    },
    {
      "inputs": [],
      "name": "getBalance",
      "outputs": [
        {
          "internalType": "uint256",
          "name": "",
          "type": "uint256"
        }
      ],
      "stateMutability": "view",
      "type": "function"
    },
    {
      "inputs": [
        {
          "internalType": "string",
          "name": "_itemId",
          "type": "string"
        }
      ],
      "name": "getFeedbackBundle",
      "outputs": [
        {
          "internalType": "address",
          "name": "",
          "type": "address"
        },
        {
          "internalType": "uint256",
          "name": "",
          "type": "uint256"
        },
        {
          "internalType": "uint256",
          "name": "",
          "type": "uint256"
        },
        {
          "internalType": "bool",
          "name": "",
          "type": "bool"
        }
      ],
      "stateMutability": "view",
      "type": "function"
    },
    {
      "inputs": [
        {
          "internalType": "uint256",
          "name": "_requestId",
          "type": "uint256"
        }
      ],
      "name": "getRequestStatus",
      "outputs": [
        {
          "internalType": "bool",
          "name": "fulfilled",
          "type": "bool"
        },
        {
          "internalType": "uint256[]",
          "name": "randomWords",
          "type": "uint256[]"
        }
      ],
      "stateMutability": "view",
      "type": "function"
    },
    {
      "inputs": [
        {
          "internalType": "address",
          "name": "",
          "type": "address"
        },
        {
          "internalType": "string",
          "name": "",
          "type": "string"
        }
      ],
      "name": "hasProvidedFeedback",
      "outputs": [
        {
          "internalType": "bool",
          "name": "",
          "type": "bool"
        }
      ],
      "stateMutability": "view",
      "type": "function"
    },
    {
      "inputs": [
        {
          "internalType": "address",
          "name": "",
          "type": "address"
        },
        {
          "internalType": "string",
          "name": "",
          "type": "string"
        }
      ],
      "name": "itemFeedback",
      "outputs": [
        {
          "internalType": "string",
          "name": "",
          "type": "string"
        }
      ],
      "stateMutability": "view",
      "type": "function"
    },
    {
      "inputs": [
        {
          "internalType": "string",
          "name": "",
          "type": "string"
        },
        {
          "internalType": "uint256",
          "name": "",
          "type": "uint256"
        }
      ],
      "name": "itemFeedbackProviders",
      "outputs": [
        {
          "internalType": "address",
          "name": "",
          "type": "address"
        }
      ],
      "stateMutability": "view",
      "type": "function"
    },
    {
      "inputs": [],
      "name": "keyHashSet",
      "outputs": [
        {
          "internalType": "bytes32",
          "name": "",
          "type": "bytes32"
        }
      ],
      "stateMutability": "view",
      "type": "function"
    },
    {
      "inputs": [],
      "name": "lastRequestId",
      "outputs": [
        {
          "internalType": "uint256",
          "name": "",
          "type": "uint256"
        }
      ],
      "stateMutability": "view",
      "type": "function"
    },
    {
      "inputs": [],
      "name": "owner",
      "outputs": [
        {
          "internalType": "address",
          "name": "",
          "type": "address"
        }
      ],
      "stateMutability": "view",
      "type": "function"
    },
    {
      "inputs": [
        {
          "internalType": "string",
          "name": "itemId",
          "type": "string"
        },
        {
          "internalType": "string",
          "name": "feedbackId",
          "type": "string"
        }
      ],
      "name": "provideFeedback",
      "outputs": [],
      "stateMutability": "nonpayable",
      "type": "function"
    },
    {
      "inputs": [
        {
          "internalType": "uint256",
          "name": "requestId",
          "type": "uint256"
        },
        {
          "internalType": "uint256[]",
          "name": "randomWords",
          "type": "uint256[]"
        }
      ],
      "name": "rawFulfillRandomWords",
      "outputs": [],
      "stateMutability": "nonpayable",
      "type": "function"
    },
    {
      "inputs": [
        {
          "internalType": "uint256",
          "name": "",
          "type": "uint256"
        }
      ],
      "name": "requestIds",
      "outputs": [
        {
          "internalType": "uint256",
          "name": "",
          "type": "uint256"
        }
      ],
      "stateMutability": "view",
      "type": "function"
    },
    {
      "inputs": [
        {
          "internalType": "uint256",
          "name": "",
          "type": "uint256"
        }
      ],
      "name": "s_requests",
      "outputs": [
        {
          "internalType": "bool",
          "name": "fulfilled",
          "type": "bool"
        },
        {
          "internalType": "bool",
          "name": "exists",
          "type": "bool"
        }
      ],
      "stateMutability": "view",
      "type": "function"
    },
    {
      "inputs": [],
      "name": "s_vrfCoordinator",
      "outputs": [
        {
          "internalType": "contract IVRFCoordinatorV2Plus",
          "name": "",
          "type": "address"
        }
      ],
      "stateMutability": "view",
      "type": "function"
    },
    {
      "inputs": [
        {
          "internalType": "address",
          "name": "_vrfCoordinator",
          "type": "address"
        }
      ],
      "name": "setCoordinator",
      "outputs": [],
      "stateMutability": "nonpayable",
      "type": "function"
    },
    {
      "inputs": [
        {
          "internalType": "address payable",
          "name": "providerAddress",
          "type": "address"
        },
        {
          "internalType": "string",
          "name": "itemId",
          "type": "string"
        }
      ],
      "name": "settleReward",
      "outputs": [],
      "stateMutability": "nonpayable",
      "type": "function"
    },
    {
      "inputs": [
        {
          "internalType": "string",
          "name": "itemId",
          "type": "string"
        }
      ],
      "name": "settleRewardRandomly",
      "outputs": [],
      "stateMutability": "nonpayable",
      "type": "function"
    },
    {
      "inputs": [],
      "name": "subscriptionSet",
      "outputs": [
        {
          "internalType": "bool",
          "name": "",
          "type": "bool"
        }
      ],
      "stateMutability": "view",
      "type": "function"
    },
    {
      "inputs": [
        {
          "internalType": "address",
          "name": "to",
          "type": "address"
        }
      ],
      "name": "transferOwnership",
      "outputs": [],
      "stateMutability": "nonpayable",
      "type": "function"
    },
    {
      "inputs": [],
      "name": "vrfCoordinatorSet",
      "outputs": [
        {
          "internalType": "address",
          "name": "",
          "type": "address"
        }
      ],
      "stateMutability": "view",
      "type": "function"
    }
  ],
  "bytecode": "0x6080604052620186a0600a60006101000a81548163ffffffff021916908363ffffffff1602179055506003600a60046101000a81548161ffff021916908361ffff1602179055506001600a60066101000a81548163ffffffff021916908363ffffffff1602179055503480156200007557600080fd5b506040516200375c3803806200375c83398181016040528101906200009b91906200046a565b82338060008073ffffffffffffffffffffffffffffffffffffffff168273ffffffffffffffffffffffffffffffffffffffff160362000111576040517f08c379a0000000000000000000000000000000000000000000000000000000008152600401620001089062000527565b60405180910390fd5b816000806101000a81548173ffffffffffffffffffffffffffffffffffffffff021916908373ffffffffffffffffffffffffffffffffffffffff160217905550600073ffffffffffffffffffffffffffffffffffffffff168173ffffffffffffffffffffffffffffffffffffffff1614620001985762000197816200025b60201b60201c565b5b505050600073ffffffffffffffffffffffffffffffffffffffff168173ffffffffffffffffffffffffffffffffffffffff160362000202576040517fd92e233d00000000000000000000000000000000000000000000000000000000815260040160405180910390fd5b80600260006101000a81548173ffffffffffffffffffffffffffffffffffffffff021916908373ffffffffffffffffffffffffffffffffffffffff160217905550508160078190555080600981905550505050620005bb565b3373ffffffffffffffffffffffffffffffffffffffff168173ffffffffffffffffffffffffffffffffffffffff1603620002cc576040517f08c379a0000000000000000000000000000000000000000000000000000000008152600401620002c39062000599565b60405180910390fd5b80600160006101000a81548173ffffffffffffffffffffffffffffffffffffffff021916908373ffffffffffffffffffffffffffffffffffffffff1602179055508073ffffffffffffffffffffffffffffffffffffffff1660008054906101000a900473ffffffffffffffffffffffffffffffffffffffff1673ffffffffffffffffffffffffffffffffffffffff167fed8889f560326eb138920d842192f0eb3dd22b4f139c87a2c57538e05bae127860405160405180910390a350565b600080fd5b600073ffffffffffffffffffffffffffffffffffffffff82169050919050565b6000620003bc826200038f565b9050919050565b620003ce81620003af565b8114620003da57600080fd5b50565b600081519050620003ee81620003c3565b92915050565b6000819050919050565b6200040981620003f4565b81146200041557600080fd5b50565b6000815190506200042981620003fe565b92915050565b6000819050919050565b62000444816200042f565b81146200045057600080fd5b50565b600081519050620004648162000439565b92915050565b6000806000606084860312156200048657620004856200038a565b5b60006200049686828701620003dd565b9350506020620004a98682870162000418565b9250506040620004bc8682870162000453565b9150509250925092565b600082825260208201905092915050565b7f43616e6e6f7420736574206f776e657220746f207a65726f0000000000000000600082015250565b60006200050f601883620004c6565b91506200051c82620004d7565b602082019050919050565b60006020820190508181036000830152620005428162000500565b9050919050565b7f43616e6e6f74207472616e7366657220746f2073656c66000000000000000000600082015250565b600062000581601783620004c6565b91506200058e8262000549565b602082019050919050565b60006020820190508181036000830152620005b48162000572565b9050919050565b61319180620005cb6000396000f3fe60806040526004361061014b5760003560e01c806379ba5097116100b6578063a0911bc11161006f578063a0911bc11461049b578063a168fa89146104d8578063b0a702e214610516578063d8a4676f14610541578063f2fde38b1461057f578063fc2a88c3146105a85761014b565b806379ba50971461039f5780637e1dee4d146103b65780638796ba8c146103df5780638da5cb5b1461041c5780638ea98117146104475780639eccacf6146104705761014b565b80631fe543e3116101085780631fe543e314610275578063373a3bea1461029e5780634080addc146102db5780635842307e1461031857806363be4f661461034357806367e3c68c146103835761014b565b80630382a1211461015057806312065fe01461017b57806318692e1d146101a65780631ab2045e146101e35780631ab333711461020c5780631e62457514610235575b600080fd5b34801561015c57600080fd5b506101656105d3565b6040516101729190611e1e565b60405180910390f35b34801561018757600080fd5b506101906105fd565b60405161019d9190611e52565b60405180910390f35b3480156101b257600080fd5b506101cd60048036038101906101c89190611ff3565b610605565b6040516101da9190611e1e565b60405180910390f35b3480156101ef57600080fd5b5061020a6004803603810190610205919061204f565b610669565b005b34801561021857600080fd5b50610233600480360381019061022e9190612105565b6108ab565b005b34801561024157600080fd5b5061025c60048036038101906102579190612161565b610a6a565b60405161026c94939291906121c5565b60405180910390f35b34801561028157600080fd5b5061029c6004803603810190610297919061226a565b610b46565b005b3480156102aa57600080fd5b506102c560048036038101906102c091906122f6565b610c0c565b6040516102d29190612352565b60405180910390f35b3480156102e757600080fd5b5061030260048036038101906102fd91906122f6565b610c51565b60405161030f91906123ec565b60405180910390f35b34801561032457600080fd5b5061032d610d14565b60405161033a9190612427565b60405180910390f35b34801561034f57600080fd5b5061036a60048036038101906103659190612161565b610d1e565b60405161037a94939291906121c5565b60405180910390f35b61039d60048036038101906103989190612442565b610d91565b005b3480156103ab57600080fd5b506103b4610e6c565b005b3480156103c257600080fd5b506103dd60048036038101906103d89190612161565b611001565b005b3480156103eb57600080fd5b50610406600480360381019061040191906124b1565b611116565b6040516104139190611e52565b60405180910390f35b34801561042857600080fd5b5061043161113a565b60405161043e9190611e1e565b60405180910390f35b34801561045357600080fd5b5061046e600480360381019061046991906124de565b611163565b005b34801561047c57600080fd5b50610485611344565b604051610492919061256a565b60405180910390f35b3480156104a757600080fd5b506104c260048036038101906104bd9190612161565b61136a565b6040516104cf9190612352565b60405180910390f35b3480156104e457600080fd5b506104ff60048036038101906104fa91906124b1565b6113dc565b60405161050d929190612585565b60405180910390f35b34801561052257600080fd5b5061052b61141a565b6040516105389190612352565b60405180910390f35b34801561054d57600080fd5b50610568600480360381019061056391906124b1565b61142d565b60405161057692919061266c565b60405180910390f35b34801561058b57600080fd5b506105a660048036038101906105a191906124de565b611558565b005b3480156105b457600080fd5b506105bd61156c565b6040516105ca9190611e52565b60405180910390f35b6000600860009054906101000a900473ffffffffffffffffffffffffffffffffffffffff16905090565b600047905090565b600582805160208101820180518482526020830160208501208183528095505050505050818154811061063757600080fd5b906000526020600020016000915091509054906101000a900473ffffffffffffffffffffffffffffffffffffffff1681565b600460003373ffffffffffffffffffffffffffffffffffffffff1673ffffffffffffffffffffffffffffffffffffffff168152602001908152602001600020826040516106b691906126d8565b908152602001604051809103902060009054906101000a900460ff1615610712576040517f08c379a000000000000000000000000000000000000000000000000000000000815260040161070990612761565b60405180910390fd5b6001600460003373ffffffffffffffffffffffffffffffffffffffff1673ffffffffffffffffffffffffffffffffffffffff1681526020019081526020016000208360405161076191906126d8565b908152602001604051809103902060006101000a81548160ff02191690831515021790555080600360003373ffffffffffffffffffffffffffffffffffffffff1673ffffffffffffffffffffffffffffffffffffffff168152602001908152602001600020836040516107d491906126d8565b908152602001604051809103902090816107ee9190612983565b506005826040516107ff91906126d8565b9081526020016040518091039020339080600181540180825580915050600190039060005260206000200160009091909190916101000a81548173ffffffffffffffffffffffffffffffffffffffff021916908373ffffffffffffffffffffffffffffffffffffffff1602179055507f158cf1c19d7ed507cc8b72557be4a3ee2193dafdd869fccfff68836a67e8a624338360405161089f929190612a55565b60405180910390a15050565b60006006826040516108bd91906126d8565b90815260200160405180910390206040518060800160405290816000820160009054906101000a900473ffffffffffffffffffffffffffffffffffffffff1673ffffffffffffffffffffffffffffffffffffffff1673ffffffffffffffffffffffffffffffffffffffff16815260200160018201548152602001600282015481526020016003820160009054906101000a900460ff16151515158152505090508060600151156109a2576040517f08c379a000000000000000000000000000000000000000000000000000000000815260040161099990612ad1565b60405180910390fd5b3373ffffffffffffffffffffffffffffffffffffffff16816000015173ffffffffffffffffffffffffffffffffffffffff1614610a14576040517f08c379a0000000000000000000000000000000000000000000000000000000008152600401610a0b90612b63565b60405180910390fd5b6000816020015190508373ffffffffffffffffffffffffffffffffffffffff166108fc829081150290604051600060405180830381858888f19350505050158015610a63573d6000803e3d6000fd5b5050505050565b6000806000806000600686604051610a8291906126d8565b90815260200160405180910390206040518060800160405290816000820160009054906101000a900473ffffffffffffffffffffffffffffffffffffffff1673ffffffffffffffffffffffffffffffffffffffff1673ffffffffffffffffffffffffffffffffffffffff16815260200160018201548152602001600282015481526020016003820160009054906101000a900460ff161515151581525050905080600001518160200151826040015183606001519450945094509450509193509193565b600260009054906101000a900473ffffffffffffffffffffffffffffffffffffffff1673ffffffffffffffffffffffffffffffffffffffff163373ffffffffffffffffffffffffffffffffffffffff1614610bfc5733600260009054906101000a900473ffffffffffffffffffffffffffffffffffffffff166040517f1cf993f4000000000000000000000000000000000000000000000000000000008152600401610bf3929190612b83565b60405180910390fd5b610c07838383611572565b505050565b6004602052816000526040600020818051602081018201805184825260208301602085012081835280955050505050506000915091509054906101000a900460ff1681565b600360205281600052604060002081805160208101820180518482526020830160208501208183528095505050505050600091509150508054610c93906127b0565b80601f0160208091040260200160405190810160405280929190818152602001828054610cbf906127b0565b8015610d0c5780601f10610ce157610100808354040283529160200191610d0c565b820191906000526020600020905b815481529060010190602001808311610cef57829003601f168201915b505050505081565b6000600954905090565b6006818051602081018201805184825260208301602085012081835280955050505050506000915090508060000160009054906101000a900473ffffffffffffffffffffffffffffffffffffffff16908060010154908060020154908060030160009054906101000a900460ff16905084565b60405180608001604052803373ffffffffffffffffffffffffffffffffffffffff16815260200183815260200182815260200160001515815250600684604051610ddb91906126d8565b908152602001604051809103902060008201518160000160006101000a81548173ffffffffffffffffffffffffffffffffffffffff021916908373ffffffffffffffffffffffffffffffffffffffff160217905550602082015181600101556040820151816002015560608201518160030160006101000a81548160ff021916908315150217905550905050505050565b600160009054906101000a900473ffffffffffffffffffffffffffffffffffffffff1673ffffffffffffffffffffffffffffffffffffffff163373ffffffffffffffffffffffffffffffffffffffff1614610efc576040517f08c379a0000000000000000000000000000000000000000000000000000000008152600401610ef390612bf8565b60405180910390fd5b60008060009054906101000a900473ffffffffffffffffffffffffffffffffffffffff169050336000806101000a81548173ffffffffffffffffffffffffffffffffffffffff021916908373ffffffffffffffffffffffffffffffffffffffff1602179055506000600160006101000a81548173ffffffffffffffffffffffffffffffffffffffff021916908373ffffffffffffffffffffffffffffffffffffffff1602179055503373ffffffffffffffffffffffffffffffffffffffff168173ffffffffffffffffffffffffffffffffffffffff167f8be0079c531659141344cd1fd0a4f28419497f9722a3daafe3b4186f6b6457e060405160405180910390a350565b600060068260405161101391906126d8565b90815260200160405180910390206040518060800160405290816000820160009054906101000a900473ffffffffffffffffffffffffffffffffffffffff1673ffffffffffffffffffffffffffffffffffffffff1673ffffffffffffffffffffffffffffffffffffffff16815260200160018201548152602001600282015481526020016003820160009054906101000a900460ff16151515158152505090508060600151156110f8576040517f08c379a00000000000000000000000000000000000000000000000000000000081526004016110ef90612c8a565b60405180910390fd5b4281604001511161110857600080fd5b61111182611825565b505050565b600b818154811061112657600080fd5b906000526020600020016000915090505481565b60008060009054906101000a900473ffffffffffffffffffffffffffffffffffffffff16905090565b61116b61113a565b73ffffffffffffffffffffffffffffffffffffffff163373ffffffffffffffffffffffffffffffffffffffff16141580156111f45750600260009054906101000a900473ffffffffffffffffffffffffffffffffffffffff1673ffffffffffffffffffffffffffffffffffffffff163373ffffffffffffffffffffffffffffffffffffffff1614155b15611263573361120261113a565b600260009054906101000a900473ffffffffffffffffffffffffffffffffffffffff166040517f061db9c100000000000000000000000000000000000000000000000000000000815260040161125a93929190612caa565b60405180910390fd5b600073ffffffffffffffffffffffffffffffffffffffff168173ffffffffffffffffffffffffffffffffffffffff16036112c9576040517fd92e233d00000000000000000000000000000000000000000000000000000000815260040160405180910390fd5b80600260006101000a81548173ffffffffffffffffffffffffffffffffffffffff021916908373ffffffffffffffffffffffffffffffffffffffff1602179055507fd1a6a14209a385a964d036e404cb5cfb71f4000cdb03c9366292430787261be6816040516113399190611e1e565b60405180910390a150565b600260009054906101000a900473ffffffffffffffffffffffffffffffffffffffff1681565b6000600460003373ffffffffffffffffffffffffffffffffffffffff1673ffffffffffffffffffffffffffffffffffffffff168152602001908152602001600020826040516113b991906126d8565b908152602001604051809103902060009054906101000a900460ff169050919050565b600f6020528060005260406000206000915090508060000160009054906101000a900460ff16908060000160019054906101000a900460ff16905082565b6000806000905080600754141591505090565b60006060600f600084815260200190815260200160002060000160019054906101000a900460ff16611494576040517f08c379a000000000000000000000000000000000000000000000000000000000815260040161148b90612d2d565b60405180910390fd5b6000600f60008581526020019081526020016000206040518060600160405290816000820160009054906101000a900460ff161515151581526020016000820160019054906101000a900460ff161515151581526020016001820180548060200260200160405190810160405280929190818152602001828054801561153957602002820191906000526020600020905b815481526020019060010190808311611525575b5050505050815250509050806000015181604001519250925050915091565b611560611ad2565b61156981611b62565b50565b600c5481565b600f600084815260200190815260200160002060000160019054906101000a900460ff166115d5576040517f08c379a00000000000000000000000000000000000000000000000000000000081526004016115cc90612d2d565b60405180910390fd5b6001600f600085815260200190815260200160002060000160006101000a81548160ff0219169083151502179055508181600f60008681526020019081526020016000206001019190611629929190611d26565b507ffe2e2d779dba245964d4e3ef9b994be63856fd568bf7d3ca9e224755cb1bd54d83838360405161165d93929190612db7565b60405180910390a16000600e60008581526020019081526020016000208054611685906127b0565b80601f01602080910402602001604051908101604052809291908181526020018280546116b1906127b0565b80156116fe5780601f106116d3576101008083540402835291602001916116fe565b820191906000526020600020905b8154815290600101906020018083116116e157829003601f168201915b50505050509050600060058260405161171791906126d8565b9081526020016040518091039020805490508484600081811061173d5761173c612de9565b5b9050602002013561174e9190612e47565b9050600060058360405161176291906126d8565b9081526020016040518091039020828154811061178257611781612de9565b5b9060005260206000200160009054906101000a900473ffffffffffffffffffffffffffffffffffffffff16905060006006846040516117c191906126d8565b90815260200160405180910390206001015490508173ffffffffffffffffffffffffffffffffffffffff166108fc829081150290604051600060405180830381858888f1935050505015801561181b573d6000803e3d6000fd5b5050505050505050565b6000600260009054906101000a900473ffffffffffffffffffffffffffffffffffffffff1673ffffffffffffffffffffffffffffffffffffffff16639b1c385e6040518060c0016040528060095481526020016007548152602001600a60049054906101000a900461ffff1661ffff168152602001600a60009054906101000a900463ffffffff1663ffffffff168152602001600a60069054906101000a900463ffffffff1663ffffffff1681526020016118f0604051806020016040528060001515815250611c8e565b8152506040518263ffffffff1660e01b815260040161190f9190612fa1565b6020604051808303816000875af115801561192e573d6000803e3d6000fd5b505050506040513d601f19601f820116820180604052508101906119529190612fd8565b905081600e600083815260200190815260200160002090816119749190612983565b506040518060600160405280600015158152602001600115158152602001600067ffffffffffffffff8111156119ad576119ac611e9c565b5b6040519080825280602002602001820160405280156119db5781602001602082028036833780820191505090505b50815250600f600083815260200190815260200160002060008201518160000160006101000a81548160ff02191690831515021790555060208201518160000160016101000a81548160ff0219169083151502179055506040820151816001019080519060200190611a4e929190611d73565b50905050600b81908060018154018082558091505060019003906000526020600020016000909190919091505580600c819055507fcc58b13ad3eab50626c6a6300b1d139cd6ebb1688a7cced9461c2f7e762665ee81600a60069054906101000a900463ffffffff16604051611ac5929190613014565b60405180910390a1919050565b60008054906101000a900473ffffffffffffffffffffffffffffffffffffffff1673ffffffffffffffffffffffffffffffffffffffff163373ffffffffffffffffffffffffffffffffffffffff1614611b60576040517f08c379a0000000000000000000000000000000000000000000000000000000008152600401611b5790613089565b60405180910390fd5b565b3373ffffffffffffffffffffffffffffffffffffffff168173ffffffffffffffffffffffffffffffffffffffff1603611bd0576040517f08c379a0000000000000000000000000000000000000000000000000000000008152600401611bc7906130f5565b60405180910390fd5b80600160006101000a81548173ffffffffffffffffffffffffffffffffffffffff021916908373ffffffffffffffffffffffffffffffffffffffff1602179055508073ffffffffffffffffffffffffffffffffffffffff1660008054906101000a900473ffffffffffffffffffffffffffffffffffffffff1673ffffffffffffffffffffffffffffffffffffffff167fed8889f560326eb138920d842192f0eb3dd22b4f139c87a2c57538e05bae127860405160405180910390a350565b60607f92fd13387c7fe7befbc38d303d6468778fb9731bc4583f17d92989c6fcfdeaaa82604051602401611cc29190613140565b604051602081830303815290604052907bffffffffffffffffffffffffffffffffffffffffffffffffffffffff19166020820180517bffffffffffffffffffffffffffffffffffffffffffffffffffffffff83818316178352505050509050919050565b828054828255906000526020600020908101928215611d62579160200282015b82811115611d61578235825591602001919060010190611d46565b5b509050611d6f9190611dc0565b5090565b828054828255906000526020600020908101928215611daf579160200282015b82811115611dae578251825591602001919060010190611d93565b5b509050611dbc9190611dc0565b5090565b5b80821115611dd9576000816000905550600101611dc1565b5090565b600073ffffffffffffffffffffffffffffffffffffffff82169050919050565b6000611e0882611ddd565b9050919050565b611e1881611dfd565b82525050565b6000602082019050611e336000830184611e0f565b92915050565b6000819050919050565b611e4c81611e39565b82525050565b6000602082019050611e676000830184611e43565b92915050565b6000604051905090565b600080fd5b600080fd5b600080fd5b600080fd5b6000601f19601f8301169050919050565b7f4e487b7100000000000000000000000000000000000000000000000000000000600052604160045260246000fd5b611ed482611e8b565b810181811067ffffffffffffffff82111715611ef357611ef2611e9c565b5b80604052505050565b6000611f06611e6d565b9050611f128282611ecb565b919050565b600067ffffffffffffffff821115611f3257611f31611e9c565b5b611f3b82611e8b565b9050602081019050919050565b82818337600083830152505050565b6000611f6a611f6584611f17565b611efc565b905082815260208101848484011115611f8657611f85611e86565b5b611f91848285611f48565b509392505050565b600082601f830112611fae57611fad611e81565b5b8135611fbe848260208601611f57565b91505092915050565b611fd081611e39565b8114611fdb57600080fd5b50565b600081359050611fed81611fc7565b92915050565b6000806040838503121561200a57612009611e77565b5b600083013567ffffffffffffffff81111561202857612027611e7c565b5b61203485828601611f99565b925050602061204585828601611fde565b9150509250929050565b6000806040838503121561206657612065611e77565b5b600083013567ffffffffffffffff81111561208457612083611e7c565b5b61209085828601611f99565b925050602083013567ffffffffffffffff8111156120b1576120b0611e7c565b5b6120bd85828601611f99565b9150509250929050565b60006120d282611ddd565b9050919050565b6120e2816120c7565b81146120ed57600080fd5b50565b6000813590506120ff816120d9565b92915050565b6000806040838503121561211c5761211b611e77565b5b600061212a858286016120f0565b925050602083013567ffffffffffffffff81111561214b5761214a611e7c565b5b61215785828601611f99565b9150509250929050565b60006020828403121561217757612176611e77565b5b600082013567ffffffffffffffff81111561219557612194611e7c565b5b6121a184828501611f99565b91505092915050565b60008115159050919050565b6121bf816121aa565b82525050565b60006080820190506121da6000830187611e0f565b6121e76020830186611e43565b6121f46040830185611e43565b61220160608301846121b6565b95945050505050565b600080fd5b600080fd5b60008083601f84011261222a57612229611e81565b5b8235905067ffffffffffffffff8111156122475761224661220a565b5b6020830191508360208202830111156122635761226261220f565b5b9250929050565b60008060006040848603121561228357612282611e77565b5b600061229186828701611fde565b935050602084013567ffffffffffffffff8111156122b2576122b1611e7c565b5b6122be86828701612214565b92509250509250925092565b6122d381611dfd565b81146122de57600080fd5b50565b6000813590506122f0816122ca565b92915050565b6000806040838503121561230d5761230c611e77565b5b600061231b858286016122e1565b925050602083013567ffffffffffffffff81111561233c5761233b611e7c565b5b61234885828601611f99565b9150509250929050565b600060208201905061236760008301846121b6565b92915050565b600081519050919050565b600082825260208201905092915050565b60005b838110156123a757808201518184015260208101905061238c565b60008484015250505050565b60006123be8261236d565b6123c88185612378565b93506123d8818560208601612389565b6123e181611e8b565b840191505092915050565b6000602082019050818103600083015261240681846123b3565b905092915050565b6000819050919050565b6124218161240e565b82525050565b600060208201905061243c6000830184612418565b92915050565b60008060006060848603121561245b5761245a611e77565b5b600084013567ffffffffffffffff81111561247957612478611e7c565b5b61248586828701611f99565b935050602061249686828701611fde565b92505060406124a786828701611fde565b9150509250925092565b6000602082840312156124c7576124c6611e77565b5b60006124d584828501611fde565b91505092915050565b6000602082840312156124f4576124f3611e77565b5b6000612502848285016122e1565b91505092915050565b6000819050919050565b600061253061252b61252684611ddd565b61250b565b611ddd565b9050919050565b600061254282612515565b9050919050565b600061255482612537565b9050919050565b61256481612549565b82525050565b600060208201905061257f600083018461255b565b92915050565b600060408201905061259a60008301856121b6565b6125a760208301846121b6565b9392505050565b600081519050919050565b600082825260208201905092915050565b6000819050602082019050919050565b6125e381611e39565b82525050565b60006125f583836125da565b60208301905092915050565b6000602082019050919050565b6000612619826125ae565b61262381856125b9565b935061262e836125ca565b8060005b8381101561265f57815161264688826125e9565b975061265183612601565b925050600181019050612632565b5085935050505092915050565b600060408201905061268160008301856121b6565b8181036020830152612693818461260e565b90509392505050565b600081905092915050565b60006126b28261236d565b6126bc818561269c565b93506126cc818560208601612389565b80840191505092915050565b60006126e482846126a7565b915081905092915050565b7f616464726573732068617320616c72656164792070726f76696465642066656560008201527f646261636b206f6e206974656d00000000000000000000000000000000000000602082015250565b600061274b602d83612378565b9150612756826126ef565b604082019050919050565b6000602082019050818103600083015261277a8161273e565b9050919050565b7f4e487b7100000000000000000000000000000000000000000000000000000000600052602260045260246000fd5b600060028204905060018216806127c857607f821691505b6020821081036127db576127da612781565b5b50919050565b60008190508160005260206000209050919050565b60006020601f8301049050919050565b600082821b905092915050565b6000600883026128437fffffffffffffffffffffffffffffffffffffffffffffffffffffffffffffffff82612806565b61284d8683612806565b95508019841693508086168417925050509392505050565b600061288061287b61287684611e39565b61250b565b611e39565b9050919050565b6000819050919050565b61289a83612865565b6128ae6128a682612887565b848454612813565b825550505050565b600090565b6128c36128b6565b6128ce818484612891565b505050565b5b818110156128f2576128e76000826128bb565b6001810190506128d4565b5050565b601f82111561293757612908816127e1565b612911846127f6565b81016020851015612920578190505b61293461292c856127f6565b8301826128d3565b50505b505050565b600082821c905092915050565b600061295a6000198460080261293c565b1980831691505092915050565b60006129738383612949565b9150826002028217905092915050565b61298c8261236d565b67ffffffffffffffff8111156129a5576129a4611e9c565b5b6129af82546127b0565b6129ba8282856128f6565b600060209050601f8311600181146129ed57600084156129db578287015190505b6129e58582612967565b865550612a4d565b601f1984166129fb866127e1565b60005b82811015612a23578489015182556001820191506020850194506020810190506129fe565b86831015612a405784890151612a3c601f891682612949565b8355505b6001600288020188555050505b505050505050565b6000604082019050612a6a6000830185611e0f565b8181036020830152612a7c81846123b3565b90509392505050565b7f62756e646c6520616c726561647920736574746c656400000000000000000000600082015250565b6000612abb601683612378565b9150612ac682612a85565b602082019050919050565b60006020820190508181036000830152612aea81612aae565b9050919050565b7f6f6e6c792062756e646c65206f776e65722063616e2073656e6420726577617260008201527f6400000000000000000000000000000000000000000000000000000000000000602082015250565b6000612b4d602183612378565b9150612b5882612af1565b604082019050919050565b60006020820190508181036000830152612b7c81612b40565b9050919050565b6000604082019050612b986000830185611e0f565b612ba56020830184611e0f565b9392505050565b7f4d7573742062652070726f706f736564206f776e657200000000000000000000600082015250565b6000612be2601683612378565b9150612bed82612bac565b602082019050919050565b60006020820190508181036000830152612c1181612bd5565b9050919050565b7f6974656d20696420646f6573206e6f74206578697374206f72206f776e65722060008201527f697320696e76616c69642e000000000000000000000000000000000000000000602082015250565b6000612c74602b83612378565b9150612c7f82612c18565b604082019050919050565b60006020820190508181036000830152612ca381612c67565b9050919050565b6000606082019050612cbf6000830186611e0f565b612ccc6020830185611e0f565b612cd96040830184611e0f565b949350505050565b7f72657175657374206e6f7420666f756e64000000000000000000000000000000600082015250565b6000612d17601183612378565b9150612d2282612ce1565b602082019050919050565b60006020820190508181036000830152612d4681612d0a565b9050919050565b600080fd5b82818337505050565b6000612d6783856125b9565b93507f07ffffffffffffffffffffffffffffffffffffffffffffffffffffffffffffff831115612d9a57612d99612d4d565b5b602083029250612dab838584612d52565b82840190509392505050565b6000604082019050612dcc6000830186611e43565b8181036020830152612ddf818486612d5b565b9050949350505050565b7f4e487b7100000000000000000000000000000000000000000000000000000000600052603260045260246000fd5b7f4e487b7100000000000000000000000000000000000000000000000000000000600052601260045260246000fd5b6000612e5282611e39565b9150612e5d83611e39565b925082612e6d57612e6c612e18565b5b828206905092915050565b612e818161240e565b82525050565b600061ffff82169050919050565b612e9e81612e87565b82525050565b600063ffffffff82169050919050565b612ebd81612ea4565b82525050565b600081519050919050565b600082825260208201905092915050565b6000612eea82612ec3565b612ef48185612ece565b9350612f04818560208601612389565b612f0d81611e8b565b840191505092915050565b600060c083016000830151612f306000860182612e78565b506020830151612f4360208601826125da565b506040830151612f566040860182612e95565b506060830151612f696060860182612eb4565b506080830151612f7c6080860182612eb4565b5060a083015184820360a0860152612f948282612edf565b9150508091505092915050565b60006020820190508181036000830152612fbb8184612f18565b905092915050565b600081519050612fd281611fc7565b92915050565b600060208284031215612fee57612fed611e77565b5b6000612ffc84828501612fc3565b91505092915050565b61300e81612ea4565b82525050565b60006040820190506130296000830185611e43565b6130366020830184613005565b9392505050565b7f4f6e6c792063616c6c61626c65206279206f776e657200000000000000000000600082015250565b6000613073601683612378565b915061307e8261303d565b602082019050919050565b600060208201905081810360008301526130a281613066565b9050919050565b7f43616e6e6f74207472616e7366657220746f2073656c66000000000000000000600082015250565b60006130df601783612378565b91506130ea826130a9565b602082019050919050565b6000602082019050818103600083015261310e816130d2565b9050919050565b61311e816121aa565b82525050565b60208201600082015161313a6000850182613115565b50505050565b60006020820190506131556000830184613124565b9291505056fea2646970667358221220dad5fc3824f9d7010729349886cf8794fb12188a29f20ec36ecb8992fe57b3a464736f6c63430008140033",
  "linkReferences": {},
  "deployedLinkReferences": {}
}