{
  "_format": "hh-sol-artifact-1",
  "contractName": "Feedback",
  "sourceName": "contracts/project-voting.sol",
  "abi": [
    {
      "inputs": [
        {
          "internalType": "address",
          "name": "_vrfCoordinator",
          "type": "address"
        },
        {
          "internalType": "uint256",
          "name": "_subscriptionId",
          "type": "uint256"
        },
        {
          "internalType": "bytes32",
          "name": "_keyHash",
          "type": "bytes32"
        }
      ],
      "stateMutability": "nonpayable",
      "type": "constructor"
    },
    {
      "inputs": [
        {
          "internalType": "address",
          "name": "have",
          "type": "address"
        },
        {
          "internalType": "address",
          "name": "want",
          "type": "address"
        }
      ],
      "name": "OnlyCoordinatorCanFulfill",
      "type": "error"
    },
    {
      "inputs": [
        {
          "internalType": "address",
          "name": "have",
          "type": "address"
        },
        {
          "internalType": "address",
          "name": "owner",
          "type": "address"
        },
        {
          "internalType": "address",
          "name": "coordinator",
          "type": "address"
        }
      ],
      "name": "OnlyOwnerOrCoordinator",
      "type": "error"
    },
    {
      "inputs": [],
      "name": "ZeroAddress",
      "type": "error"
    },
    {
      "anonymous": false,
      "inputs": [
        {
          "indexed": false,
          "internalType": "address",
          "name": "vrfCoordinator",
          "type": "address"
        }
      ],
      "name": "CoordinatorSet",
      "type": "event"
    },
    {
      "anonymous": false,
      "inputs": [
        {
          "indexed": true,
          "internalType": "address",
          "name": "from",
          "type": "address"
        },
        {
          "indexed": true,
          "internalType": "address",
          "name": "to",
          "type": "address"
        }
      ],
      "name": "OwnershipTransferRequested",
      "type": "event"
    },
    {
      "anonymous": false,
      "inputs": [
        {
          "indexed": true,
          "internalType": "address",
          "name": "from",
          "type": "address"
        },
        {
          "indexed": true,
          "internalType": "address",
          "name": "to",
          "type": "address"
        }
      ],
      "name": "OwnershipTransferred",
      "type": "event"
    },
    {
      "anonymous": false,
      "inputs": [
        {
          "indexed": false,
          "internalType": "uint256",
          "name": "requestId",
          "type": "uint256"
        },
        {
          "indexed": false,
          "internalType": "uint256[]",
          "name": "randomWords",
          "type": "uint256[]"
        }
      ],
      "name": "RequestFulfilled",
      "type": "event"
    },
    {
      "anonymous": false,
      "inputs": [
        {
          "indexed": false,
          "internalType": "uint256",
          "name": "requestId",
          "type": "uint256"
        },
        {
          "indexed": false,
          "internalType": "uint32",
          "name": "numWords",
          "type": "uint32"
        }
      ],
      "name": "RequestSent",
      "type": "event"
    },
    {
      "anonymous": false,
      "inputs": [
        {
          "indexed": false,
          "internalType": "address",
          "name": "voterAddress",
          "type": "address"
        },
        {
          "indexed": false,
          "internalType": "address",
          "name": "receiverAddress",
          "type": "address"
        },
        {
          "indexed": false,
          "internalType": "string",
          "name": "itemId",
          "type": "string"
        }
      ],
      "name": "Voted",
      "type": "event"
    },
    {
      "anonymous": false,
      "inputs": [
        {
          "indexed": false,
          "internalType": "address",
          "name": "winner",
          "type": "address"
        },
        {
          "indexed": false,
          "internalType": "uint256",
          "name": "amount",
          "type": "uint256"
        },
        {
          "indexed": false,
          "internalType": "uint256",
          "name": "cycle",
          "type": "uint256"
        }
      ],
      "name": "WinnerAnnounced",
      "type": "event"
    },
    {
      "inputs": [],
      "name": "acceptOwnership",
      "outputs": [],
      "stateMutability": "nonpayable",
      "type": "function"
    },
    {
      "inputs": [
        {
          "internalType": "string",
          "name": "itemId",
          "type": "string"
        },
        {
          "internalType": "address",
          "name": "receiverAddress",
          "type": "address"
        }
      ],
      "name": "checkHasVoted",
      "outputs": [
        {
          "internalType": "bool",
          "name": "",
          "type": "bool"
        }
      ],
      "stateMutability": "view",
      "type": "function"
    },
    {
      "inputs": [],
      "name": "getBalance",
      "outputs": [
        {
          "internalType": "uint256",
          "name": "",
          "type": "uint256"
        }
      ],
      "stateMutability": "view",
      "type": "function"
    },
    {
      "inputs": [
        {
          "internalType": "string",
          "name": "itemId",
          "type": "string"
        },
        {
          "internalType": "address",
          "name": "receiverAddress",
          "type": "address"
        }
      ],
      "name": "getItemVoteCount",
      "outputs": [
        {
          "internalType": "uint256",
          "name": "",
          "type": "uint256"
        }
      ],
      "stateMutability": "view",
      "type": "function"
    },
    {
      "inputs": [
        {
          "internalType": "uint256",
          "name": "_requestId",
          "type": "uint256"
        }
      ],
      "name": "getRequestStatus",
      "outputs": [
        {
          "internalType": "bool",
          "name": "fulfilled",
          "type": "bool"
        },
        {
          "internalType": "uint256[]",
          "name": "randomWords",
          "type": "uint256[]"
        }
      ],
      "stateMutability": "view",
      "type": "function"
    },
    {
      "inputs": [
        {
          "internalType": "address",
          "name": "",
          "type": "address"
        },
        {
          "internalType": "address",
          "name": "",
          "type": "address"
        },
        {
          "internalType": "string",
          "name": "",
          "type": "string"
        }
      ],
      "name": "hasVotedOnItem",
      "outputs": [
        {
          "internalType": "bool",
          "name": "",
          "type": "bool"
        }
      ],
      "stateMutability": "view",
      "type": "function"
    },
    {
      "inputs": [
        {
          "internalType": "address",
          "name": "",
          "type": "address"
        },
        {
          "internalType": "string",
          "name": "",
          "type": "string"
        }
      ],
      "name": "itemVotes",
      "outputs": [
        {
          "internalType": "uint256",
          "name": "",
          "type": "uint256"
        }
      ],
      "stateMutability": "view",
      "type": "function"
    },
    {
      "inputs": [],
      "name": "keyHashSet",
      "outputs": [
        {
          "internalType": "bytes32",
          "name": "",
          "type": "bytes32"
        }
      ],
      "stateMutability": "view",
      "type": "function"
    },
    {
      "inputs": [],
      "name": "lastRequestId",
      "outputs": [
        {
          "internalType": "uint256",
          "name": "",
          "type": "uint256"
        }
      ],
      "stateMutability": "view",
      "type": "function"
    },
    {
      "inputs": [],
      "name": "owner",
      "outputs": [
        {
          "internalType": "address",
          "name": "",
          "type": "address"
        }
      ],
      "stateMutability": "view",
      "type": "function"
    },
    {
      "inputs": [
        {
          "internalType": "uint256",
          "name": "requestId",
          "type": "uint256"
        },
        {
          "internalType": "uint256[]",
          "name": "randomWords",
          "type": "uint256[]"
        }
      ],
      "name": "rawFulfillRandomWords",
      "outputs": [],
      "stateMutability": "nonpayable",
      "type": "function"
    },
    {
      "inputs": [
        {
          "internalType": "uint256",
          "name": "",
          "type": "uint256"
        }
      ],
      "name": "requestIds",
      "outputs": [
        {
          "internalType": "uint256",
          "name": "",
          "type": "uint256"
        }
      ],
      "stateMutability": "view",
      "type": "function"
    },
    {
      "inputs": [
        {
          "internalType": "uint256",
          "name": "",
          "type": "uint256"
        }
      ],
      "name": "s_requests",
      "outputs": [
        {
          "internalType": "bool",
          "name": "fulfilled",
          "type": "bool"
        },
        {
          "internalType": "bool",
          "name": "exists",
          "type": "bool"
        }
      ],
      "stateMutability": "view",
      "type": "function"
    },
    {
      "inputs": [],
      "name": "s_vrfCoordinator",
      "outputs": [
        {
          "internalType": "contract IVRFCoordinatorV2Plus",
          "name": "",
          "type": "address"
        }
      ],
      "stateMutability": "view",
      "type": "function"
    },
    {
      "inputs": [
        {
          "internalType": "address",
          "name": "_vrfCoordinator",
          "type": "address"
        }
      ],
      "name": "setCoordinator",
      "outputs": [],
      "stateMutability": "nonpayable",
      "type": "function"
    },
    {
      "inputs": [],
      "name": "subscriptionSet",
      "outputs": [
        {
          "internalType": "bool",
          "name": "",
          "type": "bool"
        }
      ],
      "stateMutability": "view",
      "type": "function"
    },
    {
      "inputs": [
        {
          "internalType": "address",
          "name": "to",
          "type": "address"
        }
      ],
      "name": "transferOwnership",
      "outputs": [],
      "stateMutability": "nonpayable",
      "type": "function"
    },
    {
      "inputs": [
        {
          "internalType": "string",
          "name": "itemId",
          "type": "string"
        },
        {
          "internalType": "string",
          "name": "displayName",
          "type": "string"
        },
        {
          "internalType": "address",
          "name": "receiverAddress",
          "type": "address"
        }
      ],
      "name": "vote",
      "outputs": [],
      "stateMutability": "nonpayable",
      "type": "function"
    },
    {
      "inputs": [],
      "name": "vrfCoordinatorSet",
      "outputs": [
        {
          "internalType": "address",
          "name": "",
          "type": "address"
        }
      ],
      "stateMutability": "view",
      "type": "function"
    }
  ],
  "bytecode": "0x6080604052620186a0600860006101000a81548163ffffffff021916908363ffffffff1602179055506003600860046101000a81548161ffff021916908361ffff1602179055506001600860066101000a81548163ffffffff021916908363ffffffff1602179055503480156200007557600080fd5b50604051620023463803806200234683398181016040528101906200009b91906200046a565b82338060008073ffffffffffffffffffffffffffffffffffffffff168273ffffffffffffffffffffffffffffffffffffffff160362000111576040517f08c379a0000000000000000000000000000000000000000000000000000000008152600401620001089062000527565b60405180910390fd5b816000806101000a81548173ffffffffffffffffffffffffffffffffffffffff021916908373ffffffffffffffffffffffffffffffffffffffff160217905550600073ffffffffffffffffffffffffffffffffffffffff168173ffffffffffffffffffffffffffffffffffffffff1614620001985762000197816200025b60201b60201c565b5b505050600073ffffffffffffffffffffffffffffffffffffffff168173ffffffffffffffffffffffffffffffffffffffff160362000202576040517fd92e233d00000000000000000000000000000000000000000000000000000000815260040160405180910390fd5b80600260006101000a81548173ffffffffffffffffffffffffffffffffffffffff021916908373ffffffffffffffffffffffffffffffffffffffff160217905550508160058190555080600781905550505050620005bb565b3373ffffffffffffffffffffffffffffffffffffffff168173ffffffffffffffffffffffffffffffffffffffff1603620002cc576040517f08c379a0000000000000000000000000000000000000000000000000000000008152600401620002c39062000599565b60405180910390fd5b80600160006101000a81548173ffffffffffffffffffffffffffffffffffffffff021916908373ffffffffffffffffffffffffffffffffffffffff1602179055508073ffffffffffffffffffffffffffffffffffffffff1660008054906101000a900473ffffffffffffffffffffffffffffffffffffffff1673ffffffffffffffffffffffffffffffffffffffff167fed8889f560326eb138920d842192f0eb3dd22b4f139c87a2c57538e05bae127860405160405180910390a350565b600080fd5b600073ffffffffffffffffffffffffffffffffffffffff82169050919050565b6000620003bc826200038f565b9050919050565b620003ce81620003af565b8114620003da57600080fd5b50565b600081519050620003ee81620003c3565b92915050565b6000819050919050565b6200040981620003f4565b81146200041557600080fd5b50565b6000815190506200042981620003fe565b92915050565b6000819050919050565b62000444816200042f565b81146200045057600080fd5b50565b600081519050620004648162000439565b92915050565b6000806000606084860312156200048657620004856200038a565b5b60006200049686828701620003dd565b9350506020620004a98682870162000418565b9250506040620004bc8682870162000453565b9150509250925092565b600082825260208201905092915050565b7f43616e6e6f7420736574206f776e657220746f207a65726f0000000000000000600082015250565b60006200050f601883620004c6565b91506200051c82620004d7565b602082019050919050565b60006020820190508181036000830152620005428162000500565b9050919050565b7f43616e6e6f74207472616e7366657220746f2073656c66000000000000000000600082015250565b600062000581601783620004c6565b91506200058e8262000549565b602082019050919050565b60006020820190508181036000830152620005b48162000572565b9050919050565b611d7b80620005cb6000396000f3fe608060405234801561001057600080fd5b50600436106101215760003560e01c80638da5cb5b116100ad578063b8dd17a111610071578063b8dd17a11461030d578063d8a4676f14610329578063f2fde38b1461035a578063f96b65f214610376578063fc2a88c3146103a657610121565b80638da5cb5b146102665780638ea98117146102845780639eccacf6146102a0578063a168fa89146102be578063b0a702e2146102ef57610121565b806333d309e6116100f457806333d309e6146101ae57806335b71da9146101de5780635842307e1461020e57806379ba50971461022c5780638796ba8c1461023657610121565b80630382a1211461012657806312065fe0146101445780631f224b21146101625780631fe543e314610192575b600080fd5b61012e6103c4565b60405161013b91906111af565b60405180910390f35b61014c6103ee565b60405161015991906111e3565b60405180910390f35b61017c60048036038101906101779190611384565b6103f6565b60405161018991906111e3565b60405180910390f35b6101ac60048036038101906101a7919061146c565b610431565b005b6101c860048036038101906101c391906114cc565b6104f7565b6040516101d591906111e3565b60405180910390f35b6101f860048036038101906101f391906114cc565b61055d565b6040516102059190611543565b60405180910390f35b61021661060d565b6040516102239190611577565b60405180910390f35b610234610617565b005b610250600480360381019061024b9190611592565b6107ac565b60405161025d91906111e3565b60405180910390f35b61026e6107d0565b60405161027b91906111af565b60405180910390f35b61029e600480360381019061029991906115bf565b6107f9565b005b6102a86109da565b6040516102b5919061164b565b60405180910390f35b6102d860048036038101906102d39190611592565b610a00565b6040516102e6929190611666565b60405180910390f35b6102f7610a3e565b6040516103049190611543565b60405180910390f35b6103276004803603810190610322919061168f565b610a51565b005b610343600480360381019061033e9190611592565b610c99565b6040516103519291906117d8565b60405180910390f35b610374600480360381019061036f91906115bf565b610dc4565b005b610390600480360381019061038b9190611808565b610dd8565b60405161039d9190611543565b60405180910390f35b6103ae610e2a565b6040516103bb91906111e3565b60405180910390f35b6000600660009054906101000a900473ffffffffffffffffffffffffffffffffffffffff16905090565b600047905090565b600360205281600052604060002081805160208101820180518482526020830160208501208183528095505050505050600091509150505481565b600260009054906101000a900473ffffffffffffffffffffffffffffffffffffffff1673ffffffffffffffffffffffffffffffffffffffff163373ffffffffffffffffffffffffffffffffffffffff16146104e75733600260009054906101000a900473ffffffffffffffffffffffffffffffffffffffff166040517f1cf993f40000000000000000000000000000000000000000000000000000000081526004016104de929190611877565b60405180910390fd5b6104f2838383610e30565b505050565b6000600360008373ffffffffffffffffffffffffffffffffffffffff1673ffffffffffffffffffffffffffffffffffffffff168152602001908152602001600020836040516105469190611911565b908152602001604051809103902054905092915050565b6000600460003373ffffffffffffffffffffffffffffffffffffffff1673ffffffffffffffffffffffffffffffffffffffff16815260200190815260200160002060008373ffffffffffffffffffffffffffffffffffffffff1673ffffffffffffffffffffffffffffffffffffffff168152602001908152602001600020836040516105e99190611911565b908152602001604051809103902060009054906101000a900460ff16905092915050565b6000600754905090565b600160009054906101000a900473ffffffffffffffffffffffffffffffffffffffff1673ffffffffffffffffffffffffffffffffffffffff163373ffffffffffffffffffffffffffffffffffffffff16146106a7576040517f08c379a000000000000000000000000000000000000000000000000000000000815260040161069e90611985565b60405180910390fd5b60008060009054906101000a900473ffffffffffffffffffffffffffffffffffffffff169050336000806101000a81548173ffffffffffffffffffffffffffffffffffffffff021916908373ffffffffffffffffffffffffffffffffffffffff1602179055506000600160006101000a81548173ffffffffffffffffffffffffffffffffffffffff021916908373ffffffffffffffffffffffffffffffffffffffff1602179055503373ffffffffffffffffffffffffffffffffffffffff168173ffffffffffffffffffffffffffffffffffffffff167f8be0079c531659141344cd1fd0a4f28419497f9722a3daafe3b4186f6b6457e060405160405180910390a350565b600981815481106107bc57600080fd5b906000526020600020016000915090505481565b60008060009054906101000a900473ffffffffffffffffffffffffffffffffffffffff16905090565b6108016107d0565b73ffffffffffffffffffffffffffffffffffffffff163373ffffffffffffffffffffffffffffffffffffffff161415801561088a5750600260009054906101000a900473ffffffffffffffffffffffffffffffffffffffff1673ffffffffffffffffffffffffffffffffffffffff163373ffffffffffffffffffffffffffffffffffffffff1614155b156108f957336108986107d0565b600260009054906101000a900473ffffffffffffffffffffffffffffffffffffffff166040517f061db9c10000000000000000000000000000000000000000000000000000000081526004016108f0939291906119a5565b60405180910390fd5b600073ffffffffffffffffffffffffffffffffffffffff168173ffffffffffffffffffffffffffffffffffffffff160361095f576040517fd92e233d00000000000000000000000000000000000000000000000000000000815260040160405180910390fd5b80600260006101000a81548173ffffffffffffffffffffffffffffffffffffffff021916908373ffffffffffffffffffffffffffffffffffffffff1602179055507fd1a6a14209a385a964d036e404cb5cfb71f4000cdb03c9366292430787261be6816040516109cf91906111af565b60405180910390a150565b600260009054906101000a900473ffffffffffffffffffffffffffffffffffffffff1681565b600b6020528060005260406000206000915090508060000160009054906101000a900460ff16908060000160019054906101000a900460ff16905082565b6000806000905080600554141591505090565b600460003373ffffffffffffffffffffffffffffffffffffffff1673ffffffffffffffffffffffffffffffffffffffff16815260200190815260200160002060008273ffffffffffffffffffffffffffffffffffffffff1673ffffffffffffffffffffffffffffffffffffffff16815260200190815260200160002083604051610adb9190611911565b908152602001604051809103902060009054906101000a900460ff1615610b37576040517f08c379a0000000000000000000000000000000000000000000000000000000008152600401610b2e90611a28565b60405180910390fd5b6001600460003373ffffffffffffffffffffffffffffffffffffffff1673ffffffffffffffffffffffffffffffffffffffff16815260200190815260200160002060008373ffffffffffffffffffffffffffffffffffffffff1673ffffffffffffffffffffffffffffffffffffffff16815260200190815260200160002084604051610bc39190611911565b908152602001604051809103902060006101000a81548160ff021916908315150217905550600360008273ffffffffffffffffffffffffffffffffffffffff1673ffffffffffffffffffffffffffffffffffffffff16815260200190815260200160002083604051610c359190611911565b90815260200160405180910390206000815480929190610c5490611a77565b91905055507fd176cc3a28a59e8b1a697604131331c65bba33c79b33d12e35206db0a893d6cf338285604051610c8c93929190611af8565b60405180910390a1505050565b60006060600b600084815260200190815260200160002060000160019054906101000a900460ff16610d00576040517f08c379a0000000000000000000000000000000000000000000000000000000008152600401610cf790611b82565b60405180910390fd5b6000600b60008581526020019081526020016000206040518060600160405290816000820160009054906101000a900460ff161515151581526020016000820160019054906101000a900460ff1615151515815260200160018201805480602002602001604051908101604052809291908181526020018280548015610da557602002820191906000526020600020905b815481526020019060010190808311610d91575b5050505050815250509050806000015181604001519250925050915091565b610dcc610f48565b610dd581610fd8565b50565b600460205282600052604060002060205281600052604060002081805160208101820180518482526020830160208501208183528095505050505050600092509250509054906101000a900460ff1681565b600a5481565b600b600084815260200190815260200160002060000160019054906101000a900460ff16610e93576040517f08c379a0000000000000000000000000000000000000000000000000000000008152600401610e8a90611b82565b60405180910390fd5b6001600b600085815260200190815260200160002060000160006101000a81548160ff0219169083151502179055508181600b60008681526020019081526020016000206001019190610ee7929190611104565b507ffe2e2d779dba245964d4e3ef9b994be63856fd568bf7d3ca9e224755cb1bd54d838383604051610f1b93929190611c0c565b60405180910390a1600082826000818110610f3957610f38611c3e565b5b90506020020135905050505050565b60008054906101000a900473ffffffffffffffffffffffffffffffffffffffff1673ffffffffffffffffffffffffffffffffffffffff163373ffffffffffffffffffffffffffffffffffffffff1614610fd6576040517f08c379a0000000000000000000000000000000000000000000000000000000008152600401610fcd90611cb9565b60405180910390fd5b565b3373ffffffffffffffffffffffffffffffffffffffff168173ffffffffffffffffffffffffffffffffffffffff1603611046576040517f08c379a000000000000000000000000000000000000000000000000000000000815260040161103d90611d25565b60405180910390fd5b80600160006101000a81548173ffffffffffffffffffffffffffffffffffffffff021916908373ffffffffffffffffffffffffffffffffffffffff1602179055508073ffffffffffffffffffffffffffffffffffffffff1660008054906101000a900473ffffffffffffffffffffffffffffffffffffffff1673ffffffffffffffffffffffffffffffffffffffff167fed8889f560326eb138920d842192f0eb3dd22b4f139c87a2c57538e05bae127860405160405180910390a350565b828054828255906000526020600020908101928215611140579160200282015b8281111561113f578235825591602001919060010190611124565b5b50905061114d9190611151565b5090565b5b8082111561116a576000816000905550600101611152565b5090565b600073ffffffffffffffffffffffffffffffffffffffff82169050919050565b60006111998261116e565b9050919050565b6111a98161118e565b82525050565b60006020820190506111c460008301846111a0565b92915050565b6000819050919050565b6111dd816111ca565b82525050565b60006020820190506111f860008301846111d4565b92915050565b6000604051905090565b600080fd5b600080fd5b61121b8161118e565b811461122657600080fd5b50565b60008135905061123881611212565b92915050565b600080fd5b600080fd5b6000601f19601f8301169050919050565b7f4e487b7100000000000000000000000000000000000000000000000000000000600052604160045260246000fd5b61129182611248565b810181811067ffffffffffffffff821117156112b0576112af611259565b5b80604052505050565b60006112c36111fe565b90506112cf8282611288565b919050565b600067ffffffffffffffff8211156112ef576112ee611259565b5b6112f882611248565b9050602081019050919050565b82818337600083830152505050565b6000611327611322846112d4565b6112b9565b90508281526020810184848401111561134357611342611243565b5b61134e848285611305565b509392505050565b600082601f83011261136b5761136a61123e565b5b813561137b848260208601611314565b91505092915050565b6000806040838503121561139b5761139a611208565b5b60006113a985828601611229565b925050602083013567ffffffffffffffff8111156113ca576113c961120d565b5b6113d685828601611356565b9150509250929050565b6113e9816111ca565b81146113f457600080fd5b50565b600081359050611406816113e0565b92915050565b600080fd5b600080fd5b60008083601f84011261142c5761142b61123e565b5b8235905067ffffffffffffffff8111156114495761144861140c565b5b60208301915083602082028301111561146557611464611411565b5b9250929050565b60008060006040848603121561148557611484611208565b5b6000611493868287016113f7565b935050602084013567ffffffffffffffff8111156114b4576114b361120d565b5b6114c086828701611416565b92509250509250925092565b600080604083850312156114e3576114e2611208565b5b600083013567ffffffffffffffff8111156115015761150061120d565b5b61150d85828601611356565b925050602061151e85828601611229565b9150509250929050565b60008115159050919050565b61153d81611528565b82525050565b60006020820190506115586000830184611534565b92915050565b6000819050919050565b6115718161155e565b82525050565b600060208201905061158c6000830184611568565b92915050565b6000602082840312156115a8576115a7611208565b5b60006115b6848285016113f7565b91505092915050565b6000602082840312156115d5576115d4611208565b5b60006115e384828501611229565b91505092915050565b6000819050919050565b600061161161160c6116078461116e565b6115ec565b61116e565b9050919050565b6000611623826115f6565b9050919050565b600061163582611618565b9050919050565b6116458161162a565b82525050565b6000602082019050611660600083018461163c565b92915050565b600060408201905061167b6000830185611534565b6116886020830184611534565b9392505050565b6000806000606084860312156116a8576116a7611208565b5b600084013567ffffffffffffffff8111156116c6576116c561120d565b5b6116d286828701611356565b935050602084013567ffffffffffffffff8111156116f3576116f261120d565b5b6116ff86828701611356565b925050604061171086828701611229565b9150509250925092565b600081519050919050565b600082825260208201905092915050565b6000819050602082019050919050565b61174f816111ca565b82525050565b60006117618383611746565b60208301905092915050565b6000602082019050919050565b60006117858261171a565b61178f8185611725565b935061179a83611736565b8060005b838110156117cb5781516117b28882611755565b97506117bd8361176d565b92505060018101905061179e565b5085935050505092915050565b60006040820190506117ed6000830185611534565b81810360208301526117ff818461177a565b90509392505050565b60008060006060848603121561182157611820611208565b5b600061182f86828701611229565b935050602061184086828701611229565b925050604084013567ffffffffffffffff8111156118615761186061120d565b5b61186d86828701611356565b9150509250925092565b600060408201905061188c60008301856111a0565b61189960208301846111a0565b9392505050565b600081519050919050565b600081905092915050565b60005b838110156118d45780820151818401526020810190506118b9565b60008484015250505050565b60006118eb826118a0565b6118f581856118ab565b93506119058185602086016118b6565b80840191505092915050565b600061191d82846118e0565b915081905092915050565b600082825260208201905092915050565b7f4d7573742062652070726f706f736564206f776e657200000000000000000000600082015250565b600061196f601683611928565b915061197a82611939565b602082019050919050565b6000602082019050818103600083015261199e81611962565b9050919050565b60006060820190506119ba60008301866111a0565b6119c760208301856111a0565b6119d460408301846111a0565b949350505050565b7f6164647265737320616c726561647920766f746564206f6e206974656d000000600082015250565b6000611a12601d83611928565b9150611a1d826119dc565b602082019050919050565b60006020820190508181036000830152611a4181611a05565b9050919050565b7f4e487b7100000000000000000000000000000000000000000000000000000000600052601160045260246000fd5b6000611a82826111ca565b91507fffffffffffffffffffffffffffffffffffffffffffffffffffffffffffffffff8203611ab457611ab3611a48565b5b600182019050919050565b6000611aca826118a0565b611ad48185611928565b9350611ae48185602086016118b6565b611aed81611248565b840191505092915050565b6000606082019050611b0d60008301866111a0565b611b1a60208301856111a0565b8181036040830152611b2c8184611abf565b9050949350505050565b7f72657175657374206e6f7420666f756e64000000000000000000000000000000600082015250565b6000611b6c601183611928565b9150611b7782611b36565b602082019050919050565b60006020820190508181036000830152611b9b81611b5f565b9050919050565b600080fd5b82818337505050565b6000611bbc8385611725565b93507f07ffffffffffffffffffffffffffffffffffffffffffffffffffffffffffffff831115611bef57611bee611ba2565b5b602083029250611c00838584611ba7565b82840190509392505050565b6000604082019050611c2160008301866111d4565b8181036020830152611c34818486611bb0565b9050949350505050565b7f4e487b7100000000000000000000000000000000000000000000000000000000600052603260045260246000fd5b7f4f6e6c792063616c6c61626c65206279206f776e657200000000000000000000600082015250565b6000611ca3601683611928565b9150611cae82611c6d565b602082019050919050565b60006020820190508181036000830152611cd281611c96565b9050919050565b7f43616e6e6f74207472616e7366657220746f2073656c66000000000000000000600082015250565b6000611d0f601783611928565b9150611d1a82611cd9565b602082019050919050565b60006020820190508181036000830152611d3e81611d02565b905091905056fea2646970667358221220e338cd062af716920490895ae0befd3ff7be9351e4dab209e05d59ffd6c98a8964736f6c63430008140033",
  "linkReferences": {},
  "deployedLinkReferences": {}
}