{
  "contracts/project-voting.sol": {
    "ProjectVoting": {
      "abi": [
        {
          "inputs": [
            {
              "internalType": "address",
              "name": "_vrfCoordinator",
              "type": "address"
            },
            {
              "internalType": "uint256",
              "name": "_subscriptionId",
              "type": "uint256"
            },
            {
              "internalType": "bytes32",
              "name": "_keyHash",
              "type": "bytes32"
            }
          ],
          "stateMutability": "nonpayable",
          "type": "constructor"
        },
        {
          "inputs": [
            {
              "internalType": "address",
              "name": "have",
              "type": "address"
            },
            {
              "internalType": "address",
              "name": "want",
              "type": "address"
            }
          ],
          "name": "OnlyCoordinatorCanFulfill",
          "type": "error"
        },
        {
          "inputs": [
            {
              "internalType": "address",
              "name": "have",
              "type": "address"
            },
            {
              "internalType": "address",
              "name": "owner",
              "type": "address"
            },
            {
              "internalType": "address",
              "name": "coordinator",
              "type": "address"
            }
          ],
          "name": "OnlyOwnerOrCoordinator",
          "type": "error"
        },
        {
          "inputs": [],
          "name": "ZeroAddress",
          "type": "error"
        },
        {
          "anonymous": false,
          "inputs": [
            {
              "indexed": false,
              "internalType": "address",
              "name": "vrfCoordinator",
              "type": "address"
            }
          ],
          "name": "CoordinatorSet",
          "type": "event"
        },
        {
          "anonymous": false,
          "inputs": [
            {
              "indexed": true,
              "internalType": "address",
              "name": "from",
              "type": "address"
            },
            {
              "indexed": true,
              "internalType": "address",
              "name": "to",
              "type": "address"
            }
          ],
          "name": "OwnershipTransferRequested",
          "type": "event"
        },
        {
          "anonymous": false,
          "inputs": [
            {
              "indexed": true,
              "internalType": "address",
              "name": "from",
              "type": "address"
            },
            {
              "indexed": true,
              "internalType": "address",
              "name": "to",
              "type": "address"
            }
          ],
          "name": "OwnershipTransferred",
          "type": "event"
        },
        {
          "anonymous": false,
          "inputs": [
            {
              "indexed": false,
              "internalType": "string",
              "name": "projectId",
              "type": "string"
            },
            {
              "indexed": false,
              "internalType": "string",
              "name": "projectName",
              "type": "string"
            }
          ],
          "name": "ProjectAdded",
          "type": "event"
        },
        {
          "anonymous": false,
          "inputs": [
            {
              "indexed": false,
              "internalType": "uint256",
              "name": "requestId",
              "type": "uint256"
            },
            {
              "indexed": false,
              "internalType": "uint256[]",
              "name": "randomWords",
              "type": "uint256[]"
            }
          ],
          "name": "RequestFulfilled",
          "type": "event"
        },
        {
          "anonymous": false,
          "inputs": [
            {
              "indexed": false,
              "internalType": "uint256",
              "name": "requestId",
              "type": "uint256"
            },
            {
              "indexed": false,
              "internalType": "uint32",
              "name": "numWords",
              "type": "uint32"
            }
          ],
          "name": "RequestSent",
          "type": "event"
        },
        {
          "anonymous": false,
          "inputs": [
            {
              "indexed": false,
              "internalType": "address",
              "name": "voter",
              "type": "address"
            },
            {
              "indexed": false,
              "internalType": "string",
              "name": "name",
              "type": "string"
            },
            {
              "indexed": false,
              "internalType": "string",
              "name": "projectId",
              "type": "string"
            },
            {
              "indexed": false,
              "internalType": "uint256",
              "name": "cycle",
              "type": "uint256"
            }
          ],
          "name": "Voted",
          "type": "event"
        },
        {
          "anonymous": false,
          "inputs": [
            {
              "indexed": false,
              "internalType": "address",
              "name": "winner",
              "type": "address"
            },
            {
              "indexed": false,
              "internalType": "uint256",
              "name": "amount",
              "type": "uint256"
            },
            {
              "indexed": false,
              "internalType": "uint256",
              "name": "cycle",
              "type": "uint256"
            }
          ],
          "name": "WinnerAnnounced",
          "type": "event"
        },
        {
          "inputs": [],
          "name": "acceptOwnership",
          "outputs": [],
          "stateMutability": "nonpayable",
          "type": "function"
        },
        {
          "inputs": [
            {
              "internalType": "string",
              "name": "projectName",
              "type": "string"
            },
            {
              "internalType": "string",
              "name": "projectId",
              "type": "string"
            }
          ],
          "name": "add",
          "outputs": [],
          "stateMutability": "nonpayable",
          "type": "function"
        },
        {
          "inputs": [
            {
              "internalType": "address",
              "name": "",
              "type": "address"
            }
          ],
          "name": "addressChoice",
          "outputs": [
            {
              "internalType": "string",
              "name": "",
              "type": "string"
            }
          ],
          "stateMutability": "view",
          "type": "function"
        },
        {
          "inputs": [
            {
              "internalType": "address",
              "name": "",
              "type": "address"
            }
          ],
          "name": "addressToName",
          "outputs": [
            {
              "internalType": "string",
              "name": "",
              "type": "string"
            }
          ],
          "stateMutability": "view",
          "type": "function"
        },
        {
          "inputs": [],
          "name": "checkHasVoted",
          "outputs": [
            {
              "internalType": "bool",
              "name": "",
              "type": "bool"
            }
          ],
          "stateMutability": "view",
          "type": "function"
        },
        {
          "inputs": [],
          "name": "currentCycle",
          "outputs": [
            {
              "internalType": "uint256",
              "name": "",
              "type": "uint256"
            }
          ],
          "stateMutability": "view",
          "type": "function"
        },
        {
          "inputs": [
            {
              "internalType": "uint256",
              "name": "",
              "type": "uint256"
            },
            {
              "internalType": "uint256",
              "name": "",
              "type": "uint256"
            }
          ],
          "name": "cycleVoters",
          "outputs": [
            {
              "internalType": "address",
              "name": "",
              "type": "address"
            }
          ],
          "stateMutability": "view",
          "type": "function"
        },
        {
          "inputs": [
            {
              "internalType": "uint256",
              "name": "",
              "type": "uint256"
            },
            {
              "internalType": "string",
              "name": "",
              "type": "string"
            }
          ],
          "name": "cycleVotes",
          "outputs": [
            {
              "internalType": "uint256",
              "name": "",
              "type": "uint256"
            }
          ],
          "stateMutability": "view",
          "type": "function"
        },
        {
          "inputs": [],
          "name": "getBalance",
          "outputs": [
            {
              "internalType": "uint256",
              "name": "",
              "type": "uint256"
            }
          ],
          "stateMutability": "view",
          "type": "function"
        },
        {
          "inputs": [],
          "name": "getCycle",
          "outputs": [
            {
              "internalType": "uint256",
              "name": "",
              "type": "uint256"
            }
          ],
          "stateMutability": "view",
          "type": "function"
        },
        {
          "inputs": [
            {
              "internalType": "string",
              "name": "projectId",
              "type": "string"
            }
          ],
          "name": "getCycleVoteCount",
          "outputs": [
            {
              "internalType": "uint256",
              "name": "",
              "type": "uint256"
            }
          ],
          "stateMutability": "view",
          "type": "function"
        },
        {
          "inputs": [],
          "name": "getProjects",
          "outputs": [
            {
              "internalType": "string[]",
              "name": "",
              "type": "string[]"
            }
          ],
          "stateMutability": "view",
          "type": "function"
        },
        {
          "inputs": [
            {
              "internalType": "uint256",
              "name": "_requestId",
              "type": "uint256"
            }
          ],
          "name": "getRequestStatus",
          "outputs": [
            {
              "internalType": "bool",
              "name": "fulfilled",
              "type": "bool"
            },
            {
              "internalType": "uint256[]",
              "name": "randomWords",
              "type": "uint256[]"
            }
          ],
          "stateMutability": "view",
          "type": "function"
        },
        {
          "inputs": [],
          "name": "getThreshold",
          "outputs": [
            {
              "internalType": "uint256",
              "name": "",
              "type": "uint256"
            }
          ],
          "stateMutability": "view",
          "type": "function"
        },
        {
          "inputs": [],
          "name": "getVote",
          "outputs": [
            {
              "internalType": "string",
              "name": "",
              "type": "string"
            }
          ],
          "stateMutability": "view",
          "type": "function"
        },
        {
          "inputs": [
            {
              "internalType": "address",
              "name": "",
              "type": "address"
            }
          ],
          "name": "hasVoted",
          "outputs": [
            {
              "internalType": "bool",
              "name": "",
              "type": "bool"
            }
          ],
          "stateMutability": "view",
          "type": "function"
        },
        {
          "inputs": [],
          "name": "lastRequestId",
          "outputs": [
            {
              "internalType": "uint256",
              "name": "",
              "type": "uint256"
            }
          ],
          "stateMutability": "view",
          "type": "function"
        },
        {
          "inputs": [
            {
              "internalType": "string",
              "name": "",
              "type": "string"
            }
          ],
          "name": "nameToAddress",
          "outputs": [
            {
              "internalType": "address",
              "name": "",
              "type": "address"
            }
          ],
          "stateMutability": "view",
          "type": "function"
        },
        {
          "inputs": [],
          "name": "owner",
          "outputs": [
            {
              "internalType": "address",
              "name": "",
              "type": "address"
            }
          ],
          "stateMutability": "view",
          "type": "function"
        },
        {
          "inputs": [
            {
              "internalType": "string",
              "name": "",
              "type": "string"
            }
          ],
          "name": "projects",
          "outputs": [
            {
              "internalType": "string",
              "name": "",
              "type": "string"
            }
          ],
          "stateMutability": "view",
          "type": "function"
        },
        {
          "inputs": [
            {
              "internalType": "uint256",
              "name": "requestId",
              "type": "uint256"
            },
            {
              "internalType": "uint256[]",
              "name": "randomWords",
              "type": "uint256[]"
            }
          ],
          "name": "rawFulfillRandomWords",
          "outputs": [],
          "stateMutability": "nonpayable",
          "type": "function"
        },
        {
          "inputs": [
            {
              "internalType": "string",
              "name": "displayName",
              "type": "string"
            }
          ],
          "name": "registerVoter",
          "outputs": [],
          "stateMutability": "nonpayable",
          "type": "function"
        },
        {
          "inputs": [
            {
              "internalType": "uint256",
              "name": "",
              "type": "uint256"
            }
          ],
          "name": "requestIds",
          "outputs": [
            {
              "internalType": "uint256",
              "name": "",
              "type": "uint256"
            }
          ],
          "stateMutability": "view",
          "type": "function"
        },
        {
          "inputs": [
            {
              "internalType": "uint256",
              "name": "",
              "type": "uint256"
            }
          ],
          "name": "s_requests",
          "outputs": [
            {
              "internalType": "bool",
              "name": "fulfilled",
              "type": "bool"
            },
            {
              "internalType": "bool",
              "name": "exists",
              "type": "bool"
            }
          ],
          "stateMutability": "view",
          "type": "function"
        },
        {
          "inputs": [],
          "name": "s_vrfCoordinator",
          "outputs": [
            {
              "internalType": "contract IVRFCoordinatorV2Plus",
              "name": "",
              "type": "address"
            }
          ],
          "stateMutability": "view",
          "type": "function"
        },
        {
          "inputs": [
            {
              "internalType": "address",
              "name": "_vrfCoordinator",
              "type": "address"
            }
          ],
          "name": "setCoordinator",
          "outputs": [],
          "stateMutability": "nonpayable",
          "type": "function"
        },
        {
          "inputs": [
            {
              "internalType": "address",
              "name": "to",
              "type": "address"
            }
          ],
          "name": "transferOwnership",
          "outputs": [],
          "stateMutability": "nonpayable",
          "type": "function"
        },
        {
          "inputs": [
            {
              "internalType": "string",
              "name": "projectId",
              "type": "string"
            },
            {
              "internalType": "string",
              "name": "displayName",
              "type": "string"
            }
          ],
          "name": "vote",
          "outputs": [],
          "stateMutability": "payable",
          "type": "function"
        }
      ],
      "evm": {
        "bytecode": {
          "linkReferences": {},
          "object": "608060405267016345785d8a0000600a556001600b55620186a0600f60006101000a81548163ffffffff021916908363ffffffff1602179055506003600f60046101000a81548161ffff021916908361ffff1602179055506001600f60066101000a81548163ffffffff021916908363ffffffff1602179055503480156200008657600080fd5b5060405162003caf38038062003caf8339818101604052810190620000ac91906200047b565b82338060008073ffffffffffffffffffffffffffffffffffffffff168273ffffffffffffffffffffffffffffffffffffffff160362000122576040517f08c379a0000000000000000000000000000000000000000000000000000000008152600401620001199062000538565b60405180910390fd5b816000806101000a81548173ffffffffffffffffffffffffffffffffffffffff021916908373ffffffffffffffffffffffffffffffffffffffff160217905550600073ffffffffffffffffffffffffffffffffffffffff168173ffffffffffffffffffffffffffffffffffffffff1614620001a957620001a8816200026c60201b60201c565b5b505050600073ffffffffffffffffffffffffffffffffffffffff168173ffffffffffffffffffffffffffffffffffffffff160362000213576040517fd92e233d00000000000000000000000000000000000000000000000000000000815260040160405180910390fd5b80600260006101000a81548173ffffffffffffffffffffffffffffffffffffffff021916908373ffffffffffffffffffffffffffffffffffffffff1602179055505081600d8190555080600e81905550505050620005cc565b3373ffffffffffffffffffffffffffffffffffffffff168173ffffffffffffffffffffffffffffffffffffffff1603620002dd576040517f08c379a0000000000000000000000000000000000000000000000000000000008152600401620002d490620005aa565b60405180910390fd5b80600160006101000a81548173ffffffffffffffffffffffffffffffffffffffff021916908373ffffffffffffffffffffffffffffffffffffffff1602179055508073ffffffffffffffffffffffffffffffffffffffff1660008054906101000a900473ffffffffffffffffffffffffffffffffffffffff1673ffffffffffffffffffffffffffffffffffffffff167fed8889f560326eb138920d842192f0eb3dd22b4f139c87a2c57538e05bae127860405160405180910390a350565b600080fd5b600073ffffffffffffffffffffffffffffffffffffffff82169050919050565b6000620003cd82620003a0565b9050919050565b620003df81620003c0565b8114620003eb57600080fd5b50565b600081519050620003ff81620003d4565b92915050565b6000819050919050565b6200041a8162000405565b81146200042657600080fd5b50565b6000815190506200043a816200040f565b92915050565b6000819050919050565b620004558162000440565b81146200046157600080fd5b50565b60008151905062000475816200044a565b92915050565b6000806000606084860312156200049757620004966200039b565b5b6000620004a786828701620003ee565b9350506020620004ba8682870162000429565b9250506040620004cd8682870162000464565b9150509250925092565b600082825260208201905092915050565b7f43616e6e6f7420736574206f776e657220746f207a65726f0000000000000000600082015250565b600062000520601883620004d7565b91506200052d82620004e8565b602082019050919050565b60006020820190508181036000830152620005538162000511565b9050919050565b7f43616e6e6f74207472616e7366657220746f2073656c66000000000000000000600082015250565b600062000592601783620004d7565b91506200059f826200055a565b602082019050919050565b60006020820190508181036000830152620005c58162000583565b9050919050565b6136d380620005dc6000396000f3fe6080604052600436106101b75760003560e01c806391c9b268116100ec578063e2a04b621161008a578063e8d5940d11610064578063e8d5940d14610672578063ebdf86ca1461068e578063f2fde38b146106b7578063fc2a88c3146106e0576101b7565b8063e2a04b62146105cd578063e75235b81461060a578063e7f72f1014610635576101b7565b8063a9382125116100c6578063a9382125146104fc578063bab2f55214610539578063d8a4676f14610564578063dcc60128146105a2576101b7565b806391c9b268146104565780639eccacf614610493578063a168fa89146104be576101b7565b80636428a4861161015957806379ba50971161013357806379ba5097146103ae5780638796ba8c146103c55780638da5cb5b146104025780638ea981171461042d576101b7565b80636428a4861461031d578063655bce221461034657806371c8fdbd14610371576101b7565b806312065fe01161019557806312065fe0146102615780631234ce9d1461028c57806312fe56e5146102b75780631fe543e3146102f4576101b7565b80630242f351146101bc57806308d88aad146101e757806309eef43e14610224575b600080fd5b3480156101c857600080fd5b506101d161070b565b6040516101de9190612142565b60405180910390f35b3480156101f357600080fd5b5061020e600480360381019061020991906122ad565b6107da565b60405161021b9190612337565b60405180910390f35b34801561023057600080fd5b5061024b6004803603810190610246919061237e565b610823565b60405161025891906123c6565b60405180910390f35b34801561026d57600080fd5b50610276610843565b60405161028391906123fa565b60405180910390f35b34801561029857600080fd5b506102a161084b565b6040516102ae91906123c6565b60405180910390f35b3480156102c357600080fd5b506102de60048036038101906102d99190612441565b61089f565b6040516102eb9190612337565b60405180910390f35b34801561030057600080fd5b5061031b600480360381019061031691906124e1565b6108ed565b005b34801561032957600080fd5b50610344600480360381019061033f91906122ad565b6109b3565b005b34801561035257600080fd5b5061035b610b53565b60405161036891906123fa565b60405180910390f35b34801561037d57600080fd5b50610398600480360381019061039391906122ad565b610b5d565b6040516103a591906123fa565b60405180910390f35b3480156103ba57600080fd5b506103c3610b98565b005b3480156103d157600080fd5b506103ec60048036038101906103e79190612541565b610d2d565b6040516103f991906123fa565b60405180910390f35b34801561040e57600080fd5b50610417610d51565b6040516104249190612337565b60405180910390f35b34801561043957600080fd5b50610454600480360381019061044f919061237e565b610d7a565b005b34801561046257600080fd5b5061047d600480360381019061047891906122ad565b610f5b565b60405161048a9190612142565b60405180910390f35b34801561049f57600080fd5b506104a8611011565b6040516104b591906125cd565b60405180910390f35b3480156104ca57600080fd5b506104e560048036038101906104e09190612541565b611037565b6040516104f39291906125e8565b60405180910390f35b34801561050857600080fd5b50610523600480360381019061051e9190612611565b611075565b60405161053091906123fa565b60405180910390f35b34801561054557600080fd5b5061054e6110b0565b60405161055b91906123fa565b60405180910390f35b34801561057057600080fd5b5061058b60048036038101906105869190612541565b6110b6565b60405161059992919061272b565b60405180910390f35b3480156105ae57600080fd5b506105b76111e1565b6040516105c49190612867565b60405180910390f35b3480156105d957600080fd5b506105f460048036038101906105ef919061237e565b6112ba565b6040516106019190612142565b60405180910390f35b34801561061657600080fd5b5061061f61135a565b60405161062c91906123fa565b60405180910390f35b34801561064157600080fd5b5061065c6004803603810190610657919061237e565b611364565b6040516106699190612142565b60405180910390f35b61068c60048036038101906106879190612889565b611404565b005b34801561069a57600080fd5b506106b560048036038101906106b09190612889565b6116bb565b005b3480156106c357600080fd5b506106de60048036038101906106d9919061237e565b611856565b005b3480156106ec57600080fd5b506106f561186a565b60405161070291906123fa565b60405180910390f35b6060600660003373ffffffffffffffffffffffffffffffffffffffff1673ffffffffffffffffffffffffffffffffffffffff168152602001908152602001600020805461075790612930565b80601f016020809104026020016040519081016040528092919081815260200182805461078390612930565b80156107d05780601f106107a5576101008083540402835291602001916107d0565b820191906000526020600020905b8154815290600101906020018083116107b357829003601f168201915b5050505050905090565b6004818051602081018201805184825260208301602085012081835280955050505050506000915054906101000a900473ffffffffffffffffffffffffffffffffffffffff1681565b60096020528060005260406000206000915054906101000a900460ff1681565b600047905090565b6000600960003373ffffffffffffffffffffffffffffffffffffffff1673ffffffffffffffffffffffffffffffffffffffff16815260200190815260200160002060009054906101000a900460ff16905090565b600760205281600052604060002081815481106108bb57600080fd5b906000526020600020016000915091509054906101000a900473ffffffffffffffffffffffffffffffffffffffff1681565b600260009054906101000a900473ffffffffffffffffffffffffffffffffffffffff1673ffffffffffffffffffffffffffffffffffffffff163373ffffffffffffffffffffffffffffffffffffffff16146109a35733600260009054906101000a900473ffffffffffffffffffffffffffffffffffffffff166040517f1cf993f400000000000000000000000000000000000000000000000000000000815260040161099a929190612961565b60405180910390fd5b6109ae838383611870565b505050565b60006004826040516109c591906129c6565b908152602001604051809103902060009054906101000a900473ffffffffffffffffffffffffffffffffffffffff169050600073ffffffffffffffffffffffffffffffffffffffff168173ffffffffffffffffffffffffffffffffffffffff1614610a65576040517f08c379a0000000000000000000000000000000000000000000000000000000008152600401610a5c90612a29565b60405180910390fd5b600960003373ffffffffffffffffffffffffffffffffffffffff1673ffffffffffffffffffffffffffffffffffffffff16815260200190815260200160002060009054906101000a900460ff1615610af2576040517f08c379a0000000000000000000000000000000000000000000000000000000008152600401610ae990612a95565b60405180910390fd5b33600483604051610b0391906129c6565b908152602001604051809103902060006101000a81548173ffffffffffffffffffffffffffffffffffffffff021916908373ffffffffffffffffffffffffffffffffffffffff1602179055505050565b6000600b54905090565b600060036000600b54815260200190815260200160002082604051610b8291906129c6565b9081526020016040518091039020549050919050565b600160009054906101000a900473ffffffffffffffffffffffffffffffffffffffff1673ffffffffffffffffffffffffffffffffffffffff163373ffffffffffffffffffffffffffffffffffffffff1614610c28576040517f08c379a0000000000000000000000000000000000000000000000000000000008152600401610c1f90612b01565b60405180910390fd5b60008060009054906101000a900473ffffffffffffffffffffffffffffffffffffffff169050336000806101000a81548173ffffffffffffffffffffffffffffffffffffffff021916908373ffffffffffffffffffffffffffffffffffffffff1602179055506000600160006101000a81548173ffffffffffffffffffffffffffffffffffffffff021916908373ffffffffffffffffffffffffffffffffffffffff1602179055503373ffffffffffffffffffffffffffffffffffffffff168173ffffffffffffffffffffffffffffffffffffffff167f8be0079c531659141344cd1fd0a4f28419497f9722a3daafe3b4186f6b6457e060405160405180910390a350565b60108181548110610d3d57600080fd5b906000526020600020016000915090505481565b60008060009054906101000a900473ffffffffffffffffffffffffffffffffffffffff16905090565b610d82610d51565b73ffffffffffffffffffffffffffffffffffffffff163373ffffffffffffffffffffffffffffffffffffffff1614158015610e0b5750600260009054906101000a900473ffffffffffffffffffffffffffffffffffffffff1673ffffffffffffffffffffffffffffffffffffffff163373ffffffffffffffffffffffffffffffffffffffff1614155b15610e7a5733610e19610d51565b600260009054906101000a900473ffffffffffffffffffffffffffffffffffffffff166040517f061db9c1000000000000000000000000000000000000000000000000000000008152600401610e7193929190612b21565b60405180910390fd5b600073ffffffffffffffffffffffffffffffffffffffff168173ffffffffffffffffffffffffffffffffffffffff1603610ee0576040517fd92e233d00000000000000000000000000000000000000000000000000000000815260040160405180910390fd5b80600260006101000a81548173ffffffffffffffffffffffffffffffffffffffff021916908373ffffffffffffffffffffffffffffffffffffffff1602179055507fd1a6a14209a385a964d036e404cb5cfb71f4000cdb03c9366292430787261be681604051610f509190612337565b60405180910390a150565b6008818051602081018201805184825260208301602085012081835280955050505050506000915090508054610f9090612930565b80601f0160208091040260200160405190810160405280929190818152602001828054610fbc90612930565b80156110095780601f10610fde57610100808354040283529160200191611009565b820191906000526020600020905b815481529060010190602001808311610fec57829003601f168201915b505050505081565b600260009054906101000a900473ffffffffffffffffffffffffffffffffffffffff1681565b60126020528060005260406000206000915090508060000160009054906101000a900460ff16908060000160019054906101000a900460ff16905082565b600360205281600052604060002081805160208101820180518482526020830160208501208183528095505050505050600091509150505481565b600b5481565b600060606012600084815260200190815260200160002060000160019054906101000a900460ff1661111d576040517f08c379a000000000000000000000000000000000000000000000000000000000815260040161111490612ba4565b60405180910390fd5b6000601260008581526020019081526020016000206040518060600160405290816000820160009054906101000a900460ff161515151581526020016000820160019054906101000a900460ff16151515158152602001600182018054806020026020016040519081016040528092919081815260200182805480156111c257602002820191906000526020600020905b8154815260200190600101908083116111ae575b5050505050815250509050806000015181604001519250925050915091565b6060600c805480602002602001604051908101604052809291908181526020016000905b828210156112b157838290600052602060002001805461122490612930565b80601f016020809104026020016040519081016040528092919081815260200182805461125090612930565b801561129d5780601f106112725761010080835404028352916020019161129d565b820191906000526020600020905b81548152906001019060200180831161128057829003601f168201915b505050505081526020019060010190611205565b50505050905090565b600560205280600052604060002060009150905080546112d990612930565b80601f016020809104026020016040519081016040528092919081815260200182805461130590612930565b80156113525780601f1061132757610100808354040283529160200191611352565b820191906000526020600020905b81548152906001019060200180831161133557829003601f168201915b505050505081565b6000600a54905090565b6006602052806000526040600020600091509050805461138390612930565b80601f01602080910402602001604051908101604052809291908181526020018280546113af90612930565b80156113fc5780601f106113d1576101008083540402835291602001916113fc565b820191906000526020600020905b8154815290600101906020018083116113df57829003601f168201915b505050505081565b61140d816109b3565b66038d7ea4c68000341015611457576040517f08c379a000000000000000000000000000000000000000000000000000000000815260040161144e90612c10565b60405180910390fd5b66b1a2bc2ec500003411156114a1576040517f08c379a000000000000000000000000000000000000000000000000000000000815260040161149890612c7c565b60405180910390fd5b60006008836040516114b391906129c6565b908152602001604051809103902080546114cc90612930565b90501161150e576040517f08c379a000000000000000000000000000000000000000000000000000000000815260040161150590612ce8565b60405180910390fd5b6001600960003373ffffffffffffffffffffffffffffffffffffffff1673ffffffffffffffffffffffffffffffffffffffff16815260200190815260200160002060006101000a81548160ff02191690831515021790555081600660003373ffffffffffffffffffffffffffffffffffffffff1673ffffffffffffffffffffffffffffffffffffffff16815260200190815260200160002090816115b29190612eaa565b5060036000600b548152602001908152602001600020826040516115d691906129c6565b908152602001604051809103902060008154809291906115f590612fab565b919050555060076000600b548152602001908152602001600020339080600181540180825580915050600190039060005260206000200160009091909190916101000a81548173ffffffffffffffffffffffffffffffffffffffff021916908373ffffffffffffffffffffffffffffffffffffffff160217905550611678611aaa565b7f6cb0a41e9298e8d3ff3de34496ff4e64afd0962993efd997ff057aa62043436f338284600b546040516116af9493929190612ff3565b60405180910390a15050565b6116c3611b1c565b60006008826040516116d591906129c6565b908152602001604051809103902080546116ee90612930565b905014611730576040517f08c379a000000000000000000000000000000000000000000000000000000000815260040161172790613092565b60405180910390fd5b6000825111611774576040517f08c379a000000000000000000000000000000000000000000000000000000000815260040161176b906130fe565b60405180910390fd5b60008151116117b8576040517f08c379a00000000000000000000000000000000000000000000000000000000081526004016117af9061316a565b60405180910390fd5b816008826040516117c991906129c6565b908152602001604051809103902090816117e39190612eaa565b50600c829080600181540180825580915050600190039060005260206000200160009091909190915090816118189190612eaa565b507feb5d6000a362475be9d9b16beddc148b7004850daf2e69325a403d613567769e818360405161184a92919061318a565b60405180910390a15050565b61185e611b1c565b61186781611bac565b50565b60115481565b6012600084815260200190815260200160002060000160019054906101000a900460ff166118d3576040517f08c379a00000000000000000000000000000000000000000000000000000000081526004016118ca90612ba4565b60405180910390fd5b60016012600085815260200190815260200160002060000160006101000a81548160ff0219169083151502179055508181601260008681526020019081526020016000206001019190611927929190611ffb565b507ffe2e2d779dba245964d4e3ef9b994be63856fd568bf7d3ca9e224755cb1bd54d83838360405161195b9392919061322b565b60405180910390a16000828260008181106119795761197861325d565b5b905060200201359050600060076000600b54815260200190815260200160002080549050826119a891906132bb565b9050600060076000600b54815260200190815260200160002082815481106119d3576119d261325d565b5b9060005260206000200160009054906101000a900473ffffffffffffffffffffffffffffffffffffffff16905060004790507f1545cd4197b626f3a89e81606417b61cd942aa094771eaa0bbbf9562c1e17de08282600b54604051611a3a9392919061330d565b60405180910390a18173ffffffffffffffffffffffffffffffffffffffff166108fc829081150290604051600060405180830381858888f19350505050158015611a88573d6000803e3d6000fd5b50600b6000815480929190611a9c90612fab565b919050555050505050505050565b600a544710611b1a57600060076000600b5481526020019081526020016000208054905011611b0e576040517f08c379a0000000000000000000000000000000000000000000000000000000008152600401611b0590613390565b60405180910390fd5b611b186000611cd8565b505b565b60008054906101000a900473ffffffffffffffffffffffffffffffffffffffff1673ffffffffffffffffffffffffffffffffffffffff163373ffffffffffffffffffffffffffffffffffffffff1614611baa576040517f08c379a0000000000000000000000000000000000000000000000000000000008152600401611ba1906133fc565b60405180910390fd5b565b3373ffffffffffffffffffffffffffffffffffffffff168173ffffffffffffffffffffffffffffffffffffffff1603611c1a576040517f08c379a0000000000000000000000000000000000000000000000000000000008152600401611c1190613468565b60405180910390fd5b80600160006101000a81548173ffffffffffffffffffffffffffffffffffffffff021916908373ffffffffffffffffffffffffffffffffffffffff1602179055508073ffffffffffffffffffffffffffffffffffffffff1660008054906101000a900473ffffffffffffffffffffffffffffffffffffffff1673ffffffffffffffffffffffffffffffffffffffff167fed8889f560326eb138920d842192f0eb3dd22b4f139c87a2c57538e05bae127860405160405180910390a350565b6000600260009054906101000a900473ffffffffffffffffffffffffffffffffffffffff1673ffffffffffffffffffffffffffffffffffffffff16639b1c385e6040518060c00160405280600e548152602001600d548152602001600f60049054906101000a900461ffff1661ffff168152602001600f60009054906101000a900463ffffffff1663ffffffff168152602001600f60069054906101000a900463ffffffff1663ffffffff168152602001611da26040518060200160405280881515815250611f63565b8152506040518263ffffffff1660e01b8152600401611dc191906135bb565b6020604051808303816000875af1158015611de0573d6000803e3d6000fd5b505050506040513d601f19601f82011682018060405250810190611e0491906135f2565b90506040518060600160405280600015158152602001600115158152602001600067ffffffffffffffff811115611e3e57611e3d612182565b5b604051908082528060200260200182016040528015611e6c5781602001602082028036833780820191505090505b508152506012600083815260200190815260200160002060008201518160000160006101000a81548160ff02191690831515021790555060208201518160000160016101000a81548160ff0219169083151502179055506040820151816001019080519060200190611edf929190612048565b509050506010819080600181540180825580915050600190039060005260206000200160009091909190915055806011819055507fcc58b13ad3eab50626c6a6300b1d139cd6ebb1688a7cced9461c2f7e762665ee81600f60069054906101000a900463ffffffff16604051611f5692919061362e565b60405180910390a1919050565b60607f92fd13387c7fe7befbc38d303d6468778fb9731bc4583f17d92989c6fcfdeaaa82604051602401611f979190613682565b604051602081830303815290604052907bffffffffffffffffffffffffffffffffffffffffffffffffffffffff19166020820180517bffffffffffffffffffffffffffffffffffffffffffffffffffffffff83818316178352505050509050919050565b828054828255906000526020600020908101928215612037579160200282015b8281111561203657823582559160200191906001019061201b565b5b5090506120449190612095565b5090565b828054828255906000526020600020908101928215612084579160200282015b82811115612083578251825591602001919060010190612068565b5b5090506120919190612095565b5090565b5b808211156120ae576000816000905550600101612096565b5090565b600081519050919050565b600082825260208201905092915050565b60005b838110156120ec5780820151818401526020810190506120d1565b60008484015250505050565b6000601f19601f8301169050919050565b6000612114826120b2565b61211e81856120bd565b935061212e8185602086016120ce565b612137816120f8565b840191505092915050565b6000602082019050818103600083015261215c8184612109565b905092915050565b6000604051905090565b600080fd5b600080fd5b600080fd5b600080fd5b7f4e487b7100000000000000000000000000000000000000000000000000000000600052604160045260246000fd5b6121ba826120f8565b810181811067ffffffffffffffff821117156121d9576121d8612182565b5b80604052505050565b60006121ec612164565b90506121f882826121b1565b919050565b600067ffffffffffffffff82111561221857612217612182565b5b612221826120f8565b9050602081019050919050565b82818337600083830152505050565b600061225061224b846121fd565b6121e2565b90508281526020810184848401111561226c5761226b61217d565b5b61227784828561222e565b509392505050565b600082601f83011261229457612293612178565b5b81356122a484826020860161223d565b91505092915050565b6000602082840312156122c3576122c261216e565b5b600082013567ffffffffffffffff8111156122e1576122e0612173565b5b6122ed8482850161227f565b91505092915050565b600073ffffffffffffffffffffffffffffffffffffffff82169050919050565b6000612321826122f6565b9050919050565b61233181612316565b82525050565b600060208201905061234c6000830184612328565b92915050565b61235b81612316565b811461236657600080fd5b50565b60008135905061237881612352565b92915050565b6000602082840312156123945761239361216e565b5b60006123a284828501612369565b91505092915050565b60008115159050919050565b6123c0816123ab565b82525050565b60006020820190506123db60008301846123b7565b92915050565b6000819050919050565b6123f4816123e1565b82525050565b600060208201905061240f60008301846123eb565b92915050565b61241e816123e1565b811461242957600080fd5b50565b60008135905061243b81612415565b92915050565b600080604083850312156124585761245761216e565b5b60006124668582860161242c565b92505060206124778582860161242c565b9150509250929050565b600080fd5b600080fd5b60008083601f8401126124a1576124a0612178565b5b8235905067ffffffffffffffff8111156124be576124bd612481565b5b6020830191508360208202830111156124da576124d9612486565b5b9250929050565b6000806000604084860312156124fa576124f961216e565b5b60006125088682870161242c565b935050602084013567ffffffffffffffff81111561252957612528612173565b5b6125358682870161248b565b92509250509250925092565b6000602082840312156125575761255661216e565b5b60006125658482850161242c565b91505092915050565b6000819050919050565b600061259361258e612589846122f6565b61256e565b6122f6565b9050919050565b60006125a582612578565b9050919050565b60006125b78261259a565b9050919050565b6125c7816125ac565b82525050565b60006020820190506125e260008301846125be565b92915050565b60006040820190506125fd60008301856123b7565b61260a60208301846123b7565b9392505050565b600080604083850312156126285761262761216e565b5b60006126368582860161242c565b925050602083013567ffffffffffffffff81111561265757612656612173565b5b6126638582860161227f565b9150509250929050565b600081519050919050565b600082825260208201905092915050565b6000819050602082019050919050565b6126a2816123e1565b82525050565b60006126b48383612699565b60208301905092915050565b6000602082019050919050565b60006126d88261266d565b6126e28185612678565b93506126ed83612689565b8060005b8381101561271e57815161270588826126a8565b9750612710836126c0565b9250506001810190506126f1565b5085935050505092915050565b600060408201905061274060008301856123b7565b818103602083015261275281846126cd565b90509392505050565b600081519050919050565b600082825260208201905092915050565b6000819050602082019050919050565b600082825260208201905092915050565b60006127a3826120b2565b6127ad8185612787565b93506127bd8185602086016120ce565b6127c6816120f8565b840191505092915050565b60006127dd8383612798565b905092915050565b6000602082019050919050565b60006127fd8261275b565b6128078185612766565b93508360208202850161281985612777565b8060005b85811015612855578484038952815161283685826127d1565b9450612841836127e5565b925060208a0199505060018101905061281d565b50829750879550505050505092915050565b6000602082019050818103600083015261288181846127f2565b905092915050565b600080604083850312156128a05761289f61216e565b5b600083013567ffffffffffffffff8111156128be576128bd612173565b5b6128ca8582860161227f565b925050602083013567ffffffffffffffff8111156128eb576128ea612173565b5b6128f78582860161227f565b9150509250929050565b7f4e487b7100000000000000000000000000000000000000000000000000000000600052602260045260246000fd5b6000600282049050600182168061294857607f821691505b60208210810361295b5761295a612901565b5b50919050565b60006040820190506129766000830185612328565b6129836020830184612328565b9392505050565b600081905092915050565b60006129a0826120b2565b6129aa818561298a565b93506129ba8185602086016120ce565b80840191505092915050565b60006129d28284612995565b915081905092915050565b7f446973706c6179206e616d6520697320616c72656164792074616b656e000000600082015250565b6000612a13601d836120bd565b9150612a1e826129dd565b602082019050919050565b60006020820190508181036000830152612a4281612a06565b9050919050565b7f566f7465722068617320616c726561647920766f746564000000000000000000600082015250565b6000612a7f6017836120bd565b9150612a8a82612a49565b602082019050919050565b60006020820190508181036000830152612aae81612a72565b9050919050565b7f4d7573742062652070726f706f736564206f776e657200000000000000000000600082015250565b6000612aeb6016836120bd565b9150612af682612ab5565b602082019050919050565b60006020820190508181036000830152612b1a81612ade565b9050919050565b6000606082019050612b366000830186612328565b612b436020830185612328565b612b506040830184612328565b949350505050565b7f72657175657374206e6f7420666f756e64000000000000000000000000000000600082015250565b6000612b8e6011836120bd565b9150612b9982612b58565b602082019050919050565b60006020820190508181036000830152612bbd81612b81565b9050919050565b7f4d696e696d756d20302e30303120657468657200000000000000000000000000600082015250565b6000612bfa6013836120bd565b9150612c0582612bc4565b602082019050919050565b60006020820190508181036000830152612c2981612bed565b9050919050565b7f4d6178696d756d20302e30352065746865720000000000000000000000000000600082015250565b6000612c666012836120bd565b9150612c7182612c30565b602082019050919050565b60006020820190508181036000830152612c9581612c59565b9050919050565b7f50726f6a65637420646f6573206e6f7420657869737400000000000000000000600082015250565b6000612cd26016836120bd565b9150612cdd82612c9c565b602082019050919050565b60006020820190508181036000830152612d0181612cc5565b9050919050565b60008190508160005260206000209050919050565b60006020601f8301049050919050565b600082821b905092915050565b600060088302612d6a7fffffffffffffffffffffffffffffffffffffffffffffffffffffffffffffffff82612d2d565b612d748683612d2d565b95508019841693508086168417925050509392505050565b6000612da7612da2612d9d846123e1565b61256e565b6123e1565b9050919050565b6000819050919050565b612dc183612d8c565b612dd5612dcd82612dae565b848454612d3a565b825550505050565b600090565b612dea612ddd565b612df5818484612db8565b505050565b5b81811015612e1957612e0e600082612de2565b600181019050612dfb565b5050565b601f821115612e5e57612e2f81612d08565b612e3884612d1d565b81016020851015612e47578190505b612e5b612e5385612d1d565b830182612dfa565b50505b505050565b600082821c905092915050565b6000612e8160001984600802612e63565b1980831691505092915050565b6000612e9a8383612e70565b9150826002028217905092915050565b612eb3826120b2565b67ffffffffffffffff811115612ecc57612ecb612182565b5b612ed68254612930565b612ee1828285612e1d565b600060209050601f831160018114612f145760008415612f02578287015190505b612f0c8582612e8e565b865550612f74565b601f198416612f2286612d08565b60005b82811015612f4a57848901518255600182019150602085019450602081019050612f25565b86831015612f675784890151612f63601f891682612e70565b8355505b6001600288020188555050505b505050505050565b7f4e487b7100000000000000000000000000000000000000000000000000000000600052601160045260246000fd5b6000612fb6826123e1565b91507fffffffffffffffffffffffffffffffffffffffffffffffffffffffffffffffff8203612fe857612fe7612f7c565b5b600182019050919050565b60006080820190506130086000830187612328565b818103602083015261301a8186612109565b9050818103604083015261302e8185612109565b905061303d60608301846123eb565b95945050505050565b7f50726f6a65637420616c72656164792065786973747300000000000000000000600082015250565b600061307c6016836120bd565b915061308782613046565b602082019050919050565b600060208201905081810360008301526130ab8161306f565b9050919050565b7f50726f6a656374206e616d652069732072657175697265640000000000000000600082015250565b60006130e86018836120bd565b91506130f3826130b2565b602082019050919050565b60006020820190508181036000830152613117816130db565b9050919050565b7f50726f6a65637420494420697320726571756972656400000000000000000000600082015250565b60006131546016836120bd565b915061315f8261311e565b602082019050919050565b6000602082019050818103600083015261318381613147565b9050919050565b600060408201905081810360008301526131a48185612109565b905081810360208301526131b88184612109565b90509392505050565b600080fd5b82818337505050565b60006131db8385612678565b93507f07ffffffffffffffffffffffffffffffffffffffffffffffffffffffffffffff83111561320e5761320d6131c1565b5b60208302925061321f8385846131c6565b82840190509392505050565b600060408201905061324060008301866123eb565b81810360208301526132538184866131cf565b9050949350505050565b7f4e487b7100000000000000000000000000000000000000000000000000000000600052603260045260246000fd5b7f4e487b7100000000000000000000000000000000000000000000000000000000600052601260045260246000fd5b60006132c6826123e1565b91506132d1836123e1565b9250826132e1576132e061328c565b5b828206905092915050565b60006132f78261259a565b9050919050565b613307816132ec565b82525050565b600060608201905061332260008301866132fe565b61332f60208301856123eb565b61333c60408301846123eb565b949350505050565b7f4e6f20766f7465727320746f2072657761726400000000000000000000000000600082015250565b600061337a6013836120bd565b915061338582613344565b602082019050919050565b600060208201905081810360008301526133a98161336d565b9050919050565b7f4f6e6c792063616c6c61626c65206279206f776e657200000000000000000000600082015250565b60006133e66016836120bd565b91506133f1826133b0565b602082019050919050565b60006020820190508181036000830152613415816133d9565b9050919050565b7f43616e6e6f74207472616e7366657220746f2073656c66000000000000000000600082015250565b60006134526017836120bd565b915061345d8261341c565b602082019050919050565b6000602082019050818103600083015261348181613445565b9050919050565b6000819050919050565b61349b81613488565b82525050565b600061ffff82169050919050565b6134b8816134a1565b82525050565b600063ffffffff82169050919050565b6134d7816134be565b82525050565b600081519050919050565b600082825260208201905092915050565b6000613504826134dd565b61350e81856134e8565b935061351e8185602086016120ce565b613527816120f8565b840191505092915050565b600060c08301600083015161354a6000860182613492565b50602083015161355d6020860182612699565b50604083015161357060408601826134af565b50606083015161358360608601826134ce565b50608083015161359660808601826134ce565b5060a083015184820360a08601526135ae82826134f9565b9150508091505092915050565b600060208201905081810360008301526135d58184613532565b905092915050565b6000815190506135ec81612415565b92915050565b6000602082840312156136085761360761216e565b5b6000613616848285016135dd565b91505092915050565b613628816134be565b82525050565b600060408201905061364360008301856123eb565b613650602083018461361f565b9392505050565b613660816123ab565b82525050565b60208201600082015161367c6000850182613657565b50505050565b60006020820190506136976000830184613666565b9291505056fea2646970667358221220db0738b4e8f8689cfef03fec6cd5cb2089680ad3fc8aed08c065d0422f767d9064736f6c63430008140033",
          "opcodes": "PUSH1 0x80 PUSH1 0x40 MSTORE PUSH8 0x16345785D8A0000 PUSH1 0xA SSTORE PUSH1 0x1 PUSH1 0xB SSTORE PUSH3 0x186A0 PUSH1 0xF PUSH1 0x0 PUSH2 0x100 EXP DUP2 SLOAD DUP2 PUSH4 0xFFFFFFFF MUL NOT AND SWAP1 DUP4 PUSH4 0xFFFFFFFF AND MUL OR SWAP1 SSTORE POP PUSH1 0x3 PUSH1 0xF PUSH1 0x4 PUSH2 0x100 EXP DUP2 SLOAD DUP2 PUSH2 0xFFFF MUL NOT AND SWAP1 DUP4 PUSH2 0xFFFF AND MUL OR SWAP1 SSTORE POP PUSH1 0x1 PUSH1 0xF PUSH1 0x6 PUSH2 0x100 EXP DUP2 SLOAD DUP2 PUSH4 0xFFFFFFFF MUL NOT AND SWAP1 DUP4 PUSH4 0xFFFFFFFF AND MUL OR SWAP1 SSTORE POP CALLVALUE DUP1 ISZERO PUSH3 0x86 JUMPI PUSH1 0x0 DUP1 REVERT JUMPDEST POP PUSH1 0x40 MLOAD PUSH3 0x3CAF CODESIZE SUB DUP1 PUSH3 0x3CAF DUP4 CODECOPY DUP2 DUP2 ADD PUSH1 0x40 MSTORE DUP2 ADD SWAP1 PUSH3 0xAC SWAP2 SWAP1 PUSH3 0x47B JUMP JUMPDEST DUP3 CALLER DUP1 PUSH1 0x0 DUP1 PUSH20 0xFFFFFFFFFFFFFFFFFFFFFFFFFFFFFFFFFFFFFFFF AND DUP3 PUSH20 0xFFFFFFFFFFFFFFFFFFFFFFFFFFFFFFFFFFFFFFFF AND SUB PUSH3 0x122 JUMPI PUSH1 0x40 MLOAD PUSH32 0x8C379A000000000000000000000000000000000000000000000000000000000 DUP2 MSTORE PUSH1 0x4 ADD PUSH3 0x119 SWAP1 PUSH3 0x538 JUMP JUMPDEST PUSH1 0x40 MLOAD DUP1 SWAP2 SUB SWAP1 REVERT JUMPDEST DUP2 PUSH1 0x0 DUP1 PUSH2 0x100 EXP DUP2 SLOAD DUP2 PUSH20 0xFFFFFFFFFFFFFFFFFFFFFFFFFFFFFFFFFFFFFFFF MUL NOT AND SWAP1 DUP4 PUSH20 0xFFFFFFFFFFFFFFFFFFFFFFFFFFFFFFFFFFFFFFFF AND MUL OR SWAP1 SSTORE POP PUSH1 0x0 PUSH20 0xFFFFFFFFFFFFFFFFFFFFFFFFFFFFFFFFFFFFFFFF AND DUP2 PUSH20 0xFFFFFFFFFFFFFFFFFFFFFFFFFFFFFFFFFFFFFFFF AND EQ PUSH3 0x1A9 JUMPI PUSH3 0x1A8 DUP2 PUSH3 0x26C PUSH1 0x20 SHL PUSH1 0x20 SHR JUMP JUMPDEST JUMPDEST POP POP POP PUSH1 0x0 PUSH20 0xFFFFFFFFFFFFFFFFFFFFFFFFFFFFFFFFFFFFFFFF AND DUP2 PUSH20 0xFFFFFFFFFFFFFFFFFFFFFFFFFFFFFFFFFFFFFFFF AND SUB PUSH3 0x213 JUMPI PUSH1 0x40 MLOAD PUSH32 0xD92E233D00000000000000000000000000000000000000000000000000000000 DUP2 MSTORE PUSH1 0x4 ADD PUSH1 0x40 MLOAD DUP1 SWAP2 SUB SWAP1 REVERT JUMPDEST DUP1 PUSH1 0x2 PUSH1 0x0 PUSH2 0x100 EXP DUP2 SLOAD DUP2 PUSH20 0xFFFFFFFFFFFFFFFFFFFFFFFFFFFFFFFFFFFFFFFF MUL NOT AND SWAP1 DUP4 PUSH20 0xFFFFFFFFFFFFFFFFFFFFFFFFFFFFFFFFFFFFFFFF AND MUL OR SWAP1 SSTORE POP POP DUP2 PUSH1 0xD DUP2 SWAP1 SSTORE POP DUP1 PUSH1 0xE DUP2 SWAP1 SSTORE POP POP POP POP PUSH3 0x5CC JUMP JUMPDEST CALLER PUSH20 0xFFFFFFFFFFFFFFFFFFFFFFFFFFFFFFFFFFFFFFFF AND DUP2 PUSH20 0xFFFFFFFFFFFFFFFFFFFFFFFFFFFFFFFFFFFFFFFF AND SUB PUSH3 0x2DD JUMPI PUSH1 0x40 MLOAD PUSH32 0x8C379A000000000000000000000000000000000000000000000000000000000 DUP2 MSTORE PUSH1 0x4 ADD PUSH3 0x2D4 SWAP1 PUSH3 0x5AA JUMP JUMPDEST PUSH1 0x40 MLOAD DUP1 SWAP2 SUB SWAP1 REVERT JUMPDEST DUP1 PUSH1 0x1 PUSH1 0x0 PUSH2 0x100 EXP DUP2 SLOAD DUP2 PUSH20 0xFFFFFFFFFFFFFFFFFFFFFFFFFFFFFFFFFFFFFFFF MUL NOT AND SWAP1 DUP4 PUSH20 0xFFFFFFFFFFFFFFFFFFFFFFFFFFFFFFFFFFFFFFFF AND MUL OR SWAP1 SSTORE POP DUP1 PUSH20 0xFFFFFFFFFFFFFFFFFFFFFFFFFFFFFFFFFFFFFFFF AND PUSH1 0x0 DUP1 SLOAD SWAP1 PUSH2 0x100 EXP SWAP1 DIV PUSH20 0xFFFFFFFFFFFFFFFFFFFFFFFFFFFFFFFFFFFFFFFF AND PUSH20 0xFFFFFFFFFFFFFFFFFFFFFFFFFFFFFFFFFFFFFFFF AND PUSH32 0xED8889F560326EB138920D842192F0EB3DD22B4F139C87A2C57538E05BAE1278 PUSH1 0x40 MLOAD PUSH1 0x40 MLOAD DUP1 SWAP2 SUB SWAP1 LOG3 POP JUMP JUMPDEST PUSH1 0x0 DUP1 REVERT JUMPDEST PUSH1 0x0 PUSH20 0xFFFFFFFFFFFFFFFFFFFFFFFFFFFFFFFFFFFFFFFF DUP3 AND SWAP1 POP SWAP2 SWAP1 POP JUMP JUMPDEST PUSH1 0x0 PUSH3 0x3CD DUP3 PUSH3 0x3A0 JUMP JUMPDEST SWAP1 POP SWAP2 SWAP1 POP JUMP JUMPDEST PUSH3 0x3DF DUP2 PUSH3 0x3C0 JUMP JUMPDEST DUP2 EQ PUSH3 0x3EB JUMPI PUSH1 0x0 DUP1 REVERT JUMPDEST POP JUMP JUMPDEST PUSH1 0x0 DUP2 MLOAD SWAP1 POP PUSH3 0x3FF DUP2 PUSH3 0x3D4 JUMP JUMPDEST SWAP3 SWAP2 POP POP JUMP JUMPDEST PUSH1 0x0 DUP2 SWAP1 POP SWAP2 SWAP1 POP JUMP JUMPDEST PUSH3 0x41A DUP2 PUSH3 0x405 JUMP JUMPDEST DUP2 EQ PUSH3 0x426 JUMPI PUSH1 0x0 DUP1 REVERT JUMPDEST POP JUMP JUMPDEST PUSH1 0x0 DUP2 MLOAD SWAP1 POP PUSH3 0x43A DUP2 PUSH3 0x40F JUMP JUMPDEST SWAP3 SWAP2 POP POP JUMP JUMPDEST PUSH1 0x0 DUP2 SWAP1 POP SWAP2 SWAP1 POP JUMP JUMPDEST PUSH3 0x455 DUP2 PUSH3 0x440 JUMP JUMPDEST DUP2 EQ PUSH3 0x461 JUMPI PUSH1 0x0 DUP1 REVERT JUMPDEST POP JUMP JUMPDEST PUSH1 0x0 DUP2 MLOAD SWAP1 POP PUSH3 0x475 DUP2 PUSH3 0x44A JUMP JUMPDEST SWAP3 SWAP2 POP POP JUMP JUMPDEST PUSH1 0x0 DUP1 PUSH1 0x0 PUSH1 0x60 DUP5 DUP7 SUB SLT ISZERO PUSH3 0x497 JUMPI PUSH3 0x496 PUSH3 0x39B JUMP JUMPDEST JUMPDEST PUSH1 0x0 PUSH3 0x4A7 DUP7 DUP3 DUP8 ADD PUSH3 0x3EE JUMP JUMPDEST SWAP4 POP POP PUSH1 0x20 PUSH3 0x4BA DUP7 DUP3 DUP8 ADD PUSH3 0x429 JUMP JUMPDEST SWAP3 POP POP PUSH1 0x40 PUSH3 0x4CD DUP7 DUP3 DUP8 ADD PUSH3 0x464 JUMP JUMPDEST SWAP2 POP POP SWAP3 POP SWAP3 POP SWAP3 JUMP JUMPDEST PUSH1 0x0 DUP3 DUP3 MSTORE PUSH1 0x20 DUP3 ADD SWAP1 POP SWAP3 SWAP2 POP POP JUMP JUMPDEST PUSH32 0x43616E6E6F7420736574206F776E657220746F207A65726F0000000000000000 PUSH1 0x0 DUP3 ADD MSTORE POP JUMP JUMPDEST PUSH1 0x0 PUSH3 0x520 PUSH1 0x18 DUP4 PUSH3 0x4D7 JUMP JUMPDEST SWAP2 POP PUSH3 0x52D DUP3 PUSH3 0x4E8 JUMP JUMPDEST PUSH1 0x20 DUP3 ADD SWAP1 POP SWAP2 SWAP1 POP JUMP JUMPDEST PUSH1 0x0 PUSH1 0x20 DUP3 ADD SWAP1 POP DUP2 DUP2 SUB PUSH1 0x0 DUP4 ADD MSTORE PUSH3 0x553 DUP2 PUSH3 0x511 JUMP JUMPDEST SWAP1 POP SWAP2 SWAP1 POP JUMP JUMPDEST PUSH32 0x43616E6E6F74207472616E7366657220746F2073656C66000000000000000000 PUSH1 0x0 DUP3 ADD MSTORE POP JUMP JUMPDEST PUSH1 0x0 PUSH3 0x592 PUSH1 0x17 DUP4 PUSH3 0x4D7 JUMP JUMPDEST SWAP2 POP PUSH3 0x59F DUP3 PUSH3 0x55A JUMP JUMPDEST PUSH1 0x20 DUP3 ADD SWAP1 POP SWAP2 SWAP1 POP JUMP JUMPDEST PUSH1 0x0 PUSH1 0x20 DUP3 ADD SWAP1 POP DUP2 DUP2 SUB PUSH1 0x0 DUP4 ADD MSTORE PUSH3 0x5C5 DUP2 PUSH3 0x583 JUMP JUMPDEST SWAP1 POP SWAP2 SWAP1 POP JUMP JUMPDEST PUSH2 0x36D3 DUP1 PUSH3 0x5DC PUSH1 0x0 CODECOPY PUSH1 0x0 RETURN INVALID PUSH1 0x80 PUSH1 0x40 MSTORE PUSH1 0x4 CALLDATASIZE LT PUSH2 0x1B7 JUMPI PUSH1 0x0 CALLDATALOAD PUSH1 0xE0 SHR DUP1 PUSH4 0x91C9B268 GT PUSH2 0xEC JUMPI DUP1 PUSH4 0xE2A04B62 GT PUSH2 0x8A JUMPI DUP1 PUSH4 0xE8D5940D GT PUSH2 0x64 JUMPI DUP1 PUSH4 0xE8D5940D EQ PUSH2 0x672 JUMPI DUP1 PUSH4 0xEBDF86CA EQ PUSH2 0x68E JUMPI DUP1 PUSH4 0xF2FDE38B EQ PUSH2 0x6B7 JUMPI DUP1 PUSH4 0xFC2A88C3 EQ PUSH2 0x6E0 JUMPI PUSH2 0x1B7 JUMP JUMPDEST DUP1 PUSH4 0xE2A04B62 EQ PUSH2 0x5CD JUMPI DUP1 PUSH4 0xE75235B8 EQ PUSH2 0x60A JUMPI DUP1 PUSH4 0xE7F72F10 EQ PUSH2 0x635 JUMPI PUSH2 0x1B7 JUMP JUMPDEST DUP1 PUSH4 0xA9382125 GT PUSH2 0xC6 JUMPI DUP1 PUSH4 0xA9382125 EQ PUSH2 0x4FC JUMPI DUP1 PUSH4 0xBAB2F552 EQ PUSH2 0x539 JUMPI DUP1 PUSH4 0xD8A4676F EQ PUSH2 0x564 JUMPI DUP1 PUSH4 0xDCC60128 EQ PUSH2 0x5A2 JUMPI PUSH2 0x1B7 JUMP JUMPDEST DUP1 PUSH4 0x91C9B268 EQ PUSH2 0x456 JUMPI DUP1 PUSH4 0x9ECCACF6 EQ PUSH2 0x493 JUMPI DUP1 PUSH4 0xA168FA89 EQ PUSH2 0x4BE JUMPI PUSH2 0x1B7 JUMP JUMPDEST DUP1 PUSH4 0x6428A486 GT PUSH2 0x159 JUMPI DUP1 PUSH4 0x79BA5097 GT PUSH2 0x133 JUMPI DUP1 PUSH4 0x79BA5097 EQ PUSH2 0x3AE JUMPI DUP1 PUSH4 0x8796BA8C EQ PUSH2 0x3C5 JUMPI DUP1 PUSH4 0x8DA5CB5B EQ PUSH2 0x402 JUMPI DUP1 PUSH4 0x8EA98117 EQ PUSH2 0x42D JUMPI PUSH2 0x1B7 JUMP JUMPDEST DUP1 PUSH4 0x6428A486 EQ PUSH2 0x31D JUMPI DUP1 PUSH4 0x655BCE22 EQ PUSH2 0x346 JUMPI DUP1 PUSH4 0x71C8FDBD EQ PUSH2 0x371 JUMPI PUSH2 0x1B7 JUMP JUMPDEST DUP1 PUSH4 0x12065FE0 GT PUSH2 0x195 JUMPI DUP1 PUSH4 0x12065FE0 EQ PUSH2 0x261 JUMPI DUP1 PUSH4 0x1234CE9D EQ PUSH2 0x28C JUMPI DUP1 PUSH4 0x12FE56E5 EQ PUSH2 0x2B7 JUMPI DUP1 PUSH4 0x1FE543E3 EQ PUSH2 0x2F4 JUMPI PUSH2 0x1B7 JUMP JUMPDEST DUP1 PUSH4 0x242F351 EQ PUSH2 0x1BC JUMPI DUP1 PUSH4 0x8D88AAD EQ PUSH2 0x1E7 JUMPI DUP1 PUSH4 0x9EEF43E EQ PUSH2 0x224 JUMPI JUMPDEST PUSH1 0x0 DUP1 REVERT JUMPDEST CALLVALUE DUP1 ISZERO PUSH2 0x1C8 JUMPI PUSH1 0x0 DUP1 REVERT JUMPDEST POP PUSH2 0x1D1 PUSH2 0x70B JUMP JUMPDEST PUSH1 0x40 MLOAD PUSH2 0x1DE SWAP2 SWAP1 PUSH2 0x2142 JUMP JUMPDEST PUSH1 0x40 MLOAD DUP1 SWAP2 SUB SWAP1 RETURN JUMPDEST CALLVALUE DUP1 ISZERO PUSH2 0x1F3 JUMPI PUSH1 0x0 DUP1 REVERT JUMPDEST POP PUSH2 0x20E PUSH1 0x4 DUP1 CALLDATASIZE SUB DUP2 ADD SWAP1 PUSH2 0x209 SWAP2 SWAP1 PUSH2 0x22AD JUMP JUMPDEST PUSH2 0x7DA JUMP JUMPDEST PUSH1 0x40 MLOAD PUSH2 0x21B SWAP2 SWAP1 PUSH2 0x2337 JUMP JUMPDEST PUSH1 0x40 MLOAD DUP1 SWAP2 SUB SWAP1 RETURN JUMPDEST CALLVALUE DUP1 ISZERO PUSH2 0x230 JUMPI PUSH1 0x0 DUP1 REVERT JUMPDEST POP PUSH2 0x24B PUSH1 0x4 DUP1 CALLDATASIZE SUB DUP2 ADD SWAP1 PUSH2 0x246 SWAP2 SWAP1 PUSH2 0x237E JUMP JUMPDEST PUSH2 0x823 JUMP JUMPDEST PUSH1 0x40 MLOAD PUSH2 0x258 SWAP2 SWAP1 PUSH2 0x23C6 JUMP JUMPDEST PUSH1 0x40 MLOAD DUP1 SWAP2 SUB SWAP1 RETURN JUMPDEST CALLVALUE DUP1 ISZERO PUSH2 0x26D JUMPI PUSH1 0x0 DUP1 REVERT JUMPDEST POP PUSH2 0x276 PUSH2 0x843 JUMP JUMPDEST PUSH1 0x40 MLOAD PUSH2 0x283 SWAP2 SWAP1 PUSH2 0x23FA JUMP JUMPDEST PUSH1 0x40 MLOAD DUP1 SWAP2 SUB SWAP1 RETURN JUMPDEST CALLVALUE DUP1 ISZERO PUSH2 0x298 JUMPI PUSH1 0x0 DUP1 REVERT JUMPDEST POP PUSH2 0x2A1 PUSH2 0x84B JUMP JUMPDEST PUSH1 0x40 MLOAD PUSH2 0x2AE SWAP2 SWAP1 PUSH2 0x23C6 JUMP JUMPDEST PUSH1 0x40 MLOAD DUP1 SWAP2 SUB SWAP1 RETURN JUMPDEST CALLVALUE DUP1 ISZERO PUSH2 0x2C3 JUMPI PUSH1 0x0 DUP1 REVERT JUMPDEST POP PUSH2 0x2DE PUSH1 0x4 DUP1 CALLDATASIZE SUB DUP2 ADD SWAP1 PUSH2 0x2D9 SWAP2 SWAP1 PUSH2 0x2441 JUMP JUMPDEST PUSH2 0x89F JUMP JUMPDEST PUSH1 0x40 MLOAD PUSH2 0x2EB SWAP2 SWAP1 PUSH2 0x2337 JUMP JUMPDEST PUSH1 0x40 MLOAD DUP1 SWAP2 SUB SWAP1 RETURN JUMPDEST CALLVALUE DUP1 ISZERO PUSH2 0x300 JUMPI PUSH1 0x0 DUP1 REVERT JUMPDEST POP PUSH2 0x31B PUSH1 0x4 DUP1 CALLDATASIZE SUB DUP2 ADD SWAP1 PUSH2 0x316 SWAP2 SWAP1 PUSH2 0x24E1 JUMP JUMPDEST PUSH2 0x8ED JUMP JUMPDEST STOP JUMPDEST CALLVALUE DUP1 ISZERO PUSH2 0x329 JUMPI PUSH1 0x0 DUP1 REVERT JUMPDEST POP PUSH2 0x344 PUSH1 0x4 DUP1 CALLDATASIZE SUB DUP2 ADD SWAP1 PUSH2 0x33F SWAP2 SWAP1 PUSH2 0x22AD JUMP JUMPDEST PUSH2 0x9B3 JUMP JUMPDEST STOP JUMPDEST CALLVALUE DUP1 ISZERO PUSH2 0x352 JUMPI PUSH1 0x0 DUP1 REVERT JUMPDEST POP PUSH2 0x35B PUSH2 0xB53 JUMP JUMPDEST PUSH1 0x40 MLOAD PUSH2 0x368 SWAP2 SWAP1 PUSH2 0x23FA JUMP JUMPDEST PUSH1 0x40 MLOAD DUP1 SWAP2 SUB SWAP1 RETURN JUMPDEST CALLVALUE DUP1 ISZERO PUSH2 0x37D JUMPI PUSH1 0x0 DUP1 REVERT JUMPDEST POP PUSH2 0x398 PUSH1 0x4 DUP1 CALLDATASIZE SUB DUP2 ADD SWAP1 PUSH2 0x393 SWAP2 SWAP1 PUSH2 0x22AD JUMP JUMPDEST PUSH2 0xB5D JUMP JUMPDEST PUSH1 0x40 MLOAD PUSH2 0x3A5 SWAP2 SWAP1 PUSH2 0x23FA JUMP JUMPDEST PUSH1 0x40 MLOAD DUP1 SWAP2 SUB SWAP1 RETURN JUMPDEST CALLVALUE DUP1 ISZERO PUSH2 0x3BA JUMPI PUSH1 0x0 DUP1 REVERT JUMPDEST POP PUSH2 0x3C3 PUSH2 0xB98 JUMP JUMPDEST STOP JUMPDEST CALLVALUE DUP1 ISZERO PUSH2 0x3D1 JUMPI PUSH1 0x0 DUP1 REVERT JUMPDEST POP PUSH2 0x3EC PUSH1 0x4 DUP1 CALLDATASIZE SUB DUP2 ADD SWAP1 PUSH2 0x3E7 SWAP2 SWAP1 PUSH2 0x2541 JUMP JUMPDEST PUSH2 0xD2D JUMP JUMPDEST PUSH1 0x40 MLOAD PUSH2 0x3F9 SWAP2 SWAP1 PUSH2 0x23FA JUMP JUMPDEST PUSH1 0x40 MLOAD DUP1 SWAP2 SUB SWAP1 RETURN JUMPDEST CALLVALUE DUP1 ISZERO PUSH2 0x40E JUMPI PUSH1 0x0 DUP1 REVERT JUMPDEST POP PUSH2 0x417 PUSH2 0xD51 JUMP JUMPDEST PUSH1 0x40 MLOAD PUSH2 0x424 SWAP2 SWAP1 PUSH2 0x2337 JUMP JUMPDEST PUSH1 0x40 MLOAD DUP1 SWAP2 SUB SWAP1 RETURN JUMPDEST CALLVALUE DUP1 ISZERO PUSH2 0x439 JUMPI PUSH1 0x0 DUP1 REVERT JUMPDEST POP PUSH2 0x454 PUSH1 0x4 DUP1 CALLDATASIZE SUB DUP2 ADD SWAP1 PUSH2 0x44F SWAP2 SWAP1 PUSH2 0x237E JUMP JUMPDEST PUSH2 0xD7A JUMP JUMPDEST STOP JUMPDEST CALLVALUE DUP1 ISZERO PUSH2 0x462 JUMPI PUSH1 0x0 DUP1 REVERT JUMPDEST POP PUSH2 0x47D PUSH1 0x4 DUP1 CALLDATASIZE SUB DUP2 ADD SWAP1 PUSH2 0x478 SWAP2 SWAP1 PUSH2 0x22AD JUMP JUMPDEST PUSH2 0xF5B JUMP JUMPDEST PUSH1 0x40 MLOAD PUSH2 0x48A SWAP2 SWAP1 PUSH2 0x2142 JUMP JUMPDEST PUSH1 0x40 MLOAD DUP1 SWAP2 SUB SWAP1 RETURN JUMPDEST CALLVALUE DUP1 ISZERO PUSH2 0x49F JUMPI PUSH1 0x0 DUP1 REVERT JUMPDEST POP PUSH2 0x4A8 PUSH2 0x1011 JUMP JUMPDEST PUSH1 0x40 MLOAD PUSH2 0x4B5 SWAP2 SWAP1 PUSH2 0x25CD JUMP JUMPDEST PUSH1 0x40 MLOAD DUP1 SWAP2 SUB SWAP1 RETURN JUMPDEST CALLVALUE DUP1 ISZERO PUSH2 0x4CA JUMPI PUSH1 0x0 DUP1 REVERT JUMPDEST POP PUSH2 0x4E5 PUSH1 0x4 DUP1 CALLDATASIZE SUB DUP2 ADD SWAP1 PUSH2 0x4E0 SWAP2 SWAP1 PUSH2 0x2541 JUMP JUMPDEST PUSH2 0x1037 JUMP JUMPDEST PUSH1 0x40 MLOAD PUSH2 0x4F3 SWAP3 SWAP2 SWAP1 PUSH2 0x25E8 JUMP JUMPDEST PUSH1 0x40 MLOAD DUP1 SWAP2 SUB SWAP1 RETURN JUMPDEST CALLVALUE DUP1 ISZERO PUSH2 0x508 JUMPI PUSH1 0x0 DUP1 REVERT JUMPDEST POP PUSH2 0x523 PUSH1 0x4 DUP1 CALLDATASIZE SUB DUP2 ADD SWAP1 PUSH2 0x51E SWAP2 SWAP1 PUSH2 0x2611 JUMP JUMPDEST PUSH2 0x1075 JUMP JUMPDEST PUSH1 0x40 MLOAD PUSH2 0x530 SWAP2 SWAP1 PUSH2 0x23FA JUMP JUMPDEST PUSH1 0x40 MLOAD DUP1 SWAP2 SUB SWAP1 RETURN JUMPDEST CALLVALUE DUP1 ISZERO PUSH2 0x545 JUMPI PUSH1 0x0 DUP1 REVERT JUMPDEST POP PUSH2 0x54E PUSH2 0x10B0 JUMP JUMPDEST PUSH1 0x40 MLOAD PUSH2 0x55B SWAP2 SWAP1 PUSH2 0x23FA JUMP JUMPDEST PUSH1 0x40 MLOAD DUP1 SWAP2 SUB SWAP1 RETURN JUMPDEST CALLVALUE DUP1 ISZERO PUSH2 0x570 JUMPI PUSH1 0x0 DUP1 REVERT JUMPDEST POP PUSH2 0x58B PUSH1 0x4 DUP1 CALLDATASIZE SUB DUP2 ADD SWAP1 PUSH2 0x586 SWAP2 SWAP1 PUSH2 0x2541 JUMP JUMPDEST PUSH2 0x10B6 JUMP JUMPDEST PUSH1 0x40 MLOAD PUSH2 0x599 SWAP3 SWAP2 SWAP1 PUSH2 0x272B JUMP JUMPDEST PUSH1 0x40 MLOAD DUP1 SWAP2 SUB SWAP1 RETURN JUMPDEST CALLVALUE DUP1 ISZERO PUSH2 0x5AE JUMPI PUSH1 0x0 DUP1 REVERT JUMPDEST POP PUSH2 0x5B7 PUSH2 0x11E1 JUMP JUMPDEST PUSH1 0x40 MLOAD PUSH2 0x5C4 SWAP2 SWAP1 PUSH2 0x2867 JUMP JUMPDEST PUSH1 0x40 MLOAD DUP1 SWAP2 SUB SWAP1 RETURN JUMPDEST CALLVALUE DUP1 ISZERO PUSH2 0x5D9 JUMPI PUSH1 0x0 DUP1 REVERT JUMPDEST POP PUSH2 0x5F4 PUSH1 0x4 DUP1 CALLDATASIZE SUB DUP2 ADD SWAP1 PUSH2 0x5EF SWAP2 SWAP1 PUSH2 0x237E JUMP JUMPDEST PUSH2 0x12BA JUMP JUMPDEST PUSH1 0x40 MLOAD PUSH2 0x601 SWAP2 SWAP1 PUSH2 0x2142 JUMP JUMPDEST PUSH1 0x40 MLOAD DUP1 SWAP2 SUB SWAP1 RETURN JUMPDEST CALLVALUE DUP1 ISZERO PUSH2 0x616 JUMPI PUSH1 0x0 DUP1 REVERT JUMPDEST POP PUSH2 0x61F PUSH2 0x135A JUMP JUMPDEST PUSH1 0x40 MLOAD PUSH2 0x62C SWAP2 SWAP1 PUSH2 0x23FA JUMP JUMPDEST PUSH1 0x40 MLOAD DUP1 SWAP2 SUB SWAP1 RETURN JUMPDEST CALLVALUE DUP1 ISZERO PUSH2 0x641 JUMPI PUSH1 0x0 DUP1 REVERT JUMPDEST POP PUSH2 0x65C PUSH1 0x4 DUP1 CALLDATASIZE SUB DUP2 ADD SWAP1 PUSH2 0x657 SWAP2 SWAP1 PUSH2 0x237E JUMP JUMPDEST PUSH2 0x1364 JUMP JUMPDEST PUSH1 0x40 MLOAD PUSH2 0x669 SWAP2 SWAP1 PUSH2 0x2142 JUMP JUMPDEST PUSH1 0x40 MLOAD DUP1 SWAP2 SUB SWAP1 RETURN JUMPDEST PUSH2 0x68C PUSH1 0x4 DUP1 CALLDATASIZE SUB DUP2 ADD SWAP1 PUSH2 0x687 SWAP2 SWAP1 PUSH2 0x2889 JUMP JUMPDEST PUSH2 0x1404 JUMP JUMPDEST STOP JUMPDEST CALLVALUE DUP1 ISZERO PUSH2 0x69A JUMPI PUSH1 0x0 DUP1 REVERT JUMPDEST POP PUSH2 0x6B5 PUSH1 0x4 DUP1 CALLDATASIZE SUB DUP2 ADD SWAP1 PUSH2 0x6B0 SWAP2 SWAP1 PUSH2 0x2889 JUMP JUMPDEST PUSH2 0x16BB JUMP JUMPDEST STOP JUMPDEST CALLVALUE DUP1 ISZERO PUSH2 0x6C3 JUMPI PUSH1 0x0 DUP1 REVERT JUMPDEST POP PUSH2 0x6DE PUSH1 0x4 DUP1 CALLDATASIZE SUB DUP2 ADD SWAP1 PUSH2 0x6D9 SWAP2 SWAP1 PUSH2 0x237E JUMP JUMPDEST PUSH2 0x1856 JUMP JUMPDEST STOP JUMPDEST CALLVALUE DUP1 ISZERO PUSH2 0x6EC JUMPI PUSH1 0x0 DUP1 REVERT JUMPDEST POP PUSH2 0x6F5 PUSH2 0x186A JUMP JUMPDEST PUSH1 0x40 MLOAD PUSH2 0x702 SWAP2 SWAP1 PUSH2 0x23FA JUMP JUMPDEST PUSH1 0x40 MLOAD DUP1 SWAP2 SUB SWAP1 RETURN JUMPDEST PUSH1 0x60 PUSH1 0x6 PUSH1 0x0 CALLER PUSH20 0xFFFFFFFFFFFFFFFFFFFFFFFFFFFFFFFFFFFFFFFF AND PUSH20 0xFFFFFFFFFFFFFFFFFFFFFFFFFFFFFFFFFFFFFFFF AND DUP2 MSTORE PUSH1 0x20 ADD SWAP1 DUP2 MSTORE PUSH1 0x20 ADD PUSH1 0x0 KECCAK256 DUP1 SLOAD PUSH2 0x757 SWAP1 PUSH2 0x2930 JUMP JUMPDEST DUP1 PUSH1 0x1F ADD PUSH1 0x20 DUP1 SWAP2 DIV MUL PUSH1 0x20 ADD PUSH1 0x40 MLOAD SWAP1 DUP2 ADD PUSH1 0x40 MSTORE DUP1 SWAP3 SWAP2 SWAP1 DUP2 DUP2 MSTORE PUSH1 0x20 ADD DUP3 DUP1 SLOAD PUSH2 0x783 SWAP1 PUSH2 0x2930 JUMP JUMPDEST DUP1 ISZERO PUSH2 0x7D0 JUMPI DUP1 PUSH1 0x1F LT PUSH2 0x7A5 JUMPI PUSH2 0x100 DUP1 DUP4 SLOAD DIV MUL DUP4 MSTORE SWAP2 PUSH1 0x20 ADD SWAP2 PUSH2 0x7D0 JUMP JUMPDEST DUP3 ADD SWAP2 SWAP1 PUSH1 0x0 MSTORE PUSH1 0x20 PUSH1 0x0 KECCAK256 SWAP1 JUMPDEST DUP2 SLOAD DUP2 MSTORE SWAP1 PUSH1 0x1 ADD SWAP1 PUSH1 0x20 ADD DUP1 DUP4 GT PUSH2 0x7B3 JUMPI DUP3 SWAP1 SUB PUSH1 0x1F AND DUP3 ADD SWAP2 JUMPDEST POP POP POP POP POP SWAP1 POP SWAP1 JUMP JUMPDEST PUSH1 0x4 DUP2 DUP1 MLOAD PUSH1 0x20 DUP2 ADD DUP3 ADD DUP1 MLOAD DUP5 DUP3 MSTORE PUSH1 0x20 DUP4 ADD PUSH1 0x20 DUP6 ADD KECCAK256 DUP2 DUP4 MSTORE DUP1 SWAP6 POP POP POP POP POP POP PUSH1 0x0 SWAP2 POP SLOAD SWAP1 PUSH2 0x100 EXP SWAP1 DIV PUSH20 0xFFFFFFFFFFFFFFFFFFFFFFFFFFFFFFFFFFFFFFFF AND DUP2 JUMP JUMPDEST PUSH1 0x9 PUSH1 0x20 MSTORE DUP1 PUSH1 0x0 MSTORE PUSH1 0x40 PUSH1 0x0 KECCAK256 PUSH1 0x0 SWAP2 POP SLOAD SWAP1 PUSH2 0x100 EXP SWAP1 DIV PUSH1 0xFF AND DUP2 JUMP JUMPDEST PUSH1 0x0 SELFBALANCE SWAP1 POP SWAP1 JUMP JUMPDEST PUSH1 0x0 PUSH1 0x9 PUSH1 0x0 CALLER PUSH20 0xFFFFFFFFFFFFFFFFFFFFFFFFFFFFFFFFFFFFFFFF AND PUSH20 0xFFFFFFFFFFFFFFFFFFFFFFFFFFFFFFFFFFFFFFFF AND DUP2 MSTORE PUSH1 0x20 ADD SWAP1 DUP2 MSTORE PUSH1 0x20 ADD PUSH1 0x0 KECCAK256 PUSH1 0x0 SWAP1 SLOAD SWAP1 PUSH2 0x100 EXP SWAP1 DIV PUSH1 0xFF AND SWAP1 POP SWAP1 JUMP JUMPDEST PUSH1 0x7 PUSH1 0x20 MSTORE DUP2 PUSH1 0x0 MSTORE PUSH1 0x40 PUSH1 0x0 KECCAK256 DUP2 DUP2 SLOAD DUP2 LT PUSH2 0x8BB JUMPI PUSH1 0x0 DUP1 REVERT JUMPDEST SWAP1 PUSH1 0x0 MSTORE PUSH1 0x20 PUSH1 0x0 KECCAK256 ADD PUSH1 0x0 SWAP2 POP SWAP2 POP SWAP1 SLOAD SWAP1 PUSH2 0x100 EXP SWAP1 DIV PUSH20 0xFFFFFFFFFFFFFFFFFFFFFFFFFFFFFFFFFFFFFFFF AND DUP2 JUMP JUMPDEST PUSH1 0x2 PUSH1 0x0 SWAP1 SLOAD SWAP1 PUSH2 0x100 EXP SWAP1 DIV PUSH20 0xFFFFFFFFFFFFFFFFFFFFFFFFFFFFFFFFFFFFFFFF AND PUSH20 0xFFFFFFFFFFFFFFFFFFFFFFFFFFFFFFFFFFFFFFFF AND CALLER PUSH20 0xFFFFFFFFFFFFFFFFFFFFFFFFFFFFFFFFFFFFFFFF AND EQ PUSH2 0x9A3 JUMPI CALLER PUSH1 0x2 PUSH1 0x0 SWAP1 SLOAD SWAP1 PUSH2 0x100 EXP SWAP1 DIV PUSH20 0xFFFFFFFFFFFFFFFFFFFFFFFFFFFFFFFFFFFFFFFF AND PUSH1 0x40 MLOAD PUSH32 0x1CF993F400000000000000000000000000000000000000000000000000000000 DUP2 MSTORE PUSH1 0x4 ADD PUSH2 0x99A SWAP3 SWAP2 SWAP1 PUSH2 0x2961 JUMP JUMPDEST PUSH1 0x40 MLOAD DUP1 SWAP2 SUB SWAP1 REVERT JUMPDEST PUSH2 0x9AE DUP4 DUP4 DUP4 PUSH2 0x1870 JUMP JUMPDEST POP POP POP JUMP JUMPDEST PUSH1 0x0 PUSH1 0x4 DUP3 PUSH1 0x40 MLOAD PUSH2 0x9C5 SWAP2 SWAP1 PUSH2 0x29C6 JUMP JUMPDEST SWAP1 DUP2 MSTORE PUSH1 0x20 ADD PUSH1 0x40 MLOAD DUP1 SWAP2 SUB SWAP1 KECCAK256 PUSH1 0x0 SWAP1 SLOAD SWAP1 PUSH2 0x100 EXP SWAP1 DIV PUSH20 0xFFFFFFFFFFFFFFFFFFFFFFFFFFFFFFFFFFFFFFFF AND SWAP1 POP PUSH1 0x0 PUSH20 0xFFFFFFFFFFFFFFFFFFFFFFFFFFFFFFFFFFFFFFFF AND DUP2 PUSH20 0xFFFFFFFFFFFFFFFFFFFFFFFFFFFFFFFFFFFFFFFF AND EQ PUSH2 0xA65 JUMPI PUSH1 0x40 MLOAD PUSH32 0x8C379A000000000000000000000000000000000000000000000000000000000 DUP2 MSTORE PUSH1 0x4 ADD PUSH2 0xA5C SWAP1 PUSH2 0x2A29 JUMP JUMPDEST PUSH1 0x40 MLOAD DUP1 SWAP2 SUB SWAP1 REVERT JUMPDEST PUSH1 0x9 PUSH1 0x0 CALLER PUSH20 0xFFFFFFFFFFFFFFFFFFFFFFFFFFFFFFFFFFFFFFFF AND PUSH20 0xFFFFFFFFFFFFFFFFFFFFFFFFFFFFFFFFFFFFFFFF AND DUP2 MSTORE PUSH1 0x20 ADD SWAP1 DUP2 MSTORE PUSH1 0x20 ADD PUSH1 0x0 KECCAK256 PUSH1 0x0 SWAP1 SLOAD SWAP1 PUSH2 0x100 EXP SWAP1 DIV PUSH1 0xFF AND ISZERO PUSH2 0xAF2 JUMPI PUSH1 0x40 MLOAD PUSH32 0x8C379A000000000000000000000000000000000000000000000000000000000 DUP2 MSTORE PUSH1 0x4 ADD PUSH2 0xAE9 SWAP1 PUSH2 0x2A95 JUMP JUMPDEST PUSH1 0x40 MLOAD DUP1 SWAP2 SUB SWAP1 REVERT JUMPDEST CALLER PUSH1 0x4 DUP4 PUSH1 0x40 MLOAD PUSH2 0xB03 SWAP2 SWAP1 PUSH2 0x29C6 JUMP JUMPDEST SWAP1 DUP2 MSTORE PUSH1 0x20 ADD PUSH1 0x40 MLOAD DUP1 SWAP2 SUB SWAP1 KECCAK256 PUSH1 0x0 PUSH2 0x100 EXP DUP2 SLOAD DUP2 PUSH20 0xFFFFFFFFFFFFFFFFFFFFFFFFFFFFFFFFFFFFFFFF MUL NOT AND SWAP1 DUP4 PUSH20 0xFFFFFFFFFFFFFFFFFFFFFFFFFFFFFFFFFFFFFFFF AND MUL OR SWAP1 SSTORE POP POP POP JUMP JUMPDEST PUSH1 0x0 PUSH1 0xB SLOAD SWAP1 POP SWAP1 JUMP JUMPDEST PUSH1 0x0 PUSH1 0x3 PUSH1 0x0 PUSH1 0xB SLOAD DUP2 MSTORE PUSH1 0x20 ADD SWAP1 DUP2 MSTORE PUSH1 0x20 ADD PUSH1 0x0 KECCAK256 DUP3 PUSH1 0x40 MLOAD PUSH2 0xB82 SWAP2 SWAP1 PUSH2 0x29C6 JUMP JUMPDEST SWAP1 DUP2 MSTORE PUSH1 0x20 ADD PUSH1 0x40 MLOAD DUP1 SWAP2 SUB SWAP1 KECCAK256 SLOAD SWAP1 POP SWAP2 SWAP1 POP JUMP JUMPDEST PUSH1 0x1 PUSH1 0x0 SWAP1 SLOAD SWAP1 PUSH2 0x100 EXP SWAP1 DIV PUSH20 0xFFFFFFFFFFFFFFFFFFFFFFFFFFFFFFFFFFFFFFFF AND PUSH20 0xFFFFFFFFFFFFFFFFFFFFFFFFFFFFFFFFFFFFFFFF AND CALLER PUSH20 0xFFFFFFFFFFFFFFFFFFFFFFFFFFFFFFFFFFFFFFFF AND EQ PUSH2 0xC28 JUMPI PUSH1 0x40 MLOAD PUSH32 0x8C379A000000000000000000000000000000000000000000000000000000000 DUP2 MSTORE PUSH1 0x4 ADD PUSH2 0xC1F SWAP1 PUSH2 0x2B01 JUMP JUMPDEST PUSH1 0x40 MLOAD DUP1 SWAP2 SUB SWAP1 REVERT JUMPDEST PUSH1 0x0 DUP1 PUSH1 0x0 SWAP1 SLOAD SWAP1 PUSH2 0x100 EXP SWAP1 DIV PUSH20 0xFFFFFFFFFFFFFFFFFFFFFFFFFFFFFFFFFFFFFFFF AND SWAP1 POP CALLER PUSH1 0x0 DUP1 PUSH2 0x100 EXP DUP2 SLOAD DUP2 PUSH20 0xFFFFFFFFFFFFFFFFFFFFFFFFFFFFFFFFFFFFFFFF MUL NOT AND SWAP1 DUP4 PUSH20 0xFFFFFFFFFFFFFFFFFFFFFFFFFFFFFFFFFFFFFFFF AND MUL OR SWAP1 SSTORE POP PUSH1 0x0 PUSH1 0x1 PUSH1 0x0 PUSH2 0x100 EXP DUP2 SLOAD DUP2 PUSH20 0xFFFFFFFFFFFFFFFFFFFFFFFFFFFFFFFFFFFFFFFF MUL NOT AND SWAP1 DUP4 PUSH20 0xFFFFFFFFFFFFFFFFFFFFFFFFFFFFFFFFFFFFFFFF AND MUL OR SWAP1 SSTORE POP CALLER PUSH20 0xFFFFFFFFFFFFFFFFFFFFFFFFFFFFFFFFFFFFFFFF AND DUP2 PUSH20 0xFFFFFFFFFFFFFFFFFFFFFFFFFFFFFFFFFFFFFFFF AND PUSH32 0x8BE0079C531659141344CD1FD0A4F28419497F9722A3DAAFE3B4186F6B6457E0 PUSH1 0x40 MLOAD PUSH1 0x40 MLOAD DUP1 SWAP2 SUB SWAP1 LOG3 POP JUMP JUMPDEST PUSH1 0x10 DUP2 DUP2 SLOAD DUP2 LT PUSH2 0xD3D JUMPI PUSH1 0x0 DUP1 REVERT JUMPDEST SWAP1 PUSH1 0x0 MSTORE PUSH1 0x20 PUSH1 0x0 KECCAK256 ADD PUSH1 0x0 SWAP2 POP SWAP1 POP SLOAD DUP2 JUMP JUMPDEST PUSH1 0x0 DUP1 PUSH1 0x0 SWAP1 SLOAD SWAP1 PUSH2 0x100 EXP SWAP1 DIV PUSH20 0xFFFFFFFFFFFFFFFFFFFFFFFFFFFFFFFFFFFFFFFF AND SWAP1 POP SWAP1 JUMP JUMPDEST PUSH2 0xD82 PUSH2 0xD51 JUMP JUMPDEST PUSH20 0xFFFFFFFFFFFFFFFFFFFFFFFFFFFFFFFFFFFFFFFF AND CALLER PUSH20 0xFFFFFFFFFFFFFFFFFFFFFFFFFFFFFFFFFFFFFFFF AND EQ ISZERO DUP1 ISZERO PUSH2 0xE0B JUMPI POP PUSH1 0x2 PUSH1 0x0 SWAP1 SLOAD SWAP1 PUSH2 0x100 EXP SWAP1 DIV PUSH20 0xFFFFFFFFFFFFFFFFFFFFFFFFFFFFFFFFFFFFFFFF AND PUSH20 0xFFFFFFFFFFFFFFFFFFFFFFFFFFFFFFFFFFFFFFFF AND CALLER PUSH20 0xFFFFFFFFFFFFFFFFFFFFFFFFFFFFFFFFFFFFFFFF AND EQ ISZERO JUMPDEST ISZERO PUSH2 0xE7A JUMPI CALLER PUSH2 0xE19 PUSH2 0xD51 JUMP JUMPDEST PUSH1 0x2 PUSH1 0x0 SWAP1 SLOAD SWAP1 PUSH2 0x100 EXP SWAP1 DIV PUSH20 0xFFFFFFFFFFFFFFFFFFFFFFFFFFFFFFFFFFFFFFFF AND PUSH1 0x40 MLOAD PUSH32 0x61DB9C100000000000000000000000000000000000000000000000000000000 DUP2 MSTORE PUSH1 0x4 ADD PUSH2 0xE71 SWAP4 SWAP3 SWAP2 SWAP1 PUSH2 0x2B21 JUMP JUMPDEST PUSH1 0x40 MLOAD DUP1 SWAP2 SUB SWAP1 REVERT JUMPDEST PUSH1 0x0 PUSH20 0xFFFFFFFFFFFFFFFFFFFFFFFFFFFFFFFFFFFFFFFF AND DUP2 PUSH20 0xFFFFFFFFFFFFFFFFFFFFFFFFFFFFFFFFFFFFFFFF AND SUB PUSH2 0xEE0 JUMPI PUSH1 0x40 MLOAD PUSH32 0xD92E233D00000000000000000000000000000000000000000000000000000000 DUP2 MSTORE PUSH1 0x4 ADD PUSH1 0x40 MLOAD DUP1 SWAP2 SUB SWAP1 REVERT JUMPDEST DUP1 PUSH1 0x2 PUSH1 0x0 PUSH2 0x100 EXP DUP2 SLOAD DUP2 PUSH20 0xFFFFFFFFFFFFFFFFFFFFFFFFFFFFFFFFFFFFFFFF MUL NOT AND SWAP1 DUP4 PUSH20 0xFFFFFFFFFFFFFFFFFFFFFFFFFFFFFFFFFFFFFFFF AND MUL OR SWAP1 SSTORE POP PUSH32 0xD1A6A14209A385A964D036E404CB5CFB71F4000CDB03C9366292430787261BE6 DUP2 PUSH1 0x40 MLOAD PUSH2 0xF50 SWAP2 SWAP1 PUSH2 0x2337 JUMP JUMPDEST PUSH1 0x40 MLOAD DUP1 SWAP2 SUB SWAP1 LOG1 POP JUMP JUMPDEST PUSH1 0x8 DUP2 DUP1 MLOAD PUSH1 0x20 DUP2 ADD DUP3 ADD DUP1 MLOAD DUP5 DUP3 MSTORE PUSH1 0x20 DUP4 ADD PUSH1 0x20 DUP6 ADD KECCAK256 DUP2 DUP4 MSTORE DUP1 SWAP6 POP POP POP POP POP POP PUSH1 0x0 SWAP2 POP SWAP1 POP DUP1 SLOAD PUSH2 0xF90 SWAP1 PUSH2 0x2930 JUMP JUMPDEST DUP1 PUSH1 0x1F ADD PUSH1 0x20 DUP1 SWAP2 DIV MUL PUSH1 0x20 ADD PUSH1 0x40 MLOAD SWAP1 DUP2 ADD PUSH1 0x40 MSTORE DUP1 SWAP3 SWAP2 SWAP1 DUP2 DUP2 MSTORE PUSH1 0x20 ADD DUP3 DUP1 SLOAD PUSH2 0xFBC SWAP1 PUSH2 0x2930 JUMP JUMPDEST DUP1 ISZERO PUSH2 0x1009 JUMPI DUP1 PUSH1 0x1F LT PUSH2 0xFDE JUMPI PUSH2 0x100 DUP1 DUP4 SLOAD DIV MUL DUP4 MSTORE SWAP2 PUSH1 0x20 ADD SWAP2 PUSH2 0x1009 JUMP JUMPDEST DUP3 ADD SWAP2 SWAP1 PUSH1 0x0 MSTORE PUSH1 0x20 PUSH1 0x0 KECCAK256 SWAP1 JUMPDEST DUP2 SLOAD DUP2 MSTORE SWAP1 PUSH1 0x1 ADD SWAP1 PUSH1 0x20 ADD DUP1 DUP4 GT PUSH2 0xFEC JUMPI DUP3 SWAP1 SUB PUSH1 0x1F AND DUP3 ADD SWAP2 JUMPDEST POP POP POP POP POP DUP2 JUMP JUMPDEST PUSH1 0x2 PUSH1 0x0 SWAP1 SLOAD SWAP1 PUSH2 0x100 EXP SWAP1 DIV PUSH20 0xFFFFFFFFFFFFFFFFFFFFFFFFFFFFFFFFFFFFFFFF AND DUP2 JUMP JUMPDEST PUSH1 0x12 PUSH1 0x20 MSTORE DUP1 PUSH1 0x0 MSTORE PUSH1 0x40 PUSH1 0x0 KECCAK256 PUSH1 0x0 SWAP2 POP SWAP1 POP DUP1 PUSH1 0x0 ADD PUSH1 0x0 SWAP1 SLOAD SWAP1 PUSH2 0x100 EXP SWAP1 DIV PUSH1 0xFF AND SWAP1 DUP1 PUSH1 0x0 ADD PUSH1 0x1 SWAP1 SLOAD SWAP1 PUSH2 0x100 EXP SWAP1 DIV PUSH1 0xFF AND SWAP1 POP DUP3 JUMP JUMPDEST PUSH1 0x3 PUSH1 0x20 MSTORE DUP2 PUSH1 0x0 MSTORE PUSH1 0x40 PUSH1 0x0 KECCAK256 DUP2 DUP1 MLOAD PUSH1 0x20 DUP2 ADD DUP3 ADD DUP1 MLOAD DUP5 DUP3 MSTORE PUSH1 0x20 DUP4 ADD PUSH1 0x20 DUP6 ADD KECCAK256 DUP2 DUP4 MSTORE DUP1 SWAP6 POP POP POP POP POP POP PUSH1 0x0 SWAP2 POP SWAP2 POP POP SLOAD DUP2 JUMP JUMPDEST PUSH1 0xB SLOAD DUP2 JUMP JUMPDEST PUSH1 0x0 PUSH1 0x60 PUSH1 0x12 PUSH1 0x0 DUP5 DUP2 MSTORE PUSH1 0x20 ADD SWAP1 DUP2 MSTORE PUSH1 0x20 ADD PUSH1 0x0 KECCAK256 PUSH1 0x0 ADD PUSH1 0x1 SWAP1 SLOAD SWAP1 PUSH2 0x100 EXP SWAP1 DIV PUSH1 0xFF AND PUSH2 0x111D JUMPI PUSH1 0x40 MLOAD PUSH32 0x8C379A000000000000000000000000000000000000000000000000000000000 DUP2 MSTORE PUSH1 0x4 ADD PUSH2 0x1114 SWAP1 PUSH2 0x2BA4 JUMP JUMPDEST PUSH1 0x40 MLOAD DUP1 SWAP2 SUB SWAP1 REVERT JUMPDEST PUSH1 0x0 PUSH1 0x12 PUSH1 0x0 DUP6 DUP2 MSTORE PUSH1 0x20 ADD SWAP1 DUP2 MSTORE PUSH1 0x20 ADD PUSH1 0x0 KECCAK256 PUSH1 0x40 MLOAD DUP1 PUSH1 0x60 ADD PUSH1 0x40 MSTORE SWAP1 DUP2 PUSH1 0x0 DUP3 ADD PUSH1 0x0 SWAP1 SLOAD SWAP1 PUSH2 0x100 EXP SWAP1 DIV PUSH1 0xFF AND ISZERO ISZERO ISZERO ISZERO DUP2 MSTORE PUSH1 0x20 ADD PUSH1 0x0 DUP3 ADD PUSH1 0x1 SWAP1 SLOAD SWAP1 PUSH2 0x100 EXP SWAP1 DIV PUSH1 0xFF AND ISZERO ISZERO ISZERO ISZERO DUP2 MSTORE PUSH1 0x20 ADD PUSH1 0x1 DUP3 ADD DUP1 SLOAD DUP1 PUSH1 0x20 MUL PUSH1 0x20 ADD PUSH1 0x40 MLOAD SWAP1 DUP2 ADD PUSH1 0x40 MSTORE DUP1 SWAP3 SWAP2 SWAP1 DUP2 DUP2 MSTORE PUSH1 0x20 ADD DUP3 DUP1 SLOAD DUP1 ISZERO PUSH2 0x11C2 JUMPI PUSH1 0x20 MUL DUP3 ADD SWAP2 SWAP1 PUSH1 0x0 MSTORE PUSH1 0x20 PUSH1 0x0 KECCAK256 SWAP1 JUMPDEST DUP2 SLOAD DUP2 MSTORE PUSH1 0x20 ADD SWAP1 PUSH1 0x1 ADD SWAP1 DUP1 DUP4 GT PUSH2 0x11AE JUMPI JUMPDEST POP POP POP POP POP DUP2 MSTORE POP POP SWAP1 POP DUP1 PUSH1 0x0 ADD MLOAD DUP2 PUSH1 0x40 ADD MLOAD SWAP3 POP SWAP3 POP POP SWAP2 POP SWAP2 JUMP JUMPDEST PUSH1 0x60 PUSH1 0xC DUP1 SLOAD DUP1 PUSH1 0x20 MUL PUSH1 0x20 ADD PUSH1 0x40 MLOAD SWAP1 DUP2 ADD PUSH1 0x40 MSTORE DUP1 SWAP3 SWAP2 SWAP1 DUP2 DUP2 MSTORE PUSH1 0x20 ADD PUSH1 0x0 SWAP1 JUMPDEST DUP3 DUP3 LT ISZERO PUSH2 0x12B1 JUMPI DUP4 DUP3 SWAP1 PUSH1 0x0 MSTORE PUSH1 0x20 PUSH1 0x0 KECCAK256 ADD DUP1 SLOAD PUSH2 0x1224 SWAP1 PUSH2 0x2930 JUMP JUMPDEST DUP1 PUSH1 0x1F ADD PUSH1 0x20 DUP1 SWAP2 DIV MUL PUSH1 0x20 ADD PUSH1 0x40 MLOAD SWAP1 DUP2 ADD PUSH1 0x40 MSTORE DUP1 SWAP3 SWAP2 SWAP1 DUP2 DUP2 MSTORE PUSH1 0x20 ADD DUP3 DUP1 SLOAD PUSH2 0x1250 SWAP1 PUSH2 0x2930 JUMP JUMPDEST DUP1 ISZERO PUSH2 0x129D JUMPI DUP1 PUSH1 0x1F LT PUSH2 0x1272 JUMPI PUSH2 0x100 DUP1 DUP4 SLOAD DIV MUL DUP4 MSTORE SWAP2 PUSH1 0x20 ADD SWAP2 PUSH2 0x129D JUMP JUMPDEST DUP3 ADD SWAP2 SWAP1 PUSH1 0x0 MSTORE PUSH1 0x20 PUSH1 0x0 KECCAK256 SWAP1 JUMPDEST DUP2 SLOAD DUP2 MSTORE SWAP1 PUSH1 0x1 ADD SWAP1 PUSH1 0x20 ADD DUP1 DUP4 GT PUSH2 0x1280 JUMPI DUP3 SWAP1 SUB PUSH1 0x1F AND DUP3 ADD SWAP2 JUMPDEST POP POP POP POP POP DUP2 MSTORE PUSH1 0x20 ADD SWAP1 PUSH1 0x1 ADD SWAP1 PUSH2 0x1205 JUMP JUMPDEST POP POP POP POP SWAP1 POP SWAP1 JUMP JUMPDEST PUSH1 0x5 PUSH1 0x20 MSTORE DUP1 PUSH1 0x0 MSTORE PUSH1 0x40 PUSH1 0x0 KECCAK256 PUSH1 0x0 SWAP2 POP SWAP1 POP DUP1 SLOAD PUSH2 0x12D9 SWAP1 PUSH2 0x2930 JUMP JUMPDEST DUP1 PUSH1 0x1F ADD PUSH1 0x20 DUP1 SWAP2 DIV MUL PUSH1 0x20 ADD PUSH1 0x40 MLOAD SWAP1 DUP2 ADD PUSH1 0x40 MSTORE DUP1 SWAP3 SWAP2 SWAP1 DUP2 DUP2 MSTORE PUSH1 0x20 ADD DUP3 DUP1 SLOAD PUSH2 0x1305 SWAP1 PUSH2 0x2930 JUMP JUMPDEST DUP1 ISZERO PUSH2 0x1352 JUMPI DUP1 PUSH1 0x1F LT PUSH2 0x1327 JUMPI PUSH2 0x100 DUP1 DUP4 SLOAD DIV MUL DUP4 MSTORE SWAP2 PUSH1 0x20 ADD SWAP2 PUSH2 0x1352 JUMP JUMPDEST DUP3 ADD SWAP2 SWAP1 PUSH1 0x0 MSTORE PUSH1 0x20 PUSH1 0x0 KECCAK256 SWAP1 JUMPDEST DUP2 SLOAD DUP2 MSTORE SWAP1 PUSH1 0x1 ADD SWAP1 PUSH1 0x20 ADD DUP1 DUP4 GT PUSH2 0x1335 JUMPI DUP3 SWAP1 SUB PUSH1 0x1F AND DUP3 ADD SWAP2 JUMPDEST POP POP POP POP POP DUP2 JUMP JUMPDEST PUSH1 0x0 PUSH1 0xA SLOAD SWAP1 POP SWAP1 JUMP JUMPDEST PUSH1 0x6 PUSH1 0x20 MSTORE DUP1 PUSH1 0x0 MSTORE PUSH1 0x40 PUSH1 0x0 KECCAK256 PUSH1 0x0 SWAP2 POP SWAP1 POP DUP1 SLOAD PUSH2 0x1383 SWAP1 PUSH2 0x2930 JUMP JUMPDEST DUP1 PUSH1 0x1F ADD PUSH1 0x20 DUP1 SWAP2 DIV MUL PUSH1 0x20 ADD PUSH1 0x40 MLOAD SWAP1 DUP2 ADD PUSH1 0x40 MSTORE DUP1 SWAP3 SWAP2 SWAP1 DUP2 DUP2 MSTORE PUSH1 0x20 ADD DUP3 DUP1 SLOAD PUSH2 0x13AF SWAP1 PUSH2 0x2930 JUMP JUMPDEST DUP1 ISZERO PUSH2 0x13FC JUMPI DUP1 PUSH1 0x1F LT PUSH2 0x13D1 JUMPI PUSH2 0x100 DUP1 DUP4 SLOAD DIV MUL DUP4 MSTORE SWAP2 PUSH1 0x20 ADD SWAP2 PUSH2 0x13FC JUMP JUMPDEST DUP3 ADD SWAP2 SWAP1 PUSH1 0x0 MSTORE PUSH1 0x20 PUSH1 0x0 KECCAK256 SWAP1 JUMPDEST DUP2 SLOAD DUP2 MSTORE SWAP1 PUSH1 0x1 ADD SWAP1 PUSH1 0x20 ADD DUP1 DUP4 GT PUSH2 0x13DF JUMPI DUP3 SWAP1 SUB PUSH1 0x1F AND DUP3 ADD SWAP2 JUMPDEST POP POP POP POP POP DUP2 JUMP JUMPDEST PUSH2 0x140D DUP2 PUSH2 0x9B3 JUMP JUMPDEST PUSH7 0x38D7EA4C68000 CALLVALUE LT ISZERO PUSH2 0x1457 JUMPI PUSH1 0x40 MLOAD PUSH32 0x8C379A000000000000000000000000000000000000000000000000000000000 DUP2 MSTORE PUSH1 0x4 ADD PUSH2 0x144E SWAP1 PUSH2 0x2C10 JUMP JUMPDEST PUSH1 0x40 MLOAD DUP1 SWAP2 SUB SWAP1 REVERT JUMPDEST PUSH7 0xB1A2BC2EC50000 CALLVALUE GT ISZERO PUSH2 0x14A1 JUMPI PUSH1 0x40 MLOAD PUSH32 0x8C379A000000000000000000000000000000000000000000000000000000000 DUP2 MSTORE PUSH1 0x4 ADD PUSH2 0x1498 SWAP1 PUSH2 0x2C7C JUMP JUMPDEST PUSH1 0x40 MLOAD DUP1 SWAP2 SUB SWAP1 REVERT JUMPDEST PUSH1 0x0 PUSH1 0x8 DUP4 PUSH1 0x40 MLOAD PUSH2 0x14B3 SWAP2 SWAP1 PUSH2 0x29C6 JUMP JUMPDEST SWAP1 DUP2 MSTORE PUSH1 0x20 ADD PUSH1 0x40 MLOAD DUP1 SWAP2 SUB SWAP1 KECCAK256 DUP1 SLOAD PUSH2 0x14CC SWAP1 PUSH2 0x2930 JUMP JUMPDEST SWAP1 POP GT PUSH2 0x150E JUMPI PUSH1 0x40 MLOAD PUSH32 0x8C379A000000000000000000000000000000000000000000000000000000000 DUP2 MSTORE PUSH1 0x4 ADD PUSH2 0x1505 SWAP1 PUSH2 0x2CE8 JUMP JUMPDEST PUSH1 0x40 MLOAD DUP1 SWAP2 SUB SWAP1 REVERT JUMPDEST PUSH1 0x1 PUSH1 0x9 PUSH1 0x0 CALLER PUSH20 0xFFFFFFFFFFFFFFFFFFFFFFFFFFFFFFFFFFFFFFFF AND PUSH20 0xFFFFFFFFFFFFFFFFFFFFFFFFFFFFFFFFFFFFFFFF AND DUP2 MSTORE PUSH1 0x20 ADD SWAP1 DUP2 MSTORE PUSH1 0x20 ADD PUSH1 0x0 KECCAK256 PUSH1 0x0 PUSH2 0x100 EXP DUP2 SLOAD DUP2 PUSH1 0xFF MUL NOT AND SWAP1 DUP4 ISZERO ISZERO MUL OR SWAP1 SSTORE POP DUP2 PUSH1 0x6 PUSH1 0x0 CALLER PUSH20 0xFFFFFFFFFFFFFFFFFFFFFFFFFFFFFFFFFFFFFFFF AND PUSH20 0xFFFFFFFFFFFFFFFFFFFFFFFFFFFFFFFFFFFFFFFF AND DUP2 MSTORE PUSH1 0x20 ADD SWAP1 DUP2 MSTORE PUSH1 0x20 ADD PUSH1 0x0 KECCAK256 SWAP1 DUP2 PUSH2 0x15B2 SWAP2 SWAP1 PUSH2 0x2EAA JUMP JUMPDEST POP PUSH1 0x3 PUSH1 0x0 PUSH1 0xB SLOAD DUP2 MSTORE PUSH1 0x20 ADD SWAP1 DUP2 MSTORE PUSH1 0x20 ADD PUSH1 0x0 KECCAK256 DUP3 PUSH1 0x40 MLOAD PUSH2 0x15D6 SWAP2 SWAP1 PUSH2 0x29C6 JUMP JUMPDEST SWAP1 DUP2 MSTORE PUSH1 0x20 ADD PUSH1 0x40 MLOAD DUP1 SWAP2 SUB SWAP1 KECCAK256 PUSH1 0x0 DUP2 SLOAD DUP1 SWAP3 SWAP2 SWAP1 PUSH2 0x15F5 SWAP1 PUSH2 0x2FAB JUMP JUMPDEST SWAP2 SWAP1 POP SSTORE POP PUSH1 0x7 PUSH1 0x0 PUSH1 0xB SLOAD DUP2 MSTORE PUSH1 0x20 ADD SWAP1 DUP2 MSTORE PUSH1 0x20 ADD PUSH1 0x0 KECCAK256 CALLER SWAP1 DUP1 PUSH1 0x1 DUP2 SLOAD ADD DUP1 DUP3 SSTORE DUP1 SWAP2 POP POP PUSH1 0x1 SWAP1 SUB SWAP1 PUSH1 0x0 MSTORE PUSH1 0x20 PUSH1 0x0 KECCAK256 ADD PUSH1 0x0 SWAP1 SWAP2 SWAP1 SWAP2 SWAP1 SWAP2 PUSH2 0x100 EXP DUP2 SLOAD DUP2 PUSH20 0xFFFFFFFFFFFFFFFFFFFFFFFFFFFFFFFFFFFFFFFF MUL NOT AND SWAP1 DUP4 PUSH20 0xFFFFFFFFFFFFFFFFFFFFFFFFFFFFFFFFFFFFFFFF AND MUL OR SWAP1 SSTORE POP PUSH2 0x1678 PUSH2 0x1AAA JUMP JUMPDEST PUSH32 0x6CB0A41E9298E8D3FF3DE34496FF4E64AFD0962993EFD997FF057AA62043436F CALLER DUP3 DUP5 PUSH1 0xB SLOAD PUSH1 0x40 MLOAD PUSH2 0x16AF SWAP5 SWAP4 SWAP3 SWAP2 SWAP1 PUSH2 0x2FF3 JUMP JUMPDEST PUSH1 0x40 MLOAD DUP1 SWAP2 SUB SWAP1 LOG1 POP POP JUMP JUMPDEST PUSH2 0x16C3 PUSH2 0x1B1C JUMP JUMPDEST PUSH1 0x0 PUSH1 0x8 DUP3 PUSH1 0x40 MLOAD PUSH2 0x16D5 SWAP2 SWAP1 PUSH2 0x29C6 JUMP JUMPDEST SWAP1 DUP2 MSTORE PUSH1 0x20 ADD PUSH1 0x40 MLOAD DUP1 SWAP2 SUB SWAP1 KECCAK256 DUP1 SLOAD PUSH2 0x16EE SWAP1 PUSH2 0x2930 JUMP JUMPDEST SWAP1 POP EQ PUSH2 0x1730 JUMPI PUSH1 0x40 MLOAD PUSH32 0x8C379A000000000000000000000000000000000000000000000000000000000 DUP2 MSTORE PUSH1 0x4 ADD PUSH2 0x1727 SWAP1 PUSH2 0x3092 JUMP JUMPDEST PUSH1 0x40 MLOAD DUP1 SWAP2 SUB SWAP1 REVERT JUMPDEST PUSH1 0x0 DUP3 MLOAD GT PUSH2 0x1774 JUMPI PUSH1 0x40 MLOAD PUSH32 0x8C379A000000000000000000000000000000000000000000000000000000000 DUP2 MSTORE PUSH1 0x4 ADD PUSH2 0x176B SWAP1 PUSH2 0x30FE JUMP JUMPDEST PUSH1 0x40 MLOAD DUP1 SWAP2 SUB SWAP1 REVERT JUMPDEST PUSH1 0x0 DUP2 MLOAD GT PUSH2 0x17B8 JUMPI PUSH1 0x40 MLOAD PUSH32 0x8C379A000000000000000000000000000000000000000000000000000000000 DUP2 MSTORE PUSH1 0x4 ADD PUSH2 0x17AF SWAP1 PUSH2 0x316A JUMP JUMPDEST PUSH1 0x40 MLOAD DUP1 SWAP2 SUB SWAP1 REVERT JUMPDEST DUP2 PUSH1 0x8 DUP3 PUSH1 0x40 MLOAD PUSH2 0x17C9 SWAP2 SWAP1 PUSH2 0x29C6 JUMP JUMPDEST SWAP1 DUP2 MSTORE PUSH1 0x20 ADD PUSH1 0x40 MLOAD DUP1 SWAP2 SUB SWAP1 KECCAK256 SWAP1 DUP2 PUSH2 0x17E3 SWAP2 SWAP1 PUSH2 0x2EAA JUMP JUMPDEST POP PUSH1 0xC DUP3 SWAP1 DUP1 PUSH1 0x1 DUP2 SLOAD ADD DUP1 DUP3 SSTORE DUP1 SWAP2 POP POP PUSH1 0x1 SWAP1 SUB SWAP1 PUSH1 0x0 MSTORE PUSH1 0x20 PUSH1 0x0 KECCAK256 ADD PUSH1 0x0 SWAP1 SWAP2 SWAP1 SWAP2 SWAP1 SWAP2 POP SWAP1 DUP2 PUSH2 0x1818 SWAP2 SWAP1 PUSH2 0x2EAA JUMP JUMPDEST POP PUSH32 0xEB5D6000A362475BE9D9B16BEDDC148B7004850DAF2E69325A403D613567769E DUP2 DUP4 PUSH1 0x40 MLOAD PUSH2 0x184A SWAP3 SWAP2 SWAP1 PUSH2 0x318A JUMP JUMPDEST PUSH1 0x40 MLOAD DUP1 SWAP2 SUB SWAP1 LOG1 POP POP JUMP JUMPDEST PUSH2 0x185E PUSH2 0x1B1C JUMP JUMPDEST PUSH2 0x1867 DUP2 PUSH2 0x1BAC JUMP JUMPDEST POP JUMP JUMPDEST PUSH1 0x11 SLOAD DUP2 JUMP JUMPDEST PUSH1 0x12 PUSH1 0x0 DUP5 DUP2 MSTORE PUSH1 0x20 ADD SWAP1 DUP2 MSTORE PUSH1 0x20 ADD PUSH1 0x0 KECCAK256 PUSH1 0x0 ADD PUSH1 0x1 SWAP1 SLOAD SWAP1 PUSH2 0x100 EXP SWAP1 DIV PUSH1 0xFF AND PUSH2 0x18D3 JUMPI PUSH1 0x40 MLOAD PUSH32 0x8C379A000000000000000000000000000000000000000000000000000000000 DUP2 MSTORE PUSH1 0x4 ADD PUSH2 0x18CA SWAP1 PUSH2 0x2BA4 JUMP JUMPDEST PUSH1 0x40 MLOAD DUP1 SWAP2 SUB SWAP1 REVERT JUMPDEST PUSH1 0x1 PUSH1 0x12 PUSH1 0x0 DUP6 DUP2 MSTORE PUSH1 0x20 ADD SWAP1 DUP2 MSTORE PUSH1 0x20 ADD PUSH1 0x0 KECCAK256 PUSH1 0x0 ADD PUSH1 0x0 PUSH2 0x100 EXP DUP2 SLOAD DUP2 PUSH1 0xFF MUL NOT AND SWAP1 DUP4 ISZERO ISZERO MUL OR SWAP1 SSTORE POP DUP2 DUP2 PUSH1 0x12 PUSH1 0x0 DUP7 DUP2 MSTORE PUSH1 0x20 ADD SWAP1 DUP2 MSTORE PUSH1 0x20 ADD PUSH1 0x0 KECCAK256 PUSH1 0x1 ADD SWAP2 SWAP1 PUSH2 0x1927 SWAP3 SWAP2 SWAP1 PUSH2 0x1FFB JUMP JUMPDEST POP PUSH32 0xFE2E2D779DBA245964D4E3EF9B994BE63856FD568BF7D3CA9E224755CB1BD54D DUP4 DUP4 DUP4 PUSH1 0x40 MLOAD PUSH2 0x195B SWAP4 SWAP3 SWAP2 SWAP1 PUSH2 0x322B JUMP JUMPDEST PUSH1 0x40 MLOAD DUP1 SWAP2 SUB SWAP1 LOG1 PUSH1 0x0 DUP3 DUP3 PUSH1 0x0 DUP2 DUP2 LT PUSH2 0x1979 JUMPI PUSH2 0x1978 PUSH2 0x325D JUMP JUMPDEST JUMPDEST SWAP1 POP PUSH1 0x20 MUL ADD CALLDATALOAD SWAP1 POP PUSH1 0x0 PUSH1 0x7 PUSH1 0x0 PUSH1 0xB SLOAD DUP2 MSTORE PUSH1 0x20 ADD SWAP1 DUP2 MSTORE PUSH1 0x20 ADD PUSH1 0x0 KECCAK256 DUP1 SLOAD SWAP1 POP DUP3 PUSH2 0x19A8 SWAP2 SWAP1 PUSH2 0x32BB JUMP JUMPDEST SWAP1 POP PUSH1 0x0 PUSH1 0x7 PUSH1 0x0 PUSH1 0xB SLOAD DUP2 MSTORE PUSH1 0x20 ADD SWAP1 DUP2 MSTORE PUSH1 0x20 ADD PUSH1 0x0 KECCAK256 DUP3 DUP2 SLOAD DUP2 LT PUSH2 0x19D3 JUMPI PUSH2 0x19D2 PUSH2 0x325D JUMP JUMPDEST JUMPDEST SWAP1 PUSH1 0x0 MSTORE PUSH1 0x20 PUSH1 0x0 KECCAK256 ADD PUSH1 0x0 SWAP1 SLOAD SWAP1 PUSH2 0x100 EXP SWAP1 DIV PUSH20 0xFFFFFFFFFFFFFFFFFFFFFFFFFFFFFFFFFFFFFFFF AND SWAP1 POP PUSH1 0x0 SELFBALANCE SWAP1 POP PUSH32 0x1545CD4197B626F3A89E81606417B61CD942AA094771EAA0BBBF9562C1E17DE0 DUP3 DUP3 PUSH1 0xB SLOAD PUSH1 0x40 MLOAD PUSH2 0x1A3A SWAP4 SWAP3 SWAP2 SWAP1 PUSH2 0x330D JUMP JUMPDEST PUSH1 0x40 MLOAD DUP1 SWAP2 SUB SWAP1 LOG1 DUP2 PUSH20 0xFFFFFFFFFFFFFFFFFFFFFFFFFFFFFFFFFFFFFFFF AND PUSH2 0x8FC DUP3 SWAP1 DUP2 ISZERO MUL SWAP1 PUSH1 0x40 MLOAD PUSH1 0x0 PUSH1 0x40 MLOAD DUP1 DUP4 SUB DUP2 DUP6 DUP9 DUP9 CALL SWAP4 POP POP POP POP ISZERO DUP1 ISZERO PUSH2 0x1A88 JUMPI RETURNDATASIZE PUSH1 0x0 DUP1 RETURNDATACOPY RETURNDATASIZE PUSH1 0x0 REVERT JUMPDEST POP PUSH1 0xB PUSH1 0x0 DUP2 SLOAD DUP1 SWAP3 SWAP2 SWAP1 PUSH2 0x1A9C SWAP1 PUSH2 0x2FAB JUMP JUMPDEST SWAP2 SWAP1 POP SSTORE POP POP POP POP POP POP POP POP JUMP JUMPDEST PUSH1 0xA SLOAD SELFBALANCE LT PUSH2 0x1B1A JUMPI PUSH1 0x0 PUSH1 0x7 PUSH1 0x0 PUSH1 0xB SLOAD DUP2 MSTORE PUSH1 0x20 ADD SWAP1 DUP2 MSTORE PUSH1 0x20 ADD PUSH1 0x0 KECCAK256 DUP1 SLOAD SWAP1 POP GT PUSH2 0x1B0E JUMPI PUSH1 0x40 MLOAD PUSH32 0x8C379A000000000000000000000000000000000000000000000000000000000 DUP2 MSTORE PUSH1 0x4 ADD PUSH2 0x1B05 SWAP1 PUSH2 0x3390 JUMP JUMPDEST PUSH1 0x40 MLOAD DUP1 SWAP2 SUB SWAP1 REVERT JUMPDEST PUSH2 0x1B18 PUSH1 0x0 PUSH2 0x1CD8 JUMP JUMPDEST POP JUMPDEST JUMP JUMPDEST PUSH1 0x0 DUP1 SLOAD SWAP1 PUSH2 0x100 EXP SWAP1 DIV PUSH20 0xFFFFFFFFFFFFFFFFFFFFFFFFFFFFFFFFFFFFFFFF AND PUSH20 0xFFFFFFFFFFFFFFFFFFFFFFFFFFFFFFFFFFFFFFFF AND CALLER PUSH20 0xFFFFFFFFFFFFFFFFFFFFFFFFFFFFFFFFFFFFFFFF AND EQ PUSH2 0x1BAA JUMPI PUSH1 0x40 MLOAD PUSH32 0x8C379A000000000000000000000000000000000000000000000000000000000 DUP2 MSTORE PUSH1 0x4 ADD PUSH2 0x1BA1 SWAP1 PUSH2 0x33FC JUMP JUMPDEST PUSH1 0x40 MLOAD DUP1 SWAP2 SUB SWAP1 REVERT JUMPDEST JUMP JUMPDEST CALLER PUSH20 0xFFFFFFFFFFFFFFFFFFFFFFFFFFFFFFFFFFFFFFFF AND DUP2 PUSH20 0xFFFFFFFFFFFFFFFFFFFFFFFFFFFFFFFFFFFFFFFF AND SUB PUSH2 0x1C1A JUMPI PUSH1 0x40 MLOAD PUSH32 0x8C379A000000000000000000000000000000000000000000000000000000000 DUP2 MSTORE PUSH1 0x4 ADD PUSH2 0x1C11 SWAP1 PUSH2 0x3468 JUMP JUMPDEST PUSH1 0x40 MLOAD DUP1 SWAP2 SUB SWAP1 REVERT JUMPDEST DUP1 PUSH1 0x1 PUSH1 0x0 PUSH2 0x100 EXP DUP2 SLOAD DUP2 PUSH20 0xFFFFFFFFFFFFFFFFFFFFFFFFFFFFFFFFFFFFFFFF MUL NOT AND SWAP1 DUP4 PUSH20 0xFFFFFFFFFFFFFFFFFFFFFFFFFFFFFFFFFFFFFFFF AND MUL OR SWAP1 SSTORE POP DUP1 PUSH20 0xFFFFFFFFFFFFFFFFFFFFFFFFFFFFFFFFFFFFFFFF AND PUSH1 0x0 DUP1 SLOAD SWAP1 PUSH2 0x100 EXP SWAP1 DIV PUSH20 0xFFFFFFFFFFFFFFFFFFFFFFFFFFFFFFFFFFFFFFFF AND PUSH20 0xFFFFFFFFFFFFFFFFFFFFFFFFFFFFFFFFFFFFFFFF AND PUSH32 0xED8889F560326EB138920D842192F0EB3DD22B4F139C87A2C57538E05BAE1278 PUSH1 0x40 MLOAD PUSH1 0x40 MLOAD DUP1 SWAP2 SUB SWAP1 LOG3 POP JUMP JUMPDEST PUSH1 0x0 PUSH1 0x2 PUSH1 0x0 SWAP1 SLOAD SWAP1 PUSH2 0x100 EXP SWAP1 DIV PUSH20 0xFFFFFFFFFFFFFFFFFFFFFFFFFFFFFFFFFFFFFFFF AND PUSH20 0xFFFFFFFFFFFFFFFFFFFFFFFFFFFFFFFFFFFFFFFF AND PUSH4 0x9B1C385E PUSH1 0x40 MLOAD DUP1 PUSH1 0xC0 ADD PUSH1 0x40 MSTORE DUP1 PUSH1 0xE SLOAD DUP2 MSTORE PUSH1 0x20 ADD PUSH1 0xD SLOAD DUP2 MSTORE PUSH1 0x20 ADD PUSH1 0xF PUSH1 0x4 SWAP1 SLOAD SWAP1 PUSH2 0x100 EXP SWAP1 DIV PUSH2 0xFFFF AND PUSH2 0xFFFF AND DUP2 MSTORE PUSH1 0x20 ADD PUSH1 0xF PUSH1 0x0 SWAP1 SLOAD SWAP1 PUSH2 0x100 EXP SWAP1 DIV PUSH4 0xFFFFFFFF AND PUSH4 0xFFFFFFFF AND DUP2 MSTORE PUSH1 0x20 ADD PUSH1 0xF PUSH1 0x6 SWAP1 SLOAD SWAP1 PUSH2 0x100 EXP SWAP1 DIV PUSH4 0xFFFFFFFF AND PUSH4 0xFFFFFFFF AND DUP2 MSTORE PUSH1 0x20 ADD PUSH2 0x1DA2 PUSH1 0x40 MLOAD DUP1 PUSH1 0x20 ADD PUSH1 0x40 MSTORE DUP1 DUP9 ISZERO ISZERO DUP2 MSTORE POP PUSH2 0x1F63 JUMP JUMPDEST DUP2 MSTORE POP PUSH1 0x40 MLOAD DUP3 PUSH4 0xFFFFFFFF AND PUSH1 0xE0 SHL DUP2 MSTORE PUSH1 0x4 ADD PUSH2 0x1DC1 SWAP2 SWAP1 PUSH2 0x35BB JUMP JUMPDEST PUSH1 0x20 PUSH1 0x40 MLOAD DUP1 DUP4 SUB DUP2 PUSH1 0x0 DUP8 GAS CALL ISZERO DUP1 ISZERO PUSH2 0x1DE0 JUMPI RETURNDATASIZE PUSH1 0x0 DUP1 RETURNDATACOPY RETURNDATASIZE PUSH1 0x0 REVERT JUMPDEST POP POP POP POP PUSH1 0x40 MLOAD RETURNDATASIZE PUSH1 0x1F NOT PUSH1 0x1F DUP3 ADD AND DUP3 ADD DUP1 PUSH1 0x40 MSTORE POP DUP2 ADD SWAP1 PUSH2 0x1E04 SWAP2 SWAP1 PUSH2 0x35F2 JUMP JUMPDEST SWAP1 POP PUSH1 0x40 MLOAD DUP1 PUSH1 0x60 ADD PUSH1 0x40 MSTORE DUP1 PUSH1 0x0 ISZERO ISZERO DUP2 MSTORE PUSH1 0x20 ADD PUSH1 0x1 ISZERO ISZERO DUP2 MSTORE PUSH1 0x20 ADD PUSH1 0x0 PUSH8 0xFFFFFFFFFFFFFFFF DUP2 GT ISZERO PUSH2 0x1E3E JUMPI PUSH2 0x1E3D PUSH2 0x2182 JUMP JUMPDEST JUMPDEST PUSH1 0x40 MLOAD SWAP1 DUP1 DUP3 MSTORE DUP1 PUSH1 0x20 MUL PUSH1 0x20 ADD DUP3 ADD PUSH1 0x40 MSTORE DUP1 ISZERO PUSH2 0x1E6C JUMPI DUP2 PUSH1 0x20 ADD PUSH1 0x20 DUP3 MUL DUP1 CALLDATASIZE DUP4 CALLDATACOPY DUP1 DUP3 ADD SWAP2 POP POP SWAP1 POP JUMPDEST POP DUP2 MSTORE POP PUSH1 0x12 PUSH1 0x0 DUP4 DUP2 MSTORE PUSH1 0x20 ADD SWAP1 DUP2 MSTORE PUSH1 0x20 ADD PUSH1 0x0 KECCAK256 PUSH1 0x0 DUP3 ADD MLOAD DUP2 PUSH1 0x0 ADD PUSH1 0x0 PUSH2 0x100 EXP DUP2 SLOAD DUP2 PUSH1 0xFF MUL NOT AND SWAP1 DUP4 ISZERO ISZERO MUL OR SWAP1 SSTORE POP PUSH1 0x20 DUP3 ADD MLOAD DUP2 PUSH1 0x0 ADD PUSH1 0x1 PUSH2 0x100 EXP DUP2 SLOAD DUP2 PUSH1 0xFF MUL NOT AND SWAP1 DUP4 ISZERO ISZERO MUL OR SWAP1 SSTORE POP PUSH1 0x40 DUP3 ADD MLOAD DUP2 PUSH1 0x1 ADD SWAP1 DUP1 MLOAD SWAP1 PUSH1 0x20 ADD SWAP1 PUSH2 0x1EDF SWAP3 SWAP2 SWAP1 PUSH2 0x2048 JUMP JUMPDEST POP SWAP1 POP POP PUSH1 0x10 DUP2 SWAP1 DUP1 PUSH1 0x1 DUP2 SLOAD ADD DUP1 DUP3 SSTORE DUP1 SWAP2 POP POP PUSH1 0x1 SWAP1 SUB SWAP1 PUSH1 0x0 MSTORE PUSH1 0x20 PUSH1 0x0 KECCAK256 ADD PUSH1 0x0 SWAP1 SWAP2 SWAP1 SWAP2 SWAP1 SWAP2 POP SSTORE DUP1 PUSH1 0x11 DUP2 SWAP1 SSTORE POP PUSH32 0xCC58B13AD3EAB50626C6A6300B1D139CD6EBB1688A7CCED9461C2F7E762665EE DUP2 PUSH1 0xF PUSH1 0x6 SWAP1 SLOAD SWAP1 PUSH2 0x100 EXP SWAP1 DIV PUSH4 0xFFFFFFFF AND PUSH1 0x40 MLOAD PUSH2 0x1F56 SWAP3 SWAP2 SWAP1 PUSH2 0x362E JUMP JUMPDEST PUSH1 0x40 MLOAD DUP1 SWAP2 SUB SWAP1 LOG1 SWAP2 SWAP1 POP JUMP JUMPDEST PUSH1 0x60 PUSH32 0x92FD13387C7FE7BEFBC38D303D6468778FB9731BC4583F17D92989C6FCFDEAAA DUP3 PUSH1 0x40 MLOAD PUSH1 0x24 ADD PUSH2 0x1F97 SWAP2 SWAP1 PUSH2 0x3682 JUMP JUMPDEST PUSH1 0x40 MLOAD PUSH1 0x20 DUP2 DUP4 SUB SUB DUP2 MSTORE SWAP1 PUSH1 0x40 MSTORE SWAP1 PUSH28 0xFFFFFFFFFFFFFFFFFFFFFFFFFFFFFFFFFFFFFFFFFFFFFFFFFFFFFFFF NOT AND PUSH1 0x20 DUP3 ADD DUP1 MLOAD PUSH28 0xFFFFFFFFFFFFFFFFFFFFFFFFFFFFFFFFFFFFFFFFFFFFFFFFFFFFFFFF DUP4 DUP2 DUP4 AND OR DUP4 MSTORE POP POP POP POP SWAP1 POP SWAP2 SWAP1 POP JUMP JUMPDEST DUP3 DUP1 SLOAD DUP3 DUP3 SSTORE SWAP1 PUSH1 0x0 MSTORE PUSH1 0x20 PUSH1 0x0 KECCAK256 SWAP1 DUP2 ADD SWAP3 DUP3 ISZERO PUSH2 0x2037 JUMPI SWAP2 PUSH1 0x20 MUL DUP3 ADD JUMPDEST DUP3 DUP2 GT ISZERO PUSH2 0x2036 JUMPI DUP3 CALLDATALOAD DUP3 SSTORE SWAP2 PUSH1 0x20 ADD SWAP2 SWAP1 PUSH1 0x1 ADD SWAP1 PUSH2 0x201B JUMP JUMPDEST JUMPDEST POP SWAP1 POP PUSH2 0x2044 SWAP2 SWAP1 PUSH2 0x2095 JUMP JUMPDEST POP SWAP1 JUMP JUMPDEST DUP3 DUP1 SLOAD DUP3 DUP3 SSTORE SWAP1 PUSH1 0x0 MSTORE PUSH1 0x20 PUSH1 0x0 KECCAK256 SWAP1 DUP2 ADD SWAP3 DUP3 ISZERO PUSH2 0x2084 JUMPI SWAP2 PUSH1 0x20 MUL DUP3 ADD JUMPDEST DUP3 DUP2 GT ISZERO PUSH2 0x2083 JUMPI DUP3 MLOAD DUP3 SSTORE SWAP2 PUSH1 0x20 ADD SWAP2 SWAP1 PUSH1 0x1 ADD SWAP1 PUSH2 0x2068 JUMP JUMPDEST JUMPDEST POP SWAP1 POP PUSH2 0x2091 SWAP2 SWAP1 PUSH2 0x2095 JUMP JUMPDEST POP SWAP1 JUMP JUMPDEST JUMPDEST DUP1 DUP3 GT ISZERO PUSH2 0x20AE JUMPI PUSH1 0x0 DUP2 PUSH1 0x0 SWAP1 SSTORE POP PUSH1 0x1 ADD PUSH2 0x2096 JUMP JUMPDEST POP SWAP1 JUMP JUMPDEST PUSH1 0x0 DUP2 MLOAD SWAP1 POP SWAP2 SWAP1 POP JUMP JUMPDEST PUSH1 0x0 DUP3 DUP3 MSTORE PUSH1 0x20 DUP3 ADD SWAP1 POP SWAP3 SWAP2 POP POP JUMP JUMPDEST PUSH1 0x0 JUMPDEST DUP4 DUP2 LT ISZERO PUSH2 0x20EC JUMPI DUP1 DUP3 ADD MLOAD DUP2 DUP5 ADD MSTORE PUSH1 0x20 DUP2 ADD SWAP1 POP PUSH2 0x20D1 JUMP JUMPDEST PUSH1 0x0 DUP5 DUP5 ADD MSTORE POP POP POP POP JUMP JUMPDEST PUSH1 0x0 PUSH1 0x1F NOT PUSH1 0x1F DUP4 ADD AND SWAP1 POP SWAP2 SWAP1 POP JUMP JUMPDEST PUSH1 0x0 PUSH2 0x2114 DUP3 PUSH2 0x20B2 JUMP JUMPDEST PUSH2 0x211E DUP2 DUP6 PUSH2 0x20BD JUMP JUMPDEST SWAP4 POP PUSH2 0x212E DUP2 DUP6 PUSH1 0x20 DUP7 ADD PUSH2 0x20CE JUMP JUMPDEST PUSH2 0x2137 DUP2 PUSH2 0x20F8 JUMP JUMPDEST DUP5 ADD SWAP2 POP POP SWAP3 SWAP2 POP POP JUMP JUMPDEST PUSH1 0x0 PUSH1 0x20 DUP3 ADD SWAP1 POP DUP2 DUP2 SUB PUSH1 0x0 DUP4 ADD MSTORE PUSH2 0x215C DUP2 DUP5 PUSH2 0x2109 JUMP JUMPDEST SWAP1 POP SWAP3 SWAP2 POP POP JUMP JUMPDEST PUSH1 0x0 PUSH1 0x40 MLOAD SWAP1 POP SWAP1 JUMP JUMPDEST PUSH1 0x0 DUP1 REVERT JUMPDEST PUSH1 0x0 DUP1 REVERT JUMPDEST PUSH1 0x0 DUP1 REVERT JUMPDEST PUSH1 0x0 DUP1 REVERT JUMPDEST PUSH32 0x4E487B7100000000000000000000000000000000000000000000000000000000 PUSH1 0x0 MSTORE PUSH1 0x41 PUSH1 0x4 MSTORE PUSH1 0x24 PUSH1 0x0 REVERT JUMPDEST PUSH2 0x21BA DUP3 PUSH2 0x20F8 JUMP JUMPDEST DUP2 ADD DUP2 DUP2 LT PUSH8 0xFFFFFFFFFFFFFFFF DUP3 GT OR ISZERO PUSH2 0x21D9 JUMPI PUSH2 0x21D8 PUSH2 0x2182 JUMP JUMPDEST JUMPDEST DUP1 PUSH1 0x40 MSTORE POP POP POP JUMP JUMPDEST PUSH1 0x0 PUSH2 0x21EC PUSH2 0x2164 JUMP JUMPDEST SWAP1 POP PUSH2 0x21F8 DUP3 DUP3 PUSH2 0x21B1 JUMP JUMPDEST SWAP2 SWAP1 POP JUMP JUMPDEST PUSH1 0x0 PUSH8 0xFFFFFFFFFFFFFFFF DUP3 GT ISZERO PUSH2 0x2218 JUMPI PUSH2 0x2217 PUSH2 0x2182 JUMP JUMPDEST JUMPDEST PUSH2 0x2221 DUP3 PUSH2 0x20F8 JUMP JUMPDEST SWAP1 POP PUSH1 0x20 DUP2 ADD SWAP1 POP SWAP2 SWAP1 POP JUMP JUMPDEST DUP3 DUP2 DUP4 CALLDATACOPY PUSH1 0x0 DUP4 DUP4 ADD MSTORE POP POP POP JUMP JUMPDEST PUSH1 0x0 PUSH2 0x2250 PUSH2 0x224B DUP5 PUSH2 0x21FD JUMP JUMPDEST PUSH2 0x21E2 JUMP JUMPDEST SWAP1 POP DUP3 DUP2 MSTORE PUSH1 0x20 DUP2 ADD DUP5 DUP5 DUP5 ADD GT ISZERO PUSH2 0x226C JUMPI PUSH2 0x226B PUSH2 0x217D JUMP JUMPDEST JUMPDEST PUSH2 0x2277 DUP5 DUP3 DUP6 PUSH2 0x222E JUMP JUMPDEST POP SWAP4 SWAP3 POP POP POP JUMP JUMPDEST PUSH1 0x0 DUP3 PUSH1 0x1F DUP4 ADD SLT PUSH2 0x2294 JUMPI PUSH2 0x2293 PUSH2 0x2178 JUMP JUMPDEST JUMPDEST DUP2 CALLDATALOAD PUSH2 0x22A4 DUP5 DUP3 PUSH1 0x20 DUP7 ADD PUSH2 0x223D JUMP JUMPDEST SWAP2 POP POP SWAP3 SWAP2 POP POP JUMP JUMPDEST PUSH1 0x0 PUSH1 0x20 DUP3 DUP5 SUB SLT ISZERO PUSH2 0x22C3 JUMPI PUSH2 0x22C2 PUSH2 0x216E JUMP JUMPDEST JUMPDEST PUSH1 0x0 DUP3 ADD CALLDATALOAD PUSH8 0xFFFFFFFFFFFFFFFF DUP2 GT ISZERO PUSH2 0x22E1 JUMPI PUSH2 0x22E0 PUSH2 0x2173 JUMP JUMPDEST JUMPDEST PUSH2 0x22ED DUP5 DUP3 DUP6 ADD PUSH2 0x227F JUMP JUMPDEST SWAP2 POP POP SWAP3 SWAP2 POP POP JUMP JUMPDEST PUSH1 0x0 PUSH20 0xFFFFFFFFFFFFFFFFFFFFFFFFFFFFFFFFFFFFFFFF DUP3 AND SWAP1 POP SWAP2 SWAP1 POP JUMP JUMPDEST PUSH1 0x0 PUSH2 0x2321 DUP3 PUSH2 0x22F6 JUMP JUMPDEST SWAP1 POP SWAP2 SWAP1 POP JUMP JUMPDEST PUSH2 0x2331 DUP2 PUSH2 0x2316 JUMP JUMPDEST DUP3 MSTORE POP POP JUMP JUMPDEST PUSH1 0x0 PUSH1 0x20 DUP3 ADD SWAP1 POP PUSH2 0x234C PUSH1 0x0 DUP4 ADD DUP5 PUSH2 0x2328 JUMP JUMPDEST SWAP3 SWAP2 POP POP JUMP JUMPDEST PUSH2 0x235B DUP2 PUSH2 0x2316 JUMP JUMPDEST DUP2 EQ PUSH2 0x2366 JUMPI PUSH1 0x0 DUP1 REVERT JUMPDEST POP JUMP JUMPDEST PUSH1 0x0 DUP2 CALLDATALOAD SWAP1 POP PUSH2 0x2378 DUP2 PUSH2 0x2352 JUMP JUMPDEST SWAP3 SWAP2 POP POP JUMP JUMPDEST PUSH1 0x0 PUSH1 0x20 DUP3 DUP5 SUB SLT ISZERO PUSH2 0x2394 JUMPI PUSH2 0x2393 PUSH2 0x216E JUMP JUMPDEST JUMPDEST PUSH1 0x0 PUSH2 0x23A2 DUP5 DUP3 DUP6 ADD PUSH2 0x2369 JUMP JUMPDEST SWAP2 POP POP SWAP3 SWAP2 POP POP JUMP JUMPDEST PUSH1 0x0 DUP2 ISZERO ISZERO SWAP1 POP SWAP2 SWAP1 POP JUMP JUMPDEST PUSH2 0x23C0 DUP2 PUSH2 0x23AB JUMP JUMPDEST DUP3 MSTORE POP POP JUMP JUMPDEST PUSH1 0x0 PUSH1 0x20 DUP3 ADD SWAP1 POP PUSH2 0x23DB PUSH1 0x0 DUP4 ADD DUP5 PUSH2 0x23B7 JUMP JUMPDEST SWAP3 SWAP2 POP POP JUMP JUMPDEST PUSH1 0x0 DUP2 SWAP1 POP SWAP2 SWAP1 POP JUMP JUMPDEST PUSH2 0x23F4 DUP2 PUSH2 0x23E1 JUMP JUMPDEST DUP3 MSTORE POP POP JUMP JUMPDEST PUSH1 0x0 PUSH1 0x20 DUP3 ADD SWAP1 POP PUSH2 0x240F PUSH1 0x0 DUP4 ADD DUP5 PUSH2 0x23EB JUMP JUMPDEST SWAP3 SWAP2 POP POP JUMP JUMPDEST PUSH2 0x241E DUP2 PUSH2 0x23E1 JUMP JUMPDEST DUP2 EQ PUSH2 0x2429 JUMPI PUSH1 0x0 DUP1 REVERT JUMPDEST POP JUMP JUMPDEST PUSH1 0x0 DUP2 CALLDATALOAD SWAP1 POP PUSH2 0x243B DUP2 PUSH2 0x2415 JUMP JUMPDEST SWAP3 SWAP2 POP POP JUMP JUMPDEST PUSH1 0x0 DUP1 PUSH1 0x40 DUP4 DUP6 SUB SLT ISZERO PUSH2 0x2458 JUMPI PUSH2 0x2457 PUSH2 0x216E JUMP JUMPDEST JUMPDEST PUSH1 0x0 PUSH2 0x2466 DUP6 DUP3 DUP7 ADD PUSH2 0x242C JUMP JUMPDEST SWAP3 POP POP PUSH1 0x20 PUSH2 0x2477 DUP6 DUP3 DUP7 ADD PUSH2 0x242C JUMP JUMPDEST SWAP2 POP POP SWAP3 POP SWAP3 SWAP1 POP JUMP JUMPDEST PUSH1 0x0 DUP1 REVERT JUMPDEST PUSH1 0x0 DUP1 REVERT JUMPDEST PUSH1 0x0 DUP1 DUP4 PUSH1 0x1F DUP5 ADD SLT PUSH2 0x24A1 JUMPI PUSH2 0x24A0 PUSH2 0x2178 JUMP JUMPDEST JUMPDEST DUP3 CALLDATALOAD SWAP1 POP PUSH8 0xFFFFFFFFFFFFFFFF DUP2 GT ISZERO PUSH2 0x24BE JUMPI PUSH2 0x24BD PUSH2 0x2481 JUMP JUMPDEST JUMPDEST PUSH1 0x20 DUP4 ADD SWAP2 POP DUP4 PUSH1 0x20 DUP3 MUL DUP4 ADD GT ISZERO PUSH2 0x24DA JUMPI PUSH2 0x24D9 PUSH2 0x2486 JUMP JUMPDEST JUMPDEST SWAP3 POP SWAP3 SWAP1 POP JUMP JUMPDEST PUSH1 0x0 DUP1 PUSH1 0x0 PUSH1 0x40 DUP5 DUP7 SUB SLT ISZERO PUSH2 0x24FA JUMPI PUSH2 0x24F9 PUSH2 0x216E JUMP JUMPDEST JUMPDEST PUSH1 0x0 PUSH2 0x2508 DUP7 DUP3 DUP8 ADD PUSH2 0x242C JUMP JUMPDEST SWAP4 POP POP PUSH1 0x20 DUP5 ADD CALLDATALOAD PUSH8 0xFFFFFFFFFFFFFFFF DUP2 GT ISZERO PUSH2 0x2529 JUMPI PUSH2 0x2528 PUSH2 0x2173 JUMP JUMPDEST JUMPDEST PUSH2 0x2535 DUP7 DUP3 DUP8 ADD PUSH2 0x248B JUMP JUMPDEST SWAP3 POP SWAP3 POP POP SWAP3 POP SWAP3 POP SWAP3 JUMP JUMPDEST PUSH1 0x0 PUSH1 0x20 DUP3 DUP5 SUB SLT ISZERO PUSH2 0x2557 JUMPI PUSH2 0x2556 PUSH2 0x216E JUMP JUMPDEST JUMPDEST PUSH1 0x0 PUSH2 0x2565 DUP5 DUP3 DUP6 ADD PUSH2 0x242C JUMP JUMPDEST SWAP2 POP POP SWAP3 SWAP2 POP POP JUMP JUMPDEST PUSH1 0x0 DUP2 SWAP1 POP SWAP2 SWAP1 POP JUMP JUMPDEST PUSH1 0x0 PUSH2 0x2593 PUSH2 0x258E PUSH2 0x2589 DUP5 PUSH2 0x22F6 JUMP JUMPDEST PUSH2 0x256E JUMP JUMPDEST PUSH2 0x22F6 JUMP JUMPDEST SWAP1 POP SWAP2 SWAP1 POP JUMP JUMPDEST PUSH1 0x0 PUSH2 0x25A5 DUP3 PUSH2 0x2578 JUMP JUMPDEST SWAP1 POP SWAP2 SWAP1 POP JUMP JUMPDEST PUSH1 0x0 PUSH2 0x25B7 DUP3 PUSH2 0x259A JUMP JUMPDEST SWAP1 POP SWAP2 SWAP1 POP JUMP JUMPDEST PUSH2 0x25C7 DUP2 PUSH2 0x25AC JUMP JUMPDEST DUP3 MSTORE POP POP JUMP JUMPDEST PUSH1 0x0 PUSH1 0x20 DUP3 ADD SWAP1 POP PUSH2 0x25E2 PUSH1 0x0 DUP4 ADD DUP5 PUSH2 0x25BE JUMP JUMPDEST SWAP3 SWAP2 POP POP JUMP JUMPDEST PUSH1 0x0 PUSH1 0x40 DUP3 ADD SWAP1 POP PUSH2 0x25FD PUSH1 0x0 DUP4 ADD DUP6 PUSH2 0x23B7 JUMP JUMPDEST PUSH2 0x260A PUSH1 0x20 DUP4 ADD DUP5 PUSH2 0x23B7 JUMP JUMPDEST SWAP4 SWAP3 POP POP POP JUMP JUMPDEST PUSH1 0x0 DUP1 PUSH1 0x40 DUP4 DUP6 SUB SLT ISZERO PUSH2 0x2628 JUMPI PUSH2 0x2627 PUSH2 0x216E JUMP JUMPDEST JUMPDEST PUSH1 0x0 PUSH2 0x2636 DUP6 DUP3 DUP7 ADD PUSH2 0x242C JUMP JUMPDEST SWAP3 POP POP PUSH1 0x20 DUP4 ADD CALLDATALOAD PUSH8 0xFFFFFFFFFFFFFFFF DUP2 GT ISZERO PUSH2 0x2657 JUMPI PUSH2 0x2656 PUSH2 0x2173 JUMP JUMPDEST JUMPDEST PUSH2 0x2663 DUP6 DUP3 DUP7 ADD PUSH2 0x227F JUMP JUMPDEST SWAP2 POP POP SWAP3 POP SWAP3 SWAP1 POP JUMP JUMPDEST PUSH1 0x0 DUP2 MLOAD SWAP1 POP SWAP2 SWAP1 POP JUMP JUMPDEST PUSH1 0x0 DUP3 DUP3 MSTORE PUSH1 0x20 DUP3 ADD SWAP1 POP SWAP3 SWAP2 POP POP JUMP JUMPDEST PUSH1 0x0 DUP2 SWAP1 POP PUSH1 0x20 DUP3 ADD SWAP1 POP SWAP2 SWAP1 POP JUMP JUMPDEST PUSH2 0x26A2 DUP2 PUSH2 0x23E1 JUMP JUMPDEST DUP3 MSTORE POP POP JUMP JUMPDEST PUSH1 0x0 PUSH2 0x26B4 DUP4 DUP4 PUSH2 0x2699 JUMP JUMPDEST PUSH1 0x20 DUP4 ADD SWAP1 POP SWAP3 SWAP2 POP POP JUMP JUMPDEST PUSH1 0x0 PUSH1 0x20 DUP3 ADD SWAP1 POP SWAP2 SWAP1 POP JUMP JUMPDEST PUSH1 0x0 PUSH2 0x26D8 DUP3 PUSH2 0x266D JUMP JUMPDEST PUSH2 0x26E2 DUP2 DUP6 PUSH2 0x2678 JUMP JUMPDEST SWAP4 POP PUSH2 0x26ED DUP4 PUSH2 0x2689 JUMP JUMPDEST DUP1 PUSH1 0x0 JUMPDEST DUP4 DUP2 LT ISZERO PUSH2 0x271E JUMPI DUP2 MLOAD PUSH2 0x2705 DUP9 DUP3 PUSH2 0x26A8 JUMP JUMPDEST SWAP8 POP PUSH2 0x2710 DUP4 PUSH2 0x26C0 JUMP JUMPDEST SWAP3 POP POP PUSH1 0x1 DUP2 ADD SWAP1 POP PUSH2 0x26F1 JUMP JUMPDEST POP DUP6 SWAP4 POP POP POP POP SWAP3 SWAP2 POP POP JUMP JUMPDEST PUSH1 0x0 PUSH1 0x40 DUP3 ADD SWAP1 POP PUSH2 0x2740 PUSH1 0x0 DUP4 ADD DUP6 PUSH2 0x23B7 JUMP JUMPDEST DUP2 DUP2 SUB PUSH1 0x20 DUP4 ADD MSTORE PUSH2 0x2752 DUP2 DUP5 PUSH2 0x26CD JUMP JUMPDEST SWAP1 POP SWAP4 SWAP3 POP POP POP JUMP JUMPDEST PUSH1 0x0 DUP2 MLOAD SWAP1 POP SWAP2 SWAP1 POP JUMP JUMPDEST PUSH1 0x0 DUP3 DUP3 MSTORE PUSH1 0x20 DUP3 ADD SWAP1 POP SWAP3 SWAP2 POP POP JUMP JUMPDEST PUSH1 0x0 DUP2 SWAP1 POP PUSH1 0x20 DUP3 ADD SWAP1 POP SWAP2 SWAP1 POP JUMP JUMPDEST PUSH1 0x0 DUP3 DUP3 MSTORE PUSH1 0x20 DUP3 ADD SWAP1 POP SWAP3 SWAP2 POP POP JUMP JUMPDEST PUSH1 0x0 PUSH2 0x27A3 DUP3 PUSH2 0x20B2 JUMP JUMPDEST PUSH2 0x27AD DUP2 DUP6 PUSH2 0x2787 JUMP JUMPDEST SWAP4 POP PUSH2 0x27BD DUP2 DUP6 PUSH1 0x20 DUP7 ADD PUSH2 0x20CE JUMP JUMPDEST PUSH2 0x27C6 DUP2 PUSH2 0x20F8 JUMP JUMPDEST DUP5 ADD SWAP2 POP POP SWAP3 SWAP2 POP POP JUMP JUMPDEST PUSH1 0x0 PUSH2 0x27DD DUP4 DUP4 PUSH2 0x2798 JUMP JUMPDEST SWAP1 POP SWAP3 SWAP2 POP POP JUMP JUMPDEST PUSH1 0x0 PUSH1 0x20 DUP3 ADD SWAP1 POP SWAP2 SWAP1 POP JUMP JUMPDEST PUSH1 0x0 PUSH2 0x27FD DUP3 PUSH2 0x275B JUMP JUMPDEST PUSH2 0x2807 DUP2 DUP6 PUSH2 0x2766 JUMP JUMPDEST SWAP4 POP DUP4 PUSH1 0x20 DUP3 MUL DUP6 ADD PUSH2 0x2819 DUP6 PUSH2 0x2777 JUMP JUMPDEST DUP1 PUSH1 0x0 JUMPDEST DUP6 DUP2 LT ISZERO PUSH2 0x2855 JUMPI DUP5 DUP5 SUB DUP10 MSTORE DUP2 MLOAD PUSH2 0x2836 DUP6 DUP3 PUSH2 0x27D1 JUMP JUMPDEST SWAP5 POP PUSH2 0x2841 DUP4 PUSH2 0x27E5 JUMP JUMPDEST SWAP3 POP PUSH1 0x20 DUP11 ADD SWAP10 POP POP PUSH1 0x1 DUP2 ADD SWAP1 POP PUSH2 0x281D JUMP JUMPDEST POP DUP3 SWAP8 POP DUP8 SWAP6 POP POP POP POP POP POP SWAP3 SWAP2 POP POP JUMP JUMPDEST PUSH1 0x0 PUSH1 0x20 DUP3 ADD SWAP1 POP DUP2 DUP2 SUB PUSH1 0x0 DUP4 ADD MSTORE PUSH2 0x2881 DUP2 DUP5 PUSH2 0x27F2 JUMP JUMPDEST SWAP1 POP SWAP3 SWAP2 POP POP JUMP JUMPDEST PUSH1 0x0 DUP1 PUSH1 0x40 DUP4 DUP6 SUB SLT ISZERO PUSH2 0x28A0 JUMPI PUSH2 0x289F PUSH2 0x216E JUMP JUMPDEST JUMPDEST PUSH1 0x0 DUP4 ADD CALLDATALOAD PUSH8 0xFFFFFFFFFFFFFFFF DUP2 GT ISZERO PUSH2 0x28BE JUMPI PUSH2 0x28BD PUSH2 0x2173 JUMP JUMPDEST JUMPDEST PUSH2 0x28CA DUP6 DUP3 DUP7 ADD PUSH2 0x227F JUMP JUMPDEST SWAP3 POP POP PUSH1 0x20 DUP4 ADD CALLDATALOAD PUSH8 0xFFFFFFFFFFFFFFFF DUP2 GT ISZERO PUSH2 0x28EB JUMPI PUSH2 0x28EA PUSH2 0x2173 JUMP JUMPDEST JUMPDEST PUSH2 0x28F7 DUP6 DUP3 DUP7 ADD PUSH2 0x227F JUMP JUMPDEST SWAP2 POP POP SWAP3 POP SWAP3 SWAP1 POP JUMP JUMPDEST PUSH32 0x4E487B7100000000000000000000000000000000000000000000000000000000 PUSH1 0x0 MSTORE PUSH1 0x22 PUSH1 0x4 MSTORE PUSH1 0x24 PUSH1 0x0 REVERT JUMPDEST PUSH1 0x0 PUSH1 0x2 DUP3 DIV SWAP1 POP PUSH1 0x1 DUP3 AND DUP1 PUSH2 0x2948 JUMPI PUSH1 0x7F DUP3 AND SWAP2 POP JUMPDEST PUSH1 0x20 DUP3 LT DUP2 SUB PUSH2 0x295B JUMPI PUSH2 0x295A PUSH2 0x2901 JUMP JUMPDEST JUMPDEST POP SWAP2 SWAP1 POP JUMP JUMPDEST PUSH1 0x0 PUSH1 0x40 DUP3 ADD SWAP1 POP PUSH2 0x2976 PUSH1 0x0 DUP4 ADD DUP6 PUSH2 0x2328 JUMP JUMPDEST PUSH2 0x2983 PUSH1 0x20 DUP4 ADD DUP5 PUSH2 0x2328 JUMP JUMPDEST SWAP4 SWAP3 POP POP POP JUMP JUMPDEST PUSH1 0x0 DUP2 SWAP1 POP SWAP3 SWAP2 POP POP JUMP JUMPDEST PUSH1 0x0 PUSH2 0x29A0 DUP3 PUSH2 0x20B2 JUMP JUMPDEST PUSH2 0x29AA DUP2 DUP6 PUSH2 0x298A JUMP JUMPDEST SWAP4 POP PUSH2 0x29BA DUP2 DUP6 PUSH1 0x20 DUP7 ADD PUSH2 0x20CE JUMP JUMPDEST DUP1 DUP5 ADD SWAP2 POP POP SWAP3 SWAP2 POP POP JUMP JUMPDEST PUSH1 0x0 PUSH2 0x29D2 DUP3 DUP5 PUSH2 0x2995 JUMP JUMPDEST SWAP2 POP DUP2 SWAP1 POP SWAP3 SWAP2 POP POP JUMP JUMPDEST PUSH32 0x446973706C6179206E616D6520697320616C72656164792074616B656E000000 PUSH1 0x0 DUP3 ADD MSTORE POP JUMP JUMPDEST PUSH1 0x0 PUSH2 0x2A13 PUSH1 0x1D DUP4 PUSH2 0x20BD JUMP JUMPDEST SWAP2 POP PUSH2 0x2A1E DUP3 PUSH2 0x29DD JUMP JUMPDEST PUSH1 0x20 DUP3 ADD SWAP1 POP SWAP2 SWAP1 POP JUMP JUMPDEST PUSH1 0x0 PUSH1 0x20 DUP3 ADD SWAP1 POP DUP2 DUP2 SUB PUSH1 0x0 DUP4 ADD MSTORE PUSH2 0x2A42 DUP2 PUSH2 0x2A06 JUMP JUMPDEST SWAP1 POP SWAP2 SWAP1 POP JUMP JUMPDEST PUSH32 0x566F7465722068617320616C726561647920766F746564000000000000000000 PUSH1 0x0 DUP3 ADD MSTORE POP JUMP JUMPDEST PUSH1 0x0 PUSH2 0x2A7F PUSH1 0x17 DUP4 PUSH2 0x20BD JUMP JUMPDEST SWAP2 POP PUSH2 0x2A8A DUP3 PUSH2 0x2A49 JUMP JUMPDEST PUSH1 0x20 DUP3 ADD SWAP1 POP SWAP2 SWAP1 POP JUMP JUMPDEST PUSH1 0x0 PUSH1 0x20 DUP3 ADD SWAP1 POP DUP2 DUP2 SUB PUSH1 0x0 DUP4 ADD MSTORE PUSH2 0x2AAE DUP2 PUSH2 0x2A72 JUMP JUMPDEST SWAP1 POP SWAP2 SWAP1 POP JUMP JUMPDEST PUSH32 0x4D7573742062652070726F706F736564206F776E657200000000000000000000 PUSH1 0x0 DUP3 ADD MSTORE POP JUMP JUMPDEST PUSH1 0x0 PUSH2 0x2AEB PUSH1 0x16 DUP4 PUSH2 0x20BD JUMP JUMPDEST SWAP2 POP PUSH2 0x2AF6 DUP3 PUSH2 0x2AB5 JUMP JUMPDEST PUSH1 0x20 DUP3 ADD SWAP1 POP SWAP2 SWAP1 POP JUMP JUMPDEST PUSH1 0x0 PUSH1 0x20 DUP3 ADD SWAP1 POP DUP2 DUP2 SUB PUSH1 0x0 DUP4 ADD MSTORE PUSH2 0x2B1A DUP2 PUSH2 0x2ADE JUMP JUMPDEST SWAP1 POP SWAP2 SWAP1 POP JUMP JUMPDEST PUSH1 0x0 PUSH1 0x60 DUP3 ADD SWAP1 POP PUSH2 0x2B36 PUSH1 0x0 DUP4 ADD DUP7 PUSH2 0x2328 JUMP JUMPDEST PUSH2 0x2B43 PUSH1 0x20 DUP4 ADD DUP6 PUSH2 0x2328 JUMP JUMPDEST PUSH2 0x2B50 PUSH1 0x40 DUP4 ADD DUP5 PUSH2 0x2328 JUMP JUMPDEST SWAP5 SWAP4 POP POP POP POP JUMP JUMPDEST PUSH32 0x72657175657374206E6F7420666F756E64000000000000000000000000000000 PUSH1 0x0 DUP3 ADD MSTORE POP JUMP JUMPDEST PUSH1 0x0 PUSH2 0x2B8E PUSH1 0x11 DUP4 PUSH2 0x20BD JUMP JUMPDEST SWAP2 POP PUSH2 0x2B99 DUP3 PUSH2 0x2B58 JUMP JUMPDEST PUSH1 0x20 DUP3 ADD SWAP1 POP SWAP2 SWAP1 POP JUMP JUMPDEST PUSH1 0x0 PUSH1 0x20 DUP3 ADD SWAP1 POP DUP2 DUP2 SUB PUSH1 0x0 DUP4 ADD MSTORE PUSH2 0x2BBD DUP2 PUSH2 0x2B81 JUMP JUMPDEST SWAP1 POP SWAP2 SWAP1 POP JUMP JUMPDEST PUSH32 0x4D696E696D756D20302E30303120657468657200000000000000000000000000 PUSH1 0x0 DUP3 ADD MSTORE POP JUMP JUMPDEST PUSH1 0x0 PUSH2 0x2BFA PUSH1 0x13 DUP4 PUSH2 0x20BD JUMP JUMPDEST SWAP2 POP PUSH2 0x2C05 DUP3 PUSH2 0x2BC4 JUMP JUMPDEST PUSH1 0x20 DUP3 ADD SWAP1 POP SWAP2 SWAP1 POP JUMP JUMPDEST PUSH1 0x0 PUSH1 0x20 DUP3 ADD SWAP1 POP DUP2 DUP2 SUB PUSH1 0x0 DUP4 ADD MSTORE PUSH2 0x2C29 DUP2 PUSH2 0x2BED JUMP JUMPDEST SWAP1 POP SWAP2 SWAP1 POP JUMP JUMPDEST PUSH32 0x4D6178696D756D20302E30352065746865720000000000000000000000000000 PUSH1 0x0 DUP3 ADD MSTORE POP JUMP JUMPDEST PUSH1 0x0 PUSH2 0x2C66 PUSH1 0x12 DUP4 PUSH2 0x20BD JUMP JUMPDEST SWAP2 POP PUSH2 0x2C71 DUP3 PUSH2 0x2C30 JUMP JUMPDEST PUSH1 0x20 DUP3 ADD SWAP1 POP SWAP2 SWAP1 POP JUMP JUMPDEST PUSH1 0x0 PUSH1 0x20 DUP3 ADD SWAP1 POP DUP2 DUP2 SUB PUSH1 0x0 DUP4 ADD MSTORE PUSH2 0x2C95 DUP2 PUSH2 0x2C59 JUMP JUMPDEST SWAP1 POP SWAP2 SWAP1 POP JUMP JUMPDEST PUSH32 0x50726F6A65637420646F6573206E6F7420657869737400000000000000000000 PUSH1 0x0 DUP3 ADD MSTORE POP JUMP JUMPDEST PUSH1 0x0 PUSH2 0x2CD2 PUSH1 0x16 DUP4 PUSH2 0x20BD JUMP JUMPDEST SWAP2 POP PUSH2 0x2CDD DUP3 PUSH2 0x2C9C JUMP JUMPDEST PUSH1 0x20 DUP3 ADD SWAP1 POP SWAP2 SWAP1 POP JUMP JUMPDEST PUSH1 0x0 PUSH1 0x20 DUP3 ADD SWAP1 POP DUP2 DUP2 SUB PUSH1 0x0 DUP4 ADD MSTORE PUSH2 0x2D01 DUP2 PUSH2 0x2CC5 JUMP JUMPDEST SWAP1 POP SWAP2 SWAP1 POP JUMP JUMPDEST PUSH1 0x0 DUP2 SWAP1 POP DUP2 PUSH1 0x0 MSTORE PUSH1 0x20 PUSH1 0x0 KECCAK256 SWAP1 POP SWAP2 SWAP1 POP JUMP JUMPDEST PUSH1 0x0 PUSH1 0x20 PUSH1 0x1F DUP4 ADD DIV SWAP1 POP SWAP2 SWAP1 POP JUMP JUMPDEST PUSH1 0x0 DUP3 DUP3 SHL SWAP1 POP SWAP3 SWAP2 POP POP JUMP JUMPDEST PUSH1 0x0 PUSH1 0x8 DUP4 MUL PUSH2 0x2D6A PUSH32 0xFFFFFFFFFFFFFFFFFFFFFFFFFFFFFFFFFFFFFFFFFFFFFFFFFFFFFFFFFFFFFFFF DUP3 PUSH2 0x2D2D JUMP JUMPDEST PUSH2 0x2D74 DUP7 DUP4 PUSH2 0x2D2D JUMP JUMPDEST SWAP6 POP DUP1 NOT DUP5 AND SWAP4 POP DUP1 DUP7 AND DUP5 OR SWAP3 POP POP POP SWAP4 SWAP3 POP POP POP JUMP JUMPDEST PUSH1 0x0 PUSH2 0x2DA7 PUSH2 0x2DA2 PUSH2 0x2D9D DUP5 PUSH2 0x23E1 JUMP JUMPDEST PUSH2 0x256E JUMP JUMPDEST PUSH2 0x23E1 JUMP JUMPDEST SWAP1 POP SWAP2 SWAP1 POP JUMP JUMPDEST PUSH1 0x0 DUP2 SWAP1 POP SWAP2 SWAP1 POP JUMP JUMPDEST PUSH2 0x2DC1 DUP4 PUSH2 0x2D8C JUMP JUMPDEST PUSH2 0x2DD5 PUSH2 0x2DCD DUP3 PUSH2 0x2DAE JUMP JUMPDEST DUP5 DUP5 SLOAD PUSH2 0x2D3A JUMP JUMPDEST DUP3 SSTORE POP POP POP POP JUMP JUMPDEST PUSH1 0x0 SWAP1 JUMP JUMPDEST PUSH2 0x2DEA PUSH2 0x2DDD JUMP JUMPDEST PUSH2 0x2DF5 DUP2 DUP5 DUP5 PUSH2 0x2DB8 JUMP JUMPDEST POP POP POP JUMP JUMPDEST JUMPDEST DUP2 DUP2 LT ISZERO PUSH2 0x2E19 JUMPI PUSH2 0x2E0E PUSH1 0x0 DUP3 PUSH2 0x2DE2 JUMP JUMPDEST PUSH1 0x1 DUP2 ADD SWAP1 POP PUSH2 0x2DFB JUMP JUMPDEST POP POP JUMP JUMPDEST PUSH1 0x1F DUP3 GT ISZERO PUSH2 0x2E5E JUMPI PUSH2 0x2E2F DUP2 PUSH2 0x2D08 JUMP JUMPDEST PUSH2 0x2E38 DUP5 PUSH2 0x2D1D JUMP JUMPDEST DUP2 ADD PUSH1 0x20 DUP6 LT ISZERO PUSH2 0x2E47 JUMPI DUP2 SWAP1 POP JUMPDEST PUSH2 0x2E5B PUSH2 0x2E53 DUP6 PUSH2 0x2D1D JUMP JUMPDEST DUP4 ADD DUP3 PUSH2 0x2DFA JUMP JUMPDEST POP POP JUMPDEST POP POP POP JUMP JUMPDEST PUSH1 0x0 DUP3 DUP3 SHR SWAP1 POP SWAP3 SWAP2 POP POP JUMP JUMPDEST PUSH1 0x0 PUSH2 0x2E81 PUSH1 0x0 NOT DUP5 PUSH1 0x8 MUL PUSH2 0x2E63 JUMP JUMPDEST NOT DUP1 DUP4 AND SWAP2 POP POP SWAP3 SWAP2 POP POP JUMP JUMPDEST PUSH1 0x0 PUSH2 0x2E9A DUP4 DUP4 PUSH2 0x2E70 JUMP JUMPDEST SWAP2 POP DUP3 PUSH1 0x2 MUL DUP3 OR SWAP1 POP SWAP3 SWAP2 POP POP JUMP JUMPDEST PUSH2 0x2EB3 DUP3 PUSH2 0x20B2 JUMP JUMPDEST PUSH8 0xFFFFFFFFFFFFFFFF DUP2 GT ISZERO PUSH2 0x2ECC JUMPI PUSH2 0x2ECB PUSH2 0x2182 JUMP JUMPDEST JUMPDEST PUSH2 0x2ED6 DUP3 SLOAD PUSH2 0x2930 JUMP JUMPDEST PUSH2 0x2EE1 DUP3 DUP3 DUP6 PUSH2 0x2E1D JUMP JUMPDEST PUSH1 0x0 PUSH1 0x20 SWAP1 POP PUSH1 0x1F DUP4 GT PUSH1 0x1 DUP2 EQ PUSH2 0x2F14 JUMPI PUSH1 0x0 DUP5 ISZERO PUSH2 0x2F02 JUMPI DUP3 DUP8 ADD MLOAD SWAP1 POP JUMPDEST PUSH2 0x2F0C DUP6 DUP3 PUSH2 0x2E8E JUMP JUMPDEST DUP7 SSTORE POP PUSH2 0x2F74 JUMP JUMPDEST PUSH1 0x1F NOT DUP5 AND PUSH2 0x2F22 DUP7 PUSH2 0x2D08 JUMP JUMPDEST PUSH1 0x0 JUMPDEST DUP3 DUP2 LT ISZERO PUSH2 0x2F4A JUMPI DUP5 DUP10 ADD MLOAD DUP3 SSTORE PUSH1 0x1 DUP3 ADD SWAP2 POP PUSH1 0x20 DUP6 ADD SWAP5 POP PUSH1 0x20 DUP2 ADD SWAP1 POP PUSH2 0x2F25 JUMP JUMPDEST DUP7 DUP4 LT ISZERO PUSH2 0x2F67 JUMPI DUP5 DUP10 ADD MLOAD PUSH2 0x2F63 PUSH1 0x1F DUP10 AND DUP3 PUSH2 0x2E70 JUMP JUMPDEST DUP4 SSTORE POP JUMPDEST PUSH1 0x1 PUSH1 0x2 DUP9 MUL ADD DUP9 SSTORE POP POP POP JUMPDEST POP POP POP POP POP POP JUMP JUMPDEST PUSH32 0x4E487B7100000000000000000000000000000000000000000000000000000000 PUSH1 0x0 MSTORE PUSH1 0x11 PUSH1 0x4 MSTORE PUSH1 0x24 PUSH1 0x0 REVERT JUMPDEST PUSH1 0x0 PUSH2 0x2FB6 DUP3 PUSH2 0x23E1 JUMP JUMPDEST SWAP2 POP PUSH32 0xFFFFFFFFFFFFFFFFFFFFFFFFFFFFFFFFFFFFFFFFFFFFFFFFFFFFFFFFFFFFFFFF DUP3 SUB PUSH2 0x2FE8 JUMPI PUSH2 0x2FE7 PUSH2 0x2F7C JUMP JUMPDEST JUMPDEST PUSH1 0x1 DUP3 ADD SWAP1 POP SWAP2 SWAP1 POP JUMP JUMPDEST PUSH1 0x0 PUSH1 0x80 DUP3 ADD SWAP1 POP PUSH2 0x3008 PUSH1 0x0 DUP4 ADD DUP8 PUSH2 0x2328 JUMP JUMPDEST DUP2 DUP2 SUB PUSH1 0x20 DUP4 ADD MSTORE PUSH2 0x301A DUP2 DUP7 PUSH2 0x2109 JUMP JUMPDEST SWAP1 POP DUP2 DUP2 SUB PUSH1 0x40 DUP4 ADD MSTORE PUSH2 0x302E DUP2 DUP6 PUSH2 0x2109 JUMP JUMPDEST SWAP1 POP PUSH2 0x303D PUSH1 0x60 DUP4 ADD DUP5 PUSH2 0x23EB JUMP JUMPDEST SWAP6 SWAP5 POP POP POP POP POP JUMP JUMPDEST PUSH32 0x50726F6A65637420616C72656164792065786973747300000000000000000000 PUSH1 0x0 DUP3 ADD MSTORE POP JUMP JUMPDEST PUSH1 0x0 PUSH2 0x307C PUSH1 0x16 DUP4 PUSH2 0x20BD JUMP JUMPDEST SWAP2 POP PUSH2 0x3087 DUP3 PUSH2 0x3046 JUMP JUMPDEST PUSH1 0x20 DUP3 ADD SWAP1 POP SWAP2 SWAP1 POP JUMP JUMPDEST PUSH1 0x0 PUSH1 0x20 DUP3 ADD SWAP1 POP DUP2 DUP2 SUB PUSH1 0x0 DUP4 ADD MSTORE PUSH2 0x30AB DUP2 PUSH2 0x306F JUMP JUMPDEST SWAP1 POP SWAP2 SWAP1 POP JUMP JUMPDEST PUSH32 0x50726F6A656374206E616D652069732072657175697265640000000000000000 PUSH1 0x0 DUP3 ADD MSTORE POP JUMP JUMPDEST PUSH1 0x0 PUSH2 0x30E8 PUSH1 0x18 DUP4 PUSH2 0x20BD JUMP JUMPDEST SWAP2 POP PUSH2 0x30F3 DUP3 PUSH2 0x30B2 JUMP JUMPDEST PUSH1 0x20 DUP3 ADD SWAP1 POP SWAP2 SWAP1 POP JUMP JUMPDEST PUSH1 0x0 PUSH1 0x20 DUP3 ADD SWAP1 POP DUP2 DUP2 SUB PUSH1 0x0 DUP4 ADD MSTORE PUSH2 0x3117 DUP2 PUSH2 0x30DB JUMP JUMPDEST SWAP1 POP SWAP2 SWAP1 POP JUMP JUMPDEST PUSH32 0x50726F6A65637420494420697320726571756972656400000000000000000000 PUSH1 0x0 DUP3 ADD MSTORE POP JUMP JUMPDEST PUSH1 0x0 PUSH2 0x3154 PUSH1 0x16 DUP4 PUSH2 0x20BD JUMP JUMPDEST SWAP2 POP PUSH2 0x315F DUP3 PUSH2 0x311E JUMP JUMPDEST PUSH1 0x20 DUP3 ADD SWAP1 POP SWAP2 SWAP1 POP JUMP JUMPDEST PUSH1 0x0 PUSH1 0x20 DUP3 ADD SWAP1 POP DUP2 DUP2 SUB PUSH1 0x0 DUP4 ADD MSTORE PUSH2 0x3183 DUP2 PUSH2 0x3147 JUMP JUMPDEST SWAP1 POP SWAP2 SWAP1 POP JUMP JUMPDEST PUSH1 0x0 PUSH1 0x40 DUP3 ADD SWAP1 POP DUP2 DUP2 SUB PUSH1 0x0 DUP4 ADD MSTORE PUSH2 0x31A4 DUP2 DUP6 PUSH2 0x2109 JUMP JUMPDEST SWAP1 POP DUP2 DUP2 SUB PUSH1 0x20 DUP4 ADD MSTORE PUSH2 0x31B8 DUP2 DUP5 PUSH2 0x2109 JUMP JUMPDEST SWAP1 POP SWAP4 SWAP3 POP POP POP JUMP JUMPDEST PUSH1 0x0 DUP1 REVERT JUMPDEST DUP3 DUP2 DUP4 CALLDATACOPY POP POP POP JUMP JUMPDEST PUSH1 0x0 PUSH2 0x31DB DUP4 DUP6 PUSH2 0x2678 JUMP JUMPDEST SWAP4 POP PUSH32 0x7FFFFFFFFFFFFFFFFFFFFFFFFFFFFFFFFFFFFFFFFFFFFFFFFFFFFFFFFFFFFFF DUP4 GT ISZERO PUSH2 0x320E JUMPI PUSH2 0x320D PUSH2 0x31C1 JUMP JUMPDEST JUMPDEST PUSH1 0x20 DUP4 MUL SWAP3 POP PUSH2 0x321F DUP4 DUP6 DUP5 PUSH2 0x31C6 JUMP JUMPDEST DUP3 DUP5 ADD SWAP1 POP SWAP4 SWAP3 POP POP POP JUMP JUMPDEST PUSH1 0x0 PUSH1 0x40 DUP3 ADD SWAP1 POP PUSH2 0x3240 PUSH1 0x0 DUP4 ADD DUP7 PUSH2 0x23EB JUMP JUMPDEST DUP2 DUP2 SUB PUSH1 0x20 DUP4 ADD MSTORE PUSH2 0x3253 DUP2 DUP5 DUP7 PUSH2 0x31CF JUMP JUMPDEST SWAP1 POP SWAP5 SWAP4 POP POP POP POP JUMP JUMPDEST PUSH32 0x4E487B7100000000000000000000000000000000000000000000000000000000 PUSH1 0x0 MSTORE PUSH1 0x32 PUSH1 0x4 MSTORE PUSH1 0x24 PUSH1 0x0 REVERT JUMPDEST PUSH32 0x4E487B7100000000000000000000000000000000000000000000000000000000 PUSH1 0x0 MSTORE PUSH1 0x12 PUSH1 0x4 MSTORE PUSH1 0x24 PUSH1 0x0 REVERT JUMPDEST PUSH1 0x0 PUSH2 0x32C6 DUP3 PUSH2 0x23E1 JUMP JUMPDEST SWAP2 POP PUSH2 0x32D1 DUP4 PUSH2 0x23E1 JUMP JUMPDEST SWAP3 POP DUP3 PUSH2 0x32E1 JUMPI PUSH2 0x32E0 PUSH2 0x328C JUMP JUMPDEST JUMPDEST DUP3 DUP3 MOD SWAP1 POP SWAP3 SWAP2 POP POP JUMP JUMPDEST PUSH1 0x0 PUSH2 0x32F7 DUP3 PUSH2 0x259A JUMP JUMPDEST SWAP1 POP SWAP2 SWAP1 POP JUMP JUMPDEST PUSH2 0x3307 DUP2 PUSH2 0x32EC JUMP JUMPDEST DUP3 MSTORE POP POP JUMP JUMPDEST PUSH1 0x0 PUSH1 0x60 DUP3 ADD SWAP1 POP PUSH2 0x3322 PUSH1 0x0 DUP4 ADD DUP7 PUSH2 0x32FE JUMP JUMPDEST PUSH2 0x332F PUSH1 0x20 DUP4 ADD DUP6 PUSH2 0x23EB JUMP JUMPDEST PUSH2 0x333C PUSH1 0x40 DUP4 ADD DUP5 PUSH2 0x23EB JUMP JUMPDEST SWAP5 SWAP4 POP POP POP POP JUMP JUMPDEST PUSH32 0x4E6F20766F7465727320746F2072657761726400000000000000000000000000 PUSH1 0x0 DUP3 ADD MSTORE POP JUMP JUMPDEST PUSH1 0x0 PUSH2 0x337A PUSH1 0x13 DUP4 PUSH2 0x20BD JUMP JUMPDEST SWAP2 POP PUSH2 0x3385 DUP3 PUSH2 0x3344 JUMP JUMPDEST PUSH1 0x20 DUP3 ADD SWAP1 POP SWAP2 SWAP1 POP JUMP JUMPDEST PUSH1 0x0 PUSH1 0x20 DUP3 ADD SWAP1 POP DUP2 DUP2 SUB PUSH1 0x0 DUP4 ADD MSTORE PUSH2 0x33A9 DUP2 PUSH2 0x336D JUMP JUMPDEST SWAP1 POP SWAP2 SWAP1 POP JUMP JUMPDEST PUSH32 0x4F6E6C792063616C6C61626C65206279206F776E657200000000000000000000 PUSH1 0x0 DUP3 ADD MSTORE POP JUMP JUMPDEST PUSH1 0x0 PUSH2 0x33E6 PUSH1 0x16 DUP4 PUSH2 0x20BD JUMP JUMPDEST SWAP2 POP PUSH2 0x33F1 DUP3 PUSH2 0x33B0 JUMP JUMPDEST PUSH1 0x20 DUP3 ADD SWAP1 POP SWAP2 SWAP1 POP JUMP JUMPDEST PUSH1 0x0 PUSH1 0x20 DUP3 ADD SWAP1 POP DUP2 DUP2 SUB PUSH1 0x0 DUP4 ADD MSTORE PUSH2 0x3415 DUP2 PUSH2 0x33D9 JUMP JUMPDEST SWAP1 POP SWAP2 SWAP1 POP JUMP JUMPDEST PUSH32 0x43616E6E6F74207472616E7366657220746F2073656C66000000000000000000 PUSH1 0x0 DUP3 ADD MSTORE POP JUMP JUMPDEST PUSH1 0x0 PUSH2 0x3452 PUSH1 0x17 DUP4 PUSH2 0x20BD JUMP JUMPDEST SWAP2 POP PUSH2 0x345D DUP3 PUSH2 0x341C JUMP JUMPDEST PUSH1 0x20 DUP3 ADD SWAP1 POP SWAP2 SWAP1 POP JUMP JUMPDEST PUSH1 0x0 PUSH1 0x20 DUP3 ADD SWAP1 POP DUP2 DUP2 SUB PUSH1 0x0 DUP4 ADD MSTORE PUSH2 0x3481 DUP2 PUSH2 0x3445 JUMP JUMPDEST SWAP1 POP SWAP2 SWAP1 POP JUMP JUMPDEST PUSH1 0x0 DUP2 SWAP1 POP SWAP2 SWAP1 POP JUMP JUMPDEST PUSH2 0x349B DUP2 PUSH2 0x3488 JUMP JUMPDEST DUP3 MSTORE POP POP JUMP JUMPDEST PUSH1 0x0 PUSH2 0xFFFF DUP3 AND SWAP1 POP SWAP2 SWAP1 POP JUMP JUMPDEST PUSH2 0x34B8 DUP2 PUSH2 0x34A1 JUMP JUMPDEST DUP3 MSTORE POP POP JUMP JUMPDEST PUSH1 0x0 PUSH4 0xFFFFFFFF DUP3 AND SWAP1 POP SWAP2 SWAP1 POP JUMP JUMPDEST PUSH2 0x34D7 DUP2 PUSH2 0x34BE JUMP JUMPDEST DUP3 MSTORE POP POP JUMP JUMPDEST PUSH1 0x0 DUP2 MLOAD SWAP1 POP SWAP2 SWAP1 POP JUMP JUMPDEST PUSH1 0x0 DUP3 DUP3 MSTORE PUSH1 0x20 DUP3 ADD SWAP1 POP SWAP3 SWAP2 POP POP JUMP JUMPDEST PUSH1 0x0 PUSH2 0x3504 DUP3 PUSH2 0x34DD JUMP JUMPDEST PUSH2 0x350E DUP2 DUP6 PUSH2 0x34E8 JUMP JUMPDEST SWAP4 POP PUSH2 0x351E DUP2 DUP6 PUSH1 0x20 DUP7 ADD PUSH2 0x20CE JUMP JUMPDEST PUSH2 0x3527 DUP2 PUSH2 0x20F8 JUMP JUMPDEST DUP5 ADD SWAP2 POP POP SWAP3 SWAP2 POP POP JUMP JUMPDEST PUSH1 0x0 PUSH1 0xC0 DUP4 ADD PUSH1 0x0 DUP4 ADD MLOAD PUSH2 0x354A PUSH1 0x0 DUP7 ADD DUP3 PUSH2 0x3492 JUMP JUMPDEST POP PUSH1 0x20 DUP4 ADD MLOAD PUSH2 0x355D PUSH1 0x20 DUP7 ADD DUP3 PUSH2 0x2699 JUMP JUMPDEST POP PUSH1 0x40 DUP4 ADD MLOAD PUSH2 0x3570 PUSH1 0x40 DUP7 ADD DUP3 PUSH2 0x34AF JUMP JUMPDEST POP PUSH1 0x60 DUP4 ADD MLOAD PUSH2 0x3583 PUSH1 0x60 DUP7 ADD DUP3 PUSH2 0x34CE JUMP JUMPDEST POP PUSH1 0x80 DUP4 ADD MLOAD PUSH2 0x3596 PUSH1 0x80 DUP7 ADD DUP3 PUSH2 0x34CE JUMP JUMPDEST POP PUSH1 0xA0 DUP4 ADD MLOAD DUP5 DUP3 SUB PUSH1 0xA0 DUP7 ADD MSTORE PUSH2 0x35AE DUP3 DUP3 PUSH2 0x34F9 JUMP JUMPDEST SWAP2 POP POP DUP1 SWAP2 POP POP SWAP3 SWAP2 POP POP JUMP JUMPDEST PUSH1 0x0 PUSH1 0x20 DUP3 ADD SWAP1 POP DUP2 DUP2 SUB PUSH1 0x0 DUP4 ADD MSTORE PUSH2 0x35D5 DUP2 DUP5 PUSH2 0x3532 JUMP JUMPDEST SWAP1 POP SWAP3 SWAP2 POP POP JUMP JUMPDEST PUSH1 0x0 DUP2 MLOAD SWAP1 POP PUSH2 0x35EC DUP2 PUSH2 0x2415 JUMP JUMPDEST SWAP3 SWAP2 POP POP JUMP JUMPDEST PUSH1 0x0 PUSH1 0x20 DUP3 DUP5 SUB SLT ISZERO PUSH2 0x3608 JUMPI PUSH2 0x3607 PUSH2 0x216E JUMP JUMPDEST JUMPDEST PUSH1 0x0 PUSH2 0x3616 DUP5 DUP3 DUP6 ADD PUSH2 0x35DD JUMP JUMPDEST SWAP2 POP POP SWAP3 SWAP2 POP POP JUMP JUMPDEST PUSH2 0x3628 DUP2 PUSH2 0x34BE JUMP JUMPDEST DUP3 MSTORE POP POP JUMP JUMPDEST PUSH1 0x0 PUSH1 0x40 DUP3 ADD SWAP1 POP PUSH2 0x3643 PUSH1 0x0 DUP4 ADD DUP6 PUSH2 0x23EB JUMP JUMPDEST PUSH2 0x3650 PUSH1 0x20 DUP4 ADD DUP5 PUSH2 0x361F JUMP JUMPDEST SWAP4 SWAP3 POP POP POP JUMP JUMPDEST PUSH2 0x3660 DUP2 PUSH2 0x23AB JUMP JUMPDEST DUP3 MSTORE POP POP JUMP JUMPDEST PUSH1 0x20 DUP3 ADD PUSH1 0x0 DUP3 ADD MLOAD PUSH2 0x367C PUSH1 0x0 DUP6 ADD DUP3 PUSH2 0x3657 JUMP JUMPDEST POP POP POP POP JUMP JUMPDEST PUSH1 0x0 PUSH1 0x20 DUP3 ADD SWAP1 POP PUSH2 0x3697 PUSH1 0x0 DUP4 ADD DUP5 PUSH2 0x3666 JUMP JUMPDEST SWAP3 SWAP2 POP POP JUMP INVALID LOG2 PUSH5 0x6970667358 0x22 SLT KECCAK256 0xDB SMOD CODESIZE 0xB4 0xE8 0xF8 PUSH9 0x9CFEF03FEC6CD5CB20 DUP10 PUSH9 0xAD3FC8AED08C065D0 TIMESTAMP 0x2F PUSH23 0x7D9064736F6C6343000814003300000000000000000000 "
        },
        "methodIdentifiers": {
          "acceptOwnership()": "79ba5097",
          "add(string,string)": "ebdf86ca",
          "addressChoice(address)": "e7f72f10",
          "addressToName(address)": "e2a04b62",
          "checkHasVoted()": "1234ce9d",
          "currentCycle()": "bab2f552",
          "cycleVoters(uint256,uint256)": "12fe56e5",
          "cycleVotes(uint256,string)": "a9382125",
          "getBalance()": "12065fe0",
          "getCycle()": "655bce22",
          "getCycleVoteCount(string)": "71c8fdbd",
          "getProjects()": "dcc60128",
          "getRequestStatus(uint256)": "d8a4676f",
          "getThreshold()": "e75235b8",
          "getVote()": "0242f351",
          "hasVoted(address)": "09eef43e",
          "lastRequestId()": "fc2a88c3",
          "nameToAddress(string)": "08d88aad",
          "owner()": "8da5cb5b",
          "projects(string)": "91c9b268",
          "rawFulfillRandomWords(uint256,uint256[])": "1fe543e3",
          "registerVoter(string)": "6428a486",
          "requestIds(uint256)": "8796ba8c",
          "s_requests(uint256)": "a168fa89",
          "s_vrfCoordinator()": "9eccacf6",
          "setCoordinator(address)": "8ea98117",
          "transferOwnership(address)": "f2fde38b",
          "vote(string,string)": "e8d5940d"
        }
      }
    }
  }
}