{
  "contractName": "ProjectVoting",
  "abi": [
    {
      "inputs": [
        {
          "internalType": "address",
          "name": "_vrfCoordinator",
          "type": "address"
        },
        {
          "internalType": "uint256",
          "name": "_subscriptionId",
          "type": "uint256"
        },
        {
          "internalType": "bytes32",
          "name": "_keyHash",
          "type": "bytes32"
        }
      ],
      "stateMutability": "nonpayable",
      "type": "constructor"
    },
    {
      "inputs": [
        {
          "internalType": "address",
          "name": "have",
          "type": "address"
        },
        {
          "internalType": "address",
          "name": "want",
          "type": "address"
        }
      ],
      "name": "OnlyCoordinatorCanFulfill",
      "type": "error"
    },
    {
      "inputs": [
        {
          "internalType": "address",
          "name": "have",
          "type": "address"
        },
        {
          "internalType": "address",
          "name": "owner",
          "type": "address"
        },
        {
          "internalType": "address",
          "name": "coordinator",
          "type": "address"
        }
      ],
      "name": "OnlyOwnerOrCoordinator",
      "type": "error"
    },
    {
      "inputs": [],
      "name": "ZeroAddress",
      "type": "error"
    },
    {
      "anonymous": false,
      "inputs": [
        {
          "indexed": false,
          "internalType": "address",
          "name": "voter",
          "type": "address"
        },
        {
          "indexed": false,
          "internalType": "string[]",
          "name": "actionCIDs",
          "type": "string[]"
        }
      ],
      "name": "ActionPerformed",
      "type": "event"
    },
    {
      "anonymous": false,
      "inputs": [
        {
          "indexed": false,
          "internalType": "address",
          "name": "vrfCoordinator",
          "type": "address"
        }
      ],
      "name": "CoordinatorSet",
      "type": "event"
    },
    {
      "anonymous": false,
      "inputs": [
        {
          "indexed": true,
          "internalType": "address",
          "name": "from",
          "type": "address"
        },
        {
          "indexed": true,
          "internalType": "address",
          "name": "to",
          "type": "address"
        }
      ],
      "name": "OwnershipTransferRequested",
      "type": "event"
    },
    {
      "anonymous": false,
      "inputs": [
        {
          "indexed": true,
          "internalType": "address",
          "name": "from",
          "type": "address"
        },
        {
          "indexed": true,
          "internalType": "address",
          "name": "to",
          "type": "address"
        }
      ],
      "name": "OwnershipTransferred",
      "type": "event"
    },
    {
      "anonymous": false,
      "inputs": [
        {
          "indexed": false,
          "internalType": "string",
          "name": "projectId",
          "type": "string"
        },
        {
          "indexed": false,
          "internalType": "string",
          "name": "projectName",
          "type": "string"
        }
      ],
      "name": "ProjectAdded",
      "type": "event"
    },
    {
      "anonymous": false,
      "inputs": [
        {
          "indexed": false,
          "internalType": "uint256",
          "name": "requestId",
          "type": "uint256"
        },
        {
          "indexed": false,
          "internalType": "uint256[]",
          "name": "randomWords",
          "type": "uint256[]"
        }
      ],
      "name": "RequestFulfilled",
      "type": "event"
    },
    {
      "anonymous": false,
      "inputs": [
        {
          "indexed": false,
          "internalType": "uint256",
          "name": "requestId",
          "type": "uint256"
        },
        {
          "indexed": false,
          "internalType": "uint32",
          "name": "numWords",
          "type": "uint32"
        }
      ],
      "name": "RequestSent",
      "type": "event"
    },
    {
      "anonymous": false,
      "inputs": [
        {
          "indexed": false,
          "internalType": "address",
          "name": "voter",
          "type": "address"
        },
        {
          "indexed": false,
          "internalType": "string",
          "name": "name",
          "type": "string"
        },
        {
          "indexed": false,
          "internalType": "string",
          "name": "projectId",
          "type": "string"
        },
        {
          "indexed": false,
          "internalType": "uint256",
          "name": "cycle",
          "type": "uint256"
        }
      ],
      "name": "Voted",
      "type": "event"
    },
    {
      "anonymous": false,
      "inputs": [
        {
          "indexed": false,
          "internalType": "address",
          "name": "winner",
          "type": "address"
        },
        {
          "indexed": false,
          "internalType": "uint256",
          "name": "amount",
          "type": "uint256"
        },
        {
          "indexed": false,
          "internalType": "uint256",
          "name": "cycle",
          "type": "uint256"
        }
      ],
      "name": "WinnerAnnounced",
      "type": "event"
    },
    {
      "inputs": [],
      "name": "acceptOwnership",
      "outputs": [],
      "stateMutability": "nonpayable",
      "type": "function"
    },
    {
      "inputs": [
        {
          "internalType": "uint256",
          "name": "",
          "type": "uint256"
        },
        {
          "internalType": "address",
          "name": "",
          "type": "address"
        }
      ],
      "name": "addressCycleChoice",
      "outputs": [
        {
          "internalType": "string",
          "name": "",
          "type": "string"
        }
      ],
      "stateMutability": "view",
      "type": "function",
      "constant": true
    },
    {
      "inputs": [
        {
          "internalType": "address",
          "name": "",
          "type": "address"
        }
      ],
      "name": "addressNames",
      "outputs": [
        {
          "internalType": "string",
          "name": "",
          "type": "string"
        }
      ],
      "stateMutability": "view",
      "type": "function",
      "constant": true
    },
    {
      "inputs": [],
      "name": "currentCycle",
      "outputs": [
        {
          "internalType": "uint256",
          "name": "",
          "type": "uint256"
        }
      ],
      "stateMutability": "view",
      "type": "function",
      "constant": true
    },
    {
      "inputs": [
        {
          "internalType": "uint256",
          "name": "",
          "type": "uint256"
        },
        {
          "internalType": "uint256",
          "name": "",
          "type": "uint256"
        }
      ],
      "name": "cycleVoters",
      "outputs": [
        {
          "internalType": "address",
          "name": "",
          "type": "address"
        }
      ],
      "stateMutability": "view",
      "type": "function",
      "constant": true
    },
    {
      "inputs": [
        {
          "internalType": "uint256",
          "name": "",
          "type": "uint256"
        },
        {
          "internalType": "string",
          "name": "",
          "type": "string"
        }
      ],
      "name": "cycleVotes",
      "outputs": [
        {
          "internalType": "uint256",
          "name": "",
          "type": "uint256"
        }
      ],
      "stateMutability": "view",
      "type": "function",
      "constant": true
    },
    {
      "inputs": [
        {
          "internalType": "uint256",
          "name": "",
          "type": "uint256"
        },
        {
          "internalType": "address",
          "name": "",
          "type": "address"
        }
      ],
      "name": "hasVotedForCycle",
      "outputs": [
        {
          "internalType": "bool",
          "name": "",
          "type": "bool"
        }
      ],
      "stateMutability": "view",
      "type": "function",
      "constant": true
    },
    {
      "inputs": [],
      "name": "lastRequestId",
      "outputs": [
        {
          "internalType": "uint256",
          "name": "",
          "type": "uint256"
        }
      ],
      "stateMutability": "view",
      "type": "function",
      "constant": true
    },
    {
      "inputs": [],
      "name": "owner",
      "outputs": [
        {
          "internalType": "address",
          "name": "",
          "type": "address"
        }
      ],
      "stateMutability": "view",
      "type": "function",
      "constant": true
    },
    {
      "inputs": [
        {
          "internalType": "string",
          "name": "",
          "type": "string"
        }
      ],
      "name": "projects",
      "outputs": [
        {
          "internalType": "string",
          "name": "",
          "type": "string"
        }
      ],
      "stateMutability": "view",
      "type": "function",
      "constant": true
    },
    {
      "inputs": [
        {
          "internalType": "uint256",
          "name": "requestId",
          "type": "uint256"
        },
        {
          "internalType": "uint256[]",
          "name": "randomWords",
          "type": "uint256[]"
        }
      ],
      "name": "rawFulfillRandomWords",
      "outputs": [],
      "stateMutability": "nonpayable",
      "type": "function"
    },
    {
      "inputs": [
        {
          "internalType": "uint256",
          "name": "",
          "type": "uint256"
        }
      ],
      "name": "requestIds",
      "outputs": [
        {
          "internalType": "uint256",
          "name": "",
          "type": "uint256"
        }
      ],
      "stateMutability": "view",
      "type": "function",
      "constant": true
    },
    {
      "inputs": [
        {
          "internalType": "uint256",
          "name": "",
          "type": "uint256"
        }
      ],
      "name": "s_requests",
      "outputs": [
        {
          "internalType": "bool",
          "name": "fulfilled",
          "type": "bool"
        },
        {
          "internalType": "bool",
          "name": "exists",
          "type": "bool"
        }
      ],
      "stateMutability": "view",
      "type": "function",
      "constant": true
    },
    {
      "inputs": [],
      "name": "s_vrfCoordinator",
      "outputs": [
        {
          "internalType": "contract IVRFCoordinatorV2Plus",
          "name": "",
          "type": "address"
        }
      ],
      "stateMutability": "view",
      "type": "function",
      "constant": true
    },
    {
      "inputs": [
        {
          "internalType": "address",
          "name": "_vrfCoordinator",
          "type": "address"
        }
      ],
      "name": "setCoordinator",
      "outputs": [],
      "stateMutability": "nonpayable",
      "type": "function"
    },
    {
      "inputs": [
        {
          "internalType": "address",
          "name": "to",
          "type": "address"
        }
      ],
      "name": "transferOwnership",
      "outputs": [],
      "stateMutability": "nonpayable",
      "type": "function"
    },
    {
      "inputs": [
        {
          "internalType": "string",
          "name": "projectName",
          "type": "string"
        },
        {
          "internalType": "string",
          "name": "projectId",
          "type": "string"
        }
      ],
      "name": "add",
      "outputs": [],
      "stateMutability": "nonpayable",
      "type": "function"
    },
    {
      "inputs": [
        {
          "internalType": "string",
          "name": "projectId",
          "type": "string"
        },
        {
          "internalType": "string",
          "name": "voterName",
          "type": "string"
        }
      ],
      "name": "vote",
      "outputs": [],
      "stateMutability": "payable",
      "type": "function",
      "payable": true
    },
    {
      "inputs": [
        {
          "internalType": "string",
          "name": "projectId",
          "type": "string"
        }
      ],
      "name": "getCycleVoteCount",
      "outputs": [
        {
          "internalType": "uint256",
          "name": "",
          "type": "uint256"
        }
      ],
      "stateMutability": "view",
      "type": "function",
      "constant": true
    },
    {
      "inputs": [],
      "name": "checkHasVotedForCycle",
      "outputs": [
        {
          "internalType": "bool",
          "name": "",
          "type": "bool"
        }
      ],
      "stateMutability": "view",
      "type": "function",
      "constant": true
    },
    {
      "inputs": [],
      "name": "getVoteCycleChoice",
      "outputs": [
        {
          "internalType": "string",
          "name": "",
          "type": "string"
        }
      ],
      "stateMutability": "view",
      "type": "function",
      "constant": true
    },
    {
      "inputs": [],
      "name": "getCycle",
      "outputs": [
        {
          "internalType": "uint256",
          "name": "",
          "type": "uint256"
        }
      ],
      "stateMutability": "view",
      "type": "function",
      "constant": true
    },
    {
      "inputs": [],
      "name": "getBalance",
      "outputs": [
        {
          "internalType": "uint256",
          "name": "",
          "type": "uint256"
        }
      ],
      "stateMutability": "view",
      "type": "function",
      "constant": true
    },
    {
      "inputs": [],
      "name": "getThreshold",
      "outputs": [
        {
          "internalType": "uint256",
          "name": "",
          "type": "uint256"
        }
      ],
      "stateMutability": "view",
      "type": "function",
      "constant": true
    },
    {
      "inputs": [
        {
          "internalType": "uint256",
          "name": "_requestId",
          "type": "uint256"
        }
      ],
      "name": "getRequestStatus",
      "outputs": [
        {
          "internalType": "bool",
          "name": "fulfilled",
          "type": "bool"
        },
        {
          "internalType": "uint256[]",
          "name": "randomWords",
          "type": "uint256[]"
        }
      ],
      "stateMutability": "view",
      "type": "function",
      "constant": true
    }
  ],
  "bytecode": "0x608060405267016345785d8a00006009556001600a55620186a0600d5f6101000a81548163ffffffff021916908363ffffffff1602179055506003600d60046101000a81548161ffff021916908361ffff1602179055506001600d60066101000a81548163ffffffff021916908363ffffffff16021790555034801562000084575f80fd5b50604051620030a9380380620030a98339818101604052810190620000aa919062000467565b8233805f8073ffffffffffffffffffffffffffffffffffffffff168273ffffffffffffffffffffffffffffffffffffffff16036200011f576040517f08c379a000000000000000000000000000000000000000000000000000000000815260040162000116906200051e565b60405180910390fd5b815f806101000a81548173ffffffffffffffffffffffffffffffffffffffff021916908373ffffffffffffffffffffffffffffffffffffffff1602179055505f73ffffffffffffffffffffffffffffffffffffffff168173ffffffffffffffffffffffffffffffffffffffff1614620001a457620001a3816200026560201b60201c565b5b5050505f73ffffffffffffffffffffffffffffffffffffffff168173ffffffffffffffffffffffffffffffffffffffff16036200020d576040517fd92e233d00000000000000000000000000000000000000000000000000000000815260040160405180910390fd5b8060025f6101000a81548173ffffffffffffffffffffffffffffffffffffffff021916908373ffffffffffffffffffffffffffffffffffffffff1602179055505081600b8190555080600c81905550505050620005ac565b3373ffffffffffffffffffffffffffffffffffffffff168173ffffffffffffffffffffffffffffffffffffffff1603620002d6576040517f08c379a0000000000000000000000000000000000000000000000000000000008152600401620002cd906200058c565b60405180910390fd5b8060015f6101000a81548173ffffffffffffffffffffffffffffffffffffffff021916908373ffffffffffffffffffffffffffffffffffffffff1602179055508073ffffffffffffffffffffffffffffffffffffffff165f8054906101000a900473ffffffffffffffffffffffffffffffffffffffff1673ffffffffffffffffffffffffffffffffffffffff167fed8889f560326eb138920d842192f0eb3dd22b4f139c87a2c57538e05bae127860405160405180910390a350565b5f80fd5b5f73ffffffffffffffffffffffffffffffffffffffff82169050919050565b5f620003c18262000396565b9050919050565b620003d381620003b5565b8114620003de575f80fd5b50565b5f81519050620003f181620003c8565b92915050565b5f819050919050565b6200040b81620003f7565b811462000416575f80fd5b50565b5f81519050620004298162000400565b92915050565b5f819050919050565b62000443816200042f565b81146200044e575f80fd5b50565b5f81519050620004618162000438565b92915050565b5f805f6060848603121562000481576200048062000392565b5b5f6200049086828701620003e1565b9350506020620004a38682870162000419565b9250506040620004b68682870162000451565b9150509250925092565b5f82825260208201905092915050565b7f43616e6e6f7420736574206f776e657220746f207a65726f00000000000000005f82015250565b5f62000506601883620004c0565b91506200051382620004d0565b602082019050919050565b5f6020820190508181035f8301526200053781620004f8565b9050919050565b7f43616e6e6f74207472616e7366657220746f2073656c660000000000000000005f82015250565b5f62000574601783620004c0565b915062000581826200053e565b602082019050919050565b5f6020820190508181035f830152620005a58162000566565b9050919050565b612aef80620005ba5f395ff3fe608060405260043610610165575f3560e01c8063a168fa89116100d0578063df67bcf711610089578063e8d5940d11610063578063e8d5940d14610579578063ebdf86ca14610595578063f2fde38b146105bd578063fc2a88c3146105e557610165565b8063df67bcf7146104e9578063e221a16e14610513578063e75235b81461054f57610165565b8063a168fa89146103a3578063a9382125146103e0578063afe8efeb1461041c578063b050186914610446578063bab2f55214610482578063d8a4676f146104ac57610165565b806379ba50971161012257806379ba5097146102995780638796ba8c146102af5780638da5cb5b146102eb5780638ea981171461031557806391c9b2681461033d5780639eccacf61461037957610165565b806312065fe01461016957806312fe56e5146101935780631fe543e3146101cf5780635934d70e146101f7578063655bce221461023357806371c8fdbd1461025d575b5f80fd5b348015610174575f80fd5b5061017d61060f565b60405161018a9190611962565b60405180910390f35b34801561019e575f80fd5b506101b960048036038101906101b491906119b6565b610616565b6040516101c69190611a33565b60405180910390f35b3480156101da575f80fd5b506101f560048036038101906101f09190611aad565b61065e565b005b348015610202575f80fd5b5061021d60048036038101906102189190611b34565b610722565b60405161022a9190611b8c565b60405180910390f35b34801561023e575f80fd5b5061024761074c565b6040516102549190611962565b60405180910390f35b348015610268575f80fd5b50610283600480360381019061027e9190611cdd565b610755565b6040516102909190611962565b60405180910390f35b3480156102a4575f80fd5b506102ad61078d565b005b3480156102ba575f80fd5b506102d560048036038101906102d09190611d24565b61091c565b6040516102e29190611962565b60405180910390f35b3480156102f6575f80fd5b506102ff61093c565b60405161030c9190611a33565b60405180910390f35b348015610320575f80fd5b5061033b60048036038101906103369190611d4f565b610963565b005b348015610348575f80fd5b50610363600480360381019061035e9190611cdd565b610b40565b6040516103709190611df4565b60405180910390f35b348015610384575f80fd5b5061038d610bf3565b60405161039a9190611e6f565b60405180910390f35b3480156103ae575f80fd5b506103c960048036038101906103c49190611d24565b610c18565b6040516103d7929190611e88565b60405180910390f35b3480156103eb575f80fd5b5061040660048036038101906104019190611eaf565b610c50565b6040516104139190611962565b60405180910390f35b348015610427575f80fd5b50610430610c88565b60405161043d9190611df4565b60405180910390f35b348015610451575f80fd5b5061046c60048036038101906104679190611d4f565b610d64565b6040516104799190611df4565b60405180910390f35b34801561048d575f80fd5b50610496610dff565b6040516104a39190611962565b60405180910390f35b3480156104b7575f80fd5b506104d260048036038101906104cd9190611d24565b610e05565b6040516104e0929190611fc0565b60405180910390f35b3480156104f4575f80fd5b506104fd610f23565b60405161050a9190611b8c565b60405180910390f35b34801561051e575f80fd5b5061053960048036038101906105349190611b34565b610f84565b6040516105469190611df4565b60405180910390f35b34801561055a575f80fd5b5061056361102a565b6040516105709190611962565b60405180910390f35b610593600480360381019061058e9190611fee565b611033565b005b3480156105a0575f80fd5b506105bb60048036038101906105b69190611fee565b61138d565b005b3480156105c8575f80fd5b506105e360048036038101906105de9190611d4f565b6114f0565b005b3480156105f0575f80fd5b506105f9611504565b6040516106069190611962565b60405180910390f35b5f47905090565b6006602052815f5260405f20818154811061062f575f80fd5b905f5260205f20015f915091509054906101000a900473ffffffffffffffffffffffffffffffffffffffff1681565b60025f9054906101000a900473ffffffffffffffffffffffffffffffffffffffff1673ffffffffffffffffffffffffffffffffffffffff163373ffffffffffffffffffffffffffffffffffffffff1614610712573360025f9054906101000a900473ffffffffffffffffffffffffffffffffffffffff166040517f1cf993f4000000000000000000000000000000000000000000000000000000008152600401610709929190612064565b60405180910390fd5b61071d83838361150a565b505050565b6005602052815f5260405f20602052805f5260405f205f915091509054906101000a900460ff1681565b5f600a54905090565b5f60035f600a5481526020019081526020015f208260405161077791906120c5565b9081526020016040518091039020549050919050565b60015f9054906101000a900473ffffffffffffffffffffffffffffffffffffffff1673ffffffffffffffffffffffffffffffffffffffff163373ffffffffffffffffffffffffffffffffffffffff161461081c576040517f08c379a000000000000000000000000000000000000000000000000000000000815260040161081390612125565b60405180910390fd5b5f805f9054906101000a900473ffffffffffffffffffffffffffffffffffffffff169050335f806101000a81548173ffffffffffffffffffffffffffffffffffffffff021916908373ffffffffffffffffffffffffffffffffffffffff1602179055505f60015f6101000a81548173ffffffffffffffffffffffffffffffffffffffff021916908373ffffffffffffffffffffffffffffffffffffffff1602179055503373ffffffffffffffffffffffffffffffffffffffff168173ffffffffffffffffffffffffffffffffffffffff167f8be0079c531659141344cd1fd0a4f28419497f9722a3daafe3b4186f6b6457e060405160405180910390a350565b600e818154811061092b575f80fd5b905f5260205f20015f915090505481565b5f805f9054906101000a900473ffffffffffffffffffffffffffffffffffffffff16905090565b61096b61093c565b73ffffffffffffffffffffffffffffffffffffffff163373ffffffffffffffffffffffffffffffffffffffff16141580156109f3575060025f9054906101000a900473ffffffffffffffffffffffffffffffffffffffff1673ffffffffffffffffffffffffffffffffffffffff163373ffffffffffffffffffffffffffffffffffffffff1614155b15610a615733610a0161093c565b60025f9054906101000a900473ffffffffffffffffffffffffffffffffffffffff166040517f061db9c1000000000000000000000000000000000000000000000000000000008152600401610a5893929190612143565b60405180910390fd5b5f73ffffffffffffffffffffffffffffffffffffffff168173ffffffffffffffffffffffffffffffffffffffff1603610ac6576040517fd92e233d00000000000000000000000000000000000000000000000000000000815260040160405180910390fd5b8060025f6101000a81548173ffffffffffffffffffffffffffffffffffffffff021916908373ffffffffffffffffffffffffffffffffffffffff1602179055507fd1a6a14209a385a964d036e404cb5cfb71f4000cdb03c9366292430787261be681604051610b359190611a33565b60405180910390a150565b6008818051602081018201805184825260208301602085012081835280955050505050505f915090508054610b74906121a5565b80601f0160208091040260200160405190810160405280929190818152602001828054610ba0906121a5565b8015610beb5780601f10610bc257610100808354040283529160200191610beb565b820191905f5260205f20905b815481529060010190602001808311610bce57829003601f168201915b505050505081565b60025f9054906101000a900473ffffffffffffffffffffffffffffffffffffffff1681565b6010602052805f5260405f205f91509050805f015f9054906101000a900460ff1690805f0160019054906101000a900460ff16905082565b6003602052815f5260405f20818051602081018201805184825260208301602085012081835280955050505050505f91509150505481565b606060045f600a5481526020019081526020015f205f3373ffffffffffffffffffffffffffffffffffffffff1673ffffffffffffffffffffffffffffffffffffffff1681526020019081526020015f208054610ce3906121a5565b80601f0160208091040260200160405190810160405280929190818152602001828054610d0f906121a5565b8015610d5a5780601f10610d3157610100808354040283529160200191610d5a565b820191905f5260205f20905b815481529060010190602001808311610d3d57829003601f168201915b5050505050905090565b6007602052805f5260405f205f915090508054610d80906121a5565b80601f0160208091040260200160405190810160405280929190818152602001828054610dac906121a5565b8015610df75780601f10610dce57610100808354040283529160200191610df7565b820191905f5260205f20905b815481529060010190602001808311610dda57829003601f168201915b505050505081565b600a5481565b5f606060105f8481526020019081526020015f205f0160019054906101000a900460ff16610e68576040517f08c379a0000000000000000000000000000000000000000000000000000000008152600401610e5f9061221f565b60405180910390fd5b5f60105f8581526020019081526020015f206040518060600160405290815f82015f9054906101000a900460ff161515151581526020015f820160019054906101000a900460ff1615151515815260200160018201805480602002602001604051908101604052809291908181526020018280548015610f0557602002820191905f5260205f20905b815481526020019060010190808311610ef1575b5050505050815250509050805f015181604001519250925050915091565b5f60055f600a5481526020019081526020015f205f3373ffffffffffffffffffffffffffffffffffffffff1673ffffffffffffffffffffffffffffffffffffffff1681526020019081526020015f205f9054906101000a900460ff16905090565b6004602052815f5260405f20602052805f5260405f205f91509150508054610fab906121a5565b80601f0160208091040260200160405190810160405280929190818152602001828054610fd7906121a5565b80156110225780601f10610ff957610100808354040283529160200191611022565b820191905f5260205f20905b81548152906001019060200180831161100557829003601f168201915b505050505081565b5f600954905090565b66038d7ea4c6800034101561107d576040517f08c379a000000000000000000000000000000000000000000000000000000000815260040161107490612287565b60405180910390fd5b66b1a2bc2ec500003411156110c7576040517f08c379a00000000000000000000000000000000000000000000000000000000081526004016110be906122ef565b60405180910390fd5b5f60055f600a5481526020019081526020015f205f3373ffffffffffffffffffffffffffffffffffffffff1673ffffffffffffffffffffffffffffffffffffffff1681526020019081526020015f205f9054906101000a900460ff1690508015611166576040517f08c379a000000000000000000000000000000000000000000000000000000000815260040161115d90612357565b60405180910390fd5b5f60088460405161117791906120c5565b90815260200160405180910390208054611190906121a5565b9050116111d2576040517f08c379a00000000000000000000000000000000000000000000000000000000081526004016111c9906123bf565b60405180910390fd5b8260045f600a5481526020019081526020015f205f3373ffffffffffffffffffffffffffffffffffffffff1673ffffffffffffffffffffffffffffffffffffffff1681526020019081526020015f20908161122d9190612571565b5060035f600a5481526020019081526020015f208360405161124f91906120c5565b90815260200160405180910390205f81548092919061126d9061266d565b9190505550600160055f600a5481526020019081526020015f205f3373ffffffffffffffffffffffffffffffffffffffff1673ffffffffffffffffffffffffffffffffffffffff1681526020019081526020015f205f6101000a81548160ff02191690831515021790555060065f600a5481526020019081526020015f2033908060018154018082558091505060019003905f5260205f20015f9091909190916101000a81548173ffffffffffffffffffffffffffffffffffffffff021916908373ffffffffffffffffffffffffffffffffffffffff1602179055507f6cb0a41e9298e8d3ff3de34496ff4e64afd0962993efd997ff057aa62043436f338385600a5460405161138094939291906126b4565b60405180910390a1505050565b61139561172b565b5f6008826040516113a691906120c5565b908152602001604051809103902080546113bf906121a5565b905014611401576040517f08c379a00000000000000000000000000000000000000000000000000000000081526004016113f89061274f565b60405180910390fd5b5f825111611444576040517f08c379a000000000000000000000000000000000000000000000000000000000815260040161143b906127b7565b60405180910390fd5b5f815111611487576040517f08c379a000000000000000000000000000000000000000000000000000000000815260040161147e9061281f565b60405180910390fd5b8160088260405161149891906120c5565b908152602001604051809103902090816114b29190612571565b507feb5d6000a362475be9d9b16beddc148b7004850daf2e69325a403d613567769e81836040516114e492919061283d565b60405180910390a15050565b6114f861172b565b611501816117ba565b50565b600f5481565b60105f8481526020019081526020015f205f0160019054906101000a900460ff1661156a576040517f08c379a00000000000000000000000000000000000000000000000000000000081526004016115619061221f565b60405180910390fd5b600160105f8581526020019081526020015f205f015f6101000a81548160ff021916908315150217905550818160105f8681526020019081526020015f2060010191906115b89291906118e4565b507ffe2e2d779dba245964d4e3ef9b994be63856fd568bf7d3ca9e224755cb1bd54d8383836040516115ec939291906128da565b60405180910390a15f82825f8181106116085761160761290a565b5b9050602002013590505f60065f600a5481526020019081526020015f2080549050826116349190612964565b90505f60065f600a5481526020019081526020015f20828154811061165c5761165b61290a565b5b905f5260205f20015f9054906101000a900473ffffffffffffffffffffffffffffffffffffffff1690505f4790507f1545cd4197b626f3a89e81606417b61cd942aa094771eaa0bbbf9562c1e17de08282600a546040516116bf939291906129b4565b60405180910390a18173ffffffffffffffffffffffffffffffffffffffff166108fc8290811502906040515f60405180830381858888f1935050505015801561170a573d5f803e3d5ffd5b50600a5f81548092919061171d9061266d565b919050555050505050505050565b5f8054906101000a900473ffffffffffffffffffffffffffffffffffffffff1673ffffffffffffffffffffffffffffffffffffffff163373ffffffffffffffffffffffffffffffffffffffff16146117b8576040517f08c379a00000000000000000000000000000000000000000000000000000000081526004016117af90612a33565b60405180910390fd5b565b3373ffffffffffffffffffffffffffffffffffffffff168173ffffffffffffffffffffffffffffffffffffffff1603611828576040517f08c379a000000000000000000000000000000000000000000000000000000000815260040161181f90612a9b565b60405180910390fd5b8060015f6101000a81548173ffffffffffffffffffffffffffffffffffffffff021916908373ffffffffffffffffffffffffffffffffffffffff1602179055508073ffffffffffffffffffffffffffffffffffffffff165f8054906101000a900473ffffffffffffffffffffffffffffffffffffffff1673ffffffffffffffffffffffffffffffffffffffff167fed8889f560326eb138920d842192f0eb3dd22b4f139c87a2c57538e05bae127860405160405180910390a350565b828054828255905f5260205f2090810192821561191e579160200282015b8281111561191d578235825591602001919060010190611902565b5b50905061192b919061192f565b5090565b5b80821115611946575f815f905550600101611930565b5090565b5f819050919050565b61195c8161194a565b82525050565b5f6020820190506119755f830184611953565b92915050565b5f604051905090565b5f80fd5b5f80fd5b6119958161194a565b811461199f575f80fd5b50565b5f813590506119b08161198c565b92915050565b5f80604083850312156119cc576119cb611984565b5b5f6119d9858286016119a2565b92505060206119ea858286016119a2565b9150509250929050565b5f73ffffffffffffffffffffffffffffffffffffffff82169050919050565b5f611a1d826119f4565b9050919050565b611a2d81611a13565b82525050565b5f602082019050611a465f830184611a24565b92915050565b5f80fd5b5f80fd5b5f80fd5b5f8083601f840112611a6d57611a6c611a4c565b5b8235905067ffffffffffffffff811115611a8a57611a89611a50565b5b602083019150836020820283011115611aa657611aa5611a54565b5b9250929050565b5f805f60408486031215611ac457611ac3611984565b5b5f611ad1868287016119a2565b935050602084013567ffffffffffffffff811115611af257611af1611988565b5b611afe86828701611a58565b92509250509250925092565b611b1381611a13565b8114611b1d575f80fd5b50565b5f81359050611b2e81611b0a565b92915050565b5f8060408385031215611b4a57611b49611984565b5b5f611b57858286016119a2565b9250506020611b6885828601611b20565b9150509250929050565b5f8115159050919050565b611b8681611b72565b82525050565b5f602082019050611b9f5f830184611b7d565b92915050565b5f80fd5b5f601f19601f8301169050919050565b7f4e487b71000000000000000000000000000000000000000000000000000000005f52604160045260245ffd5b611bef82611ba9565b810181811067ffffffffffffffff82111715611c0e57611c0d611bb9565b5b80604052505050565b5f611c2061197b565b9050611c2c8282611be6565b919050565b5f67ffffffffffffffff821115611c4b57611c4a611bb9565b5b611c5482611ba9565b9050602081019050919050565b828183375f83830152505050565b5f611c81611c7c84611c31565b611c17565b905082815260208101848484011115611c9d57611c9c611ba5565b5b611ca8848285611c61565b509392505050565b5f82601f830112611cc457611cc3611a4c565b5b8135611cd4848260208601611c6f565b91505092915050565b5f60208284031215611cf257611cf1611984565b5b5f82013567ffffffffffffffff811115611d0f57611d0e611988565b5b611d1b84828501611cb0565b91505092915050565b5f60208284031215611d3957611d38611984565b5b5f611d46848285016119a2565b91505092915050565b5f60208284031215611d6457611d63611984565b5b5f611d7184828501611b20565b91505092915050565b5f81519050919050565b5f82825260208201905092915050565b5f5b83811015611db1578082015181840152602081019050611d96565b5f8484015250505050565b5f611dc682611d7a565b611dd08185611d84565b9350611de0818560208601611d94565b611de981611ba9565b840191505092915050565b5f6020820190508181035f830152611e0c8184611dbc565b905092915050565b5f819050919050565b5f611e37611e32611e2d846119f4565b611e14565b6119f4565b9050919050565b5f611e4882611e1d565b9050919050565b5f611e5982611e3e565b9050919050565b611e6981611e4f565b82525050565b5f602082019050611e825f830184611e60565b92915050565b5f604082019050611e9b5f830185611b7d565b611ea86020830184611b7d565b9392505050565b5f8060408385031215611ec557611ec4611984565b5b5f611ed2858286016119a2565b925050602083013567ffffffffffffffff811115611ef357611ef2611988565b5b611eff85828601611cb0565b9150509250929050565b5f81519050919050565b5f82825260208201905092915050565b5f819050602082019050919050565b611f3b8161194a565b82525050565b5f611f4c8383611f32565b60208301905092915050565b5f602082019050919050565b5f611f6e82611f09565b611f788185611f13565b9350611f8383611f23565b805f5b83811015611fb3578151611f9a8882611f41565b9750611fa583611f58565b925050600181019050611f86565b5085935050505092915050565b5f604082019050611fd35f830185611b7d565b8181036020830152611fe58184611f64565b90509392505050565b5f806040838503121561200457612003611984565b5b5f83013567ffffffffffffffff81111561202157612020611988565b5b61202d85828601611cb0565b925050602083013567ffffffffffffffff81111561204e5761204d611988565b5b61205a85828601611cb0565b9150509250929050565b5f6040820190506120775f830185611a24565b6120846020830184611a24565b9392505050565b5f81905092915050565b5f61209f82611d7a565b6120a9818561208b565b93506120b9818560208601611d94565b80840191505092915050565b5f6120d08284612095565b915081905092915050565b7f4d7573742062652070726f706f736564206f776e6572000000000000000000005f82015250565b5f61210f601683611d84565b915061211a826120db565b602082019050919050565b5f6020820190508181035f83015261213c81612103565b9050919050565b5f6060820190506121565f830186611a24565b6121636020830185611a24565b6121706040830184611a24565b949350505050565b7f4e487b71000000000000000000000000000000000000000000000000000000005f52602260045260245ffd5b5f60028204905060018216806121bc57607f821691505b6020821081036121cf576121ce612178565b5b50919050565b7f72657175657374206e6f7420666f756e640000000000000000000000000000005f82015250565b5f612209601183611d84565b9150612214826121d5565b602082019050919050565b5f6020820190508181035f830152612236816121fd565b9050919050565b7f4d696e696d756d20302e303031206574686572000000000000000000000000005f82015250565b5f612271601383611d84565b915061227c8261223d565b602082019050919050565b5f6020820190508181035f83015261229e81612265565b9050919050565b7f4d6178696d756d20302e303520657468657200000000000000000000000000005f82015250565b5f6122d9601283611d84565b91506122e4826122a5565b602082019050919050565b5f6020820190508181035f830152612306816122cd565b9050919050565b7f416c726561647920766f746564000000000000000000000000000000000000005f82015250565b5f612341600d83611d84565b915061234c8261230d565b602082019050919050565b5f6020820190508181035f83015261236e81612335565b9050919050565b7f50726f6a65637420646f6573206e6f74206578697374000000000000000000005f82015250565b5f6123a9601683611d84565b91506123b482612375565b602082019050919050565b5f6020820190508181035f8301526123d68161239d565b9050919050565b5f819050815f5260205f209050919050565b5f6020601f8301049050919050565b5f82821b905092915050565b5f600883026124397fffffffffffffffffffffffffffffffffffffffffffffffffffffffffffffffff826123fe565b61244386836123fe565b95508019841693508086168417925050509392505050565b5f61247561247061246b8461194a565b611e14565b61194a565b9050919050565b5f819050919050565b61248e8361245b565b6124a261249a8261247c565b84845461240a565b825550505050565b5f90565b6124b66124aa565b6124c1818484612485565b505050565b5b818110156124e4576124d95f826124ae565b6001810190506124c7565b5050565b601f821115612529576124fa816123dd565b612503846123ef565b81016020851015612512578190505b61252661251e856123ef565b8301826124c6565b50505b505050565b5f82821c905092915050565b5f6125495f198460080261252e565b1980831691505092915050565b5f612561838361253a565b9150826002028217905092915050565b61257a82611d7a565b67ffffffffffffffff81111561259357612592611bb9565b5b61259d82546121a5565b6125a88282856124e8565b5f60209050601f8311600181146125d9575f84156125c7578287015190505b6125d18582612556565b865550612638565b601f1984166125e7866123dd565b5f5b8281101561260e578489015182556001820191506020850194506020810190506125e9565b8683101561262b5784890151612627601f89168261253a565b8355505b6001600288020188555050505b505050505050565b7f4e487b71000000000000000000000000000000000000000000000000000000005f52601160045260245ffd5b5f6126778261194a565b91507fffffffffffffffffffffffffffffffffffffffffffffffffffffffffffffffff82036126a9576126a8612640565b5b600182019050919050565b5f6080820190506126c75f830187611a24565b81810360208301526126d98186611dbc565b905081810360408301526126ed8185611dbc565b90506126fc6060830184611953565b95945050505050565b7f50726f6a65637420616c726561647920657869737473000000000000000000005f82015250565b5f612739601683611d84565b915061274482612705565b602082019050919050565b5f6020820190508181035f8301526127668161272d565b9050919050565b7f50726f6a656374206e616d6520697320726571756972656400000000000000005f82015250565b5f6127a1601883611d84565b91506127ac8261276d565b602082019050919050565b5f6020820190508181035f8301526127ce81612795565b9050919050565b7f50726f6a656374204944206973207265717569726564000000000000000000005f82015250565b5f612809601683611d84565b9150612814826127d5565b602082019050919050565b5f6020820190508181035f830152612836816127fd565b9050919050565b5f6040820190508181035f8301526128558185611dbc565b905081810360208301526128698184611dbc565b90509392505050565b5f80fd5b82818337505050565b5f61288a8385611f13565b93507f07ffffffffffffffffffffffffffffffffffffffffffffffffffffffffffffff8311156128bd576128bc612872565b5b6020830292506128ce838584612876565b82840190509392505050565b5f6040820190506128ed5f830186611953565b818103602083015261290081848661287f565b9050949350505050565b7f4e487b71000000000000000000000000000000000000000000000000000000005f52603260045260245ffd5b7f4e487b71000000000000000000000000000000000000000000000000000000005f52601260045260245ffd5b5f61296e8261194a565b91506129798361194a565b92508261298957612988612937565b5b828206905092915050565b5f61299e82611e3e565b9050919050565b6129ae81612994565b82525050565b5f6060820190506129c75f8301866129a5565b6129d46020830185611953565b6129e16040830184611953565b949350505050565b7f4f6e6c792063616c6c61626c65206279206f776e6572000000000000000000005f82015250565b5f612a1d601683611d84565b9150612a28826129e9565b602082019050919050565b5f6020820190508181035f830152612a4a81612a11565b9050919050565b7f43616e6e6f74207472616e7366657220746f2073656c660000000000000000005f82015250565b5f612a85601783611d84565b9150612a9082612a51565b602082019050919050565b5f6020820190508181035f830152612ab281612a79565b905091905056fea264697066735822122076033fc55c56adf3928d07352e2bd8ce38f06ab2c4ecd3c967384b79cf0d55e164736f6c63430008150033",
  "immutableReferences": {},
  "source": "// SPDX-License-Identifier: MIT\npragma solidity ^0.8.19;\n\nimport \"@openzeppelin/contracts/utils/Address.sol\";\nimport \"@chainlink/contracts/src/v0.8/vrf/dev/libraries/VRFV2PlusClient.sol\";\nimport \"@openzeppelin/contracts/token/ERC20/IERC20.sol\";\n\nimport {ConfirmedOwner} from \"@chainlink/contracts/src/v0.8/shared/access/ConfirmedOwner.sol\";\nimport {VRFV2PlusWrapperConsumerBase} from \"@chainlink/contracts/src/v0.8/vrf/dev/VRFV2PlusWrapperConsumerBase.sol\";\nimport {LinkTokenInterface} from \"@chainlink/contracts/src/v0.8/shared/interfaces/LinkTokenInterface.sol\";\nimport {VRFV2PlusClient} from \"@chainlink/contracts/src/v0.8/vrf/dev/libraries/VRFV2PlusClient.sol\";\nimport {VRFConsumerBaseV2Plus} from \"@chainlink/contracts/src/v0.8/vrf/dev/VRFConsumerBaseV2Plus.sol\";\n\ncontract ProjectVoting is VRFConsumerBaseV2Plus {\n    // Voting mappings\n    mapping(uint => mapping(string => uint)) public cycleVotes; // total project votes within the current cycle\n    mapping(uint => mapping(address => string)) public addressCycleChoice; // address project choice for the currrent cycle\n    mapping(uint => mapping(address => bool)) public hasVotedForCycle; // has the address voted for a project in the current cycle\n    mapping(uint => address[]) public cycleVoters; // list of voters of the current cycle\n    mapping(address => string) public addressNames; // address display names\n    mapping(string => string) public projects;\n\n    uint private threshold = 0.1 ether;\n    uint public currentCycle = 1;\n\n    // Chainlink VRF Variables\n    uint256 s_subscriptionId;\n    bytes32 private keyHash;\n    uint32 private callbackGasLimit = 100000; // Adjust the gas limit based on the requirement\n    uint16 private requestConfirmations = 3; // Minimum number of confirmations\n    uint32 private numWords =  1; // Number of random values to request\n\n    // Voting Events\n    event ProjectAdded(string projectId, string projectName);\n    event Voted(address voter, string name, string projectId, uint cycle);\n    event WinnerAnnounced(address winner, uint256 amount, uint cycle);\n\n    // User Action Events\n    event ActionPerformed(address voter, string[] actionCIDs);\n\n    // Chainlink VRF Events\n    event RequestSent(uint256 requestId, uint32 numWords);\n    event RequestFulfilled(uint256 requestId, uint256[] randomWords);\n\n    // Chainlink VRF Past Request IDs.\n    uint256[] public requestIds;\n    uint256 public lastRequestId;\n\n    struct RequestStatus {\n        bool fulfilled; // whether the request has been successfully fulfilled\n        bool exists; // whether a requestId exists\n        uint256[] randomWords;\n    }\n\n    mapping(uint256 => RequestStatus)\n\n    public s_requests;\n\n    constructor(address _vrfCoordinator, uint256 _subscriptionId, bytes32 _keyHash) VRFConsumerBaseV2Plus(_vrfCoordinator) {\n        s_subscriptionId = _subscriptionId;\n        keyHash = _keyHash;\n    }\n\n    function add(string memory projectName, string memory projectId) public onlyOwner {\n        require(bytes(projects[projectId]).length == 0, \"Project already exists\");\n        require(bytes(projectName).length > 0, \"Project name is required\");\n        require(bytes(projectId).length > 0, \"Project ID is required\"); \n        projects[projectId] = projectName;\n        emit ProjectAdded(projectId, projectName);\n    }\n\n    function vote(string memory projectId, string memory voterName) payable public {\n        require(msg.value >= 0.001 ether, \"Minimum 0.001 ether\");\n        require(msg.value <= 0.05 ether, \"Maximum 0.05 ether\");\n        bool hasVoted = hasVotedForCycle[currentCycle][msg.sender];\n        require(!hasVoted, \"Already voted\");\n        require(bytes(projects[projectId]).length > 0, \"Project does not exist\"); \n        addressCycleChoice[currentCycle][msg.sender] = projectId;\n        cycleVotes[currentCycle][projectId]++;\n        hasVotedForCycle[currentCycle][msg.sender] = true;\n        cycleVoters[currentCycle].push(msg.sender);\n        //checkAndTransfer();\n        emit Voted(msg.sender, voterName, projectId, currentCycle);\n    }\n\n    function getCycleVoteCount(string memory projectId) public view returns (uint) {\n        return cycleVotes[currentCycle][projectId];\n    }\n\n    function checkHasVotedForCycle() public view returns (bool) {\n        return hasVotedForCycle[currentCycle][msg.sender];\n    }\n\n    function getVoteCycleChoice() public view returns (string memory) {\n        return addressCycleChoice[currentCycle][msg.sender];\n    }\n\n    function getCycle() public view returns (uint) {\n        return currentCycle;\n    }\n\n    function getBalance() public view returns (uint256) {\n        return address(this).balance;\n    }\n\n    function getThreshold() public view returns (uint256) {\n        return threshold;\n    }\n\n    function requestRandomWords(\n        bool enableNativePayment\n    ) internal returns (uint256 requestId) {\n        requestId = s_vrfCoordinator.requestRandomWords(\n            VRFV2PlusClient.RandomWordsRequest({\n                keyHash: keyHash,\n                subId: s_subscriptionId,\n                requestConfirmations: requestConfirmations,\n                callbackGasLimit: callbackGasLimit,\n                numWords: numWords,\n                extraArgs: VRFV2PlusClient._argsToBytes(\n                    VRFV2PlusClient.ExtraArgsV1({\n                        nativePayment: enableNativePayment\n                    })\n                )\n            })\n        );\n        s_requests[requestId] = RequestStatus({\n            randomWords: new uint256[](0),\n            exists: true,\n            fulfilled: false\n        });\n        requestIds.push(requestId);\n        lastRequestId = requestId;\n        emit RequestSent(requestId, numWords);\n        return requestId;\n    }\n\n    function checkAndTransfer() internal {\n        if (address(this).balance >= threshold) {\n            require(cycleVoters[currentCycle].length > 0, \"No voters to reward\");\n            requestRandomWords(false);\n        }\n    }\n\n    function getRequestStatus(\n        uint256 _requestId\n    ) external view returns (bool fulfilled, uint256[] memory randomWords) {\n        require(s_requests[_requestId].exists, \"request not found\");\n        RequestStatus memory request = s_requests[_requestId];\n        return (request.fulfilled, request.randomWords);\n    }\n\n    // pick random winner once threshold is met for the current vote cycle\n    function fulfillRandomWords(uint256 _requestId, uint256[] calldata _randomWords) internal override {\n        require(s_requests[_requestId].exists, \"request not found\");\n        s_requests[_requestId].fulfilled = true;\n        s_requests[_requestId].randomWords = _randomWords;\n        emit RequestFulfilled(_requestId, _randomWords);\n        uint256 randomResult = _randomWords[0];\n        uint randomIndex = randomResult % cycleVoters[currentCycle].length;\n        address payable luckyVoter = payable(cycleVoters[currentCycle][randomIndex]);\n        uint256 amountToSend = address(this).balance;\n        emit WinnerAnnounced(luckyVoter, amountToSend, currentCycle);\n        luckyVoter.transfer(amountToSend);\n        currentCycle++;\n    }\n}\n",
  "sourcePath": "/home/devindavis/WebDev/Projects/PersonalSite/smart-contracts/contracts/project-voting.sol",
  "compiler": {
    "name": "solc",
    "version": "0.8.21+commit.d9974bed.Emscripten.clang"
  },
  "schemaVersion": "3.4.16",
  "updatedAt": "2024-08-13T20:51:25.442Z",
  "networkType": "ethereum",
  "devdoc": {
    "kind": "dev",
    "methods": {},
    "version": 1
  },
  "userdoc": {
    "kind": "user",
    "methods": {
      "acceptOwnership()": {
        "notice": "Allows an ownership transfer to be completed by the recipient."
      },
      "owner()": {
        "notice": "Get the current owner"
      },
      "setCoordinator(address)": {
        "notice": "Sets the VRF Coordinator addressThis method should only be callable by the coordinator or contract owner"
      },
      "transferOwnership(address)": {
        "notice": "Allows an owner to begin transferring ownership to a new address, pending."
      }
    },
    "version": 1
  }
}