{
  "contractName": "ProjectVoting",
  "abi": [
    {
      "inputs": [
        {
          "internalType": "address",
          "name": "_vrfCoordinator",
          "type": "address"
        },
        {
          "internalType": "uint64",
          "name": "_subscriptionId",
          "type": "uint64"
        },
        {
          "internalType": "bytes32",
          "name": "_keyHash",
          "type": "bytes32"
        }
      ],
      "stateMutability": "nonpayable",
      "type": "constructor"
    },
    {
      "inputs": [
        {
          "internalType": "address",
          "name": "have",
          "type": "address"
        },
        {
          "internalType": "address",
          "name": "want",
          "type": "address"
        }
      ],
      "name": "OnlyCoordinatorCanFulfill",
      "type": "error"
    },
    {
      "anonymous": false,
      "inputs": [
        {
          "indexed": false,
          "internalType": "address",
          "name": "voter",
          "type": "address"
        },
        {
          "indexed": false,
          "internalType": "string[]",
          "name": "actionCIDs",
          "type": "string[]"
        }
      ],
      "name": "ActionPerformed",
      "type": "event"
    },
    {
      "anonymous": false,
      "inputs": [
        {
          "indexed": false,
          "internalType": "string",
          "name": "projectId",
          "type": "string"
        },
        {
          "indexed": false,
          "internalType": "string",
          "name": "projectName",
          "type": "string"
        }
      ],
      "name": "ProjectAdded",
      "type": "event"
    },
    {
      "anonymous": false,
      "inputs": [
        {
          "indexed": false,
          "internalType": "uint256",
          "name": "randomNumber",
          "type": "uint256"
        }
      ],
      "name": "RandomNumberReceived",
      "type": "event"
    },
    {
      "anonymous": false,
      "inputs": [
        {
          "indexed": false,
          "internalType": "uint256",
          "name": "requestId",
          "type": "uint256"
        }
      ],
      "name": "RandomNumberRequested",
      "type": "event"
    },
    {
      "anonymous": false,
      "inputs": [
        {
          "indexed": false,
          "internalType": "address",
          "name": "voter",
          "type": "address"
        },
        {
          "indexed": false,
          "internalType": "string",
          "name": "name",
          "type": "string"
        },
        {
          "indexed": false,
          "internalType": "string",
          "name": "projectId",
          "type": "string"
        }
      ],
      "name": "Voted",
      "type": "event"
    },
    {
      "anonymous": false,
      "inputs": [
        {
          "indexed": false,
          "internalType": "address",
          "name": "winner",
          "type": "address"
        },
        {
          "indexed": false,
          "internalType": "uint256",
          "name": "amount",
          "type": "uint256"
        }
      ],
      "name": "WinnerAnnounced",
      "type": "event"
    },
    {
      "inputs": [
        {
          "internalType": "address",
          "name": "",
          "type": "address"
        },
        {
          "internalType": "uint256",
          "name": "",
          "type": "uint256"
        }
      ],
      "name": "addressActions",
      "outputs": [
        {
          "internalType": "string",
          "name": "",
          "type": "string"
        }
      ],
      "stateMutability": "view",
      "type": "function",
      "constant": true
    },
    {
      "inputs": [
        {
          "internalType": "uint256",
          "name": "",
          "type": "uint256"
        },
        {
          "internalType": "address",
          "name": "",
          "type": "address"
        }
      ],
      "name": "addressCycleChoice",
      "outputs": [
        {
          "internalType": "string",
          "name": "",
          "type": "string"
        }
      ],
      "stateMutability": "view",
      "type": "function",
      "constant": true
    },
    {
      "inputs": [
        {
          "internalType": "address",
          "name": "",
          "type": "address"
        }
      ],
      "name": "addressNames",
      "outputs": [
        {
          "internalType": "string",
          "name": "",
          "type": "string"
        }
      ],
      "stateMutability": "view",
      "type": "function",
      "constant": true
    },
    {
      "inputs": [],
      "name": "currentCycle",
      "outputs": [
        {
          "internalType": "uint256",
          "name": "",
          "type": "uint256"
        }
      ],
      "stateMutability": "view",
      "type": "function",
      "constant": true
    },
    {
      "inputs": [
        {
          "internalType": "uint256",
          "name": "",
          "type": "uint256"
        },
        {
          "internalType": "address",
          "name": "",
          "type": "address"
        }
      ],
      "name": "cycleAddressVotes",
      "outputs": [
        {
          "internalType": "uint256",
          "name": "",
          "type": "uint256"
        }
      ],
      "stateMutability": "view",
      "type": "function",
      "constant": true
    },
    {
      "inputs": [
        {
          "internalType": "uint256",
          "name": "",
          "type": "uint256"
        },
        {
          "internalType": "string",
          "name": "",
          "type": "string"
        }
      ],
      "name": "cycleProjectVotes",
      "outputs": [
        {
          "internalType": "uint256",
          "name": "",
          "type": "uint256"
        }
      ],
      "stateMutability": "view",
      "type": "function",
      "constant": true
    },
    {
      "inputs": [
        {
          "internalType": "uint256",
          "name": "",
          "type": "uint256"
        },
        {
          "internalType": "uint256",
          "name": "",
          "type": "uint256"
        }
      ],
      "name": "cycleVoters",
      "outputs": [
        {
          "internalType": "address",
          "name": "",
          "type": "address"
        }
      ],
      "stateMutability": "view",
      "type": "function",
      "constant": true
    },
    {
      "inputs": [
        {
          "internalType": "uint256",
          "name": "",
          "type": "uint256"
        },
        {
          "internalType": "address",
          "name": "",
          "type": "address"
        }
      ],
      "name": "hasVoted",
      "outputs": [
        {
          "internalType": "bool",
          "name": "",
          "type": "bool"
        }
      ],
      "stateMutability": "view",
      "type": "function",
      "constant": true
    },
    {
      "inputs": [
        {
          "internalType": "uint256",
          "name": "",
          "type": "uint256"
        }
      ],
      "name": "projectIds",
      "outputs": [
        {
          "internalType": "string",
          "name": "",
          "type": "string"
        }
      ],
      "stateMutability": "view",
      "type": "function",
      "constant": true
    },
    {
      "inputs": [
        {
          "internalType": "string",
          "name": "",
          "type": "string"
        }
      ],
      "name": "projects",
      "outputs": [
        {
          "internalType": "string",
          "name": "",
          "type": "string"
        }
      ],
      "stateMutability": "view",
      "type": "function",
      "constant": true
    },
    {
      "inputs": [
        {
          "internalType": "uint256",
          "name": "requestId",
          "type": "uint256"
        },
        {
          "internalType": "uint256[]",
          "name": "randomWords",
          "type": "uint256[]"
        }
      ],
      "name": "rawFulfillRandomWords",
      "outputs": [],
      "stateMutability": "nonpayable",
      "type": "function"
    },
    {
      "inputs": [
        {
          "internalType": "string",
          "name": "projectName",
          "type": "string"
        },
        {
          "internalType": "string",
          "name": "projectId",
          "type": "string"
        }
      ],
      "name": "add",
      "outputs": [],
      "stateMutability": "nonpayable",
      "type": "function"
    },
    {
      "inputs": [
        {
          "internalType": "string",
          "name": "projectId",
          "type": "string"
        },
        {
          "internalType": "string",
          "name": "voterName",
          "type": "string"
        }
      ],
      "name": "vote",
      "outputs": [],
      "stateMutability": "payable",
      "type": "function",
      "payable": true
    },
    {
      "inputs": [],
      "name": "voteTest",
      "outputs": [
        {
          "internalType": "uint256",
          "name": "",
          "type": "uint256"
        }
      ],
      "stateMutability": "payable",
      "type": "function",
      "payable": true
    },
    {
      "inputs": [
        {
          "internalType": "string",
          "name": "projectId",
          "type": "string"
        }
      ],
      "name": "getCycleVoteCount",
      "outputs": [
        {
          "internalType": "uint256",
          "name": "",
          "type": "uint256"
        }
      ],
      "stateMutability": "view",
      "type": "function",
      "constant": true
    },
    {
      "inputs": [],
      "name": "getAll",
      "outputs": [
        {
          "internalType": "string[]",
          "name": "",
          "type": "string[]"
        }
      ],
      "stateMutability": "view",
      "type": "function",
      "constant": true
    },
    {
      "inputs": [],
      "name": "checkHasVotedForCycle",
      "outputs": [
        {
          "internalType": "bool",
          "name": "",
          "type": "bool"
        }
      ],
      "stateMutability": "view",
      "type": "function",
      "constant": true
    },
    {
      "inputs": [],
      "name": "getVoteCycleChoice",
      "outputs": [
        {
          "internalType": "string",
          "name": "",
          "type": "string"
        }
      ],
      "stateMutability": "view",
      "type": "function",
      "constant": true
    },
    {
      "inputs": [],
      "name": "getBalance",
      "outputs": [
        {
          "internalType": "uint256",
          "name": "",
          "type": "uint256"
        }
      ],
      "stateMutability": "view",
      "type": "function",
      "constant": true
    },
    {
      "inputs": [],
      "name": "getThreshold",
      "outputs": [
        {
          "internalType": "uint256",
          "name": "",
          "type": "uint256"
        }
      ],
      "stateMutability": "view",
      "type": "function",
      "constant": true
    },
    {
      "inputs": [],
      "name": "getAddressAction",
      "outputs": [
        {
          "internalType": "string[]",
          "name": "",
          "type": "string[]"
        }
      ],
      "stateMutability": "view",
      "type": "function",
      "constant": true
    },
    {
      "inputs": [
        {
          "internalType": "address",
          "name": "newOwner",
          "type": "address"
        }
      ],
      "name": "transferOwnership",
      "outputs": [],
      "stateMutability": "nonpayable",
      "type": "function"
    },
    {
      "inputs": [
        {
          "internalType": "string[]",
          "name": "actionCIDs",
          "type": "string[]"
        }
      ],
      "name": "addActions",
      "outputs": [],
      "stateMutability": "nonpayable",
      "type": "function"
    },
    {
      "inputs": [],
      "name": "withdraw",
      "outputs": [],
      "stateMutability": "nonpayable",
      "type": "function"
    }
  ],
  "bytecode": "0x60a060405267016345785d8a0000600a556001600b55620186a0600e5f6101000a81548163ffffffff021916908363ffffffff1602179055506003600e60046101000a81548161ffff021916908361ffff1602179055506001600e60066101000a81548163ffffffff021916908363ffffffff16021790555034801562000084575f80fd5b5060405162002fe238038062002fe28339818101604052810190620000aa919062000278565b828073ffffffffffffffffffffffffffffffffffffffff1660808173ffffffffffffffffffffffffffffffffffffffff1681525050503360095f6101000a81548173ffffffffffffffffffffffffffffffffffffffff021916908373ffffffffffffffffffffffffffffffffffffffff16021790555081600c60146101000a81548167ffffffffffffffff021916908367ffffffffffffffff16021790555080600d8190555082600c5f6101000a81548173ffffffffffffffffffffffffffffffffffffffff021916908373ffffffffffffffffffffffffffffffffffffffff160217905550505050620002d1565b5f80fd5b5f73ffffffffffffffffffffffffffffffffffffffff82169050919050565b5f620001c8826200019d565b9050919050565b620001da81620001bc565b8114620001e5575f80fd5b50565b5f81519050620001f881620001cf565b92915050565b5f67ffffffffffffffff82169050919050565b6200021c81620001fe565b811462000227575f80fd5b50565b5f815190506200023a8162000211565b92915050565b5f819050919050565b620002548162000240565b81146200025f575f80fd5b50565b5f81519050620002728162000249565b92915050565b5f805f6060848603121562000292576200029162000199565b5b5f620002a186828701620001e8565b9350506020620002b4868287016200022a565b9250506040620002c78682870162000262565b9150509250925092565b608051612cf1620002f15f395f81816106ef01526107430152612cf15ff3fe60806040526004361061014a575f3560e01c8063ae1ac2b0116100b5578063e196f92c1161006e578063e196f92c146104c0578063e221a16e146104ea578063e75235b814610526578063e8d5940d14610550578063ebdf86ca1461056c578063f2fde38b146105945761014a565b8063ae1ac2b01461038e578063afe8efeb146103ca578063b0501869146103f4578063bab2f55214610430578063bdd01abf1461045a578063df67bcf7146104965761014a565b806348c35ad41161010757806348c35ad41461025657806353ed5143146102925780635936e68e146102bc57806371c8fdbd146102f857806391c9b2681461033457806395dacd52146103705761014a565b806312065fe01461014e57806312cb2abf1461017857806312fe56e5146101a05780631fe543e3146101dc5780633ccfd60b14610204578063438596321461021a575b5f80fd5b348015610159575f80fd5b506101626105bc565b60405161016f91906119b8565b60405180910390f35b348015610183575f80fd5b5061019e60048036038101906101999190611c00565b6105c3565b005b3480156101ab575f80fd5b506101c660048036038101906101c19190611c71565b6106a5565b6040516101d39190611cee565b60405180910390f35b3480156101e7575f80fd5b5061020260048036038101906101fd9190611dc7565b6106ed565b005b34801561020f575f80fd5b506102186107ad565b005b348015610225575f80fd5b50610240600480360381019061023b9190611e4b565b6108a3565b60405161024d9190611ea3565b60405180910390f35b348015610261575f80fd5b5061027c60048036038101906102779190611ebc565b6108cd565b6040516102899190611f61565b60405180910390f35b34801561029d575f80fd5b506102a6610973565b6040516102b39190612084565b60405180910390f35b3480156102c7575f80fd5b506102e260048036038101906102dd9190611e4b565b610a47565b6040516102ef91906119b8565b60405180910390f35b348015610303575f80fd5b5061031e600480360381019061031991906120a4565b610a67565b60405161032b91906119b8565b60405180910390f35b34801561033f575f80fd5b5061035a600480360381019061035591906120a4565b610a9e565b6040516103679190611f61565b60405180910390f35b610378610b51565b60405161038591906119b8565b60405180910390f35b348015610399575f80fd5b506103b460048036038101906103af91906120eb565b610b58565b6040516103c191906119b8565b60405180910390f35b3480156103d5575f80fd5b506103de610b8f565b6040516103eb9190611f61565b60405180910390f35b3480156103ff575f80fd5b5061041a60048036038101906104159190612145565b610c6b565b6040516104279190611f61565b60405180910390f35b34801561043b575f80fd5b50610444610d06565b60405161045191906119b8565b60405180910390f35b348015610465575f80fd5b50610480600480360381019061047b9190612170565b610d0c565b60405161048d9190611f61565b60405180910390f35b3480156104a1575f80fd5b506104aa610dbd565b6040516104b79190611ea3565b60405180910390f35b3480156104cb575f80fd5b506104d4610e1e565b6040516104e19190612084565b60405180910390f35b3480156104f5575f80fd5b50610510600480360381019061050b9190611e4b565b610f2d565b60405161051d9190611f61565b60405180910390f35b348015610531575f80fd5b5061053a610fd3565b60405161054791906119b8565b60405180910390f35b61056a600480360381019061056591906121ae565b610fdc565b005b348015610577575f80fd5b50610592600480360381019061058d91906121ae565b611334565b005b34801561059f575f80fd5b506105ba60048036038101906105b59190612145565b611550565b005b5f47905090565b5f5b81518110156106685760065f3373ffffffffffffffffffffffffffffffffffffffff1673ffffffffffffffffffffffffffffffffffffffff1681526020019081526020015f2082828151811061061e5761061d612224565b5b6020026020010151908060018154018082558091505060019003905f5260205f20015f909190919091509081610654919061244b565b50808061066090612547565b9150506105c5565b507ff128e36f07b43a1e1dd136e3833c22864e3b5990e0138d7f82b81512e8c8e3d3338260405161069a92919061258e565b60405180910390a150565b6004602052815f5260405f2081815481106106be575f80fd5b905f5260205f20015f915091509054906101000a900473ffffffffffffffffffffffffffffffffffffffff1681565b7f000000000000000000000000000000000000000000000000000000000000000073ffffffffffffffffffffffffffffffffffffffff163373ffffffffffffffffffffffffffffffffffffffff161461079f57337f00000000000000000000000000000000000000000000000000000000000000006040517f1cf993f40000000000000000000000000000000000000000000000000000000081526004016107969291906125bc565b60405180910390fd5b6107a98282611690565b5050565b60095f9054906101000a900473ffffffffffffffffffffffffffffffffffffffff1673ffffffffffffffffffffffffffffffffffffffff163373ffffffffffffffffffffffffffffffffffffffff161461083c576040517f08c379a00000000000000000000000000000000000000000000000000000000081526004016108339061262d565b60405180910390fd5b60095f9054906101000a900473ffffffffffffffffffffffffffffffffffffffff1673ffffffffffffffffffffffffffffffffffffffff166108fc4790811502906040515f60405180830381858888f193505050501580156108a0573d5f803e3d5ffd5b50565b6002602052815f5260405f20602052805f5260405f205f915091509054906101000a900460ff1681565b600881815481106108dc575f80fd5b905f5260205f20015f9150905080546108f49061227e565b80601f01602080910402602001604051908101604052809291908181526020018280546109209061227e565b801561096b5780601f106109425761010080835404028352916020019161096b565b820191905f5260205f20905b81548152906001019060200180831161094e57829003601f168201915b505050505081565b60606008805480602002602001604051908101604052809291908181526020015f905b82821015610a3e578382905f5260205f200180546109b39061227e565b80601f01602080910402602001604051908101604052809291908181526020018280546109df9061227e565b8015610a2a5780601f10610a0157610100808354040283529160200191610a2a565b820191905f5260205f20905b815481529060010190602001808311610a0d57829003601f168201915b505050505081526020019060010190610996565b50505050905090565b6001602052815f5260405f20602052805f5260405f205f91509150505481565b5f805f600b5481526020019081526020015f2082604051610a889190612685565b9081526020016040518091039020549050919050565b6007818051602081018201805184825260208301602085012081835280955050505050505f915090508054610ad29061227e565b80601f0160208091040260200160405190810160405280929190818152602001828054610afe9061227e565b8015610b495780601f10610b2057610100808354040283529160200191610b49565b820191905f5260205f20905b815481529060010190602001808311610b2c57829003601f168201915b505050505081565b5f34905090565b5f602052815f5260405f20818051602081018201805184825260208301602085012081835280955050505050505f91509150505481565b606060035f600b5481526020019081526020015f205f3373ffffffffffffffffffffffffffffffffffffffff1673ffffffffffffffffffffffffffffffffffffffff1681526020019081526020015f208054610bea9061227e565b80601f0160208091040260200160405190810160405280929190818152602001828054610c169061227e565b8015610c615780601f10610c3857610100808354040283529160200191610c61565b820191905f5260205f20905b815481529060010190602001808311610c4457829003601f168201915b5050505050905090565b6005602052805f5260405f205f915090508054610c879061227e565b80601f0160208091040260200160405190810160405280929190818152602001828054610cb39061227e565b8015610cfe5780601f10610cd557610100808354040283529160200191610cfe565b820191905f5260205f20905b815481529060010190602001808311610ce157829003601f168201915b505050505081565b600b5481565b6006602052815f5260405f208181548110610d25575f80fd5b905f5260205f20015f91509150508054610d3e9061227e565b80601f0160208091040260200160405190810160405280929190818152602001828054610d6a9061227e565b8015610db55780601f10610d8c57610100808354040283529160200191610db5565b820191905f5260205f20905b815481529060010190602001808311610d9857829003601f168201915b505050505081565b5f60025f600b5481526020019081526020015f205f3373ffffffffffffffffffffffffffffffffffffffff1673ffffffffffffffffffffffffffffffffffffffff1681526020019081526020015f205f9054906101000a900460ff16905090565b606060065f3373ffffffffffffffffffffffffffffffffffffffff1673ffffffffffffffffffffffffffffffffffffffff1681526020019081526020015f20805480602002602001604051908101604052809291908181526020015f905b82821015610f24578382905f5260205f20018054610e999061227e565b80601f0160208091040260200160405190810160405280929190818152602001828054610ec59061227e565b8015610f105780601f10610ee757610100808354040283529160200191610f10565b820191905f5260205f20905b815481529060010190602001808311610ef357829003601f168201915b505050505081526020019060010190610e7c565b50505050905090565b6003602052815f5260405f20602052805f5260405f205f91509150508054610f549061227e565b80601f0160208091040260200160405190810160405280929190818152602001828054610f809061227e565b8015610fcb5780601f10610fa257610100808354040283529160200191610fcb565b820191905f5260205f20905b815481529060010190602001808311610fae57829003601f168201915b505050505081565b5f600a54905090565b66038d7ea4c68000341015611026576040517f08c379a000000000000000000000000000000000000000000000000000000000815260040161101d906126e5565b60405180910390fd5b66b1a2bc2ec50000341115611070576040517f08c379a00000000000000000000000000000000000000000000000000000000081526004016110679061274d565b60405180910390fd5b60025f600b5481526020019081526020015f205f3373ffffffffffffffffffffffffffffffffffffffff1673ffffffffffffffffffffffffffffffffffffffff1681526020019081526020015f205f9054906101000a900460ff161561110b576040517f08c379a0000000000000000000000000000000000000000000000000000000008152600401611102906127b5565b60405180910390fd5b5f60078360405161111c9190612685565b908152602001604051809103902080546111359061227e565b905011611177576040517f08c379a000000000000000000000000000000000000000000000000000000000815260040161116e9061281d565b60405180910390fd5b8160035f600b5481526020019081526020015f205f3373ffffffffffffffffffffffffffffffffffffffff1673ffffffffffffffffffffffffffffffffffffffff1681526020019081526020015f2090816111d2919061244b565b505f80600b5481526020019081526020015f20826040516111f39190612685565b90815260200160405180910390205f81548092919061121190612547565b9190505550600160025f600b5481526020019081526020015f205f3373ffffffffffffffffffffffffffffffffffffffff1673ffffffffffffffffffffffffffffffffffffffff1681526020019081526020015f205f6101000a81548160ff02191690831515021790555060045f600b5481526020019081526020015f2033908060018154018082558091505060019003905f5260205f20015f9091909190916101000a81548173ffffffffffffffffffffffffffffffffffffffff021916908373ffffffffffffffffffffffffffffffffffffffff1602179055506112f5611814565b7ff411f516043be7e54a4fbc44dc33e96f9a6caa30cf08d393cdb7492ba92154f53382846040516113289392919061283b565b60405180910390a15050565b60095f9054906101000a900473ffffffffffffffffffffffffffffffffffffffff1673ffffffffffffffffffffffffffffffffffffffff163373ffffffffffffffffffffffffffffffffffffffff16146113c3576040517f08c379a00000000000000000000000000000000000000000000000000000000081526004016113ba9061262d565b60405180910390fd5b5f6007826040516113d49190612685565b908152602001604051809103902080546113ed9061227e565b90501461142f576040517f08c379a0000000000000000000000000000000000000000000000000000000008152600401611426906128c8565b60405180910390fd5b5f825111611472576040517f08c379a000000000000000000000000000000000000000000000000000000000815260040161146990612930565b60405180910390fd5b5f8151116114b5576040517f08c379a00000000000000000000000000000000000000000000000000000000081526004016114ac90612998565b60405180910390fd5b816007826040516114c69190612685565b908152602001604051809103902090816114e0919061244b565b50600881908060018154018082558091505060019003905f5260205f20015f909190919091509081611512919061244b565b507feb5d6000a362475be9d9b16beddc148b7004850daf2e69325a403d613567769e81836040516115449291906129b6565b60405180910390a15050565b60095f9054906101000a900473ffffffffffffffffffffffffffffffffffffffff1673ffffffffffffffffffffffffffffffffffffffff163373ffffffffffffffffffffffffffffffffffffffff16146115df576040517f08c379a00000000000000000000000000000000000000000000000000000000081526004016115d69061262d565b60405180910390fd5b5f73ffffffffffffffffffffffffffffffffffffffff168173ffffffffffffffffffffffffffffffffffffffff160361164d576040517f08c379a000000000000000000000000000000000000000000000000000000000815260040161164490612a5b565b60405180910390fd5b8060095f6101000a81548173ffffffffffffffffffffffffffffffffffffffff021916908373ffffffffffffffffffffffffffffffffffffffff16021790555050565b5f815f815181106116a4576116a3612224565b5b602002602001015190507fe9a9868fdaf3f6179fe8012374366a6b13cc9596ad26ee37a06f12c548d633c3825f815181106116e2576116e1612224565b5b60200260200101516040516116f791906119b8565b60405180910390a15f60045f600b5481526020019081526020015f2080549050826117229190612aa6565b90505f60045f600b5481526020019081526020015f20828154811061174a57611749612224565b5b905f5260205f20015f9054906101000a900473ffffffffffffffffffffffffffffffffffffffff1690505f4790507fac853ae20ebc831e1db62fa17db64e8e173b63c6dcd89a4a4f5f24a1a080322e82826040516117a9929190612b28565b60405180910390a18173ffffffffffffffffffffffffffffffffffffffff166108fc8290811502906040515f60405180830381858888f193505050501580156117f4573d5f803e3d5ffd5b50600b5f81548092919061180790612547565b9190505550505050505050565b600a54471061199e575f60045f600b5481526020019081526020015f208054905011611875576040517f08c379a000000000000000000000000000000000000000000000000000000000815260040161186c90612b99565b60405180910390fd5b5f600c5f9054906101000a900473ffffffffffffffffffffffffffffffffffffffff1673ffffffffffffffffffffffffffffffffffffffff16635d3b1d30600d54600c60149054906101000a900467ffffffffffffffff16600e60049054906101000a900461ffff16600e5f9054906101000a900463ffffffff16600e60069054906101000a900463ffffffff166040518663ffffffff1660e01b8152600401611923959493929190612c2b565b6020604051808303815f875af115801561193f573d5f803e3d5ffd5b505050506040513d601f19601f820116820180604052508101906119639190612c90565b90507f5a82a565b8cc97bc62f2041e057e918f6b3b7b4185104d7d4a52ed5c711e72328160405161199491906119b8565b60405180910390a1505b565b5f819050919050565b6119b2816119a0565b82525050565b5f6020820190506119cb5f8301846119a9565b92915050565b5f604051905090565b5f80fd5b5f80fd5b5f80fd5b5f601f19601f8301169050919050565b7f4e487b71000000000000000000000000000000000000000000000000000000005f52604160045260245ffd5b611a2c826119e6565b810181811067ffffffffffffffff82111715611a4b57611a4a6119f6565b5b80604052505050565b5f611a5d6119d1565b9050611a698282611a23565b919050565b5f67ffffffffffffffff821115611a8857611a876119f6565b5b602082029050602081019050919050565b5f80fd5b5f80fd5b5f67ffffffffffffffff821115611abb57611aba6119f6565b5b611ac4826119e6565b9050602081019050919050565b828183375f83830152505050565b5f611af1611aec84611aa1565b611a54565b905082815260208101848484011115611b0d57611b0c611a9d565b5b611b18848285611ad1565b509392505050565b5f82601f830112611b3457611b336119e2565b5b8135611b44848260208601611adf565b91505092915050565b5f611b5f611b5a84611a6e565b611a54565b90508083825260208201905060208402830185811115611b8257611b81611a99565b5b835b81811015611bc957803567ffffffffffffffff811115611ba757611ba66119e2565b5b808601611bb48982611b20565b85526020850194505050602081019050611b84565b5050509392505050565b5f82601f830112611be757611be66119e2565b5b8135611bf7848260208601611b4d565b91505092915050565b5f60208284031215611c1557611c146119da565b5b5f82013567ffffffffffffffff811115611c3257611c316119de565b5b611c3e84828501611bd3565b91505092915050565b611c50816119a0565b8114611c5a575f80fd5b50565b5f81359050611c6b81611c47565b92915050565b5f8060408385031215611c8757611c866119da565b5b5f611c9485828601611c5d565b9250506020611ca585828601611c5d565b9150509250929050565b5f73ffffffffffffffffffffffffffffffffffffffff82169050919050565b5f611cd882611caf565b9050919050565b611ce881611cce565b82525050565b5f602082019050611d015f830184611cdf565b92915050565b5f67ffffffffffffffff821115611d2157611d206119f6565b5b602082029050602081019050919050565b5f611d44611d3f84611d07565b611a54565b90508083825260208201905060208402830185811115611d6757611d66611a99565b5b835b81811015611d905780611d7c8882611c5d565b845260208401935050602081019050611d69565b5050509392505050565b5f82601f830112611dae57611dad6119e2565b5b8135611dbe848260208601611d32565b91505092915050565b5f8060408385031215611ddd57611ddc6119da565b5b5f611dea85828601611c5d565b925050602083013567ffffffffffffffff811115611e0b57611e0a6119de565b5b611e1785828601611d9a565b9150509250929050565b611e2a81611cce565b8114611e34575f80fd5b50565b5f81359050611e4581611e21565b92915050565b5f8060408385031215611e6157611e606119da565b5b5f611e6e85828601611c5d565b9250506020611e7f85828601611e37565b9150509250929050565b5f8115159050919050565b611e9d81611e89565b82525050565b5f602082019050611eb65f830184611e94565b92915050565b5f60208284031215611ed157611ed06119da565b5b5f611ede84828501611c5d565b91505092915050565b5f81519050919050565b5f82825260208201905092915050565b5f5b83811015611f1e578082015181840152602081019050611f03565b5f8484015250505050565b5f611f3382611ee7565b611f3d8185611ef1565b9350611f4d818560208601611f01565b611f56816119e6565b840191505092915050565b5f6020820190508181035f830152611f798184611f29565b905092915050565b5f81519050919050565b5f82825260208201905092915050565b5f819050602082019050919050565b5f82825260208201905092915050565b5f611fc482611ee7565b611fce8185611faa565b9350611fde818560208601611f01565b611fe7816119e6565b840191505092915050565b5f611ffd8383611fba565b905092915050565b5f602082019050919050565b5f61201b82611f81565b6120258185611f8b565b93508360208202850161203785611f9b565b805f5b8581101561207257848403895281516120538582611ff2565b945061205e83612005565b925060208a0199505060018101905061203a565b50829750879550505050505092915050565b5f6020820190508181035f83015261209c8184612011565b905092915050565b5f602082840312156120b9576120b86119da565b5b5f82013567ffffffffffffffff8111156120d6576120d56119de565b5b6120e284828501611b20565b91505092915050565b5f8060408385031215612101576121006119da565b5b5f61210e85828601611c5d565b925050602083013567ffffffffffffffff81111561212f5761212e6119de565b5b61213b85828601611b20565b9150509250929050565b5f6020828403121561215a576121596119da565b5b5f61216784828501611e37565b91505092915050565b5f8060408385031215612186576121856119da565b5b5f61219385828601611e37565b92505060206121a485828601611c5d565b9150509250929050565b5f80604083850312156121c4576121c36119da565b5b5f83013567ffffffffffffffff8111156121e1576121e06119de565b5b6121ed85828601611b20565b925050602083013567ffffffffffffffff81111561220e5761220d6119de565b5b61221a85828601611b20565b9150509250929050565b7f4e487b71000000000000000000000000000000000000000000000000000000005f52603260045260245ffd5b7f4e487b71000000000000000000000000000000000000000000000000000000005f52602260045260245ffd5b5f600282049050600182168061229557607f821691505b6020821081036122a8576122a7612251565b5b50919050565b5f819050815f5260205f209050919050565b5f6020601f8301049050919050565b5f82821b905092915050565b5f6008830261230a7fffffffffffffffffffffffffffffffffffffffffffffffffffffffffffffffff826122cf565b61231486836122cf565b95508019841693508086168417925050509392505050565b5f819050919050565b5f61234f61234a612345846119a0565b61232c565b6119a0565b9050919050565b5f819050919050565b61236883612335565b61237c61237482612356565b8484546122db565b825550505050565b5f90565b612390612384565b61239b81848461235f565b505050565b5b818110156123be576123b35f82612388565b6001810190506123a1565b5050565b601f821115612403576123d4816122ae565b6123dd846122c0565b810160208510156123ec578190505b6124006123f8856122c0565b8301826123a0565b50505b505050565b5f82821c905092915050565b5f6124235f1984600802612408565b1980831691505092915050565b5f61243b8383612414565b9150826002028217905092915050565b61245482611ee7565b67ffffffffffffffff81111561246d5761246c6119f6565b5b612477825461227e565b6124828282856123c2565b5f60209050601f8311600181146124b3575f84156124a1578287015190505b6124ab8582612430565b865550612512565b601f1984166124c1866122ae565b5f5b828110156124e8578489015182556001820191506020850194506020810190506124c3565b868310156125055784890151612501601f891682612414565b8355505b6001600288020188555050505b505050505050565b7f4e487b71000000000000000000000000000000000000000000000000000000005f52601160045260245ffd5b5f612551826119a0565b91507fffffffffffffffffffffffffffffffffffffffffffffffffffffffffffffffff82036125835761258261251a565b5b600182019050919050565b5f6040820190506125a15f830185611cdf565b81810360208301526125b38184612011565b90509392505050565b5f6040820190506125cf5f830185611cdf565b6125dc6020830184611cdf565b9392505050565b7f4f6e6c79206f776e65722063616e2065786563757465000000000000000000005f82015250565b5f612617601683611ef1565b9150612622826125e3565b602082019050919050565b5f6020820190508181035f8301526126448161260b565b9050919050565b5f81905092915050565b5f61265f82611ee7565b612669818561264b565b9350612679818560208601611f01565b80840191505092915050565b5f6126908284612655565b915081905092915050565b7f4d696e696d756d20302e303031206574686572000000000000000000000000005f82015250565b5f6126cf601383611ef1565b91506126da8261269b565b602082019050919050565b5f6020820190508181035f8301526126fc816126c3565b9050919050565b7f4d6178696d756d20302e303520657468657200000000000000000000000000005f82015250565b5f612737601283611ef1565b915061274282612703565b602082019050919050565b5f6020820190508181035f8301526127648161272b565b9050919050565b7f416c726561647920766f746564000000000000000000000000000000000000005f82015250565b5f61279f600d83611ef1565b91506127aa8261276b565b602082019050919050565b5f6020820190508181035f8301526127cc81612793565b9050919050565b7f50726f6a65637420646f6573206e6f74206578697374000000000000000000005f82015250565b5f612807601683611ef1565b9150612812826127d3565b602082019050919050565b5f6020820190508181035f830152612834816127fb565b9050919050565b5f60608201905061284e5f830186611cdf565b81810360208301526128608185611f29565b905081810360408301526128748184611f29565b9050949350505050565b7f50726f6a65637420616c726561647920657869737473000000000000000000005f82015250565b5f6128b2601683611ef1565b91506128bd8261287e565b602082019050919050565b5f6020820190508181035f8301526128df816128a6565b9050919050565b7f50726f6a656374206e616d6520697320726571756972656400000000000000005f82015250565b5f61291a601883611ef1565b9150612925826128e6565b602082019050919050565b5f6020820190508181035f8301526129478161290e565b9050919050565b7f50726f6a656374204944206973207265717569726564000000000000000000005f82015250565b5f612982601683611ef1565b915061298d8261294e565b602082019050919050565b5f6020820190508181035f8301526129af81612976565b9050919050565b5f6040820190508181035f8301526129ce8185611f29565b905081810360208301526129e28184611f29565b90509392505050565b7f4e6577206f776e65722063616e6e6f7420626520746865207a65726f206164645f8201527f7265737300000000000000000000000000000000000000000000000000000000602082015250565b5f612a45602483611ef1565b9150612a50826129eb565b604082019050919050565b5f6020820190508181035f830152612a7281612a39565b9050919050565b7f4e487b71000000000000000000000000000000000000000000000000000000005f52601260045260245ffd5b5f612ab0826119a0565b9150612abb836119a0565b925082612acb57612aca612a79565b5b828206905092915050565b5f612af0612aeb612ae684611caf565b61232c565b611caf565b9050919050565b5f612b0182612ad6565b9050919050565b5f612b1282612af7565b9050919050565b612b2281612b08565b82525050565b5f604082019050612b3b5f830185612b19565b612b4860208301846119a9565b9392505050565b7f4e6f20766f7465727320746f20726577617264000000000000000000000000005f82015250565b5f612b83601383611ef1565b9150612b8e82612b4f565b602082019050919050565b5f6020820190508181035f830152612bb081612b77565b9050919050565b5f819050919050565b612bc981612bb7565b82525050565b5f67ffffffffffffffff82169050919050565b612beb81612bcf565b82525050565b5f61ffff82169050919050565b612c0781612bf1565b82525050565b5f63ffffffff82169050919050565b612c2581612c0d565b82525050565b5f60a082019050612c3e5f830188612bc0565b612c4b6020830187612be2565b612c586040830186612bfe565b612c656060830185612c1c565b612c726080830184612c1c565b9695505050505050565b5f81519050612c8a81611c47565b92915050565b5f60208284031215612ca557612ca46119da565b5b5f612cb284828501612c7c565b9150509291505056fea2646970667358221220eb5faad3206003cbbc1b12f8fc368b28611e33d61a029d3f2e4ff721466b1bbf64736f6c63430008150033",
  "immutableReferences": {
    "106": [
      {
        "length": 32,
        "start": 1775
      },
      {
        "length": 32,
        "start": 1859
      }
    ]
  },
  "source": "// SPDX-License-Identifier: MIT\npragma solidity ^0.8.0;\n\nimport \"@openzeppelin/contracts/utils/Address.sol\";\nimport \"@chainlink/contracts/src/v0.8/vrf/VRFConsumerBaseV2.sol\";\nimport \"@chainlink/contracts/src/v0.8/interfaces/VRFCoordinatorV2Interface.sol\";\nimport \"@openzeppelin/contracts/token/ERC20/IERC20.sol\";\n\ncontract ProjectVoting is VRFConsumerBaseV2{\n    // Voting mappings\n    mapping(uint => mapping(string => uint)) public cycleProjectVotes;\n    mapping(uint => mapping(address => uint)) public cycleAddressVotes;\n    mapping(uint => mapping(address => bool)) public hasVoted;\n    mapping(uint => mapping(address => string)) public addressCycleChoice;\n    mapping(uint => address[]) public cycleVoters;\n    mapping(address => string) public addressNames;\n    mapping(address => string[]) public addressActions;\n    mapping(string => string) public projects;\n\n    string[] public projectIds;\n    address private owner;\n    uint private threshold = 0.1 ether;\n    uint public currentCycle = 1;\n\n    // Chainlink VRF Variables\n    VRFCoordinatorV2Interface COORDINATOR;\n    uint64 private subscriptionId; // this can be found here https://vrf.chain.link/sepolia\n    bytes32 private keyHash;\n    uint32 private callbackGasLimit = 100000; // Adjust the gas limit based on the requirement\n    uint16 private requestConfirmations = 3; // Minimum number of confirmations\n    uint32 private numWords =  1; // Number of random values to request\n\n    // Voting Events\n    event ProjectAdded(string projectId, string projectName);\n    event Voted(address voter, string name, string projectId); \n    event WinnerAnnounced(address winner, uint256 amount);\n\n    // User Action Events\n    event ActionPerformed(address voter, string[] actionCIDs);\n\n    // Chainlink VRF Events\n    event RandomNumberRequested(uint256 requestId);\n    event RandomNumberReceived(uint256 randomNumber);\n\n    modifier onlyOwner() {\n        require(msg.sender == owner, \"Only owner can execute\");\n        _;\n    }\n  \n    constructor(\n        address _vrfCoordinator,\n        uint64 _subscriptionId,\n        bytes32 _keyHash\n    ) VRFConsumerBaseV2(_vrfCoordinator) {\n        owner = msg.sender;\n        subscriptionId = _subscriptionId;\n        keyHash = _keyHash;\n        COORDINATOR = VRFCoordinatorV2Interface(_vrfCoordinator);\n    }\n\n    function add(string memory projectName, string memory projectId) public onlyOwner {\n        require(bytes(projects[projectId]).length == 0, \"Project already exists\");\n        require(bytes(projectName).length > 0, \"Project name is required\");\n        require(bytes(projectId).length > 0, \"Project ID is required\"); \n        projects[projectId] = projectName;\n        projectIds.push(projectId);\n        emit ProjectAdded(projectId, projectName); \n    }\n\n    function vote(string memory projectId, string memory voterName) payable public {\n        require(msg.value >= 0.001 ether, \"Minimum 0.001 ether\");\n        require(msg.value <= 0.05 ether, \"Maximum 0.05 ether\");\n        require(!hasVoted[currentCycle][msg.sender], \"Already voted\");\n        require(bytes(projects[projectId]).length > 0, \"Project does not exist\"); \n        addressCycleChoice[currentCycle][msg.sender] = projectId;\n        cycleProjectVotes[currentCycle][projectId]++;\n        hasVoted[currentCycle][msg.sender] = true;\n        cycleVoters[currentCycle].push(msg.sender);\n        checkAndTransfer();  \n        emit Voted(msg.sender, voterName, projectId);\n    }\n\n    function voteTest() public payable returns (uint) {\n        return msg.value;\n    }\n\n    function getCycleVoteCount(string memory projectId) public view returns (uint) {\n        return cycleProjectVotes[currentCycle][projectId];\n    }\n\n    function getAll() public view returns (string[] memory) {\n        return projectIds;\n    }\n\n    function checkHasVotedForCycle() public view returns (bool) {\n        return hasVoted[currentCycle][msg.sender];\n    }\n\n    function getVoteCycleChoice() public view returns (string memory) {\n        return addressCycleChoice[currentCycle][msg.sender];\n    }\n\n    function getBalance() public view returns (uint256) {\n        return address(this).balance;\n    }\n\n    function getThreshold() public view returns (uint256) {\n        return threshold;\n    }\n\n    function getAddressAction() public view returns (string[] memory) {\n        return addressActions[msg.sender];\n    }\n\n    function transferOwnership(address newOwner) public onlyOwner {\n        require(newOwner != address(0), \"New owner cannot be the zero address\");\n        owner = newOwner;\n    }\n\n    function checkAndTransfer() internal {\n        if (address(this).balance >= threshold) {\n            require(cycleVoters[currentCycle].length > 0, \"No voters to reward\");\n            uint256 requestId = COORDINATOR.requestRandomWords(\n                keyHash,\n                subscriptionId,\n                requestConfirmations,\n                callbackGasLimit,\n                numWords\n            );\n            emit RandomNumberRequested(requestId);\n        }\n    }\n\n    function fulfillRandomWords(uint256 /* requestId */, uint256[] memory randomWords) internal override {\n        uint256 randomResult = randomWords[0];\n        emit RandomNumberReceived(randomWords[0]);\n        uint randomIndex = randomResult % cycleVoters[currentCycle].length;\n        address payable luckyVoter = payable(cycleVoters[currentCycle][randomIndex]);\n        uint256 amountToSend = address(this).balance;\n        emit WinnerAnnounced(luckyVoter, amountToSend);\n        luckyVoter.transfer(amountToSend);\n        currentCycle++;\n    }\n\n    function addActions(string[] memory actionCIDs) public {\n        for(uint i = 0; i < actionCIDs.length; i++) {\n            addressActions[msg.sender].push(actionCIDs[i]); \n        }\n        emit ActionPerformed(msg.sender, actionCIDs);\n    }\n\n    function withdraw() public onlyOwner {\n        payable(owner).transfer(address(this).balance);\n    }\n}\n",
  "sourcePath": "/home/devindavis/WebDev/Projects/PersonalSite/smart-contracts/contracts/project-voting.sol",
  "compiler": {
    "name": "solc",
    "version": "0.8.21+commit.d9974bed.Emscripten.clang"
  },
  "schemaVersion": "3.4.16",
  "updatedAt": "2024-06-30T19:38:50.027Z",
  "networkType": "ethereum",
  "devdoc": {
    "kind": "dev",
    "methods": {},
    "version": 1
  },
  "userdoc": {
    "kind": "user",
    "methods": {},
    "version": 1
  }
}