{
  "contractName": "ProjectVoting",
  "abi": [
    {
      "inputs": [
        {
          "internalType": "address",
          "name": "_vrfCoordinator",
          "type": "address"
        },
        {
          "internalType": "uint64",
          "name": "_subscriptionId",
          "type": "uint64"
        },
        {
          "internalType": "bytes32",
          "name": "_keyHash",
          "type": "bytes32"
        }
      ],
      "stateMutability": "nonpayable",
      "type": "constructor"
    },
    {
      "inputs": [
        {
          "internalType": "address",
          "name": "have",
          "type": "address"
        },
        {
          "internalType": "address",
          "name": "want",
          "type": "address"
        }
      ],
      "name": "OnlyCoordinatorCanFulfill",
      "type": "error"
    },
    {
      "anonymous": false,
      "inputs": [
        {
          "indexed": false,
          "internalType": "address",
          "name": "voter",
          "type": "address"
        },
        {
          "indexed": false,
          "internalType": "string[]",
          "name": "actionCIDs",
          "type": "string[]"
        }
      ],
      "name": "ActionPerformed",
      "type": "event"
    },
    {
      "anonymous": false,
      "inputs": [
        {
          "indexed": false,
          "internalType": "string",
          "name": "projectId",
          "type": "string"
        },
        {
          "indexed": false,
          "internalType": "string",
          "name": "projectName",
          "type": "string"
        }
      ],
      "name": "ProjectAdded",
      "type": "event"
    },
    {
      "anonymous": false,
      "inputs": [
        {
          "indexed": false,
          "internalType": "uint256",
          "name": "randomNumber",
          "type": "uint256"
        }
      ],
      "name": "RandomNumberReceived",
      "type": "event"
    },
    {
      "anonymous": false,
      "inputs": [
        {
          "indexed": false,
          "internalType": "uint256",
          "name": "requestId",
          "type": "uint256"
        }
      ],
      "name": "RandomNumberRequested",
      "type": "event"
    },
    {
      "anonymous": false,
      "inputs": [
        {
          "indexed": false,
          "internalType": "address",
          "name": "voter",
          "type": "address"
        },
        {
          "indexed": false,
          "internalType": "string",
          "name": "name",
          "type": "string"
        },
        {
          "indexed": false,
          "internalType": "string",
          "name": "projectId",
          "type": "string"
        }
      ],
      "name": "Voted",
      "type": "event"
    },
    {
      "anonymous": false,
      "inputs": [
        {
          "indexed": false,
          "internalType": "address",
          "name": "winner",
          "type": "address"
        },
        {
          "indexed": false,
          "internalType": "uint256",
          "name": "amount",
          "type": "uint256"
        }
      ],
      "name": "WinnerAnnounced",
      "type": "event"
    },
    {
      "inputs": [
        {
          "internalType": "address",
          "name": "",
          "type": "address"
        },
        {
          "internalType": "uint256",
          "name": "",
          "type": "uint256"
        }
      ],
      "name": "addressActions",
      "outputs": [
        {
          "internalType": "string",
          "name": "",
          "type": "string"
        }
      ],
      "stateMutability": "view",
      "type": "function",
      "constant": true
    },
    {
      "inputs": [
        {
          "internalType": "address",
          "name": "",
          "type": "address"
        }
      ],
      "name": "addressNames",
      "outputs": [
        {
          "internalType": "string",
          "name": "",
          "type": "string"
        }
      ],
      "stateMutability": "view",
      "type": "function",
      "constant": true
    },
    {
      "inputs": [
        {
          "internalType": "address",
          "name": "",
          "type": "address"
        }
      ],
      "name": "addressVotes",
      "outputs": [
        {
          "internalType": "string",
          "name": "",
          "type": "string"
        }
      ],
      "stateMutability": "view",
      "type": "function",
      "constant": true
    },
    {
      "inputs": [
        {
          "internalType": "address",
          "name": "",
          "type": "address"
        }
      ],
      "name": "hasVoted",
      "outputs": [
        {
          "internalType": "bool",
          "name": "",
          "type": "bool"
        }
      ],
      "stateMutability": "view",
      "type": "function",
      "constant": true
    },
    {
      "inputs": [
        {
          "internalType": "uint256",
          "name": "",
          "type": "uint256"
        }
      ],
      "name": "projectIds",
      "outputs": [
        {
          "internalType": "string",
          "name": "",
          "type": "string"
        }
      ],
      "stateMutability": "view",
      "type": "function",
      "constant": true
    },
    {
      "inputs": [
        {
          "internalType": "string",
          "name": "",
          "type": "string"
        }
      ],
      "name": "projectVotes",
      "outputs": [
        {
          "internalType": "uint256",
          "name": "",
          "type": "uint256"
        }
      ],
      "stateMutability": "view",
      "type": "function",
      "constant": true
    },
    {
      "inputs": [
        {
          "internalType": "string",
          "name": "",
          "type": "string"
        }
      ],
      "name": "projects",
      "outputs": [
        {
          "internalType": "string",
          "name": "",
          "type": "string"
        }
      ],
      "stateMutability": "view",
      "type": "function",
      "constant": true
    },
    {
      "inputs": [
        {
          "internalType": "uint256",
          "name": "requestId",
          "type": "uint256"
        },
        {
          "internalType": "uint256[]",
          "name": "randomWords",
          "type": "uint256[]"
        }
      ],
      "name": "rawFulfillRandomWords",
      "outputs": [],
      "stateMutability": "nonpayable",
      "type": "function"
    },
    {
      "inputs": [
        {
          "internalType": "string",
          "name": "projectName",
          "type": "string"
        },
        {
          "internalType": "string",
          "name": "projectId",
          "type": "string"
        }
      ],
      "name": "add",
      "outputs": [],
      "stateMutability": "nonpayable",
      "type": "function"
    },
    {
      "inputs": [
        {
          "internalType": "string",
          "name": "projectId",
          "type": "string"
        },
        {
          "internalType": "string",
          "name": "voterName",
          "type": "string"
        }
      ],
      "name": "vote",
      "outputs": [],
      "stateMutability": "payable",
      "type": "function",
      "payable": true
    },
    {
      "inputs": [],
      "name": "voteTest",
      "outputs": [
        {
          "internalType": "uint256",
          "name": "",
          "type": "uint256"
        }
      ],
      "stateMutability": "payable",
      "type": "function",
      "payable": true
    },
    {
      "inputs": [
        {
          "internalType": "string",
          "name": "projectId",
          "type": "string"
        }
      ],
      "name": "getVoteCount",
      "outputs": [
        {
          "internalType": "uint256",
          "name": "",
          "type": "uint256"
        }
      ],
      "stateMutability": "view",
      "type": "function",
      "constant": true
    },
    {
      "inputs": [],
      "name": "getAll",
      "outputs": [
        {
          "internalType": "string[]",
          "name": "",
          "type": "string[]"
        }
      ],
      "stateMutability": "view",
      "type": "function",
      "constant": true
    },
    {
      "inputs": [],
      "name": "checkHasVoted",
      "outputs": [
        {
          "internalType": "bool",
          "name": "",
          "type": "bool"
        }
      ],
      "stateMutability": "view",
      "type": "function",
      "constant": true
    },
    {
      "inputs": [],
      "name": "getVote",
      "outputs": [
        {
          "internalType": "string",
          "name": "",
          "type": "string"
        }
      ],
      "stateMutability": "view",
      "type": "function",
      "constant": true
    },
    {
      "inputs": [],
      "name": "getBalance",
      "outputs": [
        {
          "internalType": "uint256",
          "name": "",
          "type": "uint256"
        }
      ],
      "stateMutability": "view",
      "type": "function",
      "constant": true
    },
    {
      "inputs": [],
      "name": "getThreshold",
      "outputs": [
        {
          "internalType": "uint256",
          "name": "",
          "type": "uint256"
        }
      ],
      "stateMutability": "view",
      "type": "function",
      "constant": true
    },
    {
      "inputs": [],
      "name": "getAddressAction",
      "outputs": [
        {
          "internalType": "string[]",
          "name": "",
          "type": "string[]"
        }
      ],
      "stateMutability": "view",
      "type": "function",
      "constant": true
    },
    {
      "inputs": [
        {
          "internalType": "address",
          "name": "newOwner",
          "type": "address"
        }
      ],
      "name": "transferOwnership",
      "outputs": [],
      "stateMutability": "nonpayable",
      "type": "function"
    },
    {
      "inputs": [
        {
          "internalType": "string[]",
          "name": "actionCIDs",
          "type": "string[]"
        }
      ],
      "name": "addActions",
      "outputs": [],
      "stateMutability": "nonpayable",
      "type": "function"
    },
    {
      "inputs": [],
      "name": "withdraw",
      "outputs": [],
      "stateMutability": "nonpayable",
      "type": "function"
    }
  ],
  "bytecode": "0x60a060405267016345785d8a0000600955620186a0600c5f6101000a81548163ffffffff021916908363ffffffff1602179055506003600c60046101000a81548161ffff021916908361ffff1602179055506001600c60066101000a81548163ffffffff021916908363ffffffff1602179055503480156200007f575f80fd5b5060405162002cc738038062002cc78339818101604052810190620000a5919062000273565b828073ffffffffffffffffffffffffffffffffffffffff1660808173ffffffffffffffffffffffffffffffffffffffff1681525050503360075f6101000a81548173ffffffffffffffffffffffffffffffffffffffff021916908373ffffffffffffffffffffffffffffffffffffffff16021790555081600a60146101000a81548167ffffffffffffffff021916908367ffffffffffffffff16021790555080600b8190555082600a5f6101000a81548173ffffffffffffffffffffffffffffffffffffffff021916908373ffffffffffffffffffffffffffffffffffffffff160217905550505050620002cc565b5f80fd5b5f73ffffffffffffffffffffffffffffffffffffffff82169050919050565b5f620001c38262000198565b9050919050565b620001d581620001b7565b8114620001e0575f80fd5b50565b5f81519050620001f381620001ca565b92915050565b5f67ffffffffffffffff82169050919050565b6200021781620001f9565b811462000222575f80fd5b50565b5f8151905062000235816200020c565b92915050565b5f819050919050565b6200024f816200023b565b81146200025a575f80fd5b50565b5f815190506200026d8162000244565b92915050565b5f805f606084860312156200028d576200028c62000194565b5b5f6200029c86828701620001e3565b9350506020620002af8682870162000225565b9250506040620002c2868287016200025d565b9150509250925092565b6080516129db620002ec5f395f8181610742015261079601526129db5ff3fe608060405260043610610129575f3560e01c806391c9b268116100aa578063c4c911101161006e578063c4c91110146103fd578063e196f92c14610439578063e75235b814610463578063e8d5940d1461048d578063ebdf86ca146104a9578063f2fde38b146104d157610129565b806391c9b268146102ef57806395dacd521461032b578063a34bb6e614610349578063b050186914610385578063bdd01abf146103c157610129565b806312cb2abf116100f157806312cb2abf146102235780631fe543e31461024b5780633ccfd60b1461027357806348c35ad41461028957806353ed5143146102c557610129565b80630242f3511461012d578063069953a71461015757806309eef43e1461019357806312065fe0146101cf5780631234ce9d146101f9575b5f80fd5b348015610138575f80fd5b506101416104f9565b60405161014e9190611803565b60405180910390f35b348015610162575f80fd5b5061017d60048036038101906101789190611960565b6105c4565b60405161018a91906119bf565b60405180910390f35b34801561019e575f80fd5b506101b960048036038101906101b49190611a32565b6105ea565b6040516101c69190611a77565b60405180910390f35b3480156101da575f80fd5b506101e3610607565b6040516101f091906119bf565b60405180910390f35b348015610204575f80fd5b5061020d61060e565b60405161021a9190611a77565b60405180910390f35b34801561022e575f80fd5b5061024960048036038101906102449190611b72565b61065e565b005b348015610256575f80fd5b50610271600480360381019061026c9190611ca3565b610740565b005b34801561027e575f80fd5b50610287610800565b005b348015610294575f80fd5b506102af60048036038101906102aa9190611cfd565b6108f6565b6040516102bc9190611803565b60405180910390f35b3480156102d0575f80fd5b506102d961099c565b6040516102e69190611e2b565b60405180910390f35b3480156102fa575f80fd5b5061031560048036038101906103109190611960565b610a70565b6040516103229190611803565b60405180910390f35b610333610b23565b60405161034091906119bf565b60405180910390f35b348015610354575f80fd5b5061036f600480360381019061036a9190611a32565b610b2a565b60405161037c9190611803565b60405180910390f35b348015610390575f80fd5b506103ab60048036038101906103a69190611a32565b610bc5565b6040516103b89190611803565b60405180910390f35b3480156103cc575f80fd5b506103e760048036038101906103e29190611e4b565b610c60565b6040516103f49190611803565b60405180910390f35b348015610408575f80fd5b50610423600480360381019061041e9190611960565b610d11565b60405161043091906119bf565b60405180910390f35b348015610444575f80fd5b5061044d610d3d565b60405161045a9190611e2b565b60405180910390f35b34801561046e575f80fd5b50610477610e4c565b60405161048491906119bf565b60405180910390f35b6104a760048036038101906104a29190611e89565b610e55565b005b3480156104b4575f80fd5b506104cf60048036038101906104ca9190611e89565b611157565b005b3480156104dc575f80fd5b506104f760048036038101906104f29190611a32565b611373565b005b606060035f3373ffffffffffffffffffffffffffffffffffffffff1673ffffffffffffffffffffffffffffffffffffffff1681526020019081526020015f20805461054390611f2c565b80601f016020809104026020016040519081016040528092919081815260200182805461056f90611f2c565b80156105ba5780601f10610591576101008083540402835291602001916105ba565b820191905f5260205f20905b81548152906001019060200180831161059d57829003601f168201915b5050505050905090565b5f80826040516105d49190611f96565b9081526020016040518091039020549050919050565b6001602052805f5260405f205f915054906101000a900460ff1681565b5f47905090565b5f60015f3373ffffffffffffffffffffffffffffffffffffffff1673ffffffffffffffffffffffffffffffffffffffff1681526020019081526020015f205f9054906101000a900460ff16905090565b5f5b81518110156107035760055f3373ffffffffffffffffffffffffffffffffffffffff1673ffffffffffffffffffffffffffffffffffffffff1681526020019081526020015f208282815181106106b9576106b8611fac565b5b6020026020010151908060018154018082558091505060019003905f5260205f20015f9091909190915090816106ef9190612176565b5080806106fb90612272565b915050610660565b507ff128e36f07b43a1e1dd136e3833c22864e3b5990e0138d7f82b81512e8c8e3d333826040516107359291906122c8565b60405180910390a150565b7f000000000000000000000000000000000000000000000000000000000000000073ffffffffffffffffffffffffffffffffffffffff163373ffffffffffffffffffffffffffffffffffffffff16146107f257337f00000000000000000000000000000000000000000000000000000000000000006040517f1cf993f40000000000000000000000000000000000000000000000000000000081526004016107e99291906122f6565b60405180910390fd5b6107fc82826114b3565b5050565b60075f9054906101000a900473ffffffffffffffffffffffffffffffffffffffff1673ffffffffffffffffffffffffffffffffffffffff163373ffffffffffffffffffffffffffffffffffffffff161461088f576040517f08c379a000000000000000000000000000000000000000000000000000000000815260040161088690612367565b60405180910390fd5b60075f9054906101000a900473ffffffffffffffffffffffffffffffffffffffff1673ffffffffffffffffffffffffffffffffffffffff166108fc4790811502906040515f60405180830381858888f193505050501580156108f3573d5f803e3d5ffd5b50565b60068181548110610905575f80fd5b905f5260205f20015f91509050805461091d90611f2c565b80601f016020809104026020016040519081016040528092919081815260200182805461094990611f2c565b80156109945780601f1061096b57610100808354040283529160200191610994565b820191905f5260205f20905b81548152906001019060200180831161097757829003601f168201915b505050505081565b60606006805480602002602001604051908101604052809291908181526020015f905b82821015610a67578382905f5260205f200180546109dc90611f2c565b80601f0160208091040260200160405190810160405280929190818152602001828054610a0890611f2c565b8015610a535780601f10610a2a57610100808354040283529160200191610a53565b820191905f5260205f20905b815481529060010190602001808311610a3657829003601f168201915b5050505050815260200190600101906109bf565b50505050905090565b6002818051602081018201805184825260208301602085012081835280955050505050505f915090508054610aa490611f2c565b80601f0160208091040260200160405190810160405280929190818152602001828054610ad090611f2c565b8015610b1b5780601f10610af257610100808354040283529160200191610b1b565b820191905f5260205f20905b815481529060010190602001808311610afe57829003601f168201915b505050505081565b5f34905090565b6003602052805f5260405f205f915090508054610b4690611f2c565b80601f0160208091040260200160405190810160405280929190818152602001828054610b7290611f2c565b8015610bbd5780601f10610b9457610100808354040283529160200191610bbd565b820191905f5260205f20905b815481529060010190602001808311610ba057829003601f168201915b505050505081565b6004602052805f5260405f205f915090508054610be190611f2c565b80601f0160208091040260200160405190810160405280929190818152602001828054610c0d90611f2c565b8015610c585780601f10610c2f57610100808354040283529160200191610c58565b820191905f5260205f20905b815481529060010190602001808311610c3b57829003601f168201915b505050505081565b6005602052815f5260405f208181548110610c79575f80fd5b905f5260205f20015f91509150508054610c9290611f2c565b80601f0160208091040260200160405190810160405280929190818152602001828054610cbe90611f2c565b8015610d095780601f10610ce057610100808354040283529160200191610d09565b820191905f5260205f20905b815481529060010190602001808311610cec57829003601f168201915b505050505081565b5f818051602081018201805184825260208301602085012081835280955050505050505f915090505481565b606060055f3373ffffffffffffffffffffffffffffffffffffffff1673ffffffffffffffffffffffffffffffffffffffff1681526020019081526020015f20805480602002602001604051908101604052809291908181526020015f905b82821015610e43578382905f5260205f20018054610db890611f2c565b80601f0160208091040260200160405190810160405280929190818152602001828054610de490611f2c565b8015610e2f5780601f10610e0657610100808354040283529160200191610e2f565b820191905f5260205f20905b815481529060010190602001808311610e1257829003601f168201915b505050505081526020019060010190610d9b565b50505050905090565b5f600954905090565b66038d7ea4c68000341015610e9f576040517f08c379a0000000000000000000000000000000000000000000000000000000008152600401610e96906123cf565b60405180910390fd5b66b1a2bc2ec50000341115610ee9576040517f08c379a0000000000000000000000000000000000000000000000000000000008152600401610ee090612437565b60405180910390fd5b60015f3373ffffffffffffffffffffffffffffffffffffffff1673ffffffffffffffffffffffffffffffffffffffff1681526020019081526020015f205f9054906101000a900460ff1615610f73576040517f08c379a0000000000000000000000000000000000000000000000000000000008152600401610f6a9061249f565b60405180910390fd5b5f600283604051610f849190611f96565b90815260200160405180910390208054610f9d90611f2c565b905011610fdf576040517f08c379a0000000000000000000000000000000000000000000000000000000008152600401610fd690612507565b60405180910390fd5b8160035f3373ffffffffffffffffffffffffffffffffffffffff1673ffffffffffffffffffffffffffffffffffffffff1681526020019081526020015f2090816110299190612176565b505f826040516110399190611f96565b90815260200160405180910390205f81548092919061105790612272565b91905055506001805f3373ffffffffffffffffffffffffffffffffffffffff1673ffffffffffffffffffffffffffffffffffffffff1681526020019081526020015f205f6101000a81548160ff021916908315150217905550600833908060018154018082558091505060019003905f5260205f20015f9091909190916101000a81548173ffffffffffffffffffffffffffffffffffffffff021916908373ffffffffffffffffffffffffffffffffffffffff1602179055506111186115fe565b7ff411f516043be7e54a4fbc44dc33e96f9a6caa30cf08d393cdb7492ba92154f533828460405161114b93929190612525565b60405180910390a15050565b60075f9054906101000a900473ffffffffffffffffffffffffffffffffffffffff1673ffffffffffffffffffffffffffffffffffffffff163373ffffffffffffffffffffffffffffffffffffffff16146111e6576040517f08c379a00000000000000000000000000000000000000000000000000000000081526004016111dd90612367565b60405180910390fd5b5f6002826040516111f79190611f96565b9081526020016040518091039020805461121090611f2c565b905014611252576040517f08c379a0000000000000000000000000000000000000000000000000000000008152600401611249906125b2565b60405180910390fd5b5f825111611295576040517f08c379a000000000000000000000000000000000000000000000000000000000815260040161128c9061261a565b60405180910390fd5b5f8151116112d8576040517f08c379a00000000000000000000000000000000000000000000000000000000081526004016112cf90612682565b60405180910390fd5b816002826040516112e99190611f96565b908152602001604051809103902090816113039190612176565b50600681908060018154018082558091505060019003905f5260205f20015f9091909190915090816113359190612176565b507feb5d6000a362475be9d9b16beddc148b7004850daf2e69325a403d613567769e81836040516113679291906126a0565b60405180910390a15050565b60075f9054906101000a900473ffffffffffffffffffffffffffffffffffffffff1673ffffffffffffffffffffffffffffffffffffffff163373ffffffffffffffffffffffffffffffffffffffff1614611402576040517f08c379a00000000000000000000000000000000000000000000000000000000081526004016113f990612367565b60405180910390fd5b5f73ffffffffffffffffffffffffffffffffffffffff168173ffffffffffffffffffffffffffffffffffffffff1603611470576040517f08c379a000000000000000000000000000000000000000000000000000000000815260040161146790612745565b60405180910390fd5b8060075f6101000a81548173ffffffffffffffffffffffffffffffffffffffff021916908373ffffffffffffffffffffffffffffffffffffffff16021790555050565b5f815f815181106114c7576114c6611fac565b5b602002602001015190507fe9a9868fdaf3f6179fe8012374366a6b13cc9596ad26ee37a06f12c548d633c3825f8151811061150557611504611fac565b5b602002602001015160405161151a91906119bf565b60405180910390a15f600880549050826115349190612790565b90505f6008828154811061154b5761154a611fac565b5b905f5260205f20015f9054906101000a900473ffffffffffffffffffffffffffffffffffffffff1690505f4790507fac853ae20ebc831e1db62fa17db64e8e173b63c6dcd89a4a4f5f24a1a080322e82826040516115aa929190612812565b60405180910390a18173ffffffffffffffffffffffffffffffffffffffff166108fc8290811502906040515f60405180830381858888f193505050501580156115f5573d5f803e3d5ffd5b50505050505050565b6009544710611777575f6008805490501161164e576040517f08c379a000000000000000000000000000000000000000000000000000000000815260040161164590612883565b60405180910390fd5b5f600a5f9054906101000a900473ffffffffffffffffffffffffffffffffffffffff1673ffffffffffffffffffffffffffffffffffffffff16635d3b1d30600b54600a60149054906101000a900467ffffffffffffffff16600c60049054906101000a900461ffff16600c5f9054906101000a900463ffffffff16600c60069054906101000a900463ffffffff166040518663ffffffff1660e01b81526004016116fc959493929190612915565b6020604051808303815f875af1158015611718573d5f803e3d5ffd5b505050506040513d601f19601f8201168201806040525081019061173c919061297a565b90507f5a82a565b8cc97bc62f2041e057e918f6b3b7b4185104d7d4a52ed5c711e72328160405161176d91906119bf565b60405180910390a1505b565b5f81519050919050565b5f82825260208201905092915050565b5f5b838110156117b0578082015181840152602081019050611795565b5f8484015250505050565b5f601f19601f8301169050919050565b5f6117d582611779565b6117df8185611783565b93506117ef818560208601611793565b6117f8816117bb565b840191505092915050565b5f6020820190508181035f83015261181b81846117cb565b905092915050565b5f604051905090565b5f80fd5b5f80fd5b5f80fd5b5f80fd5b7f4e487b71000000000000000000000000000000000000000000000000000000005f52604160045260245ffd5b611872826117bb565b810181811067ffffffffffffffff821117156118915761189061183c565b5b80604052505050565b5f6118a3611823565b90506118af8282611869565b919050565b5f67ffffffffffffffff8211156118ce576118cd61183c565b5b6118d7826117bb565b9050602081019050919050565b828183375f83830152505050565b5f6119046118ff846118b4565b61189a565b9050828152602081018484840111156119205761191f611838565b5b61192b8482856118e4565b509392505050565b5f82601f83011261194757611946611834565b5b81356119578482602086016118f2565b91505092915050565b5f602082840312156119755761197461182c565b5b5f82013567ffffffffffffffff81111561199257611991611830565b5b61199e84828501611933565b91505092915050565b5f819050919050565b6119b9816119a7565b82525050565b5f6020820190506119d25f8301846119b0565b92915050565b5f73ffffffffffffffffffffffffffffffffffffffff82169050919050565b5f611a01826119d8565b9050919050565b611a11816119f7565b8114611a1b575f80fd5b50565b5f81359050611a2c81611a08565b92915050565b5f60208284031215611a4757611a4661182c565b5b5f611a5484828501611a1e565b91505092915050565b5f8115159050919050565b611a7181611a5d565b82525050565b5f602082019050611a8a5f830184611a68565b92915050565b5f67ffffffffffffffff821115611aaa57611aa961183c565b5b602082029050602081019050919050565b5f80fd5b5f611ad1611acc84611a90565b61189a565b90508083825260208201905060208402830185811115611af457611af3611abb565b5b835b81811015611b3b57803567ffffffffffffffff811115611b1957611b18611834565b5b808601611b268982611933565b85526020850194505050602081019050611af6565b5050509392505050565b5f82601f830112611b5957611b58611834565b5b8135611b69848260208601611abf565b91505092915050565b5f60208284031215611b8757611b8661182c565b5b5f82013567ffffffffffffffff811115611ba457611ba3611830565b5b611bb084828501611b45565b91505092915050565b611bc2816119a7565b8114611bcc575f80fd5b50565b5f81359050611bdd81611bb9565b92915050565b5f67ffffffffffffffff821115611bfd57611bfc61183c565b5b602082029050602081019050919050565b5f611c20611c1b84611be3565b61189a565b90508083825260208201905060208402830185811115611c4357611c42611abb565b5b835b81811015611c6c5780611c588882611bcf565b845260208401935050602081019050611c45565b5050509392505050565b5f82601f830112611c8a57611c89611834565b5b8135611c9a848260208601611c0e565b91505092915050565b5f8060408385031215611cb957611cb861182c565b5b5f611cc685828601611bcf565b925050602083013567ffffffffffffffff811115611ce757611ce6611830565b5b611cf385828601611c76565b9150509250929050565b5f60208284031215611d1257611d1161182c565b5b5f611d1f84828501611bcf565b91505092915050565b5f81519050919050565b5f82825260208201905092915050565b5f819050602082019050919050565b5f82825260208201905092915050565b5f611d6b82611779565b611d758185611d51565b9350611d85818560208601611793565b611d8e816117bb565b840191505092915050565b5f611da48383611d61565b905092915050565b5f602082019050919050565b5f611dc282611d28565b611dcc8185611d32565b935083602082028501611dde85611d42565b805f5b85811015611e195784840389528151611dfa8582611d99565b9450611e0583611dac565b925060208a01995050600181019050611de1565b50829750879550505050505092915050565b5f6020820190508181035f830152611e438184611db8565b905092915050565b5f8060408385031215611e6157611e6061182c565b5b5f611e6e85828601611a1e565b9250506020611e7f85828601611bcf565b9150509250929050565b5f8060408385031215611e9f57611e9e61182c565b5b5f83013567ffffffffffffffff811115611ebc57611ebb611830565b5b611ec885828601611933565b925050602083013567ffffffffffffffff811115611ee957611ee8611830565b5b611ef585828601611933565b9150509250929050565b7f4e487b71000000000000000000000000000000000000000000000000000000005f52602260045260245ffd5b5f6002820490506001821680611f4357607f821691505b602082108103611f5657611f55611eff565b5b50919050565b5f81905092915050565b5f611f7082611779565b611f7a8185611f5c565b9350611f8a818560208601611793565b80840191505092915050565b5f611fa18284611f66565b915081905092915050565b7f4e487b71000000000000000000000000000000000000000000000000000000005f52603260045260245ffd5b5f819050815f5260205f209050919050565b5f6020601f8301049050919050565b5f82821b905092915050565b5f600883026120357fffffffffffffffffffffffffffffffffffffffffffffffffffffffffffffffff82611ffa565b61203f8683611ffa565b95508019841693508086168417925050509392505050565b5f819050919050565b5f61207a612075612070846119a7565b612057565b6119a7565b9050919050565b5f819050919050565b61209383612060565b6120a761209f82612081565b848454612006565b825550505050565b5f90565b6120bb6120af565b6120c681848461208a565b505050565b5b818110156120e9576120de5f826120b3565b6001810190506120cc565b5050565b601f82111561212e576120ff81611fd9565b61210884611feb565b81016020851015612117578190505b61212b61212385611feb565b8301826120cb565b50505b505050565b5f82821c905092915050565b5f61214e5f1984600802612133565b1980831691505092915050565b5f612166838361213f565b9150826002028217905092915050565b61217f82611779565b67ffffffffffffffff8111156121985761219761183c565b5b6121a28254611f2c565b6121ad8282856120ed565b5f60209050601f8311600181146121de575f84156121cc578287015190505b6121d6858261215b565b86555061223d565b601f1984166121ec86611fd9565b5f5b82811015612213578489015182556001820191506020850194506020810190506121ee565b86831015612230578489015161222c601f89168261213f565b8355505b6001600288020188555050505b505050505050565b7f4e487b71000000000000000000000000000000000000000000000000000000005f52601160045260245ffd5b5f61227c826119a7565b91507fffffffffffffffffffffffffffffffffffffffffffffffffffffffffffffffff82036122ae576122ad612245565b5b600182019050919050565b6122c2816119f7565b82525050565b5f6040820190506122db5f8301856122b9565b81810360208301526122ed8184611db8565b90509392505050565b5f6040820190506123095f8301856122b9565b61231660208301846122b9565b9392505050565b7f4f6e6c79206f776e65722063616e2065786563757465000000000000000000005f82015250565b5f612351601683611783565b915061235c8261231d565b602082019050919050565b5f6020820190508181035f83015261237e81612345565b9050919050565b7f4d696e696d756d20302e303031206574686572000000000000000000000000005f82015250565b5f6123b9601383611783565b91506123c482612385565b602082019050919050565b5f6020820190508181035f8301526123e6816123ad565b9050919050565b7f4d6178696d756d20302e303520657468657200000000000000000000000000005f82015250565b5f612421601283611783565b915061242c826123ed565b602082019050919050565b5f6020820190508181035f83015261244e81612415565b9050919050565b7f416c726561647920766f746564000000000000000000000000000000000000005f82015250565b5f612489600d83611783565b915061249482612455565b602082019050919050565b5f6020820190508181035f8301526124b68161247d565b9050919050565b7f50726f6a65637420646f6573206e6f74206578697374000000000000000000005f82015250565b5f6124f1601683611783565b91506124fc826124bd565b602082019050919050565b5f6020820190508181035f83015261251e816124e5565b9050919050565b5f6060820190506125385f8301866122b9565b818103602083015261254a81856117cb565b9050818103604083015261255e81846117cb565b9050949350505050565b7f50726f6a65637420616c726561647920657869737473000000000000000000005f82015250565b5f61259c601683611783565b91506125a782612568565b602082019050919050565b5f6020820190508181035f8301526125c981612590565b9050919050565b7f50726f6a656374206e616d6520697320726571756972656400000000000000005f82015250565b5f612604601883611783565b915061260f826125d0565b602082019050919050565b5f6020820190508181035f830152612631816125f8565b9050919050565b7f50726f6a656374204944206973207265717569726564000000000000000000005f82015250565b5f61266c601683611783565b915061267782612638565b602082019050919050565b5f6020820190508181035f83015261269981612660565b9050919050565b5f6040820190508181035f8301526126b881856117cb565b905081810360208301526126cc81846117cb565b90509392505050565b7f4e6577206f776e65722063616e6e6f7420626520746865207a65726f206164645f8201527f7265737300000000000000000000000000000000000000000000000000000000602082015250565b5f61272f602483611783565b915061273a826126d5565b604082019050919050565b5f6020820190508181035f83015261275c81612723565b9050919050565b7f4e487b71000000000000000000000000000000000000000000000000000000005f52601260045260245ffd5b5f61279a826119a7565b91506127a5836119a7565b9250826127b5576127b4612763565b5b828206905092915050565b5f6127da6127d56127d0846119d8565b612057565b6119d8565b9050919050565b5f6127eb826127c0565b9050919050565b5f6127fc826127e1565b9050919050565b61280c816127f2565b82525050565b5f6040820190506128255f830185612803565b61283260208301846119b0565b9392505050565b7f4e6f20766f7465727320746f20726577617264000000000000000000000000005f82015250565b5f61286d601383611783565b915061287882612839565b602082019050919050565b5f6020820190508181035f83015261289a81612861565b9050919050565b5f819050919050565b6128b3816128a1565b82525050565b5f67ffffffffffffffff82169050919050565b6128d5816128b9565b82525050565b5f61ffff82169050919050565b6128f1816128db565b82525050565b5f63ffffffff82169050919050565b61290f816128f7565b82525050565b5f60a0820190506129285f8301886128aa565b61293560208301876128cc565b61294260408301866128e8565b61294f6060830185612906565b61295c6080830184612906565b9695505050505050565b5f8151905061297481611bb9565b92915050565b5f6020828403121561298f5761298e61182c565b5b5f61299c84828501612966565b9150509291505056fea264697066735822122006b8e5d5211f8fad39079ef0eac727707d6aa6d75a22d78172c18c389c1a813164736f6c63430008150033",
  "immutableReferences": {
    "106": [
      {
        "length": 32,
        "start": 1858
      },
      {
        "length": 32,
        "start": 1942
      }
    ]
  },
  "source": "// SPDX-License-Identifier: MIT\npragma solidity ^0.8.0;\n\nimport \"@openzeppelin/contracts/utils/Address.sol\";\nimport \"@chainlink/contracts/src/v0.8/vrf/VRFConsumerBaseV2.sol\";\nimport \"@chainlink/contracts/src/v0.8/interfaces/VRFCoordinatorV2Interface.sol\";\nimport \"@openzeppelin/contracts/token/ERC20/IERC20.sol\";\n\ncontract ProjectVoting is VRFConsumerBaseV2{\n    \n    // Voting Variables \n    mapping(string => uint) public projectVotes;\n    mapping(address => bool) public hasVoted;\n    mapping(string => string) public projects;\n    mapping(address => string) public addressVotes;\n    mapping(address => string) public addressNames;\n    mapping(address => string[]) public addressActions;\n    string[] public projectIds;\n    address private owner;\n    address[] private voters;\n    uint private threshold = 0.1 ether;\n\n    // Chainlink VRF Variables\n    VRFCoordinatorV2Interface COORDINATOR;\n    uint64 private subscriptionId; // this can be found here https://vrf.chain.link/sepolia\n    bytes32 private keyHash;\n    uint32 private callbackGasLimit = 100000; // Adjust the gas limit based on the requirement\n    uint16 private requestConfirmations = 3; // Minimum number of confirmations\n    uint32 private numWords =  1; // Number of random values to request\n\n    // Voting Events\n    event ProjectAdded(string projectId, string projectName);\n    event Voted(address voter, string name, string projectId); \n    event WinnerAnnounced(address winner, uint256 amount);\n\n    // User Action Events\n    event ActionPerformed(address voter, string[] actionCIDs);\n\n    // Chainlink VRF Events\n    event RandomNumberRequested(uint256 requestId);\n    event RandomNumberReceived(uint256 randomNumber);\n\n    modifier onlyOwner() {\n        require(msg.sender == owner, \"Only owner can execute\");\n        _;\n    }\n  \n    constructor(\n        address _vrfCoordinator,\n        uint64 _subscriptionId,\n        bytes32 _keyHash\n    ) VRFConsumerBaseV2(_vrfCoordinator) {\n        owner = msg.sender;\n        subscriptionId = _subscriptionId;\n        keyHash = _keyHash;\n        COORDINATOR = VRFCoordinatorV2Interface(_vrfCoordinator);\n    }\n\n    function add(string memory projectName, string memory projectId) public onlyOwner {\n        require(bytes(projects[projectId]).length == 0, \"Project already exists\");\n        require(bytes(projectName).length > 0, \"Project name is required\");\n        require(bytes(projectId).length > 0, \"Project ID is required\"); \n        projects[projectId] = projectName;\n        projectIds.push(projectId);\n        emit ProjectAdded(projectId, projectName); \n    }\n\n    function vote(string memory projectId, string memory voterName) payable public {\n        require(msg.value >= 0.001 ether, \"Minimum 0.001 ether\");\n        require(msg.value <= 0.05 ether, \"Maximum 0.05 ether\");\n        require(!hasVoted[msg.sender], \"Already voted\");\n        require(bytes(projects[projectId]).length > 0, \"Project does not exist\"); \n        addressVotes[msg.sender] = projectId;\n        projectVotes[projectId]++;\n        hasVoted[msg.sender] = true;\n        voters.push(msg.sender);\n        checkAndTransfer();  \n        emit Voted(msg.sender, voterName, projectId);\n    }\n\n    function voteTest() public payable returns (uint) {\n        return msg.value;\n    }\n\n    function getVoteCount(string memory projectId) public view returns (uint) {\n        return projectVotes[projectId];\n    }\n\n    function getAll() public view returns (string[] memory) {\n        return projectIds;\n    }\n\n    function checkHasVoted() public view returns (bool) {\n        return hasVoted[msg.sender];\n    }\n\n    function getVote() public view returns (string memory) {\n        return addressVotes[msg.sender]; \n    }\n\n    function getBalance() public view returns (uint256) {\n        return address(this).balance;\n    }\n\n    function getThreshold() public view returns (uint256) {\n        return threshold;\n    }\n\n    function getAddressAction() public view returns (string[] memory) {\n        return addressActions[msg.sender];\n    }\n\n    function transferOwnership(address newOwner) public onlyOwner {\n        require(newOwner != address(0), \"New owner cannot be the zero address\");\n        owner = newOwner;\n    }\n\n    function checkAndTransfer() internal {\n        if (address(this).balance >= threshold) {\n            require(voters.length > 0, \"No voters to reward\");\n            uint256 requestId = COORDINATOR.requestRandomWords(\n                keyHash,\n                subscriptionId,\n                requestConfirmations,\n                callbackGasLimit,\n                numWords\n            );\n            emit RandomNumberRequested(requestId);\n        }\n    }\n\n    function fulfillRandomWords(uint256 /* requestId */, uint256[] memory randomWords) internal override {\n        uint256 randomResult = randomWords[0];\n        emit RandomNumberReceived(randomWords[0]);\n        uint randomIndex = randomResult % voters.length;\n        address payable luckyVoter = payable(voters[randomIndex]);\n        uint256 amountToSend = address(this).balance;\n        emit WinnerAnnounced(luckyVoter, amountToSend);\n        luckyVoter.transfer(amountToSend);\n    }\n\n    function addActions(string[] memory actionCIDs) public {\n        for(uint i = 0; i < actionCIDs.length; i++) {\n            addressActions[msg.sender].push(actionCIDs[i]); \n        }\n        emit ActionPerformed(msg.sender, actionCIDs);\n    }\n\n    function withdraw() public onlyOwner {\n        payable(owner).transfer(address(this).balance);\n    }\n}",
  "sourcePath": "/home/devindavis/WebDev/Projects/PersonalSite/smart-contracts/contracts/project-voting.sol",
  "compiler": {
    "name": "solc",
    "version": "0.8.21+commit.d9974bed.Emscripten.clang"
  },
  "schemaVersion": "3.4.16",
  "updatedAt": "2024-03-24T01:17:53.417Z",
  "networkType": "ethereum",
  "devdoc": {
    "kind": "dev",
    "methods": {},
    "version": 1
  },
  "userdoc": {
    "kind": "user",
    "methods": {},
    "version": 1
  }
}