{
  "contractName": "ProjectVoting",
  "abi": [
    {
      "inputs": [
        {
          "internalType": "address",
          "name": "_vrfCoordinator",
          "type": "address"
        },
        {
          "internalType": "uint256",
          "name": "_subscriptionId",
          "type": "uint256"
        },
        {
          "internalType": "bytes32",
          "name": "_keyHash",
          "type": "bytes32"
        }
      ],
      "stateMutability": "nonpayable",
      "type": "constructor"
    },
    {
      "inputs": [
        {
          "internalType": "address",
          "name": "have",
          "type": "address"
        },
        {
          "internalType": "address",
          "name": "want",
          "type": "address"
        }
      ],
      "name": "OnlyCoordinatorCanFulfill",
      "type": "error"
    },
    {
      "inputs": [
        {
          "internalType": "address",
          "name": "have",
          "type": "address"
        },
        {
          "internalType": "address",
          "name": "owner",
          "type": "address"
        },
        {
          "internalType": "address",
          "name": "coordinator",
          "type": "address"
        }
      ],
      "name": "OnlyOwnerOrCoordinator",
      "type": "error"
    },
    {
      "inputs": [],
      "name": "ZeroAddress",
      "type": "error"
    },
    {
      "anonymous": false,
      "inputs": [
        {
          "indexed": false,
          "internalType": "address",
          "name": "vrfCoordinator",
          "type": "address"
        }
      ],
      "name": "CoordinatorSet",
      "type": "event"
    },
    {
      "anonymous": false,
      "inputs": [
        {
          "indexed": true,
          "internalType": "address",
          "name": "from",
          "type": "address"
        },
        {
          "indexed": true,
          "internalType": "address",
          "name": "to",
          "type": "address"
        }
      ],
      "name": "OwnershipTransferRequested",
      "type": "event"
    },
    {
      "anonymous": false,
      "inputs": [
        {
          "indexed": true,
          "internalType": "address",
          "name": "from",
          "type": "address"
        },
        {
          "indexed": true,
          "internalType": "address",
          "name": "to",
          "type": "address"
        }
      ],
      "name": "OwnershipTransferred",
      "type": "event"
    },
    {
      "anonymous": false,
      "inputs": [
        {
          "indexed": false,
          "internalType": "string",
          "name": "projectId",
          "type": "string"
        },
        {
          "indexed": false,
          "internalType": "string",
          "name": "projectName",
          "type": "string"
        }
      ],
      "name": "ProjectAdded",
      "type": "event"
    },
    {
      "anonymous": false,
      "inputs": [
        {
          "indexed": false,
          "internalType": "uint256",
          "name": "requestId",
          "type": "uint256"
        },
        {
          "indexed": false,
          "internalType": "uint256[]",
          "name": "randomWords",
          "type": "uint256[]"
        }
      ],
      "name": "RequestFulfilled",
      "type": "event"
    },
    {
      "anonymous": false,
      "inputs": [
        {
          "indexed": false,
          "internalType": "uint256",
          "name": "requestId",
          "type": "uint256"
        },
        {
          "indexed": false,
          "internalType": "uint32",
          "name": "numWords",
          "type": "uint32"
        }
      ],
      "name": "RequestSent",
      "type": "event"
    },
    {
      "anonymous": false,
      "inputs": [
        {
          "indexed": false,
          "internalType": "address",
          "name": "voter",
          "type": "address"
        },
        {
          "indexed": false,
          "internalType": "string",
          "name": "name",
          "type": "string"
        },
        {
          "indexed": false,
          "internalType": "string",
          "name": "projectId",
          "type": "string"
        },
        {
          "indexed": false,
          "internalType": "uint256",
          "name": "cycle",
          "type": "uint256"
        }
      ],
      "name": "Voted",
      "type": "event"
    },
    {
      "anonymous": false,
      "inputs": [
        {
          "indexed": false,
          "internalType": "address",
          "name": "winner",
          "type": "address"
        },
        {
          "indexed": false,
          "internalType": "uint256",
          "name": "amount",
          "type": "uint256"
        },
        {
          "indexed": false,
          "internalType": "uint256",
          "name": "cycle",
          "type": "uint256"
        }
      ],
      "name": "WinnerAnnounced",
      "type": "event"
    },
    {
      "inputs": [],
      "name": "acceptOwnership",
      "outputs": [],
      "stateMutability": "nonpayable",
      "type": "function"
    },
    {
      "inputs": [
        {
          "internalType": "address",
          "name": "",
          "type": "address"
        }
      ],
      "name": "addressChoice",
      "outputs": [
        {
          "internalType": "string",
          "name": "",
          "type": "string"
        }
      ],
      "stateMutability": "view",
      "type": "function",
      "constant": true
    },
    {
      "inputs": [
        {
          "internalType": "address",
          "name": "",
          "type": "address"
        }
      ],
      "name": "addressToName",
      "outputs": [
        {
          "internalType": "string",
          "name": "",
          "type": "string"
        }
      ],
      "stateMutability": "view",
      "type": "function",
      "constant": true
    },
    {
      "inputs": [],
      "name": "currentCycle",
      "outputs": [
        {
          "internalType": "uint256",
          "name": "",
          "type": "uint256"
        }
      ],
      "stateMutability": "view",
      "type": "function",
      "constant": true
    },
    {
      "inputs": [
        {
          "internalType": "uint256",
          "name": "",
          "type": "uint256"
        },
        {
          "internalType": "uint256",
          "name": "",
          "type": "uint256"
        }
      ],
      "name": "cycleVoters",
      "outputs": [
        {
          "internalType": "address",
          "name": "",
          "type": "address"
        }
      ],
      "stateMutability": "view",
      "type": "function",
      "constant": true
    },
    {
      "inputs": [
        {
          "internalType": "uint256",
          "name": "",
          "type": "uint256"
        },
        {
          "internalType": "string",
          "name": "",
          "type": "string"
        }
      ],
      "name": "cycleVotes",
      "outputs": [
        {
          "internalType": "uint256",
          "name": "",
          "type": "uint256"
        }
      ],
      "stateMutability": "view",
      "type": "function",
      "constant": true
    },
    {
      "inputs": [
        {
          "internalType": "address",
          "name": "",
          "type": "address"
        }
      ],
      "name": "hasVoted",
      "outputs": [
        {
          "internalType": "bool",
          "name": "",
          "type": "bool"
        }
      ],
      "stateMutability": "view",
      "type": "function",
      "constant": true
    },
    {
      "inputs": [],
      "name": "lastRequestId",
      "outputs": [
        {
          "internalType": "uint256",
          "name": "",
          "type": "uint256"
        }
      ],
      "stateMutability": "view",
      "type": "function",
      "constant": true
    },
    {
      "inputs": [
        {
          "internalType": "string",
          "name": "",
          "type": "string"
        }
      ],
      "name": "nameToAddress",
      "outputs": [
        {
          "internalType": "address",
          "name": "",
          "type": "address"
        }
      ],
      "stateMutability": "view",
      "type": "function",
      "constant": true
    },
    {
      "inputs": [],
      "name": "owner",
      "outputs": [
        {
          "internalType": "address",
          "name": "",
          "type": "address"
        }
      ],
      "stateMutability": "view",
      "type": "function",
      "constant": true
    },
    {
      "inputs": [
        {
          "internalType": "string",
          "name": "",
          "type": "string"
        }
      ],
      "name": "projects",
      "outputs": [
        {
          "internalType": "string",
          "name": "",
          "type": "string"
        }
      ],
      "stateMutability": "view",
      "type": "function",
      "constant": true
    },
    {
      "inputs": [
        {
          "internalType": "uint256",
          "name": "requestId",
          "type": "uint256"
        },
        {
          "internalType": "uint256[]",
          "name": "randomWords",
          "type": "uint256[]"
        }
      ],
      "name": "rawFulfillRandomWords",
      "outputs": [],
      "stateMutability": "nonpayable",
      "type": "function"
    },
    {
      "inputs": [
        {
          "internalType": "uint256",
          "name": "",
          "type": "uint256"
        }
      ],
      "name": "requestIds",
      "outputs": [
        {
          "internalType": "uint256",
          "name": "",
          "type": "uint256"
        }
      ],
      "stateMutability": "view",
      "type": "function",
      "constant": true
    },
    {
      "inputs": [
        {
          "internalType": "uint256",
          "name": "",
          "type": "uint256"
        }
      ],
      "name": "s_requests",
      "outputs": [
        {
          "internalType": "bool",
          "name": "fulfilled",
          "type": "bool"
        },
        {
          "internalType": "bool",
          "name": "exists",
          "type": "bool"
        }
      ],
      "stateMutability": "view",
      "type": "function",
      "constant": true
    },
    {
      "inputs": [],
      "name": "s_vrfCoordinator",
      "outputs": [
        {
          "internalType": "contract IVRFCoordinatorV2Plus",
          "name": "",
          "type": "address"
        }
      ],
      "stateMutability": "view",
      "type": "function",
      "constant": true
    },
    {
      "inputs": [
        {
          "internalType": "address",
          "name": "_vrfCoordinator",
          "type": "address"
        }
      ],
      "name": "setCoordinator",
      "outputs": [],
      "stateMutability": "nonpayable",
      "type": "function"
    },
    {
      "inputs": [
        {
          "internalType": "address",
          "name": "to",
          "type": "address"
        }
      ],
      "name": "transferOwnership",
      "outputs": [],
      "stateMutability": "nonpayable",
      "type": "function"
    },
    {
      "inputs": [
        {
          "internalType": "string",
          "name": "projectName",
          "type": "string"
        },
        {
          "internalType": "string",
          "name": "projectId",
          "type": "string"
        }
      ],
      "name": "add",
      "outputs": [],
      "stateMutability": "nonpayable",
      "type": "function"
    },
    {
      "inputs": [
        {
          "internalType": "string",
          "name": "displayName",
          "type": "string"
        }
      ],
      "name": "registerVoter",
      "outputs": [],
      "stateMutability": "nonpayable",
      "type": "function"
    },
    {
      "inputs": [
        {
          "internalType": "string",
          "name": "projectId",
          "type": "string"
        },
        {
          "internalType": "string",
          "name": "displayName",
          "type": "string"
        }
      ],
      "name": "vote",
      "outputs": [],
      "stateMutability": "payable",
      "type": "function",
      "payable": true
    },
    {
      "inputs": [
        {
          "internalType": "string",
          "name": "projectId",
          "type": "string"
        }
      ],
      "name": "getCycleVoteCount",
      "outputs": [
        {
          "internalType": "uint256",
          "name": "",
          "type": "uint256"
        }
      ],
      "stateMutability": "view",
      "type": "function",
      "constant": true
    },
    {
      "inputs": [],
      "name": "checkHasVoted",
      "outputs": [
        {
          "internalType": "bool",
          "name": "",
          "type": "bool"
        }
      ],
      "stateMutability": "view",
      "type": "function",
      "constant": true
    },
    {
      "inputs": [],
      "name": "getVote",
      "outputs": [
        {
          "internalType": "string",
          "name": "",
          "type": "string"
        }
      ],
      "stateMutability": "view",
      "type": "function",
      "constant": true
    },
    {
      "inputs": [],
      "name": "getCycle",
      "outputs": [
        {
          "internalType": "uint256",
          "name": "",
          "type": "uint256"
        }
      ],
      "stateMutability": "view",
      "type": "function",
      "constant": true
    },
    {
      "inputs": [],
      "name": "getBalance",
      "outputs": [
        {
          "internalType": "uint256",
          "name": "",
          "type": "uint256"
        }
      ],
      "stateMutability": "view",
      "type": "function",
      "constant": true
    },
    {
      "inputs": [],
      "name": "getThreshold",
      "outputs": [
        {
          "internalType": "uint256",
          "name": "",
          "type": "uint256"
        }
      ],
      "stateMutability": "view",
      "type": "function",
      "constant": true
    },
    {
      "inputs": [
        {
          "internalType": "uint256",
          "name": "_requestId",
          "type": "uint256"
        }
      ],
      "name": "getRequestStatus",
      "outputs": [
        {
          "internalType": "bool",
          "name": "fulfilled",
          "type": "bool"
        },
        {
          "internalType": "uint256[]",
          "name": "randomWords",
          "type": "uint256[]"
        }
      ],
      "stateMutability": "view",
      "type": "function",
      "constant": true
    }
  ],
  "bytecode": "0x608060405267016345785d8a0000600a556001600b55620186a0600e5f6101000a81548163ffffffff021916908363ffffffff1602179055506003600e60046101000a81548161ffff021916908361ffff1602179055506001600e60066101000a81548163ffffffff021916908363ffffffff16021790555034801562000084575f80fd5b506040516200325b3803806200325b8339818101604052810190620000aa919062000467565b8233805f8073ffffffffffffffffffffffffffffffffffffffff168273ffffffffffffffffffffffffffffffffffffffff16036200011f576040517f08c379a000000000000000000000000000000000000000000000000000000000815260040162000116906200051e565b60405180910390fd5b815f806101000a81548173ffffffffffffffffffffffffffffffffffffffff021916908373ffffffffffffffffffffffffffffffffffffffff1602179055505f73ffffffffffffffffffffffffffffffffffffffff168173ffffffffffffffffffffffffffffffffffffffff1614620001a457620001a3816200026560201b60201c565b5b5050505f73ffffffffffffffffffffffffffffffffffffffff168173ffffffffffffffffffffffffffffffffffffffff16036200020d576040517fd92e233d00000000000000000000000000000000000000000000000000000000815260040160405180910390fd5b8060025f6101000a81548173ffffffffffffffffffffffffffffffffffffffff021916908373ffffffffffffffffffffffffffffffffffffffff1602179055505081600c8190555080600d81905550505050620005ac565b3373ffffffffffffffffffffffffffffffffffffffff168173ffffffffffffffffffffffffffffffffffffffff1603620002d6576040517f08c379a0000000000000000000000000000000000000000000000000000000008152600401620002cd906200058c565b60405180910390fd5b8060015f6101000a81548173ffffffffffffffffffffffffffffffffffffffff021916908373ffffffffffffffffffffffffffffffffffffffff1602179055508073ffffffffffffffffffffffffffffffffffffffff165f8054906101000a900473ffffffffffffffffffffffffffffffffffffffff1673ffffffffffffffffffffffffffffffffffffffff167fed8889f560326eb138920d842192f0eb3dd22b4f139c87a2c57538e05bae127860405160405180910390a350565b5f80fd5b5f73ffffffffffffffffffffffffffffffffffffffff82169050919050565b5f620003c18262000396565b9050919050565b620003d381620003b5565b8114620003de575f80fd5b50565b5f81519050620003f181620003c8565b92915050565b5f819050919050565b6200040b81620003f7565b811462000416575f80fd5b50565b5f81519050620004298162000400565b92915050565b5f819050919050565b62000443816200042f565b81146200044e575f80fd5b50565b5f81519050620004618162000438565b92915050565b5f805f6060848603121562000481576200048062000392565b5b5f6200049086828701620003e1565b9350506020620004a38682870162000419565b9250506040620004b68682870162000451565b9150509250925092565b5f82825260208201905092915050565b7f43616e6e6f7420736574206f776e657220746f207a65726f00000000000000005f82015250565b5f62000506601883620004c0565b91506200051382620004d0565b602082019050919050565b5f6020820190508181035f8301526200053781620004f8565b9050919050565b7f43616e6e6f74207472616e7366657220746f2073656c660000000000000000005f82015250565b5f62000574601783620004c0565b915062000581826200053e565b602082019050919050565b5f6020820190508181035f830152620005a58162000566565b9050919050565b612ca180620005ba5f395ff3fe60806040526004361061019b575f3560e01c80638ea98117116100eb578063e2a04b6211610089578063e8d5940d11610063578063e8d5940d14610613578063ebdf86ca1461062f578063f2fde38b14610657578063fc2a88c31461067f5761019b565b8063e2a04b6214610571578063e75235b8146105ad578063e7f72f10146105d75761019b565b8063a168fa89116100c5578063a168fa8914610491578063a9382125146104ce578063bab2f5521461050a578063d8a4676f146105345761019b565b80638ea981171461040357806391c9b2681461042b5780639eccacf6146104675761019b565b80631fe543e31161015857806371c8fdbd1161013257806371c8fdbd1461034b57806379ba5097146103875780638796ba8c1461039d5780638da5cb5b146103d95761019b565b80631fe543e3146102d15780636428a486146102f9578063655bce22146103215761019b565b80630242f3511461019f57806308d88aad146101c957806309eef43e1461020557806312065fe0146102415780631234ce9d1461026b57806312fe56e514610295575b5f80fd5b3480156101aa575f80fd5b506101b36106a9565b6040516101c09190611b5c565b60405180910390f35b3480156101d4575f80fd5b506101ef60048036038101906101ea9190611cb9565b610774565b6040516101fc9190611d3f565b60405180910390f35b348015610210575f80fd5b5061022b60048036038101906102269190611d82565b6107bc565b6040516102389190611dc7565b60405180910390f35b34801561024c575f80fd5b506102556107d9565b6040516102629190611df8565b60405180910390f35b348015610276575f80fd5b5061027f6107e0565b60405161028c9190611dc7565b60405180910390f35b3480156102a0575f80fd5b506102bb60048036038101906102b69190611e3b565b610830565b6040516102c89190611d3f565b60405180910390f35b3480156102dc575f80fd5b506102f760048036038101906102f29190611ed6565b610878565b005b348015610304575f80fd5b5061031f600480360381019061031a9190611cb9565b61093c565b005b34801561032c575f80fd5b50610335610ad5565b6040516103429190611df8565b60405180910390f35b348015610356575f80fd5b50610371600480360381019061036c9190611cb9565b610ade565b60405161037e9190611df8565b60405180910390f35b348015610392575f80fd5b5061039b610b16565b005b3480156103a8575f80fd5b506103c360048036038101906103be9190611f33565b610ca5565b6040516103d09190611df8565b60405180910390f35b3480156103e4575f80fd5b506103ed610cc5565b6040516103fa9190611d3f565b60405180910390f35b34801561040e575f80fd5b5061042960048036038101906104249190611d82565b610cec565b005b348015610436575f80fd5b50610451600480360381019061044c9190611cb9565b610ec9565b60405161045e9190611b5c565b60405180910390f35b348015610472575f80fd5b5061047b610f7c565b6040516104889190611fb9565b60405180910390f35b34801561049c575f80fd5b506104b760048036038101906104b29190611f33565b610fa1565b6040516104c5929190611fd2565b60405180910390f35b3480156104d9575f80fd5b506104f460048036038101906104ef9190611ff9565b610fd9565b6040516105019190611df8565b60405180910390f35b348015610515575f80fd5b5061051e611011565b60405161052b9190611df8565b60405180910390f35b34801561053f575f80fd5b5061055a60048036038101906105559190611f33565b611017565b60405161056892919061210a565b60405180910390f35b34801561057c575f80fd5b5061059760048036038101906105929190611d82565b611135565b6040516105a49190611b5c565b60405180910390f35b3480156105b8575f80fd5b506105c16111d0565b6040516105ce9190611df8565b60405180910390f35b3480156105e2575f80fd5b506105fd60048036038101906105f89190611d82565b6111d9565b60405161060a9190611b5c565b60405180910390f35b61062d60048036038101906106289190612138565b611274565b005b34801561063a575f80fd5b5061065560048036038101906106509190612138565b611515565b005b348015610662575f80fd5b5061067d60048036038101906106789190611d82565b611678565b005b34801561068a575f80fd5b5061069361168c565b6040516106a09190611df8565b60405180910390f35b606060065f3373ffffffffffffffffffffffffffffffffffffffff1673ffffffffffffffffffffffffffffffffffffffff1681526020019081526020015f2080546106f3906121db565b80601f016020809104026020016040519081016040528092919081815260200182805461071f906121db565b801561076a5780601f106107415761010080835404028352916020019161076a565b820191905f5260205f20905b81548152906001019060200180831161074d57829003601f168201915b5050505050905090565b6004818051602081018201805184825260208301602085012081835280955050505050505f915054906101000a900473ffffffffffffffffffffffffffffffffffffffff1681565b6009602052805f5260405f205f915054906101000a900460ff1681565b5f47905090565b5f60095f3373ffffffffffffffffffffffffffffffffffffffff1673ffffffffffffffffffffffffffffffffffffffff1681526020019081526020015f205f9054906101000a900460ff16905090565b6007602052815f5260405f208181548110610849575f80fd5b905f5260205f20015f915091509054906101000a900473ffffffffffffffffffffffffffffffffffffffff1681565b60025f9054906101000a900473ffffffffffffffffffffffffffffffffffffffff1673ffffffffffffffffffffffffffffffffffffffff163373ffffffffffffffffffffffffffffffffffffffff161461092c573360025f9054906101000a900473ffffffffffffffffffffffffffffffffffffffff166040517f1cf993f400000000000000000000000000000000000000000000000000000000815260040161092392919061220b565b60405180910390fd5b610937838383611692565b505050565b5f60048260405161094d919061226c565b90815260200160405180910390205f9054906101000a900473ffffffffffffffffffffffffffffffffffffffff1690505f73ffffffffffffffffffffffffffffffffffffffff168173ffffffffffffffffffffffffffffffffffffffff16146109eb576040517f08c379a00000000000000000000000000000000000000000000000000000000081526004016109e2906122cc565b60405180910390fd5b60095f3373ffffffffffffffffffffffffffffffffffffffff1673ffffffffffffffffffffffffffffffffffffffff1681526020019081526020015f205f9054906101000a900460ff1615610a75576040517f08c379a0000000000000000000000000000000000000000000000000000000008152600401610a6c90612334565b60405180910390fd5b33600483604051610a86919061226c565b90815260200160405180910390205f6101000a81548173ffffffffffffffffffffffffffffffffffffffff021916908373ffffffffffffffffffffffffffffffffffffffff1602179055505050565b5f600b54905090565b5f60035f600b5481526020019081526020015f2082604051610b00919061226c565b9081526020016040518091039020549050919050565b60015f9054906101000a900473ffffffffffffffffffffffffffffffffffffffff1673ffffffffffffffffffffffffffffffffffffffff163373ffffffffffffffffffffffffffffffffffffffff1614610ba5576040517f08c379a0000000000000000000000000000000000000000000000000000000008152600401610b9c9061239c565b60405180910390fd5b5f805f9054906101000a900473ffffffffffffffffffffffffffffffffffffffff169050335f806101000a81548173ffffffffffffffffffffffffffffffffffffffff021916908373ffffffffffffffffffffffffffffffffffffffff1602179055505f60015f6101000a81548173ffffffffffffffffffffffffffffffffffffffff021916908373ffffffffffffffffffffffffffffffffffffffff1602179055503373ffffffffffffffffffffffffffffffffffffffff168173ffffffffffffffffffffffffffffffffffffffff167f8be0079c531659141344cd1fd0a4f28419497f9722a3daafe3b4186f6b6457e060405160405180910390a350565b600f8181548110610cb4575f80fd5b905f5260205f20015f915090505481565b5f805f9054906101000a900473ffffffffffffffffffffffffffffffffffffffff16905090565b610cf4610cc5565b73ffffffffffffffffffffffffffffffffffffffff163373ffffffffffffffffffffffffffffffffffffffff1614158015610d7c575060025f9054906101000a900473ffffffffffffffffffffffffffffffffffffffff1673ffffffffffffffffffffffffffffffffffffffff163373ffffffffffffffffffffffffffffffffffffffff1614155b15610dea5733610d8a610cc5565b60025f9054906101000a900473ffffffffffffffffffffffffffffffffffffffff166040517f061db9c1000000000000000000000000000000000000000000000000000000008152600401610de1939291906123ba565b60405180910390fd5b5f73ffffffffffffffffffffffffffffffffffffffff168173ffffffffffffffffffffffffffffffffffffffff1603610e4f576040517fd92e233d00000000000000000000000000000000000000000000000000000000815260040160405180910390fd5b8060025f6101000a81548173ffffffffffffffffffffffffffffffffffffffff021916908373ffffffffffffffffffffffffffffffffffffffff1602179055507fd1a6a14209a385a964d036e404cb5cfb71f4000cdb03c9366292430787261be681604051610ebe9190611d3f565b60405180910390a150565b6008818051602081018201805184825260208301602085012081835280955050505050505f915090508054610efd906121db565b80601f0160208091040260200160405190810160405280929190818152602001828054610f29906121db565b8015610f745780601f10610f4b57610100808354040283529160200191610f74565b820191905f5260205f20905b815481529060010190602001808311610f5757829003601f168201915b505050505081565b60025f9054906101000a900473ffffffffffffffffffffffffffffffffffffffff1681565b6011602052805f5260405f205f91509050805f015f9054906101000a900460ff1690805f0160019054906101000a900460ff16905082565b6003602052815f5260405f20818051602081018201805184825260208301602085012081835280955050505050505f91509150505481565b600b5481565b5f606060115f8481526020019081526020015f205f0160019054906101000a900460ff1661107a576040517f08c379a000000000000000000000000000000000000000000000000000000000815260040161107190612439565b60405180910390fd5b5f60115f8581526020019081526020015f206040518060600160405290815f82015f9054906101000a900460ff161515151581526020015f820160019054906101000a900460ff161515151581526020016001820180548060200260200160405190810160405280929190818152602001828054801561111757602002820191905f5260205f20905b815481526020019060010190808311611103575b5050505050815250509050805f015181604001519250925050915091565b6005602052805f5260405f205f915090508054611151906121db565b80601f016020809104026020016040519081016040528092919081815260200182805461117d906121db565b80156111c85780601f1061119f576101008083540402835291602001916111c8565b820191905f5260205f20905b8154815290600101906020018083116111ab57829003601f168201915b505050505081565b5f600a54905090565b6006602052805f5260405f205f9150905080546111f5906121db565b80601f0160208091040260200160405190810160405280929190818152602001828054611221906121db565b801561126c5780601f106112435761010080835404028352916020019161126c565b820191905f5260205f20905b81548152906001019060200180831161124f57829003601f168201915b505050505081565b61127d8161093c565b66038d7ea4c680003410156112c7576040517f08c379a00000000000000000000000000000000000000000000000000000000081526004016112be906124a1565b60405180910390fd5b66b1a2bc2ec50000341115611311576040517f08c379a000000000000000000000000000000000000000000000000000000000815260040161130890612509565b60405180910390fd5b5f600883604051611322919061226c565b9081526020016040518091039020805461133b906121db565b90501161137d576040517f08c379a000000000000000000000000000000000000000000000000000000000815260040161137490612571565b60405180910390fd5b600160095f3373ffffffffffffffffffffffffffffffffffffffff1673ffffffffffffffffffffffffffffffffffffffff1681526020019081526020015f205f6101000a81548160ff0219169083151502179055508160065f3373ffffffffffffffffffffffffffffffffffffffff1673ffffffffffffffffffffffffffffffffffffffff1681526020019081526020015f20908161141c9190612723565b5060035f600b5481526020019081526020015f208260405161143e919061226c565b90815260200160405180910390205f81548092919061145c9061281f565b919050555060075f600b5481526020019081526020015f2033908060018154018082558091505060019003905f5260205f20015f9091909190916101000a81548173ffffffffffffffffffffffffffffffffffffffff021916908373ffffffffffffffffffffffffffffffffffffffff1602179055507f6cb0a41e9298e8d3ff3de34496ff4e64afd0962993efd997ff057aa62043436f338284600b546040516115099493929190612866565b60405180910390a15050565b61151d6118b3565b5f60088260405161152e919061226c565b90815260200160405180910390208054611547906121db565b905014611589576040517f08c379a000000000000000000000000000000000000000000000000000000000815260040161158090612901565b60405180910390fd5b5f8251116115cc576040517f08c379a00000000000000000000000000000000000000000000000000000000081526004016115c390612969565b60405180910390fd5b5f81511161160f576040517f08c379a0000000000000000000000000000000000000000000000000000000008152600401611606906129d1565b60405180910390fd5b81600882604051611620919061226c565b9081526020016040518091039020908161163a9190612723565b507feb5d6000a362475be9d9b16beddc148b7004850daf2e69325a403d613567769e818360405161166c9291906129ef565b60405180910390a15050565b6116806118b3565b61168981611942565b50565b60105481565b60115f8481526020019081526020015f205f0160019054906101000a900460ff166116f2576040517f08c379a00000000000000000000000000000000000000000000000000000000081526004016116e990612439565b60405180910390fd5b600160115f8581526020019081526020015f205f015f6101000a81548160ff021916908315150217905550818160115f8681526020019081526020015f206001019190611740929190611a6c565b507ffe2e2d779dba245964d4e3ef9b994be63856fd568bf7d3ca9e224755cb1bd54d83838360405161177493929190612a8c565b60405180910390a15f82825f8181106117905761178f612abc565b5b9050602002013590505f60075f600b5481526020019081526020015f2080549050826117bc9190612b16565b90505f60075f600b5481526020019081526020015f2082815481106117e4576117e3612abc565b5b905f5260205f20015f9054906101000a900473ffffffffffffffffffffffffffffffffffffffff1690505f4790507f1545cd4197b626f3a89e81606417b61cd942aa094771eaa0bbbf9562c1e17de08282600b5460405161184793929190612b66565b60405180910390a18173ffffffffffffffffffffffffffffffffffffffff166108fc8290811502906040515f60405180830381858888f19350505050158015611892573d5f803e3d5ffd5b50600b5f8154809291906118a59061281f565b919050555050505050505050565b5f8054906101000a900473ffffffffffffffffffffffffffffffffffffffff1673ffffffffffffffffffffffffffffffffffffffff163373ffffffffffffffffffffffffffffffffffffffff1614611940576040517f08c379a000000000000000000000000000000000000000000000000000000000815260040161193790612be5565b60405180910390fd5b565b3373ffffffffffffffffffffffffffffffffffffffff168173ffffffffffffffffffffffffffffffffffffffff16036119b0576040517f08c379a00000000000000000000000000000000000000000000000000000000081526004016119a790612c4d565b60405180910390fd5b8060015f6101000a81548173ffffffffffffffffffffffffffffffffffffffff021916908373ffffffffffffffffffffffffffffffffffffffff1602179055508073ffffffffffffffffffffffffffffffffffffffff165f8054906101000a900473ffffffffffffffffffffffffffffffffffffffff1673ffffffffffffffffffffffffffffffffffffffff167fed8889f560326eb138920d842192f0eb3dd22b4f139c87a2c57538e05bae127860405160405180910390a350565b828054828255905f5260205f20908101928215611aa6579160200282015b82811115611aa5578235825591602001919060010190611a8a565b5b509050611ab39190611ab7565b5090565b5b80821115611ace575f815f905550600101611ab8565b5090565b5f81519050919050565b5f82825260208201905092915050565b5f5b83811015611b09578082015181840152602081019050611aee565b5f8484015250505050565b5f601f19601f8301169050919050565b5f611b2e82611ad2565b611b388185611adc565b9350611b48818560208601611aec565b611b5181611b14565b840191505092915050565b5f6020820190508181035f830152611b748184611b24565b905092915050565b5f604051905090565b5f80fd5b5f80fd5b5f80fd5b5f80fd5b7f4e487b71000000000000000000000000000000000000000000000000000000005f52604160045260245ffd5b611bcb82611b14565b810181811067ffffffffffffffff82111715611bea57611be9611b95565b5b80604052505050565b5f611bfc611b7c565b9050611c088282611bc2565b919050565b5f67ffffffffffffffff821115611c2757611c26611b95565b5b611c3082611b14565b9050602081019050919050565b828183375f83830152505050565b5f611c5d611c5884611c0d565b611bf3565b905082815260208101848484011115611c7957611c78611b91565b5b611c84848285611c3d565b509392505050565b5f82601f830112611ca057611c9f611b8d565b5b8135611cb0848260208601611c4b565b91505092915050565b5f60208284031215611cce57611ccd611b85565b5b5f82013567ffffffffffffffff811115611ceb57611cea611b89565b5b611cf784828501611c8c565b91505092915050565b5f73ffffffffffffffffffffffffffffffffffffffff82169050919050565b5f611d2982611d00565b9050919050565b611d3981611d1f565b82525050565b5f602082019050611d525f830184611d30565b92915050565b611d6181611d1f565b8114611d6b575f80fd5b50565b5f81359050611d7c81611d58565b92915050565b5f60208284031215611d9757611d96611b85565b5b5f611da484828501611d6e565b91505092915050565b5f8115159050919050565b611dc181611dad565b82525050565b5f602082019050611dda5f830184611db8565b92915050565b5f819050919050565b611df281611de0565b82525050565b5f602082019050611e0b5f830184611de9565b92915050565b611e1a81611de0565b8114611e24575f80fd5b50565b5f81359050611e3581611e11565b92915050565b5f8060408385031215611e5157611e50611b85565b5b5f611e5e85828601611e27565b9250506020611e6f85828601611e27565b9150509250929050565b5f80fd5b5f80fd5b5f8083601f840112611e9657611e95611b8d565b5b8235905067ffffffffffffffff811115611eb357611eb2611e79565b5b602083019150836020820283011115611ecf57611ece611e7d565b5b9250929050565b5f805f60408486031215611eed57611eec611b85565b5b5f611efa86828701611e27565b935050602084013567ffffffffffffffff811115611f1b57611f1a611b89565b5b611f2786828701611e81565b92509250509250925092565b5f60208284031215611f4857611f47611b85565b5b5f611f5584828501611e27565b91505092915050565b5f819050919050565b5f611f81611f7c611f7784611d00565b611f5e565b611d00565b9050919050565b5f611f9282611f67565b9050919050565b5f611fa382611f88565b9050919050565b611fb381611f99565b82525050565b5f602082019050611fcc5f830184611faa565b92915050565b5f604082019050611fe55f830185611db8565b611ff26020830184611db8565b9392505050565b5f806040838503121561200f5761200e611b85565b5b5f61201c85828601611e27565b925050602083013567ffffffffffffffff81111561203d5761203c611b89565b5b61204985828601611c8c565b9150509250929050565b5f81519050919050565b5f82825260208201905092915050565b5f819050602082019050919050565b61208581611de0565b82525050565b5f612096838361207c565b60208301905092915050565b5f602082019050919050565b5f6120b882612053565b6120c2818561205d565b93506120cd8361206d565b805f5b838110156120fd5781516120e4888261208b565b97506120ef836120a2565b9250506001810190506120d0565b5085935050505092915050565b5f60408201905061211d5f830185611db8565b818103602083015261212f81846120ae565b90509392505050565b5f806040838503121561214e5761214d611b85565b5b5f83013567ffffffffffffffff81111561216b5761216a611b89565b5b61217785828601611c8c565b925050602083013567ffffffffffffffff81111561219857612197611b89565b5b6121a485828601611c8c565b9150509250929050565b7f4e487b71000000000000000000000000000000000000000000000000000000005f52602260045260245ffd5b5f60028204905060018216806121f257607f821691505b602082108103612205576122046121ae565b5b50919050565b5f60408201905061221e5f830185611d30565b61222b6020830184611d30565b9392505050565b5f81905092915050565b5f61224682611ad2565b6122508185612232565b9350612260818560208601611aec565b80840191505092915050565b5f612277828461223c565b915081905092915050565b7f446973706c6179206e616d6520697320616c72656164792074616b656e0000005f82015250565b5f6122b6601d83611adc565b91506122c182612282565b602082019050919050565b5f6020820190508181035f8301526122e3816122aa565b9050919050565b7f566f7465722068617320616c726561647920766f7465640000000000000000005f82015250565b5f61231e601783611adc565b9150612329826122ea565b602082019050919050565b5f6020820190508181035f83015261234b81612312565b9050919050565b7f4d7573742062652070726f706f736564206f776e6572000000000000000000005f82015250565b5f612386601683611adc565b915061239182612352565b602082019050919050565b5f6020820190508181035f8301526123b38161237a565b9050919050565b5f6060820190506123cd5f830186611d30565b6123da6020830185611d30565b6123e76040830184611d30565b949350505050565b7f72657175657374206e6f7420666f756e640000000000000000000000000000005f82015250565b5f612423601183611adc565b915061242e826123ef565b602082019050919050565b5f6020820190508181035f83015261245081612417565b9050919050565b7f4d696e696d756d20302e303031206574686572000000000000000000000000005f82015250565b5f61248b601383611adc565b915061249682612457565b602082019050919050565b5f6020820190508181035f8301526124b88161247f565b9050919050565b7f4d6178696d756d20302e303520657468657200000000000000000000000000005f82015250565b5f6124f3601283611adc565b91506124fe826124bf565b602082019050919050565b5f6020820190508181035f830152612520816124e7565b9050919050565b7f50726f6a65637420646f6573206e6f74206578697374000000000000000000005f82015250565b5f61255b601683611adc565b915061256682612527565b602082019050919050565b5f6020820190508181035f8301526125888161254f565b9050919050565b5f819050815f5260205f209050919050565b5f6020601f8301049050919050565b5f82821b905092915050565b5f600883026125eb7fffffffffffffffffffffffffffffffffffffffffffffffffffffffffffffffff826125b0565b6125f586836125b0565b95508019841693508086168417925050509392505050565b5f61262761262261261d84611de0565b611f5e565b611de0565b9050919050565b5f819050919050565b6126408361260d565b61265461264c8261262e565b8484546125bc565b825550505050565b5f90565b61266861265c565b612673818484612637565b505050565b5b818110156126965761268b5f82612660565b600181019050612679565b5050565b601f8211156126db576126ac8161258f565b6126b5846125a1565b810160208510156126c4578190505b6126d86126d0856125a1565b830182612678565b50505b505050565b5f82821c905092915050565b5f6126fb5f19846008026126e0565b1980831691505092915050565b5f61271383836126ec565b9150826002028217905092915050565b61272c82611ad2565b67ffffffffffffffff81111561274557612744611b95565b5b61274f82546121db565b61275a82828561269a565b5f60209050601f83116001811461278b575f8415612779578287015190505b6127838582612708565b8655506127ea565b601f1984166127998661258f565b5f5b828110156127c05784890151825560018201915060208501945060208101905061279b565b868310156127dd57848901516127d9601f8916826126ec565b8355505b6001600288020188555050505b505050505050565b7f4e487b71000000000000000000000000000000000000000000000000000000005f52601160045260245ffd5b5f61282982611de0565b91507fffffffffffffffffffffffffffffffffffffffffffffffffffffffffffffffff820361285b5761285a6127f2565b5b600182019050919050565b5f6080820190506128795f830187611d30565b818103602083015261288b8186611b24565b9050818103604083015261289f8185611b24565b90506128ae6060830184611de9565b95945050505050565b7f50726f6a65637420616c726561647920657869737473000000000000000000005f82015250565b5f6128eb601683611adc565b91506128f6826128b7565b602082019050919050565b5f6020820190508181035f830152612918816128df565b9050919050565b7f50726f6a656374206e616d6520697320726571756972656400000000000000005f82015250565b5f612953601883611adc565b915061295e8261291f565b602082019050919050565b5f6020820190508181035f83015261298081612947565b9050919050565b7f50726f6a656374204944206973207265717569726564000000000000000000005f82015250565b5f6129bb601683611adc565b91506129c682612987565b602082019050919050565b5f6020820190508181035f8301526129e8816129af565b9050919050565b5f6040820190508181035f830152612a078185611b24565b90508181036020830152612a1b8184611b24565b90509392505050565b5f80fd5b82818337505050565b5f612a3c838561205d565b93507f07ffffffffffffffffffffffffffffffffffffffffffffffffffffffffffffff831115612a6f57612a6e612a24565b5b602083029250612a80838584612a28565b82840190509392505050565b5f604082019050612a9f5f830186611de9565b8181036020830152612ab2818486612a31565b9050949350505050565b7f4e487b71000000000000000000000000000000000000000000000000000000005f52603260045260245ffd5b7f4e487b71000000000000000000000000000000000000000000000000000000005f52601260045260245ffd5b5f612b2082611de0565b9150612b2b83611de0565b925082612b3b57612b3a612ae9565b5b828206905092915050565b5f612b5082611f88565b9050919050565b612b6081612b46565b82525050565b5f606082019050612b795f830186612b57565b612b866020830185611de9565b612b936040830184611de9565b949350505050565b7f4f6e6c792063616c6c61626c65206279206f776e6572000000000000000000005f82015250565b5f612bcf601683611adc565b9150612bda82612b9b565b602082019050919050565b5f6020820190508181035f830152612bfc81612bc3565b9050919050565b7f43616e6e6f74207472616e7366657220746f2073656c660000000000000000005f82015250565b5f612c37601783611adc565b9150612c4282612c03565b602082019050919050565b5f6020820190508181035f830152612c6481612c2b565b905091905056fea2646970667358221220cc943c8fd72b2a13ba416cd7f3fdace18c556500d030ddbc876c0b0c1dd3477564736f6c63430008150033",
  "immutableReferences": {},
  "source": "// SPDX-License-Identifier: MIT\npragma solidity ^0.8.19;\n\nimport \"@openzeppelin/contracts/utils/Address.sol\";\nimport \"@chainlink/contracts/src/v0.8/vrf/dev/libraries/VRFV2PlusClient.sol\";\nimport \"@openzeppelin/contracts/token/ERC20/IERC20.sol\";\n\nimport {ConfirmedOwner} from \"@chainlink/contracts/src/v0.8/shared/access/ConfirmedOwner.sol\";\nimport {VRFV2PlusWrapperConsumerBase} from \"@chainlink/contracts/src/v0.8/vrf/dev/VRFV2PlusWrapperConsumerBase.sol\";\nimport {LinkTokenInterface} from \"@chainlink/contracts/src/v0.8/shared/interfaces/LinkTokenInterface.sol\";\nimport {VRFV2PlusClient} from \"@chainlink/contracts/src/v0.8/vrf/dev/libraries/VRFV2PlusClient.sol\";\nimport {VRFConsumerBaseV2Plus} from \"@chainlink/contracts/src/v0.8/vrf/dev/VRFConsumerBaseV2Plus.sol\";\n\ncontract ProjectVoting is VRFConsumerBaseV2Plus {\n    // Voting properties\n    mapping(uint => mapping(string => uint)) public cycleVotes; // total project votes within the current cycle\n    mapping(string => address) public nameToAddress;\n    mapping(address => string) public addressToName;\n    mapping(address => string) public addressChoice;\n    mapping(uint => address[]) public cycleVoters; // list of voters of the current cycle\n    mapping(string => string) public projects;\n    mapping(address => bool) public hasVoted;\n    uint private threshold = 0.1 ether;\n    uint public currentCycle = 1;\n\n    // Voting Events\n    event ProjectAdded(string projectId, string projectName);\n    event Voted(address voter, string name, string projectId, uint cycle);\n    event WinnerAnnounced(address winner, uint256 amount, uint cycle);\n\n    // Chainlink VRF properties\n    uint256 s_subscriptionId;\n    bytes32 private keyHash;\n    uint32 private callbackGasLimit = 100000; // Adjust the gas limit based on the requirement\n    uint16 private requestConfirmations = 3; // Minimum number of confirmations\n    uint32 private numWords =  1; // Number of random values to request\n    uint256[] public requestIds;\n    uint256 public lastRequestId;\n    struct RequestStatus {\n        bool fulfilled; // whether the request has been successfully fulfilled\n        bool exists; // whether a requestId exists\n        uint256[] randomWords;\n    }\n    mapping(uint256 => RequestStatus)\n    public s_requests;\n\n    // Chainlink VRF Events\n    event RequestSent(uint256 requestId, uint32 numWords);\n    event RequestFulfilled(uint256 requestId, uint256[] randomWords);\n\n    constructor(address _vrfCoordinator, uint256 _subscriptionId, bytes32 _keyHash) VRFConsumerBaseV2Plus(_vrfCoordinator) {\n        s_subscriptionId = _subscriptionId;\n        keyHash = _keyHash;\n    }\n\n    function add(string memory projectName, string memory projectId) public onlyOwner {\n        require(bytes(projects[projectId]).length == 0, \"Project already exists\");\n        require(bytes(projectName).length > 0, \"Project name is required\");\n        require(bytes(projectId).length > 0, \"Project ID is required\"); \n        projects[projectId] = projectName;\n        emit ProjectAdded(projectId, projectName);\n    }\n\n    function registerVoter(string memory displayName) public {\n        address voterAddress = nameToAddress[displayName];\n        require(voterAddress == address(0), \"Display name is already taken\");\n        require(!hasVoted[msg.sender], \"Voter has already voted\");\n        nameToAddress[displayName] = msg.sender;\n    }\n\n    function vote(string memory projectId, string memory displayName) payable public {\n        registerVoter(displayName);\n        require(msg.value >= 0.001 ether, \"Minimum 0.001 ether\");\n        require(msg.value <= 0.05 ether, \"Maximum 0.05 ether\");\n        require(bytes(projects[projectId]).length > 0, \"Project does not exist\");\n        hasVoted[msg.sender] = true;\n        addressChoice[msg.sender] = projectId;\n        cycleVotes[currentCycle][projectId]++;\n        cycleVoters[currentCycle].push(msg.sender);\n        //checkAndTransfer();\n        emit Voted(msg.sender, displayName, projectId, currentCycle);\n    }\n\n    function getCycleVoteCount(string memory projectId) public view returns (uint) {\n        return cycleVotes[currentCycle][projectId];\n    }\n\n    function checkHasVoted() public view returns (bool) {\n        return hasVoted[msg.sender];\n    }\n\n    function getVote() public view returns (string memory) {\n        return addressChoice[msg.sender];\n    }\n\n    function getCycle() public view returns (uint) {\n        return currentCycle;\n    }\n\n    function getBalance() public view returns (uint256) {\n        return address(this).balance;\n    }\n\n    function getThreshold() public view returns (uint256) {\n        return threshold;\n    }\n\n    function requestRandomWords(\n        bool enableNativePayment\n    ) internal returns (uint256 requestId) {\n        requestId = s_vrfCoordinator.requestRandomWords(\n            VRFV2PlusClient.RandomWordsRequest({\n                keyHash: keyHash,\n                subId: s_subscriptionId,\n                requestConfirmations: requestConfirmations,\n                callbackGasLimit: callbackGasLimit,\n                numWords: numWords,\n                extraArgs: VRFV2PlusClient._argsToBytes(\n                    VRFV2PlusClient.ExtraArgsV1({\n                        nativePayment: enableNativePayment\n                    })\n                )\n            })\n        );\n        s_requests[requestId] = RequestStatus({\n            randomWords: new uint256[](0),\n            exists: true,\n            fulfilled: false\n        });\n        requestIds.push(requestId);\n        lastRequestId = requestId;\n        emit RequestSent(requestId, numWords);\n        return requestId;\n    }\n\n    function checkAndTransfer() internal {\n        if (address(this).balance >= threshold) {\n            require(cycleVoters[currentCycle].length > 0, \"No voters to reward\");\n            requestRandomWords(false);\n        }\n    }\n\n    function getRequestStatus(\n        uint256 _requestId\n    ) external view returns (bool fulfilled, uint256[] memory randomWords) {\n        require(s_requests[_requestId].exists, \"request not found\");\n        RequestStatus memory request = s_requests[_requestId];\n        return (request.fulfilled, request.randomWords);\n    }\n\n    // pick random winner once threshold is met for the current vote cycle\n    function fulfillRandomWords(uint256 _requestId, uint256[] calldata _randomWords) internal override {\n        require(s_requests[_requestId].exists, \"request not found\");\n        s_requests[_requestId].fulfilled = true;\n        s_requests[_requestId].randomWords = _randomWords;\n        emit RequestFulfilled(_requestId, _randomWords);\n        uint256 randomResult = _randomWords[0];\n        uint randomIndex = randomResult % cycleVoters[currentCycle].length;\n        address payable luckyVoter = payable(cycleVoters[currentCycle][randomIndex]);\n        uint256 amountToSend = address(this).balance;\n        emit WinnerAnnounced(luckyVoter, amountToSend, currentCycle);\n        luckyVoter.transfer(amountToSend);\n        currentCycle++;\n    }\n}\n",
  "sourcePath": "/home/devindavis/WebDev/Projects/PersonalSite/smart-contracts/contracts/project-voting.sol",
  "compiler": {
    "name": "solc",
    "version": "0.8.21+commit.d9974bed.Emscripten.clang"
  },
  "schemaVersion": "3.4.16",
  "updatedAt": "2024-09-07T13:51:47.607Z",
  "networkType": "ethereum",
  "devdoc": {
    "kind": "dev",
    "methods": {},
    "version": 1
  },
  "userdoc": {
    "kind": "user",
    "methods": {
      "acceptOwnership()": {
        "notice": "Allows an ownership transfer to be completed by the recipient."
      },
      "owner()": {
        "notice": "Get the current owner"
      },
      "setCoordinator(address)": {
        "notice": "Sets the VRF Coordinator addressThis method should only be callable by the coordinator or contract owner"
      },
      "transferOwnership(address)": {
        "notice": "Allows an owner to begin transferring ownership to a new address, pending."
      }
    },
    "version": 1
  }
}