{
  "contractName": "ProjectVoting",
  "abi": [
    {
      "inputs": [
        {
          "internalType": "address",
          "name": "_vrfCoordinator",
          "type": "address"
        },
        {
          "internalType": "uint64",
          "name": "_subscriptionId",
          "type": "uint64"
        },
        {
          "internalType": "bytes32",
          "name": "_keyHash",
          "type": "bytes32"
        }
      ],
      "stateMutability": "nonpayable",
      "type": "constructor"
    },
    {
      "inputs": [
        {
          "internalType": "address",
          "name": "have",
          "type": "address"
        },
        {
          "internalType": "address",
          "name": "want",
          "type": "address"
        }
      ],
      "name": "OnlyCoordinatorCanFulfill",
      "type": "error"
    },
    {
      "anonymous": false,
      "inputs": [
        {
          "indexed": false,
          "internalType": "address",
          "name": "voter",
          "type": "address"
        },
        {
          "indexed": false,
          "internalType": "string[]",
          "name": "actionCIDs",
          "type": "string[]"
        }
      ],
      "name": "ActionPerformed",
      "type": "event"
    },
    {
      "anonymous": false,
      "inputs": [
        {
          "indexed": false,
          "internalType": "string",
          "name": "projectId",
          "type": "string"
        },
        {
          "indexed": false,
          "internalType": "string",
          "name": "projectName",
          "type": "string"
        }
      ],
      "name": "ProjectAdded",
      "type": "event"
    },
    {
      "anonymous": false,
      "inputs": [
        {
          "indexed": false,
          "internalType": "uint256",
          "name": "randomNumber",
          "type": "uint256"
        }
      ],
      "name": "RandomNumberReceived",
      "type": "event"
    },
    {
      "anonymous": false,
      "inputs": [
        {
          "indexed": false,
          "internalType": "uint256",
          "name": "requestId",
          "type": "uint256"
        }
      ],
      "name": "RandomNumberRequested",
      "type": "event"
    },
    {
      "anonymous": false,
      "inputs": [
        {
          "indexed": false,
          "internalType": "address",
          "name": "voter",
          "type": "address"
        },
        {
          "indexed": false,
          "internalType": "string",
          "name": "name",
          "type": "string"
        },
        {
          "indexed": false,
          "internalType": "string",
          "name": "projectId",
          "type": "string"
        }
      ],
      "name": "Voted",
      "type": "event"
    },
    {
      "anonymous": false,
      "inputs": [
        {
          "indexed": false,
          "internalType": "address",
          "name": "winner",
          "type": "address"
        },
        {
          "indexed": false,
          "internalType": "uint256",
          "name": "amount",
          "type": "uint256"
        }
      ],
      "name": "WinnerAnnounced",
      "type": "event"
    },
    {
      "inputs": [
        {
          "internalType": "uint256",
          "name": "",
          "type": "uint256"
        },
        {
          "internalType": "address",
          "name": "",
          "type": "address"
        }
      ],
      "name": "addressCycleChoice",
      "outputs": [
        {
          "internalType": "string",
          "name": "",
          "type": "string"
        }
      ],
      "stateMutability": "view",
      "type": "function",
      "constant": true
    },
    {
      "inputs": [
        {
          "internalType": "address",
          "name": "",
          "type": "address"
        }
      ],
      "name": "addressNames",
      "outputs": [
        {
          "internalType": "string",
          "name": "",
          "type": "string"
        }
      ],
      "stateMutability": "view",
      "type": "function",
      "constant": true
    },
    {
      "inputs": [],
      "name": "currentCycle",
      "outputs": [
        {
          "internalType": "uint256",
          "name": "",
          "type": "uint256"
        }
      ],
      "stateMutability": "view",
      "type": "function",
      "constant": true
    },
    {
      "inputs": [
        {
          "internalType": "uint256",
          "name": "",
          "type": "uint256"
        },
        {
          "internalType": "uint256",
          "name": "",
          "type": "uint256"
        }
      ],
      "name": "cycleVoters",
      "outputs": [
        {
          "internalType": "address",
          "name": "",
          "type": "address"
        }
      ],
      "stateMutability": "view",
      "type": "function",
      "constant": true
    },
    {
      "inputs": [
        {
          "internalType": "uint256",
          "name": "",
          "type": "uint256"
        },
        {
          "internalType": "string",
          "name": "",
          "type": "string"
        }
      ],
      "name": "cycleVotes",
      "outputs": [
        {
          "internalType": "uint256",
          "name": "",
          "type": "uint256"
        }
      ],
      "stateMutability": "view",
      "type": "function",
      "constant": true
    },
    {
      "inputs": [
        {
          "internalType": "uint256",
          "name": "",
          "type": "uint256"
        },
        {
          "internalType": "address",
          "name": "",
          "type": "address"
        }
      ],
      "name": "hasVotedForCycle",
      "outputs": [
        {
          "internalType": "bool",
          "name": "",
          "type": "bool"
        }
      ],
      "stateMutability": "view",
      "type": "function",
      "constant": true
    },
    {
      "inputs": [
        {
          "internalType": "string",
          "name": "",
          "type": "string"
        }
      ],
      "name": "projects",
      "outputs": [
        {
          "internalType": "string",
          "name": "",
          "type": "string"
        }
      ],
      "stateMutability": "view",
      "type": "function",
      "constant": true
    },
    {
      "inputs": [
        {
          "internalType": "uint256",
          "name": "requestId",
          "type": "uint256"
        },
        {
          "internalType": "uint256[]",
          "name": "randomWords",
          "type": "uint256[]"
        }
      ],
      "name": "rawFulfillRandomWords",
      "outputs": [],
      "stateMutability": "nonpayable",
      "type": "function"
    },
    {
      "inputs": [
        {
          "internalType": "string",
          "name": "projectName",
          "type": "string"
        },
        {
          "internalType": "string",
          "name": "projectId",
          "type": "string"
        }
      ],
      "name": "add",
      "outputs": [],
      "stateMutability": "nonpayable",
      "type": "function"
    },
    {
      "inputs": [
        {
          "internalType": "string",
          "name": "projectId",
          "type": "string"
        },
        {
          "internalType": "string",
          "name": "voterName",
          "type": "string"
        }
      ],
      "name": "vote",
      "outputs": [],
      "stateMutability": "payable",
      "type": "function",
      "payable": true
    },
    {
      "inputs": [
        {
          "internalType": "string",
          "name": "projectId",
          "type": "string"
        }
      ],
      "name": "getCycleVoteCount",
      "outputs": [
        {
          "internalType": "uint256",
          "name": "",
          "type": "uint256"
        }
      ],
      "stateMutability": "view",
      "type": "function",
      "constant": true
    },
    {
      "inputs": [],
      "name": "checkHasVotedForCycle",
      "outputs": [
        {
          "internalType": "bool",
          "name": "",
          "type": "bool"
        }
      ],
      "stateMutability": "view",
      "type": "function",
      "constant": true
    },
    {
      "inputs": [],
      "name": "getVoteCycleChoice",
      "outputs": [
        {
          "internalType": "string",
          "name": "",
          "type": "string"
        }
      ],
      "stateMutability": "view",
      "type": "function",
      "constant": true
    },
    {
      "inputs": [],
      "name": "getBalance",
      "outputs": [
        {
          "internalType": "uint256",
          "name": "",
          "type": "uint256"
        }
      ],
      "stateMutability": "view",
      "type": "function",
      "constant": true
    },
    {
      "inputs": [],
      "name": "getThreshold",
      "outputs": [
        {
          "internalType": "uint256",
          "name": "",
          "type": "uint256"
        }
      ],
      "stateMutability": "view",
      "type": "function",
      "constant": true
    },
    {
      "inputs": [
        {
          "internalType": "address",
          "name": "newOwner",
          "type": "address"
        }
      ],
      "name": "transferOwnership",
      "outputs": [],
      "stateMutability": "nonpayable",
      "type": "function"
    },
    {
      "inputs": [],
      "name": "withdraw",
      "outputs": [],
      "stateMutability": "nonpayable",
      "type": "function"
    }
  ],
  "bytecode": "0x60a060405267016345785d8a00006007556001600855620186a0600b5f6101000a81548163ffffffff021916908363ffffffff1602179055506003600b60046101000a81548161ffff021916908361ffff1602179055506001600b60066101000a81548163ffffffff021916908363ffffffff16021790555034801562000084575f80fd5b50604051620023f8380380620023f88339818101604052810190620000aa919062000278565b828073ffffffffffffffffffffffffffffffffffffffff1660808173ffffffffffffffffffffffffffffffffffffffff1681525050503360065f6101000a81548173ffffffffffffffffffffffffffffffffffffffff021916908373ffffffffffffffffffffffffffffffffffffffff16021790555081600960146101000a81548167ffffffffffffffff021916908367ffffffffffffffff16021790555080600a819055508260095f6101000a81548173ffffffffffffffffffffffffffffffffffffffff021916908373ffffffffffffffffffffffffffffffffffffffff160217905550505050620002d1565b5f80fd5b5f73ffffffffffffffffffffffffffffffffffffffff82169050919050565b5f620001c8826200019d565b9050919050565b620001da81620001bc565b8114620001e5575f80fd5b50565b5f81519050620001f881620001cf565b92915050565b5f67ffffffffffffffff82169050919050565b6200021c81620001fe565b811462000227575f80fd5b50565b5f815190506200023a8162000211565b92915050565b5f819050919050565b620002548162000240565b81146200025f575f80fd5b50565b5f81519050620002728162000249565b92915050565b5f805f6060848603121562000292576200029162000199565b5b5f620002a186828701620001e8565b9350506020620002b4868287016200022a565b9250506040620002c78682870162000262565b9150509250925092565b608051612107620002f15f395f818161047201526104c601526121075ff3fe6080604052600436106100fd575f3560e01c8063afe8efeb11610094578063e221a16e11610063578063e221a16e1461034f578063e75235b81461038b578063e8d5940d146103b5578063ebdf86ca146103d1578063f2fde38b146103f9576100fd565b8063afe8efeb14610295578063b0501869146102bf578063bab2f552146102fb578063df67bcf714610325576100fd565b80635934d70e116100d05780635934d70e146101a557806371c8fdbd146101e157806391c9b2681461021d578063a938212514610259576100fd565b806312065fe01461010157806312fe56e51461012b5780631fe543e3146101675780633ccfd60b1461018f575b5f80fd5b34801561010c575f80fd5b50610115610421565b6040516101229190611219565b60405180910390f35b348015610136575f80fd5b50610151600480360381019061014c919061126d565b610428565b60405161015e91906112ea565b60405180910390f35b348015610172575f80fd5b5061018d60048036038101906101889190611453565b610470565b005b34801561019a575f80fd5b506101a3610530565b005b3480156101b0575f80fd5b506101cb60048036038101906101c691906114d7565b610626565b6040516101d8919061152f565b60405180910390f35b3480156101ec575f80fd5b50610207600480360381019061020291906115f8565b610650565b6040516102149190611219565b60405180910390f35b348015610228575f80fd5b50610243600480360381019061023e91906115f8565b610687565b60405161025091906116b9565b60405180910390f35b348015610264575f80fd5b5061027f600480360381019061027a91906116d9565b61073a565b60405161028c9190611219565b60405180910390f35b3480156102a0575f80fd5b506102a9610771565b6040516102b691906116b9565b60405180910390f35b3480156102ca575f80fd5b506102e560048036038101906102e09190611733565b61084d565b6040516102f291906116b9565b60405180910390f35b348015610306575f80fd5b5061030f6108e8565b60405161031c9190611219565b60405180910390f35b348015610330575f80fd5b506103396108ee565b604051610346919061152f565b60405180910390f35b34801561035a575f80fd5b50610375600480360381019061037091906114d7565b61094f565b60405161038291906116b9565b60405180910390f35b348015610396575f80fd5b5061039f6109f5565b6040516103ac9190611219565b60405180910390f35b6103cf60048036038101906103ca919061175e565b6109fe565b005b3480156103dc575f80fd5b506103f760048036038101906103f2919061175e565b610d53565b005b348015610404575f80fd5b5061041f600480360381019061041a9190611733565b610f3d565b005b5f47905090565b6003602052815f5260405f208181548110610441575f80fd5b905f5260205f20015f915091509054906101000a900473ffffffffffffffffffffffffffffffffffffffff1681565b7f000000000000000000000000000000000000000000000000000000000000000073ffffffffffffffffffffffffffffffffffffffff163373ffffffffffffffffffffffffffffffffffffffff161461052257337f00000000000000000000000000000000000000000000000000000000000000006040517f1cf993f40000000000000000000000000000000000000000000000000000000081526004016105199291906117d4565b60405180910390fd5b61052c828261107d565b5050565b60065f9054906101000a900473ffffffffffffffffffffffffffffffffffffffff1673ffffffffffffffffffffffffffffffffffffffff163373ffffffffffffffffffffffffffffffffffffffff16146105bf576040517f08c379a00000000000000000000000000000000000000000000000000000000081526004016105b690611845565b60405180910390fd5b60065f9054906101000a900473ffffffffffffffffffffffffffffffffffffffff1673ffffffffffffffffffffffffffffffffffffffff166108fc4790811502906040515f60405180830381858888f19350505050158015610623573d5f803e3d5ffd5b50565b6002602052815f5260405f20602052805f5260405f205f915091509054906101000a900460ff1681565b5f805f60085481526020019081526020015f2082604051610671919061189d565b9081526020016040518091039020549050919050565b6005818051602081018201805184825260208301602085012081835280955050505050505f9150905080546106bb906118e0565b80601f01602080910402602001604051908101604052809291908181526020018280546106e7906118e0565b80156107325780601f1061070957610100808354040283529160200191610732565b820191905f5260205f20905b81548152906001019060200180831161071557829003601f168201915b505050505081565b5f602052815f5260405f20818051602081018201805184825260208301602085012081835280955050505050505f91509150505481565b606060015f60085481526020019081526020015f205f3373ffffffffffffffffffffffffffffffffffffffff1673ffffffffffffffffffffffffffffffffffffffff1681526020019081526020015f2080546107cc906118e0565b80601f01602080910402602001604051908101604052809291908181526020018280546107f8906118e0565b80156108435780601f1061081a57610100808354040283529160200191610843565b820191905f5260205f20905b81548152906001019060200180831161082657829003601f168201915b5050505050905090565b6004602052805f5260405f205f915090508054610869906118e0565b80601f0160208091040260200160405190810160405280929190818152602001828054610895906118e0565b80156108e05780601f106108b7576101008083540402835291602001916108e0565b820191905f5260205f20905b8154815290600101906020018083116108c357829003601f168201915b505050505081565b60085481565b5f60025f60085481526020019081526020015f205f3373ffffffffffffffffffffffffffffffffffffffff1673ffffffffffffffffffffffffffffffffffffffff1681526020019081526020015f205f9054906101000a900460ff16905090565b6001602052815f5260405f20602052805f5260405f205f91509150508054610976906118e0565b80601f01602080910402602001604051908101604052809291908181526020018280546109a2906118e0565b80156109ed5780601f106109c4576101008083540402835291602001916109ed565b820191905f5260205f20905b8154815290600101906020018083116109d057829003601f168201915b505050505081565b5f600754905090565b66038d7ea4c68000341015610a48576040517f08c379a0000000000000000000000000000000000000000000000000000000008152600401610a3f9061195a565b60405180910390fd5b66b1a2bc2ec50000341115610a92576040517f08c379a0000000000000000000000000000000000000000000000000000000008152600401610a89906119c2565b60405180910390fd5b5f60025f60085481526020019081526020015f205f3373ffffffffffffffffffffffffffffffffffffffff1673ffffffffffffffffffffffffffffffffffffffff1681526020019081526020015f205f9054906101000a900460ff1690508015610b31576040517f08c379a0000000000000000000000000000000000000000000000000000000008152600401610b2890611a2a565b60405180910390fd5b5f600584604051610b42919061189d565b90815260200160405180910390208054610b5b906118e0565b905011610b9d576040517f08c379a0000000000000000000000000000000000000000000000000000000008152600401610b9490611a92565b60405180910390fd5b8260015f60085481526020019081526020015f205f3373ffffffffffffffffffffffffffffffffffffffff1673ffffffffffffffffffffffffffffffffffffffff1681526020019081526020015f209081610bf89190611c4d565b505f8060085481526020019081526020015f2083604051610c19919061189d565b90815260200160405180910390205f815480929190610c3790611d49565b9190505550600160025f60085481526020019081526020015f205f3373ffffffffffffffffffffffffffffffffffffffff1673ffffffffffffffffffffffffffffffffffffffff1681526020019081526020015f205f6101000a81548160ff02191690831515021790555060035f60085481526020019081526020015f2033908060018154018082558091505060019003905f5260205f20015f9091909190916101000a81548173ffffffffffffffffffffffffffffffffffffffff021916908373ffffffffffffffffffffffffffffffffffffffff1602179055507ff411f516043be7e54a4fbc44dc33e96f9a6caa30cf08d393cdb7492ba92154f5338385604051610d4693929190611d90565b60405180910390a1505050565b60065f9054906101000a900473ffffffffffffffffffffffffffffffffffffffff1673ffffffffffffffffffffffffffffffffffffffff163373ffffffffffffffffffffffffffffffffffffffff1614610de2576040517f08c379a0000000000000000000000000000000000000000000000000000000008152600401610dd990611845565b60405180910390fd5b5f600582604051610df3919061189d565b90815260200160405180910390208054610e0c906118e0565b905014610e4e576040517f08c379a0000000000000000000000000000000000000000000000000000000008152600401610e4590611e1d565b60405180910390fd5b5f825111610e91576040517f08c379a0000000000000000000000000000000000000000000000000000000008152600401610e8890611e85565b60405180910390fd5b5f815111610ed4576040517f08c379a0000000000000000000000000000000000000000000000000000000008152600401610ecb90611eed565b60405180910390fd5b81600582604051610ee5919061189d565b90815260200160405180910390209081610eff9190611c4d565b507feb5d6000a362475be9d9b16beddc148b7004850daf2e69325a403d613567769e8183604051610f31929190611f0b565b60405180910390a15050565b60065f9054906101000a900473ffffffffffffffffffffffffffffffffffffffff1673ffffffffffffffffffffffffffffffffffffffff163373ffffffffffffffffffffffffffffffffffffffff1614610fcc576040517f08c379a0000000000000000000000000000000000000000000000000000000008152600401610fc390611845565b60405180910390fd5b5f73ffffffffffffffffffffffffffffffffffffffff168173ffffffffffffffffffffffffffffffffffffffff160361103a576040517f08c379a000000000000000000000000000000000000000000000000000000000815260040161103190611fb0565b60405180910390fd5b8060065f6101000a81548173ffffffffffffffffffffffffffffffffffffffff021916908373ffffffffffffffffffffffffffffffffffffffff16021790555050565b5f815f8151811061109157611090611fce565b5b602002602001015190507fe9a9868fdaf3f6179fe8012374366a6b13cc9596ad26ee37a06f12c548d633c3825f815181106110cf576110ce611fce565b5b60200260200101516040516110e49190611219565b60405180910390a15f60035f60085481526020019081526020015f20805490508261110f9190612028565b90505f60035f60085481526020019081526020015f20828154811061113757611136611fce565b5b905f5260205f20015f9054906101000a900473ffffffffffffffffffffffffffffffffffffffff1690505f4790507fac853ae20ebc831e1db62fa17db64e8e173b63c6dcd89a4a4f5f24a1a080322e82826040516111969291906120aa565b60405180910390a18173ffffffffffffffffffffffffffffffffffffffff166108fc8290811502906040515f60405180830381858888f193505050501580156111e1573d5f803e3d5ffd5b5060085f8154809291906111f490611d49565b9190505550505050505050565b5f819050919050565b61121381611201565b82525050565b5f60208201905061122c5f83018461120a565b92915050565b5f604051905090565b5f80fd5b5f80fd5b61124c81611201565b8114611256575f80fd5b50565b5f8135905061126781611243565b92915050565b5f80604083850312156112835761128261123b565b5b5f61129085828601611259565b92505060206112a185828601611259565b9150509250929050565b5f73ffffffffffffffffffffffffffffffffffffffff82169050919050565b5f6112d4826112ab565b9050919050565b6112e4816112ca565b82525050565b5f6020820190506112fd5f8301846112db565b92915050565b5f80fd5b5f601f19601f8301169050919050565b7f4e487b71000000000000000000000000000000000000000000000000000000005f52604160045260245ffd5b61134d82611307565b810181811067ffffffffffffffff8211171561136c5761136b611317565b5b80604052505050565b5f61137e611232565b905061138a8282611344565b919050565b5f67ffffffffffffffff8211156113a9576113a8611317565b5b602082029050602081019050919050565b5f80fd5b5f6113d06113cb8461138f565b611375565b905080838252602082019050602084028301858111156113f3576113f26113ba565b5b835b8181101561141c57806114088882611259565b8452602084019350506020810190506113f5565b5050509392505050565b5f82601f83011261143a57611439611303565b5b813561144a8482602086016113be565b91505092915050565b5f80604083850312156114695761146861123b565b5b5f61147685828601611259565b925050602083013567ffffffffffffffff8111156114975761149661123f565b5b6114a385828601611426565b9150509250929050565b6114b6816112ca565b81146114c0575f80fd5b50565b5f813590506114d1816114ad565b92915050565b5f80604083850312156114ed576114ec61123b565b5b5f6114fa85828601611259565b925050602061150b858286016114c3565b9150509250929050565b5f8115159050919050565b61152981611515565b82525050565b5f6020820190506115425f830184611520565b92915050565b5f80fd5b5f67ffffffffffffffff82111561156657611565611317565b5b61156f82611307565b9050602081019050919050565b828183375f83830152505050565b5f61159c6115978461154c565b611375565b9050828152602081018484840111156115b8576115b7611548565b5b6115c384828561157c565b509392505050565b5f82601f8301126115df576115de611303565b5b81356115ef84826020860161158a565b91505092915050565b5f6020828403121561160d5761160c61123b565b5b5f82013567ffffffffffffffff81111561162a5761162961123f565b5b611636848285016115cb565b91505092915050565b5f81519050919050565b5f82825260208201905092915050565b5f5b8381101561167657808201518184015260208101905061165b565b5f8484015250505050565b5f61168b8261163f565b6116958185611649565b93506116a5818560208601611659565b6116ae81611307565b840191505092915050565b5f6020820190508181035f8301526116d18184611681565b905092915050565b5f80604083850312156116ef576116ee61123b565b5b5f6116fc85828601611259565b925050602083013567ffffffffffffffff81111561171d5761171c61123f565b5b611729858286016115cb565b9150509250929050565b5f602082840312156117485761174761123b565b5b5f611755848285016114c3565b91505092915050565b5f80604083850312156117745761177361123b565b5b5f83013567ffffffffffffffff8111156117915761179061123f565b5b61179d858286016115cb565b925050602083013567ffffffffffffffff8111156117be576117bd61123f565b5b6117ca858286016115cb565b9150509250929050565b5f6040820190506117e75f8301856112db565b6117f460208301846112db565b9392505050565b7f4f6e6c79206f776e65722063616e2065786563757465000000000000000000005f82015250565b5f61182f601683611649565b915061183a826117fb565b602082019050919050565b5f6020820190508181035f83015261185c81611823565b9050919050565b5f81905092915050565b5f6118778261163f565b6118818185611863565b9350611891818560208601611659565b80840191505092915050565b5f6118a8828461186d565b915081905092915050565b7f4e487b71000000000000000000000000000000000000000000000000000000005f52602260045260245ffd5b5f60028204905060018216806118f757607f821691505b60208210810361190a576119096118b3565b5b50919050565b7f4d696e696d756d20302e303031206574686572000000000000000000000000005f82015250565b5f611944601383611649565b915061194f82611910565b602082019050919050565b5f6020820190508181035f83015261197181611938565b9050919050565b7f4d6178696d756d20302e303520657468657200000000000000000000000000005f82015250565b5f6119ac601283611649565b91506119b782611978565b602082019050919050565b5f6020820190508181035f8301526119d9816119a0565b9050919050565b7f416c726561647920766f746564000000000000000000000000000000000000005f82015250565b5f611a14600d83611649565b9150611a1f826119e0565b602082019050919050565b5f6020820190508181035f830152611a4181611a08565b9050919050565b7f50726f6a65637420646f6573206e6f74206578697374000000000000000000005f82015250565b5f611a7c601683611649565b9150611a8782611a48565b602082019050919050565b5f6020820190508181035f830152611aa981611a70565b9050919050565b5f819050815f5260205f209050919050565b5f6020601f8301049050919050565b5f82821b905092915050565b5f60088302611b0c7fffffffffffffffffffffffffffffffffffffffffffffffffffffffffffffffff82611ad1565b611b168683611ad1565b95508019841693508086168417925050509392505050565b5f819050919050565b5f611b51611b4c611b4784611201565b611b2e565b611201565b9050919050565b5f819050919050565b611b6a83611b37565b611b7e611b7682611b58565b848454611add565b825550505050565b5f90565b611b92611b86565b611b9d818484611b61565b505050565b5b81811015611bc057611bb55f82611b8a565b600181019050611ba3565b5050565b601f821115611c0557611bd681611ab0565b611bdf84611ac2565b81016020851015611bee578190505b611c02611bfa85611ac2565b830182611ba2565b50505b505050565b5f82821c905092915050565b5f611c255f1984600802611c0a565b1980831691505092915050565b5f611c3d8383611c16565b9150826002028217905092915050565b611c568261163f565b67ffffffffffffffff811115611c6f57611c6e611317565b5b611c7982546118e0565b611c84828285611bc4565b5f60209050601f831160018114611cb5575f8415611ca3578287015190505b611cad8582611c32565b865550611d14565b601f198416611cc386611ab0565b5f5b82811015611cea57848901518255600182019150602085019450602081019050611cc5565b86831015611d075784890151611d03601f891682611c16565b8355505b6001600288020188555050505b505050505050565b7f4e487b71000000000000000000000000000000000000000000000000000000005f52601160045260245ffd5b5f611d5382611201565b91507fffffffffffffffffffffffffffffffffffffffffffffffffffffffffffffffff8203611d8557611d84611d1c565b5b600182019050919050565b5f606082019050611da35f8301866112db565b8181036020830152611db58185611681565b90508181036040830152611dc98184611681565b9050949350505050565b7f50726f6a65637420616c726561647920657869737473000000000000000000005f82015250565b5f611e07601683611649565b9150611e1282611dd3565b602082019050919050565b5f6020820190508181035f830152611e3481611dfb565b9050919050565b7f50726f6a656374206e616d6520697320726571756972656400000000000000005f82015250565b5f611e6f601883611649565b9150611e7a82611e3b565b602082019050919050565b5f6020820190508181035f830152611e9c81611e63565b9050919050565b7f50726f6a656374204944206973207265717569726564000000000000000000005f82015250565b5f611ed7601683611649565b9150611ee282611ea3565b602082019050919050565b5f6020820190508181035f830152611f0481611ecb565b9050919050565b5f6040820190508181035f830152611f238185611681565b90508181036020830152611f378184611681565b90509392505050565b7f4e6577206f776e65722063616e6e6f7420626520746865207a65726f206164645f8201527f7265737300000000000000000000000000000000000000000000000000000000602082015250565b5f611f9a602483611649565b9150611fa582611f40565b604082019050919050565b5f6020820190508181035f830152611fc781611f8e565b9050919050565b7f4e487b71000000000000000000000000000000000000000000000000000000005f52603260045260245ffd5b7f4e487b71000000000000000000000000000000000000000000000000000000005f52601260045260245ffd5b5f61203282611201565b915061203d83611201565b92508261204d5761204c611ffb565b5b828206905092915050565b5f61207261206d612068846112ab565b611b2e565b6112ab565b9050919050565b5f61208382612058565b9050919050565b5f61209482612079565b9050919050565b6120a48161208a565b82525050565b5f6040820190506120bd5f83018561209b565b6120ca602083018461120a565b939250505056fea2646970667358221220abbbdb365a1da5b608adc6411896c450e0c3153cb49628d243fcb043a8f6b48464736f6c63430008150033",
  "immutableReferences": {
    "106": [
      {
        "length": 32,
        "start": 1138
      },
      {
        "length": 32,
        "start": 1222
      }
    ]
  },
  "source": "// SPDX-License-Identifier: MIT\npragma solidity ^0.8.0;\n\nimport \"@openzeppelin/contracts/utils/Address.sol\";\nimport \"@chainlink/contracts/src/v0.8/vrf/VRFConsumerBaseV2.sol\";\nimport \"@chainlink/contracts/src/v0.8/interfaces/VRFCoordinatorV2Interface.sol\";\nimport \"@openzeppelin/contracts/token/ERC20/IERC20.sol\";\n\ncontract ProjectVoting is VRFConsumerBaseV2{\n    // Voting mappings\n    mapping(uint => mapping(string => uint)) public cycleVotes; // total project votes within the current cycle\n    mapping(uint => mapping(address => string)) public addressCycleChoice; // address project choice for the currrent cycle\n    mapping(uint => mapping(address => bool)) public hasVotedForCycle; // has the address voted for a project in the current cycle\n    mapping(uint => address[]) public cycleVoters; // list of voters of the current cycle\n    mapping(address => string) public addressNames; // address display names\n    mapping(string => string) public projects;\n\n    address private owner;\n    uint private threshold = 0.1 ether;\n    uint public currentCycle = 1; // <= current cycle\n\n    // Chainlink VRF Variables\n    VRFCoordinatorV2Interface COORDINATOR;\n    uint64 private subscriptionId; // this can be found here https://vrf.chain.link/sepolia\n    bytes32 private keyHash;\n    uint32 private callbackGasLimit = 100000; // Adjust the gas limit based on the requirement\n    uint16 private requestConfirmations = 3; // Minimum number of confirmations\n    uint32 private numWords =  1; // Number of random values to request\n\n    // Voting Events\n    event ProjectAdded(string projectId, string projectName);\n    event Voted(address voter, string name, string projectId); \n    event WinnerAnnounced(address winner, uint256 amount);\n\n    // User Action Events\n    event ActionPerformed(address voter, string[] actionCIDs);\n\n    // Chainlink VRF Events\n    event RandomNumberRequested(uint256 requestId);\n    event RandomNumberReceived(uint256 randomNumber);\n\n    modifier onlyOwner() {\n        require(msg.sender == owner, \"Only owner can execute\");\n        _;\n    }\n  \n    constructor(\n        address _vrfCoordinator,\n        uint64 _subscriptionId,\n        bytes32 _keyHash\n    ) VRFConsumerBaseV2(_vrfCoordinator) {\n        owner = msg.sender;\n        subscriptionId = _subscriptionId;\n        keyHash = _keyHash;\n        COORDINATOR = VRFCoordinatorV2Interface(_vrfCoordinator);\n    }\n\n    function add(string memory projectName, string memory projectId) public onlyOwner {\n        require(bytes(projects[projectId]).length == 0, \"Project already exists\");\n        require(bytes(projectName).length > 0, \"Project name is required\");\n        require(bytes(projectId).length > 0, \"Project ID is required\"); \n        projects[projectId] = projectName;\n        emit ProjectAdded(projectId, projectName);\n    }\n\n    function vote(string memory projectId, string memory voterName) payable public {\n        require(msg.value >= 0.001 ether, \"Minimum 0.001 ether\");\n        require(msg.value <= 0.05 ether, \"Maximum 0.05 ether\");\n        bool hasVoted = hasVotedForCycle[currentCycle][msg.sender];\n        require(!hasVoted, \"Already voted\");\n        require(bytes(projects[projectId]).length > 0, \"Project does not exist\"); \n        addressCycleChoice[currentCycle][msg.sender] = projectId;\n        cycleVotes[currentCycle][projectId]++;\n        hasVotedForCycle[currentCycle][msg.sender] = true;\n        cycleVoters[currentCycle].push(msg.sender);\n        // checkAndTransfer();\n        emit Voted(msg.sender, voterName, projectId);\n    }\n\n    function getCycleVoteCount(string memory projectId) public view returns (uint) {\n        return cycleVotes[currentCycle][projectId];\n    }\n\n    function checkHasVotedForCycle() public view returns (bool) {\n        return hasVotedForCycle[currentCycle][msg.sender];\n    }\n\n    function getVoteCycleChoice() public view returns (string memory) {\n        return addressCycleChoice[currentCycle][msg.sender];\n    }\n\n    function getBalance() public view returns (uint256) {\n        return address(this).balance;\n    }\n\n    function getThreshold() public view returns (uint256) {\n        return threshold;\n    }\n\n    function checkAndTransfer() internal {\n        if (address(this).balance >= threshold) {\n            require(cycleVoters[currentCycle].length > 0, \"No voters to reward\");\n            uint256 requestId = COORDINATOR.requestRandomWords(\n                keyHash,\n                subscriptionId,\n                requestConfirmations,\n                callbackGasLimit,\n                numWords\n            );\n            emit RandomNumberRequested(requestId);\n        }\n    }\n\n    function fulfillRandomWords(uint256 /* requestId */, uint256[] memory randomWords) internal override {\n        uint256 randomResult = randomWords[0];\n        emit RandomNumberReceived(randomWords[0]);\n        uint randomIndex = randomResult % cycleVoters[currentCycle].length;\n        address payable luckyVoter = payable(cycleVoters[currentCycle][randomIndex]);\n        uint256 amountToSend = address(this).balance;\n        emit WinnerAnnounced(luckyVoter, amountToSend);\n        luckyVoter.transfer(amountToSend);\n        currentCycle++;\n    }\n\n    function transferOwnership(address newOwner) public onlyOwner {\n        require(newOwner != address(0), \"New owner cannot be the zero address\");\n        owner = newOwner;\n    }\n\n    function withdraw() public onlyOwner {\n        payable(owner).transfer(address(this).balance);\n    }\n}\n",
  "sourcePath": "/home/devindavis/WebDev/Projects/PersonalSite/smart-contracts/contracts/project-voting.sol",
  "compiler": {
    "name": "solc",
    "version": "0.8.21+commit.d9974bed.Emscripten.clang"
  },
  "schemaVersion": "3.4.16",
  "updatedAt": "2024-08-06T23:41:01.106Z",
  "networkType": "ethereum",
  "devdoc": {
    "kind": "dev",
    "methods": {},
    "version": 1
  },
  "userdoc": {
    "kind": "user",
    "methods": {},
    "version": 1
  }
}